S0200000626F6F746C6F616465722D54595A53342D636F6D62696E65642E73333780
S315000000000020002045050000910500009105000034
S315000000109105000091050000910500009105000082
S315000000209105000091050000AC0500009105000057
S315000000309105000091050000910500009105000062
S3150000004010B5054C237833B9044B13B10448AFF30C
S3150000005000800123237010BD100100200000000065
S31500000060C005000008B5034B1BB103490348AFF3B5
S31500000070008008BD0000000014010020C00500003B
S315000000800D4B0E4A9A60D3F8882042F47002C3F8EA
S3150000009088200B4B5A6D42F400525A651A6C22F0B6
S315000000A003021A645A6F22F001025A671A6E22F08E
S315000000B080521A66704700BF00ED00E000000000A5
S315000000C000300E400F4A70B5002308258B4201D13F
S315000000D0002070BD50F8234094610B4CD56001336D
S315000000E0D669F60705D514B96FF00200F1E7013CB1
S315000000F0F6E7002CF8D0D469A407E7D56FF0010025
S31500000100E7E700BF00000E4080969800094A0A4BB8
S31500000110D969C90705D512B96FF002007047013ACF
S31500000120F6E7002AF8D001221861DA60D86940F3B0
S31500000130800070478096980000000E4009B1FFF7D6
S31500000140C1BF084670470000224B2DE9F0470D4617
S3150000015041F671311F6C1964996841F00101064638
S31500000160BFB299604FEA9208AA464FF00009C1450E
S315000001700DD3002032682B689A420ED03046FFF726
S31500000180C5FF50B901212846FFF79CFF05E006EBA5
S3150000019089042046FFF7BAFF48B10E4B9A6822F051
S315000001A001029A600FB100221A64BDE8F087C4F319
S315000001B00A04C4F50064A408A8EB0901A14228BFFB
S315000001C021465046FFF7BAFF0028D3D189440AEBEF
S315000001D0810ACCE700000E40214B41F671311A6CC2
S315000001E01964996841F00101996001211861D9608B
S315000001F0D969490792B209D5996821F00101996038
S315000002000AB100221A644FF0FF3070470221D9600C
S315000002101449D869C00700D569B9D86910F0020039
S315000002200BD0996821F0010199600AB100221A6485
S315000002306FF0010070470139EBE741B9986820F08B
S315000002400100986002B119646FF002007047996866
S3150000025021F0010199600AB1186470471046704791
S3150000026000000E4080969800FFF76EBF08B5074B5A
S315000002701A68074B1A6000F073F80028FBD040F2AA
S31500000280022000F0B9F8002008BD00BF04010020DC
S315000002900001002010B5104C0023A36000F0CAF83E
S315000002A00E4B5B68B3F5803F09D040F209239842B4
S315000002B002D0B0F5007F02D100F012F858B94FF421
S315000002C00063A3601846016881F3088881F30988F2
S315000002D040688746FEE710BD00ED00E000500E4086
S315000002E02DE9F0414FF00008D8F828201069D568AC
S315000002F0836AAB4202D20020BDE8F08105F5605268
S315000003009A42F8D95B1BC618C758134B9F42F2D1C5
S31500000310F1684FF0FF3200F0FBF8104B98420446AC
S31500000320E9D1D8F82838A3F50062B2F5605F10D29B
S315000003301A68BA420DD1B1689A68914209D8D9684B
S315000003404FF0FF32284600F0E3F8001B18BF0120EB
S31500000350D2E70120D0E700BF07B0CD5EE320BBDEC9
S31500000360F8B500239B6AD3E90347BB6A1B1BFD183C
S315000003702646EA68A318B3421BD83946204600F041
S3150000038092F8A8B10020D0F82838A3F50062B2F59B
S31500000390605F0DD219680A4A914209D1D9684FF0B7
S315000003A0FF32204600F0B4F8064BC31A58425841B3
S315000003B0F8BD304600F070F806F50066D9E700BFD4
S315000003C007B0CD5EE320BBDE4FF000534AF6C030E7
S315000003D05B8823F00F039BB21B1A584258417047A3
S315000003E04FF0005208B51080FFF7EEFF10B94FF23C
S315000003F00F03538008BD000008B5FFF7F1FF0A4A56
S31500000400136823F4E06343F400731360BFF34F8F64
S315000004100649074BCA6802F4E0621343CB60BFF398
S315000004204F8F00BFFDE700BF00500E4000ED00E01B
S315000004300400FA0508B5FFF7C7FF30B94FF00053BF
S315000004404FF20F015A888A4203D14FF000531888A1
S3150000045008BD3AB91B88012B40F2022018BF4FF4A1
S315000004600070F5E74FF40070F2E707B503469B0707
S3150000047053BF6FEA01414FF6FF7343EA01416FEA4A
S3150000048011410422019120F003000DEB0201FFF758
S31500000490EBFE03B05DF804FB08B5FFF79DFEB0FA6E
S315000004A080F0400908BDF8B505460E4614460AB95F
S315000004B00120F8BD42EA0003DA0701D50020F8E77B
S315000004C0830721D50988FFF7D0FF0028F6D1023C23
S315000004D0032C05F1020506F102060BD924F00307E9
S315000004E03A4631462846FFF7BFFE0028E6D13E448D
S315000004F03D44E41B002CDBD031882846FFF7B5FFCE
S31500000500B0FA80F04009D4E7032CE7D8F4E70000FE
S3150000051010B50A4CD4F8B03043F02003C4F8B0301C
S31500000520074B01241C6001449A605C60884201D13B
S31500000530D86910BD10F8012B9A61F7E700400E400C
S3150000054000C001400B4880470B4880470B490C4AC6
S315000005500C4B9A42BEBF51F8040B42F8040BF8E765
S3150000056009490A4A00209142BCBF41F8040BFAE748
S31500000570FFF77CFE8100000095020000C405000024
S315000005800001002010010020100100202C01002095
S31500000590FEE700BFF8B500BFF8BC08BC9E46704732
S315000005A0F8B500BFF8BC08BC9E467047AD1007B052
S315000005B00100000000000C0100080000008000009F
S315000005C000000000C0EA2101C0EA21016500000028
S309000005D041000000E0
S31500000800007C0020C9080000C5080000B1090000EE
S31500000810C5080000C5080000C5080000C50800009E
S31500000820C5080000C508000064380000C5080000BF
S31500000830C5080000A4380000C5080000C50800006F
S3150000084010B5054C237833B9044B13B10448AFF304
S3150000085000800123237010BD180100200000000055
S31500000860003B000008B5034B1BB103490348AFF337
S31500000870008008BD000000001C010020003B0000B5
S315000008800D4B0E4A9A60D3F8882042F47002C3F8E2
S3150000089088200B4B5A6D42F400525A651A6C22F0AE
S315000008A003021A645A6F22F001025A671A6E22F086
S315000008B080521A66704700BF00ED00E00008000095
S315000008C000300E40FEE7000008B5FFF7D9FF00F044
S315000008D0E3F80E4B0E48DA1C121AC11E22F0030270
S315000008E0994288BF00220B4902F090FF0A4B0B4841
S315000008F0DA1C121AC11E22F00302994288BF002296
S31500000900002102F091FF00F057F800BF1801002007
S3150000091000010020043B0000EC0300201801002029
S31500000920002070470020704730B51B4B87B001AAE6
S3150000093003F1100518685968144603C40833AB421E
S315000009402246F7D11B78154A2370D2F8943003F06B
S315000009500703022B1BD01369C3F30443102B18D8CB
S3150000096006A90B440E4813F8143C0E4943438B4228
S3150000097003D11269C2F34162D340084AD2F800019A
S31500000980C0F304200130B3FBF0F007B030BD064BD6
S31500000990F3E7064BF1E700BF5038000000400E4079
S315000009A040420F0000093D0000F04902C0EA210163
S315000009B04FF4017002F06AB9314B13B501225A6443
S315000009C0304BD3F8FC4001A8240E01F049F98E2CD7
S315000009D01CD82D49D1F8B00040F00403C1F8B0305E
S315000009E02A4B4FF050121A601A631A66C3F8902009
S315000009F0C3F8C020C3F8F020C1F8B000224AD36A79
S31500000A0023F07F0343F02003D36201E08F2CF5D05F
S31500000A109DF80530012B01BF1D4AD2F8643143F021
S31500000A200403C2F864311B4B0022C3F8B42AFFF753
S31500000A3077FF02F00EF901F031FD01F031FD18B13A
S31500000A404FF4017002F022F901F062FD044601F054
S31500000A50F7FE1CB140F203739C4203D140F2012021
S31500000A6002F014F9A4F20574012C94BF40F203209D
S31500000A704FF4017002F00AF9002002B010BD00BF69
S31500000A8000000E400081E00F00400E4000A0004034
S31500000A9000300E400000C64313B5264B01248DF8E6
S31500000AA006408DF807405B685B050BD502F00CF934
S31500000AB0A0F2022080B2072804D804FA00F010F051
S31500000AC0C90F02D101F03EF920B100238DF806309E
S31500000AD08DF807304FF480435B68013308D14FF43B
S31500000AE0027002F0C8F800238DF806308DF8073042
S31500000AF09DF8073063B14FF4804001F0DFFF8DF8B9
S31500000B0006009DF806301BB94FF4027002F0B3F8E8
S31500000B109DF8063063B1084A4FF480439360184647
S31500000B20016881F3088881F3098840688746FEE7F3
S31500000B3002B010BD00500E4000ED00E000207047EE
S31500000B4049BA89B24840C0F30313584003B283EA56
S31500000B500033580100F4FF509BB25840704738B537
S31500000B60044645181046AC4200D138BD014614F87B
S31500000B70010BFFF7E5FFF6E710B50A4CD4F8B030E5
S31500000B8043F02003C4F8B030074B01241C60014435
S31500000B909A605C60884201D1D86910BD10F8012BBB
S31500000BA09A61F7E700400E4000C00140F8B50446E0
S31500000BB016461D460F4601F0A8F9DDE90612204645
S31500000BC001F0A7F90023636284F838703368C4F82B
S31500000BD039307368C4F83D30B368C4F841302B0C23
S31500000BE06DBA84F84530A4F84650F8BD30B585B0E6
S31500000BF00D46194600F12803CDE90152009300F194
S31500000C00240200F1380301F09DF905B030BD000063
S31500000C102DE9F041A2B00E46DDF8A08015461F462C
S31500000C20044670B369B362B35BB3B8F1000F28D062
S31500000C301548012100F0B8FE4022002102A802F06A
S31500000C40F3FD394602A800F0E5FC12AF41460AA8BA
S31500000C5000F0E0FC40220021384602F0E5FD314676
S31500000C60384600F0D7FC29461AA800F0D3FC0748FE
S31500000C70009702AB2022214600F0DEFC22B0BDE840
S31500000C80F08140F20160F9E700150A0000000F400C
S31500000C9010B5044600F0C0F820460021BDE810401B
S31500000CA000F0BEB800F0C1B8014600F0CBB80000B5
S31500000CB02DE9F34799460A9B0C4619683F290546D4
S31500000CC0164642D85A68002A41D0224A002E14BF3E
S31500000CD0B046904601F03F07091928BF5A681960C7
S31500000CE024BF01325A60AFB1C7F1400AA24521D8EC
S31500000CF02946524609EB070002F088FD01230093BE
S31500000D00414633464A46002000F0A4F8403C55448C
S31500000D103C44B0463F2C0CD9A30900932A463346DF
S31500000D204146002000F096F824F03F031D4404F0ED
S31500000D303F0400272CB12246294609EB070002F0A2
S31500000D4065FD002002B0BDE8F0879046C2E7DFF8F7
S31500000D500480BFE7E438000030B405460846114673
S31500000D601A46DDE9023425B931B1029430BCFFF7E9
S31500000D709FBF024830BC70470846FBE780AFFFFFC5
S31500000D802DE9F041146886B01E46E3008DF80F3059
S31500000D90630917468DF80E305268630B8DF80D30D7
S31500000DA0630D8DF80C30D30003EB54738DF80B30C4
S31500000DB004F03F045309372C8DF80A304FEA5233BA
S31500000DC04FEA525205468DF80820CDE9001794BF28
S31500000DD0C4F13802C4F1780288468DF809300D490D
S31500000DE003460020FFF7B8FF0821434600972A462E
S31500000DF00DEB0100FFF75CFF284605F1200350F8D4
S31500000E00042B46F8042B9842F9D1002006B0BDE821
S31500000E10F08100BF043900006822002102F004BD01
S31500000E200023C0E900331846704707B500F12803D0
S31500000E300190009300F108030020FFF78DFF03B037
S31500000E405DF804FB02460B4600F128010830FFF767
S31500000E5097BF00002DE9F04F99B006460F46904621
S31500000E601D4601F031F90446002E40F0E4800423CB
S31500000E7003604660C664436823F4406343606A4681
S31500000E8006633B1F46631C3753F8041F09BABB426F
S31500000E9042F8041BF8D100F0C7FD009BC4F80431EA
S31500000EA0019BC4F80431029BC4F80431039BC4F8C7
S31500000EB00431049BC4F80431059BC4F80431069B35
S31500000EC0C4F80431079BC4F8043100F0B1FDDFF823
S31500000ED074A15A4B2365002708F00309229B9F4201
S31500000EE039D1AB0700F08A8000F09EFDD4F800717E
S31500000EF0D4F80011D4F80021D4F80031CDE90071FE
S31500000F00CDE90223D4F80071D4F80011D4F80021F9
S31500000F10D4F80031CDE90471CDE906236E4600F020
S31500000F2087FD08AF2A46334603CBBB4210605160AB
S31500000F301E4602F10802F6D1204601F0CFF82B1F1B
S31500000F401C3553F8042F12BAAB421A60F9D10020AF
S31500000F5019B0BDE8F08F08EB871BB9F1000F0FD071
S31500000F6008AA0BF1400CDBF80000DBF8041013466E
S31500000F7003C30BF1080BE3451A46F4D10DF1200B20
S31500000F8000F052FDDBE90131DBF80C20DBF80060F4
S31500000F90C4F8A461C4F8A431C4F8A411C4F8A42107
S31500000FA0DBE90531DBF81C20DBF81060C4F8A4612E
S31500000FB0C4F8A431C4F8A411C4F8A421DBE90931AA
S31500000FC0DBF82C20DBF82060C4F8A461C4F8A43157
S31500000FD0C4F8A411C4F8A421DBE90CC1DBE90E2393
S31500000FE0C4F8A4C1C4F8A411C4F8A421C4F8A43157
S31500000FF000F01EFD0137C4F850A06FE700F014FDA5
S31500001000D4F80061D4F80011D4F80021D4F80031E6
S31500001010C5E90061C5E90223D4F80061D4F80011DE
S31500001020D4F80021D4F80031C5E90461C5E90623E6
S3150000103000F0FEFC80E702488AE700BF888AC80104
S3150000104080AFFFFF070D810103685BB903461C20D3
S3150000105053F8042F0AB90438FAD10028CCBF00206F
S31500001060012070470020704730B5056804680268A3
S315000010700368C1E90054C1E90223056804680268EF
S315000010800368C1E90454C1E9062330BDD1E902234E
S3150000109030B5D1E900540560046002600360D1E90F
S315000010A00454D1E90623056004600260036030BD84
S315000010B02DE9F04104461D460F46904600211C22AC
S315000010C0181D02F0B1FB01232B6000F0ADFC414678
S315000010D0064604F58070FFF7D9FF394604F582709D
S315000010E004F58477FFF7D2FF29463846FFF7CEFF8F
S315000010F0304600F09DFC0D4E0D4B0E4A0E490F4832
S3150000110023656369DB010BD500F08EFC2946044696
S315000011103846FFF7A9FF2046BDE8F04100F088BC3D
S3150000112022656165A065E665EBE700BF3938010019
S3150000113039398401D02484FC1C82FED88B1C81A002
S315000011402DE9F04F2DED028B8BB004469A460D46E5
S31500001150164600F069FC04F5827705F14002114657
S3150000116004F5867B804638460192FFF78FFF3146AD
S315000011705846FFF78BFF04F58873184606F12001E1
S315000011800093FFF783FF404600F052FC4349216578
S315000011904349616501264349A165E66500F044FCC3
S315000011A0294681463846FFF771FF04F5847805F134
S315000011B020031946404608EE103AFFF767FF019AEA
S315000011C0009B11461846FFF761FF484600F030FCC9
S315000011D0354B2365354B6365A66500F025FC04F5A4
S315000011E0807900900AF140014846FFF73DFF02A9C9
S315000011F04046FFF739FF009B184600F019FC00F047
S3150000120013FC294600905846FFF740FF009B1846FE
S3150000121000F00EFC264B2365264B63656FF42672A1
S31500001220A3F5FE231344A365E66500F0FDFB18EE67
S31500001230101A05463846FFF729FF284600F0F8FB46
S315000012401D4B23651D4B6365A66500F0EDFB5146FE
S3150000125005464046FFF708FF284600F0E9FB00F088
S31500001260E3FB02A905463846FFF710FF284600F0C3
S31500001270DFFB134B2365134B6365A66500F0D4FBB8
S315000012800AF1200104464846FFF7EEFE204600F02C
S31500001290CFFB0BB0BDEC028BBDE8F08F8AD11C8171
S315000012A0D91C83D11C81E11CD01482CB1481E11C92
S315000012B08CE11C811C84D91CE014D8141482E11C16
S315000012C084D31482D11CE0142DE9F04FA5B01D463D
S315000012D00446CDE9001205A81C22002102F0A4FA5A
S315000012E04FF0010820220021284605F12007CDF8FD
S315000012F0108005F1400A02F097FA202200213846B4
S3150000130002F092FA20220021504602F08DFA0521C1
S31500001310204600F090FB00232360FF2623636363CF
S315000013207211019906F01F0351F8221008FA03F30F
S315000013300B42324606F1FF3601D0164601E0002E7A
S31500001340EED100F071FB04F58273394680461846EB
S315000013500293FFF79BFE404600F06AFB764B774A06
S3150000136023656265764AA26500F05EFB04F5807926
S3150000137014A980464846FFF777FE404600F058FB22
S3150000138000F052FB294680464846FFF77FFE40465E
S3150000139000F04EFB6B4A6C4B22654FF48672636518
S315000013A0A26500F041FB04F5867883460CA9404609
S315000013B0FFF75AFE1CA94846FFF756FE584600F0AE
S315000013C037FB00F031FB029B0393514683461846D8
S315000013D0FFF75CFE584600F02BFB5C4B23650123B0
S315000013E0636500F021FB04F5847B2946029058468C
S315000013F0FFF74CFE029A104600F01AFB544A22658B
S3150000140002F1D94202F5DE1202F595626265A2F595
S3150000141086120123A2F2BA42A265E36500F004FB3C
S315000014201CA902905846FFF731FE0CA94046FFF76B
S315000014302DFE029A104600F0FBFA464A2265464AFD
S315000014406265464AA26500F0EFFA2946029004F565
S315000014508870FFF709FE029A104600F0E9FA00F0DC
S31500001460E3FA039B029039461846FFF70FFE5846EB
S315000014705146FFF70BFE14A94046FFF707FE029AF6
S31500001480104600F0D5FA364B2365364B636500F0FF
S31500001490CBFA514683464846FFF7E6FD39464046B5
S315000014A0FFF7E2FD584600F0C3FA012106F01F03DC
S315000014B001FA03F37211019951F82220134211D057
S315000014C02846FFF7C1FD38B13846FFF7BDFD18B114
S315000014D05046FFF7B9FD58B9009A2B4629462046D3
S315000014E0FFF72EFE013EBFF42CAF25B0BDE8F08F0E
S315000014F0009BAC4603F1200E18685968624603C289
S31500001500083373459446F7D1BC4603F1200E18689C
S315000015105968624603C2083373459446F7D10DF104
S31500001520100EBEE80F0005F1400CACE80F009EE877
S315000015300F008CE80F00D5E78AD11C81821CC00CF5
S315000015400C0C0100C00C0C83D91C83D88AD11C83D7
S31500001550DA0C81148CE11CD01484E31482D11C01B2
S31500001560D81483D11CC00C012DE9F041044690B07B
S315000015700F46244E0521904600F05DFA00232360B5
S31500001580236363630FCE08AD0FC596E80F0085E8A9
S315000015900F0008AA6B4607F140012046FFF788FDB9
S315000015A000F042FA04F586760546694604F582702F
S315000015B0FFF76CFD39463046FFF768FD07F120015D
S315000015C004F58870FFF762FD284600F031FA0E4BED
S315000015D023650E4B63650E4BA3650123E36500F09F
S315000015E023FA08F12001054604F58070FFF73CFD5B
S315000015F041463046FFF738FD284600F019FA10B08C
S31500001600BDE8F081503900008AD11C81D91C83D1F4
S315000016101C81E11C38B5202204460D46002102F04B
S3150000162003F905F12003601E13F8012D00F8012FC0
S31500001630AB42F9D138BD00002DE9F04FBBB00D46E5
S315000016400446002193460AA86022449E994602F069
S31500001650EBF86022002122A802F0E6F8002D00F047
S315000016601C81B9F1000F00F01881002E00F01581E1
S31500001670BBF1000F40F311810023236023636363F2
S31500001680636843F0100363600C21204600F0D3F931
S315000016906368DFF824C223F4406343F400636360A5
S315000016A0636823F4407343F400736360BCE80F007F
S315000016B02AAF0FC79CE80F0087E80F0000F0B4F9C7
S315000016C004F5847882463146404604F58677FFF76E
S315000016D0DDFC2AA93846FFF7D9FC504600F0A8F9E8
S315000016E06F4A2265012363656369DA0104D440F217
S315000016F002603BB0BDE8F08F311F082351F8040F9C
S31500001700002800F0C28000F08FF906F1200A01904F
S3150000171051464046FFF7BAFC2AA93846FFF7B6FC01
S31500001720019B184600F084F901235D4A2265636532
S315000017306369DB01DBD55246082352F8041B0029F6
S3150000174000F0A7802022002132A802F06DF8BBF13C
S31500001750200FA8BF4FF0200B0BF1FF32013D22F006
S3150000176003033AA940330B4402F0030C15F8010FAA
S3150000177053F8601C4FEACC0C00FA0CF00843013A0F
S3150000178043F8600CEBD200F04FF932A9054640460B
S31500001790FFF77CFC284600F04BF9424B236500F02E
S315000017A043F904F5807B054632A95846FFF75CFCF1
S315000017B0284600F03DF92AAA02AB51462046FFF71B
S315000017C077FC00F031F904F5887A054602A904F59C
S315000017D08270FFF75BFC32A95046FFF757FC314693
S315000017E03846FFF753FC284600F022F92E4B2365B6
S315000017F003F1FA43A3F50063636500F015F932A916
S3150000180005465046FFF730FC02A95846FFF72CFC68
S31500001810284600F00DF925490AAB32AA2046FFF703
S3150000182053FD22AB02AA49462046FFF74DFD0AAA00
S3150000183011462046FFF798FE22AB19460AAA204613
S31500001840FFF77EFC22AA11462046FFF78DFE00F028
S31500001850EBF80C210546204600F0EDF822A940469B
S31500001860FFF714FC31463846FFF710FC284600F017
S31500001870DFF80F4B23650F4B6365636913F0807FB9
S3150000188040F2046018BF002033E7013B7FF436AF17
S315000018902DE7013B7FF451AF29E740F2016028E7CD
S315000018A03035DA1030D00C0130E11C84903900005C
S315000018B03035DA1439380100703900001FB5124B83
S315000018C01A6842F480121A60D3F8C02042F001026E
S315000018D0C3F8C020FFF728F84FF47A23B0FBF3F0E3
S315000018E00A4B0D2218600021684601F09DFF012376
S315000018F08DF8003006480A2369468DF8023000F05C
S31500001900CDF905B05DF804FB00400E40380100201B
S315000019100080014030B50D4D0D4A2D68536A15FB08
S3150000192000F09CB210FA83F00A4B80B21880A042F5
S31500001930094B2CBF002401241C7011B1536A834249
S31500001940FCD101235361936130BD00BF38010020F3
S31500001950008001403401002036010020094B0A4A6C
S31500001960D868127800F001000AB108B9704738B992
S31500001970586A064B1B88984234BF002001207047E6
S31500001980012070470080014036010020340100200C
S31500001990044BD3F84421D20703D4D3F84021104294
S315000019A0FBD1704700400E4038B5C0F30323013B1E
S315000019B0092B16D8DFE803F02616151505191C1590
S315000019C01F23124C0023C0F3043513B11846FFF74A
S315000019D0DFFF04F1424404F5801405EBC404A400BF
S315000019E0216038BD0A4C0023EDE70A4C0123EAE7E3
S315000019F0094C1023E7E7094C4FF48033E3E7084C22
S31500001A000023E0E7074C0023DDE700BFB0400E40AF
S31500001A10C0400E40E0400E40E8400E40F0400E4010
S31500001A2050410E4000400E40EFF3108072B67047F2
S31500001A3000B962B67047436823F01F030E290BD81E
S31500001A40DFE801F008080808080B0B0B080808086F
S31500001A500B0B0B00194341607047194341F010010D
S31500001A60F9E70000F0B54AB11D4C30260125464382
S31500001A708D4034440BB304F1C064256030244443E4
S31500001A8004F18044072904F5204419D865688E00BE
S31500001A900F27B74025EA070502FA06F635436560C3
S31500001AA052B9012202FA01F1302250430C4A024493
S31500001AB09BB102F1C0621160F0BD04F18064DCE705
S31500001AC0A1F10805A668AD000F27AF4026EA070674
S31500001AD002FA05F53543A560E2E702F18062EAE71E
S31500001AE00CA00040214B41F671311A6C19649968BB
S31500001AF041F00101996001211861D960D96949074E
S31500001B0092B209D5996821F0010199600AB10022C3
S31500001B101A644FF0FF3070470221D9601449D86922
S31500001B20C00700D569B9D86910F002000BD09968D2
S31500001B3021F0010199600AB100221A646FF00100D8
S31500001B4070470139EBE741B9986820F001009860C9
S31500001B5002B119646FF002007047996821F0010123
S31500001B6099600AB1186470471046704700000E402D
S31500001B70809698002DE9F04F054602F16040B0F5D9
S31500001B80F84F03D94FF0FF30BDE8F08FDFF8C4C03F
S31500001B902E4CDFF8C490DFF8C480302606FB05C65D
S31500001BA04FF44010C6F880000020C6F88400C6F83E
S31500001BB08800C6F8980041F67130D4F840A0206439
S31500001BC0A0684FF0010E40F00100A0600EFA05F586
S31500001BD05BB90422E260A26822F00102A2601FFA49
S31500001BE08AF202B123641846CEE701F5006021614E
S31500001BF000EA0900C4F80CE0401AD4F81CB0984278
S31500001C0028BF18461BF0040F4FEA9007BAD1013FD0
S31500001C103F0147F06057C6F88C700D4FC6F890200C
S31500001C20C6F89470DCF820702F43CCF8207010278B
S31500001C30E760DCF828703D42FBD0C8F82850014424
S31500001C40C8F8205002441B1AC2E700BF00000E402D
S31500001C5018000E4000200E4000F8FFFF00200E4442
S31500001C600D4AD2F8E430D2F8E0109B0003F03C03B2
S31500001C70C1F381110B438370D2F8E03003F03F03C8
S31500001C804370D2F8E830D2F8EC2003F0F003C2F348
S31500001C90031213430370704700FF0FE02DE9F04F66
S31500001CA00C780CB902234360002343624B78CA7850
S31500001CB091F802B08D7A91F808A091F8069091F803
S31500001CC00780002B4B7A4FEA024214BF4FF0400EBA
S31500001CD04FF0000E42EA0B62002B14BF8023002354
S31500001CE042EA0A02002DCD7A42EA892214BF4FF059
S31500001CF0200C4FF0000C42EA0822002D0D7B42EA30
S31500001D000E0214BF102700271343002D0D794979C1
S31500001D1043EA0C0314BF082600263B43002D14BFDC
S31500001D204FF4005500253343002914BF4FF080516E
S31500001D3000212B430B4303600CB101234360BDE834
S31500001D40F08F00001C4AD2F8B03043F0040313B5FC
S31500001D50C2F8B0300221012304220020FFF782FEE0
S31500001D6000230093009B632B20DD022201231146F2
S31500001D700020FFF777FE00230193019BB3F5FA7F5E
S31500001D8017DB0E4B0022D3F88843104601230221AD
S31500001D90FFF768FE084AD2F8B030601E23F004034D
S31500001DA018BF0120C2F8B03002B010BD009B01334D
S31500001DB0D7E7019B0133DFE700400E4000001442E5
S31500001DC030B58B0785B015D00568046802680368CE
S31500001DD0CDE90054CDE902236C460B4604AD2246FC
S31500001DE003CAAA4218605960144603F10803F6D1E3
S31500001DF005B030BD0091009B056804680168026863
S31500001E00C3E90054C3E90212F2E77FB58B07024625
S31500001E1015D00B466D4601F11006186859682C4618
S31500001E2003C40833B3422546F7D1009B1360019BD8
S31500001E301360029B1360039B136004B070BD009196
S31500001E40009BD3E90040D3E90213146010601160CF
S31500001E50F2E700F1424303F58013102A30B54FEA4A
S31500001E6043131AD101221A60D1E90054D1E90223A1
S31500001E70C0F81051C0F81041C0F81021C0F8103158
S31500001E80D1E90454D1E90623C0F81051C0F8104135
S31500001E90C0F81021C0F8103130BD00221A60D1E917
S31500001EA00054D1E902234562446242624362F3E789
S31500001EB0F0B50B46990789B0054614461ED0082A88
S31500001EC06E4610D103F1100718685968324603C2EE
S31500001ED00833BB421646F7D1224669462846FFF725
S31500001EE0B8FF09B0F0BD03F12007186859683246FB
S31500001EF003C20833BB421646F7D1EDE700930099BB
S31500001F0009B0BDE8F040FFF7A4BF2422002101F08C
S31500001F108BBC70B515460E4624220021044601F0FE
S31500001F2083FC802D02D0B5F5807F08D12046EA08D3
S31500001F3040F8045B314601F069FC002070BD6FF08B
S31500001F407100FBE72DE9F04F2DED028B85B008EE11
S31500001F50903A01908B46164652B11568019B1B6854
S31500001F60802B03D0B3F5807F40F0A98000270DE0D9
S31500001F701546F3E7B5B1119B109ADB5D525D5340F0
S31500001F80129A0135D35505F00F0501375F45F1D398
S31500001F90002E00F097803560002005B0BDEC028B66
S31500001FA0BDE8F08F00F090F84FF4404345600360C1
S31500001FB00446FFF739FD019951F8043B802B0CBF0D
S31500001FC00822102280462046FFF772FF04F18403A0
S31500001FD0184618EE901A08EE103AFFF716FF40461C
S31500001FE0FFF726FD119BABEB070803EB0709129BD6
S31500001FF028F00F0803EB070A09EB080291451DD1EB
S31500002000119BB84403EB0809129B9844119B0522C7
S3150000201003EB0B0A0323D14531D1FFF705FD18EE7B
S31500002020901A074618EE100AFFF7CAFE3846FFF761
S31500002030FFFC204600F052F85F46A7E74823A3605E
S315000020400523A36023699907FCD40323A3600392A5
S31500002050FFF7EAFC4946029004F1A000FFF7D5FE1F
S31500002060514604F18000FFF7ABFE029B1846FFF7CE
S31500002070DFFC09F11009039A0AF1100ABEE79DB9BF
S315000020804821A160A26021698A07FCD4A360FFF7FA
S31500002090CBFC1099074604F18000FFF791FE384605
S315000020A0FFF7C6FC05220323109819F8011B405DB3
S315000020B00135414008F8011B05F00F05ABE76FF04D
S315000020C020006AE7304668E7024B03480122C3F85E
S315000020D0042670470010C84300000F40054B984285
S315000020E001BF03F16E7303F588330022C3F804269B
S315000020F0704700BF00000F40002070470020704767
S3150000210000207047002070470023D3F8283818694C
S3150000211070470023986A70470023D3F82808704751
S315000021200020034A836A1968914208BF18697047FC
S31500002130AD1007B001207047004870474A43E00FD2
S31500002140004870476A43E00F004870478642E00F38
S3150000215038B53448344D0121FFF726FC33480121B8
S31500002160FFF722FC01214FF48A40FFF71DFC0121F5
S315000021702F48FFF719FC40F6AA630024EB602D4AAE
S315000021802C6041F205036C666B60AC606C61EC64BC
S31500002190AA646C67AC67EC676B602B682B60FEF714
S315000021A0C3FB254A00F5E1435B014FF4E110B3FBA5
S315000021B0F0F3203B02EAC3036B61042201232146AC
S315000021C02046FFF74FFC01231A4619462046FFF723
S315000021D049FC03220523AC676A67EB60174B4FF097
S315000021E0E06119604FF440211C62DC625C63DC66CE
S315000021F0C3F880101249C3F88840C3F88440C3F876
S3150000220098101049C3F8B0100F49C3F8B840C3F886
S31500002210B4408A620122DA6303F1C06302229A6043
S3150000222038BD00BF404105000000014000250A00FE
S3150000223000220400F9FF0100F8FF7F0000200E4095
S31500002240D039000001000C0000200E44084B986AAB
S3150000225010F0020006D003F1806302221A629A622D
S31500002260012070471B6A9B07FBD4024B0222F6E74C
S3150000227000200E4000200E447F2938B5044615463E
S3150000228023D8FFF7E3FF18B3134B2046621890429A
S315000022900DD1124B1A88013961F30E121A80104AB9
S315000022A0C2F8C8300223D36335B9002038BD10F810
S315000022B0014B03F8014BEAE7FFF7C8FF0028FBD004
S315000022C0084A13699B06FCD5EFE741F20310EDE7D8
S315000022D041F20620EAE700BF40030020000100208B
S315000022E000200E400000014008B50146FFF7AEFF92
S315000022F00028FBD0044B1A695006FCD559631A69AD
S315000023009206FCD5002008BD000001400E4BD3F814
S31500002310940040F2011398420FD040F202239842F3
S315000023200DD00A4BC01A0A4B1B6883420AD02ABF3B
S31500002330C3F50073C01AC01870470020F3E74FF4C6
S315000023408070F0E70020704700200E403C0100201E
S315000023503C0300202DE9F843089F04460D46164627
S31500002360F3B9FFF7D3FF214ADFF888E01368204F5F
S31500002370A84228BF284604EB000C00214FF00108B4
S315000023804FF0020964451DD101B1136006B13060FA
S3150000239041F20423A84234BF18460020BDE8F88362
S315000023A02FB1FFF78BFA00213846FFF7B3FAFFF794
S315000023B0ADFFA842D5D2002FF9D0FFF7CFFA0028FB
S315000023C0F5D0CEE71EF8031004F8011B0133B3F570
S315000023D0007F04D1C7F8089000230121D2E7B3F5A6
S315000023E0807F08BFC7F80880F7E700BF3C030020DE
S315000023F000200E463C01002007B501230091002273
S315000024001946FFF7A7FF03B05DF804FB10B10B4BAD
S3150000241002221A6279B1094A0949012313629362B9
S3150000242002F17C420020C2F8981006490860D36386
S31500002430054B02229A600020704700BF00200E4420
S31500002440D03900003C03002000200E4610B504469B
S31500002450FFF74AFF182C07D12046FFF745FF204615
S31500002460BDE81040FFF740BF10BD000007B54FF4B0
S315000024707A710DF10700FFF7BFFF50B99DF80730DD
S31500002480313BDBB2022B01D8034AD05C03B05DF8C6
S3150000249004FB0120FAE700BF573A0000FFF758BED9
S315000024A010B5002392B0D3F8283818499C68472203
S315000024B0684601F0ABF9C4F30363092B8CBF3733CD
S315000024C030330A228DF81430C4F30343B3FBF2F120
S315000024D002FB1133303304F00F0401F130008DF8A4
S315000024E01730B4FBF2F303F1300102FB13448DF80D
S315000024F016008DF8191030340122472168468DF8F0
S315000025001A40FFF7B9FE002012B010BD103A0000C5
S315000025102DE9F0430024F7B09022214652A88DF809
S315000025200B4001F081F94822214604A801F07CF90C
S315000025306822214616A801F077F9FFF7BFF9B34ED6
S31500002540DFF8E082DFF8E0923C270125062DFDD872
S31500002550DFE815F009000D00120033004D004401BC
S31500002560AF000425F2E7FFF79BFF0125EEE7FFF733
S315000025707DFF3C270546E9E701221121A448FFF724
S315000025807BFE202316AA04A952A800F042FD2822A9
S3150000259000219E4801F048F9FF23012105207370B0
S315000025A0FFF7B8F9FFF7B2FE18B101210020FFF7D7
S315000025B02DFF00F047F90325C8E74320FFF746FF44
S315000025C000214FF47A70FFF7A5F9FFF79FFE18B9BF
S315000025D0FFF7C4F90028F8D0FFF798FE0028C0D10D
S315000025E0013FB3D11820FFF731FF0025AEE70021E8
S315000025F085220DF1C10001F017F9002140F6B8302F
S31500002600FFF788F9FFF782FE78B34FF47A730093E9
S315000026100123194603AA0DF1C100FFF79BFE9DF8A1
S31500002620C130012B0DD140F6B8320092842103AAA5
S315000026300DF1C200FFF78EFE039B842B044618D1D2
S31500002640C8B90DF10B010DF1C10000F005F940F616
S3150000265007139842044614D1B3780BB1F37813B933
S3150000266018238DF80B3006251DE0FFF777F90028B3
S31500002670C8D040F2047415208DF80B00FFF7E6FE73
S3150000268064E780B99DF8C130012B0CD1614B0093F2
S3150000269031AA8023314652A800F0F2FC044610B15C
S315000026A018238DF80B309DF80B00182808BF062557
S315000026B0E4E701210020FFF7A9FE01210A20FFF728
S315000026C029F99DF80B30062B4FF0010208D140F690
S315000026D007139C4204D150481B21FFF7CDFD84E728
S315000026E01A214846FFF7C8FDA4F51063B3F5E06F5D
S315000026F04FF0010222D249481821FFF7BDFD40F6EE
S3150000270006139C4222DD9DF80B309F2B4FEA1310D7
S315000027108CBF37303030FFF7E7FD9DF80B0000F037
S315000027200F0009288CBF37303030FFF7DDFD0D2054
S31500002730FFF7DAFD0A20FFF7D7FD56E738481021E4
S31500002740FFF79AFD40F606139C420BDCB4F5106FBA
S31500002750D9DDA4F60213042B2CD8DFE803F02D25CF
S31500002760292F3100A4F58053013B092BCBD8A4F5C2
S315000027708053013B092BC6D801A252F823F000BFB3
S31500002780D52700000727000007270000D9270000EB
S31500002790C9270000D1270000D5270000CD2700005B
S315000027A0C5270000D527000021238DF80B30AAE7A6
S315000027B02223FAE72323F8E72423F6E72523F4E781
S315000027C02723F2E74123F0E74323EEE74423ECE730
S315000027D04523EAE74F23E8E75023E6E7B37853B308
S315000027E0F37843B333789B0720D500237268D3F878
S315000027F028389B689A4204D9FFF792FC716A00F068
S31500002800A5F901221321404667E700BFC003002057
S31500002810C53A0000803A0000AA3A0000D63A000005
S315000028206D3A00005A3A0000903A000040F201204A
S3150000283000F02CFAE5E740F2032000F027FAD4E690
S3150000284070470000024A00231370024A1370704753
S31500002850E8030020E903002038B50378042B054679
S315000028600C4650D008D8012B0AD0032B50D0182381
S31500002870237040F603100DE0182B49D0432BF5E7E3
S31500002880264B42781978D9B9012A04D0152323702A
S3150000289040F6041038BD1A70AB781A44FF2AF5D1F9
S315000028A000228021E81CFEF75AF995F88320C0F330
S315000028B00F239A4216D01523237040F60210E9E73B
S315000028C0174B1B78934204D10623237040F606105B
S315000028D0E0E70133DBB29342DED01523237040F6E6
S315000028E00510D7E795F88430C0B2834204D015238B
S315000028F0237040F60110CDE7094B6A781A7006235B
S3150000290023700020C6E706230B7040F60710C1E7C8
S315000029101823237040F60810BCE700BFE903002027
S31500002920E8030020C0F30A032DE9F04105460F46EF
S3150000293016460BB900F0FBF905F5006424F4FF64B4
S3150000294024F0070405EB0608A04507D832463946A9
S3150000295028460223BDE8F04100F0F0B9204600F019
S31500002960E6F904F50064EFE737B50446019115462C
S31500002970FFF7D2FB0369A3420BD8426963199A4257
S3150000298007D301992A46204603B0BDE83040FFF739
S31500002990C9BF03B030BD00002DE9F041154607461A
S315000029A08846FFF7B6FB104B02689A4219D1FFF72B
S315000029B0B3FB0646FFF7B4FBC4196319B3F5802FC2
S315000029C00FD83FB9FFF7ACFB7369834202D9306970
S315000029D000F0ADF92A4641462046BDE8F041FFF732
S315000029E0A1BFBDE8F08100BFAD1007B07FB50346BB
S315000029F0D0B10E4A6D4602F11006106851682C4699
S31500002A0003C40832B2422546F7D15A1E0DF10F0112
S31500002A100F3311F8010912F8014F844204D19A428A
S31500002A20F7D1012004B070BD0020FBE7EE3A0000AC
S31500002A30036913F0FE0F0CBF01200020704770B52C
S31500002A40A0B040F20463446B05930546FFF764FBB0
S31500002A5006462046FFF7CAFF60B32046FFF7E8FFA9
S31500002A6040B36369012B27D1A4693369A34223D8F4
S31500002A70A54221D8B4F5802F1ED806A8FEF708F97E
S31500002A80621B294606A8FEF70DF906A8FEF70CF903
S31500002A90FFF752FB0390FFF753FB039B009004F1F3
S31500002AA02002214606A8FEF7B3F805900598B0FA6D
S31500002AB080F0400920B070BD0020FBE7F8B5D0E9F2
S31500002AC0006706F16046456B0446FFF725FBB6F541
S31500002AD0F84F01D90020F8BD0369BB42FAD8B7F513
S31500002AE0802FF7D84033AB4202D8B5F5802F05D9F1
S31500002AF0FEF724F880F00100C0B2ECE7FEF71EF8FE
S31500002B0020B12046BDE8F840FFF799BF2846FFF7F9
S31500002B106DFFB8B12846FFF78BFF0028DAD06B6946
S31500002B20002BD8D0022BECD1AB69C4F104011944B7
S31500002B304FF0FF322046FEF71FF8034BC31A5842E8
S31500002B405841C8E70120C6E7E320BBDE08B54FF0D1
S31500002B50FF32FEF711F8044B984203D140F20920E8
S31500002B6000F094F8002008BDE320BBDEB1F5BC7F81
S31500002B7010B504460FD34FF4BC72002100F054FE8A
S31500002B8004F5807204F1B80104F128000023BDE8C1
S31500002B90104000F03EBA40F2052010BD13B50446C1
S31500002BA000910146283000F06BFAC4F8740118B1A0
S31500002BB041F20703984209D1A3784BB1E27840F27B
S31500002BC0032040F20223002A08BF184602B010BDB7
S31500002BD040F20120FAE72DE9F04387B00DF108092C
S31500002BE00446DDF838800E46174600211022484676
S31500002BF01D4600F019FE0021C8F800101C222846C8
S31500002C0000F012FE32463B46CDF80090214604F114
S31500002C10280000F035FA23789A0744BF6268C8F89E
S31500002C200020DB0709D504F1080304F1240253F858
S31500002C30041B45F8041B9342F9D12378002B40F27C
S31500002C40064018BF002007B0BDE8F0834FF4BC7003
S31500002C5070474FF000534CF23C325A8070474FF0A9
S31500002C6000534AF6C0305B8823F00F039BB21B1A51
S31500002C705842584170474FF0005208B51080FFF790
S31500002C80EEFF10B94FF20F03538008BD08B5FFF7EA
S31500002C90F2FF0A4A136823F4E06343F400731360F7
S31500002CA0BFF34F8F0649074BCA6802F4E06213432D
S31500002CB0CB60BFF34F8F00BFFDE700BF00500E4053
S31500002CC000ED00E00400FA0508B5FFF7C8FF30B9CB
S31500002CD04FF000534FF20F015A888A4203D14FF04A
S31500002CE00053188808BD3AB91B88012B40F2022010
S31500002CF018BF4FF40070F5E74FF40070F2E713B514
S31500002D0004460B461046A20753BF6FEA03434FF62D
S31500002D10FF7242EA03436FEA13430193042324F04C
S31500002D2003010DEB0302FEF725FF02B010BD08B547
S31500002D30FEF7D8FEB0FA80F0400908BD072B2DE952
S31500002D40F04105460E4614461F4602D90020BDE84E
S31500002D50F08101214FF48A40FEF726FE0CB90120CE
S31500002D60F5E744EA0503DA07F0D4AB0726D5318840
S31500002D703A462846FFF7C3FF0028E7D1023C032C5A
S31500002D8005F1020506F102060DD924F003084346B3
S31500002D90324629463846FEF7EDFE0028D6D146448F
S31500002DA04544A4EB0804002CD9D031883A4628467D
S31500002DB0FFF7A5FFB0FA80F04009C8E7032CE4D876
S31500002DC0F3E770B5D1E90152AA4205D290F8403036
S31500002DD02B449B1A402B10D9002012E00A6890F869
S31500002DE04040D65C90F84120224402F03F02013375
S31500002DF0013486548B6080F840408B689D42EDD844
S31500002E00012070BD2DE9F8431D461746D1E9013270
S31500002E109B1A90F840209DF820909DF8248013443A
S31500002E209D4204460E4656D9FFF7CBFF00285CD1DB
S31500002E30122384F8463041F20200BDE8F88394F884
S31500002E404120A25CFA5494F84120013202F03F027C
S31500002E5084F8412094F84020013A84F84020013358
S31500002E6094F840200AB19D42E9D1D6E90121914268
S31500002E7001D29D4231D89D42DAD1D4F88820294624
S31500002E803846FDF779FEC4F88800B9F1000F04D082
S31500002E90E06C2A463946FDF705FFB8F1000F08D069
S31500002EA094F843308BB1A06C2B463A463946FDF771
S31500002EB09DFE94F8433043B1E36DA26D2B449342DB
S31500002EC0E36524BF002384F84330636D2B446365B8
S31500002ED041F20300B1E70023C2E73268525CFA54BC
S31500002EE0B2680132B2600133BFE70020A5E70000F7
S31500002EF07FB50023CDE90033082315460DEB030209
S31500002F000446FFF77FFF41F203039842064626D1A7
S31500002F1094F8433063B108220DEB0201E06CFDF733
S31500002F20C1FE08230DEB0302A06C1146FDF75EFE01
S31500002F30039A6A6094F84320029B2B605AB9094AA7
S31500002F40934208D0084A934205D00822E06C0DEB64
S31500002F500201FDF7A7FE6B68236500236365304613
S31500002F6004B070BDF70A0AF7FC0404FC2DE9F34728
S31500002F70044658680D4690469946002843D08B076C
S31500002F8044D1FFF7C1F8216E031D08EB010C634520
S31500002F901DD800F11C07B94219D28B421E4638BF14
S31500002FA00E46BC4594BFC6EB0C02C6EB0702711A6F
S31500002FB0F61A05EB010A06F1680051462044019213
S31500002FC000F024FC019AFF21504600F02DFCFFF78B
S31500002FD0A7F8226E031D93420BD308EB02010830BB
S31500002FE0814206D39B1AEA58C4F880204FF0FF327C
S31500002FF0EA50206E4246D9E900362946B047226E8D
S3150000300042442266002002B0BDE8F08741F2020089
S31500003010F9E7F8B504464FF0FF37154603F02003ED
S315000030200022C0E91822A0F8402080F84320A0F82A
S31500003030442080F846200E4680F84230C0F888705A
S315000030401822FF21683000F0EFFBC4E91265C4F8CE
S315000030508070C4F88470FFF755F818B116B941F2BC
S315000030600B00F8BDFFF74CF830B1002DF7D0E06C3F
S31500003070FDF70EFE0020F4E7002DF8D12846F0E714
S315000030802DE9F04F9DB0CDE909230026269FDFF8F4
S3150000309094930293044688460B960B9A029B9A4297
S315000030A05BD294F84630122BF8D8DFE813F05F00B5
S315000030B078005800A700F5013F00360014023F00D3
S315000030C00E023F000E02F2029C0313006203660327
S315000030D085029C034FF0000A636D0F2B44D801252F
S315000030E010230CAACDF804A0009509A92046FFF7E5
S315000030F089FE0690069A41F203039A4241D1D4F81A
S3150000310048B0FFF721F88023CDE900030DAA2B462E
S3150000311002215846FDF74AFDDEE70125D4E91432BF
S315000031209A42C0F0388184F84650B6E74FF0010A5B
S31500003130D4E91453AB420B9916D20A9AED1A94F8B5
S315000031404030521A032D1A4440F2C981032A00F274
S31500003150C98109A92046FFF734FE00207EE000253C
S31500003160636D072B40F2DE80012315E007AA09A94B
S315000031702046FFF7BDFE0690069A41F203039A42E7
S3150000318001D006986AE0089B23650023079A6365C9
S315000031909A4B9A4232D1022384F846307DE707AA39
S315000031A009A92046FFF7A4FE0690069A41F20303FA
S315000031B09A42E6D194F84420079B22B1904A934262
S315000031C01CD10C23E8E794F84220D0074ED594F89A
S315000031D04320002A4AD18B498B4233D024D88A4ACD
S315000031E0934236D015D8894A934207D00CD8834AE1
S315000031F0934203D002F1B64293420CD1122384F8D3
S31500003200463041F2010029E0814A9342F6D0814AD4
S31500003210F2E74B457AD0122384F8463007A8FEF72A
S315000032206BFF0028EDD117E0754A934219D004D8F8
S31500003230794A9342EFD10E23AEE7784A9342DDD026
S31500003240774AD9E70F2384F84630236DC4E916324E
S3150000325023E7122384F8463041F208001DB0BDE88A
S31500003260F08FFEF74DFF0028ABD0C7E74B4548D09F
S315000032702AD8674A93423AD0664A93423BD0634A79
S31500003280934236D007A8FEF737FF002840D0112317
S31500003290079884F84630C4F88C00FEF72FFF94F8A0
S315000032A04230990606467FF5F8AE00283FF4F5AEA3
S315000032B04368002B3FF4F1AE204698470690069BE4
S315000032C0002B3FF4EAAE9CE7544A934217D0544A87
S315000032D0934212D04A4A9342D4D1FEF711FF0028F6
S315000032E08CD194F84330002B3FF46BAF86E7042370
S315000032F052E7062350E707234EE709234CE70B2343
S315000033004AE794F84330002B7FF478AF102343E765
S31500003310122384F8463094F84330002B9CD041F2B7
S3150000332004009BE7012300930CAA0823019509A931
S315000033302046FFF767FD0690069A41F203039A427C
S315000033407FF41FAF0C9B03F07F43B3F1407F05D0A2
S31500003350122384F8463041F209007FE70D9B05935E
S31500003360DA070ED594F8423043F0010384F8423070
S31500003370FEF7C6FE00283FF4F3AE059BDB0504D539
S31500003380EEE6FEF7BFFE0028F2D0122384F84630A0
S3150000339041F20A0062E70CAACDE9005509A92046C8
S315000033A0FFF730FD0690069A41F203039A427FF436
S315000033B0E8AE08F1080E0DF1300C73460DF1480A1F
S315000033C0624603CA524518605960944603F10803E1
S315000033D0F6D11068186098F8003043F0010388F8B9
S315000033E000307046FEF7A6FE00287FF497AE122343
S315000033F084F8463041F20C0030E700BFEB17A60315
S31500003400FC0404FCF90707F9F70909F7F40A0AF4BA
S31500003410F50909F5F60808F6FA0606FAFD0303FDAE
S31500003420FE0101FEF70A0AF70123CDE900330CAAD3
S31500003430082309A92046FFF7E5FC0690069A41F203
S3150000344003039A427FF49DAE98F8003043F00203DE
S3150000345088F800300C9BC8F80430236D083BC8F888
S3150000346024300D9B0593FEF754FE974A036893425A
S315000034707FF4C7AEFEF74DFE059BC2689A427FF405
S31500003480BDAE052384F8463094F8453043F0010379
S3150000349084F8453000236366636D072BC4D9FCE5C9
S315000034A004230CAACDE9005509A92046FFF7AAFC7A
S315000034B00690069A41F203039A427FF462AE226DA9
S315000034C00C9B0593042A01D923660125636D032B02
S315000034D0E6D90A2360E60023636608235CE6954284
S315000034E03FF637AE402D28BF4025954228BF1546EA
S315000034F0032D88BF25F003052B460CAACDE900AAAB
S3150000350009A92046FFF77EFC0690069A41F20303BE
S315000035109A427FF436AE94F84630082B04D1D7F899
S3150000352008B0BBF1000F18D1042DC5F1040B0393AD
S3150000353088BF4FF0000B0CAB5A465819FF2100F01C
S3150000354073F9039B0A2BAB4410D13B465A460CA990
S315000035502046FFF70BFD0690EAE52A463B68606EBB
S315000035600CA9D847626E2A446266E1E5052B7FF412
S31500003570DFAD98F8013098077FF5DAADFB68002BD0
S315000035803FF4D6AD626E042A0BD80BEB0203062B72
S3150000359007D90DAB9B1A1A68C4F884204FF0FF3286
S315000035A01A60FD683B68606E5A460CA9A847626EB1
S315000035B00BEB02056566BBE594F84230990607D524
S315000035C0D4F88C00FEF79AFD064600283FF419AEA3
S315000035D04FF0010A40E0002B59D0002E57D0336936
S315000035E0002B54D020469847DDE90A53ED1A94F88B
S315000035F040302B4498423FF6ACADD4E91452AD1A94
S31500003600402D28BF40259D4228BF1D462B460CAAAB
S31500003610CDE900AA09A92046FFF7F4FB0690069A11
S3150000362041F203039A427FF4ACAD94F842309A0615
S3150000363012D5002E3FF4E5ADD6F808B0BBF1000F69
S315000036403FF4DFAD3B462A460CA92046D8470690F4
S31500003650069B002B7FF495ADD4E9142194F84230F3
S31500003660914203F02003B6D3002B3FF47DAD002E2C
S315000036703FF47AADF368002B3FF476AD3946204629
S3150000368098470690069B002B3FF46EAD79E5012026
S31500003690AAE70023CDE900330CAA042309A9204692
S315000036A0FFF7B0FB0690069A41F203039A427FF4B5
S315000036B068ADD4F88820054B9A4209D0122384F8C5
S315000036C0463041F20500C9E5AD1007B0E320BBDE88
S315000036D0FEF716FD002841D1012388F8033094F83F
S315000036E045309B0707D0FD682DB104223B6804F1E5
S315000036F084011046A847236E002B33D07B688BB31A
S315000037004FF0FF3304F18001042205A805930291CE
S3150000371000F06CF840B1FEF703FD28B10422D7E9AA
S31500003720003502991044A84704F168050422294689
S3150000373005A800F05BF8A8B17E68FEF7E5FC3B68DB
S3150000374004F16C0114220830B0477E68FEF7DCFCF9
S3150000375004223B6829461044B04703E098F803303A
S31500003760002BBCD1012388F802300D2384F84630A3
S31500003770F3E4012384F843300EE594F84450002D19
S315000037807FF4F2AC40230CAACDE9005509A92046E6
S31500003790FFF738FB0690069A41F203039A427FF43C
S315000037A0F0ACE06CFDF780FAD4F84CA0FEF7C4FC50
S315000037B00390FEF7C5FC039B009014AA0CA9504683
S315000037C0FDF726FA0690069B3BB1122388F80350B4
S315000037D041F2060084F8463040E5012388F80330BC
S315000037E084F84430C0E441F2070037E510B50139EA
S315000037F00244904201D1002005E0037811F8014F00
S31500003800A34201D0181B10BD0130F2E70A449142D1
S3150000381000F1FF3300D1704710B511F8014B03F8E2
S31500003820014F9142F9D110BD02440346934200D1A3
S31500003830704703F8011BF9E7F8B500BFF8BC08BCF0
S315000038409E467047F8B500BFF8BC08BC9E46704758
S315000038500400000700000D1013001A20263038401F
S315000038604800000007B0CD5E0100000000000C011A
S31500003870203300000040000000000400F0001000AB
S315000038802109000025090000BD2A00006D2B00005B
S315000038909D2B000000000000D72B00004D2C0000DF
S315000038A00000000013B779FAC925DDB7ADF3CFE004
S315000038B0F1B614B801010000020000001C3B000034
S315000038C04000000000000C010000000000000000A5
S315000038D000000000000000000000000000000000E2
S315000038E0000000006A09E667BB67AE853C6EF372AE
S315000038F0A54FF53A510E527F9B05688C1F83D9ABB5
S315000039005BE0CD1980000000000000000000000010
S3150000391000000000000000000000000000000000A1
S315000039200000000000000000000000000000000091
S315000039300000000000000000000000000000000081
S31500003940000000002000000000010000050C00003F
S31500003950FFFFFFFFFFFFFFFFFFFFFFFF000000006D
S31500003960000000000000000001000000FFFFFFFF54
S31500003970512563FCC2CAB9F3849E17A7ADFAE6BC0B
S31500003980FFFFFFFFFFFFFFFF00000000FFFFFFFF3D
S3150000399096C298D84539A1F4A033EB2D817D0377E3
S315000039A0F240A463E5E6BCF847422CE1F2D1176B7E
S315000039B0F551BF376840B6CBCE5E316B5733CE2B51
S315000039C0169E0F7C4AEBE78E9B7F1AFEE242E34F80
S315000039D0F00F10031C0001403C0100201300000002
S315000039E009000000000100000202000013000000B0
S315000039F0F00F10031C0001403C02002013000000E1
S31500003A00090000000002000001010000D3FFFFFFD3
S31500003A100D0A4765636B6F20426F6F746C6F61644C
S31500003A2065722076582E59592E5A5A0D0A312E2073
S31500003A3075706C6F61642067626C0D0A322E20729D
S31500003A40756E0D0A332E2065626C20696E666F0DE9
S31500003A500A424C203E20000205000D0A4661696CB0
S31500003A60656420746F20626F6F740D0A000D0A661C
S31500003A70696C65206572726F7220307800000000F4
S31500003A8000000000692900000000000099290000DC
S31500003A900D0A53657269616C2075706C6F616420E4
S31500003AA061626F727465640D0A000D0A536572696E
S31500003AB0616C2075706C6F616420636F6D706C65EE
S31500003AC074650D0A000D0A626567696E2075706C73
S31500003AD06F61640D0A000D0A584D6F64656D2062B2
S31500003AE06C6F636B206572726F7220307800B81449
S31500003AF0B6F1E0CFF3ADB7DD25C9FA79B71300000B
S31500003B0000000000F07F1030400300203400014028
S31500003B100000000065080000410800007C3E1F9A76
S503039069
S70500000000FA
