S01700006E63702D67702D54595A53342D3631302E73333719
S31500004000403C00200D16030091B7000095B7000054
S31500004010A70A0A010041000004180FAC006AA900B3
S31500004020000000000000000000000000000000008A
S3150000403000000000608A030000000000000000008D
S315000040400000000000000000FFFFFFFFFFFFFFFF72
S31500004050FFFFFFFF00C0030000000000000000009B
S31500004060FFFFFFFFFFFFFFFF110000000000000041
S31500004070000000000000000000000000000000003A
S3150000408000000000000000002B7900202B790020A2
S31500004090403C002016B3030058890300E03200209C
S311000040A0AC32002000000400000000000C
S31500004100403C00200D16030091B7000095B7000053
S3150000411045C0000099B70000A1B7000009160300CA
S315000041200916030009160300091603000916030001
S31500004130A5B70000091603000916030009160300B7
S31500004140415C0000C168010039BB000069620100E2
S3150000415019690100CD680100E5680100C568010024
S3150000416035510000215200008D6F000019DB000060
S3150000417064B9000064B900000943000064B9000096
S3150000418064B900003D52000064B9000064B9000043
S3150000419064B9000064B9000064B9000064B90000A5
S315000041A064B9000064B9000064B900001D6901002B
S315000041B0C9680100C95900005969010064B90000C5
S30D000041C08552010064B90000FC
S315000041C8F8B500BFF8BC08BC9E467047F8B500BFF6
S315000041D8F8BC08BC9E46704710B5054C237833B921
S315000041E8044B13B10448AFF300800123237010BDBC
S315000041F85845002000000000B8AB030008B5034B83
S315000042081BB103490348AFF3008008BD0000000056
S315000042185C450020B8AB0300A3F5803A704700BFA1
S31500004228174B002B08BF134B9D46FFF7F5FF0021E0
S315000042388B460F461348144A121A34F065FB0E4B88
S31500004248002B00D098470D4B002B00D09847002034
S31500004258002104000D000D48002802D00C48AFF3D9
S31500004268008034F0F5FA2000290030F063FC34F0C1
S31500004278DBFA00BF00000800000000000000000094
S31500004288403C0020964300202B79002000000000C7
S315000042980000000006289ABF014B185CFF207047F3
S315000042A85F89030006289ABF014B185CFF207047F8
S315000042B85889030070B5104D05EB81040246A678AF
S315000042C83009FFF7E7FF107106F00F00FFF7EAFF66
S315000042D85071FF3815F82130537018BF01206378E4
S315000042E8E070064C907193701146204602F0CAFEA3
S315000042F80123A36070BD00BF647600200020004043
S315000043081FB50023CDE90133204A214C0393FF232F
S315000043188DF809302378516C906B0140C907DBB2E0
S315000043282AD5022B28D81B49906C01EB830182B24F
S31500004338C97819B110F4004F18BF0022164917485A
S3150000434821F813201649012202FA03F30A781343C7
S315000043580B700378B3B100230278DA40D207D9B2DA
S315000043680CD521700278012404FA03F35340DBB21A
S31500004378037001A8FFF79EFF04B010BD0133032B9D
S31500004388EAD1F9E703232370F6E700BF00200040CF
S315000043987076002064760020127000207176002066
S315000043A87276002000207047002814BF02200020E3
S315000043B870470120704701207047012814BF02206A
S315000043C800207047012070472DE9F74FDFF88490E9
S315000043D806460D4614461F4603F10C0A4FF0010B1C
S315000043E815B903B0BDE8F08F102DA846184B28BFA5
S315000043F84FF010085FFA88F13A4652F8040B43F872
S31500004408040B5245F9D101919AF800201A70114807
S3150000441889F80F40002389F800B089F80E30013476
S3150000442824F03AFE0B480199E4B2324612F801CB61
S3150000443810F8013B83EA0C0302F8013C931BDBB23C
S315000044489942F3D8A5EB0805ADB21646C8E700BFF2
S31500004458EE760020ED7600202DE9F74F16460193FB
S31500004468BDF830900D9B344A00930F4680460346AC
S3150000447800F10C0153F8040B42F8040B8B42F9D1F6
S315000044882E4C1B7813704923237020464FEA1923B4
S31500004498A37384F80F9024F0FFFD237883EA16238C
S315000044A8237063784FF0020A7340637052464FF0E8
S315000044B8000B1BE0C2F11005A6EB0B039BB2ADB2D5
S315000044C89D4228BF1D4600231FFA83FCD018AC4521
S315000044D8C0B21BD32A44D2B2AB44102A2F441FFAC7
S315000044E88BFB03D1204624F0D7FD0022B345E1D348
S315000044F812B1204624F0D0FDBAF1010F4FF00002A8
S315000045080ED0019F4FF0010A4E46D0E717F803C0B8
S3150000451814F800E08CEA0E0C04F800C00133D3E767
S315000045280099236800980B604346042103B0BDE850
S31500004538F04FFFF749BF00BFEE760020ED7600206A
S31500004548F7B5099FBDF82050CDE9005706461C4629
S31500004558FFF782FF2DB13346012229462046FFF791
S3150000456833FF002003B0F0BD2DE9F743BDF82890CE
S31500004578DFF83C801D4604460E4617460346494664
S3150000458828460122FFF720FF2B463A4631462046A9
S31500004598CDE90098FFF760FF0B980422414634F0F6
S315000045A87BF9002814BF7E20002003B0BDE8F08305
S315000045B88B76002073B51C46044D8B181E592E6049
S315000045C8CDE90045FFF7D0FF02B070BD1078002096
S315000045D8002070470120704701207047002070476F
S315000045E8012070470020704700207047012070475F
S315000045F8002070470120704770477047002818BF91
S31500004608022070470020704710B5104C1049A16170
S31500004618032321660F491022C4E904330E4BE361D4
S31500004628C4E9191200230D49A362E01D6362E3621F
S315000046382367E3666367226234F078F908492046FF
S3150000464834F074F92023A37110BD00BF0044002084
S315000046586689030041760020517600206F890300A1
S31500004668738903002DE9F84FDFF87C8098F800304D
S315000046788246894616460BB9FFF7C6FF182707FB79
S315000046880A873D6FD7F86CB05D452BD9BC6E796E3D
S31500004698641BB44228BF344629444846224634F0AF
S315000046A80BF9BB6E2544A144361BAB4208BF002557
S315000046B8ABEB0502964228BF164656B1182303FBF4
S315000046C80A833246596E4846294434F0F5F834448C
S315000046D8354424B1182000FB0A88C8F870502046D3
S315000046E8BDE8F88F0024E3E70044002037B5044608
S315000046F8CDE9002103F081F9DDE9002105462046D0
S31500004708FFF7B0FF0446284603F07DF9204603B0BC
S3150000471830BD00002DE9F843134C1E462378814628
S31500004728884617460BB9FFF76FFF03F066F961690C
S315000047380D4A0025536E3BB10135A94202F1180214
S31500004748F8DC4FF0FF350AE0A942FADD182202FB31
S315000047580544C4E91898A7662367E366666703F005
S3150000476852F92846BDE8F88300440020FFF74CBFFD
S31500004778012270B51146042002F0B6FF1C4B1D4DF0
S31500004788D3F8F0201C4842F00102C3F8F020D3F811
S31500004798FC204FF0604442F08072C3F8FC20174BAF
S315000047A8C4F8B03F00260223C4F8006EC4F8806E31
S315000047B8C5F8F03002F060FE00F5D520104B114A1E
S315000047C800F2FC40B0FBF3F00F4B01382861C4F847
S315000047D8406E1A600D4BC4F8803E4FF48073C5F8DE
S315000047E80433D4F8003E43F48073C4F8003E70BD29
S315000047F800ED00E0000004E006000E0055CEACC552
S31500004808F8590D00FF030040001000E00D000100FC
S3150000481810B50121124802F0F9FC124B0124C3F825
S315000048281048002003F036FD234604220221052005
S3150000483803F082FD20460AF057FDFFF799FF0AF0BC
S3150000484889FD094B1C70FFF791FF23460749084865
S315000048584022FFF75FFF074B1860C00F10BD00BF6F
S3150000486800250A0000801442A8760020CB77002095
S315000048787A890300C0410020034BD3F8F0000038C2
S3150000488818BF0120704700BF00ED00E0054A4170DF
S31500004898D12303701378C370090A8170591C1170EB
S315000048A804207047187800202DE9F74F91F800800A
S315000048B8B8F1040F82460F465FD92CF0DFFF08F1E6
S315000048C80505DFF8C0900190EDB24FF6FF7600249B
S315000048D8D9F8F0200AB1A54207D8281B18BF01202D
S315000048E804233B7003B0BDE8F08F2CF0C7FF019B93
S315000048F8C01A80B2B0F5FA7F41D8A4B3012C36D0DD
S31500004908EA1E04F1010B94425FFA8BFB19D1F4B24B
S315000049184FF06042D2F8801ECB0710D5D9F8FC10AC
S3150000492841F08071C9F8FC10D2F8001E41F480717C
S31500004938C2F8001E116A0029F0D082F820405C46B1
S31500004948C6E7AA1E944202D1C6F30724E0E76A1E08
S31500004958944210D05444314614F8024C204606F0CE
S31500004968A5FE0646D4E75B244FF0010BD0E7444684
S315000049784FF0020BCCE75D24CAE70020B0E7012020
S31500004988AEE700BF00ED00E000B5084B91B018682F
S3150000499840226946FFF7AAFE20B1C2B26946122034
S315000049A809F03EFE11B05DF804FB00BFC0410020CF
S315000049B8104430B5054602B930BD01F00F030A2B85
S315000049C834BF302437242344013A05F8013D090948
S315000049D8D2B2F0E7F0B519B3002820DA2D23B0F1EA
S315000049E8004F137000D04042012119E0801B864217
S315000049F8ECB205F10105F9D914B9BCF1000F05D0DF
S31500004A084D1C303454544FF0010CE9B2013B13F0FD
S31500004A18FF0309D130305054481CC0B2F0BD002104
S31500004A28034F09234FF0000C57F8046B0025DEE707
S31500004A388C8903002DE9F04F97B04FF0000B04ACBA
S31500004A488046894615469A465E462746297859B9C4
S31500004A58E41BE4B2224639464846C047002840F0DF
S31500004A68AD803444E0B2AAE0252916D0BBF1000F88
S31500004A7817D1204600F8011B044614AB9C42C0F02F
S31500004A88E280E41BE4B2224639464846C04700287D
S31500004A9840F094802644F6B2D4E0BBF1000F00D172
S31500004AA801352978782906D8612907D825295ED0BD
S31500004AB83AD80029CCD04FF0000BDEE7A1F162020C
S31500004AC8162AF8D801A353F822F000BF814B00003C
S31500004AD8074C0000534C0000BF4A0000BF4A0000C4
S31500004AE8BF4A0000BF4A0000BF4A0000BF4A000094
S31500004AF8BF4A0000534C0000BF4A0000BF4A0000EE
S31500004B08BF4A0000174C0000BF4A0000BF4A000019
S31500004B18174C0000BF4A0000534C0000BF4A000073
S31500004B28BF4A0000674B0000392916D82F29C2D979
S31500004B386A7802F0DF02582A40F0AD80322905F182
S31500004B48010B40F09C805AF8041B042289B22046C7
S31500004B58FFF72EFF5D460446ADE75829ABD15AF854
S31500004B68041B0222C9B22046FFF722FF02E02046B4
S31500004B7800F8011B04469EE7DAF800300293DAF8DB
S31500004B8804300193013B4FF0000B0393019B9B45B7
S31500004B9802D10AF1080A8EE7029B204613F80B1089
S31500004BA80222FFF705FF14AB984204460DD3C41B37
S31500004BB8E4B2224639464846C04718B1002017B025
S31500004BC8BDE8F08F2644F6B23C46039B5B4582BFA0
S31500004BD82046202200F8012B14AB88BF04469C42CD
S31500004BE80AD3E41BE4B2224639464846C0470028A1
S31500004BF8E4D12644F6B23C460BF1010BC6E7534610
S31500004C08204653F8042B00F8012B9A46B2E7E41B1A
S31500004C18E4B22246394648465AF804BBC04700283B
S31500004C28CCD12644F6B2C4B201301BF80420002ABF
S31500004C38F9D1224659464846C0470028BED12644DF
S31500004C48F6B283463C46013500E76C29DAF80000DF
S31500004C580AF1040B0ED16B78752B14BF01210021C4
S31500004C6801D0642B00D101352246FFF7B3FEDA46A0
S31500004C78044420E775290CBF00210121F4E73429F3
S31500004C8809D15AF8045B0422290C2046FFF790FE46
S31500004C980422A9B25CE74FF0010BEEE62DE9F04FCE
S31500004CA89A46554B85B01B78DDF83C909DF844B084
S31500004CB8DDF8508006460F461546002B00F08B801F
S31500004CC8072A00F28A800E9B002B00F08680B9F135
S31500004CD8000F00F08280129BB3F5006F7DDC01287F
S31500004CE802D1109B002B78D0444B03EB05131B7B9A
S31500004CF8002B74D0424C10220021684633F004FE83
S31500004D0804EB45141022002F57D13946204633F0BC
S31500004D18FBFD43F210036380BBF1000F03D1E37878
S31500004D2843F00303E370364A0E9BCDF800A002EB6E
S31500004D38451CCCE90193129B013BC3F30A009DF87D
S31500004D484C30690103F003039B0643EA001E5358DF
S31500004D582C4818404EEA0003012E535041D1132324
S31500004D68CCF80C309CE80F000CF1100E8EE80F0002
S31500004D78DCF81C20109BCCF814306FF0030161F3AB
S31500004D889F02012FCCF81C2003D1CCF81890CCF840
S31500004D9804301A4A290102EB051342F8018000275C
S31500004DA8159A5A6028469F605E732246694603F044
S31500004DB84DFB384605B0BDE8F08F0021204633F09C
S31500004DC8A3FD4FF444736380BBF1000FABD1E378C6
S31500004DD843F03003A6E70C48ECE70C48EAE70C4832
S31500004DE8E8E7B8F1000FD4D19CF8023068F3041351
S31500004DF88CF80230CDE700BF0E7700205847002018
S31500004E08C46700200F80FFF3028000F0018000F0E5
S31500004E18078000F038B5124B1B780546DBB1E0B1C8
S31500004E2802F0EBFD0F4A00231146147B54B92B60A0
S31500004E381A0101EB031301258C501D7302F0E3FDE3
S31500004E48204638BD0133082B02F11002EDD102F0DD
S31500004E58DAFD0548F5E70548F3E70548F1E700BF39
S31500004E680E77002058470020048000F0028000F0EA
S31500004E78018000F013B502F0C0FD0C4A0023147B34
S31500004E887CB90133082B02F11002F8D1019003F026
S31500004E9893FA074B01981C7002F0B5FD204602B044
S31500004EA810BD02F0B0FD0348F9E700BF58470020DF
S31500004EB80E770020058000F00D4B1B7810B50446D0
S31500004EC893B1072812D802F098FD0A4B03EB041396
S31500004ED81A7B2AB100241C7302F095FD204610BDEA
S31500004EE802F091FD0448FAE70448F8E70448F6E7B3
S31500004EF80E77002058470020068000F0028000F058
S31500004F08018000F013B5164B1868019000238DF840
S31500004F18043002F072FD134B1C7824B102F073FDC5
S31500004F28114802B010BD01221A7002F06CFD0F4B39
S31500004F381C731C7783F82C4083F83C4083F84C405C
S31500004F4883F85C4083F86C4083F87C4004230DEBBF
S31500004F5803008DF8073003F04FFA2046E1E700BF5B
S31500004F68B08903000E770020038000F05847002020
S31500004F7810B588B00E9C07940D9C06949DF8304099
S31500004F8805940B9C04949DF8284003940024CDE9CD
S31500004F98013400920B46024621462046FFF77EFE64
S31500004FA808B010BD10B588B00E9C07940D9C0694E9
S31500004FB89DF8304005940B9C04949DF82840039472
S31500004FC80024CDE9013400920B4602460121204611
S31500004FD8FFF764FE08B010BD0A4A127808B55AB140
S31500004FE807280BD8084A02EB00131B7B43B10021A4
S31500004FF803F0F8F9002008BD0448FCE70448FAE77E
S315000050080448F8E70E77002058470020028000F091
S31500005018018000F0078000F00A4A127808B55AB1F4
S3150000502807280BD8084A02EB00131B7B43B1012162
S3150000503803F0D8F9002008BD0448FCE70448FAE75D
S315000050480448F8E70E77002058470020028000F051
S31500005058018000F0078000F00A4A127808B552B1BC
S3150000506807280AD8084A02EB00131B7B3BB103F05A
S315000050783FFA002008BD0548FCE70548FAE7054859
S31500005088F8E700BF0E77002058470020028000F09E
S31500005098018000F0078000F00D4B1B7893B10728BC
S315000050A812D889B10B4B03EB00131B7B73B10A4B68
S315000050B81A6A012303FA00F010401ABF00200B7089
S315000050C80870704705487047054870470548704797
S315000050D80E7700205847002000200E40028000F07E
S315000050E8018000F0078000F00B4A127810B50C46D4
S315000050F862B107280CD859B1084A02EB00131B7B8A
S3150000510843B103F00BFA2060002010BD0448FCE709
S315000051180448FAE70448F8E70E77002058470020C5
S31500005128028000F0018000F0078000F02DE9F843C6
S31500005138DFF86480D8F86070D8F86C301F4000D566
S31500005148FEE7144CDFF8549001260025374217D0A5
S315000051582368C8F868609BB1A16862680131A160DC
S3150000516828469847637B012B0AD148B909EB4513B2
S315000051781A7B60F341021A731A7F60F341021A77A9
S315000051880135082D4FEA460604F11004DED1BDE8C4
S31500005198F88300BF5847002000200E40C46700204F
S315000051A870B5094E0446012504B970BD94FAA4F0F9
S315000051B8B0FA80F005FA00F324EA030456F8203022
S315000051C8002BF1D09847EFE7DC6A002008B51120DC
S315000051D802F02AFC28B1084B4FF40032C3F88021AC
S315000051E81A60092002F020FC28B1034B4FF4007224
S315000051F8C3F880211A6008BD00E100E038B504460E
S315000052080D4602F0FAFB034B43F82450BDE838403C
S3150000521802F0F9BBDC6A0020054BD3F82804D3F862
S315000052281C24104000F05530C3F82404FFF7B8BF1B
S3150000523800A00040054BD3F82804D3F81C241040DE
S3150000524800F0AA30C3F82404FFF7AABF00A0004064
S3150000525838B500F051FB094B094A196839B113688A
S315000052684C69C51AAC4204D323441B1A4B6110601F
S3150000527803E0001B002310604B6138BD7C6F0020E3
S31500005288906B0020C38870B504460D463BB906F0FE
S31500005298F3FF8542064602D207F008F835460F495D
S315000052A865610B68ABB90C60A36011E0AD1A9A682A
S315000052B8656118462AB113465A69AA42F6D950B109
S315000052C81A4684601346A36013B15969491B59618C
S315000052D870BD0020F0E70C60F5E700BF7C6F00208A
S315000052E838B50F4B0F4D1C682B685B6902201C44B0
S315000052F800F030FB204600F005FB0B492A68002326
S315000053080B70D088800702D501230B7038BD9268D0
S31500005318002AFBD050690344012BF2D9F6E700BFF7
S31500005328906B00207C6F00203377002070B59DF8C5
S3150000533814500571002516468560049ABDF8185064
S31500005348C580C0E90336044602600D4629B94161A5
S315000053580BB11146984796B1354602F04EFB064604
S31500005368FFF776FF29462046FFF78CFF054B1B689B
S31500005378A34201D1FFF7B4FF304602F044FB0020F8
S3150000538870BD00BF7C6F00200C490B6800227BB102
S3150000539883420AD183687AB1936083681BB15A69DC
S315000053A841690A445A61002070471A469B68EEE72D
S315000053B80028EFD0022070470B60EEE77C6F0020D4
S315000053C870B5154E02F019FB34780546FCB9134B37
S315000053D81C60134B1C60134B1C8000F049FA01201B
S315000053E800F0B8FA00F004FB0F4B0246186020B92B
S315000053F8284602F008FB232070BD23460B4840F2DE
S31500005408E73133F08FF80A4B1860012333702846CA
S3150000541802F0F9FA0020EFE7157700207C6F0020EC
S31500005428906B0020D4730020786F002018FCFFFFD3
S31500005438986B00202DE9F0410546F8B102F0DDFA37
S315000054480F4F0646FFF704FF2846D7F80080FFF7F8
S315000054589BFF044628B1304602F0D5FA2046BDE83F
S31500005468F081A8453B6803D123B1FFF739FFF2E77E
S31500005478002BF0D1022000F07BFAECE72224EDE7BE
S315000054887C6F002070B586B0154605911E46044609
S3150000549880B1FFF7CFFFBDF82C3002939DF8283076
S315000054A80599CDE9006300222B462046FFF73EFF0B
S315000054B806B070BD2220FBE738B50C46054698B104
S315000054C891B100230B7002F098FA084B1B68012172
S315000054D80BB122781AB102F096FA002038BDAB4219
S315000054E814BF9B682170F3E72220F7E77C6F002042
S315000054F8F0B587B01F4600230D4616468DF81730BF
S315000055080446A0B10DF11701FFF7D6FF9DF8172045
S315000055187AB9BDF8343002939DF830302946CDE982
S31500005528007320463346FFF701FF07B0F0BD22207F
S31500005538FBE70320F9E70000F8B50C460546C8B1B5
S31500005548C1B102F05AFA0646FFF782FE6B6923607C
S31500005558134B1B68AB420FD023B9304602F053FAFF
S3150000556803201CE0596922689B680A442260F1E717
S3150000557800230FE0222012E00A4D276800F0BCF94C
S315000055882B68C01A8742F3D900F0B6F92B6822684F
S3150000559813441B1A3046236002F035FA0020F8BD82
S315000055A87C6F0020906B00202DE9F0410746884665
S315000055B802F023FA134B1C680546002624B9284630
S315000055C802F021FA1B2016E063691E44E388BB42F9
S315000055D815D10D4C00F090F92368C01AB0420CD2D0
S315000055E800F08AF922683244121A2846C8F80020C0
S315000055F802F009FA0020BDE8F0810022F5E7A46868
S31500005608DCE700BF7C6F0020906B0020014B187808
S31500005618704700BF3377002038B502F0EEF905462B
S3150000562800F06AF90446284602F0EDF9204638BD2E
S3150000563870B502F0E2F9064600F05EF9084B1D88DF
S3150000564804460120ADB200F0ABF918B100F054F9E8
S3150000565801350446304602F0D6F92046294670BD83
S31500005668D4730020014B1868704700BF786F00207C
S315000056780A4B1B68834210B50C460CD3084B1968B5
S315000056884FF47A720023A0FB010132F04BFF013080
S315000056982060002010BD2120FCE700BF986B002089
S315000056A8786F00200F4B1A6810B59AB1531E4FF445
S315000056B87A711342A0FB01010ED1B2FA82F2C2F14D
S315000056C81F04531CE040D24301FA03F3184321FA9E
S315000056D802F20243104610BD002332F023FF0246B1
S315000056E8F8E700BF786F0020164B8342164B8B41B4
S315000056F870B5154624D3154B1A680AB34FF47A7653
S31500005708541EA0FB0603144006FB013111D1B2FA60
S3150000571882F3C3F11F025E1C01FA06F6DB43D04092
S3150000572821FA03F330431843D140C5E90001204666
S3150000573870BD002332F0F6FE0024C5E90001F6E745
S315000057482124F4E7EFA7C64B37894100786F00207C
S31500005758C2072DE9F84F04460BD5414A1388013391
S315000057689BB21380FFF774FD3E4B1B680BB1FFF726
S31500005778B7FDA30771D5DFF8F49000F0BDF8D9F8A6
S3150000578800700646C71B02F038F94FF000080546B8
S315000057984246C346334B1C6814B16369BB4219D9E8
S315000057A8314B0021B8F1010F197005D122B1D28809
S315000057B8022A08BF83F80080002C4AD06369C9F81A
S315000057C80060DB1B6361FFF78BFD2846BDE8F84FD9
S315000057D802F019B9C9F8006023463A465969914258
S315000057E809D8187994F804C0844588BF1C469B6874
S315000057F8521A002BF2D1284602F005F96569C4F859
S3150000580814B002F0FAF882462046FFF7BDFD50466E
S3150000581802F0F9F823694BB102F0EFF821698246E4
S315000058282046FFF72FFD504602F0EDF8E36813B166
S3150000583821682046984700F05FF835447F1B82466A
S31500005848074402F0DAF808F10108054622465646EA
S31500005858A0E7022000F08CF8B7E7BDE8F88F00BF94
S31500005868D47300207C6F002020780020906B0020E5
S3150000587810B51D4B86B01868596803AA03C2197A71
S31500005888D3F8090011700190B3F80D201748DB7B97
S31500005898ADF8082001218DF80A30002401F0B6FC85
S315000058A803A88DF80C408DF8104003F027F801A9DD
S315000058B801208DF8044003F001F80D4A536A23F4D9
S315000058C8FF6323F00703536240F2FF73136201205C
S315000058D8946003F00DF8074B4FF00052C3F880218F
S315000058E81A6006B010BD00BFB4890300A0091400F1
S315000058F80020044000E100E0014B9868704700BFB3
S3150000590800200440114A9368516D9269520704D4E5
S31500005918CA1A032A01D899420DD1C21A022A98BF77
S31500005928D81C0A4BB0F1FF3F38BF013858655A6A90
S3150000593842F004025A62064A137833B103490B6DE2
S3150000594843F002030B6500231370704700200440E0
S315000059583B4300208207054A00F00103516A48BF0D
S3150000596843F004030B435362704700BF0020044012
S31500005978820700F0010309D5074A0121117007497A
S315000059880A6D22F0030243F004030A6503494A6AD2
S3150000599822EA03034B6270473B4300200020044081
S315000059A8064B01289B6904D0022805D1C3F3800061
S315000059B8704703F00100704700207047002004403C
S315000059C810B502F01AF8094A93690446590703F014
S315000059D8010003F0070348BF40F002001362FFF717
S315000059E8B7FE2046BDE8104002F00DB8002004407E
S315000059F8014801F041BD00BFA0091400044B1B6813
S31500005A0800EB8000A3EBE00080F30800704700BFBE
S31500005A185047002038B5184B40289C6827DD502889
S31500005A28B4BF01230223154A154D02EBC30292E8BF
S31500005A380300144A02EBC30285E8030092E8030058
S31500005A48012C114D08BF0C4A85E8030004BF4AF62D
S31500005A58E8519160012B0CD0022B0AD0002002F0ED
S31500005A689FFB012C02BF044B00229A6038BD00231D
S31500005A78D9E71846F3E700BF00300E408C6A0020CD
S31500005A88146F0020A46A0020446F0020FFF7C2BFED
S31500005A98044B4FF04042DA621A6B22F040421A6316
S31500005AA8704700BF00300E40F0B52D4C2D4A2368D4
S31500005AB800210846156845B11D68002D41D01D799D
S31500005AC81679AE4284BF134601210130062802F139
S31500005AD80802EFD101B123602348244A0368002154
S31500005AE80D46166846B11E68002E2DD01E79177908
S31500005AF8B7423CBF134601210135062D02F10802C3
S31500005B08EFD101B103602168194B0A68FAB1DA6965
S31500005B18097922F0FF020A43DA611A6B42F08042E1
S31500005B2801681A630A68124BAAB1DA69097922F47C
S31500005B387F4242EA0122DA611A6B42F000421A6396
S31500005B48F0BD13460121C0E713460121D4E71A6BBD
S31500005B5822F08042E4E71A6B22F00042EFE700BF2A
S31500005B68686B0020146F0020946B0020446F00209F
S31500005B7800300E4008B502F049FB9FED137A07EE98
S31500005B88900AF4EEC77AF1EE10FA19D49FED0F7A5F
S31500005B98F4EE477AF1EE10FAC8BFF0EE477A17EE40
S31500005BA8900A32F03FFC0A4B002232F0DDFA094B2C
S31500005BB8002232F0D9FA32F08DFC803840B208BDA6
S31500005BC8F0EE477AEBE700BF000000C30000FE4294
S31500005BD80000E03F00006040144A38B5136B526A73
S31500005BE8134012D5124B1B681D6835B100241C6082
S31500005BF85C60FFF7BFFF2146A8470C4B4FF00042F9
S31500005C08DA62BDE83840FFF74FBF5B00F9D5094BAC
S31500005C181B681C6834B100221A605A60FFF7AAFF95
S31500005C280121A047014B4FF08042E9E700300E40C2
S31500005C38946B0020686B0020FFF7CEBF2A4B37B560
S31500005C4801221A7000213022284832F05DFE3022E7
S31500005C582748002132F058FE264A274B1360274A68
S31500005C681360274AD2F8B030D2F80421C3F30743A9
S31500005C78FF2B02D0D2B2FF2A01D19022192303EBBF
S31500005C88830302EBD3031F4A01A8136002F06AFEDE
S31500005C989DF80530012B1BD14120FFF7AFFE1A4CAA
S31500005CA81A49207139202160FFF7A8FE05465020C1
S31500005CB8FFF7A4FE164A2073157391604820A16069
S31500005CC8FFF79CFE11611075FFF754FFFFF7A2FE60
S31500005CD8FFF7DEFE0F4B0122C3F880211A60FFF79B
S31500005CE8E3FE002003B030BD40760020146F00208C
S31500005CF8446F0020686B0020C46B0020946B002062
S31500005D080081E00F504700208C6A0020955A000059
S31500005D18A46A002000E100E038B141B1013AB2F5C9
S31500005D28006F044838BF0020704703487047014891
S31500005D38704700BF037000F0027000F038B50446E3
S31500005D480D4601F05AFEA3889BB223B92B6001F0D9
S31500005D585AFE064838BD638814229BB202FB0344E8
S31500005D6808342C6001F04FFE0020F3E70B7000F0BA
S31500005D78F8B5044616460F4601F03FFEA388E288AA
S31500005D889BB29A42054605D80023336001F03BFED4
S31500005D981748F8BD238814229BB202FB0343083335
S31500005DA83A4607F1100C174603CF67451860596045
S31500005DB83A4603F10803F6D1386818602388142296
S31500005DC89BB202FB0343083333602388E2889BB205
S31500005DD80133B3FBF2F102FB11339BB22380A38894
S31500005DE801339BB22846A38001F00DFE0020D0E7C0
S31500005DF80A7000F010B50346006893F83230012B9C
S31500005E080CD102F0C1FB044630B1FFF72BFC24236A
S31500005E185843B0FBF4F40134204610BD02F0ACFE42
S31500005E28F1E7000090F83130022B0BD1437E302287
S31500005E385343054A1A44437F03EBC2039B00186881
S31500005E48C0B27047002070471CA0100213B51D4A47
S31500005E58002352F8044B617F81420ED00133042B94
S31500005E68F7D102B010BD0028FBD19DF80730002BF2
S31500005E78F7D06068FFF7B0F8F3E794F83130022BF3
S31500005E88EFD12046FFF7CEFF637D2075022BE8D1C0
S31500005E9894F82E3003F0FF02002BE2D160688DF8EB
S31500005EA807200DF10701FFF7F7F8237D1BB194F8DA
S31500005EB82F30002BD7D00023606884F82F30FFF7E7
S31500005EC8ABF8CEE7886F002090F8323053B90368F4
S31500005ED80422DA601A699007FCD55A6F42F002026A
S31500005EE85A677047012B0CD103685A6C9107FCD48A
S31500005EF804225A609A689207FCD55A6D42F002024B
S31500005F085A65704790F8323053B903680122DA604F
S31500005F181A69D007FCD55A6F42F001025A677047D2
S31500005F28012B0CD103685A6C9107FCD401225A60E4
S31500005F389A68D207FCD55A6D42F001025A65704735
S31500005F4890F832303BB903685A6F22F001025A675B
S31500005F580222DA607047012B09D103685A6C92074E
S31500005F68FCD45A6D22F001025A6502225A60704723
S31500005F781049114A0B7830B52BB9C2E90033C2E98A
S31500005F88023301230B700C4C0023214651F8045BA5
S31500005F98854208D00133042BF8D1002154F8043B7C
S31500005FA81BB942F82100002003E001310429F5D18C
S31500005FB8024830BD21790020886F0020027000F069
S31500005FC810B50446FEF79EFF0021201DFEF722FFAE
S31500005FD8014620B904F10800FEF71CFF00B101488C
S31500005FE810BD00BF0E7000F070B5054601F005FD46
S31500005FF86C6B013C06466C634CB901F0EFFC21461C
S315000060080546012006F0E2F8284601F0EBFC30468A
S31500006018BDE8704001F0F7BC13B591F832200B6863
S31500006028012A0C460BD19B6813F0080F20460AD0AC
S31500006038FFF7DAFF022384F8383002B010BD1B6977
S3150000604813F0200FF2E7FFF7D5FE0023CDE9003362
S315000060580146034A234604F13C00FFF749FAECE7F8
S315000060682160000070B5044601F0C7FC636B054665
S315000060784BB901F0B3FC01210646084606F0A6F81E
S31500006088304601F0AFFC636B013363632846BDE815
S31500006098704001F0B8BC00007FB5012380F82C30B1
S315000060A890F8323093B90C4A0368039200220490A0
S315000060B802924A680192012200920A680169806880
S315000060C81C33FEF76FFF07B05DF804FB012BEAD01F
S315000060D8002380F82C30F6E7196D00002DE9F04111
S315000060E8012380F82D3090F8323088B004460E46E9
S315000060F86BBB0568343501F080FC04F13C080746A3
S315000061080DF11F014046FFF7D7F940B99DF81F303A
S315000061182BB14046FFF78EF92046FFF765FF384654
S31500006128012701F070FC204684F83870FFF79AFFC3
S315000061380E4B0393002302937368E1686068049426
S31500006148CDE900732A463368FEF712FF0BE0012BF0
S3150000615806D105682B6843F4005345F8283BCAE77F
S31500006168002380F82D3008B0BDE8F081C161000039
S3150000617838B504460D4601F040FCA3889BB223B906
S315000061882B60BDE8384001F03EBC638814229BB200
S3150000619802FB034308332B606388E2889BB2013312
S315000061A8B3FBF2F102FB11339BB26380A388013B78
S315000061B89BB2A380E5E70000F0B585B0906A03A915
S315000061C81446FFF7BBFD06462046FFF713FE0025DB
S315000061D801462346CDE900551B4A04F13C00FFF76A
S315000061E887F91A4B9E421FD0039B1D619D6001F0E3
S315000061F804FC039AD768064627B1D2E90023294644
S315000062082046B847A06A03A9FFF7B2FFA06A8388A9
S315000062189BB263B103A9FFF791FD03992046FFF7E7
S315000062285DFF304601F0EFFB012005B0F0BD84F8B4
S315000062382D3094F83230012B01BF2268136823F4FD
S3150000624800531360EDE700BF216000000B7000F0FB
S315000062581FB504460B46C07DE17E002B33D00123D3
S31500006268042202F069F80123217F207E022202F02F
S3150000627863F894F83130022B16D1617F607E0023D3
S31500006288012202F059F800230422A17FA07E02F021
S3150000629853F80123627F0193607E0093114602F052
S315000062A805F8002004B010BD032BFAD10023012203
S315000062B8617F607E02F040F800230422A17FA07E61
S315000062C802F03AF8EDE71A46039302F035F8039B15
S315000062D8217F207E1A4602F02FF894F83120039B7E
S315000062E8022A0FD11A46617F607E02F025F8039BC9
S315000062F8A17FA07E1A4602F01FF8039B0193627FD6
S315000063080123C9E7032ACCD11A46617F607E03932D
S3150000631802F012F8039B1A46D0E790F8323013B908
S31500006328036818697047012B1CD103689B6803F042
S315000063380200DA0748BF40F00100590748BF40F09D
S3150000634808001A0748BF40F02000D90648BF40F0A9
S3150000635840009A0648BF40F080005B0603D540F42B
S3150000636800507047002070472DE9F3410D4604465A
S3150000637800287FD001F041FB012D064641D1A36AD2
S315000063889B889BB2002B43D06068FEF765FE00230E
S31500006398A06A84F82D3083889BB273B101A9FFF7F0
S315000063A8CDFC01996068394F0831FEF79DFE019BC7
S315000063B81F61A06A83889BB283BB2046FFF7ADFFA7
S315000063C88304FAD5023D012D10D8A068FEF744FED5
S315000063D80023606A84F82C3083889BB26BBB94F8E0
S315000063E83130032B02D02046FFF7AAFD636B002B42
S315000063F802DD2046FFF7F8FD304601F004FB0020D9
S3150000640809E0022D38D1636A9B889BB2002BDCD148
S3150000641801F0F9FA1E4802B0BDE8F08101A9FFF7BC
S31500006428A7FE019BD3F80C80B8F1000FC1D09B687A
S31500006438002239462046C047BBE76946FFF77EFC7F
S315000064480099A068114D0831FEF74EFE009B1D61AC
S31500006458606A83889BB2002BC1D06946FFF788FE25
S31500006468009BDF68002FF3D09B6800222946204650
S31500006478B847EDE70748CEE7032DA3D1A36A9B8863
S315000064889BB2002B80D1636A7AE700BF097000F0DF
S31500006498087000F0027000F0436A9888C0B270472E
S315000064A82DE9F3410546406A84889846A4B200233C
S315000064B8CDE900330E4617463CB16946FFF73EFC68
S315000064C801A90446A868FEF70FFE009B73B16CB9D4
S315000064D85A6801991B68521A3A60C8F80010336066
S315000064E82846FFF71AFF02B0BDE8F0810023C8F876
S315000064F800303B60F3E7836A9888C0B270472DE99D
S31500006508F3410546806A84889846A4B20023CDE9FB
S3150000651800330E4617463CB16946FFF70FFC01A942
S3150000652804466868FEF7E0FD009B73B16CB95A68CB
S3150000653801991B68521A3A60C8F800103360284659
S31500006548FFF7EBFE02B0BDE8F0810023C8F8003083
S315000065583B60F3E7007D70472DE9F041044690461D
S31500006568FFF7DAFB0F46054600285CD1082001F044
S3150000657869FA0646A26A93889BB213B194F82E303C
S3150000658833B394F8323043BB23681E6906F002061B
S315000065981EB92046FFF798FC0026012384F8303000
S315000065A894F832301BBBB844474520681AD10369B2
S315000065B89A06FCD5002E36D194F8323033BB2368C0
S315000065C85A6F22F002025A670822DA6035462AE034
S315000065D8002ED0D0FEF7AAFDCCE7012BD9D123682F
S315000065E89E68D3E717F8011B02F042FBDCE7012B94
S315000065F8E0D1B844B845206803D183681B07FCD5A9
S31500006608D8E717F8011B01F0F2FFF3E7012BDDD1FC
S3150000661823685D6C15F00205FBD15A6D22F0020263
S315000066285A6508225A602846BDE8F08110B5044626
S3150000663880B190F82E302BB9FFF7F4FB10B96068DB
S31500006648FEF7CAFC94F82E300133DBB284F82E30FC
S31500006658002010BD0048FCE7027000F010B50446A3
S31500006668A0B190F82E309BB190F82E30012B05D1B1
S31500006678FFF7D8FB10B96068FEF7CEFC94F82E3009
S31500006688013BDBB284F82E30002010BD0148FCE740
S315000066980148FAE7027000F0057000F037B590F887
S315000066A83150022D044618D1A37FA17E407D0122D8
S315000066B89A4030235943134B0B4410B903F18063B6
S315000066C803E0012805D103F1C0631A60002003B076
S315000066D830BD217D0029F6D1F0E7012DF6D1037DE5
S315000066E873B911238DF80730FFF7A0FF2A460DF17D
S315000066F807012046FFF730FF2046FFF7AFFFE5E723
S315000067081323EFE70CA00040F0B5094F04460D46E9
S315000067180FCF89B001AE0FC697E8070086E80700D5
S31500006728002C00F036823DB9024E304609B0F0BD65
S31500006738C4890300037000F054220021204632F079
S31500006748E3F82046FFF714FC06460028EDD12B7C1B
S3150000675884F8313001222B6884F83820B74A236040
S31500006768934284F8320040F08A81B54B2362B54BD8
S31500006778E3604FF440232361D5E9062300266262CD
S3150000678816805680968084F82C60A3621E805E80F0
S315000067989E806B6803936B8984F82D6084F82F605C
S315000067A8ADF81430AB89ADF81230AB7BA6488DF83E
S315000067B810300121EB7B8DF8163005278DF8117006
S315000067C800F024FDA148012100F020FD206A0121E6
S315000067D800F01CFD28688DF8046001A902F00AFA89
S315000067E828686B7A816F2A7ADFF850C221F4F8514B
S315000067F821F01F01194341EA0221816703214167FC
S315000068082068604540F04681BA4216D9901F042890
S3150000681840F25C81A2F10B00B84240F25981A2F124
S315000068281100062840F25681A2F11801062940F205
S3150000683853811F2A14BFFF263E46042BE67540F2F5
S315000068484D81591F042940F24B81A3F10A010529FC
S3150000685840F24881A3F11001062940F24581A3F1CF
S315000068681701072940F24281B3F11F0118BF4FF003
S31500006878FF31C9B22176002A58D0012A56D0022AF9
S3150000688854D0032A52D0042A50D0052A4ED0062ABC
S3150000689800F03681072A00F03581082A00F0348195
S315000068A8092A00F033810A2A00F032810B2A00F007
S315000068B83D810C2A00F01C810D2A00F01B810E2A4E
S315000068C800F01A810F2A00F01981102A00F01881A9
S315000068D8112A00F01181122A00F01081132A00F003
S315000068E80F81142A00F00E81152A00F00D81162A50
S315000068F800F00C81172A00F00B81182A00F00A8193
S31500006908192A00F009811A2A00F008811B2A00F0CA
S3150000691807811C2A00F006811D2A00F005811E2A1F
S3150000692800F004811F2A0CBF0722FF22E276002B03
S3150000693800F01081012B00F00F81022B00F00E8170
S31500006948032B00F00D81042B00F00C81052B00F0C1
S31500006958F580062B00F0F480072B00F0F380082B57
S3150000696800F0F280092B00F0F1800A2B00F0FC8081
S315000069780B2B00F0FB800C2B00F0DA800D2B00F0BF
S31500006988D9800E2B00F0D8800F2B00F0D780102B63
S3150000699800F0D080112B00F0CF80122B00F0CE80B3
S315000069A8132B00F0CD80142B00F0CC80152B00F0B3
S315000069B8CB80162B00F0CA80172B00F0C980182B45
S315000069C800F0C880192B00F0C7801A2B00F0C6808B
S315000069D81B2B00F0C5801C2B00F0C4801D2B00F07B
S315000069E8C3801E2B00F0C2801F3B18BF4FF0FF3339
S315000069F8DBB223776B7C6376AB7C6377EB7CA37621
S31500006A082B7DA37701212046FFF722FC06460028A6
S31500006A187FF48BAE00F0F1FF2B7C032B074640F08A
S31500006A28A7802B682A8CDA675A6E42F004025A66E7
S31500006A385A6F42F030025A670AE000BF0000014070
S31500006A480022040001000C004041050000250A0050
S31500006A5828684FF0FF3383642B7C032B0CBF05217A
S31500006A68042102F09BF82B684FF44062DA60204656
S31500006A78FFF7A6FA0646384600F0C5FF55E6464A29
S31500006A8893427FF451AE454B2362454BE3604FF486
S31500006A98502370E6DFF800C160457FF445AE052A4D
S31500006AA87FF6CBAE901F042810D9A2F10B0005285B
S31500006AB80ED9A2F1110006280CD9A2F1180106294F
S31500006AC80AD91F2A14BFFF260526B6E60126B4E60C
S31500006AD80226B2E60E46B0E63E46AEE60021C9E616
S31500006AE80121C7E60221C5E60321C3E60521C1E661
S31500006AF807221BE7082219E7092217E70A2215E7E2
S31500006B080B2213E70C2211E70D220FE70E220DE7E1
S31500006B180F220BE7002209E7012207E7022205E711
S31500006B28032203E7042201E70522FFE60622FDE623
S31500006B3808235EE709235CE70A235AE70B2358E78D
S31500006B480C2356E70D2354E70E2352E70F2350E78D
S31500006B5800234EE701234CE702234AE7032348E7CD
S31500006B68042346E7052344E7062342E7072340E7CD
S31500006B78022B7FF46DAF607F0A49FEF73FFBFEF7F5
S31500006B8825FB4FF40073A382A6752046FFF786FD02
S31500006B985EE7054EC9E500BF000401400032040067
S31500006BA801000D00555E0000027000F090F83130CB
S31500006BB8032B05D00229417518BF0175FFF76EBD75
S31500006BC800487047057000F073B5044600286AD07F
S31500006BD80321FFF7C9FB00212046FFF7E7FF002145
S31500006BE82046FFF735FB314B1B784BB1304A002363
S31500006BF8114652F8040B844245D1002241F823205D
S31500006C0894F83230002B42D123680A22DA60206ACF
S31500006C18002100F0FBFA94F83130022B03D1607F93
S31500006C280021FEF7EBFA6068FEF746F9A068FEF762
S31500006C3843F9FEF71FF9626A002313805380938095
S31500006C48A26A13805380938000F0D7FE04F13C06B5
S31500006C5805460DF107013046FEF72EFC28B99DF8CA
S31500006C68073013B13046FEF7E5FB284600F0CBFEA9
S31500006C78636B002B04DD012363632046FFF7B4F939
S31500006C88002002B070BD0133042BB2D1B8E7012B46
S31500006C98BDD1206801F097FC23685A6C9207FCD492
S31500006CA80A225A60B3E70348EBE700BF21790020C0
S31500006CB8886F0020027000F0F0B587B005461646CA
S31500006CC8FFF72AF80446F0B9CDE901160493686A75
S31500006CD80E4B03966A4601A90593FFF749F8044641
S31500006CE888B995F82C3073B92846FFF70BF900993F
S31500006CF82846FFF7D1F995F83130032B03D02C75C8
S31500006D082846FFF7CBFC204607B0F0BD017000F01F
S31500006D1873B5506A01A91446FFF710F8334B984229
S31500006D282FD094F83200019B002836D12268116CC6
S31500006D3811F4007128D02E49196198604FF4007338
S31500006D48936400F05AFE0199CD68064635B14A6843
S31500006D588B682046D31A0A680969A847606A01A998
S31500006D68FFF706FA606A8588ADB2002D2FD001A913
S31500006D78FEF7E4FF01992046FFF78EF9304600F04A
S31500006D8842FE012002B070BD106CC5051BD519481E
S31500006D98186199604FF48073D2E7012813D12268ED
S31500006DA8D16A11F0800106D0114919610021996054
S31500006DB880235363C5E7D06A400604D50D48186199
S31500006DC899604023F5E700221A619A60B9E7012322
S31500006DD823752046FFF762FC94F8313084F82C506E
S31500006DE8032BCBD02046FFF7ABF8C7E70B7000F0B4
S31500006DF80D7000F00C7000F010B590F83120012AE3
S31500006E0810D102290ED0827D8A4201D1002010BD00
S31500006E18817511B9FFF722FCF8E70129F6D1FFF7CA
S31500006E2805FCF3E70048F2E7057000F0F0B587B017
S31500006E3804461646FEF770FF054658BB0493194BE1
S31500006E48059394F832300396CDE901162BBB2368D7
S31500006E581B6903F0020313B92046FFF735F8A06A49
S31500006E686A4601A9FEF784FF054698B994F82D30BD
S31500006E7883B900F0C2FDA36A9B889BB2064633B16C
S31500006E8800992046FFF72AF9012384F83030304666
S31500006E9800F0B9FD284607B0F0BD012BDCD1236808
S31500006EA89B68D6E7017000F070B588B00D22294EB0
S31500006EB8294D002104A831F027FD002402230121D1
S31500006EC826488DF81010CDE9014403948DF80A3050
S31500006ED800F09CF901AA2146304601F0B4FD4FF6B0
S31500006EE8FF73F3618DF8124004A9304601F058FD8E
S31500006EF81B4800F0C1FA9DF81230D8400133DBB2C6
S31500006F080A2B28608DF8123002D8164B9842EBD817
S31500006F181548164C00F0B0FA2E68B4FBF0F40025BC
S31500006F281348144A29460023E6FB040131F0FAFA0D
S31500006F38114B084A1860114B1D70936923F0100312
S31500006F4893610F4B4FF480622846C3F880211A607C
S31500006F5808B070BD00800140D86A00200002040015
S31500006F684041050080841E007000020000B0710BCD
S31500006F7820A1070040420F009C6B002017790020D3
S31500006F8800E100E0044BDA68D20604D510225A6103
S31500006F98024B01221A7070470080014017790020C1
S31500006FA8344B002A70B5344D446B08BF1D46334B2D
S31500006FB814BF10260026984232D1062907D806297A
S31500006FC807D8DFE801F00817472E06063F00812993
S31500006FD840D000231FE02A49D1F81032D1F81022F8
S31500006FE803F4FE4302F00F021A43D1F8103203F0FD
S31500006FF8F0030FE0224AD2F81032D2F81012D2F873
S3150000700810221B0C120C02F0F00203F4FE43134389
S31500007018C1F303421343194AB3402C402343536335
S3150000702870BD174BD3F81422D3F81412D3F81432C0
S31500007038120C1B0C03F0F00302F4FE421A43C1F3D0
S315000070480343E7E70E4BD3F81822D3F8183202F0B9
S315000070580F02CCE70A4AD2F81432D2F81412D2F840
S31500007068142203F4FE4301F00F010B4302F0F00271
S31500007078D0E700BF0080FFFFFFFF00800020004030
S315000070880080E00F38B502230C4683608978002219
S31500007098FFF786FF2279617905466078130243EA8D
S315000070A8006343EA0143E17843EAC103E17909B1A0
S315000070B843F00053217A09B143F00403A17909B1D9
S315000070C843F00203617A09B143F00103F32AA17878
S315000070D806D129B903289CBF23F0706343F0806367
S315000070E848B20028ACBF43EA411343F0E0032B61E2
S315000070F86B69002823F4F21323F00703BCBF21F0C1
S3150000710880010B43217843EA4143E17A09B143F40C
S3150000711880436B616B0103F18443A17A99606B012B
S3150000712803F1844303F5C863F32A0CBF0122002246
S315000071381A60EB6FD5F88030EB6838BD0C4B984277
S3150000714810D90C4B984210D9022201230A490B6424
S315000071580A49D1F8003123F0807343EA0263C1F883
S315000071680031704700221346F0E70122FBE700BF13
S315000071780048E8010090D0030000C84300400E40D4
S31500007188044BD3F84421D20703D4D3F84021104244
S31500007198FBD1704700400E400A4A0B4990424B68A3
S315000071A80BD90A4A90420AD903F040724B6823F079
S315000071B8407343EA02634B6070470022F6E70122F8
S315000071C8F4E700BF40787D0100000E40005A6202D5
S315000071D838B5064C41F67133256C236401F0C0FDC1
S315000071E8FFF7DAFF0DB10023236438BD00000E4017
S315000071F838B5054C41F67133256C2364FFF7CCFF8F
S315000072080DB10023236438BD00000E4038B5C0F325
S315000072180323013B092B16D8DFE803F026161515BC
S3150000722805191C151F23124C0023C0F3043513B18E
S315000072381846FFF7A5FF04F1424404F5801405EB50
S31500007248C404A400216038BD0A4C0023EDE70A4CAB
S315000072580123EAE7094C1023E7E7094C4FF480338A
S31500007268E3E7084C0023E0E7074C0023DDE700BF0F
S31500007278B0400E40C0400E40E0400E40E8400E4090
S31500007288F0400E4050410E4000400E40C0F303133C
S31500007298013B092B3FD8DFE803F0050B0F193E3EEB
S315000072A81F232C351D4BD3F80001C0F3042070476B
S315000072B81A4BD3F81401F8E7184BD3F80001C0F3BA
S315000072C80060431C0120984001387047134BD3F8DF
S315000072D80C01C0F308207047104BD3F80801F8E7F3
S315000072E80F4B984217D10D4BD3F8203103F00F03FB
S315000072F8E8E70C4B98420ED1084BD3F8283103F037
S315000073080303DFE7084B984205D1044BD3F8300155
S3150000731800F00F0070470020704700BF00400E4085
S315000073288006160090071A00A009140008B5FFF792
S31500007338ADFF013008BD000000F00F000138072836
S3150000734846D8DFE800F004101B45252F4537254BA6
S31500007358D3F8940000F00700831E022B3AD8C0F138
S315000073680600C0B270471F4BD3F8803003F00703FE
S31500007378013B032B30D81C4AD05C7047194BD3F815
S31500007388843003F00703013B032B25D8174AF3E79C
S31500007398144BD3F8883003F00703013B032B1BD8A3
S315000073A8134AE9E70F4B1B6F13F0010F0CBF0720B9
S315000073B8092070470B4BD3F85C3103F03003202BC0
S315000073C80CD0302B0CD0102B14BF0120072070478F
S315000073D80020704705207047012070470420704739
S315000073E80820704700400E40F0890300F489030026
S315000073F8F089030008B50146FFF79EFF1A4B99422C
S3150000740811D01A4B994212D0194B994204D1194BF3
S31500007418D3F8800000F007000138032821D8DFE8F8
S3150000742800F00A0E1612134BD3F88400F2E7114B3C
S31500007438D3F88800EEE7BDE8084001F003BDBDE8D3
S31500007448084001F005BDBDE8084001F0FEBC01F0AA
S315000074588BFC084BD3F80031C3F300630133D840E3
S3150000746808BD0020FCE700BF03002000050024003B
S3150000747802001E0000400E4000F47813B3F5A01F6A
S3150000748810B5044654D01ED8B3F5202F6CD009D8B1
S31500007498B3F5003F41D0B3F5802F33D0002B63D02E
S315000074A8002010BDB3F5602F57D0B3F5801F6CD000
S315000074B8B3F5402FF4D101F057FC3F4BD3F8143104
S315000074C8C3F3042325E0B3F5001F3BD00FD8B3F56B
S315000074D8D01F39D0B3F5F01F25D0B3F5B01FDFD1D3
S315000074E83648FFF787FF344BD3F8203126E0B3F54B
S315000074F8481F3DD0B3F5781F54D0B3F5101FCFD130
S315000075082F4811E001F030FC2B4BD3F80C31C3F3B4
S3150000751808230133B0FBF3F0C3E701F025FC264B43
S31500007528D3F80831F3E72548BDE81040FFF762BFF6
S315000075382348FFF75FFF204BD3F8303103F00F03E2
S31500007548D840AEE71F48EFE71E48FFF753FF1A4B30
S31500007558D3F8283103F00303F2E71B48FFF7ECFEE4
S31500007568072812D009289BD1BDE8104001F0FCBBC2
S315000075781648FFF7E1FE072807D0082808D0042890
S315000075888ED1BDE8104001F025BC114B186888E77C
S3150000759801F0EAFB084BD3F80031C3F3042303FBDD
S315000075A800007EE701F0E0FB01462046FFF7BEFE3D
S315000075B8B1FBF0F075E700BF00400E4002001E0068
S315000075C8050024000300200006000E00B800320063
S315000075D8A83C0020013810B5032812D8DFE800F0CF
S315000075E8022E1220214AC1F30801D2F86838002B6E
S315000075F8FBD11F4A136A23F4FF7323F001031943CF
S31500007608116210BD194A01F07F01D2F86038002BCB
S31500007618FBD1174A136923F07F0319431161F0E779
S31500007628124A01F07F01D2F86438002BFBD1104AC8
S31500007638936923F07F0319439161E2E70C4AD2F874
S315000076489030536A23F0300343F010035362146BEF
S31500007658084BC1F3C31003300F2803EA040328BFFD
S315000076680F20194341EA00711163CAE70020C84395
S3150000767800400E4000F8FF0F104A536A13F0300F0F
S3150000768818D0202913D0302914D000290C4B08BF54
S315000076984FF44003D2F8901033EA0101FAD15B02A5
S315000076A846BFD2F8A000C0F38020012070474FF4EF
S315000076B80003EFE74FF44003ECE700BF00400E403D
S315000076C8FF03E10702280AD129B1064B4FF480606F
S315000076D8C3F8A800596612B10220FFF7CDBF0120F2
S315000076E8704700BF00400E400428F8B543D8304B19
S315000076F8304F13F800C0304B1B5C002941D02F4C8B
S31500007708022834F8106037D17C6A14F0300F33D170
S315000077187C6AE40705D57D6A25F0300545F0100535
S315000077287D62244C2666264C23449B001D68002D4A
S31500007738FCD002B36444A4002368002BFCD00228C2
S3150000774819D1C1B11B4D696A11F0010116D0012288
S315000077582021FFF7B7FFD5F89C70012200210220EF
S31500007768FFF7C2FFC7F30A010220FFF733FF2E66B1
S315000077782368002BFCD0F8BD0021D2E7FFF77CFF79
S31500007788E9E7104931F810103966012101FA03F3C7
S31500007798D7F890101942FBD1002AECD00124054AEB
S315000077A804FA0CF4D2F890302342FBD1E3E700BF89
S315000077B8F889030000400E40FD890300028A030091
S315000077C88004F2100C8A030010B500F00F04631E43
S315000077D8072B42D8DFE803F00F043D413B5C4167C5
S315000077E84A4C0139092938D8DFE801F050383F37C3
S315000077F8374637373735023903292ED8DFE801F0FF
S315000078082402191F0120032401221146FFF76CFFE9
S31500007818FFF7DEFC3E4B5C6701F0CAFA044601F04E
S31500007828A3FAFFF78BFC20460021BDE81040FFF7BE
S31500007838DFBC3848FFF782FC02200446E4E73548F7
S31500007848FFF77CFC0320DFE700200424DCE7324C4A
S31500007858C7E7324CC5E70423236010BD0122114651
S315000078680020FFF741FF0223F6E7012211461046E2
S31500007878FFF73AFF0123EFE701F076FAFFF75EFC20
S31500007888274B0122C3F800260323E5E70023E3E795
S31500007898072904D00929E0D11D4B012201E01C4B20
S315000078A800221A67D9E701390729D6D801A353F860
S315000078B821F000BF0F7900006378000063780000AC
S315000078C8017900006378000063780000F37800000F
S315000078D8DD78000003220E49D1F85C3123F030032D
S315000078E843EA0213C1F85C31B7E7012211460420C6
S315000078F8FFF7FAFE0122EEE7012211460220FFF702
S31500007908F3FE0222E7E70022E5E700BF80400E40CB
S3150000791800400E400148E80188400E4084400E4071
S315000079280010C84310B504461120FFF705FD0021D5
S3150000793801220220FFF7D8FE1B4A217C536A23F056
S315000079480103022908BF43F001035362174B21784C
S31500007958C3F8A014936AE17A23F007030B439362F2
S31500007968A188637A43EAC123D362136BA07A217A8A
S3150000797803F07F630343E08843EAC02343EAC11365
S3150000798803310F2928BF0F2143EA01731363A37B31
S31500007998617B1B0143EA0133E17B0B43217B43EA0D
S315000079A80143536310BD00BF00400E400000C843AA
S315000079B80028A7BF00F1604000F5614000F00F0005
S315000079C8034BACBF90F80003185C4009704700BF32
S315000079D814ED00E072B6704762B67047EFF3108098
S315000079E872B6704700B962B67047602383F3118890
S315000079F87047002383F311887047EFF311806023E3
S31500007A0883F31188704780F311887047EFF310836A
S31500007A18DB0706D4EFF311805F2894BF002001200E
S31500007A2870470120704700004209054B53F8223081
S31500007A3800F01F0023FA00F0C04300F00100704771
S31500007A4800E100E008B50146EFF31083DB0702D535
S31500007A580122104608BDFFF7E7FF02460028F7D1C6
S31500007A680846FFF7A5FF0146EFF3118313B1B0EB04
S31500007A78531FEDD2074B5B68C3F30803002BE8D00E
S31500007A88103B58B2FFF794FF88428CBF00220122B0
S31500007A98DFE700BF00ED00E019481A4BC26C1B88EF
S31500007AA8C2F303222833013202EB820103EB5303AC
S31500007AB8B3FBF1F3C16C013B072B28BF072321F069
S31500007AC8EE6141EA036343F48013C3640E4BB3F9D2
S31500007AD80030002B12DB03F12801C1F34E030B44DF
S31500007AE8510801EB4202B3FBF2F2036D072A28BFE5
S31500007AF8072223F0700343EA02120265704700BFAB
S31500007B0800300E402C7200202E720020084A13788E
S31500007B18013B012B0AD807490B6C03F00303012B21
S31500007B2802D1CB6FDB03FCD503231370704700BF6C
S31500007B380177002000300E40054A064BD16C1960CB
S31500007B48D36C23F47F4343F4EE43D364FFF7A4BF17
S31500007B5800300E40846A002038B5114B114DD3F819
S31500007B68804145F60E02C3F880212A6822F0AA024F
S31500007B78D205D20D1A660C4B1978052904F00104B2
S31500007B8802D01120FFF720FE2B68DB075EBF044BEF
S31500007B9802221A661CB1024B0022C3F8802138BDA6
S31500007BA800400E40F04700200B77002008B5054B33
S31500007BB8D3F89020044B11201A60FFF7BDFB034B46
S31500007BC8187008BD00400E40F04700200B770020D3
S31500007BD8704770477047000010B5044608B1FFF7B4
S31500007BE8E5FF104A136943F004031361FFF7A4FF86
S31500007BF8FFF78CFFFFF7ECFFFFF7EBFF30BFFFF750
S31500007C08E9FF04F091FC084B1A68084BDA64FFF7A1
S31500007C1843FF1CB1BDE81040FFF79EBFBDE810400A
S31500007C2801F0C6B800ED00E0846A002000300E407E
S31500007C3810B5044608B1FFF7B9FF164BD3F88021F3
S31500007C4845F60E01D20748BF0022C3F880114FF44B
S31500007C582071196648BFC3F880210F4A136943F09B
S31500007C6804031361FFF768FFFFF750FFFFF7B0FF44
S31500007C7830BF04F059FC094B1A68094BDA64FFF760
S31500007C880BFF1CB1BDE81040FFF766BFBDE810400A
S31500007C9801F08EB800400E4000ED00E0846A002036
S31500007CA800300E40FFF782BFFFF756BF7047704798
S31500007CB80378002B437870B50E4C14BF04260026B3
S31500007CC8002B8378A16914BF02250025002B0379B0
S31500007CD821F03F0143EA0103C17814BF08220022BC
S31500007CE8012908BF43F0010333432B431343A36120
S31500007CF870BD00BF00300E401A4B4AF6E85210B568
S31500007D08596B5A639A6FD407FCD41B6C13F00303A0
S31500007D181EBF154A0124C2F8B44A834204D110B9D9
S31500007D28114BC3F8B40A10BD23B9012802BF0F4B83
S31500007D3802221A700B4B9A6FD207FCD41A6C22F0E7
S31500007D48030202431A649A6F12F00102FBD100384B
S31500007D58054C18BF01200129C4F8B40A08BF5A63A4
S31500007D68E1E700BF00300E400000C643017700205F
S31500007D7870B51F4C4AF6E853A569A669A360A069C1
S31500007D8825F4403510F0010045F4003546F4403638
S31500007D9807D1236C03F00303013B012B01D8FFF73E
S31500007DA8ABFFA369DB0710D572B64AF6E853C4F8E9
S31500007DB89031D4F8983143F08003C4F89831D4F858
S31500007DC8883043F48073C4F88830FFF7B5FEFFF7B0
S31500007DD89DFEFFF76BFFFFF76AFF054B9D619E61EE
S31500007DE89D619E619D619E619D619E619D6170BD63
S31500007DF800300E40A0F5E163B3F5966F2DE9F04328
S31500007E0803D900210846BDE8F083B0F5E16F634B5E
S31500007E1840F0B880D3F818524FF41678C5F30729FE
S31500007E284FF4966CEDB25E4BDF6CB0F5E16618BFA9
S31500007E380126C7F3017746EA0724B4F5007F71D017
S31500007E484ED8B4F5807F69D03FD8002C62D0012C7B
S31500007E5855D000242346A9EB050EA0EB0C0C0CFB11
S31500007E680EFEBEFBF8FE75444D45CAD8A4EB030EBC
S31500007E780CFB0EFCBCFBF8FC6344A3424FF0000C61
S31500007E88BFD892B1DFF818E1DEF85C4024F4FE446E
S31500007E9824F00204B0F5E16F44EA052418BF4FF058
S31500007EA8020C44EA0C04CEF85C40002968D03B4A30
S31500007EB8D2F80041E4B2032C3CD8B0F5E16FD2F811
S31500007EC82C223FD0C2F307223DE040F201139C4228
S31500007ED8BFD1324BD3F824321C0EC3F30743BAE79B
S31500007EE8B4F5407F22D040F201339C420ED040F2D6
S31500007EF801239C42ADD1294BD3F8283202E0274B07
S31500007F08D3F82432C3F30724DBB2A4E7234BD3F810
S31500007F182832E1E7214BD3F81C32F3E71F4BD3F89D
S31500007F281C32D9E71D4BD3F82032EBE71B4BD3F8AD
S31500007F382032D1E7022FD2F830221CD0032F1DD0D1
S31500007F48012FBFD0D2B2120312F4702F7FF459AFAB
S31500007F58134CE06E20F470400243E266626E22F42F
S31500007F68FF72E72B22F0010228BFE723324342EAD9
S31500007F784303636646E7C2F30742E4E7120EE2E705
S31500007F8801213FE7D3F818524FF496684FEA15696E
S31500007F984FF4E16CC5F3074545E700BF0081E00FE4
S31500007FA800300E40184B1A6FD96C11F0010F02F011
S31500007FB8060213D092B1132821D9143813288CBF7E
S31500007FC8102308231048013BC26C190322F47F4290
S31500007FD841EA03231343C364FFF75EBDD96C01F07E
S31500007FE80101114304D1092809D90A380928E6E705
S31500007FF8DB6C13F00103E5D01AB92728DFE7042361
S31500008008E0E70023DEE700BF00300E40064A074BD4
S31500008018D3F88039136F23F007031843044B10670E
S315000080281888FFF7BFBF00BF00300E400000C643E8
S315000080382A7200204E4B37B502229A639B6B03F0D7
S315000080480F039342044603D00025284603B030BDEB
S31500008058484BD3F81C32013312D0474BD96B9A6B75
S315000080681160596C1A6C1160D96C9A6C1160596D53
S315000080781A6D1160D96D9A6D11605A6E1B6E1A6071
S31500008088E388A188B4F90C004A2B65D9B3F5FA7FC1
S3150000809864D340F6C312934294BF4FF000524FF098
S315000080A84052334DEB6C23F0405323F00103002874
S315000080B8A8BF43F001031343EB64304B1980EB6E02
S315000080C843F08073EB662E4BD3F8800900B1042089
S315000080D8FFF79CFF2B6E23F0C0432B66EB6C43F037
S315000080E8060301A8EB6400F03DFC9DF80500012895
S315000080F811D19DF80430022B0DD822490B7853B9BB
S315000081086B6C214A43F001036B642B6E1A401F4BBC
S3150000811813432B6608701E4B218919801D4BB4F931
S315000081280C20A0881A80FFF73DFFA37BCBB1012B5B
S315000081381BD0012260881146FFF75CFE0546002821
S3150000814882D0A37A0E4A003B18BF0123C2F894379F
S315000081586078FFF7D1FD78E70022A2E74FF080525A
S315000081689FE7034B0C4A9A65E3E7014B0B4AFAE78C
S3150000817800300E400081E00F0080E00F2A720020D8
S315000081880000C64301770020000F0EF0B4C0400B74
S315000081982C7200202E72002077402057372110B706
S315000081A8184BD3F89021002810B514BF02240024D8
S315000081B8012A06BF4AF6E851C3F8901100220228A0
S315000081C8D3F864010CBF20F0740040F07400C3F8C3
S315000081D864010C4BD3F89C0140F00800C3F89C01DD
S315000081E80948C16B21F4406141EA8421C163D3F88F
S315000081F89C1121F00801C3F89C1112B10022C3F8A2
S31500008208902110BD00300E4000400E40144A15481B
S31500008218D2F8B030C3F3074307EE103AD2F8043168
S31500008228DBB207EE903AB8EEE76ADFED0F7AC6EEF4
S31500008238276ADFED0E7A76EEA76A026A016AD2B27B
S31500008248C9B28A42F9D19B1A07EE903AB8EEC77AB4
S31500008258F8EEE77AA7EEA67A17EE100A704700BF7F
S315000082680081E00F00300E400000C842A8C68B3ED1
S3150000827870B505460E461446FFF7B0FB296881EA35
S31500008288040202EA06044C402C60BDE87040FFF781
S31500008298A9BB0000044AD2F8443423F00303184368
S315000082A8C2F84404704700BF00A00040072AF8B58A
S315000082B801F0030614461F464FF00F0120D895001B
S315000082C800FA05F2A9401648FFF7D2FF0321154820
S315000082D806FA05F2A940FFF7CBFF13499DF81830B7
S315000082E82144890001220F60C1F880300F4B02FA41
S315000082F804F4C3F824449DF81C30C1F80033F8BDD3
S31500008308A2F10805AD0000FA05F2A9400848FFF7F2
S31500008318AFFF0321074806FA05F2A940DBE700BFCD
S3150000832800A4004008A400408020851000A000405A
S3150000833804A400400CA40040F0B54AB11D4C3026F8
S31500008348012546438D4034440BB304F1C0642560CF
S315000083583024444304F18044072904F5204419D8FD
S3150000836865688E000F27B74025EA070502FA06F664
S315000083783543656052B9012202FA01F130225043B1
S315000083880C4A02449BB102F1C0621160F0BD04F1CF
S315000083988064DCE7A1F10805A668AD000F27AF40A9
S315000083A826EA070602FA05F53543A560E2E702F173
S315000083B88062EAE70CA00040084B4FF48072C3F8CD
S315000083C88020BFF34F8FBFF36F8F054B0021D9660F
S315000083D84FF48A401962FEF719BF00BF00E100E0BA
S315000083E800200E40034B03449B0081F001011960F5
S315000083F8704700BFA001F11010B5044601214FF4E3
S315000084088A40FEF703FFB4F8013022785BBA9BB2C4
S3150000841843EA02630B4A136000231362D362536371
S315000084284FF00043D3664FF0FF339366064A4FF486
S315000084388071C2F88011E3785B01DBB282F80833F9
S31500008448116010BD00200E4000E100E02DE9F0416A
S31500008458C3B2254E91F80AC00F7B01250C469D40F4
S315000084684FF03008CB7A497B08FB00604FEA035E81
S315000084782368C0F880304EEA0C4343EA475322F09B
S315000084880302C0F88810C0F88430C0F89820B56692
S31500008498FFF7B3FAF36E2B43F366237A13B1736BC4
S315000084A82B437363637A13B1F36A2B43F3620E4B60
S315000084B81A68237923B1DB431B0263F47F431A400E
S315000084C863790BB142EA0322A3790BB122EA0302CC
S315000084D8E3791A43044B1A60044A9562DD63BDE8E2
S315000084E8F041FFF790BA00BF00200E4000200E446E
S315000084F810B5C0B201248440FFF77FFA054AD36E4F
S3150000850823EA0403D366044B1C62BDE81040FFF758
S315000085187ABA00BF00200E4000200E44F8B5C3B258
S31500008528012504469D40FFF768FA0A4B30221E6E65
S315000085389F6A02FB0433D3F88C40FFF764FA3D4286
S3150000854806D1C4F30A1008B9354200D10130F8BD86
S315000085580020FCE700200E40036CDB0702D4436CC6
S315000085680B42FCD170470000064B0B4003F58073A5
S31500008578B0FBF3F203FB12000002B0FBF3F000EBD2
S3150000858802207047F8FF0100074B984210B50446D1
S3150000859807D10648FEF770FFE168BDE81040FFF70F
S315000085A8E3BF002010BD00BF00A0044090071A00DA
S315000085B810B5CA43520002F00A020A430221FFF725
S315000085C8CBFF426010BD436C002BFCD10122026434
S315000085D8EA22426040F2F9720360C36003614361B4
S315000085E883634263C363436583650364704708B561
S315000085F80A468368DB06FCD54021FFF7ADFF826299
S3150000860808BD00000F4A70B5002308258B4201D12A
S31500008618002070BD50F8234094610B4CD56001339F
S31500008628D669F60705D514B96FF00200F1E7013CE3
S31500008638F6E7002CF8D0D469A407E7D56FF0010057
S31500008648E7E700BF00000E4080969800044B41F60D
S3150000865871321A649A6822F001029A60704700BF64
S3150000866800000E40034B9A6822F001029A6000222D
S315000086781A64704700000E40094A0A4BD969C907AF
S3150000868805D512B96FF002007047013AF6E7002ADD
S31500008698F8D001221861DA60D86940F38000704783
S315000086A88096980000000E4009B1FFF7ABBF084658
S315000086B870470000224B2DE9F0470D4641F671310F
S315000086C81F6C1964996841F001010646BFB29960AA
S315000086D84FEA9208AA464FF00009C1450DD300207B
S315000086E832682B689A420ED03046FFF7C5FF50B95C
S315000086F801212846FFF786FF05E006EB8904204698
S31500008708FFF7BAFF48B10E4B9A6822F001029A6049
S315000087180FB100221A64BDE8F087C4F30A04C4F551
S315000087280064A408A8EB0901A14228BF21465046C7
S31500008738FFF7BAFF0028D3D189440AEB810ACCE7B0
S3150000874800000E40214B41F671311A6C1964996884
S3150000875841F00101996001211861D960D969490779
S3150000876892B209D5996821F0010199600AB10022EF
S315000087781A644FF0FF3070470221D9601449D8694E
S31500008788C00700D569B9D86910F002000BD09968FE
S3150000879821F0010199600AB100221A646FF0010004
S315000087A870470139EBE741B9986820F001009860F5
S315000087B802B119646FF002007047996821F001014F
S315000087C899600AB1186470471046704700000E4059
S315000087D880969800FFF76EBF02F0070242EA03523E
S315000087E801F4FE41024B10300A4343F8202070473B
S315000087F800600E40074B002047F6077200F1100193
S3150000880853F821100A4204D001300C28F6D14FF053
S31500008818FF30704700600E4010B590FAA0F2054C84
S315000088282368B2FA82F223EA0000914001432160EC
S3150000883810BD00BF00500E40014B01229A607047E0
S3150000884800500E40194BF0B500215D68184C194EC2
S31500008858194F0846D6F8E8C1626823681CF0040F69
S315000088680BD1B3F5006F06D01DD8B3F5007F02D043
S31500008878B3F5806F01D142F48072D7F888C01CF432
S31500008888807F18BF22F01C022B4202D02A4208BF62
S3150000889818430131092904F10804DBD1C30348BF91
S315000088A820F01C00F0BDB3F5803FE3E700500E4012
S315000088B8188A03000040E00F00300E408B784A7893
S315000088C89B0143EA82030A781343CA7843EA0213F0
S315000088D80A7943EAC2234A7943EA02338A79043099
S315000088E843EA42430001014A1350704700200440FE
S315000088F8014B1860704700BF000084424278017936
S315000089080378002A827870B514BF04260026002A48
S31500008918C27814BF10250025002A42794FEA023290
S3150000892842EA012242EA0302837914BF2024002482
S31500008938002BC37942EA034343EA0603027A43EA71
S31500008948050314BF4FF4004100212343002A14BF36
S315000089584FF4003200220B431343014A136070BDE3
S31500008968002004400D4AD2F8E430D2F8E0109B000B
S3150000897803F03C03C1F381110B438370D2F8E03056
S3150000898803F03F034370D2F8E830D2F8EC2003F046
S31500008998F003C2F3031213430370704700FF0FE09E
S315000089A82DE9F04F0C780CB902234360002343628B
S315000089B84B78CA7891F802B08D7A91F808A091F8A8
S315000089C8069091F80780002B4B7A4FEA024214BFB3
S315000089D84FF0400E4FF0000E42EA0B62002B14BF18
S315000089E88023002342EA0A02002DCD7A42EA892230
S315000089F814BF4FF0200C4FF0000C42EA0822002D5D
S31500008A080D7B42EA0E0214BF102700271343002DE0
S31500008A180D79497943EA0C0314BF082600263B431F
S31500008A28002D14BF4FF4005500253343002914BF09
S31500008A384FF0805100212B430B4303600CB10123F7
S31500008A484360BDE8F08FF0B5537814781B0643EA07
S31500008A58846394792343947843EA0443D47843EAB5
S31500008A680433147943EA8423547943EA0423D479F2
S31500008A78002C147A14BF4FF080470027002C547A34
S31500008A8814BF4FF000560026002C947AD27A43EA97
S31500008A98027343EA070314BF102500253343002C4D
S31500008AA801F1060114BF042400242B4309012343C2
S31500008AB84350F0BD70B5054616461C4619B914480C
S31500008AC8FEF7DAFC0146402C1BD003D8DCB1202C7B
S31500008AD81BD070BD602CFCD1042303FB06F256089C
S31500008AE806EB4113B3FBF2F30A4A203B02EAC3033F
S31500008AF82A6822F060022A602A6814432C606B6197
S31500008B08E7E70623E9E71023E7E70823E5E700BFD9
S31500008B1840410500F8FF7F002DE9B841154F15467D
S31500008B280F40FAB9202B20D0402B20D0002B14BFA1
S31500008B3840241024012307F580775F4300233A4633
S31500008B4819462FF0EFFC554304FB035100FB04F8CC
S31500008B58A2FB040400233A4621442FF0E3FC4044D8
S31500008B68BDE8B88180240025E4E71C46E2E78024B6
S31500008B780323E0E7F8FF7F0070B50446056806485A
S31500008B88FEF77AFC2368616905F0010203F06003C9
S31500008B98BDE87040FFF7C0BF40410500CB435B000E
S31500008BA803F00A03C360C1607047000040F6AA6379
S31500008BB8C36041F205020023036042600B4A8360EA
S31500008BC84361C36482640A4A03669042436702F5B6
S31500008BD880628367C36701D0904200D10365002392
S31500008BE89042836508BFC365704700BFF9FF01005F
S31500008BF80000014038B5FFF7D9FF8B7C05460C46C7
S31500008C081BB1036843F080430360E37C1BB1237DFB
S31500008C1843F08003AB65228A637B1343E2891343DF
S31500008C286B60237BD4E901122846FFF743FF637D77
S31500008C381BB12B6843F480332B60A37DE27D1B07B1
S31500008C48120502F4E00203F0E04313432B666B6F50
S31500008C5823F030036B676A6F237E13436B672378B1
S31500008C68EB6038BD03691B06FCD5C069C0B2704706
S31500008C7803695B06FCD5416370470368DB0611D4BC
S31500008C8847F231538268D20701D5013BFAD103680E
S31500008C9803F001038B421FBF00F1424000F580102C
S31500008CA84001016070470368D90707D583689A07AA
S31500008CB804D48368DB07FCD40123436070474B78F0
S31500008CC8CA78002B8B782DE9F04114BF4FF0020EBD
S31500008CD84FF0000E002B14BF04230023002A0A7944
S31500008CE891F807800C7814BF4FF0080C4FF0000C71
S31500008CF8002A4A7914BF20270027002A8A7914BF38
S31500008D0840260026002A0A7A4FEA022242EA083258
S31500008D1891F8098042EA0402CC7A897A42EA084242
S31500008D2842EA016242EA0E0243EA020343EA0C03FC
S31500008D3843EA070314BF102500253343002C14BF4C
S31500008D484FF0004400242B43234347F231528168F5
S31500008D58C90701D5013AFAD10360BDE8F0810000E0
S31500008D680048704700F049020D4AD2F8943003F0E3
S31500008D780703032B11D0042B03D0022B0BD1094B6D
S31500008D8800E0094B1868D2F80031C3F30423013315
S31500008D98B0FBF3F07047054BF4E74FF40040F2E7F9
S31500008DA800400E409C3C0020A43C0020A03C002033
S31500008DB808B5FFF7D9FF054BD3F80831C3F30823E5
S31500008DC80133B0FBF3F0024B186008BD00400E40BB
S31500008DD8983C0020014B1868704700BF9C3C002057
S31500008DE8054B1860054BD3F8943003F00703022BA4
S31500008DF801D1FFF7DDBF70479C3C002000400E40C4
S31500008E080D4B0E4A9A60D3F8882042F47002C3F8D4
S31500008E1888200B4B5A6D42F400525A651A6C22F0A0
S31500008E2803021A645A6F22F001025A671A6E22F078
S31500008E3880521A66704700BF00ED00E0004100004E
S31500008E4800300E404FF4004070474FF47A70704778
S31500008E58014B1868704700BFA43C002008B50C4BAE
S31500008E68198A40F6A73291420AD11B8B1B0A012B9D
S31500008E780CD101280AD840F2022028F099FC05E016
S31500008E880023D3F828389B69DB02F2D4012008BDF9
S31500008E98000000000E4B198A40F6A732914206D10F
S31500008EA81B8B1B0A012B10D04FF6FF70704700234F
S31500008EB8D3F828389B68C3F30340C3F30362000260
S31500008EC840EA0230DBB21843704700F003B800BF2F
S31500008ED800000000054B198A40F6A732914217BFD9
S31500008EE80023588BD3F828385889704700000000AB
S31500008EF870B50438C6B0FB2802F24380DFE810F0EC
S31500008F087C02411041104110C2024110411041102B
S31500008F184110411041104110BC04AA0441104110EF
S31500008F28810B0C0518057304820441105D05411078
S31500008F384110760545016F03F0031D018D044110AC
S31500008F4841104D09411041104102CD02D30D450E85
S31500008F58050EF20DC00D320E720E4110411040067C
S31500008F68E907A701D20666061807C8075C0785033E
S31500008F78FC00B4012A024110EA0402074C0641101B
S31500008F8841104110411041104110411054019801FF
S31500008F987F01411041104110B208AA074110411043
S31500008FA8411041104110411041104110A00882059E
S31500008FB8180832089505C0052A0610064110F90555
S31500008FC86F084110280A970BB10BB20AC80A6E0A35
S31500008FD8F80B280B41100B0C7A0DF80AD50B560C1A
S31500008FE8400C890A730A2F0C4110FE0168040C0311
S31500008FF8411041105108E30541104110A006E40E46
S31500009008810E030F1B0FF70E0F0FA50EBB0E8D0E4D
S31500009018CE0E990E411041104110411041104110D9
S31500009028411041109407411041103705240541109D
S31500009038010141104110270F4110610F2610AA0F98
S31500009048E00FF80F940F4110670C890C411041107E
S31500009058411041108608470AC50F620A6B09AB0919
S315000090680F0ADF09411041104110F9045209411055
S315000090785E09A2091309CE09F60C420359036403D3
S3150000908841104110A80C4110DF0C060D411041108B
S3150000909841104110530BF1094A05370341103101BC
S315000090A8D3092B091F0985099109E3080809370916
S315000090B84209630D7F0D9B0D8F0D530D4E0D41100B
S315000090C84110411041104110EC0F4110440F41105E
S315000090D809101A10740F4108411041104110D305A8
S315000090E86408B20D9D099F04330456041E04FB034D
S315000090F84110ED02D008E20219F08AFC012046B0C0
S3150000910870BD12AB01930AABB44900930CAA24AB09
S3150000911801202DF0F7F9BDF848309DF8282024994C
S31500009128BDF830001FF0ACFCAD498DF82C000BAA39
S3150000913800202DF0E7F90120E1E724AB0CAAA949A4
S3150000914801202DF0DFF924999DF8300027F0A9FCBD
S31500009158A3498DF8480012AA00202DF0D3F9012062
S31500009168CDE70CAB24AAA04901202DF0CBF99DF838
S315000091783010249816F048FC99498DF8480012AA30
S3150000918800202DF0BFF90120B9E724A82CF08EFFA6
S3150000919824A818F0BBFE92498DF8480012AA0020B0
S315000091A82DF0B0F90120AAE70CAA8D4901202DF06F
S315000091B8A9F924A99DF8300027F071FC12AA88495C
S315000091C88DF8480000202DF09DF924A908202CF0E0
S315000091D857FF9DF898002CF01BFFBDF89A002CF05D
S315000091E827FF9DF89C002CF013FF9DF89D002CF09E
S315000091F80FFF9DF89E002CF00BFF01207FE78623CA
S315000092080BAA77498DF8483001202DF07BF924A95F
S315000092189DF82C0027F04CFC12AB8DF8300000931B
S315000092280020724924AB0CAA2DF06CF9012066E7E0
S3150000923824A820F033F86A498DF8480012AA0020BD
S315000092482DF060F924A82DF024F9012057E724A869
S3150000925820F020F866498DF8480024AB002012AAB1
S315000092682DF050F901204AE724A819F0E5FB12AAC7
S315000092785B498DF8480000202DF044F99DF89000D0
S315000092882CF0C6FE9DF891002CF0C2FE9DF89200C7
S315000092982CF0BEFE9DF893002CF0BAFE9DF89400C3
S315000092A82CF0B6FE9DF895002CF0B2FE9DF89600BF
S315000092B82CF0AEFE9DF8970000F001002CF0A8FEF9
S315000092C89DF89700C0F340002CF0A2FE9DF8970089
S315000092D8C0F380002CF09CFEBDF898002CF0A8FE88
S315000092E8BDF89A002CF0A4FE27A908202CF0C8FE89
S315000092F89DF8A4002CF08CFE012000E70CAA384942
S3150000930801202DF0FFF824A99DF8300021F078FA05
S3150000931833498DF8480012AA00202DF0F3F8BDF85D
S3150000932890002CF085FE9DF892002CF071FE9DF8B9
S3150000933893002CF06DFE9DF894002CF069FE9DF8C4
S3150000934895002CF065FE08200DF196012CF098FE8C
S315000093580120D4E6082324AA26498DF82C300120BA
S315000093680BAB2DF0CFF812A924A821F0FBFD1D495F
S315000093788DF8300012AB00200CAA2DF0C3F801209E
S31500009388BDE624A912A827F055FB12AB0CAA18496A
S315000093988DF8300000202DF0B5F824A908202CF00F
S315000093A86FFEBDF898002CF043FE9DF89A002CF04D
S315000093B82FFE9DF89B002CF02BFE9DF89C002CF0B0
S315000093C827FEBDF89E002CF033FE9DF8A0002CF079
S315000093D81FFE29982CF040FE012090E6A08A030083
S315000093E8F38A0300A58A0300C28A0300B3AA03000E
S315000093F8E28A0300A7AA030024A819F03FFBCA497A
S315000094088DF8480012AA00202DF07CF89DF89000EF
S315000094182CF0FEFD9DF891002CF0FAFD9DF89200C7
S315000094282CF0F6FD9DF893002CF0F2FD9DF89400C3
S315000094382CF0EEFD9DF895002CF0EAFD9DF89600BF
S315000094482CF0E6FD9DF8970000F001002CF0E0FDF9
S315000094589DF89700C0F340002CF0DAFD9DF89700C0
S31500009468C0F380002CF0D4FDBDF898002CF0E0FD88
S31500009478BDF89A002CF0DCFD082027A92CF000FE88
S3150000948801203CE619F028FBA7498DF8900024AA8C
S3150000949800202DF037F8012031E612AC08232146CA
S315000094A824A88DF8303027F0E9FA0CAB8DF82C009B
S315000094B8009300209D49019424AB0BAA2DF022F8B5
S315000094C801201CE616F0C7FB97498DF8900024AAE0
S315000094D800202DF017F8012011E60CAA9249012068
S315000094E82DF010F824A99DF8300016F053FB8E498C
S315000094F88DF8480012AA00202DF004F89DF8900077
S315000095082CF086FD9DF891002CF082FD9DF89200C6
S315000095182CF07EFD0120F2E50CAA834901202CF0EF
S31500009528F1FF24A99DF8300020F03CF97E498DF81A
S31500009538480012AA00202CF0E5FFBDF890002CF098
S3150000954877FDBDF892002CF073FD9DF894002CF081
