S016000054595A53342D343230302D313033312E7333376B
S214004000C00A0020C9470000C5470000C547000099
S214004010DDA20000C5470000C5470000C5470000F8
S214004020C5470000C5470000C5470000C54700005B
S214004030C5470000DCFA0100C5470000C547000080
S214004040C547000055F20100C547000055A4010011
S21400405065F2010061F20100F5AA010059F20100C3
S2140040601D4D0000C94D00009D5000002D91000020
S214004070D9910000C5470000C5470000C5470000AD
S214004080C5470000614E0000C5470000C547000058
S214004090C5470000C5470000C5470000C5470000EB
S2140040A0C5470000C5470000C547000029AB010012
S2140040B05DF2010045AD000065AB0100C54700009C
S2140040C079930100C54700000000000000000000D2
S2140040D001F0FF01102A2BDB10F0070F08D010F8B4
S2140040E0013B013A8B422DD010F0070F42B3F6D1B8
S2140040F0F0B441EA012141EA014122F007047FF0D1
S21400410000070023F0E80256083C85EA010586EA27
S214004110010685FA47F5A3FA87F586FA47F6A5FA63
S21400412087F68EB9EED1F0BC01F0FF0102F007026F
S21400413032B110F8013B013A83EA010313B1F8D11A
S2140041400020704701387047002D06BF35460338FB
S214004150073815F0010F07D1013015F4807F02BF34
S214004160013015F4C03F0130F0BC0138704700BF85
S2140041702DE9F041B44E318811F0010182B002D031
S21400418002B0BDE8F081B14DDFF84483B04B2B6040
S214004190284641F60B23C5E90111C8F80010A8F817
S2140041A0043012F0E5F90446002800F02D814FF0A7
S2140041B001111AF01AFD002840F02D810221204638
S2140041C01AF08CFB002840F00381A249204612F02A
S2140041D003FF002840F00381012120461AF052FE1A
S2140041E0002840F00381012120461AF05BFE0746B6
S2140041F0002840F002810146F02297481BF02FFA73
S2140042003A4605F11001802320461AF03EFD80282C
S21400421040F06081914B924F924D4FF080321A6081
S214004220012012F009FAD7E900028F492C6040F20B
S21400423022239A4208BF884210D081A3D3E90023E4
S2140042402046CDE90023C7E900234FF0FF324FF0A8
S214004250FF331AF0CBFB002840F0438107F066F8E6
S21400426001F03CFD33889BB243F00103338001F03C
S2140042703BFD286801211AF0C2FA0446002840F0E7
S21400428032817A4B7A497B4A9880888090807A4837
S21400429008607A4911607A4A1A606FF06300794ABA
S2140042A05A6109F01DF998F804300B2B72D898F86B
S2140042B005300A2B6ED9744BC3F8008002F07AFDE5
S2140042C0286821461AF003FC00287AD108222868BC
S2140042D011461AF08DFB002840F0AB8002F05EFC21
S2140042E002F05EFC01F0FAFC3388DA0704460DD5CE
S2140042F0664B1B78012B05D8002B55D002F04EFCE0
S214004300C30551D5286801211AF0B9FC204601F0F2
S214004310EBFC02F047FC00280CBF082200222868AD
S21400432008211AF065FB00287CD1594B1B78002B1E
S2140043303FD100242646D7E90001564B84EA000206
S2140043401A4041F20D0C86EA010303EA0C0352EA16
S214004350030C0ED0424000944B403A6028684D4A09
S21400436001967B6041F20D031AF040FB002840F0F6
S214004370B8802868484C00211AF0ADFD4749484AE5
S2140043804848002323700B70137002B0BDE8F0415C
S21400439009F0DEBF3C48444B444A0024046040F227
S2140043A06341434818F088FE286800211AF067FC2D
S2140043B0ACE702F0F7FB0028BBD0364C41F20D0606
S2140043C0B9E73C4B3C4A3A4840F2FD3118F074FEDF
S2140043D0384B3A4A36484FF46B7118F06DFE354B41
S2140043E0364A334840F2AF3118F066FE314B334A56
S2140043F02F484FF46D7118F05FFE2E4B2F4A2C4855
S21400440040F2B73118F058FE2D4B2C4A284840F29F
S214004410A13118F051FE274B284A254840F2A93111
S21400442018F04AFE274B284A214840F6274118F044
S21400443043FE264B1D4A1E4840F2674118F03CFEDC
S2140044400B6020FF22020000F0630020805D002049
S214004450C5B80000B8050200345E0020A860002041
S21400446018160020645D00200B6020FF70160020E8
S2140044704816002020160020A45F0020245F00209D
S2140044802460002098160020185E0020206400207B
S214004490CB0B0020C00D03002364002029640020FD
S2140044A028640020B800020070FF010038050200F2
S2140044B00CFE010088FD01002C040200940402009A
S2140044C028FF010010000200180402008CFF010003
S2140044D0785D0020074B084A084840F2BE3118F0C5
S2140044E0EBFD06F015FF064B064A044840F2524123
S2140044F018F0E2FD38FF0100940402000CFE0100F3
S21400450088FD01003805020010B5054C237833B944
S214004510044B13B10448AFF300800123237010BD91
S214004520902C0020000000000C26020008B5034B6B
S2140045301BB103490348AFF3008008BD000000002C
S214004540942C00200C260200A3F5803A704700BF8A
S214004550174B002B08BF134B9D46FFF7F5FF0021B6
S2140045608B460F461348144A121A1BF078F80E4B67
S214004570002B00D098470D4B002B00D0984700200A
S214004580002104000D000D48002802D00C48AFF3AF
S214004590008018F0DBFD2000290000F03DF818F040
S2140045A0AFFD00BF00000800000000000000000093
S2140045B0C00A0020DC0B00204C6600200000000033
S2140045C00000000008B509F0EDFD054B186000B1CD
S2140045D008BD044B044A05483F2118F06DFD00BF96
S2140045E0AC2C0020ACFA0100C4FA0100B8FA0100B5
S2140045F0014B186811F058B9AC2C0020704700BF6A
S21400460010B5044C206809F0ABFE2068BDE81040E9
S21400461008F052BFAC2C002008B506F0B3FBFFF73D
S214004620EDFF06F0BDFBFFF7EBFFFAE738B501F04C
S21400463063F90E480E4D012100F00AFF01221446D0
S2140046401146104601F09CFA224621462046C5F83F
S214004650804001F095FA2046C5F88440224621465F
S21400466001F08EFAC5F88840002038BD30053E00BF
S21400467000400E4010B5264A264B01215164D3F85F
S214004680FC4082B001A8240E02F0D4F98E2C3BD850
S2140046902149224BD1F8B0004FF0501240F00404EC
S2140046A0C1F8B0401A601A631A66C3F89020C3F8BF
S2140046B0C020C3F8F020C1F8B000174AD36A23F030
S2140046C07F0343F02003D3629DF80530012B06D10B
S2140046D0134AD2F8643143F00403C2F86431114B34
S2140046E00022C3F8B42A05F05BFC05F00BFC05F0CD
S2140046F027FCFFF79BFF05F017FC00F09DF902B0C2
S214004700BDE8104000F0F8BB8F2CDDD1D5E700BF28
S21400471000000E400081E00F00400E4000A0004068
S21400472000300E400000C64300F034BB08B505F06C
S21400473071FE03F01FFF02F0C9FCBDE8084005F05B
S21400474095BC00BF08B502F035FB02F04BFB02F04B
S2140047505DFBBDE8084008F0A1BE00BF00F008B849
S214004760704700BF03F03EBA704700BF704700BFF7
S21400477008B5FFF727FFBDE80840FFF739BF00BFC1
S21400478038B5054602F008FA30B90446284612F055
S21400479051FC044B1C7038BD024B02241C70204692
S2140047A038BD00BF0A640020FF20704738B50446B5
S2140047B00D4602F0F9F929462046FFF7F5FF0020DE
S2140047C038BD00BFFEE700BF08B500F0E1F81E4C9C
S2140047D01E4BA34238BF9C4614D2DCF808306BB19F
S2140047E0DCE9001200230439043A51F8040F42F8B9
S2140047F0040FDCF8080001338342F6D30CF10C0CEE
S214004800A445EAD31248134B98421BD203F1FF3C4F
S214004810ACEB000C00F110032CF0070C08309C44A5
S214004820002450F8043C53B150F8082C0023043AF6
S21400483042F8044F50F8041C01338B42F8D308307A
S2140048406045EED1FFF784FE202602001426020003
S2140048502026020020260200134BD3F8943003F0E3
S2140048600703032B17D0042B1BD0022B16D00F4B9D
S21400487018680D4B0E49D3F80021D3F80831C2F35F
S2140048800422C3F3082301320133B0FBF2F0B0FB7D
S214004890F3F0086070474FF40040EAE7054B1868ED
S2140048A0E7E7054B1868E4E700400E40C80A00201A
S2140048B0C00A0020C40A0020CC0A00200048704726
S2140048C000F049020F4BD3F8943003F00703032B94
S2140048D00ED0042B12D0022B0DD00B4B1868094BB0
S2140048E0D3F80031C3F304230133B0FBF3F0704771
S2140048F04FF40040F3E7054B1868F0E7044B1868E0
S214004900EDE700BF00400E40C80A0020C40A0020A1
S214004910CC0A0020014B1868704700BFC40A00206C
S214004920164B174A1860D2F8943003F00703022B90
S21400493000D07047D2F8943003F00703032B1AD048
S214004940042B15D0022B01D00E4B18680C4B0E49C9
S214004950D3F80021D3F80831C2F30422C3F30823A6
S21400496001320133B0FBF2F0B0FBF3F008607047A1
S214004970064B1868EAE74FF40040E7E7C40A002051
S21400498000400E40C80A0020C00A0020CC0A0020C2
S2140049900D4A0E4B9360D2F888100D4B41F470010F
S2140049A0C2F888105A6D42F400525A651A6C22F00A
S2140049B003021A645A6F22F001025A671A6E22F036
S2140049C080521A66704700BF00ED00E0004000000D
S2140049D000300E404FF40040704700BF4FF47A702E
S2140049E0704700BF014B1868704700BFCC0A002014
S2140049F000239A6AB2F5006F0AD2D3F82838A3F5D6
S214004A000061B1F5605F03D2094912688A4203D09B
S214004A100023037083607047064A19689142F7D1F5
S214004A20012202709A689B69C0E90123704700BFA3
S214004A30AD1007B007B0CD5E0020D0F82838A3F53B
S214004A400062B2F5605F0FD2094A196891420BD135
S214004A5010B5084C227812F0FD0F04D1DB69984798
S214004A6008B90123237010BD4FF48170704700BF52
S214004A7007B0CD5E0B64002000230360704700BFC4
S214004A8003680B600160704703681BB118461B681B
S214004A90002BFBD100230B600160704703681BB13D
S214004AA01968016000221A601846704703681BB92F
S214004AB007E018461B6823B19942FAD10B680360D9
S214004AC0704770472DE9F04107460E463868C8B172
S214004AD03D464FF000080468214684B1B04798B9B7
S214004AE02B68226823601A602C6020682546002800
S214004AF0ECD004684FF001082146002CEED1B8F146
S214004B00000FE3D1BDE8F0812D6828680028E2D1C7
S214004B10B8F1000FDAD1F5E706490A6810B4064C7A
S214004B201044A0428CBF4FF0FF3208605DF8044B83
S214004B3010467047D00A0020007C00201F4B1B78D0
S214004B40FBB110B5044658B301F0C8F81C4B1A7BED
S214004B50D2B11A7FBAB193F82C202AB393F83C202E
S214004B6022B393F84C20EAB193F85C2002B393F892
S214004B706C20FAB193F87C20F2B101F0B5F8114838
S214004B8010BD1148704701221101226003EB02128A
S214004B9000245C500123137301F0A6F8204610BDD4
S214004BA00A4810BD0422EFE70222EDE70322EBE7F6
S214004BB00522E9E70622E7E70722E5E70C6400207E
S214004BC0B02C0020048000F0028000F0018000F08D
S214004BD038B50D4B1B78ABB10728044610D801F04A
S214004BE07DF80A4B03EB0414237B1BB901F07CF819
S214004BF0074838BD0025257301F076F8284638BDED
S214004C00044838BD044838BD0C640020B02C002091
S214004C10068000F0018000F0028000F010B5174A10
S214004C2082B00023126801928DF8043001F056F825
S214004C30134B1C78E4B901221A7001F055F8114B99
S214004C4004220DEB02001C731C7783F82C4083F8BB
S214004C503C4083F84C4083F85C4083F86C4083F813
S214004C607C408DF8072001F075FC204602B010BD90
S214004C7001F03AF8044802B010BD00BF2CFB01005A
S214004C800C640020B02C0020038000F038B50E4CD9
S214004C902478ACB1072815DC0C4C04EB001C4FEA5A
S214004CA0001E9CF80C504DB144F80E30049B0024B6
S214004CB0CCE9013401F078FC204638BD044838BD04
S214004CC0044838BD044838BD0C640020B02C0020D1
S214004CD0078000F0028000F0018000F008B50A4B63
S214004CE01A7862B107280CD8084A02EB00131B7B1F
S214004CF01BB101F0A9FC002008BD054808BD054809
S214004D0008BD054808BD00BF0C640020B02C00207C
S214004D10078000F0028000F0018000F02DE9F843E3
S214004D20DFF86890D9F86070D9F86C301F401CD452
S214004D30154CDFF85C800126002537420CD023682E
S214004D40C9F8686028463BB1D4E901210131A16069
S214004D509847637B012B09D00135082D4FEA46069C
S214004D6004F11004E9D1BDE8F883FEE70028F3D18A
S214004D7008EB45131A7B60F341021A731A7F60F33F
S214004D8041021A77E8E700BFB02C002000200E4052
S214004D90302D002008B5112000F0AAFF58B90920D0
S214004DA000F0A6FF00B908BD064B4FF40072C3F82A
S214004DB080211A6008BD034B4FF40032C3F88021EF
S214004DC01A60ECE700E100E0F8B5234BD3F828546E
S214004DD0D3F81C24154005F05535C3F82454002D8F
S214004DE032D01E4E012795FAA5F4B4FA84F306EBEA
S214004DF0031207FA03F144B3526825EA0105184680
S214004E002AB106EB0313197BD9B199689047DDB137
S214004E10002CE8D1D6F80432002BFBD096F80C22F2
S214004E2020205AB1D6F808129847D6F80432002B3C
S214004E30F0D096F80C222020002AF3D120209847A4
S214004E40E8E79047002DE3D1F8BDD6F804222023EA
S214004E50002ADFD01846D4E700A00040302E0020FD
S214004E60F8B5234BD3F82854D3F81C24154005F086
S214004E70AA35C3F82454002D32D01E4E012795FAC9
S214004E80A5F4B4FA84F306EB031207FA03F144B36D
S214004E90526825EA010518462AB106EB0313197B6A
S214004EA0D9B199689047DDB1002CE8D1D6F8043224
S214004EB0002BFBD096F80C2220205AB1D6F8081208
S214004EC09847D6F80432002BF0D096F80C22202013
S214004ED0002AF3D120209847E8E79047002DE3D139
S214004EE0F8BDD6F804222023002ADFD01846D4E7DF
S214004EF000A00040302E0020024A034B11681868BC
S214004F0011F01EB9D80A0020D40A0020704700BF4E
S214004F1030B583B0920004460D46019201F0E8FCDD
S214004F20431C0FD058B9019A294620461AF05FFB59
S214004F30064B00280CBF0020184603B030BD0448BE
S214004F4003B030BD034803B030BD00BF10E000F032
S214004F5024E000F021E000F010B582B0044601A87D
S214004F6001F068FD40F20112084B6280D3F8E4308D
S214004F709DF8061021801B0E0A33012203F01F0342
S214004F8002FA03F30020636002B010BD0081E00F58
S214004F9001F07CBB08B501F06DFB002008BD00BF2A
S214004FA040EA010C0B461CF0030110B506D0014682
S214004FB0920018461AF02BFB002010BD002AFBD0EA
S214004FC0541E00F1040E734518BF0B2C19D91CF0A3
S214004FD0070F16D15408A0F1080E9C469EED027BE2
S214004FE00131A1420EF1080EACEC027BF6D122F0A4
S214004FF00101D207E0D550F8212043F821200020F7
S21400500010BD043B02E0013C0EF1040E5EF8042CD9
S21400501043F8042F002CF6D1CEE700BF10B50446A7
S21400502001F004FC431C19D0B0B90E4BD3F8E430A1
S2140050301B0E0A33012003F01F03984080080AD095
S214005040231F03EB800001E0834209D053F8042FAE
S2140050500132F9D0044810BD044810BD044810BD04
S214005060002010BD0081E00F0EE000F024E000F00C
S21400507021E000F008B500F029FE014B186008BDDD
S21400508070360020014B186800F024BE70360020F1
S2140050900A460139014405F083B800BF044BDA68BC
S2140050A0D20604D5034A10200121586111707047BA
S2140050B0008001400D64002070B5CC780E46054691
S2140050C07CB303681A0625D50A23AB60327873785A
S2140050D043EA0263B2781204240202F4FE02134387
S2140050E004F4FE441C4333790BB144F010042C60E6
S2140050F0747900F0EBFD2B685C4004F0C0045C4063
S2140051002C6000F0E7FD2B681B061CD44FF40063F0
S2140051102B6470BD114800F043FA104800F040FAC6
S214005120D2E70E480E4C00F03BFA0E4B0344A4FBAD
S21400513003240D4AA40D934228BF04F1FF347F2CAC
S21400514028BF7F24C0E7094800F02AFA084B9D4292
S214005150DCD1084800F024FAD8E700BF404105003B
S21400516083DE1B43FF23F4000024F400B800320063
S214005170002000400082040070B4674A0223836067
S2140051809042436B8C7852D091F804C04A784D799F
S2140051904FEA0C2343EA026343EA0543CD7843EA29
S2140051A0C503CD790DB143F000530D7A0DB143F030
S2140051B004038D790DB143F002034D7A0DB143F02F
S2140051C00103BCF1F30F67D0220624D443EA44134C
S2140051D00361436923F4F21323F007030C78CA7AB9
S2140051E043EA44430AB143F48043420102F1844255
S2140051F0897A4361430103F18443BCF1F30F916064
S2140052000CBF01220022C3F84026C36FD0F88030BE
S214005210C36870BC704743F0E0030361426924F042
S214005220800322F4F21424F007042343D6E723F481
S214005230FF43062C23F07F031AD8062C15D8DFE888
S21400524004F06055044014143400344AD2F8145262
S214005250D2F81462D2F8142205F4FE4506F00F06C2
S214005260354302F0F0022A4313432B4A53638BE77D
S214005270812CFAD1294AD2F81452D2F81462D2F804
S214005280142205F4FE4506F00F0C45EA0C0502F064
S214005290F0022A431343E8E7002C95D1032A95D859
S2140052A023F0706242F0806390E71C4DD5F8182218
S2140052B0D5F8185202F00F0205F0F0052A43134302
S2140052C0D3E7164DD5F81422D5F81462D5F8145243
S2140052D0120C02F4FE422D0C05F0F005C6F3034650
S2140052E02A43324313430C4A53634DE70B4DD5F81C
S2140052F01022D5F81062D5F81052120C02F4FE42B5
S214005300E9E7064AD2F81052D2F81062D2F8102214
S21400531005F4FE45A2E700BF002000400080E00F35
S214005320B0F5FA4F10B50D4C38BF4FF4FA40844232
S21400533028BF044661B1601E0144A142B1FBF4F0EF
S21400534028BF00F1FF307F2828BF7F20C0B210BDE5
S214005350034800F025F90146EDE700BF0024F400FD
S214005360404105000A22826000234FF4F81230B450
S214005370274C0461274943618361C361026043F699
S214005380E412436401640363036243628262D0F8FA
S2140053908C30214A43F00103C0F88C30D0F89030AE
S2140053A043F00103C0F890309042436B02D030BC0B
S2140053B0436B7047194923F4FF42D1F81032D1F8F5
S2140053C0104203F4FE4304F00F041C43D1F81032DD
S2140053D003F0F00322F07F02234313434363436B3F
S2140053E0D1F81042D1F81052D1F8102204F4FE4140
S2140053F005F00F04214302F0F00223F0FF430A43B6
S21400540023F4FE0343EA024330BC4363704700BF05
S21400541000FFFF00000F0303002000400080E00FA5
S21400542008B550B1084B00F5742000F23F20A3FBEE
S2140054300030800C0138C0B208BD044800F0B0F857
S214005440012838BF0120EDE783DE1B4340410500FD
S214005450C0F30323013B10B4092B0CD8DFE803F09C
S2140054600E120B0B161A2A0B3005184CC0F304301C
S2140054702044800001605DF8044B7047144CC0F374
S2140054800430F5E7134CC0F30430F1E7124CC0F3D8
S2140054900430EDE7114CC0F304304FF0010C104A15
S2140054A0D2F84431DB07E3D4D2F8403113EA0C0FCC
S2140054B0FAD1DDE70B4CC0F304304FF0100CEEE7EA
S2140054C0094CC0F304304FF4803CE8E7800AF21041
S2140054D00000F2100006F2108005F2100007F2102D
S2140054E000400E404007F2108007F210C0F303138E
S2140054F0013B092B09D8DFE803F00A10162008083C
S214005500262C3805224B98423BD000207047214B72
S214005510D3F80001C0F3042070471E4BD3F81401E3
S214005520C0F3042070471B4BD3F800310120C3F3AF
S21400553000630344984001387047164BD3F80C01BB
S214005540C0F308207047134BD3F80801C0F30820B7
S2140055507047114B9842D8D10E4BD3F8203101201A
S21400556003F00F039840013870470C4B9842CCD19B
S214005570084BD3F82831012003F003039840013884
S2140055807047044BD3F8300100F00F00704700BF9F
S214005590A009140000400E408006160090071A006E
S2140055A000F47813B3F5A01F10B500F087802CD850
S2140055B0B3F5202F42D017D9B3F5602F79D0B3F5C5
S2140055C0801F02D19A4B186810BDB3F5402F40F0EB
S2140055D0B880FFF777F9974BD3F81431C3F3042359
S2140055E00133B0FBF3F010BDB3F5003F75D0B3F553
S2140055F0802F20D1FFF766F98E4BD3F80C31C3F31A
S21400560008230133B0FBF3F010BDB3F5001F6FD0D5
S21400561029D9B3F5481F00F08880B3F5781F11D15B
S2140056200446FFF74FF901462046FFF75FFF0130BB
S214005630B1FBF0F010BD002B40F08380BDE81040B9
S214005640FFF740B9B3F5101F7BD17A4BD3F888200B
S214005650D3F8883003F00703013B032B71D8DFE84B
S21400566003F089857B8DB3F5D01F4FD0B3F5F01FBF
S2140056700DD1704BD3F88020D3F8803003F00703A9
S214005680013B032B5DD8DFE803F075716779B3F54E
S214005690B01F56D1674BD3F88020D3F8803003F084
S2140056A00703013B032B00F2BE80DFE803F0918E78
S2140056B0B085604B1B6FDB07C0D483E75D4BD3F828
S2140056C08820D3F8883003F00703013B032B00F251
S2140056D0A880DFE803F099968C83FFF7F3F8554B24
S2140056E0D3F80831C3F308230133B0FBF3F010BD41
S2140056F0504BD3F88420D3F8843003F00703013BE3
S214005700032B1ED8DFE803F03632283A494BD3F88D
S2140057108420D3F8843003F00703013B032B00F208
S2140057208480DFE803F058463C33424CD4F85C31C2
S21400573003F03003202B25D0302B04D0102B3FF461
S21400574041AF002010BDFFF7BDF8D4F80031C3F319
S214005750042303FB000010BDFFF7B4F8354BD3F865
S2140057600031C3F300630133D84010BDBDE81040DC
S214005770FFF738B9BDE81040FFF72CB9BDE8104078
S214005780FFF72CB9BDE81040FFF7C4B8FFF726F9BD
S214005790284BD3F8283103F00303D84010BDFFF799
S2140057A091F8244BD3F80031C3F300630133D8409B
S2140057B0EEE7FFF717F9EBE7FFF710F91D4BD3F805
S2140057C0203103F00F03D84010BDFFF70BF9F5E7C3
S2140057D0FFF700F9F2E7FFF7FDF8D9E7FFF7FEF865
S2140057E0144BD3F8303103F00F03D84010BDFFF749
S2140057F069F8104BD3F80031C3F300630133D84087
S214005800EEE7FFF7EFF8EBE7FFF7E4F8E8E7FFF778
S21400581059F8084BD3F80031C3F300630133D8407E
S214005820CCE70020DCE70020C8E70020B0E700BF98
S214005830F80A002000400E4000F00F00013807284C
S21400584013D8DFE800F0142036122B411204264B42
S214005850D3F85C3103F03003202B43D0302B3FD0FD
S214005860102B14BF012007207047002070471E4BE6
S214005870D3F8940000F00700831E022B2ED8C0F148
S2140058800600C0B27047184BD3F8803003F0070309
S214005890013B032B20D8154AD05C7047124BD3F837
S2140058A0883003F00703013B032B15D8104AD05C61
S2140058B070470D4BD3F8843003F00703013B032BEE
S2140058C00AD80C4AD05C7047074B1B6F13F0010FC9
S2140058D00CBF07200920704701207047052070473D
S2140058E0082070470420704700400E4054FB01001B
S2140058F054FB010058FB0100704A38B50121704B7B
S2140059001164D3F8002142F08072C3F800215A6A6D
S21400591012F0300F68D15A6AD50700F1C780684B7D
S214005920684A04201866D2F80832002BFBD0654A75
S214005930D2F80C32002BFBD0002963D1624D41F621
S21400594071332C6C2B64FEF7B9FF604B6A68984283
S214005950A4B250D800205C4A536841F6713123F057
S21400596040738C4240EA030018BF0023506018BF03
S2140059701364534B02225A67FEF7A4FF544B984217
S21400598036D9544B0121984294BF4FF080704FF0A7
S21400599000704A4B4A4A1964D2F8003123F08073EB
S2140059A01843C2F80001FEF757FF474A4749136CF1
S2140059B041F671341464884252689AB216D9464B3E
S2140059C0984294BF4FF0807000203F494B6841F6E4
S2140059D0713423F04073A24240EA030018BF00234C
S2140059E0486018BF0B6438BD002198E70020ECE73C
S2140059F000200146CDE7384B984294BF4FF08070A8
S214005A000020A8E72E4A536ADC0746D54FF480618B
S214005A102023C2F8A8105366536AC3F30113002B61
S214005A200BBF4FF4800000204FF440014FF40001FC
S214005A30D2F8903031EA0303FAD108B1D2F8A03098
S214005A401F48D0F89C4008230366C4F30A04D0F825
S214005A5090305907FBD41A4BD3F890201207FBD48A
S214005A60D3F89020586A1D4A20F0300040F010000D
S214005A705862186BE109033102400F2942EA04021A
S214005A8028BF0F2142EA017104200E4A19631866E6
S214005A90D2F80C32002BFBD050E7536AD2F8903085
S214005AA003F44003B3F5400FF8D1C7E75A6A22F073
S214005AB0300242F010025A6231E700BF0000C843CD
S214005AC000400E400010C84300000E4040787D01A4
S214005AD00048E8010090D003005A620200F8FF0F69
S214005AE0254A082310B5D2F894101366D2F89030E1
S214005AF05907FBD4204BD3F890201207FBD45A6AE0
S214005B0090F810C01D49047822F00102BCF1020F83
S214005B1008BF42F001025A62C1F8A0449A6AC17AEC
S214005B2022F007020A439A628188427A42EAC12238
S214005B30DA621A6B817A90F808C002F07F620A4334
S214005B40C18842EAC1220CF103010F2942EACC12B5
S214005B5028BF0F2142EA01721A63827B90F80DE09B
S214005B6090F80FC0017B120142EA0E3242EA0C02A4
S214005B7042EA01425A6310BD00400E400000C8438E
S214005B8004281BD8F8B54A4C4A4B54F8205053F812
S214005B902040A1B9484B53F82030484801210366FD
S214005BA0A140D0F890300B42FBD132B101224349DC
S214005BB0AA40D1F890301342FBD1F8BD7047404B55
S214005BC0022853F8206058D000213E4B23444FEA69
S214005BD0830C3A4B1E66DCF80030002BFBD0002A04
S214005BE0EBD0384C2C44A4002368002BFCD00228B1
S214005BF0E3D10029E1D0314A536ADB074CD54FF494
S214005C0080612023C2F8A8105366536AC3F30113B9
S214005C10002B0BBF4FF4800000204FF440014FF4E0
S214005C200001D2F8903031EA0303FAD100283BD1C4
S214005C30224D012200210220D5F89C60FFF7A0FF2C
S214005C40D5F890306A6A22F03002C6F30A0642F0AF
S214005C5010026A62F309DA1C296B1B4B0F2A03EA4F
S214005C60010328BF0F22334343EA027304222B6347
S214005C702A662368002BFCD0F8BD104B5F6A17F02D
S214005C80300FA1D15F6AFF079FD55F6A27F0300704
S214005C9047F010075F6298E7536AD2F8903003F433
S214005CA04003B3F5400FF8D1D2F8A030C0E700BFEC
S214005CB05CFB010070FB010098FB010000400E40F9
S214005CC084FB01008004F21000F8FF0FEFF3108051
S214005CD072B6704700B962B6704700BFEFF3118026
S214005CE0602383F31188704780F31188704700BFE4
S214005CF04209054B53F8223000F01F0023FA00F04B
S214005D00C04300F00100704700E100E000B58A07DC
S214005D1085B00B46844610D10091009BD3E9000164
S214005D20D3E90223CCF80000CCF80010CCF8002011
S214005D30CCF8003005B05DF804FB08689A6849683E
S214005D40DB68EE46AEE80F00CCF80000CCF800109A
S214005D50CCF80020CCF8003005B05DF804FB00BF9E
S214005D6010B48B0785B00C460DD10091009B0468DB
S214005D70016802680068D860C3E900419A6005B00F
S214005D805DF8044B70470368016802680093CDE92C
S214005D90011203680393EC46BCE80F0020606160C4
S214005DA0A260E36005B05DF8044B704730B50C4662
S214005DB011F0030189B0844615464AD0082A2068A7
S214005DC061682DD0A268E368EE46AEE80F00206951
S214005DD06169A269E369102DAEE80F0024D10CF1C9
S214005DE04243DDE9001403F580135B01029A0120AB
S214005DF01860CCF81011CCF81041CCF81021DDE971
S214005E00052303980499CCF81001CCF81011CCF8AF
S214005E101021CCF81031079BCCF8103109B030BDFA
S214005E20A268E3686C460FC40CF1424303F5801386
S214005E305B01DDE9000100241C60029A039BCCF89C
S214005E402400CCF82410CCF82420CCF8243009B058
S214005E5030BD00F14242009402F58012102D009BE6
S214005E604FEA42120ED01160D3E90001D3E90223B3
S214005E70CCF82400CCF82410CCF82420CCF824301D
S214005E8009B030BD01211160D3E90040D3E9021208
S214005E90CCF81041CCF81001CCF81011CCF8102139
S214005EA0D3E90401D3E90623CCF81001CCF810118D
S214005EB0CCF81021CCF8103109B030BD19481A4B77
S214005EC0C26C1B88C16CC2F303222833013203EB79
S214005ED0530302EB820CB3FBFCF3013B072B28BFFA
S214005EE0072321F0EE6141EA0363104943F480136F
S214005EF0C364B1F90030002B13DB03F12801C1F3B2
S214005F004E030B444FEA520C016D0CEB4202B3FBFE
S214005F10F2F2072A21F0700328BF072243EA021292
S214005F200265704700300E40E6630020E8630020FC
S214005F30144902788B6990F801C000B5002A23F056
S214005F403F02837814BF4FF0040E4FF0000EBCF1F2
S214005F50000F14BF4FF0020C4FF0000C002B03791B
S214005F60C07843EA020314BF08220022012808BFB3
S214005F7043F0010343EA0E0343EA0C0313438B6129
S214005F805DF804FB00300E401C4A4AF6E85310B495
S214005F90546B5363936FD907FCD4136C13F003034D
S214005FA01FD0174A01219842C2F8B41A16D0134AD5
S214005FB0936FDB07FCD4136C104923F003030343F1
S214005FC013648B6F13F00103FBD100380C4A18BF23
S214005FD00120012CC2F8B40A00D14B635DF8044BD3
S214005FE0704728B10128E2D1064B02221A70DEE77C
S214005FF0034B5DF8044BC3F8B40A704700300E40FC
S2140060000000C6430E6400202DE9F047A0F5E16AC3
S214006010BAF5966F4FD8B0F5E16F4FD0654BD3F811
S21400602018324FF496691E0EC3F3074E624BDD6CB2
S214006030B0F5E16718BF0127C5F3017547EA0523E8
S214006040B3F5007F73D056D8B3F5807F6BD040D8B9
S214006050002B70D0012B61D1564BD3F824425FFA47
S21400606084F8C4F30724A4EB080C0AFB0CFCBCFB66
S214006070F9FCC444A6EB0E030AFB03F3B3FBF9F3E7
S2140060807344B34217D8644515D3E04513D872B1AC
S214006090494AD26D22F4FE4222F0020242EA03236B
S2140060A0B0F5E16F444A18BF43F00203D3650029F8
S2140060B049D1012000E00020BDE8F0873D4BD3F831
S2140060C018324FF4167AC3F307265FFA83FED146DA
S2140060D0ACE740F20114A34220D1364BD3F8244259
S2140060E0C4F30748C8EB146C0AFB0CFC240EBCFB7C
S2140060F0F9FCC444BEE7B3F5407F20D040F201343B
S214006100A34203D12B4BD3F82842E9E740F20124FF
S214006110A34203D1274BD3F82842A0E74FF0000C48
S2140061206446E046A6E7234BD3F81C42D8E7214B4B
S214006130D3F8204293E71F4BD3F81C428FE71D4B42
S214006140D3F82042CCE71B4AD2F80031DBB2032B4F
S21400615020D8B0F5E16FD2F82C3223D0C3F3072352
S2140061601B0313F4702FA6D1134CE26E22F4704278
S2140061701343E366636E23F4FF73BCF1E70F23F06B
S214006180010328BF4FF0E70C3B4343EA4C030846A5
S214006190636691E7022DD2F8303207D0032D03D084
S2140061A0012DDBD0DBB2DBE71B0ED9E7C3F30743D9
S2140061B0D6E700BF0081E00F00300E40224B196F7B
S2140061C0DA6CD20707D511F0060F1BD0132833D888
S2140061D04FF44C5128E0DA6CD20706D411F0060FC3
S2140061E013D0DB6C6FF0FF011EE0DB6CDB0719D50C
S2140061F011F0060F16D127288CBF4FF47F414FF4BD
S214006200EE4111E0DA6CD20709D40928E0D90A3841
S21400621009288CBF4FF47F414FF4EE4104E0DB6C5D
S214006220DB07E8D46FF0FF01074AD36C23F47F4303
S2140062300B43D364FFF742BE143813288CBF4FF4C9
S2140062407F414FF4EE41EFE700300E405B4B0222F9
S21400625030B59A639B6B03F00F03934283B003D071
S2140062600025284603B030BD554BD3F81C32013309
S214006270044612D0534BD96B9A6B1160596C1A6C4A
S2140062801160D96C9A6C1160596D1A6D1160D96DD8
S2140062909A6D11605A6E1B6E1A60E388A088B4F976
S2140062A00CC04A2B64D9B3F5FA7FC0F0848040F660
S2140062B0C3118B4294BF4FF000514FF040513F4AFC
S2140062C0414DD36C23F0405323F00103BCF1000F83
S2140062D0A8BF43F001030B43D364D36E3B49288029
S2140062E043F08073D366D1F88039002B42D0D1F8C2
S2140062F08039136F23F0070343F004031367FFF797
S2140063005DFF2E4D2B6E23F0C0432B66EB6C43F0E7
S2140063100603EB6401A800F08DFB9DF80530012B09
S21400632031D02B492B4B2089B4F90C200880A0884B
S2140063301A80FFF743FFA37B002B38D0012B02D136
S2140063401E4B254A9A65012260881146FFF75CFEBF
S2140063500546002884D0A37A1C4A003B18BF0123B8
S214006360C2F894376078FFF70FFE284603B030BDBA
S2140063700021A4E7D1F88039136F23F007031367D1
S214006380FFF71CFFBDE79DF80420022AC9D8134A70
S21400639011780029C5D1696C114841F00101696482
S2140063A0296E08400F49014329661370B9E7034B6D
S2140063B00D4A9A65C7E74FF0805180E700300E40DF
S2140063C00081E00F0080E00FE46300200000C64379
S2140063D0E6630020E8630020372110B70E64002033
S2140063E0000F0EF0B4C0400B77402057294B2A4AC6
S2140063F0D2F880291A6F22F00702104310B41867EB
S214006400264C186FD96C2288CC0707D510F0060FDB
S2140064101BD0132A35D84FF44C5128E0D96CCC0742
S21400642006D410F0060F13D0DB6C6FF0FF011EE0F1
S214006430DB6CDC0719D510F0060F16D1272A8CBFA7
S2140064404FF47F414FF4EE4111E0D96CC80709D4F0
S214006450092AE0D90A3A092A8CBF4FF47F414FF443
S214006460EE4104E0DB6CDB07E8D46FF0FF01094A7D
S2140064705DF8044BD36C23F47F430B43D364FFF7E0
S2140064801DBD143A132A8CBF4FF47F414FF4EE41E2
S214006490EDE700BF00300E400000C643E463002076
S2140064A000EB40002DE9F8430D461F461646040152
S2140064B02AB101228A40002B41D0224B1A51072DC7
S2140064C01DD8DFF88880FFF701FC58F804104FEA63
S2140064D0850C06FA0CF20F234A4003FA0CF313401D
S2140064E04B4048F80430FFF7F5FB36B9FFB1154BC3
S2140064F00121234401FA05F51D60BDE8F883DFF8A5
S2140065005080A5F108034FEA8309FFF7DFFB58F830
S214006510041006FA09F383EA01020F2303FA09F3CB
S21400652013404B4048F80430FFF7D4FBDDE7064B3A
S2140065300121234401FA05F51D60BDE8F883024BEE
S2140065401A51BCE70CA000460CA0004404A0004072
S21400655008A0004038B5044601214FF48A40FEF7F3
S21400656077FFB4F8013021780D4A5BBA9BB243EA54
S2140065700163136000200B4910624FF000454FF096
S214006580FF33D0625063D56693664FF48072C1F8CD
S2140065908021E3785B01DBB281F808330A6038BDFE
S2140065A000200E4000E100E0F8B5C3B201259D4092
S2140065B0CB7A0F68224E0C46897A1B0543EA0143C4
S2140065C000EB4000217B06EB001043EA415322F02B
S2140065D00302617BB566C0F88070C0F88810C0F80A
S2140065E08430C0F89820FFF779FBF36E2B43F366F0
S2140065F0237A13B1736B2B437363637A1BB1104A10
S214006600D36A2B43D3620E4A2379126823B1DB4345
S2140066101B0263F47F431A4063790BB142EA0322FC
S214006620A3790BB122EA0302E37905491A43054B25
S2140066300A609D62CD63BDE8F840FFF755BB00BF1A
S21400664000200E4000200E4410B5C0B20124844045
S214006650FFF744FB054A0649D36E23EA0403D366D4
S2140066600C62BDE81040FFF73FBB00BF00200E40A5
S21400667000200E44044B41F671321A649A6822F0E8
S21400668001029A60704700BF00000E40034B9A68F4
S214006690002122F001029A601964704700000E4043
S2140066A02DE9F04FDFF880C1DCF8403083B09BB2B4
S2140066B0019341F67133CCF84030DCF80830970887
S2140066C043F0010381468B46CCF8083031D00E46A5
S2140066D000204FF0010A0825DCF81C30DB0709EB28
S2140066E080010DD54F4B02E0002B00F09180DCF8C6
S2140066F01C20D40703F1FF33F6D4002B00F088806B
S214006700CCF81010CCF80CA0DCF81C305A0700F1BE
S2140067108580C1F30A03C3F500639B083C1A9C42BC
S21400672028BF1C46002C4AD1A04620448742464437
S214006730D2D8D9F80020DBF800309A424FF000009B
S21400674031D03949CB69DF070AD5364B01E0002B3B
S2140067505ED0CA69D60703F1FF33F8D4002B57D0B2
S21400676031490123C1F81090CB60CB695D0755D441
S214006770DBF800208A610823CB60CB69DC070AD5EA
S214006780284B01E0002B43D0CA69D20703F1FF3340
S214006790F8D4002B3CD0244BDB6913F0020F14BF57
S2140067A06FF001000020204B9A6822F001029A60E8
S2140067B0019A0AB100221A6403B0BDE8F08F4FEACE
S2140067C0840806EB840E314651F8043BCCF81830AA
S2140067D0CCF80C50DCF81C30DB0709D5114B00E078
S2140067E06BB1DCF81C20D20703F1FF33F8D433B1C9
S2140067F0DCF81C309B070ED47145E5D195E76FF0A9
S2140068000200D9F80020DBF800309A4299D1CAE796
S2140068106FF00200C7E76FF00100F2E74FF0FF30BD
S214006820C1E700BF8096980000000E402E4941F652
S21400683071330A6C10B40B648B68012443F00103B7
S2140068408B600861CC60CB6990B25A0730D40223C3
S214006850CB60CB69DB0724D5244B00E09BB1CA692B
S214006860D40703F1FF33F9D4CA6992070ED44BB3A9
S2140068701D4A936823F00103936008B1002010645A
S2140068805DF8044B7047CB699B071BD5164B9A687F
S21400689022F001029A6040B100221A646FF00100F3
S2140068A0EEE7CB699907E3D5F0E76FF00100E7E77D
S2140068B08B6823F001038B6078B100230B644FF0E4
S2140068C0FF30DDE7084B9A6822F001029A6038B183
S2140068D000221A646FF00200D2E74FF0FF30CFE7D5
S2140068E06FF00200CCE700BF00000E4080969800D4
S2140068F0FFF7D6BE014B01229A60704700500E404B
S2140069001A4A1B4BF0B403F1480C5568194F1A4E3F
S214006910002015E0B2F5007F02D0B2F5806F01D1FD
S21400692041F48071D6F88840E40548BF21F01C0188
S2140069302A4202D0294208BF1043083363450FD0CD
S214006940D7F8E821196812F0040F53F8042CE9D19F
S214006950B2F5006FE4D0DDD9B2F5803FE2D1DFE7D3
S214006960C30348BF20F01C00F0BC704700500E4028
S214006970B0FB01000040E00F00300E408B7891F82D
S21400698001C00A789B0143EA8C0391F803C01343C5
S2140069900A7943EA0C1391F805C0897943EAC223C1
S2140069A00430044A43EA0C33000143EA41431350DF
S2140069B0704700BF00200440014B1860704700BFBE
S2140069C00000844200B54278837890F804C00178CD
S2140069D090F803E0002A14BF04220022002B43791B
S2140069E04FEA033343EA0C2390F807C043EA010357
S2140069F043EA0C43817943EA020314BF4FF0100CBC
S214006A004FF0000CBEF1000F027A43EA0C0314BFED
S214006A1020200020002914BF4FF40041002103432A
S214006A200B430AB143F40033014A13605DF804FBDC
S214006A30002004400D4AD2F8E430D2F8E0109B0063
S214006A4003F03C03C1F381110B438370D2F8E030AE
S214006A5003F03F034370D2F8E830D2F8EC2003F09E
S214006A60F003C2F3031213430370704700FF0FE0F6
S214006A70CB435B0003F00A03C360C160704700BFEE
S214006A80F8B5414A044640F6AA60E060002341F2A9
S214006A9005000D4694423D4923606060A360636133
S214006AA0E364A16423666367A367E36769D002F5BE
S214006AB08062944258D0A365AB7C1BB1236843F038
S214006AC080432360EB7C1BB12B7D43F08003A365E2
S214006AD06A7B298AEB896868AF680A431A43626052
S214006AE02E7B002846D0402E49D039D8002E3FD0E5
S214006AF0202E08BF082312D103FB07F1236823F0DA
S214006B006003236023681E4326604A08204E02EB7B
S214006B104013B3FBF1F3203B06EAC30363616B7DCE
S214006B201BB1236843F480332360AB7D1BB123681D
S214006B3043F400432360EB7D2A7E1B07120502F414
S214006B40E00203F0E04313432366636F23F0300351
S214006B506367626F6B7E134363672B78E360F8BDF1
S214006B60602EDCD10423C7E72365A365E365A3E7AE
S214006B701023C1E70748FEF713FD402EB5D10623C4
S214006B80BAE7236597E700BF00000140F9FF010060
S214006B90F8FF7F0040410500002070470020704746
S214006BA00F207047002070470F20704747F6FF738E
S214006BB09A427BD0022950D870B53E4C04EBC106F1
S214006BC014F83150B078012838BF0120012D4FEA63
S214006BD0C10C55D0716800296AD0B1F900E096451D
S214006BE040DA8B88FF2B45D000222825C823644432
S214006BF0A3EB0E0393FBF5F365781A4412B29542A5
S214006C002DDC6A1E12B22C4E4FEAC20C02E0A4889B
S214006C109C4216D38C440132DCF80840BCF806309F
S214006C201EFB034323EAE37312B203F5FA73A6FBD3
S214006C3003C3954201EBC2044FEA93134FEAC20C1A
S214006C40E5DC01EBC20232F8042C934228BF13465F
S214006C50834238BF0346D8B270BD00207047002A72
S214006C60D1DACEE7B1F902E08B889645B8BF9646F2
S214006C70FF2BB9D1B1F90630B1F908500122B6E7B9
S214006C8096F803C00024ACEB000107E0756835F900
S214006C9013509542CCBF03F1FF311C460B1B8C42B0
S214006CA0A1EB5303F2D30144C8B270BDFF20704776
S214006CB0084670BDF8360020D34D621002296CD805
S214006CC0394B13F831000128F0B546D0002A66D0BB
S214006CD003EBC1035C68002C63D09978914239D2EB
S214006CE0D978914252D993F801E0A388A3F1FF0323
S214006CF00EF1FF3EB3FA83F35FFA8EFE5B0973452F
S214006D0004F104070DD296B204F10C0502E0E64544
S214006D100B4640D935F83300591CB0425FFA81FC67
S214006D20F5D207EBC3034FF47A70B3F902105D682F
S214006D3000FB02F3B4F900005B1B01EBD17203EB1E
S214006D40620393FBF1F3984203DBB4F90200984226
S214006D501FDDF0BDB4F90200F0BD03EBC100C900B1
S214006D608578C478012D284638BF0120944294BF08
S214006D70C0EB0400C0EB0200C2B2641B0B44A2428C
S214006D805B68D4BF52000022985EF0BDB4F90000E4
S214006D90F0BD18B2F0BD6346C3E704487047044828
S214006DA0F0BD0248F0BD00BFF83600200080FFFFAF
S214006DB00CFEFFFF10B5094C204617F084FEA446D3
S214006DC0BCE80F00064C0FC49CE80F0084E80F00D8
S214006DD0BDE81040012017F099BE00BFF4FB01008B
S214006DE0F836002000B587B00023074A019301A9B2
S214006DF04FF0FF30CDE903330593029217F059FFA9
S214006E0007B05DF804FB00BF006A18006FF00701CA
S214006E104FF0FF3017F052BF2422002118F01FBC9D
S214006E2018B12422002118F01ABC704770B5144619
S214006E300E4624220021054618F011FCC02C07D06F
S214006E40B4F5807F07D0802C05D06FF01F0070BD92
S214006E506FF0710070BD2846E20840F8044B3146DA
S214006E6018F0D5FB002070BD2DE9F84304460068F5
S214006E7080280F4690461E4602D0B0F5807F34D15B
S214006E8000F026F90023436003600546FEF71EFF68
S214006E902146814651F8043B802B0CBF0822102265
S214006EA02846FEF783FF414605F180084046FEF778
S214006EB02DFF4846FEF70EFF012F0CBF05230623C5
S214006EC0AB602C6914F00204FBD1FEF7FFFE3146DE
S214006ED006464046FEF744FF3046FEF7FBFE2846D1
S214006EE000F000F92046BDE8F8836FF07100FAE77D
S214006EF0002303604360704770B586B000234FF4EC
S214006F00F812FF25049306460192ADF80830039365
S214006F1005938DF81150002935D11D4A1D4B0C469E
S214006F20C0E9002301211C48FEF792FA012170688F
S214006F30FEF78EFA2046FEF773FA21468DF8060015
S214006F401648FEF7EDF901A98DF8070030688DF8B0
S214006F500540FEF7B1F8012330688DF8123003A91A
S214006F600F4BCDF80D308DF81150FEF705F933684C
S214006F705A6922F470625A615A6942F48072204655
S214006F805A6106B070BD03606FF03B00F9E700BFC2
S214006F90002000400082040040410500404B4C00A9
S214006FA0008400FF10B50446006828B1FEF7DAF941
S214006FB060680021FEF74CFA00232360636010BD72
S214006FC01A60002A4FD02DE9F041154682B00646D9
S214006FD00F4601240021326808469460D368DB031C
S214006FE0FCD5936C03F007038B4003311E2940EA5F
S214006FF00300F2D19460D368DB03FCD5C3B203EB85
S214007000832383EA9311C0F307230B4403EB832304
S21400701083EA9311C0F30743926C0B4403EB83237C
S21400702040EA827083EA931303EB106303EB832337
S21400703083EA9313042D03EBC303A84683EAD32302
S21400704028BF4FF0040803EBC3333846424601A975
S214007050019318F0DCFAB5EB08054744BAD10020D6
S21400706002B0BDE8F0810020704700BF2DE9F04176
S21400707017464FF6FF72BA4228BF3A46002482B03F
S2140070801C6092B24FF0FF301E4688460FF0BCFAE6
S214007090306018B1204602B0BDE8F081054668466B
S2140070A0FFF726FF29466846FFF726FF041E06DB85
S2140070B033463A4641466846FFF782FF044668462E
S2140070C0FFF770FF204602B0BDE8F081704700BFB2
S2140070D0024B03480122C3F8042670470010C84339
S2140070E000000F40054B984206D103F16E7303F57E
S2140070F088330022C3F80426704700BF00000F4004
S214007100007A0B7A98422CBF00200120704700BFFF
S21400711070B54B6815461A7B7F2A0C462ED94FEA67
S214007120921CBCF1030F0FD09A7B013A28469A7343
S214007130FDF7BCFC60680023436002F0D3F92046EC
S214007140BDE8704002F0BEBAD0F890602EB19A69E1
S2140071505968007A3323B04763689A7B013A214620
S21400716028469A73FDF7A2FC60680023436002F08D
S214007170B9F92046BDE8704002F088BAD0F88460BD
S214007180002EE4D1E9E700BF2DE9F043044683B0C2
S214007190303003F0ABF90023E373FEF79FFD364F64
S2140071A03D68064675B129462D684B681B69A342A3
S2140071B0F8D13A462046FFF7ABFF637B0133637393
S2140071C0002DF0D13046FEF78FFDD4F8B05004F114
S2140071D0B0063DB129462D6832462046FFF798FF97
S2140071E0002DF7D1D4F8AC60002E3FD004F1AC07E8
S2140071F04FF0000814E0D4F88490B9F1000F04D0E2
S21400720082694168207AC8476868C0F8048002F03E
S21400721069F9284602F03AFAA37B013BA3732EB322
S2140072207268937B3546013B314638463668937321
S214007230FDF73CFC6868827B3323002ADBD001A87C
S21400724002F066FAFEF74AFD019B227A1A70D4F81D
S2140072508410D4F890C06A68C3E9011C9169D960AB
S214007260C2F810809361FEF73FFDD2E7237B63737D
S21400727003B0BDE8F08300BF383700202DE9F047A3
S21400728013F00E0F1C4682B0437A80460F46164611
S21400729062D09A0767D514F002094FD04FF0C00AA3
S2140072A04FF0000998F87030002B50D101A802F07A
S2140072B0DDF9054600283DD1684602F069F8054626
S2140072C0002868D1009A019B57601681C2F810808A
S2140072D098F8081051730A9991615A60B9F1000F35
S2140072E056D098F80A1098F80B000B01DBB2C4F3DE
S2140072F000140343013143EAC40401F00701147388
S21400730088F80A103146384601F062F9DDE9004691
S214007310608198F80D30A3B3013B88F80D30FEF776
S214007320DDFC2246074631461D4802F007FA38467D
S214007330FEF7DAFC284602B0BDE8F08714F0040336
S21400734016D098F870304FF0C40A002BAED0022545
S214007350284602B0BDE8F087DB0704D44FF0C00A29
S2140073604FF001099EE72125284602B0BDE8F087C8
S21400737014F0080F994614BF4FF0CE0A4FF0C00A1B
S21400738090E72246314608F1B00002F0D7F9D1E77F
S21400739082F80CA0B6E7019802F078F9CAE700BFB9
S2140073A038370020F0B583B0064601A80F461446CD
S2140073B01D4602F077F908B103B0F0BD684602F04A
S2140073C00FF8E8B9009B59685F7364F06F021A7390
S2140073D01E610D70009B0121586801F0F9F8DDE987
S2140073E0003258815360FEF779FCDDE9002104463F
S2140073F0064802F0A3F92046FEF776FC03B0F0BD7F
S214007400019802F05FF903B0F0BD00BF38370020E6
S21400741070B50546FEF762FC064605F1AC00FDF7C2
S2140074203DFB00B34268937B0446013B93733046B2
S214007430FEF75AFC6368186802F0D2F86368002208
S2140074401A60FEF74BFC626821460446084802F0C4
S2140074507BF92046FEF748FCEA7BAB7B0132013B1A
S214007460EA73AB7370BD3046BDE87040FEF73CBCB7
S2140074703837002070B50C46FEF730FC2369DA7BFF
S214007480092A05461BD91A7A22B92846BDE8704053
S214007490FEF72ABC032283F8702003F1300003F0C5
S2140074A025F82369D3F89C20002AEED0187AD3F862
S2140074B0A01090472846BDE87040FEF715BC1E6930
S2140074C0760041F288301E6103F062F9864207D8E2
S2140074D02069FFF79DFF2846BDE87040FEF704BC14
S2140074E041F28830266903F053F93061F0E700BFB7
S2140074F070B50C46FEF7F2FB94F87030022B05468A
S21400750004D02846BDE87040FEF7EEBB012384F8A1
S2140075107030FEF7E3FB211D06460548FDF7B0FA7E
S2140075203046FEF7E1FB2846BDE87040FEF7DCBBC0
S2140075301837002070B50646457BFEF7CFFB0F4B8D
S2140075401C6814B913E024688CB1237AAB42FAD1D4
S214007550FEF7CAFBD4F8845025B1B2697168207A68
S2140075600023A8473046BDE8704001F0BBBFFEF7D9
S214007570BBFB0023D3F88430FFDE00BF2C3700208F
S2140075802DE9F04383B01F4606460D469046FEF7AB
S214007590A5FB2A4B1C6814B911E024687CB194F84A
S2140075A008C0AC45F9D1FEF79FFB94F87030002B6D
S2140075B00CBF2E240424204603B0BDE8F083FEF75B
S2140075C093FB002301A8019302F088F804460028E4
S2140075D0F1D1DDF80490A9F80A0089F80E0089F8C0
S2140075E07000C9F8000089F8098089F8085089F801
S2140075F00C7089F80D70052003F0CAF8C9F8100061
S2140076000198A430FDF738FA0198A830FDF734FA4F
S2140076100198AC30FDF730FA0198B030FDF72CFA3F
S21400762001990648FDF72CFA05490448FDF74AFA81
S214007630019B35710122B2603360BCE72C37002015
S2140076400171000070B500284AD004460D46164663
S214007650FEF744FBA36883B10133A360FEF744FB47
S2140076602368002B3FD00B2D52D8DFE805F0161A02
S2140076701E22262A2E32360B510B0225FEF734FB2D
S214007680284670BD5E670025FEF728FBA368013B11
S214007690A360FEF729FB284670BDC3F88860002566
S2140076A0F2E7C3F88C600025EEE7C3F88460002597
S2140076B0EAE7C3F89C600025E6E7C3F8A06000256B
S2140076C0E2E7C3F894600025DEE7C3F8986000257B
S2140076D0DAE7C3F890600025D6E79E670025D3E773
S2140076E02225284670BD2679FEF7F8FA0B4B1D6852
S2140076F015B90FE02D686DB12B7AB342FAD1FEF7BB
S214007700F3FA95F87030022B0CBF02251F25BBE755
S2140077102125B9E7FEF7E8FA0225B5E72C37002061
S21400772070B5054682B0FEF7D9FAAB68012B49D88A
S2140077302C6800230646AB60002C5FD0FEF7D4FA18
S2140077402B79002B38D1D4F8A43004F1A40643B129
S2140077503046FDF7A3F901F063FFD4F8A430002B00
S214007760F6D1D4F8A83004F1A80643B13046FDF7A8
S21400777095F901F055FFD4F8A830002BF6D194F80F
S21400778070302BB1033B022B22D82046FFF7FCFCBF
S2140077902B790BBB012384F87030FEF79FFA211D6E
S2140077A006462648FDF76CF93046FEF79DFA00249B
S2140077B020462C6002B070BD207A02F0B5FA002890
S2140077C0C1D03046FEF790FA0424204602B070BDC1
S2140077D00124204602B070BD022384F870304FF4B6
S2140077E07A7002F0D5FF0023CDE900330146144A33
S2140077F0234604F1500002F0FFFED8E72D79FEF78D
S2140078006DFA104B1C6814B913E024688CB1237A07
S214007810AB42FAD1FEF768FA94F87030013B012BC0
S21400782094BF00241F243046FEF75EFA204602B0BE
S21400783070BDFEF759FA0024F5E700BF18370020A0
S214007840F17400002C370020F8B59DF81860002869
S21400785047D004460D461746FEF740FAA3687BB3AA
S2140078600133A360FEF740FA2368002B3CD0B20732
S2140078704BBFD3F8A820D3F8A42003F1A80003F147
S214007880A40082B1FDF70AF9F8B129463A4601F09C
S214007890B3FEFEF723FAA368013BA3600025FEF7BC
S2140078A023FA2846F8BD93F8703083B1FEF716FA2F
S2140078B0A368013B0225A360FEF716FA2846F8BD2A
S2140078C00225FEF711FA2846F8BD28603880FEF734
S2140078D005FAA368013B1B25A360FEF705FA2846B8
S2140078E0F8BD22252846F8BD2579FEF7F7F90B4B9B
S2140078F002E01A7AAA420DD01B68002BF9D1FEF7D7
S214007900F3F90225FEF7EAF9A368013BA360FEF748
S214007910EBF9C6E7FEF7E8F91F25F3E72C3700205A
S214007920F0B583B028B30D4619B31646EAB104463F
S2140079301F46FEF7D3F9A368FBB10133A360FEF739
S214007940D3F92068F8B12946089D00953B46324693
S214007950FFF794FC0546FEF7C1F9A368013BA36058
S214007960FEF7C2F9284603B0F0BD2125284603B02D
S214007970F0BD2225284603B0F0BDFEF7B5F9022576
S214007980284603B0F0BD2579FEF7A8F9074B02E0BC
S2140079901A7AAA4206D01B68002BF9D1FEF7A4F982
S2140079A00225D8E7FEF7A0F91F25D4E72C370020DC
S2140079B038B5036813B193F8700038BD0579FEF743
S2140079C08DF9094B1C6814B909E024683CB1237A88
S2140079D0AB42FAD1FEF788F994F8700038BDFEF78E
S2140079E083F9062038BD00BF2C37002000207047E2
S2140079F070B50546FEF772F91B4B1C6814B91BE000
S214007A002468CCB1237AAB42FAD1FEF76DF994F82C
S214007A107030022B01D09BB170BD04F1500002F013
S214007A2065FD012384F87030FEF758F9211D0546E0
S214007A300E48FDF725F82846BDE87040FEF754B915
S214007A40032384F8703004F1300002F04FFD204626
S214007A50FFF79AFBD4F89C30002BDDD0D4F8A010AA
S214007A60207ABDE8704018472C37002018370020D1
S214007A7018B9024A13780133137070470F64002058
S214007A80F0B503681B797F2B83B0044610D99F0995
S214007A90FEF724F926690546F6B1032F40D02046A6
S214007AA001F020FD284603B0BDE8F040FEF71CB903
S214007AB0FEF714F9266905466EB3277FE7B14049FD
S214007AC04048224600F0CCFD00232846237703B02A
S214007AD0BDE8F040FEF708B9032FE0D1A669B76805
S214007AE027B1F268616830783323B84700236360B3
S214007AF0304601F01DFED2E7204601F0F3FC0428D4
S214007B00D0D13169304ACDE90077234606F13000FE
S214007B1002F072FDC6E7A6697768002FE1D1E5E7B7
S214007B20D6F8907027B1A2696168307A0023B8470A
S214007B3000236360204601F0D5FC737BD6F8B020A6
S214007B400133DBB2737352B3204F06F1B0040AE080
S214007B50384601F0F3FD737BD6F8B020013BDBB26C
S214007B607373002A9ED02046002B9BD0FCF796FF0E
S214007B70436810B19A7B013A9A7393F80CC04FEAA7
S214007B809C1CBCF1030F1A460146E1D096F80EC0C5
S214007B90BCF1000FDCD0204601F0D6FD82E796F857
S214007BA07030012B7FF47EAFFEF798F8311D044647
S214007BB00748FCF765FF2046FEF796F872E700BF19
S214007BC0357500001C37002075740000383700201B
S214007BD018370020024A137801331370704700BF2D
S214007BE00F6400202DE9F04FB74B97B01B78079332
S214007BF09B46002B7BD00DF13E0110A801F086F9C4
S214007C00814600286ED1B14B5B78002B00F039819D
S214007C101098036893F804A05D785B8805931A466D
S214007C20BDF83E30934228BF1346BAF17F0F4FEAA5
S214007C309A18038140F23581FEF750F8A44B1C6871
S214007C40024624B90DE12468002C00F00A81237A4C
S214007C50AB42F8D14FEA1A1310460693FEF744F8E3
S214007C60B8F1000F40F03C81109B1B7D002B00F00C
S214007C70918101F02FF9002840F0CA82109F3B7DC9
S214007C80002B40F07781139394F87020022ACDE9F8
S214007C90113300F0AD833B685E88023EB6B2002E1C
S214007CA040F0CC82637AD90700F1EF82069BE27A35
S214007CB003F00703934200F03B83511E8B4200F013
S214007CC0EE8212B9072B00F0EA82294602232046EC
S214007CD0FFF768FB384601F005FC94F87030012B7E
S214007CE000F017810BF1FF3B1BF0FF0B83D1FDF774
S214007CF0F5FF754A07991378764FDFF8E0915B1A1F
S214007D0013704FF00108FDF7EFFF01F067FF3B68C7
S214007D10002B53D001F074F9002853D03B68002B99
S214007D2050D0FDF7DBFF04463846FCF7B7FE0546A5
S214007D3018B14268937B013B93732046FDF7D4FF4E
S214007D406C68237B20467F2B4FEA931698BF00264D
S214007D5001F036FB002840F0FB8022890AB102328F
S214007D6092B2002E62D12369267BDB7A617B206883
S214007D7026F0070633432373CDF8008001F06AFA35
S214007D80FDF7ACFF21898246204601F00FF9002856
S214007D9040F0D783206922462946AC3001F0CEFC5D
S214007DA02469A37BE27B0133A373002A00F0ED80F5
S214007DB05046FDF799FF3B68002BABD1D9F8003051
S214007DC0002BA7D1444E3368002B00F0BC80FDF793
S214007DD085FF05463046FCF761FE04462846FDF75B
S214007DE083FFDFF8EC8006270CE0FDF777FF0546FB
S214007DF03046FCF753FE04462846FDF775FF002C78
S214007E0000F0A180627A237A9A42A4F10405ECD1AC
S214007E1004F12C0002F06AFB4046294684F86C7098
S214007E20FCF744FE284601F06DFCDEE7617B237B11
S214007E302068CDF8008001F00DFAFDF74FFF21898C
S214007E408246204601F0B2F8002840F07A83504679
S214007E50FDF74AFF022E284600F0868001F016FC49
S214007E6055E71046FDF740FFB8F1020F25D11098F0
S214007E700BF1FF3B01F036FB1BF0FF0B7FF4BBAEB4
S214007E8035E7109B18680521B0F8052000F0BCFB0C
S214007E900028ECD0109803681A78142A3FF4BAAE7B
S214007EA0E6E7FDF71BFF0A4B1C6802464FF000088A
S214007EB0002C7FF4CCAEFDF717FF002229460523E1
S214007EC01046FFF76FFAD2E70F6400203437002021
S214007ED02C37002038370020183700203037002095
S214007EE0B8F1020F43D0109E337D002B42D1B8F17B
S214007EF0030F00F032812046E27A29460623FFF778
S214007F0051FA109801F0EEFA94F87030012B7FF4D5
S214007F10E9AE627B237B9A427FF4E4AE04F1300044
S214007F2002F0E4FA0623C24884F870302146FCF7D3
S214007F30BDFD0BF1FF3B204601F0E4FB1BF0FF0B01
S214007F407FF459AED3E617B0BDE8F04F00F0B2BBF1
S214007F50FDF7C4FE224606462946B64801F0F4FB65
S214007F603046FDF7C1FE2DE701F0ACFBCFE6109BD7
S214007F701B7D7BB12046E27A2946FFF713FA10985C
S214007F800023037501F0AEFABEE702F0E1FBC4E998
S214007F9006010DE7FDF7A2FED4F8AC300890002BE2
S214007FA000F0D4805B681B681A79A37BC2F30212C8
S214007FB01344561C03F0070306F007069E420AF019
S214007FC0070100F2BD80B142C0F0A281994200F2E2
S214007FD09F81914298BF08318A1A0026D3B2E67371
S214007FE0099302F0B5FBA269934F831AE26961EB2D
S214007FF002013A78002A00F0D1803E705E0846EA18
S214008000C1764F08C4E90831C4E90A67052002F0C2
S214008010BFFB864277F10002C0F08281D4E90A07EE
S214008020236A8600F6184FEA8707636A47EA90775E
S21400803041F2883047EB030702F0AAFB0023B04268
S214008040BB4180F0DB8041F2883002F0A1FB20616A
S21400805004F1300002F04AFA099B002B34D0CDE937
S2140080600CA804F1AC03DDF824A0CDE90AB500277E
S2140080709B465846FCF712FD46680546B37B10B192
S214008080013BDBB2B373002B63D1D4F88480B8F124
S214008090000F03D0B2697168207AC047002373606E
S2140080A0304601F01FFA284601F0F0FA0137627BED
S2140080B0A37BF9B20132013B51456273A373D8D357
S2140080C0DDE90AB5DDE90CA80898FDF70DFED4F841
S2140080D0B030F3B104F1B00718E0FDF7FFFD064637
S2140080E03846FCF7DBFC0346194652485A6813B17B
S2140080F0937B013B937301F021FB637B013B63732E
S2140081003046FDF7F1FDD4F8B03013B1637B002B99
S214008110E3D1B8F1000F3FF4ACAD109E337D002BD9
S2140081207FF428AFB8F1020F7FF4E1AE069B03F0B0
S2140081300303012B00F0D580304601F0D3F9E3E6C7
S21400814099427FF646AFB142BFF443AFFDF7CCFD90
S214008150DFE74FF001033377A5E7059B022B0AF014
S214008160370700F281800025637A9A07E4D5002F4E
S21400817040F01E815B07DFD42A4604F1A801304692
S21400818001F0F4F90028D7D1D4F89430002B3FF44E
S214008190BBAED4F89810207A9847B5E6A06AE66A8F
S2140081A0226AD4F824E0800840EA867007184FEA6E
S2140081B0960646EB060C381846EB0C0CD61A6EEBF9
S2140081C00107002FC0F2A080B60846EA8776D208DC
S2140081D042EA4E7286194CEBA7072EF007004FEACC
S2140081E0D30CD3004CEA417C9B1A40EA527060EBF9
S2140081F0DE0013EB0C0340EBD10103E7052002F091
S214008200C7FA864277F10003C0F0868030461EE744
S214008210E27A294620460323FFF7C4F80BF1FF3B1A
S214008220109801F05FF91BF0FF0B7FF4E4AC5EE5FD
S2140082302C37002038370020C60B002078688319BA
S21400824031465A78835D43EA022200F0DDF90028C1
S2140082507FF428AD2046E27A29460123FFF7A2F8EC
S214008260384601F03FF94FE69D1E013BADB27068FF
S2140082709BB22946C25C435D43EA0222A94600F04F
S214008280C3F900287FF470AF56E7E27A2946204605
S2140082900623FFF787F8384601F024F934E615A8D8
S2140082A001F000FA00287FF415AD14A801F070F86C
S2140082B0002840F0B980149B1C61227A5A73E27A37
S2140082C062F07F021A73159A5360FDF707FD159941
S2140082D005464A68A64801F031FA2846FDF704FD2F
S2140082E0F8E473681D786B1E042B00F2DC8001A294
S2140082F052F823F071840000898400003981000060
S2140083006984000039840000764267EB47075BE724
S2140083100898FDF7E9FCFCE6052002F039FA96E637
S214008320052002F035FA0023C4E90A031F4677E663
S2140083301AF0080F40F0C280324604F1A401384615
S21400834001F014F9002840F0DA80D4F888301BB128
S214008350D4F88C10207A9847E37A013303F00703A9
S214008360E37215A801F09EF9C8B914A801F010F838
S21400837000285DD1149B1C61227A5A73E27A62F05F
S2140083807F021A73159A5360FDF7A8FC15990546E7
S2140083904A68774801F0D2F92846FDF7A5FC1298FE
S2140083A018B1119A002A40F0A18001F0E3F9ABE57C
S2140083B0042F27D1A56FADB10022149215A97268BB
S2140083C0207A029114A9019113A900914B4603212A
S2140083D0A847139919B1149A002A40F09A800846C3
S2140083E001F0C8F9706801F0EDF800237360A3E6A9
S2140083F01A46204629460523FEF7D4FF384601F0E4
S21400840071F881E5312F7FF497AE304601F06AF8B7
S214008410227A002A7FF478AD628108230092114602
S2140084202046FEF72BFF6FE5159801F04BF951E457
S214008430159801F047F9B2E7304601F053F80325E6
S21400844094F87030022B35D004F1300002F04EF86C
S21400845084F87050D4F89C30002B3FF443ACD4F82A
S214008460A010207A98474FE5304601F03BF8E7E742
S214008470D4F8AC30002B3FF45FAE2046FEF7C8FFC2
S214008480304601F02FF83FE5304601F02BF894F81F
S2140084907030022B0ED004F1300002F027F80523CE
S2140084A084F870301EE4304601F01CF894F8703002
S2140084B0022B54D12046FEF767FE25E5217A0029D7
S2140084C03CD1A56F4DB113A87A68029011A801900F
S2140084D012A8009033460846A847786801F072F85C
S2140084E000237B60384600F0FDFF2EE7139B0093C9
S2140084F0014692B210232046FEF7C0FE04E5204651
S214008500E27A29460323FEF74DFF384600F0EAFFDD
S214008510FAE4159800903B4692B22046FEF7AEFE6F
S214008520034600283FF45EAFD4F89050002D3FF489
S21400853059AF159A1399207AA84753E71A46294641
S214008540A5E6224629460A4801F0FEF8206801F012
S21400855047F8002323605046FDF7C6FB32E404F1DB
S214008560300001F0C3FF052384F8703072E700BFC7
S2140085703837002010B51048FCF77EFA0F48FCF795
S2140085807BFA0F48FCF778FA0E48FCF775FA00F00D
S21400859075FE0D4800F0B2FC00F07AFB044608B108
S2140085A0204610BD01F008FC04460028F8D1074814
S2140085B000F050F8204610BD2C3700201837002059
S2140085C03837002030370020343700201C37002092
S2140085D0C1B1013900F1FF3C10FA81F100201CF80E
S2140085E0013F40BA80B25840C0F3031343401A0319
S2140085F0580192B2534000F4FF50614580EA0300F0
S214008600EDD1704708467047F1B1013900B500F169
S214008610FF3C10FA81FE00211CF8010F4BBA9BB2FA
S2140086204340C3F303114B401803590180B2434043
S21400863001F4FF51E64581EA0301EDD1501AB0FA84
S21400864080F040095DF804FB501AB0FA80F040094B
S214008650704700BF0023C0E901330373704700BFB3
S2140086602DE9F041044688461746FDF737FB257B83
S214008670B5B921460646C4F804800C48A760FCF746
S21400868003FA0B4A13780133137001233046237321
S214008690FDF72AFB0320FFF7EBF92846BDE8F0813B
S2140086A0FDF722FB0420BDE8F08100BF3C37002028
S2140086B0106400202DE9F047DFF85C90154F99F81C
S2140086C000A04FF00008554608E0D4E9013084F8D1
S2140086D00C80013D984715F0FF050BD0FDF7FEFA1C
S2140086E006463846FCF7DAF904463046FDF7FCFA4B
S2140086F0002CEAD1FDF7F2FA99F80030534526BF70
S214008700A3EB0A03DBB2002389F80030BDE8F0478C
S214008710FDF7EABA3C37002010640020F0B583B0BD
S214008720FDF7DCFA444B1B68002B7DD01A8959688C
S2140087300546D2B9414B086841491960DA6041499B
S2140087405860102299609A703F4940483B4A00683A
S2140087500024234600940C703D49FCF797FA2846FF
S214008760FDF7C2FA204603B0F0BD344B0C68354E18
S2140087705C601327374C1C60B2F5006FC3E90267D4
S2140087804FF000041FD89878013A64F3041092B2B0
S21400879012019870304842F0405210404A68DF613B
S2140087A00A314FF0000CC3E9040264F3041C59625A
S2140087B010222A491962DC629E619E6283F812C00A
S2140087C083F82220C0E7B2F5805F31D86FF40060EE
S2140087D002440A3192B251F8060C596312011E493E
S2140087E0196142F040520A401A629A78586164F35E
S2140087F004129A704FF0000264F304129A744FF059
S214008800000200F5006064F30412586283F8222028
S2140088101020124A1A63C3E90667C3E90A679E6313
S214008820DC6383F832008FE7FDF75EFA1B209AE7D9
S214008830FDF75AFA212096E758390020143900200F
S2140088406000003034000140C80B00205C39002076
S2140088500439002060001030F07F00301000003037
S21400886010B584B0044603A800F022FE00283DD1CF
S214008870234BB4F5006F18702AD9224B039A22496D
S214008880DFF8A4C05961C3E900C16FF4006E02F5B9
S21400889000619A60996104EB0E021321C2F30A028A
S2140088A0D9601A49D861120142F0447201400A4365
S2140088B01A611749174A18480B6000210068174BC1
S2140088C00091148016490F4AFCF7E0F904B010BD79
S2140088D0621EC2F30A020B4B0399D860120142F0E3
S2140088E044721A60084AC3E90121E2E70D49044BC5
S2140088F0086801221A70FCF7F1F904B010BD00BF39
S21400890011640020DC3700201C0001400F80EFFCC3
S2140089107C380020EA630020503700202D890000B4
S214008920CC3700205C390020F07F00032DE9F04FA3
S2140089302DED028B87B0FDF7D1F9A94AA94B126835
S214008940039297681A7808EE100A002A40F0F4801E
S214008950A54B0293B3F800A0BAF1000F49D0DFF898
S214008960C482DFF8A8B25546AAEB050498F8003092
S214008970A4B23E19002B46D1DFF8AC92B9F800300D
S214008980AB429A4B1B7840F0E580002B40F002810A
S21400899005A800F08DFD0346002840F09E80944A0E
S2140089A0944D954805999160006800932B70D360AC
S2140089B0924D934BC2E90053894D924B2A60029D1B
S2140089C0072129809049FCF761F9002C78D1B9F885
S2140089D000408E4B8E4819684A6801235760148100
S2140089E088F8003000F0AAFEFFF7F4F80023A9F894
S2140089F0003018EE100AFDF777F9002007B0BDEC3E
S214008A00028BBDE8F08F073D8248ADB2FCF746F812
S214008A10002800F0CD804268CBF80000937B013B35
S214008A209373B6F8052005213046FFF7EDFD0028C4
S214008A3000F0FC806D4BDFF8F0911B787088A9F889
S214008A400000002B44D0002840F0068105A800F066
S214008A502FFD0346002867D16149654A00900A60E9
S214008A60674951606449D060086862490B70059B8D
S214008A7002999360614B136007230B80614B624938
S214008A80FCF704F9DBF8002038595368B9F80010F1
S214008A901B681860B088B4799C719880536830461B
S214008AA0198100F013FDB9F80040B4F5817F1CD899
S214008AB064B3002388F80030002D7FF455AF98E7A4
S214008AC0B9F8004031462246384616F0AEFD80E73B
S214008AD00028BBD0FFF7C4FED4E74F49454B0868D3
S214008AE001221A70FCF7FAF86FE7DBF80010484826
S214008AF04A680623137500F021FEFFF76BF8002383
S214008B00CBF80030002D7FF42FAF72E7DBF80010B3
S214008B103F484A6800F012FEFFF75CF8CBF80040CA
S214008B20002D7FF421AF64E73B4B1868314B0122E0
S214008B301A70FCF7D3F8A5E72B49029107220A80A2
S214008B4000211970781C3946924616F06EFD1423E3
S214008B503B7004E7F3B9284B2C4C1868FCF7BEF8BA
S214008B602168012388F8003019B14A68294800F0C6
S214008B70E5FD0023294A2360D36C43F0040318EE76
S214008B80100AD364FDF7B0F8002007B0BDEC028BE6
S214008B90BDE8F08F184B1868FCF7A0F818EE100A1E
S214008BA0FDF7A2F8002007B0BDEC028BBDE8F08F01
S214008BB00346164910481A4A0B60006802930121C2
S214008BC01170FCF78BF8094A029B137018EE100A16
S214008BD0FDF78AF8002007B0BDEC028BBDE8F08FE9
S214008BE07C38002012640020EA6300201364002012
S214008BF0DC3700201164002050370020600010038E
S214008C001C0001402D890000CC3700204037002092
S214008C1088380020803800205C39002000000140A1
S214008C2014640020C70B0020EC630020144C20685E
S214008C30FCF754F82068FCF751F8DBF80010012325
S214008C4088F8003019B14A680E4800F077FD002316
S214008C500D4ACBF800308FE7094D2868FCF73EF840
S214008C600A4B039A28681A60012488F80040FCF72B
S214008C7035F8DBF8001088F800400029E3D1E6E775
S214008C805037002080380020000001407C3800204B
S214008C90F0B5764D0FCD8BB003AC0FC495E807004A
S214008CA084E8070072480121FCF7D2FB71480121D5
S214008CB0FCF7CEFB70480121FCF7CAFB6F4B4FF464
S214008CC080521A604FF400621A606D486D4C6C4D0D
S214008CD0FBF7D2FE6C48FBF7CFFE6C48FBF7CCFEEA
S214008CE06B48FBF7C9FE6B48FBF7C6FE6A4B0022D3
S214008CF01A6004F17806201D00F09AFB0346214610
S214008D002846002B40F0AE8062680C3400F01CFD54
S214008D10B442F0D1614C5E4E04F1780521463046EF
S214008D200C34FBF7ADFEA542F8D10021084601231E
S214008D300422FDF7B5FB0123594C194602220020F8
S214008D40FDF7AEFB30230025204603A98DF825301D
S214008D504FF4E13305938DF80C50FDF791FEA36FA9
S214008D6023F4F853032123F01F03A367022261674D
S214008D702B46052128460126FDF792FBE667636E23
S214008D80042213436366636F43F010036367114660
S214008D902B462846FDF784FBE36F43F4F853E3675E
S214008DA0636F43F020036367E36C3343E3644FF081
S214008DB0FF324FF44063A2642046E360394C05213D
S214008DC0FDF756FEFBF72AFF29462046FBF7B6FEC0
S214008DD00146002846D13448FBF7B0FE00283ED1B5
S214008DE0324D334FDFF8E8C0E860A023C5E9010044
S214008DF0C7E901000093F860C5F800C02D4B2E4867
S214008E000A2210214FF440253D6001F0EFF802A839
S214008E1000F04EFB054628BB274801F009F92B4613
S214008E2002462068D560062464F30E13029C138065
S214008E30224B5360224B94601E70224B224C1A60C9
S214008E404FF44473538000950725204B2580394600
S214008E50FBF71CFF003818BF01200BB0F0BD2068E0
S214008E60FBF7B6FE19200BB0F0BD00BFACFC01004E
S214008E704041050000250A000022040000E100E051
S214008E80803800205437002084380020883800209E
S214008E905439002058390020403700208C380020F4
S214008EA000000140503700205C39002004390020C3
S214008EB0CC370020DC370020443700201C0001405F
S214008EC0C70B00207C380020EA6300202D890000B4
S214008ED001000C0008B5FCF701FF074A12680346BC
S214008EE00AB1126822B11846FCF7FEFE002008BD43
S214008EF0FCF7FAFE012008BD8038002020B140F2C1
S214008F000112012302808370704700BFF8B5074640
S214008F100E46FCF7E3FE05461E48FBF7BFFD00289D
S214008F2033D04268937B0446013B2846254693731C
S214008F30FCF7DAFE55F8043F3B604FF4817333804C
S214008F40FCF7CCFE0646284600F072FA054640B10D
S214008F5011482146FBF794FD3046FCF7C5FE00207D
S214008F60F8BD62680D48214600F0EEFB0C4B1A78FF
S214008F70002AF1D00B4A1D701068FBF7AFFE0A4AB4
S214008F80D36C43F00403D364E6E72846FCF7ACFE54
S214008F901B20F8BD88380020843800208038002048
S214008FA0146400205037002000000140F8B50E463B
S214008FB00746FCF793FE05460F48FBF76FFD044691
S214008FC02846FCF791FEA4B167602681FCF786FE72
S214008FD0626821460546094800F0B0FBFFF79EFB95
S214008FE035280446284608BF0024FCF77DFE2046A8
S214008FF0F8BD03242046F8BD543900205839002017
S214009000034B044A1B681078002B08BF00207047EB
S21400901054390020C80B00204FF4E130704700BFE1
S2140090202DE9F043314EDFF8FC90DFF8FC8085B088
S214009030FCF754FE3568074625B1281D00F0F8F900
S214009040044630B32A4C2378EBB12A4B1B78002B0E
S2140090503AD003A800F02CFA00283FD1264A039BFA
S21400906093600090254B2070D06025482549C2E9C2
S2140090700003254B25480A60072119800068244B09
S2140090802449FBF703FE384605B0BDE8F043FCF77D
S2140090902BBE3046FBF702FD6A682946484600F0BC
S2140090A053FB98F800301BB93568002DC5D1C9E7C9
S2140090B0164B88F800401868FBF710FE164AD36C6B
S2140090C043F00403D364EFE7144B1888FFF7C8FB9C
S2140090D0384605B0BDE8F043FCF706BE104A01234B
S2140090E010682370FBF7FAFDCDE700BF8438002038
S2140090F011640020C70B0020DC3700201C00014054
S214009100600010037C380020EA63002050370020FF
S2140091102D890000CC37002000000140EC630020C1
S2140091205C390020803800201464002010B582B01E
S214009130FCF7D4FD204BDA6C196C0A4051070AD5AF
S2140091401E491A6C097802F004029A6451BB044660
S214009150D8692AB9204602B0BDE81040FCF7C4BD65
S214009160C0B21428F6D1DA6C154822F00402DA648C
S21400917002681388052060F30E13124813800068F7
S214009180114B00911149FBF781FD114A114B01214A
S2140091901170D3F80021120544BF4FF40062C3F8E3
S2140091A08021D7E7DA6C22F00402DA6402B0BDE868
S2140091B01040FCF799BD00BF00000140136400207A
S2140091C07C380020503700202D890000CC37002046
S2140091D01264002000E100E0194A38B5136C03F071
S2140091E00103936403B938BD164B1868FBF776FD88
S2140091F0154B01221A70FCF771FD05461348FBF764
S2140092004DFC044618B14268937B013B9373284695
S214009210FCF76AFD6068FEF733FCFCF75FFD21464D
S21400922003460B481C46FBF72BFC084B1B680BB190
S214009230FFF774FA2046BDE83840FCF755BD00BF7E
S214009240000001405C390020C80B0020583900207F
S2140092505439002010B503719DF8083041708270B3
S214009260110A1422C170027003B910BD052104460C
S214009270FFF7AEF9030A6071A37110BD70B582B036
S2140092804FF4E0604FF4A07400902D4B2D482E4E06
S2140092902E4D3822202100F0A9FE2D4B2D4800949B
S2140092A02022072100F0A2FE2C2000902A4B2B48FB
S2140092B00B22012100F09AFE41F264400090284BF8
S2140092C0284814224FF4817100F090FE4FF40A6093
S2140092D00090254B25480C22B82100F087FEC020C0
S2140092E00090234B234810220C2100F07FFEA02084
S2140092F00090214B21481422082100F077FE8020A0
S21400930000901F4B1F481022082100F06FFE3346C6
S214009310284614220094102100F068FE33462846A2
S21400932014221021009400F061FE4FF44172009266
S214009330154B16480522982100F058FE02B070BD65
S2140093406C390020603900208440002078400020DE
S214009350D0410020C44100201C43002010430020C0
S2140093605443002048430020780D00206C40002025
S214009370C4570020B8570020A05B0020945B002054
S2140093804C5C0020405C0020905800208458002050
S21400939080B110B50446094800F04AFE034658B1AD
S2140093A00020C3E902001875C3E90000986118613F
S2140093B0236010BD222070471A2010BD603900209F
S2140093C050B110B50446054800F032FE0028206073
S2140093D014BF00201A2010BD22207047C441002070
S2140093E070B50646104800F023FEA0B104460025DE
S2140093F0C4E90055C4E902550C48A56125612575E8
S21400940000F016FE02236060E37330B1012323816F
S2140094102846346070BD1A2070BD0348214600F00F
S21400942019FE1A2070BD00BF6039002010430020CE
S214009430002830D070B50646194800F0F9FD0446FD
S21400944058B30025C4E90055C4E902551548A5617E
S2140094502561257500F0ECFD2060B0B1124B1B783D
S21400946043B1656000230122E27323752381184609
S214009470346070BD0D4800F0DBFD60600028F1D15F
S214009480216811B1074800F0E5FD0548214600F0C7
S214009490E1FD1A2070BD222070471A2070BD00BF63
S2140094A060390020C44100203437002048430020A3
S2140094B010B50446044800F0BBFD002820600CBF31
S2140094C01A20002010BD00BF4843002030B108B568
S2140094D00146034800F0BEFD002008BD222070476C
S2140094E048430020002832D070B5837B044633BB47
S2140094F04168C67B89B1022E2BD0012E11D025687B
S214009500FDB11648294600F0A5FD1548214600F095
S214009510A1FD012E0FD0002070BD0568002DF0D1F2
S214009520F3E7104800F096FD2568002DE9D10C48B9
S214009530214600F08FFDFFF773FD002070BD04206C
S21400954070BD0748214600F085FD284670BD2220E4
S2140095507047054800F07EFDD1E700BFC4410020FB
S21400956060390020484300201043002000B370B547
S2140095700D46D9B104461048164600F059FD01467E
S214009580C0B10023036063684360E37B8372068197
S2140095902846FBF779FA216811B1084800F05AFD11
S2140095A00748214600F056FD002070BD222070BD01
S2140095B0222070471A2070BDB8570020C4410020F2
S2140095C06039002040B108B50146044800F042FD6D
S2140095D0FFF726FD002008BD2220704748430020E4
S2140095E030B108B50146034800F034FD002008BD40
S2140095F022207047C441002068B108B50346406881
S214009600B3F808C008600548A2F800C0194600F084
S21400961021FD002008BD2220704700BFB85700205B
S214009620E8B1416810B5044621B1837A022B07D011
S214009630012B0ED021460A48BDE8104000F00ABDB6
S214009640084800F007FD21460548BDE8104000F038
S21400965001BD054800F0FEFCFFF7E2FCEAE77047B4
S214009660B8570020104300204843002050B110B5E2
S2140096700446054800F0DCFC0028206014BF0020EB
S2140096801A2010BD22207047945B002030B108B528
S2140096900146034800F0DEFC002008BD222070478B
S2140096A0945B002050B110B50446054800F0C0FC9D
S2140096B00028206014BF00201A2010BD222070470A
S2140096C0405C002030B108B50146034800F0C2FCFB
S2140096D0002008BD22207047405C002060B110B515
S2140096E00446074800F0A4FC206038B1B8220021E8
S2140096F015F0B5FF002010BD222070471A2010BDBF
S2140097006C4000200146014800F0A4BC6C400020DC
S21400971050B110B50446054800F08AFC00282060C9
S21400972014BF00201A2010BD222070477840002069
S2140097300146014800F08EBC78400020937B013340
S2140097409373FBF7A1B900BF937B01339373FBF7C9
S21400975097B900BF50B110B50446054800F068FC44
S2140097600028206014BF00201A2010BD2220704759
S2140097708458002030B108B50146034800F06AFC62
S214009780002008BD2220704784580020014B18781E
S214009790704700BF15640020014B01221A70704705
S2140097A01764002038B50C4600F0C6FF01F020F81C
S2140097B02568044600F0C0FF01F01AF8001BA84216
S2140097C0F8D938BD10B51C48012302220021FDF748
S2140097D0D7FE2E282DD0044608B1204610BD174AC5
S2140097E015480821FDF72EFF0446E8B9144A2AB1A9
S2140097F011480521FDF726FF0446A8B9114A0E4870
S2140098000721FDF71FFF044670B90E4A0A480221D9
S214009810FDF718FF044638B90B4A07480321FDF741
S21400982011FF04460028D8D00348FDF779FF2046EC
S21400983010BD1224204610BDF85C00201D9E0000BE
S21400984000000000059D000099970000062370B5F3
S2140098500B704468A4F5805CBCF1FF0F84B00D4625
S214009860164640D9B4F5A06F53D012D840F2022263
S214009870944245D02FD940F20132944228D100219B
S214009880152208236B800C23C5E90112336004B04F
S21400989070BDB4F5C06F18D1D0E902032A4C03A9F5
S2140098A0236000F087FF38B9CDE90000274A039906
S2140098B02748234600F0E8FD04236B804FF4C0627F
S2140098C008236A60336004B070BDB4F5885FD6D0F4
