S01400006E63702D67702D4C444D4732312E733337E7
S315000040008051002099F2020055A8000059A800002E
S31500004010A70A0A010042000004180FAC206900013B
S31500004020000000000000000000000000000000008A
S31500004030000000003CB40300000000000000000087
S315000040400000000000000000FFFFFFFFFFFFFFFF72
S31500004050FFFFFFFF00600A000000000000000000F4
S31500004060FFFFFFFFFFFFFFFF8000000000000000D2
S31500004070000000000000000000000000000000003A
S315000040800000000000000000E4910020E491002000
S31500004090805100200EE90300A0B303002048002051
S311000040A0F747002000E00B0000000000C5
S315000042008051002099F2020055A8000059A800002C
S3150000421011B100005DA8000065A8000095F202003B
S3150000422095F2020095F2020095F2020095F2020064
S3150000423069A8000095F2020095F2020095F20200CC
S31500004240E4A90000E4A90000E4A90000E4A9000034
S31500004250E4A90000955B0000DD690000E4A9000008
S31500004260E4A90000E4A900009959000065CC00000B
S31500004270E4A90000E4A90000E4A90000E4A9000004
S31500004280E4A90000E4A90000E4A9000095F20200F8
S31500004290E4A9000011510000E4A90000E4A900000F
S315000042A0E4A9000011520000E9510000E4A9000051
S315000042B0E4A90000E4A90000E4A9000009AC030099
S315000042C0A9AB0300A5AB030009A3030005AC0300DB
S315000042D0ADAB0300CDAB0300B1AB0300B98F030058
S315000042E045AC0300E4A90000E4A9000041AC0000CD
S315000042F0E4A900006DC00000E4A9000095F20200E8
S31500004300E4A90000E4A90000E4A90000E4A9000073
S31500004310E4A90000E4A90000E4A90000E4A9000063
S31500004320E4A90000E4A90000E4A90000E4A9000053
S30900004330E4A90000F6
S31500004334F8B500BFF8BC08BC9E467047F8B500BF88
S31500004344F8BC08BC9E46704710B5054C237833B9B3
S31500004354044B13B1044800E000BF0123237010BDD1
S31500004364605B002000000000DCDF030008B5034B9F
S315000043741BB10349034800E000BF08BD000000006C
S31500004384645B0020DCDF0300154B002B08BF134BD6
S315000043949D46A3F5803A00218B460F461348144ADE
S315000043A4121A36F0C6FF0F4B002B00D098470E4B5F
S315000043B4002B00D098470020002104000D000D4872
S315000043C4002802D00C4800E000BF36F05BFF200056
S315000043D4290026F0AFFB36F041FF00BF00000800BD
S315000043E4805100200000000000000000AA5A0020AE
S315000043F4E49100200000000000000000002307B53F
S31500004404CDE90033012369464FF0FF308DF80230C1
S315000044142FF09CF8003018BF012003B05DF804FBB0
S3150000442400207047002814BF022000207047012096
S31500004434704701207047012814BF022000207047EE
S31500004444012070472DE9F74F07460D461446994655
S315000044544FF0010BDFF8708003F10C0A15B903B0B5
S31500004464BDE8F08F102D2E4628BF10264946154A62
S31500004474F3B251F8040B514542F8040BF9D10193F8
S315000044849AF8001010481170002288F80F4088F836
S315000044940E2088F800B019F0A7F83A4601340B4804
S315000044A4019BE4B212F8011B10F801CF81EA0C015A
S315000044B402F8011CD11BC9B29942F3D3AD1BADB2AC
S315000044C41746CBE7B5880020B4880020B3880020BF
S315000044D42DE9F04F85B002930F9B80460193034666
S315000044E41646BDF83890344A0D4600F10C0153F8CF
S315000044F4040B8B4242F8040BF9D11B784FF0020AE5
S31500004504137049232D4C237020464FEA1923A373B5
S3150000451484F80F90A34619F067F85246237883EA85
S315000045241623237063787340637000271EE0C2F17C
S315000045341001F31B89B29BB28B4228BF0B46294656
S31500004544501B03900398A1EB050C1FFA8CFC08186A
S315000045549C45C0B21AD31A44D2B21F44102A1D4431
S31500004564BFB203D1204619F03FF80022B742DED38A
S3150000457412B1584619F038F8BAF1010F4FF000029B
S31500004584029D4E460BD04FF0010ACEE711F801CB3F
S315000045941BF800E08CEA0E0C0BF800C0D2E7074BC0
S315000045A401991B6801980B604346042105B0BDE8D8
S315000045B4F04FFFF747BF00BFB5880020B48800203E
S315000045C4F7B5099FBDF820400646CDE900471D46CC
S315000045D4FFF77EFF2CB13346012221462846FFF71A
S315000045E431FF002003B0F0BD2DE9F7431E46054612
S315000045F488469146BDF828700D4C03463946304628
S315000046040122FFF71FFF33464A4641462846CDE9B5
S315000046140074FFF75DFF042221460B9836F056FE20
S31500004624002814BF7E20002003B0BDE8F08300BF3D
S315000046347588002073B51C46044D8B181E59CDE9A8
S3150000464400452E60FFF7D0FF02B070BDD68900206A
S3150000465400207047012070470120704700207047F2
S3150000466401207047002070470020704701207047E2
S31500004674002070470120704770477047002814BF18
S31500004684022000207047002070470000032310B565
S315000046940F4C1022C4E904330E4B0F49E361002387
S315000046A4A16121660D49E01DC4E919120C49A362F2
S315000046B46362E3622367E3666367226236F04BFE56
S315000046C40849204636F047FE2023A37110BD00BFDB
S315000046D4008C002054880020A0B3030044880020E6
S315000046E4A9B30300ADB303002DE9F84F1F4B1646DB
S315000046F41A7881468A4698460AB9FFF7C7FF1827EB
S3150000470407FB09873D6FD7F86CB05D452BD9BC6EA6
S31500004714796E641BB44228BF344629445046224667
S3150000472436F0E3FDBB6E2544AB4208BF0025A24428
S31500004734361BABEB050B5E4528BF5E4656B1182308
S3150000474403FB0983596E32462944504636F0CDFDA3
S315000047543444354424B1182303FB0988C8F870503F
S315000047642046BDE8F88F0024E3E700BF008C002054
S31500004774F8B504460E46174602F0B9FD3A46054614
S3150000478431462046FFF7B0FF0446284602F0B5FD41
S315000047942046F8BD2DE9F843124D1E462B78814676
S315000047A4884617460BB9FFF771FF02F0A0FD0024F7
S315000047B44FF0180C69690CFB04535A6E2AB1013484
S315000047C4A142F8DC4FF0FF3407E0A142FADDC3E969
S315000047D418989F661A67DA665E6702F08EFD2046B1
S315000047E4BDE8F883008C0020FFF750BF70B54FF08A
S315000047F460441A4B00261A68194D42F001021A60E9
S31500004804DA680C2042F08072DA60164BC4F8B03FC6
S315000048140223C4F8006EC4F8806EC5F8F03002F0C6
S315000048246FFA114B00F5D52000F2FC40B0FBF3F013
S315000048340E4A0F4B01382861C4F8406E1A600D4BBE
S31500004844C4F8803E4FF48073C5F80433D4F8003EB0
S3150000485443F48073C4F8003E70BD00BFF0ED00E081
S31500004864000004E055CEACC5F8590D00FF03004026
S31500004874001000E00D00010010B501240F4B0020CC
S315000048841C6002F0D1FD234604220321002002F01D
S3150000489427FE204625F000FFFFF7A8FF25F032FF8C
S315000048A4074B1C70FFF7A0FF234640220549064824
S315000048B4FFF770FF054B1860C00F10BD44D40340CA
S315000048C49288002091890020B4B30300185900206F
S315000048D4024B1868003018BF01207047F0ED00E065
S315000048E4D123054A037013784170090A8170591C53
S315000048F4C370117004207047DE8900202DE9F74F3C
S315000049040E788346042E0F4661D92AF0C3FDDFF8DC
S31500004914C48082464FF6FF710024C146751DEDB270
S31500004924D8F800305BB1A54209D901912AF0B2FD4D
S31500004934A0EB0A0080B2B0F5FA7F019907D9281BCB
S3150000494418BF012004233B7003B0BDE8F08FB4B355
S31500004954012C37D0EA1E631C9442DBB21CD1CCB2C4
S315000049644FF06042D2F8800EC00713D51046D9F82E
S315000049740CC04CF0807CC9F80CC0D0F800CE4CF4C6
S31500004984807CC0F800CED0F820C0BCF1000FEED079
S3150000499482F820401C46C3E7AA1E944202D1C1F302
S315000049A40724DDE76A1E94420FD05C4414F8024CD7
S315000049B40193204605F0E2FE019B0146D0E75B2405
S315000049C40123CDE734460223CAE75D24C8E7002065
S315000049D4B8E700BFF0ED00E000B5084B91B0402207
S315000049E469461868FFF7C4FE20B1C2B269461220B0
S315000049F423F07CF911B05DF804FB00BF18590020C0
S31500004A0470B5164685180AB9304470BD01F00F0317
S31500004A140A2B34BF30243724013A2344090905F804
S31500004A24013DD2B2EFE70000F0B5F9B100281CDA77
S31500004A342D23B0F1004F137000D04042012115E040
S31500004A44801B8642ECB205F10105F9D904B927B1F8
S31500004A5401274D1C30345454E9B20133092B09D1D2
S31500004A64303050540131C8B2F0BD002100231F4636
S31500004A74DFF808C05CF823600025E2E7C4B303004E
S31500004A842DE9F04F4FF0000B95B002AC81468A46F3
S31500004A9417461D465E46A0463B7863B902ABE41A48
S31500004AA4E4B2224619465046C847002840F093808F
S31500004AB43444E0B290E0252B13D0BBF1000F14D19F
S31500004AC42370013412AB9C426DD3A4EB0804E4B208
S31500004AD4224641465046C84700287CD12644F6B2B1
S31500004AE460E0BBF1000F00D101373B78632B00F087
S31500004AF492801BD8392B09D8302B80F09E80002B4E
S31500004B04CCD0252B51D04FF0000BDBE7582B00F00F
S31500004B148B80622BF7D14FF0000B2B6801936B68E7
S31500004B240093009B9B4543D10835ECE7702B1ED0C0
S31500004B3417D8642B01D06C2BE5D16C2B05F1040B33
S31500004B4428686CD17B78752B14BF0121002101D014
S31500004B54642B00D101372246FFF766FF04445D4605
S31500004B64D1E7752BE9D0782B5ED0732BCBD1A4EB90
S31500004B740804E4B2224602A9504605F1040B2D6846
S31500004B84C84740BB2644F6B2C4B22B5D0130002BA5
S31500004B94FAD1224629465046C847E0B95D468346BF
S31500004BA42644F6B24446013776E723700134AAE771
S31500004BB4019B204613F80B100222FFF721FF12ABCC
S31500004BC4984204460ED3A0EB0804E4B222464146BA
S31500004BD45046C84718B1002015B0BDE8F08F2644EA
S31500004BE44446F6B2009B013B5B4582BF20232370FB
S31500004BF4013412AB9C420BD3A4EB0804E4B2224664
S31500004C0441465046C8470028E5D126444446F6B2F4
S31500004C140BF1010B85E72B6804352370C6E7752B6A
S31500004C240CBF0021012196E7204602222978FFF7CE
S31500004C34E7FE05F1040B044691E77A7802F0DF02F9
S31500004C44582A19D1322B07F1010B09D10422204627
S31500004C5429882F1DFFF7D4FE3D4604465F4652E7DA
S31500004C64342B09D12F1D2D680422290C2046FFF769
S31500004C74C7FE0422A9B2EDE74FF0010B22E70000BC
S31500004C842DE9F04F9B46584B85B01B78064689465E
S31500004C941546109F9DF844A0DDF85080002B00F0C7
S31500004CA49280072A00F291800E9B002B00F08D80E3
S31500004CB40F9B002B00F08980129BB3F5006F00F365
S31500004CC48480012801D1002F7FD0484B03EB0513C4
S31500004CD41B7B002B7BD0464C10220021684636F005
S31500004CE428FB04EB45141022B9F1000F5CD14946A8
S31500004CF4204636F01EFBA37843F01003A370E37836
S31500004D0443F03003E370BAF1000F03D1DBB243F092
S31500004D140303E37036496A01129B885A013B63F325
S31500004D240E100E9B01EB020C8852CCF808300F9B38
S31500004D349DF84C10CCF804309CF80330012E61F336
S31500004D448303CDF800B08CF8033042D113230CF161
S31500004D54100ECCF80C309CE80F008EE80F006FF0B4
S31500004D640301DCF81C20B9F1010F61F39F02CCF8B2
S31500004D741C20CCF8147004D10F9BCCF80470CCF82A
S31500004D841830002719492A018B1841F80280159A10
S31500004D9428465A609F605E732246694602F030FCDC
S31500004DA4384605B0BDE8F08F0021204636F0C1FA3A
S31500004DB41023A3700323E370BAF1000FAAD1DBB268
S31500004DC443F03003A5E70B48EBE70B48E9E70B484C
S31500004DD4E7E7B8F1000FD4D19CF8023068F3041366
S31500004DE48CF80230CDE700BFD88800203C5D002057
S31500004DF4C87D0020028000F0018000F0078000F0EA
S31500004E0438B5104B05461B78BBB1C0B102F06FFA3A
S31500004E1400230D4901EB0312147B3CB92B600123DB
S31500004E241460137302F069FA204638BD0133082B67
S31500004E34F0D102F062FA0548F7E70548F5E70548B8
S31500004E44F3E700BFD88800203C5D0020048000F012
S31500004E54028000F0018000F038B502F048FA002321
S31500004E6405460A4AD1180C7B5CB91033802BF9D15C
S31500004E7402F078FB064B28461C7002F03EFA2046E8
S31500004E8438BD284602F039FA0248F9E73C5D0020AD
S31500004E94D8880020058000F00D4B10B51B78044619
S31500004EA493B1072812D802F022FA0A4B03EB041333
S31500004EB41A7B2AB100241C7302F01FFA204610BD87
S31500004EC402F01BFA0448FAE70448F8E70448F6E750
S31500004ED4D88800203C5D0020068000F0028000F0A7
S31500004EE4018000F0164B13B51868002301908DF865
S31500004EF4043002F0FCF9134B1C7824B102F0FDF9DE
S31500004F04114802B010BD01221A7002F0F6F90F4BD7
S31500004F141C731C7783F82C4083F83C4083F84C4080
S31500004F2483F85C4083F86C4083F87C4004230DEBE3
S31500004F3403008DF8073002F039FB2046E1E700BF95
S31500004F44E8B30300D8880020038000F03C5D00200D
S31500004F5410B588B00E9C009207940D9C02460694E8
S31500004F649DF8304005940B9C04949DF828400394C6
S31500004F740024CDE9013420460B462146FFF780FE86
S31500004F8408B010BD10B588B00E9C009207940D9C15
S31500004F94024606949DF8304005940B9C04949DF8B3
S31500004FA4284003940024CDE9013420460B46012110
S31500004FB4FFF766FE08B010BD08B50A4B1B785BB157
S31500004FC407280BD8084B03EB00131B7B43B10021C6
S31500004FD402F0DCFA002008BD0448FCE70448FAE7BE
S31500004FE40448F8E7D88800203C5D0020028000F0E1
S31500004FF4018000F0078000F008B50A4B1B785BB10E
S3150000500407280BD8084B03EB00131B7B43B1012184
S3150000501402F0BCFA002008BD0448FCE70448FAE79D
S315000050240448F8E7D88800203C5D0020028000F0A0
S31500005034018000F0078000F008B50A4B1B7853B1D5
S3150000504407280AD8084B03EB00131B7B3BB102F07D
S3150000505427FB002008BD0548FCE70548FAE7054894
S31500005064F8E700BFD88800203C5D0020028000F0ED
S31500005074018000F0078000F00D4B1B7893B10728E0
S3150000508412D889B10B4B03EB00131B7B73B10A4B8C
S31500005094DA6A012303FA00F010401ABF00200B70ED
S315000050A408707047054870470548704705487047BB
S315000050B4D88800203C5D002000000440028000F0F7
S315000050C4018000F0078000F00B4B10B51B780C46EE
S315000050D463B107280CD859B1084B03EB00131B7BAB
S315000050E443B102F0EFFA2060002010BD0448FCE74B
S315000050F40448FAE70448F8E7D88800203C5D002015
S31500005104028000F0018000F0078000F02DE9F843EA
S31500005114174B1F6D5B6D1F4000D5FEE7012600256A
S31500005124144CDFF85480DFF85490374217D02368C4
S31500005134C8F800609BB1A16862680131A160284685
S315000051449847637B012B0AD148B909EB4513197BB0
S315000051541A7F60F3410160F3410219731A7701352E
S31500005164082D4FEA460604F11004DED1BDE8F883A3
S31500005174000004403C5D002050200440C87D00200F
S3150000518470B504460125084E04B970BD94FAA4F01E
S31500005194B0FA80F005FA00F324EA030456F8203046
S315000051A4002BF1D09847EFE7047F00204FF0007200
S315000051B4044BC3F880211A604FF08062C3F8802143
S315000051C41A60704700E100E038B504460D4602F067
S315000051D48EF8034B43F82450BDE8384002F08DB8EE
S315000051E4047F0020084BD3F82404D3F8202410406D
S315000051F442F2204220F42A5020F02A004004400CB7
S315000052049850FFF7BDBF00BF00C00340084BD3F85A
S315000052142404D3F82024104042F2204220F4AA4069
S3150000522420F055000004000C9850FFF7A9BF00BFFA
S3150000523400C00340104A30B5136841611546ABB946
S315000052441060836011E0091B9C6841611A467CB1B9
S3150000525423465C698C42F6D9002CF4D052B1906096
S31500005264836013B15A69511A596130BD0022F0E7BF
S315000052742346F4E72860F3E7F482002010B500F033
S3150000528421FB094B094A196831B11368C41A4B69E1
S31500005294A34203D31B1B4B61106003E0C01A002317
S315000052A410604B6110BD00BFF4820020A47F002073
S315000052B438B50F4D02202B685C690E4B1B681C44E5
S315000052C400F034FB204600F005FB00230A492A6857
S315000052D40B70D088800702D501230B7038BD926805
S315000052E4002AFBD050690344012BF2D9F6E700BF2C
S315000052F4F4820020A47F0020FC88002070B59DF86D
S315000053041450164605710025049A8560BDF8185098
S315000053140446C5800260C0E903360D4629B96161B9
S315000053240BB11146984796B1354601F0E0FF0646A3
S31500005334FFF7A4FF29462046FFF77CFF054B1B68B1
S31500005344A34201D1FFF7B4FF304601F0D6FF002097
S3150000535470BD00BFF482002000210C4A13687BB1A3
S3150000536483420AD1836879B18B6083681BB15A6919
S3150000537441690A445A610020704719469B68EEE762
S315000053840028EFD0022070471360EEE7F482002075
S3150000539470B501F0ACFF144E05463478FCB9134BD6
S315000053A41C60134B1C60134B1C8000F051FA012047
S315000053B400F0BCFA00F008FB0F4B0246186020B957
S315000053C4284601F09AFF232070BD23460B4840F27D
S315000053D4E73135F0B9FD0A4B1860012333702846CE
S315000053E401F08BFF0020EFE7DE880020F482002026
S315000053F4A47F0020E8850020F082002018FCFFFF2F
S31500005404AC7F00202DE9F0410546F8B101F06FFFAD
S315000054140F4F0646FFF732FF2846D7F80080FFF7FE
S315000054249BFF044628B1304601F067FF2046BDE8DD
S31500005434F081A8453B6803D123B1FFF739FFF2E7B2
S31500005444002BF0D1022000F07DFAECE72224EDE7F0
S31500005454F4820020F0B50D4685B016461F46044674
S3150000546480B1FFF7CFFFBDF82C30002202939DF8E0
S3150000547428302946CDE9007320463346FFF73EFF20
S3150000548405B0F0BD2220FBE738B50C46054698B1B9
S3150000549491B100230B7001F02AFF0121074B1B6811
S315000054A40BB122781AB101F028FF002038BD9D42C5
S315000054B40CBF21709B68F3E72220F7E7F4820020F3
S315000054C4F0B51F46002387B00D4616468DF81730F3
S315000054D40446A0B10DF11701FFF7D6FF9DF817207A
S315000054E47AB9BDF83430294602939DF83030204607
S315000054F4CDE900733346FFF701FF07B0F0BD222064
S31500005504FBE70320F9E70000F8B50C460646C8B1E8
S31500005514C1B101F0ECFE0546FFF7B0FE73692360E6
S31500005524134B1B68B3420FD023B9284601F0E5FE9E
S3150000553403201CE0596922689B680A442260F1E74B
S3150000554400230FE0222012E0276800F0BBF9094E81
S315000055543368C01A8742F3D900F0B4F93368C01A25
S3150000556423681B1A2846236001F0C7FE0020F8BDF5
S31500005574F4820020A47F0020F8B507460E4601F009
S31500005584B6FE00240546114B1B6823B9284601F0D4
S31500005594B4FE1B2015E05A691444DA88BA4213D1C2
S315000055A400F090F90A4F3B68C01AA0420AD200F0F4
S315000055B489F93B68C01A201A3060284601F09DFE1E
S315000055C40020F8BD0020F7E79B68DEE7F4820020A0
S315000055D4A47F0020014B1878704700BFFC88002088
S315000055E438B501F084FE054600F06CF904462846F9
S315000055F401F083FE204638BD70B501F078FE0646FC
S3150000560400F060F9094B05461C880120A4B200F09D
S31500005614B1F918B100F056F905460134304601F0E7
S315000056246CFE0022214642EA050070BDE885002092
S31500005634014B1868704700BFF08200200A4B10B572
S315000056441B680C4683420CD3084B4FF47A721968D4
S315000056540023A0FB010135F077FC01302060002017
S3150000566410BD2120FCE700BFAC7F0020F0820020A3
S31500005674104B10B51A684FF47A73A0FB0301A2B15C
S31500005684531E134211D1B2FA82F2C2F11F02C2F1C1
S315000056942004A2F1200301FA04F420FA02F22243C0
S315000056A421FA03F342EA030010BD002335F04CFC53
S315000056B4FAE700BFF082002000000000F8B51646A5
S315000056C41BA3D3E900238B4208BF82422AD3174B7C
S315000056D41A684FF47A73A0FB034503FB0155C2B164
S315000056E4531E13EA020014D1B2FA82F2C2F11F0267
S315000056F4C2F12007A2F1200124FA02F305FA07F702
S315000057043B4325FA01F10B4325FA02F2C6E90032BE
S31500005714F8BD00232046294635F016FCC6E90001EB
S315000057240020F5E72120F3E7AFF30080F0820020A4
S31500005734EFA7C64B37894100C2072DE9F84F044647
S315000057440BD53F4A138801339BB21380FFF796FDAE
S315000057543C4B1B680BB1FFF7ABFDA3076DD500F0FF
S31500005764B1F8394F00263D688046451B01F0BFFD60
S31500005774B24683463246334B1C6814B16369AB4266
S3150000578414D9012E314B51D1D288022A4ED11E7022
S31500005794002C4ED06369C7F800805D1B6561FFF776
S315000057A487FD5846BDE8F84F01F0A7BD23462A46B3
S315000057B4C7F800805969914209D8187994F804C049
S315000057C4521A844588BF1C469B68002BF2D1584662
S315000057D401F093FDD4F814B0C4F814A001F087FDC9
S315000057E481462046FFF7B8FD484601F086FD236949
S315000057F44BB101F07CFD814621692046FFF71AFD75
S31500005804484601F07AFDE36813B1216820469847BB
S3150000581400F058F8D844A5EB08058146054401F084
S3150000582466FD013683462246C846A4E700221A705E
S31500005834AEE7022000F086F8B3E7BDE8F88F00BFB4
S31500005844E8850020F4820020A47F0020E58900205A
S315000058541FB50024184B18689A88029053F8060F4F
S31500005864ADF80C201B79009002A88DF804308DF851
S3150000587408408DF80C4001F0AFFF694601208DF811
S31500005884004001F06DFF4FF090431F219A6922F00A
S315000058941F029A61094A11609A6A12F00802FBD142
S315000058A41A62012001F076FF4FF48062044BC3F8BC
S315000058B480211A6004B010BDECB303001420004824
S315000058C400E100E04FF090439A6A1207FCD4186A8C
S315000058D4704700004FF09042936A1907FCD4136A8C
S315000058E4116C5269120704D4CA1A022A01D89942C1
S315000058F40ED1C21A012A98BF981CB0F1FF3F28BFE7
S3150000590401304FF0904318649A6942F008029A6194
S31500005914054A13783BB14FF09041CB6B43F0020339
S31500005924CB630023137070474E5A002082074FF052
S31500005934904200F00103916948BF43F008030B430A
S3150000594493617047830700F001020AD50121084BD1
S3150000595442F0080219704FF09041CB6B23F0030319
S31500005964CB634FF090418B6923EA02038B61704746
S315000059744E5A00204FF0904301285B6904D0022858
S3150000598405D1C3F3C000704703F00100704700203F
S315000059947047000010B501F0AAFC4FF0904304468E
S315000059A45B691A07074A03F0010003F00D0348BFB9
S315000059B440F002001360FFF7BFFE2046BDE810402A
S315000059C401F09BBC142000481C2001F099B900008A
S315000059D4002211462D48F0B503682D4D54592CB1BB
S315000059E41E68AC18002E3DD1234601210832282A10
S315000059F4F4D101B10360002214462649264E0B68F1
S31500005A0495592DB11F68B518002F32D12B460124A4
S31500005A140832282AF4D104B10B6000680368002B0D
S31500005A242FD04FF04022936F007923F0FF7323F4B5
S31500005A34803343EA00439367184B4FF000420968EA
S31500005A441A600B68FBB14FF04022936F097923F477
S31500005A54FF7323F001030B439367104B4FF080420F
S31500005A641A60F0BD1E792779B74284BF2346012107
S31500005A74BCE71F7995F804C0BC453CBF2B460124FE
S31500005A84C6E7074BD9E7064BE8E700BF807F00204F
S31500005A949C820020A87F0020C48200206850004019
S31500005AA46860004010B5012228240F4B00211A70AB
S31500005AB40E48224635F03DFC224600210C4835F0BE
S31500005AC438FC0C4B0C4A13600C4A13604FF04043ED
S31500005AD40B4A1360536020220A4BC3F880211A60D4
S31500005AE4FFF776FF002010BD438800209C8200202B
S31500005AF4C4820020D87F0020807F0020A87F002059
S31500005B046460004000E100E04FF04022D2F88800D3
S31500005B14D2F88830C0F38800C3F388039842F5D1DD
S31500005B246FF48873184440B2704700004FF0402267
S31500005B34936E526E10B5134013F0804211D0114B80
S31500005B441B681C682CB1002119605960FFF7DCFF43
S31500005B54A0474FF080420C4B1A60BDE81040FFF797
S31500005B6437BF002BF9DA094B1B681C682CB11A6085
S31500005B745A60FFF7C9FF0121A047034B4FF00042CB
S31500005B84EAE700BFA87F002064600040807F002011
S31500005B94FFF7CCBF042203685A619A699207FCD5C1
S31500005BA441F2AC52102103795B0103F1804303F502
S31500005BB4703399507047012203685A619A69D20773
S31500005BC4FCD541F2AC52042103795B0103F1804315
S31500005BD403F570339950704738B141B1013AB2F5C3
S31500005BE4006F044838BF00207047034870470148D7
S31500005BF4704700BF037000F0027000F038B5044629
S31500005C040D4601F074FBA28892B222B92A6001F013
S31500005C1474FB064838BD1422638802FB0343083329
S31500005C242B6001F06AFB0020F4E700BF0B7000F064
S31500005C3438B504460D4601F05AFBA3889BB223B936
S31500005C442B6001F05AFB0C4838BD14226388E188A6
S31500005C5402FB034308332B6063885A1C92FBF1F35F
S31500005C6401FB13239BB26380A388013B9BB2A380F1
S31500005C7401F043FB0020E7E70B7000F0F8B504469B
S31500005C8417460D4601F033FBA388E28806469A427E
S31500005C9405D800233B6001F030FB1648F8BD1422FA
S31500005CA4238805F1100C02FB034308332A4603CA72
S31500005CB4624518605960154603F10803F6D1106869
S31500005CC4142218602388E18802FB034308333B60EF
S31500005CD4238830465A1C92FBF1F301FB13239BB233
S31500005CE42380A38801339BB2A38001F006FB002026
S31500005CF4D4E700BF0A7000F090F83130022B0BD1C4
S31500005D043022437F90F821005A43044B9B5823FAD0
S31500005D1400F000F0010070470020704714C00340F3
S31500005D24002313B51C4A52F8234094F821108142EB
S31500005D340ED00133042BF6D102B010BD0028FBD1DE
S31500005D449DF80730002BF7D0A068FFF735F9F3E785
S31500005D5494F83130022BEFD12046FFF7CDFF637E56
S31500005D642076022BE8D194F82E3003F0FF02002BA4
S31500005D74E2D102A901F8012DA068FFF77DF9237E7F
S31500005D841BB194F82F30002BD8D00023A06884F8D8
S31500005D942F30FFF731F9CFE70083002038B50446EA
S31500005DA401F0A5FA616B05460139616319B9044A24
S31500005DB4012005F04FFA2846BDE8384001F09DBAA7
S31500005DC414B4030038B5044601F091FA636B054632
S31500005DD423B90121054A084605F03CFA636B2846B7
S31500005DE401336363BDE8384001F087BA14B4030095
S31500005DF4012230B590F8324087B080F82C207CB967
S31500005E04094D0368CDE9024504904C682433CDE975
S31500005E1400240A684169C068FFF7B4F807B030BDCA
S31500005E24002380F82C30F9E7896700000123F0B5D8
S31500005E3480F82D3090F8323089B004460E4663BBA4
S31500005E44056801F054FA0DF11F01074615483C3563
S31500005E54FFF71AFB40B99DF81F302BB11148FFF725
S31500005E64D1FA2046FFF79AFF3846012701F045FA92
S31500005E74204684F83870FFF7A5FF0B4B0494039370
S31500005E840023029373682A46CDE9007321693368B7
S31500005E94A068FFF75DF809B0F0BD002380F82D3047
S31500005EA4F9E700BFF88C0020B15E0000F0B585B0BC
S31500005EB403A9906A1446FFF7A1FE0646206801F07E
S31500005EC479FE0546FFF7B4FB24214143B1FBF5F106
S31500005ED400252346CDE90055164A01311648FFF739
S31500005EE4EFFA164B9E421FD0039B1D619D6001F085
S31500005EF4FEF9039A0746D66826B1D2E90023294655
S31500005F042046B04703A9A06AFFF792FEA06A8388D9
S31500005F149BB263B103A9FFF771FE03992046FFF70D
S31500005F2485FF384601F0E9F9012005B0F0BD84F893
S31500005F342D30F6E7455F0000F88C00200B7000F06A
S31500005F4473B508680D46846914F0200407D0084622
S31500005F54FFF724FF022385F8383002B070BD01F044
S31500005F6429FE0646FFF764FB24225043B0FBF6F0F5
S31500005F74CDE90044411C2B46024A0348FFF7A0FA28
S31500005F84EBE700BF455F0000F88C00202DE9F341E4
S31500005F940D460446002800F0868001F0A8F9012D7C
S31500005FA4064637D1A36A9B889BB2002B39D0A068DA
S31500005FB4FFF742F80023A06A84F82D3083889BB249
S31500005FC4002B34D1226893699B04FCD5023D012D34
S31500005FD41BD8E068FFF730F80023606A84F82C3099
S31500005FE483889BB2002B41D194F83130032B0CD01B
S31500005FF442F2AC52042123795B0103F1804303F599
S3150000600470339950022223685A61304601F075F9BB
S31500006014002009E0022D48D1636A9B889BB2002BBD
S31500006024D4D101F06AF9264802B0BDE8F08101A98D
S31500006034FFF7E4FD0199A0680831FFF745F8214F01
S31500006044019B1F61A06A83889BB2002BBAD001A969
S31500006054FFF7EEFD019BD3F80C80B8F1000FF1D0E9
S315000060649B68002239462046C047EBE76946FFF79E
S31500006074C5FD0099E0680831FFF726F8114F009B2B
S315000060841F61606A83889BB2002BADD06946FFF717
S31500006094CFFD009BDD68002DF3D09B6800223946B6
S315000060A42046A847EDE70848BEE7032D8ED1A36A2C
S315000060B49B889BB2002B7FF47AAF636A73E700BFB9
S315000060C4087000F0097000F0027000F00368986927
S315000060D47047436A9888C0B270472DE9F3419846E1
S315000060E400230546406A0E4684881746A4B2CDE9C5
S315000060F400333CB16946FFF781FD01A90446E8680F
S31500006104FEF7E2FF009969B164B94868019BC01AB9
S315000061143860C8F800300B6833602B68986902B0A1
S31500006124BDE8F0810021C8F8001039603160F4E759
S31500006134836A9888C0B270472DE9F34198460023D4
S315000061440546806A0E4684881746A4B2CDE9003314
S315000061543CB16946FFF752FD01A90446A868FEF75B
S31500006164B3FF009969B164B94868019BC01A3860E5
S31500006174C8F800300B6833602B68986902B0BDE834
S31500006184F0810021C8F8001039603160F4E7007E20
S3150000619470472DE9F04104460F461546FFF71CFDEE
S315000061A4064678BB152001F0C7F88046A26A938894
S315000061B49BB213B194F82E303BB323689B6913F05A
S315000061C4020802D12046FFF7E5FC012384F83030AB
S315000061D494F8323033B93D44AF4220681BD1836909
S315000061E49B06FCD5B8F1000F0CD142F2AC5210213B
S315000061F423795B0103F1804303F570339950082238
S3150000620423685A613046BDE8F081B8F1000FCED05C
S31500006214FEF77CFFCAE717F8011B01F09FFDDBE7D9
S3150000622410B5044680B190F82E302BB9FFF764FD03
S3150000623410B9A068FEF7C0FE002094F82E30013392
S31500006244DBB284F82E3010BD0048FCE7027000F083
S3150000625410B50446A0B190F82E309BB190F82E30BC
S31500006264012B05D1FFF748FD10B9A068FEF7C4FE5F
S31500006274002094F82E30013BDBB284F82E3010BD9A
S315000062840148FCE70148FAE7027000F0057000F0E7
S3150000629437B590F831500446022D1ED1012190F8ED
S315000062A42220457E837F01FA02F23020154925B962
S315000062B400FB031342F2100105E0012D07D100FB98
S315000062C4031341F210015A50002003B030BD247E5E
S315000062D400FB0313002CF4D1ECE7012DF4D1037E6B
S315000062E473B911238DF80730FFF79AFF2A460DF18B
S315000062F407012046FFF74DFF2046FFF7A9FFE3E716
S315000063041323EFE700C00340F0B504468BB0A24F59
S3150000631403AE0D460FCF0FC697E8070086E80700C1
S315000063241CB99E4C20460BB0F0BD0DB99C4CF9E748
S315000063343C220021204634F0FCFF9A499A4B0A7805
S315000063442AB9C3E90022C3E9022201220A70002203
S3150000635453F822108C420AD00132042AF8D10022C2
S3150000636453F82210002940F0D08043F822402B7DB8
S31500006374286884F831300023206084F832302B7B7F
S315000063842371012384F83830884B984240F0C28048
S31500006394212384F82330864B23614FF4802300267F
S315000063A46361D5E90723626216805680968084F875
S315000063B42C60A3621E805E809E806B6803A9059391
S315000063C4EB8984F82D60ADF81C302B8A84F82F6095
S315000063D4ADF81A30AB7C8DF80C608DF81830EB7C78
S315000063E48DF81E3005238DF8193001F039FC14217F
S315000063F42A7B704B287A03EB4217C7F8AC15A97AA7
S315000064042E3240EA014C03EB4213C3F804C06A7A05
S31500006414EB7A42EA034CC7F8BCC5E17784F820302E
S315000064246B7DE07622776377AB7D042284F8213096
S31500006434EB7DA3772B7E84F82230012301F050F8FC
S315000064440123022294F82010207F01F049F894F8E1
S315000064543130022B75D13346012294F82110607F26
S3150000646401F03EF83346042294F82210A07F01F08E
S3150000647437F8012394F82120607F1146CDE90033D3
S3150000648400F0D4FF00F033FF2E7D0746032E69D1BA
S3150000649441F2AC5202212B7B04205B0103F18043C1
S315000064A403F57033995041F25C0229688850297EBD
S315000064B4EA7D42EA014241F2B8515A50A97D6A7D09
S315000064C442EA014241F2B4515A504FF0FF3242F2CD
S315000064D448032868C2502B7D032B0CBF05210421D9
S315000064E401F078FB4FF440622B685A61FEF7FAFC20
S315000064F4002104F10800FEF783FC0146002842D07F
S315000065042D4C384600F0F9FE0CE70132042A7FF4DC
S3150000651427AF06E7294B984207D1222384F8233074
S31500006524274B23614FF4A02339E7264B98427FF487
S31500006534FDAE232384F82330234B23614FF4C02379
S315000065442DE7032B9ED1334694F82110607F012258
S3150000655400F0C6FF3346042294F82210A07F00F010
S31500006564BFFF8FE7022EB0D194F821001749FEF73A
S315000065742BFEFEF71BFE00236676A37623762046C3
S31500006584FFF786FEA1E704F10C00FEF739FC04468A
S315000065940028B6D0B4E700BFF8B30300027000F0D9
S315000065A4037000F0DD8A002000830020008005408F
S315000065B40200040000C003400E7000F000C0054055
S315000065C4020005000000064002000600255D0000EA
S315000065D490F83130032B05D00229417618BF017695
S315000065E4FFF756BE00487047057000F030B5044604
S315000065F485B0002800F08F80484B1B7843B10023F8
S31500006604474A52F823108C4270D1002142F82310D5
S3150000661403212046FFF7BAFC00212046FFF7D8FFE6
S315000066240023E17F1A46E07E00F05AFF002394F827
S3150000663420101A46207F00F053FF94F83130022BC5
S3150000664458D1002394F821101A46607F00F048FFC1
S31500006654002394F822101A46A07F00F041FF00217F
S31500006664012394F82120607FCDE90031114600F022
S31500006674DDFE94F8323013B90A2223685A6194F87D
S315000066843130022B04D1002194F82100FEF79CFD41
S31500006694A068FEF701FCE068FEF7FEFBFEF7DCFBF4
S315000066A40023626A138053809380A26A1380538006
S315000066B4938000F01CFE0DF10F0105461948FEF704
S315000066C4E3FE28B99DF80F3013B11648FEF79AFE7B
S315000066D4284600F012FE636B002B04DD01232046DE
S315000066E46363FFF75BFB002005B030BD0133042B69
S315000066F487D18DE7032BBCD1002394F821101A46C9
S31500006704607F00F0EDFE002394F822101A46A07F65
S3150000671400F0E6FEADE70448E6E700BFDD8A0020A8
S3150000672400830020F88C0020027000F0F0B587B0DA
S3150000673404461646FFF750FA0546E8B90493104B8B
S31500006744CDE901166A4601A9606A03960593FFF727
S3150000675495FA054680B994F82C306BB92046FFF7B4
S315000067642AFA0099FFF744FB94F83130032B03D03F
S3150000677425762046FFF78CFD284607B0F0BD00BFFE
S31500006784017000F073B5506A01A91446FFF736FA92
S315000067942F4B984230D094F83200019B002839D10F
S315000067A42268916C11F4007129D02A499860196104
S315000067B442F248034FF40071D15000F098FD01995C
S315000067C40646CD6835B14A688B682046D31A0A68EE
S315000067D40969A84701A9606AFFF72AFA606A8588E9
S315000067E4ADB2DDB101A9FFF709FA01992046FFF719
S315000067F4FFFA304600F081FD012002B070BD906CB6
S31500006804C00507D51448996018614FF4807142F2A7
S315000068144803D1E700221A619A60CEE70123204695
S315000068242376FFF735FD94F8313084F82C50032B8A
S31500006834DFD042F2AC52042123795B0103F1804399
S3150000684403F570339950022223685A61D1E700BFD9
S315000068540B7000F00D7000F00C7000F090F8312011
S3150000686410B5012A034610D102290ED0827E8A422F
S3150000687401D1002010BD997611B9FFF7E9FCF8E7BC
S315000068840129F6D1FFF7CCFCF3E70148F2E700BF94
S31500006894057000F0F0B587B004461646FFF79CF97C
S315000068A4054638BB0493154B039605932368CDE937
S315000068B401169B699B0702D42046FFF76BF96A46CB
S315000068C401A9A06AFFF7DAF9054698B994F82D30BC
S315000068D483B900F00CFDA36A06469B889BB233B1CC
S315000068E400992046FFF7A2FA012384F83030304697
S315000068F400F003FD284607B0F0BD00BF017000F0AC
S3150000690470B588B00E22002104A834F012FD0123CC
S315000069140D22002168468DF8103034F00AFD02235A
S31500006924244C6A46002120468DF8063001F078F89A
S31500006934236B4FF6FF73204EE36100233546ADF813
S31500006944123004A9204601F01EF8062000F0D8F9FA
S31500006954BDF812300133B0FBF3F09BB2B3F5806F90
S315000069643060ADF8123002D2144B9842E9D80F20A9
S3150000697400F0C6F91249134CB1FBF0F12868002562
S31500006984E1FB0045104A00232046294634F0DCFA90
S315000069940E4B084A186000200D4B1870936923F0BB
S315000069A41003936140220B4BC3F880211A6008B090
S315000069B470BD00BF00800440007F002080841E005C
S315000069C400B0710B20A1070040420F00B07F0020E9
S315000069D4D38A002000E100E0054B5A69D20606D5A9
S315000069E442F21402102199500122024B1A70704788
S315000069F400800440D38A002038B5124B0546D3F8EC
S31500006A0420310C4603F00703013B032B17D8DFE8BC
S31500006A1403F0020A0E1201F015FA042305B12860E8
S31500006A2404B1237038BD01F043FA0323F6E701F0FD
S31500006A345BFA0523F2E701F053FA0223EEE700239B
S31500006A441846EBE70080004037B50C460021114B91
S31500006A540191D3F88031054603F00303022B0ED0CF
S31500006A64032B11D0012B03D101A8FFF7C5FF0D217C
S31500006A740DB1019B2B6004B1217003B030BD01F050
S31500006A8433FA05210190F3E701F02AFA0221019075
S31500006A94EEE700BF0080004038B5104B0546D3F83A
S31500006AA440310C4603F00303022B0BD0032B0DD00D
S31500006AB4012B0FD101F05CFA082305B1286004B15B
S31500006AC4237038BD01F05AFA0723F6E701F053FAAA
S31500006AD40923F2E700231846EFE700BF00800040D1
S31500006AE438B5104B0546D3F860310C4603F0030362
S31500006AF4022B0BD0032B0DD0012B0FD101F038FA4A
S31500006B04082305B1286004B1237038BD01F036FAB4
S31500006B140723F6E701F02FFA0923F2E700231846C4
S31500006B24EFE700BF0080004038B5134B0546D3F8A5
S31500006B3400320C4603F00703013B032B18D8DFE8A9
S31500006B4403F0020A0E1201F013FA082305B12860B5
S31500006B5404B1237038BD01F011FA0723F6E701F0FA
S31500006B640AFA0923F2E701F08DF90C23800AEDE70E
S31500006B7400231846EAE700BF0080004038B5134BEF
S31500006B840546D3F808320C4603F00703013B032BF2
S31500006B9418D8DFE803F0020A0E1201F0E9F9082317
S31500006BA405B1286004B1237038BD01F0E7F9072365
S31500006BB4F6E701F0E0F90923F2E701F063F90C23A3
S31500006BC4800AEDE700231846EAE700BF008000408C
S31500006BD438B5104B0546D3F840320C4603F0030390
S31500006BE4022B0BD0032B0DD0012B0FD101F0C0F9D2
S31500006BF4082305B1286004B1237038BD01F0BEF93D
S31500006C040723F6E701F0B7F90923F2E7002318464C
S31500006C14EFE700BF0080004038B5104B0546D3F8B7
S31500006C2400310C4603F00303022B0BD0032B0DD0CB
S31500006C34012B0FD101F03CF9032305B1286004B1FF
S31500006C44237038BD01F09AF90723F6E701F046F9F7
S31500006C540623F2E701230020EFE700BF008000408F
S31500006C6441F671320F4B10B5D969DA639A680E4C46
S31500006C7422F44012A04288BF42F480129A600B4A62
S31500006C840B4CD2F81832A04223F0020388BF43F01B
S31500006C94020301F48031C2F8183211B10022014B0B
S31500006CA4DA6310BD00000340C017530200C007405A
S31500006CB480F0FA0208B501F0F7F8BDE80840FFF7DE
S31500006CC4CFBF000002280CD007D8012814D10B4BE3
S31500006CD4186FC0F3013001307047032807D00F281E
S31500006CE4F4E7064BD3F89000C0F30460F3E7034BD4
S31500006CF4186FC0F38020EEE70020ECE70080004028
S31500006D04002307B50193252817D8DFE800F0131AE6
S31500006D141D262B353A3F44494E535866161A3F16DC
S31500006D2416441A262B26351A3F26663A3A3A3A2646
S31500006D342626494E01F08CF80190019803B05DF8BF
S31500006D4404FB01F09FF8F7E701F082F802460220FF
S31500006D54FFF7B8FFB2FBF0F0EEE701F093F8024656
S31500006D640320F5E701F08EF802460320FFF7AAFF99
S31500006D74B2FBF0F04008DFE7002101A8FFF764FE4C
S31500006D84DBE7002101A8FFF737FED6E7002101A8BB
S31500006D94FFF782FED1E7002101A8FFF7A1FECCE7A9
S31500006DA4002101A8FFF7C0FEC7E7002101A8FFF7ED
S31500006DB4E5FEC2E7002101A8FFF72EFFBDE7094B58
S31500006DC4D3F8803003F00303022BBAD0032B01D08F
S31500006DD40020B1E701F088F8AEE7002101A8FFF72B
S31500006DE4F7FEAAE70080004002280AD002D801284C
S31500006DF404D0704703280FD00F2815D1084600F099
S31500006E042BB80A4A0139D2F8903023F0F85343EAF2
S31500006E140161C2F890107047044A0139136F23F4D4
S31500006E24806343EA81211167704700BF00800040F8
S31500006E3402210320FFF7D8BF08B50120FFF760FF42
S31500006E44BDE80840034988428CBF02210121032082
S31500006E54FFF7CABF80F0FA0210B50446FFF72AFF0F
S31500006E64FFF7E6FF074A013C106F20F4405040EA62
S31500006E740430106701F006F8FFF7F2FEBDE8104093
S31500006E84FFF7DABF00800040002307B58DF807300E
S31500006E94252822D8DFE800F013212121212C3238BD
S31500006EA43E444A50566921213821213E212121217F
S31500006EB42C2138216932323232212121444A2E4B87
S31500006EC41B6F03F00703013B032B06D8DFE803F02F
S31500006ED40E020A0C04238DF807309DF8070003B050
S31500006EE45DF804FB0323F6E70623F4E70223F2E73F
S31500006EF40DF107010020FFF7A7FDEEE70DF10701ED
S31500006F040020FFF779FDE8E70DF107010020FFF700
S31500006F14C3FDE2E70DF107010020FFF7E1FDDCE721
S31500006F240DF107010020FFF7FFFDD6E70DF107017C
S31500006F340020FFF723FED0E70DF107010020FFF73D
S31500006F446BFECAE70C4BD3F8803003F00303022B25
S31500006F5403D0032B05D00023BDE700F093FF0B23DA
S31500006F64B9E700F0C1FF0523B5E70DF107010020DD
S31500006F74FFF72EFEB1E700BF0080004070B50C4657
S31500006F84252849D8DFE810F02600480048004800C4
S31500006F9448005C006D007E008F00A000B100C200B6
S31500006FA4D300E400480048007E00480048008F00F3
S31500006FB448004800480048005C0048007E0048003D
S31500006FC4E4006D006D006D006D0048004800480047
S31500006FD4A000B1008B1E042B2FD8DFE803F02B1E74
S31500006FE4032E280000250226FFF764FEFFF720FF84
S31500006FF4604A136F23F007033343136700F042FF1D
S31500007004FFF72EFEFFF718FF35B9032C04D142F221
S3150000701428030121584AD15070BD41F228020121AA
S31500007024554B03269D6A9950C5F34005DCE70025B8
S315000070340426D9E700250126D6E700252E46D3E700
S315000070448C1EE4B20B2C8CBF00214C4B494A98BFD2
S31500007054195DD2F8803123F003030B43C2F8803163
S31500007064DAE78C1EE4B2032C8CBF0021444B414A60
S3150000707498BF195DD2F8203123F007030B43C2F8F9
S315000070842031C9E7CC1FE4B2022C8CBF00213D4B52
S31500007094384A98BF195DD2F8403123F003030B43F5
S315000070A4C2F84031B8E7CC1FE4B2022C8CBF0021F1
S315000070B4354B304A98BF195DD2F8603123F003038B
S315000070C40B43C2F86031A7E7CC1FE4B2052C8CBF92
S315000070D400212E4B274A98BF195DD2F8003223F0BF
S315000070E407030B43C2F8003296E7CC1FE4B2052C23
S315000070F48CBF0021264B1F4A98BF195DD2F808326F
S3150000710423F007030B43C2F8083285E7CC1EE4B22A
S31500007114042C8CBF00211F4B164A98BF195DD2F868
S31500007124003123F003030B43C2F8003174E7052949
S315000071340CD00B290CBF022100210E4AD2F8803054
S3150000714423F003030B43C2F8803065E70321F4E719
S31500007154CC1FE4B2022C8CBF00210F4B054A98BF0A
S31500007164195DD2F8403223F003030B43C2F84032D0
S3150000717452E700BF0080004000C000401CB403007A
S3150000718428B403002CB403002CB403002FB403006A
S315000071942FB4030035B403002CB4030070B50446C1
S315000071A40020FFF771FE03287DD045F60E03434AFF
S315000071B40221C2F8803041F22803D15042F228035A
S315000071C40121D150916D11F48031FBD1637820787F
S315000071D41B0543EA0063A079657C0343E07843EA30
S315000071E40043207943EA0033607943EA801313614C
S315000071F49369E07A03F000430343E07943EA80634A
S31500007204207A43EA0063607A43EA0043A07A43EAB9
S3150000721400239361637B126A002B18BF0821207B2D
S3150000722422F00D0243EA020343EA800341EA030122
S31500007234A27B224B4FEA42161962207C34D1996A0A
S31500007244E27B21F0330141F00101314341EA0211AD
S31500007254996219461A4A9E6D32EA0606FBD141F234
S31500007264280202269E508B6D5B00FCD40B69A27823
S3150000727423F4700343EA02530B614FF0004241F2D8
S315000072841803CA5018B942F228030222CA5025B973
S3150000729442F228030121094AD150A37C1BB1074BB2
S315000072A4084AC3F8802070BD9A6A22F033022A4342
S315000072B4324342EA40029A62EFE700BF00C0004050
S315000072C403000140F1A7FFFF72B6704762B670472C
S315000072D4EFF3108072B6704700B962B67047302378
S315000072E483F311887047002383F311887047EFF303
S315000072F41180302383F31188704780F31188704717
S31500007304EFF31083DB0706D4EFF311802F2894BF25
S31500007314002001207047012070470000054A4109FA
S3150000732400F01F0352F82100D840C04300F00100CA
S31500007334704700BF00E100E010B50446EFF3108388
S31500007344DB0733D4FFF7EAFF00282ED1002CABBFAE
S3150000735404F16044164B04F5614404F00F04ACBF19
S3150000736494F800231A5D1209EFF3118313B1B2EBFB
S31500007374131F1BD20F4C6368C3F30803ABB1103B56
S31500007384DBB259B20029B5BF03F00F0301F1604324
S31500007394043B03F56143B6BF1B1993F80003187E3B
S315000073A40009824234BF0020012010BD0120FCE701
S315000073B414ED00E000ED00E0084A10B51369044638
S315000073C443F00403136104F009F930BF04F01AF919
S315000073D41CB9BDE8104000F055BD10BD00ED00E03D
S315000073E4FFF7EABF704770474FF040234AF6E8506C
S315000073F4DA6ED96E22F0030242F0020241F0030172
S315000074041866DA66D966DA66D966DA66D966DA6637
S31500007414D966DA6670474FF04022D36E017923F0BD
S3150000742430030B43D366704770470000072A2DE9E3
S31500007434F84305460C46174698461ED803264FEAD7
S315000074448209FFF745FF1F4B05FA09F51A6806FA84
S3150000745409F65540354055401D60FFF73DFFFFF7DF
S3150000746437FF194B04F003041A6804FA09F454406C
S31500007474344054401C60FFF72FFF144B144A9DF808
S315000074842010B8F1000F14BF98469046012202FA64
S3150000749407F7104A0433002908BF1346C8F80070DA
S315000074A41F6042F220430C4A9DF82410D7500B4B20
S315000074B402F510522432002908BF13461F60BDE8A6
S315000074C4F88300BF00C4034008C4034010D403403B
S315000074D410E4034014E4034000C0034024D40340F2
S315000074E4F0B54AB1012530241D4E8D4004FB0064DD
S315000074F40BB341F21006A55130244443072904F185
S31500007504804404F5703419D80F2765688E00B74097
S3150000751425EA070502FA06F63543656052B90122E3
S3150000752402FA01F130220E4C02FB0040A3B141F2F3
S315000075341003C150F0BD42F21006DCE70F2701F13B
S315000075448045083DE668AD00AF4026EA070602FA24
S3150000755405F53543E560E1E742F21003E9E700BFCC
S3150000756400C003404FF40012064BC3F88020BFF35B
S315000075744F8FBFF36F8F0022FF21034B5A65996229
S315000075845A60704700E100E000000440054B064ADB
S3150000759400290CBF19461146012303FA00F00860BE
S315000075A4704700BF401004404020044030B50478C2
S315000075B445788178C27801200F4B41EA05412406BB
S315000075C458609C609961FF2199620021996319644E
S315000075D44FF000414FF0FF30596542F250015850C8
S315000075E44FF4001005491301DBB2C1F8800181F89C
S315000075F41533086030BD00BF0000044000E100E020
S315000076042DE9F0410C4601264FF0300EC3B29E40E0
S31500007614204D23688F7A91F80B8094F80DC0097B6E
S3150000762445F82030A5F580450EFB00504FEA085377
S3150000763443EA074343EA4153C0F860C0C36542F2D4
S31500007644500322F003020267EE50FFF750FE6B6D03
S3150000765433436B65237A13B12B6C33432B64637A00
S3150000766413B1AB6B3343AB6342F218012379A279AE
S3150000767442EA0342084B5A506179E27942EA0142EE
S3150000768441F218015A50054A16609E64BDE8F0415D
S31500007694FFF733BE00400440000004403420044099
S315000076A410B50124C0B28440FFF721FE044B5A6D85
S315000076B422EA04025A659C62BDE81040FFF71DBE2B
S315000076C400000440F8B50125C3B29D400446FFF707
S315000076D40EFE3022094B02FB04341E6D5F6B646E92
S315000076E4FFF70BFE3D4206D1C4F30A1008B9354232
S315000076F400D10130F8BD0020FCE700BF00000440C3
S3150000770441F67132034B0121DA6342F20C029950BD
S31500007714704700BF0000034041F67132044B01215B
S31500007724DA6342F20C0299500022DA63704700BF12
S31500007734000003404FF40032014B1A60704700BF4B
S31500007744705000404FF04023D3F8940070474FF038
S3150000775490435A6812B19A6A002AFAD17047000017
S31500007764CB784A7810B55B010C7843EA82030A7930
S31500007774234343EA02130C22424302F19042136369
S31500007784012C02BF8A78024B43F8202010BD00BFAB
S31500007794D080034008B54FF090435A6802B960B1EF
S315000077A45B680BB1FFF7D3FF4FF0904130B1012076
S315000077B4074B1860FFF7CBFFC86008BDFFF7C7FF8C
S315000077C40223CB60FFF7C3FF0122024B1A60F4E7E2
S315000077D404100048042000484FF090435B6870B5DD
S315000077E40BB1FFF7B4FF0121104B067919608378BA
S315000077F44578002BC37814BF02240024002B14BF41
S31500007804042200224379DB0043EA06132B43234375
S3150000781413434FF090429360054B19600378002B95
S3150000782414BF0B460223D36070BD00BF042000487A
S31500007834041000484FF098435A6CD202FCD5586D98
S3150000784400F470207047436813B9416070475B6861
S315000078545A68012AFBD159607047836813B981605D
S3150000786470475B685A68012AFBD159607047C3693F
S31500007874032B9FBF00EB83020133D160C3617047C2
S31500007884C369042B15D84FF09842116CC902FCD574
S3150000789404339B0013650168103B116041680C308A
S315000078A4116050F8041C034411604FF0984298424A
S315000078B400D1704750F8041B1160F8E770B58CB01E
S315000078C4144605461C220E4605A8002133F031FD58
S315000078D40D4B01960493012301A9029304A844F0D5
S315000078E400530393FFF7AFFF294604A8FFF7BFFF32
S315000078F4214604A8FFF7BBFF04A8FFF7C1FFFFF763
S3150000790499FF0CB070BD00BF00000943054B5B69CD
S31500007914C3F38512827003F03F021B0B427003709F
S31500007924704700BF00C0074030B5114CA04216D0C6
S3150000793404F58044A04214D004F58044A04212D039
S3150000794404F58044A0420CBF03204FF0FF30094CDD
S31500007954062553B105FB001044F8202030BD002055
S31500007964F5E70120F3E70220F1E71202F2E700BF90
S31500007974008004401C810340036BDA0702D50369C7
S315000079845B06F9D4704710B50446FFF7F5FF0122EC
S3150000799442F23003C2500B7948881B0243EA804303
S315000079A4487A03434878002814BF40200020034344
S315000079B4887A002814BF802000200343C87A002850
S315000079C414BF202000200343087B002814BF102086
S315000079D400200343487B002814BF082000200343EB
S315000079E48879002814BF4FF4803000200343636075
S315000079F441F23003E2500A780AB90223E360002315
S31500007A04C87963620B7A497943EA8003002914BF73
S31500007A14102100210B43A3600AB10123E36010BDCA
S31500007A2470B515460646FFF7A7FF42F2300301225A
S31500007A34C250EA79EC7A002A6A7A14BF4FF48010AD
S31500007A440020002A14BF10220022AB7943EAC44363
S31500007A540343134306EB411423662B7A33B32B7B80
S31500007A64226E304642EA4342226613F1FF3318BFC0
S31500007A740123AA78FFF758FF41F230030122F2509E
S31500007A846B782A781B0643EA8263EA7843EA023370
S31500007A942A7943EA82236A7943EA0223AA7A002AE4
S31500007AA414BF042200221343636670BD236E23664B
S31500007AB4E2E700000D4B984208D1A3F50033C3F862
S31500007AC48411C36D43F08003C3657047084B984225
S31500007AD404D1A3F51033C3F89411F2E7054B984289
S31500007AE404BFA3F52033C3F8A411EAE700800540D8
S31500007AF400C005400000064070B5054616461C4603
S31500007B0419B90320FFF7FCF80146202C08D001D848
S31500007B14ECB170BD402C18D0602CFAD1042200E0E0
S31500007B24082206FB02F35A0802EB4112B2FBF3F2F7
S31500007B34084B203A03EAC202AB6823F06003AB6049
S31500007B44AB681C43AC60EA61E3E70622E9E710226E
S31500007B54E7E700BFF8FF7F00F8B5154F14460F405E
S31500007B641ABB202B07D0402B07D0002B0CBF1025A7
S31500007B744025012603E01D46FBE780250326002356
S31500007B8407F580777E431946324633F0DDF95443D0
S31500007B9400FB05F705FB0344A2FB05010023214472
S31500007BA4324633F0D1F93844F8BD80250024E0E7A5
S31500007BB4F8FF7F0070B5044685680320FFF7A0F838
S31500007BC4A36805F00102E16903F06003BDE87040B3
S31500007BD4FFF7C2BF012241F20403C250CB439340D4
S31500007BE403F00A034361416111B942F20403C2502E
S31500007BF47047000041F204030122C25040F6AA6312
S31500007C0441F20502436100238360C365C26042F208
S31500007C14480210490361C361C36481500E4A8365F7
S31500007C24904206D00D49884203D001F5804188422E
S31500007C340BD19042036506D0084B984203D003F556
S31500007C448043984201D10023436542F20403012292
S31500007C54C2507047FFFF01000080054000C0054088
S31500007C6438B50D460446FFF7C5FF41F20403012269
S31500007C74C250AB7C1BB1836843F080438360EB7CCA
S31500007C841BB1297D2046FFF715FF2A8A6B7B204608
S31500007C941343EA891343E360D5E901122B7BFFF70B
S31500007CA42BFF6B7D1BB1A36843F48033A360AB7DCC
S31500007CB4EA7D1B07120502F4E00203F0E043297E85
S31500007CC41343A3658B1E012B1E4A1F4B21D89442D6
S31500007CD41BD002F58042944219D002F580429442A8
S31500007CE40CBF02224FF0FF3203EB4213022041F293
S31500007CF4AC52032998500CBF41F25C0342F25C0378
S31500007D040422E2502B78636138BD0022ECE701229D
S31500007D14EAE7944211D00D4A944210D002F580420B
S31500007D2494420CBF02224FF0FF3203EB42130220AF
S31500007D3442F2AC5201299850DDE70022F5E7012210
S31500007D44F3E700BF0080054000C0034000C00540C3
S31500007D5483691B06FCD5406AC0B2704783695B061B
S31500007D64FCD5C16370474369002B07DB39B9436A05
S31500007D74DB07FCD442F204030122C250704741F2ED
S31500007D840403F9E7436810B5DA0704460AD5FFF792
S31500007D94AEFA636ADB075CBF0123E360BDE810400B
S31500007DA4FFF7ABBA10BDF8B5436805460C4633B1C8
S31500007DB46B6A002BFCD142F204030122EA50637879
S31500007DC4227A002BA37814BF4FF0100C4FF0000C4E
S31500007DD4002BE37814BF02270027002B237914BF56
S31500007DE404260026002B637A14BF08200020002BEB
S31500007DF414BF4FF480710021E379120742EA03624B
S31500007E04A37942EA034343EA0C033B433343034364
S31500007E140B43AB6021782846FFF7A5FF63790BB1C6
S31500007E2400232B62F8BD0000044B054A9A60D3F880
S31500007E34882042F47002C3F88820704700ED00E001
S31500007E4400420000014B1868704700BF80530020B1
S31500007E54084B1B6F03F00703022B04D0032B05D03A
S31500007E64012B05D0FEE7044B18687047034BFBE76C
S31500007E74034870470080004080530020845300204C
S31500007E84002D310108B5FFF7E3FF054B1B6FC3F364
S31500007E9401330133B0FBF3F0024B186008BD00BF99
S31500007EA4008000407C5300200048704700B4C4049E
S31500007EB4014B1868704700BF84530020054B1860B7
S31500007EC4054B1B6F03F00703032B01D1FFF7DABF42
S31500007ED4704700BF84530020008000400020704794
S31500007EE400487047002D3101174B9868C0F30440D1
S31500007EF40C2826D8DFE800F0092525252525071BAB
S31500007F041D251F212300114870479B6803F0407309
S31500007F14B3F1807F07D0B3F1007F06D00C4A002B63
S31500007F2408BF104670470B4870470B4870470B480C
S31500007F3470470B4870470B4870470B4870470B480F
S31500007F4470470020704700BF0040014A405DC600EC
S31500007F5400093D0080841E0040420F000024F40006
S31500007F64C0EA210180BA8C010048E801005A620285
S31500007F744FF4004070474FF47A707047014B18680D
S31500007F84704700BF8853002008B528231B689B69E7
S31500007F94DB0205D5012803D840F2022027F032FA85
S31500007FA4012008BD28231B689868C0F30343C0F367
S31500007FB403621B0243EA0233C0B21843704700004F
S31500007FC470B50438C6B0FB2802F24380DFE810F02F
S31500007FD47C02411041104110C2024110411041106F
S31500007FE44110411041104110BC04AA044110411033
S31500007FF4810B0C0518057304820441105D054110BC
S315000080044110760545016F03F0031D018D044110EF
S3150000801441104E09411041104102CD02D40D450EC6
S31500008024050EF20DC10D320E720E411041104006BE
S31500008034E707A701D10666061707C6075A07850389
S31500008044FC00B4012A024110EA0401074C0641105F
S315000080544110411041104110411041105401980142
S315000080647F01411041104110B108A8074110411089
S315000080744110411041104110411041109E088205E3
S31500008084160830089505C0052A0610064110F9059C
S315000080946D084110290A970BB10BB20AC80A6F0A78
S315000080A4F90B280B41100C0C7B0DF80AD60B580C57
S315000080B4410C8A0A740A300C4110FE0168040C0350
S315000080C4411041104F08E305411041109F06E40E8C
S315000080D4810E030F1B0FF70E0F0FA50EBB0E8D0E91
S315000080E4CE0E990E4110411041104110411041101D
S315000080F441104110920741104110370524054110E3
S31500008104010141104110270F4110610F2610AA0FDB
S31500008114E00FF80F940F4110690C8B0C41104110BD
S31500008124411041108408480AC50F630A6C09AC095A
S31500008134100AE009411041104110F9045309411095
S315000081445F09A3091409CF09F80C42035903640310
S3150000815441104110AA0C4110E10C080D41104110C8
S3150000816441104110530BF2094A05370341103101FE
S31500008174D4092C09200986099209E2080809380954
S315000081844309640D800D9C0D900D540D4F0D411047
S315000081944110411041104110EC0F4110440F4110A1
S315000081A409101A10740F3F08411041104110D305ED
S315000081B46208B30D9E099F04330456041E04FB0390
S315000081C44110ED02CF08E2020EF046F9012046B056
S315000081D470BD12AB01930AAB00930CAA24ABB3494E
S315000081E4012024F0A9F9BDF848309DF828202499E7
S315000081F4BDF8300014F0ACFE46AA02F8EC0DAC490A
S31500008204002024F099F90120E1E724AB0CAAA9493E
S31500008214012024F091F924999DF8300005F05AFACA
S3150000822446AA02F8D00DA249002024F085F90120BF
S31500008234CDE70CAB24AAA049012024F07DF99DF8D2
S31500008244301024980AF042FA46AA02F8D00D98494A
S31500008254002024F071F90120B9E724A823F042FF95
S3150000826424A80DF077FA46AA02F8D00D904900200A
S3150000827424F062F90120AAE70CAA8D49012024F012
S315000082845BF924A99DF8300005F022FA46AA02F803
S31500008294D00D8749002024F04FF924A9082023F0A3
S315000082A40BFF9DF8980023F0CFFEBDF89A0023F04B
S315000082B4DBFE9DF89C0023F0C7FE9DF89D0023F08D
S315000082C4C3FE9DF89E0023F0BFFE01207FE78623B0
S315000082D40BAA774901208DF8483024F02DF924A9FA
S315000082E49DF82C0005F0FDF946AA12AB02F8E80D3C
S315000082F472490093002024AB24F01EF9012066E79E
S3150000830424A815F0B3FA46AA02F8D00D684900204D
S3150000831424F012F924A824F0D8F8012057E724A859
S3150000832415F0A0FA46AA02F8D00D24AB0020644941
S3150000833424F002F901204AE724A80EF0A1F846AA7F
S3150000834402F8D00D5A49002024F0F6F89DF8900062
S3150000835423F07AFE9DF8910023F076FE9DF89200B4
S3150000836423F072FE9DF8930023F06EFE9DF89400B0
S3150000837423F06AFE9DF8950023F066FE9DF89600AC
S3150000838423F062FE9DF8970000F0010023F05CFEE6
S315000083949DF89700C0F3400023F056FE9DF8970021
S315000083A4C0F3800023F050FEBDF8980023F05CFE75
S315000083B4BDF89A0023F058FE27A9082023F07CFE76
S315000083C49DF8A40023F040FE012000E70CAA3849DA
S315000083D4012024F0B1F824A99DF8300016F060FEBF
S315000083E446AA02F8D00D3249002024F0A5F8BDF8BB
S315000083F4900023F039FE9DF8920023F025FE9DF8A7
S31500008404930023F021FE9DF8940023F01DFE9DF8B1
S31500008414950023F019FE08200DF1960123F04CFE79
S315000084240120D4E6082246AB03F8EC2D254924AAFC
S31500008434012024F081F812A924A817F0A7FA46AA65
S3150000844402F8E80D12AB00201A4924F075F8012051
S31500008454BDE624A912A805F003F946AA02F8E80D18
S3150000846412AB1749002024F067F824A9082023F04A
S3150000847423FEBDF8980023F0F7FD9DF89A0023F03B
S31500008484E3FD9DF89B0023F0DFFD9DF89C0023F09F
S31500008494DBFDBDF89E0023F0E7FD9DF8A00023F068
S315000084A4D3FD299823F0F4FD012090E67CB4030063
S315000084B4CCB4030081B403009BB4030069C0030079
S315000084C4BBB40300EEC0030024A80DF0FBFF46AACC
S315000084D402F8D00DC849002024F02EF89DF890002B
S315000084E423F0B2FD9DF8910023F0AEFD9DF89200B5
S315000084F423F0AAFD9DF8930023F0A6FD9DF89400B1
S3150000850423F0A2FD9DF8950023F09EFD9DF89600AC
S3150000851423F09AFD9DF8970000F0010023F094FDE6
S315000085249DF89700C0F3400023F08EFD9DF8970058
S31500008534C0F3800023F088FDBDF8980023F094FD75
S31500008544BDF89A0023F090FD082027A923F0B4FD76
S3150000855401203CE60DF0E4FF46AA02F8880DA64980
S31500008564002023F0E9FF012031E6082312AC21465E
S3150000857424A88DF8303005F09AF846AA0CAB02F818
S31500008584EC0D9E4900930020019424AB23F0D4FF04
S3150000859401201CE60AF039FA46AA02F8880D964923
S315000085A4002023F0C9FF012011E60CAA92490120FC
S315000085B423F0C2FF24A99DF830000AF0ABF946AABD
S315000085C402F8D00D8C49002023F0B6FF9DF89000E8
S315000085D423F03AFD9DF8910023F036FD9DF89200B4
S315000085E423F032FD0120F2E50CAA8349012023F091
S315000085F4A3FF24A99DF8300015F0FEFB46AA02F855
S31500008604D00D7D49002023F097FFBDF8900023F09C
S315000086142BFDBDF8920023F027FD9DF8940023F06E
S3150000862413FD9DF8950023F00FFD9DF8960023F0A9
S315000086340BFD9DF8970023F007FD0120C7E504F024
S31500008644B1FF46AA02F8880D6B49002023F074FF97
S315000086540120BCE50BAA6849012012AC23F06CFF8B
S31500008664224624A99DF82C0004F09EFF46AA02F88F
S31500008674E80D24AB00200094614923F05DFF01203E
S31500008684A5E504F095FF46AA02F8880D5A4900208C
S3150000869423F052FF01209AE504F088FF46AA02F867
S315000086A4880D5549002023F047FF01208FE50CAAC9
S315000086B45149012023F040FF24A823F013FD24A9E7
S315000086C49DF830000DF00EF946AA02F8D00D4A497D
S315000086D4002023F031FF012079E50AAA464901204A
S315000086E423F02AFF1422002124A832F022FE23F0CC
S315000086F495FC8DF8900023F091FC8DF8910023F001
S315000087048DFC8DF8920023F089FC8DF8930023F0FC
S3150000871485FC8DF8940023F081FC8DF8950023F0F8
S315000087247DFC8DF8960023F079FC003018BF0120FB
S315000087349DF8973060F300038DF8973023F06EFCB4
S31500008744003018BF01209DF8973060F341038DF87F
S31500008754973023F063FC003018BF01209DF8973052
S3150000876460F382038DF8973023F088FCADF8980007
S3150000877423F084FC27A9ADF89A00082023F056FCC0
S315000087840CAB0BAA1F49012023F0D6FE9DF830300E
S315000087949DF92C2024A99DF828000CF025FF46AA53
S315000087A402F8D00D1449002023F0C6FE01200EE580
S315000087B40EF092FD46AA02F8880D0F49002023F018
S315000087C4BBFE012003E512AB00930BAA0CAB0E49CA
S315000087D4012023F0B1FE9DF848209DF830109DF845
S315000087E42C0019F09DFC46AA02F8880D02490020C7
S315000087F423F0A2FE0120EAE4CCB4030084B403000F
S3150000880488B403008FB4030096B4030012AB0CAA19
S31500008814C549012023F090FE9DF948109DF83000CB
S3150000882419F07CFC46AA02F8880DC049002023F002
S3150000883483FE0120CBE412AB02930CAB01930BAB8A
S3150000884400930DF126020AABB949012023F074FE08
S315000088549DF848409DF930309DF82C209DF828104D
S315000088649DF82600009419F055FC46AA02F8880DD6
S31500008874AE49002023F060FE0120A8E412AAAB4909
S31500008884012023F059FE9DF8480019F045FC46AA3C
S3150000889402F8880DA549002023F04EFE012096E437
S315000088A416F0ECFB46AA02F8880DA049002023F036
S315000088B443FE01208BE424A823F094FC24A80DF0A5
S315000088C479F846AA02F8D00D9849002023F034FE20
S315000088D401207CE409F0C6FF46AA02F8880D9349F4
S315000088E4002023F029FE012071E412AA8F490120F9
S315000088F423F022FE9DF848000CF036FA46AA02F848
S31500008904880D8A49002023F017FE01205FE432F027
S31500008914E8FA46AA02F8880D8449002023F00CFEE2
S31500008924012054E412AA8149012023F005FE9DF892
S31500008934480005F001FB46AA02F8880D7B49002091
S3150000894423F0FAFD012042E40AAB04930DF1260359
S31500008954039309AB029324AB019312AB00930DF17D
S3150000896422020CAB7349012023F0E6FD9DF8284052
S31500008974BDF8903002949DF82640BDF84820019435
S315000089849DF82440BDF830109DF82200009405F0AF
S31500008994D5FA46AA02F8EC0D6449002023F0CCFD72
S315000089A4012014E424A823F09DFD24A814F05CFF00
S315000089B446AA02F8D00D5D49002023F0BDFD012032
S315000089C405E412AA5949012023F0B6FD9DF8480092
S315000089D40CF03AFC46AA02F8880D5449002023F00C
S315000089E4ABFD0120FFF7F3BB24AA0120524923F073
S315000089F4A3FD524BBDF8902001201A80FFF7E7BB78
S31500008A0424AA01204C4923F097FD4D4BBDF8902034
S31500008A1401201A80FFF7DBBB12AA4449012023F088
S31500008A248BFD9DF848000CF0DBFB46AA02F8880D86
S31500008A343E49002023F080FD0120FFF7C8BB12AA9F
S31500008A444049012023F078FD9DF9480009F0B4FF60
S31500008A5446AA02F8880D3549002023F06DFD012051
S31500008A64FFF7B5BB12AA3149012023F065FD9DF835
S31500008A74480004F095FD46AA02F8880D2B4900200B
S31500008A8423F05AFD0120FFF7A2BB0CAB00930BAAFF
S31500008A9424AB2D49012023F04FFD9DF83020249965
S31500008AA49DF82C0009F064FD46AA02F8D00D1F4972
S31500008AB4002023F041FD0120FFF789BB09F0F8FDF2
S31500008AC446AA02F8880D1949002023F035FD012035
S31500008AD4FFF77DBB12AA1549012023F02DFD9DF851
S31500008AE4480013F0B8FD46AA02F8880D0F49002085
S31500008AF423F022FD0120FFF76ABB08230CAA0B49C9
S31500008B0401208DF8483023F017FD24A99DF8300084
S31500008B1414F090FB002012AB24AA0C4923F00CFDA0
S31500008B240120FFF754BB00BFEEB60300CCB403002C
S31500008B348CB4030092B4030086B40300165A0020D2
S31500008B441C5A0020B1C003009AB40300EEC003000F
S31500008B5412AAC149012023F0EFFC9DF8480014F045
S31500008B6481FB46AA22F8880DBC49002023F0E4FCC8
S31500008B740120FFF72CBB24A80DF030FC46AA02F80E
S31500008B84D00DB549002023F0D7FC24A823F0F1FA30
S31500008B940120FFF71CBB082246AB03F8E82DB049B9
S31500008BA424AA012023F0C8FC24A814F05DFC46AADC
S31500008BB402F8D00DA849002023F0BEFC0120FFF7DF
S31500008BC406BB0CAAA449012023F0B6FC24A99DF8EF
S31500008BD4300004F013FD46AA02F8D00D9E49002089
S31500008BE423F0AAFC24A823F0B1FA0120FFF7EFBA78
S31500008BF4082312AA994901208DF8303023F09CFCF1
S31500008C0424A9BDF848000AF0C1F846AA0CAB02F83C
S31500008C14EC0D94490093002024AB23F08DFC012035
S31500008C24FFF7D5BA082246AB03F8E82D8C4924AAE7
S31500008C34012023F081FC24A80AF076F846AA22F83B
S31500008C44D00D8649002023F077FC0120FFF7BFBA38
S31500008C5412F002FA46AA02F8880D7F49002023F092
S31500008C646BFC0120FFF7B3BA0CAB009324AA0BAB41
S31500008C747D49012023F060FC9DF830209DF82C10DE
S31500008C84BDF8900004F0ACFA46AA02F8D00D724979
S31500008C94002023F051FC0120FFF799BA08AB0BAA78
S31500008CA47249009301200CAB23F046FC24A823F060
S31500008CB435FA09AB12AACDE9003202930DF121026D
S31500008CC40DF122036A49012023F036FC129B0AACFB
S31500008CD403939DF824309DF8202002939DF82230BA
S31500008CE4BDF8301001939DF82130BDF82C00009397
S31500008CF4049424AB04F0EEFB46AA02F8F20D2346D4
S31500008D0400205C4923F018FC0120FFF760BA082311
S31500008D148DF821308DF826300DF1220302930BAB2A
S31500008D2401930DF12103009308AA12AB52490120C5
S31500008D340AAE0CAD24AC23F0FFFB9DF82230BDF83F
S31500008D442C2012A99DF8200002960195009404F0A7
S31500008D5431FC46AA0DF1260302F8F40D46490093A8
S31500008D640020CDE90156234623F0E6FB0120FFF758
S31500008D742EBA0CAA3949012023F0DEFB24A823F0DD
S31500008D84CDF90DF1260312AACDE9003202930DF1B5
S31500008D94220209AB3649012023F0CEFB12990BAC13
S31500008DA401919DF826109DF824309DF8222000910B
S31500008DB4BDF8300024A9029404F018FB46AA02F870
S31500008DC4F00D234600202B4923F0B6FB0120FFF7C4
S31500008DD4FEB90CAB24AA2949012023F0ADFB9DF86A
S31500008DE43010BDF890000EF053FE46AA02F8D00DDE
S31500008DF41949002023F0A0FB0120FFF7E8B924A8B5
S31500008E0423F08CF90AAB12AACDE9013203930DF1D2
S31500008E14260300930DF1220209AB1949012023F020
S31500008E248BFB12980CAC01909DF828009DF8263017
S31500008E349DF824209DF822100090029424A804F0A2
S31500008E44E1FA46AA02F8EC0D23460020094923F06C
S31500008E5473FB0120FFF7BBB9CCB4030086B403004F
S31500008E64EEC0030069C003009EB40300A2B403006D
S31500008E74ACB40300BBB40300A6B40300A8B4030057
S31500008E84ABB4030024A823F049F90DF1260312AA72
S31500008E94CDE90332059309AB02930DF12203019345
S31500008EA40CAB009308AA0DF12103C049012023F05D
S31500008EB443FB12980BAC03909DF82600BDF83030A6
S31500008EC402909DF824009DF8212001909DF822002F
S31500008ED49DF820100090049424A804F0C1FA46AA30
S31500008EE402F8F00D23460020B14923F025FB0120AA
S31500008EF4FFF76DB90CAA009224ABAE49012023F00A
S31500008F041BFB24999DF8300004F087FA46AA02F860
S31500008F14D00DA949002023F00FFB0120FFF757B914
S31500008F240CAB0AAA02930BABCDE90023A34924ABED
S31500008F34012023F001FB9DF830309DF82C20249964
S31500008F449DF8280004F076FA46AA02F8D00D9A494C
S31500008F54002023F0F1FA0120FFF739B90CAA984949
S31500008F64012023F0E9FA24A823F0D8F80AAA0092EB
S31500008F7412AB9049012023F0DFFA129B9DF82820BA
S31500008F8424A9BDF8300004F0DFFA46AA02F8EC0D75
S31500008F948949002023F0D0FA0120FFF718B90CAB59
S31500008FA40DF122028749012023F0C6FA24A823F0F2
S31500008FB4B5F80DF1260312AA01930092824909AA73
S31500008FC4012023F0B9FA129A0BAC01929DF82620DF
S31500008FD49DF82430BDF8301000929DF8220024AA92
S31500008FE4029404F0FBF946AA02F8F00D2346002089
S31500008FF46F4923F0A1FA0120FFF7E9B808238DF899
S3150000900430300CAB0BAA0093704924AB012023F03B
S3150000901493FA24A99DF82C0014F04AFA46AA02F8F9
S31500009024D00D6549002023F087FA0120FFF7CFB859
S3150000903424AB12AA6349012023F07EFA9DF8480066
S31500009044BDF8901014F0C4F80120FFF7C0B824A8A6
S315000090540DF0F0F946AA02F8D00D5749002023F086
S315000090646BFA24A823F085F80120FFF7B0B808228C
S3150000907446AB03F8E82D12AA0092554924AA01200A
S3150000908423F05AFA24A89DF8481014F055FA012042
S31500009094FFF79DB824AA4F49012023F04DFA2498DE
S315000090A410F056F80120FFF792B80CAA42490120A5
S315000090B423F042FA24A823F053F824A99DF830009B
S315000090C404F0B4FA46AA02F8D00D3B49002023F076
S315000090D433FA0120FFF77BB80BAB24AA0193009265
S315000090E43D4912AA012023F027FA249A9DF82C1050
S315000090F4BDF848001EF0D5FC46AA02F8E80D2E4934
S31500009104002023F019FA0120FFF761B812AA2A49B0
S31500009114012023F011FA9DF8480004F0E0FA46AA6B
S3150000912442F8880D2B49002023F006FA0120FFF7A8
S315000091344EB808238DF8283012AB01930AAB00937E
S315000091440CAA24AB2549012023F0F6F9BDF84820E2
S3150000915424A9BDF8300004F0C0FA46AA02F8EC0DC2
S315000091641549002023F0E8F90120FFF730B812AAC8
S315000091741149012023F0E0F99DF848000CF012F89B
S3150000918446AA02F8880D0C49002023F0D5F90120DF
S31500009194FFF71DB827F0ECF846AA42F8880D0D49EA
S315000091A4002023F0C9F90120FFF711B8B1B4030078
S315000091B4BBB403006EC00300CCB40300B9B403000F
S315000091C486B40300D5B40300ADB4030069C003003C
S315000091D4CBB4030082B40300BEB40300C2B40300DC
S315000091E427F0CCF846AA42F8880DCB49002023F094
S315000091F4A3F90120FEF7EBBF27F091F846AA02F87F
S31500009204880DC649002023F097F90120FEF7DFBF39
S3150000921424AAC349012023F08FF9BDF8900027F052
S315000092249BF80120FEF7D3BF24AABC49012023F0F2
S3150000923483F99DF8900026F0F9FB0120FEF7C7BFDD
S3150000924424AAB549012023F077F9249827F09CF83D
S315000092540120FEF7BCBF24AAAF49012023F06CF914
S31500009264249827F097F80120FEF7B1BF27F004F8F9
S315000092740120FEF7ACBF26F0E6FC46AA02F8880DEC
S31500009284A649002023F058F90120FEF7A0BF24A91F
S3150000929412A827F035F812A822F0DAFF24A823F042
S315000092A408F80120FEF793BF24A822F0ADFF0CAB0B
S315000092B40BAA9C49012023F03FF99DF930209DF823
S315000092C42C1024A823F0A2FA46AA02F8D00D93493A
S315000092D4002023F031F90120FEF779BF26F0AEFA1B
S315000092E446AA02F8880D8D49002023F025F90120AD
S315000092F4FEF76DBF26F02AFC46AA02F8880D8749B8
S31500009304002023F019F90120FEF761BF26F012FCB4
S315000093140120FEF75CBF24A822F0B3FF24A826F0A0
S31500009324F8FF0120FEF753BF12A9102022F07EFE9B
S3150000933422F0B8FE249022F071FE0DF195018DF80D
S315000093449400102022F072FE0DF1A501102022F0E7
S315000093546DFE24A912A826F0F2FA46AA02F8E80D30
S315000093646E49002023F0E8F80120FEF730BF27F00D
S31500009374C0FF0120FEF72BBF24AA6849012023F071
S31500009384DBF89DF8900026F051FC0120FEF71FBF84
S3150000939424AA6149012023F0CFF8249826F008FC7A
S315000093A446AA02F8D00D5D49002023F0C5F8012035
S315000093B4FEF70DBF22F076FE249022F02FFE0DF16B
S315000093C495018DF89400102022F030FE0DF1A501D0
S315000093D4102022F02BFE24A826F0ACFA46AA02F8A6
S315000093E4D00D4E49002023F0A7F80120FEF7EFBE6A
S315000093F40CAB009324AA0BAB4B49012023F09CF839
S315000094049DF830209DF92C10249826F015FB46AAC9
S3150000941402F8D00D4149002023F08EF80120FEF712
S31500009424D6BE082246AB03F8F02D0BAA00923F499C
S3150000943412AA012023F080F824A9102022F0F6FDB8
S3150000944424AA9DF82C1012A824F01CFF46AA02F8A0
S31500009454E80D3249002023F06FF80120FEF7B7BE6D
S31500009464082246AB03F8EC2D314912AA012023F059
S3150000947463F824A9102022F0D9FD24A912A820F00B
S3150000948414FF46AA02F8E80D2449002023F054F8F4
S315000094940120FEF79CBE24F059FF46AA02F8880D67
S315000094A41E49002023F048F80120FEF790BE1BF069
S315000094B4ADF90120FEF78BBE12AA1849012023F04C
S315000094C43BF800239DF848101A46012024F064FE58
S315000094D446AA02F8880D1149002023F02DF8012030
S315000094E4FEF775BE082246AB03F8EC2D0CAA0092D3
S315000094F40E4924AA012023F01FF89DF8301024A851
S3150000950424F044FE46AA02F8D00D0449002023F0B4
S3150000951413F80120FEF75BBE82B40300CCB403004B
S3150000952486B40300EEB60300C6B40300CBB403004E
S31500009534EEC0030024A818F03DFE46AA02F8D00D9A
S31500009544CA49002022F0F8FFBDF8900022F08CFDF5
S3150000955408200DF1920122F0AFFD0120FEF737BE7F
S315000095640CAAC249012022F0E7FF24A99DF8300085
S3150000957419F0DCFE46AA02F8D00DBC49002022F000
S31500009584DBFFBDF8900022F06FFD9DF8920022F0FB
S315000095945BFD0DF19301102022F08EFD299822F037
S315000095A477FD2A9822F074FD9DF8AC0022F04CFD5C
S315000095B408200DF1AD0122F07FFD0120FEF707BE64
S315000095C40CAAAA49012022F0B7FF24A99DF830006D
S315000095D424F0D2FD46AA02F8D00DA449002022F0B8
S315000095E4ABFFBDF8900022F03FFD9DF8920022F0FB
S315000095F42BFD0DF19301102022F05EFD299822F037
S3150000960447FD2A9822F044FD9DF8AC0022F01CFD8B
S3150000961408200DF1AD0122F04FFD0120FEF7D7BD64
S315000096240CAA9249012022F087FF24A99DF8300054
S315000096341BF0C2F846AA02F8D00D8C49002022F08D
S315000096447BFF24A9082022F037FD26A9102022F04A
