S01600006E63702D67702D31304D4732314C442E73333784
S31500004000A05B0020E9AD0300EDAA0000F1AA0000C4
S31500004010A70A0A010042000004180FAC006AA900B2
S31500004020000000000000000000000000000000008A
S315000040300000000078BD0300000000000000000042
S315000040400000000000000000FFFFFFFFFFFFFFFF72
S31500004050FFFFFFFF00600A000000000000000000F4
S31500004060FFFFFFFFFFFFFFFF8000000000000000D2
S31500004070000000000000000000000000000000003A
S3150000408000000000000000003F9E00203F9E002030
S31500004090A05B002064F30300B8BC0300405200207C
S311000040A00852002000E00B0000000000A9
S31500004200A05B0020E9AD0300EDAA0000F1AA0000C2
S31500004210A1B30000F5AA0000FDAA0000E5AD030069
S31500004220E5AD0300E5AD0300E5AD0300E5AD030034
S3150000423001AB0000E5AD0300E5AD0300E5AD03000D
S3150000424064AC000064AC000064AC000064AC000028
S3150000425064AC0000655C0000B96A000064AC000054
S3150000426064AC000064AC0000315A000091D100003B
S3150000427064AC000064AC000064AC000064AC0000F8
S3150000428064AC000064AC000064AC0000E5AD030063
S3150000429064AC0000A151000064AC000064AC0000F6
S315000042A064AC0000AD5200008D52000064AC00000A
S315000042B064AC000064AC000064AC0000B55A0300B6
S315000042C0595A0300555A03001D530300B15A0300FF
S315000042D05D5A0300755A0300615A03002D4003001E
S315000042E0F55A030064AC000064AC0000C9AE0000DF
S315000042F064AC0000D5C3000064AC0000E5AD03006B
S3150000430064AC000064AC000064AC000064AC000067
S3150000431064AC000064AC000064AC000064AC000057
S3150000432064AC000064AC000064AC000064AC000047
S3090000433064AC000073
S31500004334F8B500BFF8BC08BC9E467047F8B500BF88
S31500004344F8BC08BC9E46704710B5054C237833B9B3
S31500004354044B13B1044800E000BF0123237010BDD1
S31500004364A8690020000000000CEA030008B5034B0E
S315000043741BB10349034800E000BF08BD000000006C
S31500004384AC6900200CEA0300A3F5803A704700BF2D
S31500004394174B002B08BF134B9D46FFF7F5FF002173
S315000043A48B460F461348144A121A37F04CFC0E4B30
S315000043B4002B00D098470D4B002B00D098470020C7
S315000043C4002104000D000D48002802D00C4800E02E
S315000043D400BF37F0DDFB2000290025F0EDF837F0AB
S315000043E4C3FB00BF0000080000000000000000003E
S315000043F4A05B0020F06400203F9E00200000000027
S3150000440400000000002307B5CDE900330123694607
S315000044144FF0FF308DF8023029F0E4FF003818BF62
S31500004424012003B05DF804FB00207047002814BF88
S3150000443402200020704701207047012070470128A0
S3150000444414BF022000207047012070472DE9F74F62
S3150000445406460D4614461F464FF0010BDFF87890CA
S3150000446403F10C0A15B903B0BDE8F08F102DA84668
S3150000447428BF4FF010083A46164B5FFA88F152F8F7
S31500004484040B524543F8040BF9D101919AF8002024
S3150000449411481A70002389F80F4089F800B089F88A
S315000044A40E3017F0D3FB324601340B480199E4B2BF
S315000044B412F801CB10F8013B83EA0C0302F8013C25
S315000044C4931BDBB29942F3D8A5EB08051646ADB2A9
S315000044D4C8E700BFFC9B0020FB9B00202DE9F74F9B
S315000044E401930D9B8046009303461646BDF8309013
S315000044F4324A0F4600F10C0153F8040B8B4242F882
S31500004504040BF9D11B784FF0020A137049232C4C83
S31500004514237020464FEA1923A37384F80F9017F0EB
S3150000452495FB5246237883EA1623237063787340F7
S3150000453463704FF0000B1BE0C2F11005A6EB0B03F2
S315000045449BB2ADB29D4228BF1D4600231FFA83FCD1
S31500004554D018AC45C0B21BD32A44D2B2AB44102AFD
S315000045642F441FFA8BFB03D1204617F06FFB002262
S31500004574B345E1D312B1204617F068FBBAF1010F37
S315000045844FF000020ED04FF0010A4E46019FD0E7CD
S3150000459417F803C014F800E001338CEA0E0C04F893
S315000045A400C0D3E72368009900980B6043460421B2
S315000045B403B0BDE8F04FFFF749BF00BFFC9B0020E6
S315000045C4FB9B0020F7B5099FBDF820500646CDE9B0
S315000045D400571C46FFF782FF2DB1334601222946B8
S315000045E42046FFF733FF002003B0F0BD2DE9F74363
S315000045F41D4604460E461746BDF82890DFF834805B
S315000046040346494628460122FFF720FF2B463A4631
S3150000461431462046CDE90098FFF760FF0422414663
S315000046240B9837F0D9FA002814BF7E20002003B077
S31500004634BDE8F083A79B002073B51C46044D8B1878
S315000046441E59CDE900452E60FFF7D0FF02B070BDBC
S31500004654239D0020002070470120704701207047E9
S3150000466400207047012070470020704700207047E3
S31500004674012070470020704701207047704770473B
S31500004684002818BF0220704700207047032310B586
S315000046940F4C1022C4E904330E4B0F49E361002387
S315000046A4A16121660D49E01DC4E919120C49A362F2
S315000046B46362E3622367E3666367226237F0D5FACF
S315000046C42046084937F0D1FA2023A37110BD00BF54
S315000046D4006800207C9B0020B8BC03006C9B002073
S315000046E4C1BC0300C5BC03002DE9F84FDFF87C808C
S315000046F4824698F80030894616460BB9FFF7C6FF7E
S31500004704182707FB0A873D6FD7F86CB05D452BD990
S31500004714BC6E796E641BB44228BF344648462944AD
S31500004724224637F069FABB6E2544AB4208BF002522
S31500004734A144361BABEB0502964228BF164656B17A
S31500004744182303FB0A83596E32462944484637F038
S3150000475453FA3444354424B1182000FB0A88C8F8B7
S3150000476470502046BDE8F88F0024E3E70068002077
S3150000477437B50446CDE9002102F07DFEDDE90021CE
S3150000478405462046FFF7B0FF0446284602F079FEA8
S31500004794204603B030BD00002DE9F843134C1E46F5
S315000047A423788146884617460BB9FFF76FFF002525
S315000047B402F061FE61690D4A536E3BB10135A942AF
S315000047C402F11802F8DC4FF0FF350AE0A942FADDDF
S315000047D4182202FB0544C4E91898A7662367E36612
S315000047E4666702F04EFE2846BDE8F883006800209E
S315000047F4FFF74CBF70B54FF060441C4B0026D3F84E
S31500004804F0201B4D42F00102C3F8F020D3F8FC203F
S315000048140C2042F08072C3F8FC20164BC4F8B03F5B
S315000048240223C4F8006EC4F8806EC5F8F03002F0B6
S31500004834D9FA114B00F5D52000F2FC40B0FBF3F099
S315000048440E4A0F4B01382861C4F8406E1A600D4BAE
S31500004854C4F8803E4FF48073C5F80433D4F8003EA0
S3150000486443F48073C4F8003E70BD00BF00ED00E061
S31500004874000004E055CEACC5F8590D00FF03004016
S31500004884001000E00D00010010B50124104B0020BB
S31500004894C3F8444402F0AAFE23460422032100205E
S315000048A402F000FF204628F051F9FFF7A3FF28F095
S315000048B483F9084B1C70FFF79BFF234640220649E9
S315000048C40648FFF769FF064B1860C00F10BD00BF0E
S315000048D400D00340C49B0020DE9C0020CCBC030017
S315000048E45C630020034BD3F8F000003818BF0120A6
S315000048F4704700BF00ED00E0D123054A037013782A
S315000049044170090A8170591CC370117004207047E4
S315000049142B9D00202DE9F74F91F800808246B8F1CF
S31500004924040F0F465FD936F059FB4FF6FF76002485
S3150000493408F10505DFF8B890EDB20190D9F8F0203A
S315000049440AB1A54207D8281B18BF012004233B70CF
S3150000495403B0BDE8F08F36F041FB019BC01A80B26C
S31500004964B0F5FA7F41D8A4B3012C36D0EA1E04F17F
S31500004974010B94425FFA8BFB19D1F4B24FF06042FB
S31500004984D2F8801ECB0710D5D9F8FC1041F08071FF
S31500004994C9F8FC10D2F8001E41F48071C2F8001E5A
S315000049A4116A0029F0D082F820405C46C6E7AA1EA8
S315000049B4944202D1C6F30724E0E76A1E944210D05B
S315000049C4544414F8024C3146204606F01FF80646B5
S315000049D4D4E75B244FF0010BD0E744464FF0020BBB
S315000049E4CCE75D24CAE70020B0E70120AEE700BFAC
S315000049F400ED00E000B5084B91B040226946186806
S31500004A04FFF7B6FE20B1C2B26946122027F05CFF5A
S31500004A1411B05DF804FB00BF5C630020104430B5A0
S31500004A24054602B930BD01F00F030A2B34BF30240A
S31500004A343724013A2344090905F8013DD2B2F0E7C7
S31500004A44F0B519B3002820DA2D23B0F1004F137006
S31500004A5400D04042012119E0801B8642ECB205F1E8
S31500004A640105F9D914B9BCF1000F05D04FF0010CBA
S31500004A744D1C30345454E9B2013B13F0FF0309D101
S31500004A8430305054481CC0B2F0BD002109234FF009
S31500004A94000C024F002557F8046BDEE7DCBC03006C
S31500004AA42DE9F04F4FF0000B97B004AC80468946D1
S31500004AB415469A465E462746297859B9E41BE4B258
S31500004AC4224639464846C047002840F0AD80344463
S31500004AD4E0B2AAE0252916D0BBF1000F17D1204673
S31500004AE400F8011B044614AB9C42C0F0E180E41BB1
S31500004AF4E4B2224639464846C047002840F094802E
S31500004B042644F6B2D3E0BBF1000F00D10135297873
S31500004B14782906D8612907D825295ED03AD80029EC
S31500004B24CCD04FF0000BDEE7A1F16202162AF8D8CA
S31500004B3401A353F822F000BFE94B00006D4C0000BE
S31500004B44B94C0000274B0000274B0000274B000000
S31500004B54274B0000274B0000274B0000274B000083
S31500004B64B94C0000274B0000274B0000274B0000E0
S31500004B747D4C0000274B0000274B00007D4C0000B5
S31500004B84274B0000B94C0000274B0000274B0000C0
S31500004B94CF4B0000392916D82F29C2D96A7802F0DA
S31500004BA4DF02582A40F0AC80322905F1010B40F0AF
S31500004BB49B80042220465AF8041B89B2FFF72EFF75
S31500004BC45D460446ADE75829ABD15AF8041B0222C8
S31500004BD42046C9B2FFF722FF02E0204600F8011B77
S31500004BE404469EE74FF0000BDAF800300293DAF839
S31500004BF404300193013B0393019B9B4502D10AF1C7
S31500004C04080A8EE7029B204613F80B100222FFF7D0
S31500004C1405FF14AB984204460DD3C41BE4B22246E6
S31500004C2439464846C04718B1002017B0BDE8F08F92
S31500004C3426443C46F6B2039B5B4581BF20462022B0
S31500004C4400F8012B044614AB9C420AD3E41BE4B2DD
S31500004C54224639464846C0470028E5D126443C4604
S31500004C64F6B20BF1010BC7E75346204653F8042B63
S31500004C749A4600F8012BB3E7E41BE4B22246394610
S31500004C8448465AF804BBC0470028CDD12644F6B29C
S31500004C94C4B21BF804200130002AF9D12246594631
S31500004CA44846C0470028BFD183462644F6B23C4650
S31500004CB4013501E76C29DAF800000AF1040B0ED17C
S31500004CC46B78752B14BF0121002101D0642B00D110
S31500004CD401352246FFF7B4FEDA46044421E7752976
S31500004CE40CBF00210121F4E7342909D15AF8045BE9
S31500004CF40422290C2046FFF791FE0422A9B25DE79F
S31500004D044FF0010BEFE600BF2DE9F04F9A46564BE4
S31500004D1485B01B7806460F461546DDF83C909DF88F
S31500004D2444B0DDF85080002B00F08D80072A00F295
S31500004D348C800E9B002B00F08880B9F1000F00F0E8
S31500004D448480129BB3F5006F7FDC012802D1109B8F
S31500004D54002B7AD0454B03EB05131B7B002B76D037
S31500004D64434C10220021684636F06DFF04EB4514CF
S31500004D741022002F59D13946204636F064FF43F2FB
S31500004D8410036380BBF1000F03D1E37843F0030300
S31500004D94E370374A0E9B02EB451CCCE90193129B48
S31500004DA46901013BC3F30A009DF84C30012E03F060
S31500004DB403034FEA836343EA001E53582D48CDF894
S31500004DC400A000EA03004EEA0003535041D1132326
S31500004DD40CF1100ECCF80C309CE80F008EE80F0096
S31500004DE46FF00301DCF81C20109B61F39F02012F76
S31500004DF4CCF81C20CCF8143003D1CCF81890CCF89D
S31500004E0404300027194A290102EB051342F80180F0
S31500004E14159A28465A60694622469F605E7302F0D8
S31500004E24CDFC384605B0BDE8F08F0021204636F0AB
S31500004E340AFF4FF444736380BBF1000FA9D1E378F2
S31500004E4443F03003A4E70C48ECE70C48EAE70C48C7
S31500004E54E8E7B8F1000FD4D19CF8023068F30413E4
S31500004E648CF80230CDE700BF1F9C00208C6B00201D
S31500004E741C8C00200F80FFF3028000F0018000F0FC
S31500004E84078000F038B5124B05461B78DBB1E0B15C
S31500004E9402F0F1FA0F4A00231146147B54B92B6031
S31500004EA401251A0101EB03131D738C5002F0E9FA74
S31500004EB4204638BD0133082B02F11002EDD102F071
S31500004EC4E0FA0548F5E70548F3E70548F1E700BFCA
S31500004ED41F9C00208C6B0020048000F0028000F0F0
S31500004EE4018000F013B502F0C6FA00230B4A147BC6
S31500004EF47CB90133082B02F11002F8D1019002F0BB
S31500004F0411FC074B01981C7002F0BBFA204602B054
S31500004F1410BD02F0B6FA0348F9E700BF8C6B002017
S31500004F241F9C0020058000F00D4B10B51B7804462D
S31500004F3493B1072812D802F09EFA0A4B03EB041326
S31500004F441A7B2AB100241C7302F09BFA204610BD7A
S31500004F5402F097FA0448FAE70448F8E70448F6E743
S31500004F641F9C00208C6B0020068000F0028000F05D
S31500004F74018000F0164B13B51868002301908DF8D4
S31500004F84043002F078FA134B1C7824B102F079FA53
S31500004F94114802B010BD01221A7002F072FA0F4BCA
S31500004FA41C731C7783F82C4083F83C4083F84C40F0
S31500004FB483F85C4083F86C4083F87C4004230DEB53
S31500004FC403008DF8073002F0CFFB2046E1E700BF6F
S31500004FD400BD03001F9C0020038000F08C6B0020A2
S31500004FE410B588B00E9C009207940D9C0246069458
S31500004FF49DF8304005940B9C04949DF82840039436
S315000050040024CDE9013420460B462146FFF77CFEF9
S3150000501408B010BD10B588B00E9C009207940D9C84
S31500005024024606949DF8304005940B9C04949DF822
S31500005034284003940024CDE9013420460B4601217F
S31500005044FFF762FE08B010BD0A4A08B512785AB1D5
S3150000505407280BD8084A02EB00131B7B43B1002137
S3150000506402F074FB002008BD0448FCE70448FAE794
S315000050740448F8E71F9C00208C6B0020028000F097
S31500005084018000F0078000F00A4A08B512785AB188
S3150000509407280BD8084A02EB00131B7B43B10121F6
S315000050A402F054FB002008BD0448FCE70448FAE774
S315000050B40448F8E71F9C00208C6B0020028000F057
S315000050C4018000F0078000F00A4A08B5127852B150
S315000050D407280AD8084A02EB00131B7B3BB102F0EF
S315000050E4BBFB002008BD0548FCE70548FAE7054870
S315000050F4F8E700BF1F9C00208C6B0020028000F0A4
S31500005104018000F0078000F00D4B1B7893B107284F
S3150000511412D889B10B4B03EB00131B7B73B10A4BFB
S31500005124DA6A012303FA00F010401ABF00200B705C
S31500005134087070470548704705487047054870472A
S315000051441F9C00208C6B002000000440028000F0AD
S31500005154018000F0078000F00B4A10B512780C4667
S3150000516462B107280CD859B1084A02EB00131B7B1D
S3150000517443B102F083FB2060002010BD0448FCE725
S315000051840448FAE70448F8E71F9C00208C6B0020CB
S31500005194028000F0018000F0078000F02DE9F8435A
S315000051A4174B1F6D5B6D1F4000D5FEE701260025DA
S315000051B4144CDFF85480DFF85490374217D0236834
S315000051C4C8F850609BB1A168284601316268A160A5
S315000051D49847637B012B0AD148B909EB45131A7B1F
S315000051E460F341021A731A7F60F341021A7701359C
S315000051F4082D4FEA460604F11004DED1BDE8F88313
S31500005204000004408C6B0020002004401C8C00200D
S3150000521470B504460125084E04B970BD94FAA4F08D
S31500005224B0FA80F005FA00F324EA030456F82030B5
S31500005234002BF1D09847EFE7488F002008B51920D6
S3150000524402F030F928B14FF00072074BC3F8802101
S315000052541A601A2002F026F928B14FF08062024B38
S31500005264C3F880211A6008BD00E100E038B50446A1
S315000052740D4602F000F9034B43F82450BDE83840CC
S3150000528402F0FFB8488F0020064BD3F82404D3F865
S31500005294202403F50053104000F05530C3F82004D1
S315000052A4FFF7B6BF00C00340064BD3F82404D3F877
S315000052B4202403F50053104000F0AA30C3F820045C
S315000052C4FFF7A6BF00C0034038B500F047FB094B03
S315000052D4094A196839B113684C69C51AAC4204D332
S315000052E423441B1A4B61106003E00023001B10606B
S315000052F44B6138BD649400202C900020C38870B59F
S3150000530404460D463BB906F065F98542064602D2C7
S3150000531406F07AF935460F4965610B68ABB90C603E
S31500005324A36011E0AD1A9A68184665612AB113465E
S315000053345A69AA42F6D950B11A4613468460A36044
S3150000534413B15969491B596170BD0020F0E70C601F
S31500005354F5E700BF6494002038B50F4B0F4D1C6869
S315000053642B6802205B691C4400F02CFB204600F0ED
S31500005374FDFA00230A492A680B70D088800702D5F3
S3150000538401230B7038BD9268002AFBD05069034490
S31500005394012BF2D9F6E700BF2C900020649400207C
S315000053A4469C002070B59DF81450164605710025DC
S315000053B4049A8560BDF818500446C580C0E90336D2
S315000053C40D46026029B941610BB11146984796B161
S315000053D4354602F050F80646FFF776FF2946204682
S315000053E4FFF78CFF054B1B68A34201D1FFF7B4FFFF
S315000053F4304602F046F8002070BD00BF64940020D9
S3150000540400220C490B687BB183420AD183687AB1C6
S31500005414936083681BB15A6941690A445A61002042
S3150000542470471A469B68EEE70028EFD002207047C3
S315000054340B60EEE76494002070B502F01CF8144E7D
S3150000544405463478FCB9134B1C60134B1C60134B94
S315000054541C8000F049FA012000F0B4FA00F000FBC9
S315000054640F4B0246186020B9284602F00AF823209A
S3150000547470BD234640F2E7310A4836F0E5F90A4B97
S31500005484186001233370284601F0FBFF0020EFE784
S31500005494289C0020649400202C9000200899002069
S315000054A46094002018FCFFFF349000202DE9F041A1
S315000054B40546F8B101F0DFFF0F4F0646FFF704FF7C
S315000054C42846D7F80080FFF79BFF044628B13046EC
S315000054D401F0D7FF2046BDE8F081A8453B6803D11B
S315000054E423B1FFF739FFF2E7002BF0D1022000F0D9
S315000054F475FAECE72224EDE76494002070B586B0D3
S3150000550415461E460446059180B1FFF7CFFFBDF848
S315000055142C30002202939DF828302046CDE9006302
S3150000552405992B46FFF73EFF06B070BD2220FBE728
S3150000553438B50C46054698B191B100230B7001F0BD
S315000055449AFF0121074B1B680BB122781AB101F0AF
S3150000555498FF002038BDAB4214BF9B682170F3E767
S315000055642220F7E764940020F0B51F46002387B095
S315000055740D46164604468DF81730A0B10DF11701F5
S31500005584FFF7D6FF9DF817207AB9BDF834302946BF
S3150000559402939DF830302046CDE900733346FFF779
S315000055A401FF07B0F0BD2220FBE70320F9E7000066
S315000055B4F8B50C460546C8B1C1B101F05CFF064614
S315000055C4FFF782FE6B692360134B1B68AB420FD057
S315000055D423B9304601F055FF03201CE059692268BF
S315000055E49B680A442260F1E700230FE0222012E0C0
S315000055F4276800F0B3F9094D2B68C01A8742F3D91E
S3150000560400F0ACF92B68226813441B1A3046236059
S3150000561401F037FF0020F8BD649400202C90002090
S315000056242DE9F0410746884601F025FF0026054688
S31500005634124B1C6824B9284601F023FF1B2016E0F0
S3150000564463691E44E388BB4215D100F087F90C4C0C
S315000056542368C01AB0420CD200F080F922683244A2
S31500005664121A2846C8F8002001F00BFF0020BDE8F6
S31500005674F0810022F5E7A468DCE700BF649400200B
S315000056842C900020014B1878704700BF469C0020E0
S3150000569438B501F0F0FE054600F060F904462846E8
S315000056A401F0EFFE204638BD70B501F0E4FE064673
S315000056B400F054F9084B04461D880120ADB200F0F1
S315000056C4A5F918B100F04AF904460135304601F04F
S315000056D4D8FE2046294670BD08990020014B18685B
S315000056E4704700BF609400200A4B10B51B680C4637
S315000056F483420CD3084B4FF47A7219680023A0FB3B
S31500005704010136F0A1F801302060002010BD2120EF
S31500005714FCE700BF34900020609400200F4B10B5C6
S315000057241A689AB14FF47A71531E1342A0FB010111
S315000057340ED1B2FA82F2C2F11F04531CD243E040E6
S3150000574401FA03F3184321FA02F20243104610BD8C
S31500005754002336F079F80246F8E700BF609400208B
S31500005764164B70B58342164B15468B4124D3154B05
S315000057741A680AB34FF47A76A0FB0603541E144043
S3150000578406FB013111D1B2FA82F3C3F11F025E1C8A
S31500005794DB4301FA06F6D04021FA03F330431843FB
S315000057A4D140C5E90001204670BD002336F04CF80F
S315000057B40024C5E90001F6E72124F4E7EFA7C64B68
S315000057C43789410060940020C2072DE9F84F04464A
S315000057D40BD5414A138801339BB21380FFF774FD3E
S315000057E43E4B1B680BB1FFF7B7FDA30771D500F05D
S315000057F4B5F8DFF8F0904FF00008D9F800700646C7
S31500005804C71B01F038FEC34605464246334B1C68A7
S3150000581414B16369BB4219D90021314BB8F1010FA8
S31500005824197005D122B1D288022A08BF83F80080F4
S31500005834002C4AD06369C9F80060DB1B6361FFF77B
S315000058448BFD2846BDE8F84F01F01BBE23463A46B9
S31500005854C9F800605969914209D8187994F804C0C6
S31500005864521A844588BF1C469B68002BF2D12846F1
S3150000587401F007FE6569C4F814B001F0FCFD824628
S315000058842046FFF7BDFD504601F0FBFD23694BB1F1
S3150000589401F0F1FD824621692046FFF72FFD5046AF
S315000058A401F0EFFDE36813B120462168984700F044
S315000058B455F835447F1B8246074401F0DCFD564605
S315000058C40546224608F10108A0E7022000F086F802
S315000058D4B7E7BDE8F88F00BF08990020649400205C
S315000058E4349D00202C9000201FB50024184B186806
S315000058F49A880290D3F806009B7A009002A8ADF825
S315000059040C208DF804308DF808408DF80C4002F018
S31500005914A5F8694601208DF8004002F063F84FF0BF
S3150000592490431F219A6922F01F029A61094A516124
S315000059349A6A12F00802FBD11A62012002F06CF88E
S315000059444FF48062044BC3F880211A6004B010BD82
S3150000595404BD03000020004800E100E04FF090433E
S315000059649A6A1207FCD4186A704700004FF09042F6
S31500005974936A1907FCD4136A116C5269120704D48A
S31500005984CA1A032A01D899420ED1C21A022A98BF0A
S31500005994D81CB0F1FF3F38BF01384FF0904318646C
S315000059A49A6942F008029A61054A13783BB14FF0AE
S315000059B49041CB6B43F00203CB6300231370704713
S315000059C49264002082074FF0904200F0010391692F
S315000059D448BF43F008030B4393617047820700F006
S315000059E401030AD50121084A43F0080311704FF058
S315000059F49041CA6B22F00302CA634FF090418A6950
S31500005A0422EA03038B617047926400204FF09043AF
S31500005A1401285B6904D0022805D1C3F3C00070478E
S31500005A2403F00100704700207047000010B501F034
S31500005A3422FD4FF0904304465B691A07074A03F0B8
S31500005A44010003F00D0348BF40F002005361FFF765
S31500005A54BBFE2046BDE8104001F013BD00200048FF
S31500005A641C2001F0BFB9000000210846F0B52D4CFA
S31500005A742D4A2368156845B11D68002D47D01D7948
S31500005A841679AE4284BF134601210130052802F17E
S31500005A940802EFD101B1236000210D462348244AB0
S31500005AA40368166846B11E68002E33D01E7917792E
S31500005AB4B7423CBF134601210135052D02F1080208
S31500005AC4EFD101B1036021680B6833B34FF0402274
S31500005AD4936F097923F0FF7323F4803343EA014378
S31500005AE49367144B4FF0004201689A660B68B3B192
S31500005AF44FF04022936F097923F4FF7323F00103D7
S31500005B040B4393670B4B4FF080429A66F0BD1346E6
S31500005B140121BAE713460121CEE7074BE2E7064B1C
S31500005B24F1E700BF049000200C9400203090002080
S31500005B34349400200050004000600040012208B563
S31500005B440F4B00211A700F48282236F07CF80021EA
S31500005B5428220D4836F077F80C4B0D4A13600D4A8F
S31500005B6413604FF040420C4B5A669A6620220B4B48
S31500005B74C3F880211A60FFF777FF002008BD00BF35
S31500005B846B9B00200C94002034940020609000202D
S31500005B9404900020309000200060004000E100E006
S31500005BA408B501F00FFDDFED117AB4EEE70AF1EE68
S31500005BB410FA18D4DFED0E7AB4EE670AF1EE10FA95
S31500005BC437FE800A10EE100A35F0BEFD0022094B9E
S31500005BD435F05CFC0022084B35F058FC35F00CFE21
S31500005BE4803840B208BDB0EE670AEBE7000000C398
S31500005BF40000FE420000E03F000060404FF04022FB
S31500005C0438B5936E526E134013F0804212D0114B86
S31500005C141B681D6835B100241C605C60FFF7C0FF7B
S31500005C242146A8474FF080420B4B5A66BDE83840E0
S31500005C34FFF71ABF002BF9DA084B1B681C682CB156
S31500005C441A605A60FFF7ACFF0121A0474FF00042EB
S31500005C54014BEAE7309000200060004004900020E9
S31500005C64FFF7CCBF042203685A619A699207FCD5F0
S31500005C7441F2AC52102103795B0103F1804303F531
S31500005C84703399507047012203685A619A69D207A2
S31500005C94FCD541F2AC52042103795B0103F1804344
S31500005CA403F570339950704738B141B1013AB2F5F2
S31500005CB4006F044838BF0020704703487047014806
S31500005CC4704700BF037000F0027000F038B5044658
S31500005CD40D4601F0D0FBA3889BB223B92B6001F0DB
S31500005CE4D0FB064838BD142263889BB202FB0344EA
S31500005CF408342C6001F0C5FB0020F3E70B7000F0BC
S31500005D04F8B5044616460F4601F0B5FBA388E288AB
S31500005D149BB29A42054605D80023336001F0B1FBD5
S31500005D241748F8BD1422238807F1100C9BB202FB16
S31500005D3403433A460833174603CF6745186059604C
S31500005D443A4603F10803F6D114223868186023880A
S31500005D5428469BB202FB0343083333602388E28858
S31500005D649BB20133B3FBF2F102FB11339BB22380E6
S31500005D74A38801339BB2A38001F083FB0020D0E704
S31500005D840A7000F010B5006802F058F8044630B105
S31500005D94FFF7A4FC24235843B0FBF4F40134204653
S31500005DA410BD000090F83130022B0BD13023427F16
S31500005DB490F821005A43044B9B5823FA00F000F054
S31500005DC4010070470020704714C00340002313B538
S31500005DD41D4A52F8044B94F8211081420ED0013327
S31500005DE4042BF6D102B010BD0028FBD19DF8073074
S31500005DF4002BF7D0A068FFF727F9F3E794F83130C2
S31500005E04022BEFD12046FFF7CDFF637E2076022BCF
S31500005E14E8D194F82E3003F0FF02002BE2D1A068FB
S31500005E240DF107018DF80720FFF76EF9237E1BB1EC
S31500005E3494F82F30002BD7D00023A06884F82F3095
S31500005E44FFF722F9CEE700BF7094002070B505462F
S31500005E5401F011FB6C6B0646013C6C634CB901F016
S31500005E64FBFA05462146012005F05EFB284601F0B3
S31500005E74F7FA3046BDE8704001F003BB0B6837B54E
S31500005E849D690C4615F02005084606D0FFF7DEFF8F
S31500005E94022384F8383003B030BDFFF773FF23467E
S31500005EA40146CDE90055034A04F13C00FFF75CFBCB
S31500005EB4F1E700BF815E000070B5044601F0DBFA2D
S31500005EC4636B05464BB901F0C7FA0121064608463D
S31500005ED405F02AFB304601F0C3FA636B284601330A
S31500005EE46363BDE8704001F0CCBA0000012230B50E
S31500005EF490F8324087B080F82C207CB9094D0368AD
S31500005F04CDE9024504904C682433CDE900240A689F
S31500005F144169C068FFF77EF807B030BD002380F8FA
S31500005F242C30F9E76D68000001232DE9F04180F873
S31500005F342D3090F8323004460D4688B07BBB0646B9
S31500005F4456F83C7B01F097FA0DF11F018046304666
S31500005F543C37FFF7EDFA40B99DF81F302BB13046B8
S31500005F64FFF7A4FA2046FFF771FF0126404601F029
S31500005F7488FA204684F83860FFF79EFF0A4B3A46B3
S31500005F840393002302936B682169CDE90063A0683B
S31500005F942B680494FFF724F808B0BDE8F0810023C9
S31500005FA480F82D30F8E700BFF95F000038B50446E5
S31500005FB40D4601F060FAA3889BB223B92B60BDE8B5
S31500005FC4384001F05EBA142263889BB202FB034395
S31500005FD408332B606388E2889BB20133B3FBF2F18A
S31500005FE402FB11339BB26380A388013B9BB2A3805F
S31500005FF4E5E70000F0B585B0906A03A91446FFF7FB
S3150000600465FE06462046FFF7BDFE002501462346EB
S31500006014CDE90055164A04F13C00FFF7A5FA154BE5
S315000060249E421FD0039B1D619D6001F024FA039AD2
S315000060340646D76827B1D2E9002329462046B84741
S31500006044A06A03A9FFF7B2FFA06A83889BB263B173
S3150000605403A9FFF73BFE20460399FFF765FF304689
S3150000606401F00FFA012005B0F0BD84F82D30F6E7F3
S31500006074815E00000B7000F02DE9F3410D460446E5
S31500006084002800F08C8001F0F6F9012D06463DD17A
S31500006094A36A9B889BB2002B3FD0A068FFF714F835
S315000060A40023A06A84F82D3083889BB2002B3AD152
S315000060B4226893699B04FCD5023D012D1BD8E06838
S315000060C4FFF702F80023606A84F82C3083889BB2B9
S315000060D4002B47D194F83130032B0CD042F2AC524A
S315000060E4042123795B0103F1804303F5703399504E
S315000060F4022223685A61636B002B02DD2046FFF7F8
S31500006104A5FE304601F0BDF9002009E0022D48D174
S31500006114636A9B889BB2002BD1D101F0B2F9264861
S3150000612402B0BDE8F08101A9FFF7D0FD0199A0688E
S315000061340831FFF711F8214F019B1F61A06A83887C
S315000061449BB2002BB4D001A9FFF730FF019BD3F813
S315000061540C80B8F1000FF1D00022394620469B6826
S31500006164C047EBE76946FFF7B1FD0099E0680831DF
S31500006174FEF7F2FF114D009B1D61606A83889BB296
S31500006184002BA7D06946FFF711FF009BDF68002F9D
S31500006194F3D00022294620469B68B847EDE7084815
S315000061A4BEE7032D88D1A36A9B889BB2002B7FF49C
S315000061B474AF636A6DE700BF087000F0097000F001
S315000061C4027000F0036898697047436A9888C0B201
S315000061D470472DE9F341984600230546406A0E466A
S315000061E484881746A4B2CDE900333CB16946FFF76B
S315000061F46DFD01A90446E868FEF7AEFF009B6BB18E
S3150000620464B95A6801991B68521A3A60C8F80010B2
S3150000621433602B68986902B0BDE8F0810023C8F8A2
S3150000622400303B60F4E7836A9888C0B270472DE972
S31500006234F341984600230546806A0E46848817462D
S31500006244A4B2CDE900333CB16946FFF73FFD01A98D
S315000062540446A868FEF780FF009B6BB164B95A68D0
S3150000626401991B68521A3A60C8F8001033602B680B
S31500006274986902B0BDE8F0810023C8F800303B609D
S31500006284F4E7007E70472DE9F04104469046FFF797
S315000062940BFD0D46064670BB152001F011F90746A5
S315000062A4A26A93889BB213B194F82E3033B3236851
S315000062B49F6917F0020702D12046FFF7D3FC01239A
S315000062C484F8303094F8323033B9A8444545206810
S315000062D419D183699B06FCD56FB942F2AC521021E1
S315000062E423793E465B0103F1804303F570339950ED
S315000062F4082223685A613046BDE8F081002FD0D0C9
S31500006304FEF74CFFCCE715F8011B01F06FFEDDE745
S3150000631410B5044680B190F82E302BB9FFF742FD34
S3150000632410B9A068FEF790FE002094F82E300133D1
S31500006334DBB284F82E3010BD0048FCE7027000F092
S3150000634410B50446A0B190F82E309BB190F82E30CB
S31500006354012B05D1FFF726FD10B9A068FEF794FEC0
S31500006364002094F82E30013BDBB284F82E3010BDA9
S315000063740148FCE70148FAE7027000F0057000F0F6
S3150000638437B590F831500446022D1DD1012290F8FC
S315000063942230457E817F9A403020164B25B900FB7A
S315000063A4013342F2100105E0012D07D100FB013350
S315000063B441F210015A50002003B030BD247E00FB88
S315000063C40133002CF4D1ECE7012DF4D1037E73B92B
S315000063D411238DF80730FFF79BFF2A4620460DF15F
S315000063E40701FFF750FF2046FFF7AAFFE3E7132351
S315000063F4EFE700BF00C00340F0B50446A04F8BB0E2
S3150000640403AE0D460FCF0FC697E8070086E80700D0
S315000064141CB99C4C20460BB0F0BD0DB99A4CF9E75B
S3150000642454220021204635F00EFC9849984B0A78F0
S315000064342AB9C3E90022C3E9022201220A70944957
S315000064440022084650F8046BB4420AD00132042AEA
S31500006454F8D1002251F8040B002840F0D28043F80A
S3150000646422402B7D84F83130286820602B7B2371F1
S31500006474012384F83830874B984240F0C7802123A3
S3150000648484F82330844B23614FF480230026636110
S31500006494D5E90723626216805680968084F82C60BC
S315000064A4A3621E805E809E806B6884F82D600593CF
S315000064B4EB8984F82F60ADF81C302B8A03A9ADF85C
S315000064C41A30AB7C8DF80C608DF81830EB7C8DF8A7
S315000064D41E3005238DF8193001F006FD14212A7BA0
S315000064E46E4B03EB4217C7F8AC15287AA97A2E32FD
S315000064F440EA014C03EB4213C3F804C06A7AEB7A10
S3150000650442EA034CC7F8BCC5E076E177227784F803
S3150000651420306B7D04226377AB7D84F82130EB7DDC
S31500006524A3772B7E84F82230012301F0BBF80123E4
S31500006534022294F82010207F01F0B4F894F8313048
S31500006544022B7AD13346012294F82110607F01F0A0
S31500006554A9F83346042294F82210A07F01F0A2F889
S31500006564012394F82120CDE900331146607F01F020
S315000065743FF800F080FF2B7D0646032B6ED141F2D7
S31500006584AC5202212B7B5B0103F1804303F570338C
S31500006594995004212A6802F58052D165297EEA7D44
S315000065A442EA014241F2B8515A50A97D6A7D42EA53
S315000065B4014241F2B4515A504FF0FF32286800F5B7
S315000065C400539A642B7D032B0CBF0521042101F093
S315000065D445FC4FF440622B685A61FEF7CBFC002160
S315000065E404F10800FEF74EFC014628B904F10C003C
S315000065F4FEF748FC044600B1294C304600F041FF42
S3150000660408E70132042A7FF425AF02E7254B9842B6
S3150000661407D1222384F82330234B23614FF4A0238C
S3150000662434E7224B98427FF4F9AE232384F82330CF
S315000066341F4B23614FF4C02328E7032B99D133461C
S3150000664494F82110607F012201F02CF833460422CD
S3150000665494F82210A07F01F025F88AE7022BABD12B
S3150000666494F821001349FEF701FEFEF7E7FD4FF407
S315000066740073238300232046A376FFF781FE9BE75E
S3150000668410BD0300027000F0037000F0359E002078
S3150000669470940020008005400200040000C00340FE
S315000066A40E7000F000C00540020005000000064020
S315000066B402000600D15D000090F83130032B05D0AE
S315000066C40229417618BF0176FFF75ABE0048704783
S315000066D4057000F07FB50446002800F09180032180
S315000066E4FFF7CAFC00212046FFF7E6FF0023E17FFF
S315000066F41A46E07E00F0D6FF002394F820101A46CE
S31500006704207F00F0CFFF94F83130022B63D10023B1
S3150000671494F821101A46607F00F0C4FF002394F811
S3150000672422101A46A07F00F0BDFF0021012394F831
S315000067342120CDE900311146607F00F059FF314B2D
S315000067441B784BB1304A0023114652F8040B84429D
S3150000675452D1002241F8232094F8323013B90A2288
S3150000676423685A6194F83130022B04D1002194F83D
S315000067742100FEF77BFDA068FEF7D6FBE068FEF776
S31500006784D3FBFEF7AFFB0023626A04F13C061380D9
S3150000679453809380A26A13805380938000F06BFE2B
S315000067A40DF10F0105463046FEF7C2FE28B99DF8E5
S315000067B40F3013B13046FEF779FE284600F061FE2D
S315000067C4636B002B04DD012320466363FFF73EFB66
S315000067D4002004B070BD032BB1D1002394F821101E
S315000067E41A46607F00F05EFF002394F822101A46D2
S315000067F4A07F00F057FFA2E70133042BA5D1ABE736
S315000068040248E6E7359E002070940020027000F0EE
S31500006814F0B587B005461646FFF746FA0446E8B9CA
S315000068240493104BCDE901166A46686A01A90396DA
S315000068340593FFF765FA044680B995F82C306BB9D1
S315000068442846FFF720FA0099FFF750FB95F83130F8
S31500006854032B03D028462C76FFF792FD204607B07B
S31500006864F0BD00BF017000F073B5506A01A914466B
S31500006874FFF72CFA2F4B984230D094F83200019A45
S31500006884002839D12368996C11F4007129D02A495A
S31500006894906011614FF4007203F500539A6400F09E
S315000068A4EAFD01990646CD6835B14A688B682046EB
S315000068B4D31A0A680969A847606A01A9FFF776FB33
S315000068C4606A8588ADB2DDB101A9FFF7FFF92046FC
S315000068D40199FFF70BFB304600F0D3FD012002B00F
S315000068E470BD986CC00507D514489160106103F516
S315000068F400534FF48072D1E7002313619360CEE70F
S31500006904012320462376FFF73BFD94F8313084F8C3
S315000069142C50032BDFD042F2AC52042123795B01C5
S3150000692403F1804303F570339950022223685A61B8
S31500006934D1E700BF0B7000F00D7000F00C7000F092
S3150000694410B590F83120012A10D102290ED0827E8A
S315000069548A4201D1002010BD817611B9FFF7F0FCFF
S31500006964F8E70129F6D1FFF7D3FCF3E70048F2E78D
S31500006974057000F0F0B587B004461646FFF794F9A3
S31500006984054638BB0493154B039605932368CDE956
S3150000699401169B699B0702D42046FFF763F96A46F2
S315000069A4A06A01A9FFF7ACF9054698B994F82D3009
S315000069B483B900F060FDA36A06469B889BB233B197
S315000069C420460099FFF7B0FA012384F830303046A8
S315000069D400F057FD284607B0F0BD00BF017000F077
S315000069E470B588B00E22002104A835F02CF90123D5
S315000069F40D22002168468DF8103035F024F9022363
S31500006A04234C6A46002120468DF8063001F04CF9E5
S31500006A14236B4FF6FF73E36100231E4DADF812306E
S31500006A24204604A901F0F3F8062000F0DBF9BDF8CE
S31500006A3412300133B0FBF3F09BB2B3F5806F2860DC
S31500006A44ADF8123002D2144B9842E9D80F2000F068
S31500006A54C9F92E680025114C2946B4FBF0F41048F8
S31500006A640023E6FB04010F4A34F0EEFE0E4B084AFF
S31500006A7418600E4B28461D70936923F0100393612A
S31500006A8440220B4BC3F880211A6008B070BD00BFCA
S31500006A9400800440448F002080841E0000B0710BE7
S31500006AA420A1070040420F00389000202B9E0020B2
S31500006AB400E100E0054B5B69DB0605D51022044BBB
S31500006AC45A610122034B1A70704700BF00800440CC
S31500006AD400A004402B9E002038B5124B0546D3F87F
S31500006AE420310C4603F00703013B032B17D8DFE8DC
S31500006AF403F0020A0E1201F0EDFA042305B1286030
S31500006B0404B1237038BD01F01BFB0323F6E701F043
S31500006B1433FB0523F2E701F02BFB0223EEE7002308
S31500006B241846EBE70080004037B50C460021124AB0
S31500006B340191D2F88021054602F00302022A0ED002
S31500006B44032A11D0012A14D101A8FFF7C5FF0D238A
S31500006B540DB1019A2A6004B1237003B030BD01F06F
S31500006B640BFB05230190F3E701F002FB02230190DE
S31500006B74EEE70B46ECE700BF0080004038B5104B4B
S31500006B840546D3F840310C4603F00303022B0BD021
S31500006B94032B0DD0012B0FD101F032FB082305B1D5
S31500006BA4286004B1237038BD01F030FB0723F6E7F3
S31500006BB401F029FB0923F2E700231846EFE700BF9B
S31500006BC40080004038B5104B0546D3F860310C46BA
S31500006BD403F00303022B0BD0032B0DD0012B0FD193
S31500006BE401F00EFB082305B1286004B1237038BDFB
S31500006BF401F00CFB0723F6E701F005FB0923F2E796
S31500006C0400231846EFE700BF0080004038B5134B59
S31500006C140546D3F800320C4603F00703013B032B69
S31500006C2418D8DFE803F0020A0E1201F0E9FA082385
S31500006C3405B1286004B1237038BD01F0E7FA0723D3
S31500006C44F6E701F0E0FA0923F2E701F063FA0C2310
S31500006C54800AEDE700231846EAE700BF00800040FB
S31500006C6438B5134B0546D3F808320C4603F0070330
S31500006C74013B032B18D8DFE803F0020A0E1201F0D9
S31500006C84BFFA082305B1286004B1237038BD01F0AA
S31500006C94BDFA0723F6E701F0B6FA0923F2E701F095
S31500006CA439FA0C23800AEDE700231846EAE700BF09
S31500006CB40080004038B5104B0546D3F840320C46E8
S31500006CC403F00303022B0BD0032B0DD0012B0FD1A2
S31500006CD401F096FA082305B1286004B1237038BD83
S31500006CE401F094FA0723F6E701F08DFA0923F2E797
S31500006CF400231846EFE700BF0080004038B5104B6C
S31500006D040546D3F800310C4603F00303022B0BD0DF
S31500006D14032B0DD0012B0FD101F012FA032305B179
S31500006D24286004B1237038BD01F070FA0723F6E732
S31500006D3401F01CFA0623F2E701230020EFE700BF67
S31500006D440080004041F671330F4A10B5D169D36310
S31500006D5493680E4C23F44013A04288BF43F4801377
S31500006D6493600B4A0B4CD2F81832A04223F002036C
S31500006D7488BF43F0020301F48031C2F8183211B11E
S31500006D840022014BDA6310BD00000340C017530212
S31500006D9400C0074080F0FA0208B501F0CDF9BDE85D
S31500006DA40840FFF7CFBF0000032814D005D80128F8
S31500006DB405D0022809D0002005E00F28FBD1084B96
S31500006DC4186FC0F3013001307047054BD3F89000BB
S31500006DD4C0F30460F7E7024B186FC0F38020F2E7B4
S31500006DE4008000401FB500230293252817D8DFE84A
S31500006DF400F0131A1D262B353A51565B60656A78E6
S31500006E04161A3F1616561A262B26351A5126783A7E
S31500006E143A3A3A2626265B6001F062F90290029815
S31500006E2405B05DF804FB01F075F9F7E701F058F9D0
S31500006E3402460220FFF7B8FFB2FBF0F0EEE701F0DE
S31500006E4469F902460320F5E701F064F902460320D6
S31500006E54FFF7AAFFB2FBF0F04008DFE7002102A823
S31500006E64FFF762FEDBE7002102A8FFF735FED6E74F
S31500006E7403934FF0E0231B695B0705D501F04AF93C
S31500006E840390039B0293CAE70DF1070103A8FFF7DA
S31500006E9475FEF6E7002102A8FFF770FEBFE70021A2
S31500006EA402A8FFF78FFEBAE7002102A8FFF7AEFE9D
S31500006EB4B5E7002102A8FFF7D3FEB0E7002102A838
S31500006EC4FFF71CFFABE7094BD3F8803003F003034D
S31500006ED4022BA8D0032B01D000209FE701F04CF928
S31500006EE49CE7002102A8FFF7E5FE98E70080004032
S31500006EF4032810B50C4626D004D8012804D002284D
S31500006F0416D010BD0F28FCD1FFF746FF00F026F877
S31500006F14114B013C196F21F4405141EA04341C67BA
S31500006F2401F0F8F8FFF70EFFBDE8104000F01AB8BC
S31500006F34094B013CD3F8901021F0F85141EA04645E
S31500006F44C3F89040DDE7044B013C196F21F48061DE
S31500006F5441EA84241C67D4E7008000400221032010
S31500006F64FFF7C6BF08B50120FFF73CFFBDE80840A0
S31500006F74034988428CBF022101210320FFF7B8BFD1
S31500006F8480F0FA02002307B58DF80230252822D8AE
S31500006F94DFE800F013212121212C324C52585E6483
S31500006FA46A7D212138212152212121212C214C21A4
S31500006FB47D32323232212121585E384B1B6F03F069
S31500006FC40703013B032B06D8DFE803F00E020A0C85
S31500006FD404238DF802309DF8020003B05DF804FB2B
S31500006FE40323F6E70623F4E70223F2E700200DF174
S31500006FF40201FFF799FDEEE700200DF10201FFF70C
S315000070046BFDE8E701934FF0E0231B695B0707D5A7
S3150000701401F080F80B238DF803309DF80330D8E790
S315000070240DF1030101A8FFF7A9FDF6E700200DF114
S315000070340201FFF7A3FDCEE700200DF10201FFF7E1
S31500007044C1FDC8E700200DF10201FFF7DFFDC2E72D
S3150000705400200DF10201FFF703FEBCE700200DF14D
S315000070640201FFF74BFEB6E70C4BD3F8803003F072
S315000070740303022B03D0032B05D00023A9E701F059
S3150000708449F80B23A5E701F077F80523A1E70020CB
S315000070940DF10201FFF70EFE9DE700BF00800040E0
S315000070A470B50C46252847D8DFE810F026004600C0
S315000070B44600460046005A006B009C00AD00BE0028
S315000070C4CF00E000F1000201460046007C004600C5
S315000070D44600AD0046004600460046005A004600FB
S315000070E49C00460002016B006B006B006B004600BF
S315000070F446004600BE00CF008B1E042B2DD8DFE8C9
S3150000710403F0291C032C260000250226FFF744FE63
S31500007114FFF724FF6F4A136F23F007033343136704
S3150000712400F0F8FFFFF70EFEFFF71CFF25B9032C4E
S3150000713402D10122684B9A6270BD0122674B032675
S315000071449D6A03F58053C5F340059A62DEE7002580
S315000071540426DBE700250126D8E700252E46D5E7D9
S315000071648C1EE4B20B2C8CBF00215D4B594A98BF90
S31500007174195DD2F8803123F003030B43C2F8803142
S31500007184DAE78C1EE4B2032C8CBF0021554B514A1E
S3150000719498BF195DD2F8203123F007030B43C2F8D8
S315000071A42031C9E70B2912D00ED8CC1F022CC3D824
S315000071B44D4A536A43F0010353624FF0E0221369C8
S315000071C423F004031361B7E70E29B5D1F0E7464A65
S315000071D4536A23F0010353624FF0E022136943F02C
S315000071E40403EFE7CC1FE4B2022C8CBF00213F4B13
S315000071F4384A98BF195DD2F8403123F003030B4394
S31500007204C2F8403198E7CC1FE4B2022C8CBF0021AF
S31500007214374B304A98BF195DD2F8603123F0030327
S315000072240B43C2F8603187E7CC1FE4B2052C8CBF50
S315000072340021304B274A98BF195DD2F8003223F05B
S3150000724407030B43C2F8003276E7CC1FE4B2052CE1
S315000072548CBF0021284B1F4A98BF195DD2F808320B
S3150000726423F007030B43C2F8083265E7CC1EE4B2E9
S31500007274042C8CBF0021214B164A98BF195DD2F805
S31500007284003123F003030B43C2F8003154E7052908
S315000072940CD00B2914BF002102210E4AD2F88030EB
S315000072A423F003030B43C2F8803045E70321F4E7D8
S315000072B4CC1FE4B2022C8CBF0021114B054A98BFA7
S315000072C4195DD2F8403223F003030B43C2F840326F
S315000072D432E700BF0080004000E0004000C00040EC
S315000072E42CBD030038BD030000C007403CBD0300AD
S315000072F43CBD03003FBD03003FBD030045BD030085
S315000073043CBD030070B504460020FFF73BFE03288E
S3150000731477D045F60E0302223F49C1F880303F4B31
S315000073249A62012203F580539A628A6D12F48032BE
S31500007334FBD1637820781B0543EA0063A079257C9A
S315000073440343E078667C43EA0043207943EA00334A
S31500007354607943EA80130B618B69E07A03F000439A
S315000073640343E07943EA8063207A43EA0063607A60
S3150000737443EA0043A07A43EA00238B61637B096AEC
S31500007384002B18BF0822207B21F00D0143EA0103DC
S3150000739443EA800342EA03021F49A37B0A624FEAD7
S315000073A443132FD1886AE27B20F0330043EA0213A9
S315000073B4034343F001038B62194B8A6D33EA0202DD
S315000073C4FBD10222154B9A628B6D5B00FCD44FF005
S315000073D400420869A37820F4700040EA03500F4B7A
S315000073E408619A611DB9022203F580539A6216B99F
S315000073F401220C4B9A62A37C1BB1074B0A4AC3F8C1
S31500007404802070BD8A6A22F033023243134343EA72
S3150000741445038B62EFE700BF00C0004000D0004088
S315000074240300014000E00040F1A7FFFF0028ABBFC6
S3150000743400F16040054B00F5614000F00F00ACBF61
S3150000744490F80003185C0009704700BF14ED00E0D3
S3150000745472B6704762B67047EFF3108072B6704723
S3150000746400B962B67047302383F31188704700234E
S3150000747483F311887047EFF31180302383F3118867
S31500007484704780F311887047EFF31083DB0706D447
S31500007494EFF311802F2894BF0020012070470120AC
S315000074A470470000054B420953F8223000F01F00D4
S315000074B423FA00F0C04300F00100704700E100E049
S315000074C4014608B5EFF31083DB0702D50122104607
S315000074D408BDFFF7E7FF02460028F7D10846FFF785
S315000074E4A5FF0146EFF3118313B1B0EB131FEDD2E1
S315000074F4074B5B68C3F30803002BE8D0103B58B274
S31500007504FFF794FF88428CBF00220122DFE700BF09
S3150000751400ED00E0704770470A4A10B51369044647
S3150000752443F00403136104F005FAFFF7F3FF30BFD9
S31500007534FFF7F1FF04F012FA1CB9BDE8104000F0A1
S31500007544E9BD10BD00ED00E0084A10B51369044614
S3150000755443F00403136104F0EDF930BF04F0FEF9BF
S315000075641CB9BDE8104000F0D5BD10BD00ED00E02B
S31500007574704770477047704770B54FF040244AF61D
S31500007584E853E56EE66E25F0030545F0020546F080
S3150000759403062366FFF7EEFFFFF7EDFFE566E666F3
S315000075A4E566E666E566E666E566E666E56670BD94
S315000075B44FF04022D36E017923F030030B43D36698
S315000075C4704700004FF04023D3F88830B5EE007AB8
S315000075D4C3F30A0307EE903A9FED030AF8EEE77A3F
S315000075E4A7EE870A704700BF339388C3704700002D
S315000075F4072A2DE9F04705460C461646994624D82F
S315000076044FF00308214F4FEA820AFFF725FFD7F808
S31500007614003405FA0AF55D4008FA0AF805EA080591
S315000076245D40C7F80054FFF71BFF04F00304FFF79F
S3150000763413FFD7F8083404FA0AF45C4004EA080491
S315000076445C40C7F80844FFF70BFF114A114B9DF83D
S315000076542010B9F1000F08BF1346012202FA06F6FC
S315000076641E600D4A0D4B002908BF13461E600C4BC5
S315000076749DF82410C3F820641032A3F6DC330029E5
S3150000768408BF13461E60BDE8F08700BF00C0034074
S3150000769410E4034010D4034014E4034014D403401C
S315000076A400E00340F0B54AB1012530261C4C8D405C
S315000076B406FB00440BB341F21006A55130244443A3
S315000076C4072904F1804404F5703419D80F27656836
S315000076D48E00B74025EA070502FA06F635436560CB
S315000076E452B90122302402FA01F10D4A04FB0020AA
S315000076F49BB141F21003C150F0BD42F21006DCE723
S315000077040F27A1F10805E668AD00AF4026EA070693
S3150000771402FA05F53543E560E2E742F21003EAE7CB
S3150000772400C003404FF40012064BC3F88020BFF399
S315000077344F8FBFF36F8F0022FF21034B5A65996267
S315000077445A60704700E100E000000440044A054B1B
S31500007754002918BF1346012202FA00F01860704788
S31500007764402004404010044030B5047845788178C0
S31500007774C27801200F4B41EA0541240658609C60FB
S315000077849961FF2199620021996319644FF00041C0
S3150000779459654FF0FF314FF4001003F50053196596
S315000077A405491301DBB2C1F8800181F8153308607D
S315000077B430BD00BF0000044000E100E02DE9F041C7
S315000077C401250C464FF0300EC3B29D40CB7A1E4EB7
S315000077D44FEA035823688F7A94F80DC0097B46F85C
S315000077E42030A6F580460EFB006048EA074343EACC
S315000077F44153C0F860C0C365144B22F0030202670C
S315000078041D65FFF738FE736D2B437365237A13B139
S31500007814336C2B433364637A13B1B36B2B43B36377
S315000078242279A37943EA0243084A93616179E379A9
S3150000783443EA014306498B61064B55639D64BDE8E3
S31500007844F041FFF71EBE00BF004004400020044084
S31500007854001004400000044010B50124C0B2844066
S31500007864FFF709FE044B5A6D22EA04025A659C622C
S31500007874BDE81040FFF705BE00000440F8B5012539
S31500007884C3B204469D40FFF7F6FD3022094B1E6D38
S315000078945F6B02FB04335C6EFFF7F3FD3D4206D1DA
S315000078A4C4F30A1008B9354200D10130F8BD0020EE
S315000078B4FCE700BF0000044041F67132034BDA6373
S315000078C4012203F50053DA60704700BF000003404D
S315000078D441F671320121044BDA6303F50052D1609B
S315000078E40022DA63704700BF0000034001382528F0
S315000078F49ABF024B185C0020704700BF4ABD0300C4
S315000079042538012803D804299CBF024B595C084634
S31500007914704700BF70BD0300021E30B54FF0000073
S315000079240CBF0C25042547F60774084952B9831D74
S3150000793451F82330234023B101308542F6D14FF06C
S31500007944FF3030BD00F11203F2E700BF00800340B0
S3150000795438B5C2F30625044602F0070241B90C4BBA
S3150000796442EA052242F44022063443F8242038BD74
S3150000797411462846FFF7C4FF01462846FFF7B6FF1F
S31500007984034B41EA0020123443F82400EFE700BF1A
S31500007994008003400A4392B20021FFF7D9BF3AB1EF
S315000079A422F0030202F1804202F5603209B9106046
S315000079B470470002FBE700004FF40032014B1A67E0
S315000079C4704700BF005000404FF04023D3F89400A6
S315000079D470474FF090435A6812B19A6A002AFAD156
S315000079E470470000CB784A7810B55B010C7843EAFF
S315000079F482030A79234343EA02130C22424302F127
S31500007A0490421363012C02BF8A78024B43F820206C
S31500007A1410BD00BFD080034008B54FF090435A68AC
S31500007A2402B960B15B680BB1FFF7D3FF4FF0904129
S31500007A3430B10120074B5860FFF7CBFFC86008BD83
S31500007A44FFF7C7FF0223CB60FFF7C3FF0122024BF8
S31500007A545A60F4E700100048002000484FF09043B5
S31500007A645B6870B50BB1FFF7B4FF0121104B457885
S31500007A74596083780679002BC37814BF0224002446
S31500007A84002B14BF042200224379DB0043EA0613C9
S31500007A942B43234313434FF090429360054B5960A5
S31500007AA40378002B14BF0B460223D36070BD00BFBE
S31500007AB400200048001000484FF098435A6CD20248
S31500007AC4FCD5586D00F470207047436813B94160C3
S31500007AD470475B685A68012AFBD15960704783680E
S31500007AE413B9816070475B685A68012AFBD15960F3
S31500007AF47047C369032B9FBF00EB83020133D16038
S31500007B04C3617047C369042B15D84FF09842116CB2
S31500007B14C902FCD504339B0013650168103B116050
S31500007B2441680C30116050F8041C034411604FF096
S31500007B349842984200D1704750F8041B1160F8E748
S31500007B4470B58CB0144605461C220E4605A80021C5
S31500007B5434F079F80B4B04A804930123019601A988
S31500007B64029344F000530393FFF7AFFF2946FFF750
S31500007B74C0FF2146FFF7BDFFFFF7C4FFFFF79CFFD9
S31500007B840CB070BD00000943054B5B69C3F3851255
S31500007B94827003F03F021B0B42700370704700BFF4
S31500007BA400C0074030B5144CA04217D004F58044F9
S31500007BB4A04215D004F58044A04213D004F58044B5
S31500007BC4A0420CBF03204FF0FF3006250B4C5BB1DF
S31500007BD405FB001004EB8000C26130BD0020F4E711
S31500007BE40120F2E70220F0E705FB0010120204EB85
S31500007BF48004E261F1E700BF008004400081034095
S31500007C04036BDA0702D503695B06F9D4704710B52E
S31500007C14FFF7F6FF012200F500531A630B790446B9
S31500007C2448881B0243EA8043487A0343487800287D
S31500007C3414BF402000200343887A002814BF802004
S31500007C4400200343C87A002814BF202000200343E1
S31500007C54087B002814BF102000200343487B00281B
S31500007C6414BF0820002003438879002814BF4FF46A
S31500007C74803000200343636004F580531A630A7856
S31500007C840AB90223E36000236362C8790B7A49794F
S31500007C9443EA8003002914BF102100210B43A3608B
S31500007CA40AB10123E36010BDF8B51446FFF7A8FF37
S31500007CB4012200F500531A63E279A379002A627A55
S31500007CC414BF4FF480170027002A14BF1022002285
S31500007CD494F80BC000EB411543EACC433B431343F2
S31500007CE42B66237A064623B3237B2A6E42EA434253
S31500007CF42A66013B18BF0123A278FFF753FF01232D
S31500007D0406F580563363637822781B0643EA82635A
S31500007D14E27843EA0233227943EA8223627943EA28
S31500007D240223A27A002A14BF0422002213436B669C
S31500007D34F8BD2B6E2B66E2E70D4B984208D1A3F5EE
S31500007D440033C3F88411C36D43F08003C3657047E1
S31500007D54084B984204D1A3F51033C3F89411F2E703
S31500007D64054B984204BFA3F52033C3F8A411EAE7F0
S31500007D740080054000C005400000064070B5054679
S31500007D8416461C4619B90320FFF72CF80146402C69
S31500007D941BD003D8DCB1202C1BD070BD602CFCD1C9
S31500007DA4042303FB06F2560806EB4113B3FBF2F376
S31500007DB4094A203B02EAC303AA6822F06002AA60C9
S31500007DC4AA681443AC60EB61E7E70623E9E71023EE
S31500007DD4E7E70823E5E700BFF8FF7F002DE9B84190
S31500007DE4154F15460F40FAB9202B20D0402B20D032
S31500007DF4002B14BF40241024012307F580775F432A
S31500007E0400233A46194633F01FFD554300FB04F898
S31500007E1404FB0351A2FB040400233A46214433F035
S31500007E2413FD4044BDE8B88180240025E4E71C46E0
S31500007E34E2E780240323E0E7F8FF7F0070B50446F9
S31500007E4485680320FEF7CEFFA36805F00102E16909
S31500007E5403F06003BDE87040FFF7C0BF012200F5E0
S31500007E6480535A60CB43934003F00A034361416154
S31500007E7411B900F50050426070470000012200F578
S31500007E84805310B55A6040F6AA6341F20502436175
S31500007E94002312498360C365C26000F50052036182
S31500007EA4C361C36491640E498365884206D00D4C50
S31500007EB4A04203D004F58044A0420BD18842036556
S31500007EC406D0084B984203D003F58043984201D16B
S31500007ED4002343650123536010BD00BFFFFF01006B
S31500007EE40080054000C0054070B50D46FFF7C6FF8B
S31500007EF4012300F580567360AB7C04461BB183688E
S31500007F0443F080438360EB7C1BB12046297DFFF759
S31500007F1413FF2A8A6B7B20461343EA891343E360E3
S31500007F242B7BD5E90112FFF729FF6B7D1BB1A368F3
S31500007F3443F48033A360AB7DEA7D1B07120502F48C
S31500007F44E00203F0E0431343A3652A7E931E012B4C
S31500007F54214B20D89C421AD003F580439C4218D06A
S31500007F6403F580439C420CBF02234FF0FF3341F2DA
S31500007F74AC5102205B0103F1804303F57033585082
S31500007F84032A23D10423F3652B78636170BD002390
S31500007F94EDE70123EBE79C4214D0104B9C4213D02F
S31500007FA403F580439C420CBF02234FF0FF3342F299
S31500007FB4AC5102205B0103F1804303F57033585042
S31500007FC4012ADEE70023F2E70123F0E7042204F5A1
S31500007FD40053DA65D8E700BF0080054000C00540BD
S31500007FE483691B06FCD5406AC0B2704783695B0689
S31500007FF4FCD5C16370474369002B07DB39B9436A73
S31500008004DB07FCD400F5005001234360704700F5FC
S315000080148050F9E7436810B5DA0704460AD5FFF736
S315000080242AFA636ADB075CBF0123E360BDE81040FC
S31500008034FFF727BA10BDF8B5436805460C4633B1B9
S315000080446B6A002BFCD1012205F500535A60637854
S31500008054227A002BA37814BF4FF0100C4FF0000CBB
S31500008064002BE37814BF02270027002B237914BFC3
S3150000807404260026002B637A14BF08200020002B58
S3150000808414BF4FF480710021E379120742EA0362B8
S31500008094A37942EA034343EA0C033B4333430343D2
S315000080A40B43AB6028462178FFF7A5FF63790BB134
S315000080B400232B62F8BD0000044B054A9A60D3F8EE
S315000080C4882042F47002C3F88820704700ED00E06F
S315000080D400420000014B1868704700BFA45D0020F1
S315000080E4084B1B6F03F00703022B04D0032B05D0A8
S315000080F4012B05D0FEE7044B18687047034BFBE7DA
S315000081040348704700800040A45D0020A85D00205D
S31500008114002D310108B5FFF7E3FF054B1B6FC3F3D1
S3150000812401330133B0FBF3F0024B186008BD00BF06
S3150000813400800040A05D00200048704700B4C404DD
S31500008144014B1868704700BFA85D0020054B1860F6
S31500008154054B1B6F03F00703032B01D1FFF7DABFAF
S31500008164704700BFA85D00200080004000207047D3
S3150000817400487047002D3101174B9868C0F304403E
S315000081840C2822D8DFE800F0092121212121071734
S3150000819419211B1D1F00114870479B6803F040738B
S315000081A4B3F1807F13D0B3F1007F12D00C4A002BB9
S315000081B408BF104670470B4870470B4870470B487A
S315000081C470470B4870470B487047002070470A48B1
S315000081D470470A48704700BF0040014A405DC60028
S315000081E400093D000024F400C0EA210180BA8C0194
S315000081F40048E801005A620280841E0040420F00D3
S315000082044FF4004070474FF47A707047014B18687A
S31500008214704700BFAC5D002008B500239B6A9B69CC
S31500008224DB0205D5012803D840F2022032F08EFE87
S31500008234012008BD00239B6A9868C0F30343C0F37A
S3150000824403621B0243EA0233C0B2184370470000BC
S3150000825470B50438C6B0FB2802F24380DFE810F09C
S315000082647C02411041104110C202411041104110DC
S315000082744110411041104110BC04AA0441104110A0
S31500008284810B0C0518057304820441105D05411029
S315000082944110760545016F03F0031D018D0441105D
S315000082A441104D09411041104102CD02D30D450E36
S315000082B4050EF20DC00D320E720E4110411040062D
S315000082C4E907A701D20666061807C8075C078503EF
S315000082D4FC00B4012A024110EA0402074C064110CC
S315000082E441104110411041104110411054019801B0
S315000082F47F01411041104110B208AA0741104110F4
S31500008304411041104110411041104110A00882054E
S31500008314180832089505C0052A0610064110F90505
S315000083246F084110280A970BB10BB20AC80A6E0AE5
S31500008334F80B280B41100B0C7A0DF80AD50B560CCA
S31500008344400C890A730A2F0C4110FE0168040C03C1
S31500008354411041105108E30541104110A006E40EF6
S31500008364810E030F1B0FF70E0F0FA50EBB0E8D0EFE
S31500008374CE0E990E4110411041104110411041108A
S31500008384411041109407411041103705240541104E
S31500008394010141104110270F4110610F2610AA0F49
S315000083A4E00FF80F940F4110670C890C411041102F
S315000083B4411041108608470AC50F620A6B09AB09CA
S315000083C40F0ADF09411041104110F9045209411006
S315000083D45E09A2091309CE09F60C42035903640384
S315000083E441104110A80C4110DF0C060D411041103C
S315000083F441104110530BF1094A053703411031016D
S31500008404D3092B091F0985099109E30808093709C6
S315000084144209630D7F0D9B0D8F0D530D4E0D4110BB
S315000084244110411041104110EC0F4110440F41100E
S3150000843409101A10740F4108411041104110D30558
S315000084446408B20D9D099F04330456041E04FB03FD
S315000084544110ED02D008E2020CF0A0FA012046B069
S3150000846470BD12AB01930AAB0120B44900930CAA68
S3150000847424AB22F00FFEBDF848309DF8282024993D
S31500008484BDF8300013F072F8AD498DF82C000BAA34
S31500008494002022F0FFFD0120E1E724AB0CAA012015
S315000084A4A84922F0F7FD24999DF8300023F02FFB0C
S315000084B4A3498DF8480012AA002022F0EBFD012002
S315000084C4CDE70CAB24AA01209F4922F0E3FD9DF8D9
S315000084D43010249808F0E2FE99498DF8480012AA53
S315000084E4002022F0D7FD0120B9E724A822F0A8FB3A
S315000084F424A80BF0B3FB92498DF8480012AA002079
S3150000850422F0C8FD0120AAE70CAA01208C4922F01A
S31500008514C1FD24A99DF8300023F0F7FA12AA884970
S315000085248DF84800002022F0B5FD24A9082022F089
S3150000853471FB9DF8980022F035FBBDF89A0022F0F5
S3150000854441FB9DF89C0022F02DFB9DF89D0022F036
S3150000855429FB9DF89E0022F025FB01207FE7862358
S315000085640BAA012076498DF8483022F093FD24A900
S315000085749DF82C0023F0D2FA12AB8DF8300000934C
S315000085840020724924AB0CAA22F084FD012066E780
S3150000859424A813F093FC6A498DF8480012AA002017
S315000085A422F078FD24A822F03EFD012057E724A8F6
S315000085B413F080FC66498DF8480024AB002012AA0B
S315000085C422F068FD01204AE724A80CF0FBF912AA60
S315000085D45B498DF84800002022F05CFD9DF8900070
S315000085E422F0E0FA9DF8910022F0DCFA9DF8920060
S315000085F422F0D8FA9DF8930022F0D4FA9DF894005C
S3150000860422F0D0FA9DF8950022F0CCFA9DF8960057
S3150000861422F0C8FA9DF8970000F0010022F0C2FA91
S315000086249DF89700C0F3400022F0BCFA9DF897002D
S31500008634C0F3800022F0B6FABDF8980022F0C2FA20
S31500008644BDF89A0022F0BEFA082027A922F0E2FA21
S315000086549DF8A40022F0A6FA012000E70CAA012046
S31500008664374922F017FD24A99DF8300015F034F897
S31500008674334912AA8DF84800002022F00BFDBDF8FC
S31500008684900022F09FFA9DF8920022F08BFA9DF852
S31500008694930022F087FA9DF8940022F083FA9DF85D
S315000086A4950022F07FFA08200DF1960122F0B2FA25
S315000086B40120D4E6082324AA012026498DF82C306B
S315000086C40BAB22F0E7FC12A924A815F091FC1D4976
S315000086D48DF8300012AB00200CAA22F0DBFC01203E
S315000086E4BDE624A912A823F0DBF912AB0CAA18499B
S315000086F48DF83000002022F0CDFC24A9082022F0B9
S3150000870489FABDF8980022F05DFA9DF89A0022F0E5
S3150000871449FA9DF89B0022F045FA9DF89C0022F048
S3150000872441FABDF89E0022F04DFA9DF8A00022F011
S3150000873439FA299822F05AFA012090E6B8BD0300C6
S315000087440BBE0300BDBD0300DABD0300F6C903007A
S31500008754FABD030064C9030024A80CF055F9CA49FC
S3150000876412AA8DF84800002022F094FC9DF890008F
S3150000877422F018FA9DF8910022F014FA9DF892005E
S3150000878422F010FA9DF8930022F00CFA9DF894005A
S3150000879422F008FA9DF8950022F004FA9DF8960056
S315000087A422F000FA9DF8970000F0010022F0FAF991
S315000087B49DF89700C0F3400022F0F4F99DF8970065
S315000087C4C0F3800022F0EEF9BDF8980022F0FAF921
S315000087D4BDF89A0022F0F6F9082027A922F01AFA21
S315000087E401203CE60CF03EF9A7498DF8900024AA36
S315000087F4002022F04FFC012031E6082312AC21466A
S3150000880424A88DF8303023F06FF90CAB8DF82C00CA
S31500008814009300209D49019424AB0BAA22F03AFC54
S3150000882401201CE608F0D4FE97498DF8900024AA8E
S31500008834002022F02FFC012011E60CAA0120924907
S3150000884422F028FC24A99DF8300008F049FE8E4940
S3150000885412AA8DF84800002022F01CFC9DF8900016
S3150000886422F0A0F99DF8910022F09CF99DF892005F
S3150000887422F098F90120F2E50CAA0120824922F09F
S3150000888409FC24A99DF8300013F0E0FD7E4912AAE4
S315000088948DF84800002022F0FDFBBDF8900022F080
S315000088A491F9BDF8920022F08DF99DF8940022F01A
S315000088B479F99DF8950022F075F99DF8960022F055
S315000088C471F99DF8970022F06DF90120C7E523F0B0
S315000088D487F86D498DF8900024AA002022F0DAFB6F
S315000088E40120BCE5012068490BAA12AC22F0D2FB98
S315000088F4224624A99DF82C0023F074F864498DF8C7
S3150000890430000094002024AB0CAA22F0C3FB012003
S31500008914A5E523F06BF85C498DF8900024AA0020A5
S3150000892422F0B8FB01209AE523F05EF856498DF84B
S31500008934900024AA002022F0ADFB01208FE50CAAAA
S315000089445149012022F0A6FB24A822F079F924A992
S315000089549DF830000BF04AFA4B498DF8480012AAEC
S31500008964002022F097FB012079E5012046490AAA56
S3150000897422F090FB1422002124A833F064F922F09B
S31500008984FBF88DF8900022F0F7F88DF8910022F0AC
S31500008994F3F88DF8920022F0EFF88DF8930022F0A8
S315000089A4EBF88DF8940022F0E7F88DF8950022F0A4
S315000089B4E3F88DF8960022F0DFF8003818BF01209E
S315000089C49DF8973060F300038DF8973022F0D4F8C1
S315000089D4003818BF01209DF8973060F341038DF8E5
S315000089E4973022F0C9F8003818BF01209DF8973057
S315000089F460F382038DF8973022F0EEF8ADF8980014
S31500008A0422F0EAF827A9ADF89A00082022F0BCF86B
S31500008A14012020490CAB0BAA22F03CFB9DF8303018
S31500008A249DF92C2024A99DF828000BF059F8164925
S31500008A348DF8480012AA002022F02CFB01200EE536
S31500008A440CF0F0FE10498DF8900024AA002022F0C4
S31500008A5421FB012003E512AB01200F4900930BAA69
S31500008A640CAB22F017FB9DF848209DF830109DF8BA
S31500008A742C0017F041FE04498DF8900024AA00202A
S31500008A8422F008FB0120EAE40BBE0300C0BD03008C
S31500008A94C4BD0300CEBD0300D5BD030012AB0CAAB2
S31500008AA40120C54922F0F6FA9DF948109DF83000D8
S31500008AB417F020FEC1498DF8900024AA002022F068
S31500008AC4E9FA0120CBE412AB02930CAB01930BAB96
S31500008AD40120BB4900930DF126020AAB22F0DAFA13
S31500008AE49DF848309DF82C209DF8281000939DF899
S31500008AF426009DF9303017F0F9FDB0498DF8900045
S31500008B0424AA002022F0C6FA0120A8E4AB4912AA3E
S31500008B14012022F0BFFA9DF8480017F0E9FDA749A5
S31500008B248DF8900024AA002022F0B4FA012096E4DD
S31500008B3414F0C0FDA1498DF8900024AA002022F06B
S31500008B44A9FA01208BE424A822F0FAF824A80BF051
S31500008B54B5F99A498DF8480012AA002022F09AFA2B
S31500008B6401207CE408F066FC94498DF8900024AA60
S31500008B74002022F08FFA012071E4904912AA012004
S31500008B8422F088FA9DF848000AF06AFB8B498DF8B2
S31500008B94900024AA002022F07DFA01205FE41EF052
S31500008BA4F9F886498DF8900024AA002022F072FA7A
S31500008BB4012054E4814912AA012022F06BFA9DF89F
S31500008BC4480023F0E6FB7D498DF8900024AA002096
S31500008BD422F060FA012042E40AAB04930DF1260365
S31500008BE4039309AB029324AB019312AB012075499D
S31500008BF400930DF122020CAB22F04CFA9DF82830BA
S31500008C04BDF8482002939DF82630BDF83010019334
S31500008C149DF824309DF822000093BDF8903023F08F
S31500008C24BAFB66498DF82C000BAA002022F032FA12
S31500008C34012014E424A822F003FA24A813F03CF932
S31500008C445E498DF8480012AA002022F023FA01207A
S31500008C5405E45A4912AA012022F01CFA9DF848009C
S31500008C640AF062FD55498DF8900024AA002022F0EE
S31500008C7411FA0120FFF7F3BB012024AA524922F07E
S31500008C8409FA524BBDF8902001201A80FFF7E7BB82
S31500008C94012024AA4C4922F0FDF94D4BBDF8902041
S31500008CA401201A80FFF7DBBB444912AA012022F0F7
S31500008CB4F1F99DF848000AF003FD40498DF890004B
S31500008CC424AA002022F0E6F90120FFF7C8BB414997
S31500008CD412AA012022F0DEF99DF9480008F04EFCA4
S31500008CE436498DF8900024AA002022F0D3F90120F9
S31500008CF4FFF7B5BB314912AA012022F0CBF99DF842
S31500008D04480022F06BFE2D498DF8900024AA00201D
S31500008D1422F0C0F90120FFF7A2BB0CAB01202E49BB
S31500008D2400930BAA24AB22F0B5F99DF830202499C0
S31500008D349DF82C0008F000FA20498DF8480012AA84
S31500008D44002022F0A7F90120FFF789BB08F098FA62
S31500008D541A498DF8900024AA002022F09BF90120DC
S31500008D64FFF77DBB154912AA012022F093F99DF85D
S31500008D74480011F068FF11498DF8900024AA0020DC
S31500008D8422F088F90120FFF76ABB08230CAA012008
S31500008D940A498DF8483022F07DF99DF8300024A95F
S31500008DA412F07AFD00200D4912AB24AA22F072F9C2
S31500008DB40120FFF754BB00BFC8BD03000BBE030070
S31500008DC4CBBD0300D1BD0300C2BD03005A6400201D
S31500008DD46064002071CA0300D9BD030064C903009E
S31500008DE4C24912AA012022F055F99DF8480012F052
S31500008DF46BFDBF49ADF8900024AA002022F04AF981
S31500008E040120FFF72CBB24A80BF088FDB7498DF889
S31500008E14480012AA002022F03DF924A821F057FFA9
S31500008E240120FFF71CBB0823B24924AA01208DF8B0
S31500008E3430300CAB22F02EF924A812F047FEAB49D1
S31500008E448DF8480012AA002022F024F90120FFF729
S31500008E5406BB0CAA0120A54922F01CF924A99DF8F9
S31500008E64300022F0EBFDA1498DF8480012AA00203B
S31500008E7422F010F924A821F017FF0120FFF7EFBA1A
S31500008E84082312AA01209A498DF8303022F002F9FB
S31500008E9424A9BDF8480008F05DFD0CAB8DF82C0044
S31500008EA400930020944924AB0BAA22F0F3F8012086
S31500008EB4FFF7D5BA08238F4924AA01208DF830304C
S31500008EC40CAB22F0E7F824A808F012FD8849ADF8A7
S31500008ED4480012AA002022F0DDF80120FFF7BFBAED
S31500008EE410F0A0FB81498DF8900024AA002022F0FE
S31500008EF4D1F80120FFF7B3BA0CAB01207F490093E8
S31500008F0424AA0BAB22F0C6F89DF830209DF82C104D
S31500008F14BDF8900022F04AFA74498DF8480012AA66
S31500008F24002022F0B7F80120FFF799BA08AB74497C
S31500008F340BAA012000930CAB22F0ACF824A821F074
S31500008F449BFE09AB12AACDE9003201206D490293BA
S31500008F540DF121020DF1220322F09CF8129B0AACBA
S31500008F6403939DF824309DF8202002939DF8223027
S31500008F74BDF8301001939DF82130BDF82C00009304
S31500008F84049424AB22F0BEFC23468DF826005E49E9
S31500008F9400200DF1260222F07DF80120FFF75FBACA
S31500008FA408238DF821308DF826300DF12203029323
S31500008FB40BAB01930DF1210301205449009308AA38
S31500008FC412AB0AAE0CAD24AC22F064F89DF8223044
S31500008FD4BDF82C2012A99DF8200002960195009454
S31500008FE422F006FD0DF126038DF8240000930020DF
S31500008FF42346CDE90156454909AA22F04BF801203A
S31500009004FFF72DBA3A490CAA012022F043F824A806
S3150000901421F032FE0DF1260312AACDE90032012019
S31500009024384902930DF1220209AB22F033F8129B60
S315000090340BAC01939DF826309DF82220009324A9B9
S315000090449DF82430BDF83000029422F0DFFB23465D
S315000090548DF828002C4900200AAA22F01BF80120CA
S31500009064FFF7FDB90CAB24AA0120294922F012F816
S315000090749DF83010BDF890000CF0B2FF1B498DF836
S31500009084480012AA002022F005F80120FFF7E7B9EC
S3150000909424A821F0F1FD0AAB12AACDE9013203930B
S315000090A40DF1260301201B4900930DF1220209ABA1
S315000090B421F0F0FF129B0CAC01939DF828309DF82B
S315000090C424209DF82210009302949DF8263024A8AB
S315000090D422F0A8FB23468DF82C000B4900200BAA8E
S315000090E421F0D8FF0120FFF7BAB900BF0BBE030079
S315000090F4C2BD030064C90300F6C90300DDBD030055
S31500009104E1BD0300EBBD0300FABD0300E5BD0300AA
S31500009114E7BD0300EABD030024A821F0ADFD0DF16F
S31500009124260312AACDE90332059309AB02930DF186
S31500009134220301930CAB0120C049009308AA0DF148
S31500009144210321F0A7FF129B0BAC03939DF8263055
S315000091549DF8212002939DF824309DF82010019358
S315000091649DF822300494009324A8BDF8303022F0F0
S3150000917489FB23468DF82800B14900200AAA21F06C
S3150000918489FF0120FFF76BB90CAA009224AB0120DA
S31500009194AC4921F07FFF24999DF8300022F04EFB64
S315000091A4A9498DF8480012AA002021F073FF012076
S315000091B4FFF755B90CAB0AAA02930BABCDE9002312
S315000091C40120A24924AB21F065FF9DF830309DF8BB
S315000091D42C2024999DF8280022F03DFB9A498DF80D
S315000091E4480012AA002021F055FF0120FFF737B9E5
S315000091F497490CAA012021F04DFF24A821F03CFD3B
S315000092040AAA01208F49009212AB21F043FF129B58
S315000092149DF8282024A9BDF8300022F0B3FB8A4922
S315000092248DF82C000BAA002021F034FF0120FFF753
S3150000923416B988490CAB0DF12202012021F02AFF50
S3150000924424A821F019FD0DF1260312AA0120824952
S315000092540193009209AA21F01DFF129B0BAC019306
S315000092649DF82630BDF83010009324AA9DF82430CA
S315000092749DF82200029422F0C1FA23468DF82800B4
S315000092846F4900200AAA21F005FF0120FFF7E7B87D
S3150000929408238DF830300CAB0BAA01206F490093DC
S315000092A424AB21F0F7FE24A99DF82C0012F032FC21
S315000092B465498DF8480012AA002021F0EBFE012032
S315000092C4FFF7CDB80120634924AB12AA21F0E2FED0
S315000092D49DF84800BDF8901012F0ACFA0120FFF793
S315000092E4BEB824A80BF048FB57498DF8480012AACB
S315000092F4002021F0CFFE24A821F0E9FC0120FFF78D
S31500009304AEB808238DF8303012AB012054490093CF
S3150000931424AA0CAB21F0BEFE24A89DF8481012F036
S315000093243DFC0120FFF79BB801204E4924AA21F0F9
S31500009334B1FE24980EF0DCF90120FFF790B80CAAD0
S315000093444149012021F0A6FE24A821F0B7FC24A956
S315000093549DF8300022F08AFB3B498DF8480012AA9A
S31500009364002021F097FE0120FFF779B80BAB24AA61
S31500009374019301203C49009212AA21F08BFE249A03
S315000093849DF82C10BDF8480023F0A1FB2E498DF85A
S3150000939430000CAA002021F07DFE0120FFF75FB803
S315000093A4294912AA012021F075FE9DF8480022F0F1
S315000093B4B3FB2C49249024AA002021F06BFE012043
S315000093C4FFF74DB808238DF8283012AB01930AAB8A
S315000093D40120264900930CAA24AB21F05BFEBDF8BC
S315000093E4482024A9BDF8300022F094FB16498DF8D4
S315000093F42C000BAA002021F04DFE0120FFF72FB808
S31500009404114912AA012021F045FE9DF848000AF0F0
S315000094143DF90D498DF8900024AA002021F03AFE6A
S315000094240120FFF71CB82DF063FA0E49249024AAF4
S31500009434002021F02FFE0120FFF711B8F0BD030034
S31500009444FABD0300FBC903000BBE0300F8BD03000D
S31500009454C2BD030014BE0300ECBD0300F6C903003D
S315000094640ABE0300BEBD0300FDBD030001BE03002A
S315000094742DF044FACC49249024AA002021F00AFEB7
S315000094840120FEF7ECBF2DF008FAC8498DF89000CC
S3150000949424AA002021F0FEFD0120FEF7E0BF0120F2
S315000094A4C34924AA21F0F6FDBDF890002DF012FA66
S315000094B40120FEF7D4BF0120BC4924AA21F0EAFD0D
S315000094C49DF890002CF060FD0120FEF7C8BF012036
S315000094D4B54924AA21F0DEFD24982DF015FA0120C1
S315000094E4FEF7BDBF0120B04924AA21F0D3FD24987C
S315000094F42DF010FA0120FEF7B2BF2DF07BF9012002
S31500009504FEF7ADBF2CF04DFEA8498DF8900024AAB5
S31500009514002021F0BFFD0120FEF7A1BF24A912A857
S315000095242DF0ACF912A821F041FC24A821F06FFC1F
S315000095340120FEF794BF24A821F014FC0CAB0120F3
S315000095449C490BAA21F0A6FD9DF930209DF82C100C
S3150000955424A82EF085FA95498DF8480012AA002011
S3150000956421F098FD0120FEF77ABF2CF015FC8F49F7
S315000095748DF8900024AA002021F08CFD0120FEF72E
S315000095846EBF2CF091FD89498DF8900024AA002025
S3150000959421F080FD0120FEF762BF2CF079FD012049
S315000095A4FEF75DBF24A821F01AFC24A82DF06FF95C
S315000095B40120FEF754BF12A9102021F0E5FA21F08C
S315000095C41FFB249021F0D8FA0DF195018DF8940033
S315000095D4102021F0D9FA10200DF1A50121F0D4FABA
S315000095E424A912A82CF059FC70498DF830000CAA55
S315000095F4002021F04FFD0120FEF731BF2EF031F996
S315000096040120FEF72CBF0120684924AA21F042FD5F
S315000096149DF890002CF0B8FD0120FEF720BF6249AA
S3150000962424AA012021F036FD24982CF06FFD5F4911
S315000096348DF8480012AA002021F02CFD0120FEF727
S315000096440EBF21F0DDFA249021F096FA0DF1950172
