S01D000042696C6C79312D7263702D756172742D3830323135342E733337EE
S214004000001000202943000027430000274300003B
S214004010E9860000274300002743000027430000EE
S21400402027430000274300002743000027430000E3
S21400403027430000D08A01002743000027430000E2
S21400404027430000254E010027430000B947010022
S2140040507D4E0100314E0100494E0100294E0100FF
S2140040600D4700002743000027430000517800005A
S214004070C1790000274300002743000027430000C3
S2140040802743000027430000274300002743000083
S2140040902743000027430000274300002743000073
S2140040A0274300002743000027430000814E0100FD
S2140040B02D4E0100458D0000BD4E01002743000037
S2140040C0753801002743000010B5054C237833B936
S2140040D0044B13B10448AFF300800123237010BDD6
S2140040E0A81C0020000000006CAD010008B5034BC2
S2140040F01BB103490348AFF3008008BD0000000071
S214004100AC1C00206CAD0100A3F5803A704700BFE0
S214004110174B002B08BF134B9D46FFF7F5FF0021FA
S2140041208B460F461348144A121A13F079FC0E4BAE
S214004130002B00D098470D4B002B00D0984700204E
S214004140002104000D000D48002802D00C48AFF3F3
S214004150008013F009FC2000290000F03DF813F061
S214004160DDFB00BF000008000000000000000000AB
S214004170001000203C110020E47000200000000029
S2140041800000000008B506F0A9FE054B186028B927
S214004190044B054A0548562113F0A2FB08BD00BF94
S2140041A0C41C0020A48A0100B78A0100AE8A010060
S2140041B0014B18680AF01ABFC41C002070470000A4
S2140041C010B5044C206806F04CFF2068BDE810408F
S2140041D006F06EBAC41C002008B504F0D1FDFFF747
S2140041E0EDFF04F0DAFDFFF7EBFFFAE708B5042170
S2140041F0112000F0AFFE0948012100F0CDFB084871
S214004200032100F0A7FE0748032100F0A3FE06489E
S214004210032100F09FFE002008BD00BF30053E00D1
S21400422002001E000300200005002400244B13B5E6
S21400423001225A64234BD3F8FC4001A8240E01F057
S2140042406BFC8E2C1CD82049D1F8B00040F004033B
S214004250C1F8B0301D4B4FF050121A601A631A6640
S214004260C3F89020C3F8C020C3F8F020C1F8B0000F
S214004270154AD36A23F07F0343F02003D36201E09C
S2140042808F2CF5D09DF80530012B01BF104AD2F8CF
S214004290643143F00403C2F864310E4B0022C3F8C5
S2140042A0B42A04F0A5F804F047F804F06BF8FFF71A
S2140042B09DFF04F05BF802B0BDE8104000F060BA65
S2140042C000000E400081E00F00400E4000A00040BD
S2140042D000300E400000C643704708B504F0C4FA2C
S2140042E002F0BCFD03F024FE06F0F5FABDE8084037
S2140042F004F006B908B501F0BBFD01F0C5FD01F0FC
S214004300D5FDBDE8084006F0C5B900F005B8704711
S21400431002F036BA7047704708B5FFF733FFBDE8BE
S2140043200840FFF745BFFEE708B500F063F8064B08
S2140043300649074A8B4201D3FFF7EAFE52F8040B00
S21400434043F8040BF6E700BF001000203C110020E5
S21400435074AD01000048704700F049020D4AD2F8DB
S214004360943003F00703032B11D0042B03D0022B49
S2140043700BD1094B00E0094B1868D2F80031C3F3A3
S21400438004230133B0FBF3F07047054BF4E74FF41A
S2140043900040F2E700400E40041000200C10002001
S2140043A00810002008B5FFF7D9FF054BD3F80831F1
S2140043B0C3F308230133B0FBF3F0024B186008BDCB
S2140043C000400E4000100020014B1868704700BFE8
S2140043D004100020054B1860054BD3F8943003F00A
S2140043E00703022B01D1FFF7DDBF70470410002042
S2140043F000400E400D4B0E4A9A60D3F8882042F4D7
S2140044007002C3F888200B4B5A6D42F400525A656E
S2140044101A6C22F003021A645A6F22F001025A67DD
S2140044201A6E22F080521A66704700BF00ED00E058
S2140044300040000000300E404FF4004070474FF43C
S2140044407A707047014B1868704700BF0C10002048
S21400445000239A6AB2F5006F0AD2D3F82838A3F57B
S2140044600061B1F5605F03D21168084A914203D03B
S21400447000230370836070471968054A9142F7D19C
S214004480012202709A6842609B69F3E7AD1007B09C
S21400449007B0CD5E00230360704703680B600160C1
S2140044A07047036813B90B60016070471846F8E759
S2140044B00346006818B102681A600023036070475C
S2140044C0036803B970478B4202D10B6803607047DC
S2140044D01846F5E72DE9F04106460F4635464FF0FB
S2140044E00008286830B9B8F1000FF7D1BDE8F081B0
S2140044F01D46F6E70468002CF5D02146B8472B6821
S2140045000028F5D1226823604FF001081A602C605D
S2140045102546E6E705490A681318054883428CBF16
S2140045204FF0FF320B601046704700BF101000209F
S214004530007C002038B5124B1B780546DBB1E0B195
S21400454000F003FE0F4A00231146147B54B92B607B
S2140045501A0101EB031301258C501D7300F0FBFDBF
S214004560204638BD0133082B02F11002EDD100F0D1
S214004570F2FD0548F5E70548F3E70548F1E700BF13
S214004580481E0020C81C0020048000F0028000F0B6
S214004590018000F013B5164B1868019000238DF8C3
S2140045A0043000F0D2FD134B1C7824B100F0D3FD8C
S2140045B0114802B010BD01221A7000F0CCFD0F4B5E
S2140045C01C731C7783F82C4083F83C4083F84C40DF
S2140045D083F85C4083F86C4083F87C4004230DEB42
S2140045E003008DF8073001F085F82046E1E700BFAC
S2140045F0108B0100481E0020038000F0C81C00201D
S214004600F8B50D4D2D7885B1072810DC0B4D05EB60
S21400461000140601277B67B1AB51069B636000253B
S214004620A56001F091F82846F8BD0548FCE7054866
S214004630FAE70548F8E700BF481E0020C81C00201F
S214004640028000F0018000F0078000F00A4A12782D
S21400465008B55AB107280BD8084A02EB00131B7B93
S21400466043B1002101F03CF8002008BD0448FCE7F7
S2140046700448FAE70448F8E7481E0020C81C002053
S214004680028000F0018000F0078000F00A4A1278ED
S21400469008B55AB107280BD8084A02EB00131B7B53
S2140046A043B1012101F01CF8002008BD0448FCE7D6
S2140046B00448FAE70448F8E7481E0020C81C002013
S2140046C0028000F0018000F0078000F00A4A1278AD
S2140046D008B552B107280AD8084A02EB00131B7B1C
S2140046E03BB101F083F8002008BD0548FCE705480B
S2140046F0FAE70548F8E700BF481E0020C81C00205F
S214004700028000F0018000F0078000F02DE9F843F9
S214004710DFF86480D8F86070D8F86C301F4000D599
S214004720FEE7144CDFF8549001260025374217D0D8
S2140047302368C8F868609BB1A16862680131A1600F
S21400474028469847637B012B0AD148B909EB4513E5
S2140047501A7B60F341021A731A7F60F341021A77DC
S2140047600135082D4FEA460604F11004DED1BDE8F7
S214004770F88300BFC81C002000200E40481D002003
S214004780024B1968024B18680BF074BA1810002018
S214004790141000207047000037B5920004460D46FE
S2140047A0019201F021F9431C0BD060B9019A294609
S2140047B0204613F0FDF80028044808BF002003B088
S2140047C030BD0348FBE70348F9E700BF10E000F000
S2140047D021E000F024E000F013B5044601A801F043
S2140047E09BF99DF80630238040F201136380074B47
S2140047F0D3F8E4301B0E0A33012203F01F0302FA3B
S21400480003F30020636002B010BD00BF0081E00F1C
S21400481001F032B808B501F023F8002008BD10B545
S214004820044644EA010313F00303084609D1934201
S21400483001D1002010BD54F8231040F82310013396
S214004840F5E79200214613F0C3F8F2E710B50446E8
S21400485001F082F8431C17D0C0B90D4BD3F8E430F2
S2140048601B0E0A3303F01F020123934023F00303B9
S21400487020462344984201D1002010BD50F8042B56
S2140048800132F7D00348F8E70348F6E70348F4E7B1
S2140048900081E00F0EE000F021E000F024E000F0E0
S2140048A008B500F04BFC014B186008BDE024002062
S2140048B0014B186800F046BCE02400200A46013987
S2140048C0014403F097BE00000C4B984210D90C4BE5
S2140048D0984210D9022201230A490B640A49D1F8EA
S2140048E0003123F0807343EA0263C1F80031704759
S2140048F000221346F0E70122FBE700BF0048E8016C
S2140049000090D0030000C84300400E40044BD3F88C
S2140049104421D20703D4D3F840211042FBD170477C
S21400492000400E400A4A0B4990424B680BD90A4A8F
S21400493090420AD903F040724B6823F0407343EA72
S21400494002634B6070470022F6E70122F4E700BFDF
S21400495040787D0100000E40005A620238B5064CD1
S21400496041F67133256C2364FFF7F4FCFFF7DAFF9A
S2140049700DB10023236438BD00000E4038B5054C49
S21400498041F67133256C2364FFF7CCFF0DB100238D
S214004990236438BD00000E4038B5C0F30323013B46
S2140049A0092B16D8DFE803F02616151505191C1571
S2140049B01F23124C0023C0F3043513B11846FFF72B
S2140049C0A5FF04F1424404F5801405EBC404A400DA
S2140049D0216038BD0A4C0023EDE70A4C0123EAE7C4
S2140049E0094C1023E7E7094C4FF48033E3E7084C03
S2140049F00023E0E7074C0023DDE700BFB0400E4091
S214004A00C0400E40E0400E40E8400E40F0400E40F1
S214004A1050410E4000400E40C0F30313013B092BEB
S214004A203FD8DFE803F0050B0F193E3E1F232C3559
S214004A301D4BD3F80001C0F3042070471A4BD3F87F
S214004A401401F8E7184BD3F80001C0F30060431CCC
S214004A500120984001387047134BD3F80C01C0F37F
S214004A6008207047104BD3F80801F8E70F4B984220
S214004A7017D10D4BD3F8203103F00F03E8E70C4BAA
S214004A8098420ED1084BD3F8283103F00303DFE732
S214004A90084B984205D1044BD3F8300100F00F00C4
S214004AA070470020704700BF00400E40800616008A
S214004AB090071A00A009140008B5FFF7ADFF0130F3
S214004AC008BD000000F00F000138072846D8DFE8D0
S214004AD000F004101B45252F4537254BD3F89400CE
S214004AE000F00700831E022B3AD8C0F10600C0B2C1
S214004AF070471F4BD3F8803003F00703013B032BAE
S214004B0030D81C4AD05C7047194BD3F8843003F079
S214004B100703013B032B25D8174AF3E7144BD3F8BA
S214004B20883003F00703013B032B1BD8134AE9E741
S214004B300F4B1B6F13F0010F0CBF072009207047A7
S214004B400B4BD3F85C3103F03003202B0CD0302B0A
S214004B500CD0102B14BF0120072070470020704790
S214004B6005207047012070470420704708207047D2
S214004B7000400E40388B01003C8B0100388B010052
S214004B8008B50146FFF79EFF1A4B994211D01A4B03
S214004B90994212D0194B994204D1194BD3F8800090
S214004BA000F007000138032821D8DFE800F00A0EDD
S214004BB01612134BD3F88400F2E7114BD3F8880093
S214004BC0EEE7BDE80840FFF737BCBDE80840FFF752
S214004BD039BCBDE80840FFF732BCFFF7BFFB084B07
S214004BE0D3F80031C3F300630133D84008BD00207A
S214004BF0FCE700BF030020000500240002001E00A2
S214004C0000400E4000F47813B3F5A01F10B504461C
S214004C1054D01ED8B3F5202F6CD009D8B3F5003F7A
S214004C2041D0B3F5802F33D0002B63D0002010BDC9
S214004C30B3F5602F57D0B3F5801F6CD0B3F5402F77
S214004C40F4D1FFF78BFB3F4BD3F81431C3F30423A7
S214004C5025E0B3F5001F3BD00FD8B3F5D01F39D0F1
S214004C60B3F5F01F25D0B3F5B01FDFD13648FFF7F8
S214004C7087FF344BD3F8203126E0B3F5481F3DD0EC
S214004C80B3F5781F54D0B3F5101FCFD12F4811E0DD
S214004C90FFF764FB2B4BD3F80C31C3F30823013327
S214004CA0B0FBF3F0C3E7FFF759FB264BD3F8083108
S214004CB0F3E72548BDE81040FFF762BF2348FFF73B
S214004CC05FFF204BD3F8303103F00F03D840AEE738
S214004CD01F48EFE71E48FFF753FF1A4BD3F828315B
S214004CE003F00303F2E71B48FFF7ECFE072812D099
S214004CF009289BD1BDE81040FFF730BB1648FFF7E8
S214004D00E1FE072807D0082808D004288ED1BDE881
S214004D101040FFF759BB114B186888E7FFF71EFBDA
S214004D20084BD3F80031C3F3042303FB00007EE7EF
S214004D30FFF714FB01462046FFF7BEFEB1FBF0F07E
S214004D4075E700BF00400E4002001E00050024006C
S214004D500300200006000E00B800320038100020C5
S214004D60013810B5032812D8DFE800F0022E122012
S214004D70214AC1F30801D2F86838002BFBD11F4A3C
S214004D80136A23F4FF7323F001031943116210BD65
S214004D90194A01F07F01D2F86038002BFBD1174A80
S214004DA0136923F07F0319431161F0E7124A01F0FB
S214004DB07F01D2F86438002BFBD1104A936923F0A8
S214004DC07F0319439161E2E70C4AD2F89030536AA8
S214004DD023F0300343F010035362146B084BC1F307
S214004DE0C31003300F2803EA040328BF0F2019431B
S214004DF041EA00711163CAE70020C84300400E4034
S214004E0000F8FF0F104A536A13F0300F18D020290D
S214004E1013D0302914D000290C4B08BF4FF44003A0
S214004E20D2F8901033EA0101FAD15B0246BFD2F8FD
S214004E30A000C0F38020012070474FF40003EFE786
S214004E404FF44003ECE700BF00400E40FF03E107CD
S214004E5002280AD129B1064B4FF48060C3F8A80097
S214004E60596612B10220FFF7CDBF0120704700BF80
S214004E7000400E400428F8B543D8304B304F13F8A6
S214004E8000C0304B1B5C002941D02F4C022834F860
S214004E90106037D17C6A14F0300F33D17C6AE40797
S214004EA005D57D6A25F0300545F010057D62244C59
S214004EB02666264C23449B001D68002DFCD002B3BA
S214004EC06444A4002368002BFCD0022819D1C1B189
S214004ED01B4D696A11F0010116D001222021FFF74F
S214004EE0B7FFD5F89C70012200210220FFF7C2FF11
S214004EF0C7F30A010220FFF733FF2E662368002B54
S214004F00FCD0F8BD0021D2E7FFF77CFFE9E71049A7
S214004F1031F810103966012101FA03F3D7F8901022
S214004F201942FBD1002AECD00124054A04FA0CF4FD
S214004F30D2F890302342FBD1E3E700BF408B01005C
S214004F4000400E40458B01004A8B01008004F210A1
S214004F50548B010010B500F00F04631E072B42D8D7
S214004F60DFE803F00F043D413B5C41674A4C0139E2
S214004F70092938D8DFE801F050383F373746373749
S214004F803735023903292ED8DFE801F02402191F2D
S214004F900120032401221146FFF76CFFFFF7DEFC19
S214004FA03E4B5C67FFF7FEF90446FFF7D7F9FFF7BD
S214004FB08BFC20460021BDE81040FFF7DFBC3848D8
S214004FC0FFF782FC02200446E4E73548FFF77CFC46
S214004FD00320DFE700200424DCE7324CC7E7324C2E
S214004FE0C5E70423236010BD012211460020FFF709
S214004FF041FF0223F6E7012211461046FFF73AFF6B
S2140050000123EFE7FFF7AAF9FFF75EFC274B012223
S214005010C3F800260323E5E70023E3E7072904D0C7
S2140050200929E0D11D4B012201E01C4B00221A6722
S214005030D9E701390729D6D801A353F821F000BFD4
S21400504093500000E74F0000E74F00008550000037
S214005050E74F0000E74F0000775000006150000067
S21400506003220E49D1F85C3123F0300343EA0213E1
S214005070C1F85C31B7E7012211460420FFF7FAFEBB
S2140050800122EEE7012211460220FFF7F3FE02227C
S214005090E7E70022E5E700BF80400E4000400E40F4
S2140050A00148E80188400E4084400E400010C84386
S2140050B010B504461120FFF705FD0021012202204D
S2140050C0FFF7D8FE1B4A217C536A23F0010302290E
S2140050D008BF43F001035362174B2178C3F8A014AE
S2140050E0936AE17A23F007030B439362A188637AFD
S2140050F043EAC123D362136BA07A217A03F07F635D
S2140051000343E08843EAC02343EAC11303310F296F
S21400511028BF0F2143EA01731363A37B617B1B0146
S21400512043EA0133E17B0B43217B43EA01435363AC
S21400513010BD00BF00400E400000C843EFF31080D3
S21400514072B6704700B962B67047EFF311806023FD
S21400515083F31188704780F31188704719481A4BFB
S214005160C26C1B88C2F303222833013202EB820191
S21400517003EB5303B3FBF1F3C16C013B072B28BFD2
S214005180072321F0EE6141EA036343F48013C3640E
S2140051900E4BB3F90030002B12DB03F12801C1F3EC
S2140051A04E030B44510801EB4202B3FBF2F2036DCF
S2140051B0072A28BF072223F0700343EA021202657B
S2140051C0704700BF00300E406A2500206C25002086
S2140051D00378002B437870B50E4C14BF04260026C7
S2140051E0002B8378A16914BF02250025002B0379C4
S2140051F021F03F0143EA0103C17814BF08220022D0
S214005200012908BF43F0010333432B431343A36133
S21400521070BD00BF00300E401A4B4AF6E85210B57B
S214005220596B5A639A6FD407FCD41B6C13F00303B4
S2140052301EBF154A0124C2F8B44A834204D110B9ED
S214005240114BC3F8B40A10BD23B9012802BF0F4B97
S21400525002221A700B4B9A6FD207FCD41A6C22F0FB
S214005260030202431A649A6F12F00102FBD100385F
S214005270054C18BF01200129C4F8B40A08BF5A63B8
S214005280E1E700BF00300E400000C6436E25002058
S214005290A0F5E163B3F5966F2DE9F04303D900213D
S2140052A00846BDE8F083B0F5E16F634B40F0B88088
S2140052B0D3F818524FF41678C5F307294FF4966CB6
S2140052C0EDB25E4BDF6CB0F5E16618BF0126C7F3A2
S2140052D0017746EA0724B4F5007F71D04ED8B4F5BE
S2140052E0807F69D03FD8002C62D0012C55D0002496
S2140052F02346A9EB050EA0EB0C0C0CFB0EFEBEFB2A
S214005300F8FE75444D45CAD8A4EB030E0CFB0EFC04
S214005310BCFBF8FC6344A3424FF0000CBFD892B12C
S214005320DFF818E1DEF85C4024F4FE4424F00204C2
S214005330B0F5E16F44EA052418BF4FF0020C44EACA
S2140053400C04CEF85C40002968D03B4AD2F80041F5
S214005350E4B2032C3CD8B0F5E16FD2F82C223FD053
S214005360C2F307223DE040F201139C42BFD1324B0C
S214005370D3F824321C0EC3F30743BAE7B4F5407FD4
S21400538022D040F201339C420ED040F201239C42D0
S214005390ADD1294BD3F8283202E0274BD3F824327C
S2140053A0C3F30724DBB2A4E7234BD3F82832E1E7A4
S2140053B0214BD3F81C32F3E71F4BD3F81C32D9E746
S2140053C01D4BD3F82032EBE71B4BD3F82032D1E746
S2140053D0022FD2F830221CD0032F1DD0012FBFD0B1
S2140053E0D2B2120312F4702F7FF459AF134CE06E52
S2140053F020F470400243E266626E22F4FF72E72BEE
S21400540022F0010228BFE723324342EA43036366E1
S21400541046E7C2F30742E4E7120EE2E701213FE760
S214005420D3F818524FF496684FEA15694FF4E16CBA
S214005430C5F3074545E700BF0081E00F00300E408A
S214005440184B1A6FD96C11F0010F02F0060213D038
S21400545092B1132821D9143813288CBF102308239F
S2140054601048013BC26C190322F47F4241EA032331
S2140054701343C364FFF772BED96C01F001011143F8
S21400548004D1092809D90A380928E6E7DB6C13F0A5
S2140054900103E5D01AB92728DFE70423E0E7002355
S2140054A0DEE700BF00300E40064A074BD3F88039CF
S2140054B0136F23F007031843044B10671888FFF791
S2140054C0BFBF00BF00300E400000C6436825002066
S2140054D04E4B37B502229A639B6B03F00F03934241
S2140054E0044603D00025284603B030BD484BD3F809
S2140054F01C32013312D0474BD96B9A6B1160596C32
S2140055001A6C1160D96C9A6C1160596D1A6D116025
S214005510D96D9A6D11605A6E1B6E1A60E388A18869
S214005520B4F90C004A2B65D9B3F5FA7F64D340F67C
S214005530C312934294BF4FF000524FF04052334D87
S214005540EB6C23F0405323F001030028A8BF43F080
S21400555001031343EB64304B1980EB6E43F080730A
S214005560EB662E4BD3F8800900B10420FFF79CFFB2
S2140055702B6E23F0C0432B66EB6C43F0060301A8AA
S214005580EB6400F0C9FA9DF80500012811D19DF8DA
S2140055900430022B0DD822490B7853B96B6C214A84
S2140055A043F001036B642B6E1A401F4B13432B66AC
S2140055B008701E4B218919801D4BB4F90C20A08859
S2140055C01A80FFF73DFFA37BCBB1012B1BD0012236
S2140055D060881146FFF75CFE0546002882D0A37A55
S2140055E00E4A003B18BF0123C2F894376078FFF7D5
S2140055F013FE78E70022A2E74FF080529FE7034BA6
S2140056000C4A9A65E3E7014B0B4AFAE700300E4076
S2140056100081E00F0080E00F682500200000C643F0
S2140056206E250020000F0EF0B4C0400B6A25002047
S2140056306C25002077402057372110B770B50546F7
S2140056400E461446FFF77AFD296881EA040202EA4C
S21400565006044C402C60BDE87040FFF773BD0000A8
S2140056602DE9F04130260D469846464317464AB186
S214005670184C01238B403444B8F1000F1CD004F1C1
S214005680C0642360072D4FF00F0118D8AB001248F6
S21400569007FA03F299403044FFF7D0FF57B90D4A96
S2140056A0012101FA05F53244B8F1000F0FD002F1DE
S2140056B0C0621560BDE8F08104F18064E1E7A5F101
S2140056C008039B00054807FA03F29940E3E702F156
S2140056D08062EEE70CA0004004A0004008A0004056
S2140056E0034B03449B0081F001011960704700BF23
S2140056F0A001F11010B5044601214FF48A40FFF7CF
S2140057004BF9B4F8013022785BBA9BB243EA0263E5
S2140057100B4A136000231362D36253634FF00043B7
S214005720D3664FF0FF339366064A4FF48071C2F893
S2140057308011E3785B01DBB282F80833116010BD9C
S21400574000200E4000E100E02DE9F041C3B2012543
S2140057509D40CB7A8F7A234ED1F800E00C464FF06E
S2140057603008097B94F80DC0B5661B0508FB006081
S21400577043EA074343EA415322F00302C0F880E0BD
S214005780C0F888C0C0F88430C0F89820FFF7DDFC69
S214005790F36E2B43F366237A13B1736B2B43736359
S2140057A0637A13B1F36A2B43F3620E4B1A682379BC
S2140057B023B1DB431B0263F47F431A4063790BB1CA
S2140057C042EA0322A3790BB122EA0302E3791A43E1
S2140057D0044B1A60044A9562DD63BDE8F041FFF7AA
S2140057E0BABC00BF00200E4000200E4410B5C0B268
S2140057F001248440FFF7A9FC054AD36E23EA04037C
S214005800D366044B1C62BDE81040FFF7A4BC00BF83
S21400581000200E4000200E440F4A70B500230825D5
S2140058208B4201D1002070BD50F8234094610B4C90
S214005830D5600133D669F60705D514B96FF00200B6
S214005840F1E7013CF6E7002CF8D0D469A407E7D5C9
S2140058506FF00100E7E700BF00000E40809698005A
S214005860044B41F671321A649A6822F001029A607B
S214005870704700BF00000E40034B9A6822F00102FA
S2140058809A6000221A64704700000E40094A0A4BCC
S214005890D969C90705D512B96FF002007047013AF9
S2140058A0F6E7002AF8D001221861DA60D86940F3DA
S2140058B0800070478096980000000E4009B1FFF700
S2140058C0ABBF084670470000224B2DE9F0470D4657
S2140058D041F671311F6C1964996841F00101064662
S2140058E0BFB299604FEA9208AA464FF00009C14538
S2140058F00DD3002032682B689A420ED03046FFF750
S214005900C5FF50B901212846FFF786FF05E006EBE4
S21400591089042046FFF7BAFF48B10E4B9A6822F07A
S21400592001029A600FB100221A64BDE8F087C4F342
S2140059300A04C4F50064A408A8EB0901A14228BF24
S21400594021465046FFF7BAFF0028D3D189440AEB18
S214005950810ACCE700000E40214B41F671311A6CEB
S2140059601964996841F00101996001211861D960B4
S214005970D969490792B209D5996821F00101996061
S2140059800AB100221A644FF0FF3070470221D96036
S2140059901449D869C00700D569B9D86910F0020063
S2140059A00BD0996821F0010199600AB100221A64AF
S2140059B06FF0010070470139EBE741B9986820F0B5
S2140059C00100986002B119646FF002007047996890
S2140059D021F0010199600AB11864704710467047BB
S2140059E000000E4080969800FFF76EBF014B012224
S2140059F09A60704700500E40194BF0B500215D6864
S214005A00184C194E194F0846D6F8E8C16268236844
S214005A101CF0040F0BD1B3F5006F06D01DD8B3F5FC
S214005A20007F02D0B3F5806F01D142F48072D7F8C0
S214005A3088C01CF4807F18BF22F01C022B4202D0C4
S214005A402A4208BF18430131092904F10804DBD1B2
S214005A50C30348BF20F01C00F0BDB3F5803FE3E76A
S214005A6000500E40608B01000040E00F00300E40FA
S214005A708B784A789B0143EA82030A781343CA78F4
S214005A8043EA02130A7943EAC2234A7943EA023315
S214005A908A79043043EA42430001014A13507047B2
S214005AA000200440014B1860704700BF000084428D
S214005AB0427801790378002A827870B514BF0426EC
S214005AC00026002AC27814BF10250025002A427935
S214005AD04FEA023242EA012242EA0302837914BF05
S214005AE020240024002BC37942EA034343EA06033A
S214005AF0027A43EA050314BF4FF400410021234312
S214005B00002A14BF4FF4003200220B431343014A0D
S214005B10136070BD002004400D4AD2F8E430D2F87D
S214005B20E0109B0003F03C03C1F381110B4383702C
S214005B30D2F8E03003F03F034370D2F8E830D2F8F2
S214005B40EC2003F0F003C2F3031213430370704714
S214005B5000FF0FE070B5054616461C4619B91448F6
S214005B60FFF750F80146402C1BD003D8DCB1202CA0
S214005B701BD070BD602CFCD1042303FB06F2560834
S214005B8006EB4113B3FBF2F30A4A203B02EAC303D7
S214005B902A6822F060022A602A6814432C606B612F
S214005BA0E7E70623E9E71023E7E70823E5E700BF72
S214005BB040410500F8FF7F00CB435B0003F00A037B
S214005BC0C360C1607047000040F6AA63C36041F23C
S214005BD005020023036042600B4A83604361C3648E
S214005BE082640A4A03669042436702F580628367CE
S214005BF0C36701D0904200D10365002390428365BD
S214005C0008BFC365704700BFF9FF010000000140F0
S214005C1038B5FFF7D9FF8B7C04460D461BB10368E9
S214005C2043F080430360EB7C1BB12B7D43F0800385
S214005C30A3652A8A6B7B1343EA89134363602B7B35
S214005C40D5E901122046FFF785FF6B7D1BB123685F
S214005C5043F480332360AB7D1BB1236843F40043D9
S214005C602360EB7D2A7E1B07120502F4E00203F098
S214005C70E04313432366636F23F030036367626F6A
S214005C806B7E134363672B78E36038BD38B50446F4
S214005C900AF06FFF0FCC044D0FC594E80F0085E89F
S214005CA00F00002038BD00BF7025002047F6FF73A8
S214005CB09A42F0B569D0022969D8364B03EBC10584
S214005CC0CF00A87813F83110012838BF0120012929
S214005CD0044613D1EB781B1A0020984202D3E01832
S214005CE0C0B2F0BD191AA3EB51016E6836F9116007
S214005CF09642CCBF01F1FF330846EEE768680028FD
S214005D00EFD0B0F90010914204DBB0F902109142D6
S214005D10B8BF114682883B44FF2A08BFB0F9062068
S214005D205F7807BFB0F9086001250025C82207F193
S214005D30FF3318BF2826521A92FBF6F22A449342E3
S214005D4028BF134600EBC3054FF47A7EAE68EA8898
S214005D5011FB02621E46013322EAE2729F4202F5FE
S214005D60FA72AC46B2FBFEF205D9BCF80CC09445FC
S214005D7005F10805EAD200EBC6008088904228BFED
S214005D801046A04238BF2046AAE7FF20A9E7002019
S214005D90A7E700BF702500200229F0B55FD8314B79
S214005DA013F83100012816D103EBC1018C78C878AE
S214005DB0012C234638BF0123904294BFC3EB000357
S214005DC0C3EB0203DBB2001B4A688342C8BF002352
S214005DD032F91300F0BD002A3FD003EBC1014B6837
S214005DE0002B3CD08878904202D3B3F90200F1E74A
S214005DF0CC78B3F900009442ECD94C789988A1F19C
S214005E00FF06013C714203F10405E4B2714103F15F
S214005E100C071FFA82FCCEB2B44216D805EBC101BD
S214005E204FF47A75B1F9024049686A43521A04EB96
S214005E30D47102EB610292FBF4F29042CADBB3F932
S214005E4002009042C6DC10B2C4E737F831E0E645FF
S214005E5001F10106E2D33146DDE70348BAE703481D
S214005E60B8E700BF702500200CFEFFFF0080FFFF94
S214005E7008B50448FFF70AFFBDE8084001200AF00D
S214005E80B5BE00BFA88B01007FB51422002101A873
S214005E9011F0C6FD044B029301A94FF0FF300AF043
S214005EA06BFF07B05DF804FB006A18006FF007018F
S214005EB04FF0FF300AF065BF007A0B7A98422CBF8D
S214005EC0002001207047D0F894301BB1D0F898100D
S214005ED0007A18477047000038B50546FFF735F9D1
S214005EE0054B1C6814B1237AAB4203D1FFF733F994
S214005EF0204638BD2468F5E7A02500202DE9F743A5
S214005F00064608460F4691469846FFF7E5FF01907D
S214005F1048B190F86830002B0CBF2E24042420468D
S214005F2003B0BDE8F08301A801F0A0FF04460028F6
S214005F30F5D1019D6881A87385F86800286085F80A
S214005F4009902F7285F80C8085F80D80FA2002F0F3
S214005F5061FD286101989C30FEF79CFA0198A030FC
S214005F60FEF798FA0198A430FEF794FA0198A83044
S214005F70FEF790FA01990648FEF78FFA054904489D
S214005F80FEF7A8FA0123B360019B37713360C6E7BA
S214005F90A0250020B95E000070B50446407BFFF7E0
S214005FA09BFFC56F3DB1A2696168007AAC460023CD
S214005FB0BDE87040604770BD10B50446FFF7C5F8F1
S214005FC0A368013BA360BDE81040FFF7C4B800001B
S214005FD038B50546FFF7B9F8291D04460348FEF70D
S214005FE05CFA2046BDE83840FFF7B5B8902500209B
S214005FF038B50C46FFF7A9F894F86830022B05462A
S21400600005D1012384F868302046FFF7E1FF2846D3
S214006010BDE83840FFF79FB82DE9F3470446002750
S214006020303002F05BFCE773FFF78FF8DFF844814F
S214006030D8F8005006468DB927463046FFF78BF84D
S21400604057F8A86F002E36D1274657F8A45F002DC4
S21400605059D1237B637302B0BDE8F087D5E9009180
S2140060600B69A34220D10B7B7F2B4FEA93121DD8DE
S214006070D4F87CA0BAF1000F04D08A69207A496867
S2140060803323D0476A68937B013B93732946404687
S214006090FEF716FA6868476001F006FE284601F02B
S2140060A0D7FE637B013363734D46C4E7032AE9D109
S2140060B0D4F888A0DEE77168D6F800800B7B7F2BCB
S2140060C04FEA93121AD8D4F87C90B9F1000F04D096
S2140060D08A69207A49683323C8477268937B013BF4
S2140060E0314693733846FEF7EBF97068456001F069
S2140060F0DBFD304601F0ACFE4646A3E7032AECD1B2
S214006100D4F88890E1E7D5E90082937B013B93734E
S21400611029463846FEF7D4F969688B7BABB9D4F8C4
S2140061207C90B9F1000F04D08A69207A496833233D
S214006130C8476868466001F0B7FD284601F088FE4B
S214006140A37B013BA373454681E701A801F0ACFEA3
S214006150FEF7FBFF019B227A1A70E26F5A60D4F8B2
S21400616088209A606A689169D96016619361FEF723
S214006170F2FFE2E7A82500202DE9F34713F00E0F03
S214006180447A0546884691461E460CD0A30768D535
S21400619016F002032BD116F0040A2AD116F00804D2
S2140061A02AD1A24604E014F001045AD14FF0010AA5
S2140061B095F86830002B56D1684601F0E1FC07469A
S2140061C088B9009BC3F80480A3F808901D612A7A5A
S2140061D05A730A9A9A6101A801F028FE07460098A9
S2140061E067B101F061FD384602B0BDE8F0870024D3
S2140061F0D7E704249A46DBE70E24D9E7019B5860CC
S214006200BAF1000F23D0A97AEA7A0B01DBB21A435F
S2140062100131C6F3001342EAC30301F0070103731A
S214006220A9724946404600F037FE009A50816B7BC3
S2140062308BB1013B6B73FEF788FFDDE90021044656
S2140062400A4801F04BFE2046FEF785FFCBE764F0D8
S2140062503F040473E5E7019905F1A80001F03EFE4E
S214006260C1E72127BFE70227BDE700BFA82500201A
S214006270F7B5074668460E4614461D4601F0ACFCC8
S214006280F8B9009A5368567364F06F041473176174
S2140062901D70009B0121586800F0FEFD009B588190
S2140062A001A801F0C3FDDDE900235A60FEF74DFFAB
S2140062B0DDE900210446044801F010FE2046FEF702
S2140062C04AFF03B0F0BD00BFA825002038B504463D
S2140062D030B1FEF73AFFA5681DB9FEF73CFF284629
S2140062E038BD0135A560FEF736FF0120F8E700004F
S2140062F013B50446684601F043FC009B1C61227AF5
S2140063005A73E27A62F07F021A7301A801F08EFDDA
S214006310DDE900235A60FEF718FF019904464A6833
S214006320034801F0DBFD2046FEF715FF02B010BD66
S214006330A8250020FFF7E2BD70B50E4614460546B8
S21400634000283ED0FFF7C2FF00283CD02B6883B958
S2140063502879FFF7C1FD50B190F86830022B0CBFCA
S21400636002241F242846FFF727FE204670BD02247D
S214006370F8E70B2E23D8DFE806F0060A0D101315F3
S214006380181A221A1C1FC3F880400024EAE7C3F834
S2140063908440FAE7C3F88C40F7E7C3F89040F4E788
S2140063A0DC67F2E7C3F88840EFE71C67EDE7DC66DA
S2140063B0EBE7C3F89440E8E7C3F89840E5E7212404
S2140063C0D0E72224D1E70224CFE7000073B50546C4
S2140063D0FEF7BBFEAB68012B064603D9FEF7BBFEF5
S2140063E0042412E02C680023AB608CB92879FFF7F0
S2140063F073FD044630B190F86830013B012B94BF22
S21400640000241F243046FEF7A6FE204602B070BDCC
S214006410FEF7A1FE2B79EBB904F19C06D4F89C306C
S214006420FBB904F1A006D4F8A0300BBB94F8683092
S2140064302BB1033B022B34D82046FFF7EDFD2B791A
S214006440EBB9012384F868302046FFF7C1FD00242D
S2140064502C60DAE7207A01F053FF0028DCD03046C3
S214006460BCE73046FEF724F8083801F0BBFCD5E759
S2140064703046FEF71DF8083801F0B4FCD3E70223D7
S21400648084F868304FF47A7002F0C4FA0023CDE93D
S21400649000330146044A234604F14C0002F046FA53
S2140064A0D5E70124B1E700BFF15F000070B50D46E7
S2140064B016460446A8B3FFF709FF00B323685BB986
S2140064C02079FFF709FD0028204614BF1F25022566
S2140064D0FFF772FD284670BD9DF8102092074BBF4F
S2140064E0D3F8A020D3F89C2003F1A00003F19C0071
S2140064F05AB993F8683020461BB1FFF75DFD0225B8
S214006500E8E7FFF759FD1B25E4E7FDF7D1FF29462D
S2140065103246083801F054FC2046FFF74DFD0025B2
S214006520D8E72225D6E730B587B0CDE90421039316
S2140065300446D0B1FFF7CAFEC8B120680599DDE968
S214006540033260B92079FFF7C7FC002814BF1F2567
S21400655002252046FFF730FD284607B030BD0A9DCD
S2140065600095FFF709FE0546F3E72225F4E7022526
S214006570F2E708B5036833B90079FFF7ADFC28B138
S21400658090F8680008BD93F86800FBE70620F9E776
S21400659010B5FFF7A1FC0446D0B190F86830022B86
S2140065A00AD14C3002F09AF9012384F8683020466C
S2140065B0BDE81040FFF70CBD53B9032380F86830E0
S2140065C0303002F08BF92046BDE81040FFF77BBC68
S2140065D010BD000018B9024A1378013313707047D3
S2140065E0A4250020F7B503681B7904467F2B4FEAE5
S2140065F0931698BF0026FEF7A8FD25690746002DCE
S21400660039D0002E58D0032E46D1D5F8886026B152
S214006610A2696168287A0023B04700236360204699
S21400662001F042FB6B7B01336B73D5F8A830002B6F
S2140066305DD0334C05F1A8066B7B002B2FD030467F
S214006640FDF736FF014618B14268937B013B937312
S2140066504A68137B9B09032B02D0AB7B002B42D1ED
S214006660204601F03BFC6B7B013B6B73D5F8A830F2
S214006670002BE1D113E00EB1032E0DD1A569A6B90A
S2140066806E6826B1EA68616828783323B04700232D
S2140066906360284601F01AFC204601F005FB3846E8
S2140066A003B0BDE8F040FEF756BD032EEFD16B6891
S2140066B0002BECD0AE68E5E7237F23B111491248E2
S2140066C0224600F009FC204601F0EEFA0428E6D146
S2140066D00023CDE900330D4A2969234605F1300031
S2140066E002F024F9DBE7304601F0FDFBD7E795F82A
S2140066F06830012BD3D12846FFF76AFCCFE700BFEE
S214006700A8250020995F000094250020096E00004F
S214006710024A137801331370704700BFA425002087
S2140067207047000070B50546FEF70FFD064605F1FA
S214006730A400FDF7BDFE044618B14268937B013BFA
S21400674093733046FEF707FDBCB12046FFF7E8FF1F
S2140067506368186801F0EAFAFEF7F7FC6268064616
S2140067602146064801F0BFFB3046FEF7F4FCEB7B03
S2140067700133EB73AB7B013BAB7370BDA8250020E8
S2140067802DE9F04F2DED028BA84B91B01B780893A6
S2140067900693069B002B63D1FEF7D7FCA34A089905
S2140067A01378A34E5B1A1370FEF7D5FC01F04CFD70
S2140067B001273368002B47D000F0E6FF002843D0BF
S2140067C03368002B40D0FEF7C0FC04463046FDF789
S2140067D06FFE054618B14268937B013B93732046D3
S2140067E0FEF7B9FC6C68204601F0E4F922890AB18C
S2140067F0023292B2237B7F2B4FEA931807D8216987
S214006800C97A23F007030B4323734FF00008617B1C
S214006810237B0097206801F015F92189204600F0B7
S21400682087FF002800F0A682FEF78FFC2246294646
S21400683006467F4801F057FB3046FEF78CFC206882
S21400684001F074FA002323607A4E3368002B40F080
S214006850AB8211B0BDEC028BBDE8F04F00F052BB2E
S2140068600DF12E010CA800F01BFF8246002840F018
S2140068702A82714B5B785BB90C9B18680521B0F8CF
S214006880052000F021FB18B90C9801F00DFA1AE269
S2140068900C9A136893F804B05E785B8807930799A0
S2140068A0BDF82E30BBF17F0F4FEA9B1598BF002531
S2140068B08B4228BF0B4613813046FFF70DFB04467C
S2140068C0002800F04E82EF070AD40C9B1B7D3BB9D4
S2140068D0FEF73BFCD4F8A42081468AB9FEF73BFCC1
S2140068E00C9F3B7D002B00F01A812046E27A314651
S2140068F0FFF7BEFC0C980023037501F0D5F9CCE138
S2140069005268A17B12681279C2F30212571C114416
S21400691007F0070701F007018F420BF0070305D8C1
S214006920BB4201D38B4205D94846D7E78B4201D9F3
S214006930BB42D3D3934298BF08339B1A0027DBB2DF
S214006940E773099302F04CF8D4E90632C01A61EBFB
S21400695002013A4A1378002B72D0C4E908014008B5
S21400696040EAC1704908C4E90A0117703220D4E928
S2140069700A8702F04FF8804577F1000305D23220EF
S21400698002F048F80023A062E362D4E90A07BF00D9
S21400699047EA90774FEA8008D4E9080318EB000826
S2140069A041F2883047EB030702F034F800234045F5
S2140069B0BB417BD241F2883002F02CF88046C4F806
S2140069C0108004F1300001F089FF04F1A40308EE02
S2140069D0103A099A5FFA8AF3934270D34846FEF754
S2140069E0BAFBDFF84C9004F1A808D4F8A830002BC6
S2140069F03FF476AF637B002B3FF472AFFEF7A5FB48
S214006A0007464046FDF754FD014618B14268937BA1
S214006A10013B937348464A6801F060FA637B013B8A
S214006A2063733846FEF797FBDFE700BFA425002018
S214006A30A825002090250020A52500203C10002039
S214006A40D4E90A27920842EA8772D4E9083E12EB94
S214006A50020C4FEA970747EB07081CEB020C47EBC4
S214006A6008071A1A6EEB0108B8F1000F02DA524254
S214006A7068EB4808920842EA88721CEB020247EB71
S214006A80A807DB08C4E90A2743EA4E730727C008AD
S214006A90A3FB072340EA41704FEADE0E101807FBFF
S214006AA00E3E4EEBD101C4E908015FE7FA2001F083
S214006AB0B1FF804577F1000381D2FA207CE718EE1B
S214006AC0100AFDF7F5FC059018B14268937B013B70
S214006AD09373059BD3F8048098F80E30D3B9E26F11
S214006AE017462AB1D8F81820D8F80410207AB847E4
S214006AF00023C8F80430404601F0D6F8059801F0A7
S214006B00A7F9637B01336373A37B013BA3730AF18D
S214006B10010A5EE74FF0010388F81C30EEE74FEA03
S214006B201B18002D7ED194F868300F95022BCDE906
S214006B300D5506D105232A4631462046FFF798FB19
S214006B406CE03B68D7F80490B3F802A0AAF1020AFA
S214006B501FFA8AFA5146484600F06EFF5146024632
S214006B60484600F0B1F9E27A08B90123E4E7637A0F
S214006B70D80701D50623DFE708F00708904543D17C
S214006B801BF0080F09D1524604F19C01384601F06B
S214006B90EDF8E0B1E27A0323CEE7237A13B10623B9
S214006BA04246C9E7266F56B10FAB02930DAB019371
S214006BB00EAB00937A68E16E53462846B047786875
S214006BC001F0A4F800237B60384601F06DF8D4F895
S214006BD080301BB1D4F88410207A9847E37A0133CA
S214006BE003F00703E3722046FFF782FB0E990029A5
S214006BF053D00D9A002A50D00F9B009392B21023C8
S214006C002046FFF7B9FA48E0531E984503D03AB934
S214006C10B8F1070F04D12046FFF76AFB38466CE64A
S214006C20022389E7022D56D108F00308B8F1010FB8
S214006C3094F8685012D17B681B785A1E042A12D822
S214006C40DFE802F0061306030F001D46012606E0E5
S214006C50D4F8A4601EB12046FFF764FD0026B046B7
S214006C6007E00325F2E70525F0E7052500264FF0A7
S214006C700108384601F018F8B8F1000F0DD094F866
S214006C806830022B23D004F1300001F027FE84F890
S214006C90685016B12046FFF716F994F86830012BB5
S214006CA011D1627B237B9A420DD104F1300001F0B2
S214006CB015FE0623534884F868302146FDF700FC8D
S214006CC0204601F0E9F8069B013BDBB260E5204672
S214006CD0FFF7A2F9E1E7032D3BD1079A022A27D94D
S214006CE0961E7D68B6B23146284600F0A5FE3146AF
S214006CF00246284600F0E8F800288FD0627A91070E
S214006D008CD51BF0370315D1530787D4324604F1D0
S214006D10A001384601F02AF800287FF47FAFD4F8A7
S214006D208C30002BB9D0D4F89010207A9847B4E76E
S214006D301E46E3E7042B3FF471AF312B7FF46EAFB2
S214006D40227A002A7FF46AAF6281082300921146F5
S214006D5056E72046E27A06233146FFF789FA0C9872
S214006D60CBE5022D3FF490AD052302463146FFF7F2
S214006D707FFA89E5B8F1000F12D12069224629462C
S214006D80A43001F0ABF82469A37B0133A373E37B43
S214006D90002B7FF40EAD01F023FEC4E9060108E5E2
S214006DA0284601F055F804E5FEF7CFF905463046CB
S214006DB0FDF77EFB04462846FEF7CDF9DFF8448053
S214006DC00627627A237A9A42A4F104050CD104F1CC
S214006DD02C0001F083FD404684F864702946FDF7D8
S214006DE06FFB284601F058F8FEF7AFF90546304627
S214006DF0FDF75EFB04462846FEF7ADF9002CE0D111
S214006E0027E500BFA025002070B50C46FEF79DF9CB
S214006E1006462069C27B042A0DD9032280F8682022
S214006E20303001F05BFD2069FFF74DF83046BDE8D5
S214006E307040FEF790B905696D00056141F2883033
S214006E4001F0E8FD854205D941F28830256901F058
S214006E50E1FD28612069FFF765FCE7E708B50A4809
S214006E60FDF718FB0948FDF715FB0948FDF712FB6F
S214006E7000F000FE074800F00DFC00F0F9FA01F003
S214006E80FDF9002008BD00BFA025002090250020A9
S214006E90A8250020A525002010B5014404460020A2
S214006EA08C4200D110BD14F8012B43BA9BB253405C
S214006EB0C3F3031253401A0392B25A405B0103F421
S214006EC0FF5383EA0200EBE710B51446FFF7E4FF32
S214006ED0031B5842584110BD38B5C0E9001204469D
S214006EE0FEF733F904F1080105460548FDF7D9FA1F
S214006EF02846FEF730F9BDE838400320FFF76ABBA6
S214006F00AC25002070B5084EFEF71FF90546304642
S214006F10FDF7CEFA04462846FEF71DF91CB154E9E3
S214006F2002309847F0E770BDAC2500200A4B10B53C
S214006F300A4C1868FDF7CAFB094B2168094801226C
S214006F401A704A6800F0CAFF074A00232360D36C11
S214006F5043F00403D36410BDCC250020B4250020E4
S214006F603D100020002700200000014070B51E4D97
S214006F701E4E04462868FDF769FB28683023434305
S214006F8003F1804303F56223D3F88C103588C1F3F0
S214006F900A13C3F58072013292B2ADB2954238BF81
S214006FA03280A24203D3FDF771FB002070BD21F4AE
S214006FB0FF426FF4807161180B449BB247F6F07184
S214006FC0013B22F0700201EA0313134330224243CE
S214006FD002F1804202F56222C2F88C30FDF756FBC1
S214006FE0034B01201C80E1E7CC250020B0250020C3
S214006FF0C625002070B510220D460021044610F06C
S2140070000FFD144A144BA560C4E90023134B1A68FD
S214007010DAB9134A1460134E134D30682A6A1C609E
S21400702001238340134214D0FDF710FB3068302351
S21400703003FB0055D5F898301BB944F00204C5F898
S2140070409840BDE87040FDF721BB44F00201D160D6
S214007050E1E770BD101010031C000140FC26002064
S214007060F8260020CC25002000200E402DE9F74F02
S214007070FEF76BF84B4B1B6880462BB9FEF76BF898
S2140070801B2003B0BDE8F08F1D896E1EB6B2B6F5A4
S214007090006F36D2444C5D681022002120462F68CF
S2140070A010F0BEFC414BD5F804A0C4E90037C6F387
S2140070B00A063F4F4FF0130910223601C4E9027941
S2140070C00021A01846F040560A3510F0A9FC394BAE
S2140070D02362C4E9046AC4E90679C4E909570023AF
S2140070E0E362354B3548304A354900241C7000941D
S2140070F023460068FDF784FA4046FEF72CF8204643
S214007100BFE7B6F5805F39D2274C5E6810220021B3
S2140071102046376810F084FC244BD6F80490C4E967
S2140071200037234F03F5FF434FF0130A10334FF099
S214007130000B2361C4E9027AC4E90597C4F81CA0D1
S2140071401022594604F1200010F06AFC6FF4006328
S2140071501D44ADB21B4BC4F82CA02D0145F0405584
S2140071602B40236209F50063C4E909370A36114B40
S2140071702363C4E90D67C4F83CB0B2E76DB95B6839
S2140071801C68094B10222946184610F049FC0E4A86
S214007190C0E90024064A8260A3E7FDF7DCFF212051
S2140071A06FE700BFE8270020A4270020600000301B
S2140071B034000140100010303E100020EC27002064
S2140071C094270020F07F0030600010302DE9F04F4B
S2140071D0DFF898A2984BDAF800801C88D8F80C30B4
S2140071E0D8F8089023F0030385B0CAF8003023B916
S2140071F0924A01211170924A13600123914F019324
S2140072000025002C46D0904B1B7809EB0506002B7A
S21400721000F08E80073C8D48A4B2FDF749F918B1FE
S2140072204268937B013B9373DFF834B2CBF80000DF
S21400723050B9874B01221A70864B1868FDF746FA3C
S214007240002005B0BDE8F08FB6F8052005213046D1
S214007250FFF73AFE30BB7F4C2068FDF737FA23680D
S2140072603022534303F1804303F56223D3F894207E
S214007270D3F88C20D3F89410C2F30A12C2F58072A9
S214007280013292B28A1AC3F89420734AD36C43F040
S2140072900403D364019B002B72D049464046FFF797
S2140072A0A9FECDE7654B70881B783880EBB10028C7
S2140072B000F09980674C2068FDF708FA604BCAF822
S2140072C00080C3F8008023683022534303F18043D4
S2140072D003F56223D3F89420073AC3F894205E4A55
S2140072E0D36C43F00403D364AAE7002C7DD1431E7D
S2140072F0B3F5006F0DD2FFF739FE002875D1388838
S214007300073080B2FFF732FE00286ED1FFF70EFE80
S21400731096E70720F6E73EB9504800F0DFFDFFF796
S214007320F7F9CBF8006083E0474A002313707FE04C
S2140073303B88E41AA4B23CB9404B1B7823B907201B
S214007340FFF714FE0028E1D025B13A8831464846BA
S21400735010F04CFB424B3C4819683B884A68138146
S21400736001230370C2F804903C4800F0B7FDFFF715
S214007370CFF93B881D440023ADB23B80019340E724
S214007380D8F80C403748384E364F414601F079F869
S214007390019D24F0030432880135ABB29A4213D81B
S2140073A00023304D33800393284601F059F80446F5
S2140073B000283FF445AF03A800F068FC70B12948E8
S2140073C0214601F05EF83BE72146384601F059F8C1
S2140073D0E46824F00304CAF80040DCE7039920467A
S2140073E0FFF708FEE0E7002C90D0DBF8001072787C
S2140073F04B681B685A704B68B2781B689A704B686B
S214007400F2781B68DA704B6832791B683E881A710E
S2140074104A68B6F5817F16817FF67DAF0623137521
S2140074200E4800F05BFDFFF773F90023CBF8003041
S2140074300735ADB2E5E600BFC625002008270020C8
S214007440FC260020C82500203D1000200027002034
S21400745009270020CC250020000001400C27002032
S214007460B4250020B8250020C4250020F8260020DA
S2140074702DE9F0476B4D6C4E0FCD8AB003AC0FC4B0
S21400748095E8070084E807006848694D0121FDF784
S21400749083FA68480121FDF77FFA01216648FDF767
S2140074A07BFA664B60484FF480521A604FF40062D5
S2140074B01A60FCF7EFFF6248FCF7ECFF6148FCF748
S2140074C0E9FF6148FCF7E6FF6048FCF7E3FF604B26
S2140074D000241C60281D00F0A1FB01346A682946C0
S2140074E0304600F000FD0A2C05F10C05F2D1594C8F
S2140074F0554D0026214628460136FCF7CEFF0A2EBB
S21400750004F10C04F6D10123184604220E21524D34
S214007510DFF85891514FDFF87881FEF7A1F8012384
S214007520022218460F21FEF79BF800244FF4E133A1
S214007530284603A905938DF825408DF80C40FEF7E4
S21400754067FBAB6F23F4F85323F01F0343F4106379
S21400755043F00903AB6703236B67EB6C43F001034F
S214007560EB644FF0FF33AB644FF44063EB600521F0
S2140075702846FEF721FBFDF70DF821463848FCF7B4
S214007580D9FF21463748FCF7D5FF374B3748DC6034
S2140075904FF440221A60C3E90144354B354A1A605D
S2140075A0C3E90144DC60A02300933246324B10212D
S2140075B000F03CFF254602A800F068FB484600F0B5
S2140075C04FFF26460446DDF808A01022002110F0E2
S2140075D027FAC4E90078C4F808A00DB9274B1C6048
S2140075E016B146F00206E66001350A2DE3D123887F
S2140075F01B481D49062262F30E132380204B0722E8
S2140076001A80204B01221A701F4B00251C60009523
S2140076101E4B00682246FCF7F3FF28460AB0BDE87A
S214007620F08700BF608C0100002700204041050065
S214007630D025002000250A000022040000E100E01A
S214007640042700200C270020E4270020E82700203D
S214007650B42500201C270020000001401010100355
S214007660CC250020EC27002048260020B825002046
S2140076709427002001000C0058260020FC2600203D
S214007680C62500203D100020F8260020CD71000001
S2140076901C00014010B101234370037070470000C6
S2140076A0F8B50E460746FDF750FD05461B48FCF7A5
S2140076B0FFFE044668B34268937B2846013B254696
S2140076C09373FDF748FD55F8043F3B604FF4817314
S2140076D03380FDF73AFD0646284600F09FFA054639
S2140076E090B962680E48214600F0FDFB0D4B1A78F3
S2140076F02AB10D4A1D70D36C43F00403D3643046A0
S214007700FDF729FD0020F8BD08482146FCF7C5FE18
S214007710F5E72846FDF71FFD1B20F4E70C270020A1
S2140077200027002009270020000001400427002031
S214007730F8B50D460646FDF708FD07461048FCF767
S214007740B7FE04463846FDF706FDB4B125816660EF
S214007750FDF7FBFC6268214605460A4800F0BEFBC2
S214007760FFF784FC3528044618BF0446284608BFA1
S2140077700024FDF7F0FC2046F8BD0324FBE700BF1D
S214007780E4270020E8270020044B1878044B1B68E9
S214007790002B08BF002000F0010070473E100020BC
S2140077A0E4270020F7B500230193FDF7CEFC214E19
S2140077B0214F054634682CBB204F0026384600F083
S2140077C04FFE044638B101A800F060FA58B31B48D3
S2140077D0214600F056FE1A4A137873B1194B196AFF
S2140077E0194B1868012383400B4006D12EB1137045
S2140077F0164AD36C43F00403D3642846FDF7ABFC6B
S21400780003B0F0BD201D00F009FA0028D4D13046A0
S214007810FCF74EFE62682146384600F064FB33688B
S214007820002BC7D1C8E701992046FFF7E3FB0126E6
S214007830C4E700BF0427002000270020B82500204A
S2140078400827002000200E40CC2500200000014024
S214007850F8B54F4B1A6C9A64520725D54D4EDB6926
S2140078603288511E0529DBB201D9142B03D1511CD5
S214007870318049498B543588072D15D1464C052152
S214007880B4F805202046FFF71FFBA0B90121635C72
S214007890142BCDB209D1C1F107023F482144C5F1EE
S2140078A0070510F0A3F83580F8BD01310729EED1A1
S2140078B000233380F8E73649CB6C002223F004031C
S2140078C03280CB6466880EB1344B1A70344F3B68F6
S2140078D06BB93448FCF7ECFD18B14268937B013B6A
S2140078E09373386018B9304B01221A70DCE72B4BC3
S2140078F02E481B78002B08BF35462D4BD3F800C00A
S214007900302202FB0C02D2F88C10D2F894E0C1F3BD
S2140079100A13C3F5807301339BB2AEEB0303C2F8C0
S214007920943021F4FF4105F1FF3E47F6F07303EA79
S2140079300E1321F070011943C2F88C10C26E39681C
S214007940012303FA0CF31A43C266026A1343036266
S214007950184B62781D804B681B685A704B68A2787B
S2140079601B689A704B68E2781B68DA704B6822795D
S2140079701B681A714A68104B16811E80002E93D120
S2140079800E4800F0ABFABDE8F840FEF7C1BE00BFF7
S2140079900000014010270020122700203D10002084
S2140079A0B4250020002700200927002000200E40D4
S2140079B0CC250020C6250020C82500200C27002046
S2140079C0184A38B5136C9364DB0729D5164B18682C
S2140079D0FCF77CFE154B01221A70FDF7B6FB054638
S2140079E01348FCF765FD044618B14268937B013BDB
S2140079F093732846FDF7AFFB6068FEF7F3FDFDF7CF
S214007A00A4FB214605460B48FCF747FD084B1B68C0
S214007A100BB1FFF72BFB2846BDE83840FDF79BBBB4
S214007A2038BD00BF00000140EC2700203E100020BB
S214007A30E8270020E42700204318405C5A7840EAF4
S214007A400220704770B59DF8105082701426120AF6
S214007A50044606704170C27003712DB10521FFF710
S214007A601BFA6071000AA07170BD00F00ABD00F03C
S214007A70F7BC000037B54FF4A0632F4800930068AA
S214007A802E4B2F4D2822202100F0D0FC4FF4A0745E
S214007A902C4800942C4B00682022072100F0C6FCDE
S214007AA02C232A4800930068294B0B22012100F062
S214007AB0BDFC41F26443274800930068264B14221D
S214007AC04FF4817100F0B2FC4FF404632348009336
S214007AD00068234B0C22B02100F0A8FC4FF4807302
S214007AE020480093102211461F4B006800F09EFCB1
S214007AF0A0231E48009300681D4B1422082100F0A6
S214007B0095FC28681B4B00941422102100F08EFC74
S214007B102868184B00941422102100F087FC4FF4BC
S214007B204173154800930068144B0522982100F015
S214007B307DFC03B030BD00BF40100020FC270020B5
S214007B405010002058100020A036002060100020A2
S214007B50EC37002068100020243800204810002051
S214007B60082D002070100020944C0020801000206B
S214007B70B05000205435002078100020A04D002082
S214007B8010B5044678B10A4B1868FFF770FF60B16D
S214007B900023C0E90033C0E9023383610361037543
S214007BA02060184610BD2220FCE71A20FAE700BF26
S214007BB04010002010B5044648B1064B1868FFF781
S214007BC056FF0028206014BF00201A2010BD222077
S214007BD0FCE700BF5810002073B5054601A8FFF764
S214007BE0CFFF044678B90B4B019E1868FFF73FFF9E
S214007BF0019970600223CB734B683BB9064B18683B
S214007C00FFF733FF1A24204602B070BD01230B8114
S214007C102960F8E76010002040100020F8B50546FF
S214007C2048B3164E3068FFF722FF044648B1144F9B
S214007C303868FFF71CFF206028B930682146FFF738
S214007C4014FF1A2016E00F4B1B7853B90E4B18681A
S214007C50FFF70DFF606030B921683868FFF705FF51
S214007C60EBE700236360002301222381E273237580
S214007C7018462C60F8BD2220FCE700BF401000200C
S214007C8058100020A525002068100020054B10B5D0
S214007C9004461868FFF7EBFE002820600CBF1A2089
S214007CA0002010BD6810002038B50446F8B1837B6C
S214007CB0FBB94168C57B29B1022D14D10F4B18685A
S214007CC0FFF7D3FE216819B10D4B1868FFF7CDFEFC
S214007CD00C4B21461868FFF7C8FE012D01D1FFF7AF
S214007CE061FD002004E0012D05D1074BE7E72220C7
S214007CF038BD0420FCE72620FAE700BF601000200D
S214007D0058100020401000206810002008B50146DA
S214007D1038B1054B1868FFF7A8FEFFF743FD0020B3
S214007D2008BD2220FCE700BF6810002008B5014609
S214007D3028B1044B1868FFF798FE002008BD2220E3
S214007D40FCE700BF5810002010B5044648B1064BAB
S214007D501868FFF78CFE0028206014BF00201A2049
S214007D6010BD2220FCE700BF70100020F7B50E46BD
S214007D7017460546E8B1E1B101A8FFF7E5FF04465E
S214007D80A0B901996A6888600A60EA7B0A738F80E6
S214007D9030460831FCF785FB074B29681868FFF763
S214007DA064FE064B29461868FFF75FFE204603B0C0
S214007DB0F0BD2224FAE700BF581000204010002033
S214007DC008B550B103680B6083881380044B0146E6
S214007DD01868FFF74AFE002008BD2220FCE700BF17
S214007DE07010002010B50446C0B1016831B1037BA5
S214007DF0022B0AD10A4B1868FFF737FE094B2146BB
S214007E001868BDE81040FFF730BE012BF6D1064BD0
S214007E101868FFF72AFEFFF7C5FCEFE710BD00BFA6
S214007E2060100020701000206810002010B5044676
S214007E3048B1064B1868FFF71AFE0028206014BFEA
S214007E4000201A2010BD2220FCE700BF8010002072
S214007E5008B5014628B1044B1868FFF706FE002057
S214007E6008BD2220FCE700BF8010002010B50446A5
S214007E7058B1084B1868FFF7FAFD206038B1B022F9
S214007E8000210FF0CDFD002010BD2220FCE71A20B7
S214007E90FAE700BF48100020024B01461868FFF7BB
S214007EA0E4BD00BF4810002010B5044648B1064B9C
S214007EB01868FFF7DCFD0028206014BF00201A2099
S214007EC010BD2220FCE700BF50100020024B0146E8
S214007ED01868FFF7CABD00BF50100020937B01331F
S214007EE09373FCF7DEBA937B01339373FCF7D5BA32
S214007EF010B5044648B1064B1868FFF7B8FD0028D1
S214007F00206014BF00201A2010BD2220FCE700BF0E
S214007F107810002008B5014628B1044B1868FFF712
S214007F20A4FD002008BD2220FCE700BF781000203A
S214007F3070470000014B01221A7070475451002010
S214007F402DE9F04788B0DDE91086129F0023C8F8B7
S214007F50003001A833603B601546FFF7C9FF1A28BA
S214007F6020D0019CC8F800406B7863702B78032BF8
S214007F7018D8DFE803F0020826AA002323706380DF
S214007F80042333600EE0012323706B4B1B68A3B100
S214007F90012B0AD00423638008233360636873B917
S214007FA0664B3B6008B0BDE8F08705A8FCF750FAC2
S214007FB09DF81430B3FA83F35B096360EAE70023A5
S214007FC0EFE7062222706B68B3F5007F44D021D815
S214007FD0022B3CD014D863B3012B2ED0A3F58052CD
S214007FE0FF2A4FF000026DD88DF81830DBB243F44C
S214007FF08053059205A86360FEF7BBFA207229E05D
S214008000202BEBD163604FF48073238162806388FA
S2140080100433B6E740F2013293422CD0B3F5885FC2
S2140080202DD040F202229342D8D16360424B1B68A7
S21400803000E06360A360082307E063600422002377
S214008040C4E902230223236110236380DFE7636011
S214008050002323720523F8E7636005A8FCF7F8F908
S2140080609DF81430A360012B0CBF069B4FF0FF3326
S214008070E360079BE7E7002363600223DAE7002557
S214008080636004F1070904F1870A2F466B1C02A8F7
S214008090CDE90277CDE905778DF80C508DF81830CC
S2140080A004970797FEF765FA804605A8FEF761FA7B
S2140080B048EA001009F8010F0235D145EDB2E5D1C6
S2140080C08423C2E762600D23B4E706232370686842
S2140080D0A0F58053FF2B09D8C5B22846FEF758FAFC
S2140080E045F4805504236380656090E740F20223E0
S2140080F0984210D008D8022802D9B0F5007F18D1CF
S21400810000236360152395E740F201339842F7D0C9
S214008110B0F5885FF3E704236380AB68012B9BBF51
S214008120054A6060002313608ABF6360AB68032360
S21400813080E700236360C6E750510020EFBEADDE47
S21400814010B51D48012302220021FEF7F3F82E2861
S21400815004462ED058BB194A17480621FEF7ECF8FD
S214008160044618B11448FEF731F920E0144A32B13B
S21400817011480221FEF7E0F804460028F2D1114A21
S2140081800D480521FEF7D8F804460028EAD10D4A26
S21400819009480421FEF7D0F804460028E2D10A4A2E
S2140081A005480A21FEF7C8F804460028DAD120461A
S2140081B010BD1224FBE700BF58510020417F00008D
S2140081C000000000CD810000357F000010B5084695
S2140081D0144609B1FFF79EFE164B9C4229D1164B5A
S2140081E01B6833B1012B24D14FF0005340F202221A
S2140081F003E04FF0005340F201221A804FF0005384
S2140082004FF20F025A800D4A01239360136823F43D
S214008210E06343F480631360BFF34F8F0849094B54
S214008220CA6802F4E0621343CB60BFF34F8F00BF0F
S214008230FDE710BDEFBEADDE5051002000500E40F1
S21400824000ED00E00400FA0510B50A4C237843B1AF
S2140082500948FEF78EF9062804D1FFF771FF0023C0
S214008260237010BD0128FCD0BDE810400248FEF780
S214008270ADB800BF545100205851002030B585B02D
S214008280FFF75EFF054603A8FFF732FE039C0623B2
S214008290238000236360FDF7AFFBC107034610D5BC
S2140082A07023A360FDF7A2FB0399144808234B80B4
S2140082B0002300930C220223FEF735F9284605B06A
S2140082C030BD420701D57323EBE71807FBD4D90668
S2140082D0F9D4DA0501D57123E3E7180501D578232B
S2140082E0DFE7990501D57423DBE75A0501D572232C
S2140082F0D7E7DB0354BF77237623D2E75851002015
S21400830030B585B0054603A8FFF7F2FD044670B900
S214008310039906230B8005234B8045F480550223E2
S2140083204D600B72092200900248FEF7FCF82046CA
S21400833005B030BD585100207FB50B4B6A4603F19F
S2140083401006154618685968144603C40833B34225
S2140083502246F7D1002428468DF80140FDF7B8F8EC
S214008360204604B070BD00BF7C8C010013B500240D
S214008370684600948DF80440FCF72AFF204602B0B9
S21400838010BD000070B5164B86B001AA03F11006AA
S214008390154618685968144603C40833B342224683
S2140083A0F7D11B8823800F4BD3F8B42012030ED4CA
S2140083B0D3F8B830C3F308030B48ADF80A30FCF71F
S2140083C009F82846FCF774FE002006B070BD074B7F
S2140083D01B884FF6FF72934208BF4FF4B473EBE767
S2140083E08C8C01000081E00F00F049020001E00FD4
S2140083F010B50C480C4C6FF00402A02112F0800F50
S214008400D3B21BBF03F00F03043BA3181B1802F1E3
S21400841001020CBF83F800131976222AEED1002041
S21400842010BD00BF00ED00E000E100E089B230B50D
S2140084304C4204F00304214489B24281C0E900336F
S214008440018100241846013AA242054604D8514349
S2140084504FF0FF325A5030BD084428600134F3E72D
S21400846038B50546FCF771FE2C68631C04D1FCF792
S21400847072FE0024204638BD23682B60FCF76BFE96
S214008480F8E738B504460D46FCF75FFE23682B6018
S2140084902560BDE83840FCF75EBE0000BFF34F8F96
S2140084A0BFF36F8F054B5A6A22F480325A62D3F8B4
S2140084B0942022F00102C3F89420704700ED00E0FB
S2140084C0013A42EA520242EA920242EA121242EAB0
S2140084D0122230B542EA12420132B2F5807F38BF2E
S2140084E04FF480725442044015198D4205D31C6027
S2140084F0039B1D60049B1A6030BD5200F2E700002B
S214008500F0B5364D36493748002387B0CDE90333FA
S214008510FFF7C4FF2C68344B4FF00052C3F8984066
S214008520661CC3F89C208142304AC3F8A0202E6007
S21400853042D005AB019304AB0A1A009303ABFFF7D6
S214008540BFFFDDE90372059BDFF8A4E0072BA2EB73
S21400855001024FF001018CBF4FEAD30C4FF0200C04
S214008560B2FBFCF201FA02F2013AD2B2AEEB070E0F
S214008570B3FA83F3BEFBFCFEC01B8E44B0FBFCFCD0
S21400858001FA0CF102FA0EF20139C3F11E030A4396
S2140085905B0002F0FF0203F03E0343EA022343F0CF
S2140085A04073114A43F001130234C2F89860C2F8CF
S2140085B09C70C2F8A0302C60BFF34F8FBFF36F8F54
S2140085C0094B0522C3F894205A6A42F480325A6254
S2140085D0BFF34F8FBFF36F8F07B0F0BD645100201D
S2140085E0341100203411002000ED00E039000113A2
S2140085F033110020F0B589B00023CDE9053303928E
S214008600FFF74CFF07AB019306AB039A009305AB4D
S214008610FFF756FF079A069B059D072A03F1FF33CF
S2140086208CBFD70820275B1A4FF0010C3B44B3FBE6
S214008630F7F30CFA03F3013B0446DBB2E8430144CC
S214008640B1FBF7F103FA01F123183B44B3FBF7F350
S2140086500CFA03FC0CF1FF33194301F0FF01FF296C
S21400866029D0B2FA82F3C3F11E03144C144A2068D0
S214008670C2F898005B0003F03E0343EA012343F090
S214008680985343F001130130C2F89C50C2F8A03052
S2140086902060BFF34F8FBFF36F8F0523C2F894306F
S2140086A0536A43F480335362BFF34F8FBFF36F8F29
S2140086B0002009B0F0BD2820FBE700BF6451002071
S2140086C000ED00E0BFF34F8F0549064BCA6802F481
S2140086D0E0621343CB60BFF34F8F00BFFDE700BFE0
S2140086E000ED00E00400FA0508B5FFF7EBFF08BD53
S2140086F030B50F4C41612368ABB92060836011E050
S214008700891A9A6841611D462AB113465A698A42F7
S214008710F6D955B11A46A8601346836013B15A6954
S214008720511A596130BD0025F0E72060F5E700BF1B
S2140087308051002010B500F099FA0A4C0A4B1968CF
S2140087402368C31A01B10BB9206010BD4A699A426A
S2140087502EBFD21A9B1A00224A6128BF00238968BE
S214008760F0E700BF6C5100208051002038B5134D53
S2140087702B685B6993B1124A146802201C4400F00F
S214008780A3FA204600F078FA0E492A6800230B70F8
S214008790D088800709D501230B7038BD022000F071
S2140087A093FA022000F0B6FAEEE79268002AF4D0B8
S2140087B050690344012BEBD9EFE700BF805100203E
S2140087C06C5100207451002070B516469DF8142098
S2140087D00271049A0260C0E903360022BDF8183020
S2140087E08260C38004460D4600F040FA3044A06123
S2140087F03DB9E368656113B121682046984796B194
S2140088003546FCF79BFC0646FFF794FF29462046B4
S214008810FFF76EFF054B1B68A34201D1FFF7A6FFCB
S2140088203046FCF78FFC002070BD00BF8051002052
S2140088300C490B6800227BB183420AD183687AB167
S214008840936083681BB15A6941690A445A610020E3
S21400885070471A469B68EEE70028EFD00220704764
S2140088600B60EEE78051002070B5154EFCF76DFCEE
S21400887034780546FCB9134B1C60134B1C60134B35
S2140088801C8000F0AFF9012000F01EFA00F072FA2A
S2140088900F4B0246186020B92846FCF75CFC2320E4
S2140088A070BD23460B4840F2E7310EF097FE0A4BA8
S2140088B01860012333702846FCF74DFC0020EFE7D4
S2140088C068510020805100206C5100207651002015
S2140088D07C51002018FCFFFF705100202DE9F0416C
S2140088E00546F8B1FCF72AFC0F4F0646FFF722FFB5
S2140088F02846D7F80080FFF79BFF044628B130468D
S214008900FCF720FC2046BDE8F081A8453B6803D173
S21400891023B1FFF72BFFF2E7002BF0D1022000F087
S214008920E1F9ECE72224EDE78051002070B586B02F
S214008930154605911E46044680B1FFF7CFFFBDF8E9
S2140089402C3002939DF828300599CDE9006300226B
S2140089502B462046FFF738FF06B070BD2220FBE707
S21400896038B50C46054698B191B100230B70FCF75C
S214008970ECFB084B1B6801210BB122781AB1FCF7FF
S214008980EAFB002038BDAB4214BF9B682170F3E7BA
S2140089902220F7E780510020F0B587B01F4600235D
S2140089A00D4616468DF817300446A0B10DF1170196
S2140089B0FFF7D6FF9DF817207AB9BDF8343002933A
S2140089C09DF830302946CDE9007320463346FFF740
S2140089D0FBFE07B0F0BD2220FBE70320F9E700000E
S2140089E070B5FCF7B2FB064600F040F9084B1D8850
S2140089F004460120ADB200F095F918B100F036F942
S214008A00013504463046FCF7A6FB2046294670BDD5
S214008A1076510020044B1B68584300F2E7304FF4B1
S214008A207A73B0FBF3F070477C5100200C4B1B6848
S214008A30834270B50D4611D30A4B40F2E7311E68EB
S214008A4000248C462146E0FB06C14FF47A720023D0
S214008A5060460EF0C3FD2860204670BD2120FCE76E
S214008A60705100207C510020164B8342164B8B41E0
S214008A7070B5154624D3154B1A680AB34FF47A76A8
S214008A80541EA0FB0603144006FB013111D1B2FAB6
S214008A9082F3C3F11F025E1C01FA06F6DB43D040E8
S214008AA021FA03F330431843D140C5E900012046BC
S214008AB070BD00230EF092FD0024C5E90001F6E724
S214008AC02124F4E7EFA7C64B378941007C510020EC
S214008AD0C2072DE9F34704460BD53F4A13880133F6
S214008AE09BB21380FFF726FE3C4B1B680BB1FFF7CB
S214008AF03DFEA3076DD5FCF728FB0546FFF71AFEDB
S214008B000026DFF8D8803746B146D8F800400CB1CA
S214008B1063698BB1324B0022012F1A7002D1022EEC
S214008B2008BF1F70002C44D0FFF720FE284602B076
S214008B30BDE8F047FCF70FBB23461A79217991422E
S214008B4088BF1C469B6813B15A69002AF5D0284690
S214008B50FCF701FB256985B300F088F8A269861A40
S214008B60F317B54279EB030328DA23691344A361AC
S214008B700123226982B17BB9A91B0191FCF7E5FAB2
S214008B80019982462046FFF7B3FDA3692269134484
S214008B90A3615046FCF7DFFAE368E688013713B1B5
S214008BA0216820469847FCF7D0FA0546FFF7C2FD35
S214008BB0ABE7022000F096F8B8E72E46FCF7C5FAB9
S214008BC082462046FFF734FE5046FCF7C4FA0023E0
S214008BD0CFE702B0BDE8F087765100208051002034
S214008BE07851002010B51D4B86B01868596803AA46
S214008BF003C2197AD3F8090011700190B3F80D205A
S214008C001748DB7BADF8082001218DF80A300024D8
S214008C10FBF7C2FE03A88DF80C408DF81040FCF759
S214008C2047FF01A901208DF80440FCF721FF0D4AFB
S214008C30536A23F4FF6323F00703536240F2FF7383
S214008C40136201209460FCF72DFF074B4FF0005293
S214008C50C3F880211A6006B010BD00BF9E8C0100CC
S214008C60A00914000020044000E100E0014B9868D1
S214008C70704700BF00200440114A9368516D926906
S214008C80520704D4CA1A032A01D899420DD1C21A2F
S214008C90022A98BFD81C0A4BB0F1FF3F38BF0138F4
S214008CA058655A6A42F004025A62064A137833B18B
S214008CB003490B6D43F002030B65002313707047E6
S214008CC000200440881000208207054A00F00103B7
S214008CD0516A48BF43F004030B435362704700BF1A
S214008CE000200440820700F0010309D5074A01214D
S214008CF0117007490A6D22F0030243F004030A6567
S214008D0003494A6A22EA03034B6270478810002030
S214008D1000200440830742BF014B0422DA617047FB
S214008D2000200440064B01289B6904D0022805D188
S214008D30C3F38000704703F00100704700207047BF
S214008D400020044010B5FCF700FA094A936904466F
S214008D50590703F0010003F0070348BF40F0020084
S214008D601362FFF7B5FE2046BDE81040FCF7F3B9E6
S214008D70002004400148FBF745BF00BFA0091400CF
S214008D8008B5FBF753FAFBF7A7FAFBF7A6FAFBF7CB
S214008D90B1FABDE80840FBF7B8BA08B5FBF7B7FA72
S214008DA0FBF7B6FAFBF7B6FABDE80840FBF7B3BA2E
S214008DB001F090BC01F08EBC08B505481C220021CD
S214008DC00EF02EFEBDE80840012007F02BBB00BFCA
S214008DD09451002007B5FFF703FE6A46FFF744FEEE
S214008DE028B1054B054A064861210EF079FD00982A
S214008DF003B05DF804FB00BFAE8C0100788D010067
S214008E00C58C01002820704730B5184885B00D463F
S214008E101446FFF763FD164B2C441C60FFF7DAFF81
S214008E20144B201A00284FF001041C7004DC05B017
S214008E30BDE8304001F04EBC03A9FFF7F7FD03463E
S214008E4028B10D4B0D4A87210D480EF049FDCDE99E
S214008E5000040C4A03990548FFF79EFD18B1064B1F
S214008E60064A8B21F0E705B030BD00BF94510020C4
S214008E708C51002088510020AE8C0100608D0100CE
S214008E80C58C0100B18D000008B50348FFF726FD2C
S214008E90024B00221A7008BD945100208851002011
S214008EA007F07FBF37B5FCF749F9054607F079FFAD
S214008EB009490B6808608342084B82BF1A68013272
S214008EC01A601968019104462846FCF73BF9019997
S214008ED0204603B030BD00BF84510020B0510020B2
S214008EE070B5114E30680D46144607F0CDFA0F4B9C
S214008EF02C441C6007F055FF0D4B211A0122002957
S214008F001A7003DCBDE8704001F0E4BB094B306822
S214008F1007F0ACFA30B1084B084A09484FF487719D
S214008F200EF0DEFC70BD00BFBC510020905100204A
S214008F3089510020B58D0000298D0100488D010063
S214008F40C58C010008B5044B186807F09DFA034B62
S214008F5000221A7008BD00BFBC51002089510020B5
S214008F602DE9F0410446FCF7F0F8184B1E7807464A
S214008F708EB90026164B1D78C5B900253846FCF775
S214008F80EAF816B1204602F095F9E5B12046BDE8AC
S214008F90F04102F0B9B90F4B1D68FFF71BFF281A06
S214008FA00028E6DC2046FFF76FFFE3E70A4BD3F81E
S214008FB0008007F0F6FEA8EB00000028DDDC204667
S214008FC0FFF7C0FFDAE7BDE8F08100BF8851002058
S214008FD0895100208C51002090510020F7B50D4695
S214008FE00646A0B100242746A54201D8002009E085
S214008FF02A1B01AB92B231190020019701F05CFCEC
S21400900010B1012003B0F0BD019B1C44ECE7072023
S214009010F8E701F077BD000008B5FCF7EDFC034B60
S2140090201860BDE80840FCF7E1BC00BFB451002062
S214009030BFF34F8F0549064BCA6802F4E06213433C
S214009040CB60BFF34F8F00BFFDE700BF00ED00E031
S2140090500400FA050E4B1B68DA070ED459050ED429
S2140090601A050ED4D9050ED49A050ED4094A1A400C
S214009070002A0CBF072006207047002070470220F9
S214009080704708207047012070470320704700BFD4
S214009090B45100201C000100074B1B7818400AD072
S2140090A0431E034006D14008DAB203F10103FAD1A9
S2140090B010467047002070478A100020054B1B782A
S2140090C003F0FF0023B1044B1B681878C0F3401070
S2140090D0704700BFD8540020E0540020064B074AD3
S2140090E01B6812781B8802F0FF0022B103F007000D
S2140090F0C31E584258417047E0540020D854002000
S214009100054B1A79824205D85A79824238BF002325
S214009110184670470023FBE7D451002083884BB1E4
S2140091208268013282604288013B013A4280838035
S2140091300020704701207047F0B5447A90F90A7015
S214009140C67A05683CB1104A0021577796771561B4
S21400915051611372F0BD0D4842EA4102C17F0372AD
S21400916021F0030102F003020A43C2773C21084AB9
S21400917047774B43D118D35C03778B688677C0E973
S21400918004548361E6E700BF885300203054002073
S2140091909452002010B5FFF783FE0C4B1A680C4B58
S2140091A0A0211B684A43B3FBF2F402FB14331344BA
S2140091B0B0FBF2F404FB1200181AB0FBF2F302FB49
S2140091C01300B0FBF1F080B210BD00BF6C5200205F
S2140091D0705200202DE9F0474D1EEDB2032D28BF3A
S2140091E0FF2504460F4601F0EFFC20B94FF00008BB
S2140091F04046BDE8F087204601F0EBFC0028F5D09D
S21400920094F8228018F01008F0D1FF2D06D12F4BCD
S2140092102F4A30484FF4EE710EF062FB204601F004
S21400922091FCA8B1204601F0E5FC0646002849D08E
S214009230294B3C2202FB07335B785A1E90420ED025
S21400924083420AD0013398423AD04FF00808CFE75D
S214009250214B3C2202FB07335E78012200E04246A7
S2140092604FF03C0A0C23DFF870901AFB073303EB31
S21400927002134B44236194F82230DB0718D42046AF
S21400928001F060FC38B10AFB07FA09EB0A0309F89B
S2140092900A605A689A603146204601F0B8FC3C21C4
S2140092A001FB0797204679684B1C7B6001F0B1FCF8
S2140092B00A492DB201EBC501204601F05CFC97E798
S2140092C00222CDE74FF0010892E700BF8F8D010024
S2140092D0D3900100A98D0100945200207B520020FB
S2140092E038B50C468A88896805460EF071FBE16839
S2140092F041B1A0886288121A92B22844BDE838406C
S2140093000EF066BB38BD000010B5094C206807F0AB
S21400931062F8012804D020680122002107F05DF8D9
S214009320206807F05FF8034B01221A7010BD00BFDB
S214009330BC510020D754002037B5254B254C054698
S21400934018689B88ADF804302B68009020682BB313
S214009350972107F0B7FF024630B11F4B1F4A40F275
S21400936037311F480EF0BCFA2968206807F090FBDA
S2140093702B79834204D01B4B184A40F23A31F0E76F
S2140093800122022320688DF80030114607F0D6FF30
S21400939060B1114B114A4FF45071E2E707F094FFA9
S2140093A020B10D4B0D4A40F24A31DAE7032211464E
S2140093B0206807F0B1FF2068694607F0C9FB20B1B6
S2140093C0054B064A40F25931CBE703B030BD00BF2B
S2140093D014900100BC510020298D01007A900100F4
S2140093E0A98D01000D8E010038B504460D46FBF729
S2140093F0ACFE064B1A8892B22DB114431C80BDE811
S2140094003840FBF7A8BE22EA0404F7E7C051002064
S21400941010B5FFF753FE30B9104B114A40F68501E0
S21400942010480EF05DFA104B1B881B0704D40F4B38
S2140094300B4A40F68601F3E70D4B0E221A70002405
S2140094400C4B214608201C70FFF7CEFF0A4B18680D
S21400945006F0C8FF094B1C7010BD00BF368E010019
S214009460C0900100A98D0100C0510020488E010067
S214009470D9540020D8540020BC510020B8510020F8
S21400948038B51D46124B14460A460146186807F0C2
S2140094904AFC08B1002038BD227C12F0110F09D119
S2140094A002F00F03B3EB121F4FEA121102D00BB1FA
S2140094B00029EFD16088A368421C92B22A801B78EC
S2140094C09342E7D103387B288CBF00200120E2E7D7
S2140094D0BC51002000210420FFF786BF2DE9F04391
S2140094E01B4BDFF87C801B4F187085B0D8F8000047
S2140094F00D461646002101223A7006F06EFFE8B2CD
S214009500FFF7FEFD0446F0B1DFF85890D9F80030BA
S214009510984203D0FFF710FFC9F80040FF238DF8EC
S21400952004300D4BD8F80000CDE90236324601ABC8
S214009530294606F0FFFF38B1084B7F221A70022337
S2140095403B70012000E0072005B0BDE8F08300BFB7
S214009550785200207A52002020A10700795200207D
S214009560BC5100207452002008B50E4B1B889B0788
S21400957013D501280C4B11D10F22002120201A7080
S214009580FFF732FF00210220FFF72EFF074B186877
S21400959006F028FF064B00221A7008BD0B221A7030
S2140095A0F0E700BFC0510020D9540020BC51002075
S2140095B0D85400202DE9F04F5C4BE1B0804607A957
S2140095C0186807F0ADFBBDF81E30022B1DD9272BFF
S2140095D00AD9BDF820202723262AADF81E3082BFE0
S2140095E0ADF8203000230A9307A920A8FFF778FEDD
S2140095F09DF81E109DF82C00FFF74EFD054631B96C
S2140096000127384661B0BDE8F08F0021F2E70DF182
S214009610810316AE0C930CA80DF20113336001F013
S214009620ACFA07460028ECD004A90CA801F092FA80
S2140096303F4B1C785CB19DF8184044B1022C63D1B6
S21400964004A9284601F0B8FBC043C0F3C03439492A
S214009650DFF8E89091F91D20897F0DF10C0A53463A
S21400966004A801F011FAD9F80050B0F1000B08BFB9
S2140096704FF0000A1DB1304801F0CEFA0546BAF1A7
S214009680000F09D0BBF1000F06D02B485A465146B2
S21400969001F0DAFA2844C5B2274A00962B4621463E
S2140096A00CA801F075FA0028AAD1D9F8005035B1F7
S2140096B0FFF770FDA9B20246304601F083FA304645
S2140096C001F082FA30BB07A8FFF728FD002897D1E3
S2140096D0DDE90935BDF820203046002A18BF1D46B2
S2140096E001F072FA18B12B7843F004032B701CB10A
S2140096F02B7863F07F032B7032798DF8002140A918
S214009700404607F052FE7CE7BDF81010284601F0F0
S214009710CDFA99E79DF82C00FFF7BEFC01463046CF
S214009720FFF758FD0028CED06AE700BFBC510020E6
S2140097309352002030540020C25100206C5200206A
S2140097402DE9F04F97028DB0054614461E4630D5DB
S214009750FFF730FF074660BBAC4B07A9186807F059
S214009760DFFABDF81E30022B00F204810023A84A5F
S2140097701278002A00F0328103A9284607F012FE6C
S214009780002840F031819DF82C00FFF785FC9DF8FD
S2140097901430032B074600F005819DF81430022B89
S2140097A007D1BDF80C10384601F080FA002880F288
S2140097B0FF80E10104F0807240F14481954B1B88E4
S2140097C09B070DD502200021FFF70EFEFFF776FC63
S2140097D00746002800F0108101210820FFF704FE4C
S2140097E0A70442BF8C4B02221A70600401D5FFF713
S2140097F08BFD21077FD5284607F099FADFF80C92F3
S214009800014607AAD9F8000007F086FA074600289E
S21400981071D09DF81C30072B6DD101AB07AA03A9A8
S214009820FFF72EFE002866D007A8FFF777FC002873
S21400983061D1BDF82030002B40F013810A9B9DF8C3
S2140098402C0093F80080FFF727FC9DF81530824621
S214009850002B00F00881BDF80430032B4BD908F02C
S2140098600703022B47D1DFF8D8B107A9DBF80000C1
S214009870FFF736FDBDF80430D9F80000ABF8043029
S214009880394607F056FAFFF719FC68B3634BDBF866
S21400989000201B6892789B789A4225D19DF812305A
S2140098A04BB3BDF80430D9F80000013303A9ADF876
S2140098B0103007F03AFA0746E8B902460146534622
