S02C0000626F6F746C6F616465722D756172742D786D6F64656D2D42696C6C792D636F6D62696E65642E73333766
S3150000000000200020410500008D0500008D05000040
S315000000108D0500008D0500008D0500008D05000092
S315000000208D0500008D050000A80500008D05000067
S315000000308D0500008D0500008D0500008D05000072
S3150000004010B5054C237833B9044B13B10448AFF30C
S3150000005000800123237010BD100100200000000065
S31500000060BC05000008B5034B1BB103490348AFF3B9
S31500000070008008BD0000000014010020BC0500003F
S315000000800E4B0F4A9A60D3F8882042F47002C3F8E8
S3150000009088200C4B5A6D42F400525A651A6C22F0B5
S315000000A003021A64084A136823F00103136052F826
S315000000B0143C23F0805342F8143C704700ED00E0F6
S315000000C00000000000300E4074300E400F4A70B53C
S315000000D0002308258B4201D1002070BD50F8234033
S315000000E094610B4CD5600133D669F60705D514B972
S315000000F06FF00200F1E7013CF6E7002CF8D0D46976
S31500000100A407E7D56FF00100E7E700BF00000E4047
S3150000011080969800094A0A4BD969C90705D512B9CC
S315000001206FF002007047013AF6E7002AF8D0012284
S315000001301861DA60D86940F38000704780969800AD
S3150000014000000E4009B1FFF7C1BF08467047000026
S31500000150234B2DE9F0470F4641F671311E6C1964A9
S31500000160996841F001018146B6B299604FEA92085A
S31500000170BA46002545450ED30020D9F800203B6835
S315000001809A420ED04846FFF7C5FF50B901213846BE
S31500000190FFF79CFF05E009EB85042046FFF7BAFF51
S315000001A048B10F4B9A6822F001029A600EB1002204
S315000001B01A64BDE8F087C4F30A04C4F50064A40811
S315000001C0A8EB05039C4228BF1C4621465046FFF774
S315000001D0B9FF0028D1D125440AEB840ACAE700BF3B
S315000001E000000E401E4B41F671311A6C10B51964B1
S315000001F0996841F00101996001211861D960D969B6
S315000002004C0792B209D5996821F0010199600AB1AB
S3150000021000221A644FF0FF301FE00221114CD96012
S315000002201946D869C00700D56CB9C8698B6810F043
S31500000230020023F001038B6007D00AB100230B6490
S315000002406FF0010009E0013CEBE724B902B10C6450
S315000002506FF0020001E00AB1086410BD1046FCE729
S3150000026000000E4080969800FFF772BF08B5074B56
S315000002701A68074B1A6000F06FF80028FBD040F2AE
S31500000280022000F0B5F8002008BD00BF04010020E0
S315000002900001002010B5104C0023A36000F0C6F842
S315000002A00E4B5B68B3F5803F09D040F209239842B4
S315000002B002D0B0F5007F02D100F012F858B94FF421
S315000002C00063A3601846016881F3088881F30988F2
S315000002D040688746FEE710BD00ED00E000500E4086
S315000002E0F8B528231A681069D568836AAB4201D22B
S315000002F00020F8BD05F560529A42F9D95B1BC61875
S31500000300C758134B9F42F3D14FF0FF32F16800F00C
S31500000310FBF8104B98420446EAD140F628031B68C6
S31500000320A3F50062B2F5605F10D21A68BA420DD129
S31500000330B1689A68914209D84FF0FF32D9682846C9
S3150000034000F0E2F8001B18BF0120D2E70120D0E739
S3150000035007B0CD5EE320BBDEF8B528231B68D3E9E2
S315000003600347BB6A1B1BFD182646EA68A318B3425F
S315000003701BD83946204600F092F8A8B140F628036B
S315000003801B68A3F50062B2F5605F14D219680B4AC8
S31500000390914210D1D9684FF0FF32204600F0B4F8F0
S315000003A0074BC31A58425841F8BD304600F070F862
S315000003B006F50066D9E70020F6E700BF07B0CD5E78
S315000003C0E320BBDE4FF000534AF6C0305B8823F0D3
S315000003D00F031B1A5842584170474FF0005208B598
S315000003E01080FFF7EFFF10B94FF20F03538008BDDF
S315000003F008B5FFF7F2FF0A4A136823F4E06343F4F3
S3150000040000731360BFF34F8F0649074BCA6802F4A7
S31500000410E0621343CB60BFF34F8F00BFFDE700BF21
S3150000042000500E4000ED00E00400FA0508B5FFF7A5
S31500000430C9FF30B94FF000534FF20F015A888A4274
S3150000044003D14FF00053188808BD3AB91B88012B19
S3150000045040F2022018BF4FF40070F5E74FF4007029
S31500000460F2E707B503469B0753BF6FEA01414FF614
S31500000470FF7343EA01416FEA11410422019120F022
S3150000048003000DEB0201FFF7EFFE03B05DF804FB7E
S3150000049008B5FFF7A7FEB0FA80F0400908BDF8B529
S315000004A005460E4614460AB90120F8BD42EA000385
S315000004B0DA0701D50020F8E7830721D50988FFF779
S315000004C0D0FF0028F6D1023C032C05F1020506F107
S315000004D002060BD924F003073A4631462846FFF7B1
S315000004E0C3FE0028E6D13E443D44E41B002CDBD08D
S315000004F031882846FFF7B5FFB0FA80F04009D4E707
S31500000500032CE7D8F4E7000010B50B4CD4F8B03054
S3150000051043F02003C4F8B030084B01241C600144AA
S315000005209A605C601A46884201D1D86910BD10F8FD
S31500000530014B9461F7E700BF00400E4000C0014048
S315000005400B4880470B4880470B490C4A0C4B9A4294
S31500000550BEBF51F8040B42F8040BF8E709490A4AF2
S3150000056000209142BCBF41F8040BFAE7FFF77EFE7C
S315000005708100000095020000C00500000001002077
S3150000058010010020100100202C010020FEE700BF12
S31500000590F8B500BFF8BC08BC9E467047F8B500BF6A
S315000005A0F8BC08BC9E467047AD1007B001000000BD
S315000005B000000C01000800000080000000000000A0
S315000005C0C0EA2101C0EA21016500000041000000E7
S31500000800007C0020D1080000CD080000AD090000E2
S31500000810CD080000CD080000CD080000CD0800007E
S31500000820CD080000CD080000E4370000CD08000028
S31500000830CD08000024380000CD080000CD080000D7
S3150000084010B5054C237833B9044B13B10448AFF304
S3150000085000800123237010BD180100200000000055
S31500000860803A000008B5034B1BB103490348AFF3B8
S31500000870008008BD000000001C010020803A000036
S315000008800E4B0F4A9A60D3F8882042F47002C3F8E0
S3150000089088200C4B5A6D42F400525A651A6C22F0AD
S315000008A003021A64084A136823F00103136052F81E
S315000008B0143C23F0805342F8143C704700ED00E0EE
S315000008C00008000000300E4074300E40FEE70000C5
S315000008D008B5FFF7D5FF00F0D9F80A4A0A4B0B49CD
S315000008E08B4206D30A4B0B4A0021934206D300F0F3
S315000008F061F852F8040F43F8040BF1E743F8041BC0
S31500000900F3E700BF803A0000000100201801002034
S3150000091018010020EC0300200020704700207047DB
S3150000092030B51C4B87B001AA03F110051868596849
S31500000930144603C40833AB422246F7D11B78164A45
S315000009402370D2F8943003F00703022B1ED01369EC
S31500000950C3F30443102B1BD806A90B440F4913F805
S31500000960140C0F4B43438B4206D111690122C1F38C
S3150000097041618A40B3FBF2F3074AD2F80001C0F3A3
S3150000098004200130B3FBF0F007B030BD054BF3E7B0
S31500000990054BF1E7D037000000400E4000093D004E
S315000009A040420F0000F04902C0EA21014FF40170F5
S315000009B002F034B92F4B13B501225A642E4BDC6C6E
S315000009C001A8240E01F036F98E2C1CD82B49D1F83B
S315000009D0B00040F00403C1F8B030294B4FF050127C
S315000009E01A601A631A66C3F89020C3F8C020C3F8C9
S315000009F0F020C1F8B000214AD36A23F07F0343F008
S31500000A002003D36201E08F2CF5D99DF80530012B28
S31500000A1001BF1C4A136843F0040313601A4B0022FB
S31500000A201A60FFF779FF02F0DDF801F0FDFC01F036
S31500000A30FDFC18B14FF4017002F0F0F801F02EFD44
S31500000A40044601F0CBFE1CB140F203739C4203D175
S31500000A5040F2012002F0E2F8A4F20574012C94BFE2
S31500000A6040F203204FF4017002F0D8F8002002B0E3
S31500000A7010BD00BF00000E40B081E00F00400E40E8
S31500000A8000A0004064310E40B40AC64313B5264B9D
S31500000A9001248DF806408DF807405B685B0535D468
S31500000AA001F036F920B100238DF806308DF80730B5
S31500000AB044F204031B68013308D14FF4027002F0BC
S31500000AC0A2F800238DF806308DF807309DF8073020
S31500000AD063B14FF4804001F0BDFF8DF806009DF82C
S31500000AE006301BB94FF4027002F08DF89DF80630FF
S31500000AF0C3B10E4A4FF4804393601846016881F3F0
S31500000B00088881F3098840688746FEE702F0A4F862
S31500000B10A0F2022080B20728C2D8844014F0C90F80
S31500000B20BED0C0E702B010BD00500E4000ED00E0A0
S31500000B300020704749BA89B24840C0F303114140CA
S31500000B4008B280EA013000B2C3B280EA431080B234
S31500000B50704738B5044645181046AC4200D138BD3A
S31500000B60014614F8010BFFF7E5FFF6E710B50B4C4D
S31500000B70D4F8B03043F02003C4F8B030084B012459
S31500000B801C6001449A605C601A46884201D1D869AB
S31500000B9010BD10F8014B9461F7E700BF00400E400E
S31500000BA000C00140F8B504461D4616460F4601F042
S31500000BB08CF9DDE90612204601F08BF90023636209
S31500000BC084F838703268C4F839207268C4F83D2059
S31500000BD02B0CB26884F845302B0AC4F8412084F8FF
S31500000BE0463084F84750F8BD30B585B01D4600F153
S31500000BF02803CDE90112009300F1240200F1380325
S31500000C00294601F07FF905B030BD00002DE9F0411D
S31500000C10A2B00F4616469846289C054660B359B3BF
S31500000C2052B34BB344B30121154800F0A9FE40224C
S31500000C30002102A802F0B8FD414602A800F0D6FC49
S31500000C4021460AA812AC00F0D1FC40220021204621
S31500000C5002F0AAFD3946204600F0C8FC31461AA823
S31500000C6000F0C4FC009402AB20222946054800F09F
S31500000C70CDFC22B0BDE8F08140F20160F9E700BF8B
S31500000C8000150A0000000F4010B5044600F0AEF84B
S31500000C9020460021BDE8104000F0ACB800F0AFB827
S31500000CA0014600F0B9B800002DE9F74314460E4698
S31500000CB01F46DDE90A82002845D11CB9002003B091
S31500000CC0BDE8F08313683F2B3BD85168204D11B126
S31500000CD0002F18BF3D4603F03F00E318136022BF04
S31500000CE053680133536080B3C0F140094C4522D3A9
S31500000CF031464A46404402F04CFD012300934246E9
S31500000D003B4629460020A4EB090400F093F83F2C4B
S31500000D104E440DD93D46A309009332463B4629462B
S31500000D20002000F087F824F03F031E4404F03F043F
S31500000D30002CC3D0002022463146404402F029FD53
S31500000D40BCE73D46C7E70348B9E73F2CF3D9E2E7DE
S31500000D506438000080AFFFFFF0B517461A6887B009
S31500000D601D46D3008DF80F3053098DF80E30530B06
S31500000D708DF80D30530D8DF80C306B680C46D9008C
S31500000D8001EB52718DF80B1002F03F025909372A18
S31500000D908DF80A104FEA53314FEA535394BFC2F10C
S31500000DA03802C2F178028DF809108DF808300E4924
S31500000DB02346CDE900750646FFF776FF08220DEBC0
S31500000DC002012346CDE900753046FFF76DFF0C9A08
S31500000DD0234604F1200153F8040B42F8040B8B421E
S31500000DE0F9D1002007B0F0BD843800006822002148
S31500000DF002F0DABC0023C0E900331846704707B595
S31500000E0000F128030190009300F108030020FFF78A
S31500000E104BFF03B05DF804FB07B50346009100F1F4
S31500000E20280200F108010020FFF796FF03B05DF8E5
S31500000E3004FB00002DE9F04F99B00646894690461E
S31500000E401D4601F011F90446002E40F0E28004230D
S31500000E5003604660C664436823F4406343600663E8
S31500000E60466359F826301BBA4DF826300136082E4F
S31500000E70F7D100F0C3FD009BC4F80431019BC4F810
S31500000E800431029BC4F80431039BC4F80431049B6B
S31500000E90C4F80431059BC4F80431069BC4F8043138
S31500000EA0079BC4F8043100F0ADFDDFF874A15A4B7E
S31500000EB02365002608F00309229B9E4239D1AB0721
S31500000EC000F08A8000F09AFDD4F80061D4F8001191
S31500000ED0D4F80021D4F80031CDE90061CDE9022330
S31500000EE0D4F80061D4F80011D4F80021D4F8003108
S31500000EF0CDE90461CDE906232E4600F083FD08AF57
S31500000F006B461A4603CABA4230607160134606F150
S31500000F100806F6D1204601F0B1F82B1F1C3553F810
S31500000F20042F12BAAB421A60F9D1002019B0BDE8FD
S31500000F30F08F08EB861BB9F1000F0FD008AA0BF152
S31500000F40400CDBF80000DBF80410134603C30BF17A
S31500000F50080BE3451A46F4D10DF1200B00F04EFDC7
S31500000F60DBE90131DBF80C20DBF80070C4F8A47172
S31500000F70C4F8A431C4F8A411C4F8A421DBE90531EE
S31500000F80DBF81C20DBF81070C4F8A471C4F8A43197
S31500000F90C4F8A411C4F8A421DBE90931DBF82C203C
S31500000FA0DBF82070C4F8A471C4F8A431C4F8A41105
S31500000FB0C4F8A421DBE90CC1DBE90E23C4F8A4C103
S31500000FC0C4F8A411C4F8A421C4F8A43100F01AFD91
S31500000FD00136C4F850A06FE700F010FDD4F80061A8
S31500000FE0D4F80011D4F80021D4F80031C5E9006125
S31500000FF0C5E90223D4F80061D4F80011D4F8002121
S31500001000D4F80031C5E90461C5E9062300F0FAFC0D
S3150000101080E702488AE700BF888AC80180AFFFFFE1
S31500001020070D81011C2350F8042F0AB9043BFAD19D
S31500001030002BCCBF00200120704730B5056804683E
S3150000104002680368C1E90054C1E90223056804681F
S3150000105002680368C1E90454C1E9062330BDD1E939
S31500001060022330B5D1E900540560046002600360D4
S31500001070D1E90454D1E906230560046002600360E7
S3150000108030BD00002DE9F04104461D460E4690464F
S3150000109000211C22181D02F087FB01232B6000F0A3
S315000010A0ADFC4146074604F58070FFF7D8FF314690
S315000010B004F5827004F58476FFF7D1FF29463046A1
S315000010C0FFF7CDFF384600F09DFC0D4F0D4B0E4A45
S315000010D00E490F4823656369DB010BD500F08EFCD2
S315000010E0294604463046FFF7A8FF2046BDE8F041F2
S315000010F000F088BC22656165A065E765EBE700BF87
S315000011003938010039398401D02484FC1C82FED888
S315000011108B1C81A02DE9F04F8DB0044698460F46F2
S31500001120154600F06BFC04F5827607F14002114685
S3150000113004F5867B814630460392FFF790FF2946E9
S315000011405846FFF78CFF04F58873184605F1200111
S315000011500293FFF784FF484600F054FC424921659C
S315000011604249616501254249A165E56500F046FCF5
S3150000117004F5847907F1200A019039463046FFF7D5
S315000011806EFF51464846FFF76AFF039A029B1146D7
S315000011901846FFF764FF019800F034FC354B2365D1
S315000011A0354B6365A56500F029FC04F58073019055
S315000011B008F1400118460293FFF73FFF04A948468D
S315000011C0FFF73BFF019A104600F01CFC00F016FCEE
S315000011D0394601905846FFF742FF019A104600F043
S315000011E011FC264A2265264A62656FF42673A2F52B
S315000011F0FE221A44A265E56500F000FC514607464A
S315000012003046FFF72CFF384600F0FCFB1D4A2265EE
S315000012101D4A6265A56500F0F1FB41460746484652
S31500001220FFF70BFF384600F0EDFB00F0E7FB04A9E3
S3150000123007463046FFF713FF384600F0E3FB134A34
S315000012402265134A6265A56500F0D8FB029B044639
S3150000125008F120011846FFF7F0FE204600F0D2FB09
S315000012600DB0BDE8F08F00BF8AD11C81D91C83D197
S315000012701C81E11CD01482CB1481E11C8CE11C8101
S315000012801C84D91CE014D8141482E11C84D3148263
S31500001290D11CE0142DE9F041044690B00F46244ECF
S315000012A00521904600F0B1FB0023236023636363AE
S315000012B00FCE08AD0FC596E80F0085E80F0008AA07
S315000012C06B4607F140012046FFF7DCFE00F096FB77
S315000012D004F586750646694604F58270FFF7BFFE7B
S315000012E039462846FFF7BBFE07F1200104F5887052
S315000012F0FFF7B5FE304600F085FB0E4B23650E4B1F
S3150000130063650E4BA3650123E36500F077FB08F1E7
S315000013102001064604F58070FFF78FFE41462846F9
S31500001320FFF78BFE304600F06DFB10B0BDE8F08194
S31500001330D03800008AD11C81D91C83D11C81E11CC4
S315000013402DE9F04FA5B01D460446CDE9001205A8CB
S315000013501C22002102F028FA4FF001082022002169
S31500001360284605F12007CDF8108005F1400A02F065
S315000013701BFA20220021384602F016FA202200210C
S31500001380504602F011FA0521204600F03EFB0023EC
S315000013902360FF26236363637211019806F01F031F
S315000013A050F8222008FA03F3134206F1FF3102D166
S315000013B00E460029F0D100F021FB04F58273394670
S315000013C0804618460293FFF74AFE404600F01AFB95
S315000013D07A4B7B4A236562657A4AA26500F00EFB6A
S315000013E004F5807914A980464846FFF726FE404654
S315000013F000F008FB00F002FB294680464846FFF74E
S315000014002EFE404600F0FEFA6F4A704B22654FF4FE
S3150000141086726365A26500F0F1FA04F58678834664
S315000014200CA94046FFF709FE1CA94846FFF705FE32
S31500001430584600F0E7FA00F0E1FA029B03935146A2
S3150000144083461846FFF70BFE584600F0DBFA604B62
S3150000145023650123636500F0D1FA04F5847B2946F0
S3150000146002905846FFF7FBFD029A104600F0CAFAB2
S31500001470584A226502F1D94202F5DE1202F595625A
S315000014806265A2F586120123A2F2BA42A265E3655D
S3150000149000F0B4FA1CA902905846FFF7E0FD0CA92B
S315000014A04046FFF7DCFD029A104600F0ABFA4A4AC6
S315000014B022654A4A62654A4AA26500F09FFA2946B1
S315000014C0029004F58870FFF7B8FD029A104600F006
S315000014D099FA00F093FA039B029039461846FFF7F3
S315000014E0BEFD58465146FFF7BAFD14A94046FFF720
S315000014F0B6FD029A104600F085FA3A4B23653A4B40
S31500001500636500F07BFA514683464846FFF795FD32
S3150000151039464046FFF791FD584600F073FA01211F
S3150000152006F01F0301FA03F37211019951F8222004
S31500001530134217D02B687BB92846FFF773FD58B1C5
S315000015402B6A4BB93846FFF76DFD28B12B6C1BB9DA
S315000015505046FFF767FD60B92B46009A294620469C
S31500001560FFF7D8FD16F1FF36BFF425AF25B0BDE86D
S31500001570F08F009BAC4603F1200E1868596862464E
S3150000158003C2083373459446F7D1BC4603F1200ED7
S3150000159018685968624603C2083373459446F7D102
S315000015A00DF1100EBEE80F0005F1400CACE80F007F
S315000015B09EE80F008CE80F00D4E700BF8AD11C819B
S315000015C0821CC00C0C0C0100C00C0C83D91C83D8E7
S315000015D08AD11C83DA0C81148CE11CD01484E314A8
S315000015E082D11C01D81483D11CC00C0110B5202255
S315000015F00C46002102F0D8F804F12002013812F856
S31500001600013D00F8013FA242F9D110BD2DE9F04F8E
S31500001610BBB089460446002190460AA860229A4635
S31500001620449F02F0C1F86022002122A802F0BCF813
S31500001630B9F1000F00F01E81BAF1000F00F01A8117
S31500001640002F00F01781B8F1000F40F3138100233B
S315000016502360236363636368884E43F0100363600B
S315000016600C21204600F0D1F9636823F4406343F46B
S3150000167000636360636823F4407343F4007363603C
S315000016800FCE2AAD0FC596E80F0085E80F0000F0D3
S31500001690B5F904F5847683463946304604F58675F1
S315000016A0FFF7DDFC2AA92846FFF7D9FC584600F0CB
S315000016B0A9F90122724B236562656269D20104D4DD
S315000016C040F202603BB0BDE8F08F391F082251F8A6
S315000016D0040F002800F0C680019300F08FF907F18F
S315000016E0200B009059463046FFF7B9FC2AA9284638
S315000016F0FFF7B5FC009A104600F084F9019B2365BC
S31500001700012363656369DB01DAD507F11C0208234F
S3150000171052F8041F002900F0A980B8F1200FA8BFD5
S315000017204FF020082022002132A802F03DF808F1EF
S31500001730FF30CC4620F003033AA940330B441CF893
S31500001740012B00F00301C9008A4053F8601C0A43CC
S3150000175043F8602CACEB0903434500F1FF30E9DBAD
S3150000176000F04CF932A980463046FFF778FC404637
S3150000177000F048F9434B236500F040F904F5807802
S31500001780814632A94046FFF758FC484600F03AF930
S315000017902AAA02AB59462046FFF774FC00F02EF940
S315000017A004F58879834602A904F58270FFF757FC91
S315000017B032A94846FFF753FC39462846FFF74FFC47
S315000017C0584600F01FF9304B236503F1FA43A3F5A1
S315000017D00063636500F012F932A983464846FFF7B5
S315000017E02CFC02A94046FFF728FC584600F00AF9EF
S315000017F00AAB32AA25492046FFF7A2FD22AB02AA70
S3150000180051462046FFF79CFD0AAA11462046FFF7DF
S3150000181041FD22AB19460AAA2046FFF77BFC22AA05
S3150000182011462046FFF736FD00F0E8F80C21804609
S31500001830204600F0EAF822A93046FFF710FC3946A8
S315000018402846FFF70CFC404600F0DCF8104B2365F9
S31500001850104B6365636913F0807F40F2046018BF24
S3150000186000202FE7013A7FF432AF29E7013B7FF4EE
S315000018704FAF25E740F2016024E700BFF0380000D3
S315000018803035DA1030D00C0130E11C8410390000FC
S315000018903035DA14393801001FB5124B1A6842F494
S315000018A080121A60D3F8C02042F00102C3F8C020AB
S315000018B0FFF736F84FF47A23B0FBF3F00A4B0D220C
S315000018C018600021684601F06FFF01238DF8003093
S315000018D069460A2305488DF8023000F0C5F905B0BF
S315000018E05DF804FB00400E403801002000800140F6
S315000018F00C4A0D4B10B5546A1B68A4B213FB00408A
S315000019000A4B80B21880A042094B2CBF0024012448
S315000019101C70134611B15A6A8242FCD101225A61E7
S315000019209A6110BD0080014038010020340100207A
S3150000193036010020094B0A4AD868127800F00100E7
S315000019400AB108B9704738B9586A064B1B889842DD
S3150000195034BF0020012070470120704700800140FD
S315000019603601002034010020044BD3F84421D2076D
S3150000197003D4D3F840211042FBD1704700400E40FB
S31500001980C0F30322013A38B50546092A13D8DFE821
S3150000199002F023131212051619121C20104C0020F7
S315000019A0C5F3043508B1FFF7DFFF04F1047405EB56
S315000019B0C404A400216038BD00200A4CF0E70120D1
S315000019C0094CEDE71020094CEAE74FF48030084C4B
S315000019D0E6E70020074CE3E70020074CE0E700BFFE
S315000019E0B0400E40C0400E40E0400E40E8400E4081
S315000019F0F0400E4050410E4000400E40EFF3108084
S31500001A0072B6704700B962B670470E2910B54368C2
S31500001A100DD801228A4047F2E004224223F01F0338
S31500001A2006D140F61F74224201D01943416010BD11
S31500001A3041F01001F9E70000F0B54AB130261E4C1E
S31500001A40012546438D4034440BB304F1C064256040
S31500001A503024444304F18044072904F5204419D86E
S31500001A6065688E000F27B74025EA070502FA06F6D5
S31500001A703543656052B9012202FA01F13022504322
S31500001A800D4A0244A3B102F1C0621160F0BD04F137
S31500001A908064DCE701F18045083DA668AD000F27AC
S31500001AA0AF4026EA070602FA05F53543A560E1E7E9
S31500001AB002F18062E9E700BF0CA000401E4B41F630
S31500001AC071311A6C10B51964996841F00101996079
S31500001AD001211861D960D9694C0792B209D5996874
S31500001AE021F0010199600AB100221A644FF0FF301B
S31500001AF01FE00221114CD9601946D869C00700D5EC
S31500001B006CB9C8698B6810F0020023F001038B6082
S31500001B1007D00AB100230B646FF0010009E0013C15
S31500001B20EBE724B902B10C646FF0020001E00AB1E0
S31500001B30086410BD1046FCE700000E408096980031
S31500001B402DE9F04F02F16044B4F5F84F03D94FF098
S31500001B50FF30BDE8F08F314FDFF8CCE0DFF8CC90F6
S31500001B60DFF8CCA0302505FB00754FF44014C5F80E
S31500001B7080400024C5F88440C5F88840C5F89840E0
S31500001B80274C41F67136D4F840802664A66846F0A4
S31500001B900106A660012606FA00F0BC465BB90422DF
S31500001BA0E260A26822F00102A2601FFA88F202B186
S31500001BB023641846CDE74FF0010B01F5006621615D
S31500001BC006EA0E06C4F80CB0761AD4F81CB09E428B
S31500001BD028BF1E461BF0040F4FEA9607B7D1013FF8
S31500001BE03F0147F06057C5F88C700E4FC5F890203E
S31500001BF0C5F89470DCF820700743CCF820701027E5
S31500001C00E760DCF828703842FBD0C9F800003144A0
S31500001C10CAF8000032449B1BC0E700BF00200E40FC
S31500001C2000000E4018000E4000F8FFFF28200E446A
S31500001C3020200E440B4A536911699B0003F03C03B4
S31500001C40C1F381110B438370136903F03F034370A3
S31500001C509369D26903F0F003C2F3031213430370CE
S31500001C60704700BFD0FF0FE02DE9F04F0C780CB99C
S31500001C7002234360002343624B78CA7891F802B08E
S31500001C808D7A91F808A091F8069091F80780002BBC
S31500001C904B7A4FEA024214BF4FF0400E4FF0000E4F
S31500001CA042EA0B62002B14BF8023002342EA0A0299
S31500001CB0002DCD7A42EA892214BF4FF0200C4FF056
S31500001CC0000C42EA0822002D0D7B42EA0E0214BFE8
S31500001CD0102700271343002D0D79497943EA0C0399
S31500001CE014BF082600263B43002D14BF4FF40055B1
S31500001CF000253343002914BF4FF0805100212B43A8
S31500001D000B4303600CB101234360BDE8F08F000074
S31500001D101C4AD2F8B03013B543F004030021C2F8D0
S31500001D20B030084601230422FFF786FE0023009305
S31500001D30009B632B20DD0021012302220846FFF7CA
S31500001D407BFE00230193019BB3F5FA7F17DB0E4B55
S31500001D5000221C68114610460123FFF76DFE094A52
S31500001D60D2F8B03014F1FF3023F0040318BF01207D
S31500001D70C2F8B03002B010BD009B0133D7E7019B1B
S31500001D800133DFE700400E408003144230B58B0775
S31500001D9085B015D00568046802680368CDE900546B
S31500001DA0CDE902236C460B4604AD224603CAAA427D
S31500001DB018605960144603F10803F6D105B030BD2A
S31500001DC00091009B0568046801680268C3E9005435
S31500001DD0C3E90212F2E77FB58B07024615D00B4620
S31500001DE06D4601F11006186859682C4603C408337D
S31500001DF0B3422546F7D1009B1360019B1360029BFB
S31500001E001360039B136004B070BD0091009BD3E97F
S31500001E100040D3E90213146010601160F2E700F18C
S31500001E200473102A30B54FEA43131AD101221A60FF
S31500001E30D1E90054D1E90223C0F81051C0F810418D
S31500001E40C0F81021C0F81031D1E90454D1E90623B5
S31500001E50C0F81051C0F81041C0F81021C0F8103178
S31500001E6030BD00221A60D1E90054D1E9022345624F
S31500001E70446242624362F3E7F0B58B0789B00646D7
S31500001E8015461FD0082A0B466C4610D101F11007E3
S31500001E9018685968224603C20833BB421446F7D174
S31500001EA02A4669463046FFF7BAFF09B0F0BD01F190
S31500001EB0200718685968224603C20833BB421446F5
S31500001EC0F7D1EDE700910099EDE72422002101F01A
S31500001ED06BBC38B514460D462422002101F064FC83
S31500001EE0802C034602D0B4F5807F08D11846E2085C
S31500001EF040F8044B294601F04CFC002038BD6FF039
S31500001F007100FBE72DE9F04F85B0814688460193C5
S31500001F10174652B11668D9F80030802B03D0B3F5B6
S31500001F20807F40F09B8000240DE01646F3E7A6B1C3
S31500001F300F9B0E9A1B5D925D5340109A0136135506
S31500001F4006F00F0601344445F1D3002F00F08980D6
S31500001F503E60002005B0BDE8F08F00F085F84FF434
S31500001F604043466003600546FFF748FDD9F8003058
S31500001F70802B824614BF1022082209F1040128464C
S31500001F80FFF77AFF05F18403184601990093FFF7DE
S31500001F9022FF5046A8EB040A2AF00F0AFFF732FD8B
S31500001FA0A2440323544519D10F9B03EB040A109B4B
S31500001FB01C440F9B03EB080B0323DA452CD1FFF7D8
S31500001FC01DFD0446DDE90001FFF7E0FE2046FFF7B0
S31500001FD019FD284600F052F84446B4E74822AA60A4
S31500001FE00522AA602A699107FCD4AB600293FFF729
S31500001FF005FD0F9B8346191905F1A000FFF7EBFEBF
S31500002000109B05F180001919FFF7C0FE5846FFF72F
S31500002010F9FC1034029BC5E7AEB94822AA60052236
S31500002020AA602A699207FCD4AB600393FFF7E6FC2B
S315000020300E99029005F18000FFF7A8FE029A10465D
S31500002040FFF7E0FC039B0E991AF8012B895D013618
S315000020504A4004F8012B06F00F06AEE76FF02000A9
S3150000206078E7384676E70000024B034801221A60FB
S31500002070704700BF0416C84300000F40054B984246
S3150000208006D103F16E7303F58B33043300221A6015
S31500002090704700BF00000F400020704700207047C7
S315000020A0002070470020704740F628031B68186917
S315000020B0704728231868704740F628031868704749
S315000020C02823044A1B68196891420CBF186900202E
S315000020D0704700BFAD1007B0012070470048704739
S315000020E04A43E00F004870476A43E00F00487047D4
S315000020F08642E00F38B501213448354CFFF740FCE5
S3150000210001213448FFF73CFC01214FF48A40FFF7D8
S3150000211037FC01213048FFF733FC40F6AA6300255F
S31500002120E3602E4A256041F2050365666360A5609B
S315000021306561E564A2646567A567E5676360236812
S315000021402360FEF7EDFB00F5E1404FF4E11340019B
S31500002150B0FBF3F0224B203803EAC0000123606194
S31500002160042218460E21FFF767FC01231A460F21A9
S315000021701846FFF761FC40F60913A36703220523FF
S315000021806267E360174B4FF0E06119604FF440213E
S315000021901D62DD625D63DD66C3F880101249C3F817
S315000021A08850C3F88450C3F898101049C3F8B0108B
S315000021B00F49C3F8B850C3F8B4500A600122DA6375
S315000021C003F1C063083302221A6038BD404105009E
S315000021D00000014000250A0000220400F9FF01006A
S315000021E0F8FF7F0000200E405039000001000C006F
S315000021F028200E44084B986A10F0020005D0074AC2
S31500002200022313609360012070471B6A9B07FBD46F
S31500002210034B02221A60F6E700200E4020200E44EF
S3150000222028200E447F2938B50546144624D8FFF7E2
S31500002230E1FFA8B941F2062038BDE85C98540133A5
S315000022408B42FAD10E490888013B63F30E100D4B01
S3150000225008800222C3F8C810DA6324B90020EBE72D
S315000022600023094AECE7FFF7C5FF0028FBD0074A21
S3150000227013699B06FCD5F1E741F20310DCE700BFCA
S315000022800001002000200E40400300200000014015
S3150000229008B50146FFF7AEFF0028FBD0054B1A46EE
S315000022A018694006FCD5596313699B06FCD50020C6
S315000022B008BD00BF000001400E4BD3F8940040F269
S315000022C0011398420FD040F2022398420DD00A4BD8
S315000022D0C01A0A4B1B6883420AD02ABFC3F5007393
S315000022E0C01AC01870470020F3E74FF48070F0E77B
S315000022F00020704700200E403C0100203C030020D7
S315000023002DE9F843089F04460D461646FBB9FFF72C
S31500002310D3FF2149DFF888E00B68204FA84228BF89
S315000023202846224604EB000C4FF0010800244FF02B
S31500002330020962451DD104B10B6006B1306041F25D
S315000023400423A84234BF18460020BDE8F8832FB105
S31500002350FFF7A2FA00213846FFF7CAFAFFF7ACFFEB
S31500002360A842D4D2002FF9D0FFF7E4FA0028F5D01E
S31500002370CDE71EF8034002F8014B0133B3F5007FA9
S3150000238004D1C7F8009000230124D2E7B3F5807F7B
S3150000239008BFC7F80080F7E73C03002008200E4678
S315000023A03C01002007B50123009100221946FFF7E2
S315000023B0A7FF03B05DF804FB10B10A4B02221A60B6
S315000023C071B1084A0849012313609360074AC2F8AD
S315000023D09810074900200860D363064B02221A6052
S315000023E00020704720200E445039000000200E4087
S315000023F03C03002008200E4607B54FF47A710DF114
S315000024000700FFF7CFFF50B99DF80730313BDBB22D
S31500002410022B01D8034AD05C03B05DF804FB01200F
S31500002420FAE700BF90390000FFF764BE10B540F62A
S31500002430280392B01B6818499C684722684601F039
S31500002440A8F9C4F30363092B8CBF373330330A2151
S315000024508DF81430C4F30343B3FBF1F202F13000FC
S3150000246001FB123204F00F043032B4FBF1F38DF8A5
S31500002470172003F1300201FB13438DF816008DF887
S31500002480192030330122472168468DF81A30FFF7AC
S31500002490C9FE002012B010BDA63900002DE9F04794
S315000024A00024F6B09022214652A88DF80B4001F088
S315000024B07BF94822214604A801F076F968222146D4
S315000024C016A801F071F9FFF7E7F9B74EDFF8F082C9
S315000024D0DFF8F0923C270125062DFDD8DFE815F040
S315000024E009000D001200330053004C01C100042501
S315000024F0F2E7FFF79BFF0125EEE7FFF77DFF3C279D
S315000025000546E9E701221121A848FFF78BFE2023A3
S3150000251016AA04A952A800F043FD28220021A248C9
S3150000252001F042F9FF23012105207370FFF7E0F95E
S31500002530FFF7C2FE18B101210020FFF73DFF00F0B2
S315000025404FF90325C8E74320FFF7A2FE00214FF409
S315000025507A70FFF7CDF9FFF7AFFE18B9FFF7EAF982
S315000025600028F8D0FFF7A8FE0028C0D1013FB3D15C
S315000025701820FFF78DFE1820FFF78AFE1820FFF7B8
S3150000258087FE0025A8E7002185220DF1C10001F094
S315000025900BF9002140F6B830FFF7AAF9FFF78CFED9
S315000025A078B34FF47A7300930123194603AA0DF109
S315000025B0C100FFF7A5FE9DF8C130012B0DD140F6F5
S315000025C0B8320092842103AA0DF1C200FFF798FEEB
S315000025D0039B842B044618D1C8B90DF10B010DF1EC
S315000025E0C10000F007F940F607139842044614D1DB
S315000025F0B3780BB1F37813B918238DF80B30062591
S315000026001DE0FFF797F90028C8D040F204741520A2
S315000026108DF80B00FFF73CFE5EE780B99DF8C130F0
S31500002620012B0CD1624B009331AA8023314652A86C
S3150000263000F0F0FC044610B118238DF80B309DF81D
S315000026400BA0BAF1180F504608BF0625FFF720FE6B
S31500002650BAF1180F7FF440AF5046FFF719FE504607
S31500002660D8E701210020FFF7A7FE01210A20FFF786
S315000026703FF99DF80B30062B4FF0010208D140F6CA
S3150000268007139C4204D14B481B21FFF7CBFD78E78B
S315000026901A214846FFF7C6FDA4F51063B3F5E06FAF
S315000026A039BF18214448454810210122FFF7BAFDD9
S315000026B041F201039C4249D02FDC40F603139C42B1
S315000026C046D01FDC40F601139C4247D040F6021369
S315000026D09C4245D09DF80B00000909288CBF373075
S315000026E03030FFF7D5FD9DF80B0000F00F000928EC
S315000026F08CBF37303030FFF7CBFD0D20FFF7C8FD1C
S315000027000A203CE740F605139C422BD024DB40F61A
S3150000271006139C42DED127231BE041F207039C42AD
S3150000272014D00ADC41F205039C421FD022DC41F2A0
S3150000273004039C42CED150230BE041F209039C4294
S3150000274012D015DB41F20A039C42C3D14F2300E0AD
S3150000275021238DF80B30BDE72223FAE72323F8E780
S315000027602423F6E72523F4E74123F2E74323F0E7A2
S315000027704423EEE74523ECE7B37853B3F37843B34A
S3150000278033789B0720D540F6280372681B689B6840
S315000027909A4204D9FFF794FC716A00F0A3F901226A
S315000027A01321404671E700BFC0030020453A0000F0
S315000027B0003A00002A3A0000563A0000ED390000BF
S315000027C093390000103A000040F2012000F026FA8A
S315000027D0E5E740F2032000F021FAD2E67047000058
S315000027E0024A00231370024A13707047E803002060
S315000027F0E903002038B50378042B05460C4650D073
S3150000280008D8012B0AD0032B50D11823237040F689
S3150000281008100DE0182BF8D0432BF5E7264B42782D
S315000028201978D9B9012A04D01523237040F604106B
S3150000283038BD1A70AB781A44FF2AF5D100228021E0
S31500002840E81CFEF786F995F88320C0F30F239A4219
S3150000285016D01523237040F60210E9E7174B1B78B4
S31500002860934204D10623237040F60610E0E70133B5
S31500002870DBB29342DED01523237040F60510D7E76E
S3150000288095F88430C0B2834204D01523237040F6F5
S315000028900110CDE7094B6A781A70062323700020D1
S315000028A0C6E706230B7040F60710C1E7182323700E
S315000028B040F60310BCE700BFE9030020E803002050
S315000028C0C0F30A032DE9F04105460F4616460BB93B
S315000028D000F0F5F905F5006424F4FF6424F007041C
S315000028E005EB0608A04507D8324639462846022396
S315000028F0BDE8F04100F0EAB9204600F0E0F904F541
S315000029000064EFE770B504460E461546FFF7D4FBA4
S315000029100369A3420AD8426963199A4206D32A4632
S3150000292031462046BDE87040FFF7CABF70BD0000C3
S315000029302DE9F041154607468846FFF7BAFB104BCE
S3150000294002689A4219D1FFF7B7FB0646FFF7B8FBB4
S31500002950C4196319B3F5802F0FD83FB9FFF7B0FB41
S315000029607369834202D9306900F0A9F92A464146C3
S315000029702046BDE8F041FFF7A3BFBDE8F08100BFE8
S31500002980AD1007B0F0B50F4B85B06C46024603F1AB
S315000029901007264618685968254603C50833BB4202
S315000029A02C46F7D104AB501E13F8011D10F8012F69
S315000029B0914204D1B342F7D1012005B0F0BD002009
S315000029C0FBE700BF6E3A0000007C01288CBF0020A8
S315000029D00120704770B59EB040F20463446B0393C8
S315000029E00546FFF769FB06462046FFF7CBFF60B3B7
S315000029F02046FFF7E9FF40B36369012B27D1A4699D
S31500002A003369A34223D8A54221D8B4F5802F1ED816
S31500002A1004A8FEF739F9621B294604A8FEF73EF919
S31500002A2004A8FEF73DF9FFF759FB0546FFF75AFBE9
S31500002A302B46009004F12002214604A8FEF7E6F892
S31500002A4003900398B0FA80F040091EB070BD0020D4
S31500002A50FBE70000F8B5D0E9006706F160460446DA
S31500002A60456BFFF729FBB6F5F84F01D90020F8BDF5
S31500002A700369BB42FAD8B7F5802FF7D84033AB428B
S31500002A8002D8B5F5802F05D9FEF752F880F001007F
S31500002A90C0B2ECE7FEF74CF820B12046BDE8F8409E
S31500002AA0FFF798BF2846FFF76DFFB8B12846FFF736
S31500002AB08BFF0028DAD06B69002BD8D0022BECD123
S31500002AC0AB69C4F1040119444FF0FF322046FEF70A
S31500002AD04DF8034BC31A58425841C8E70120C6E7D0
S31500002AE0E320BBDE08B54FF0FF32FEF73FF8044B9C
S31500002AF0984203D140F2092000F090F8002008BD6A
S31500002B00E320BBDEB1F5BC7F10B5044610D34FF40D
S31500002B10BC72002100F048FE0023637004F5807249
S31500002B2004F1B80104F12800BDE8104000F038BAFD
S31500002B3040F2052010BD13B5044600910146283029
S31500002B4000F068FAC4F8740118B141F2070398421C
S31500002B5009D1A3784BB1E27840F2032040F2022378
S31500002B60002A08BF184602B010BD40F20120FAE75D
S31500002B702DE9F04387B002AF04460E9E8846914683
S31500002B800021102238461D4600F00EFE002131605D
S31500002B901C22284600F008FE4B4642460097214676
S31500002BA004F1280000F036FA23789A0744BF6368D8
S31500002BB033602378DB0709D504F1080304F1240206
S31500002BC053F8041B45F8041B9342F9D12378002BD4
S31500002BD040F2064018BF002007B0BDE8F0834FF46E
S31500002BE0BC7070474FF000534CF23C325A8070472D
S31500002BF04FF000534AF6C0305B8823F00F031B1AD0
S31500002C005842584170474FF0005208B51080FFF700
S31500002C10EFFF10B94FF20F03538008BD08B5FFF759
S31500002C20F2FF0A4A136823F4E06343F40073136067
S31500002C30BFF34F8F0649074BCA6802F4E06213439D
S31500002C40CB60BFF34F8F00BFFDE700BF00500E40C3
S31500002C5000ED00E00400FA0508B5FFF7C9FF30B93A
S31500002C604FF000534FF20F015A888A4203D14FF0BA
S31500002C700053188808BD3AB91B88012B40F2022080
S31500002C8018BF4FF40070F5E74FF40070F2E713B584
S31500002C900B461446820753BF6FEA03434FF6FF7293
S31500002CA042EA03436FEA13430193042320F003012E
S31500002CB00DEB03022046FEF743FF02B010BD08B538
S31500002CC0FEF7FCFEB0FA80F0400908BD072B2DE99F
S31500002CD0F04105460E4614461F4602D90020BDE8BF
S31500002CE0F08101214FF48A40FEF74AFE0CB901201B
S31500002CF0F5E744EA0503DA07F0D4AB0726D53A46EA
S31500002D0031882846FFF7C3FF0028E7D1023C032C91
S31500002D1005F1020506F102060DD924F00308434623
S31500002D20324629463846FEF70BFF0028D6D14644E0
S31500002D304544A4EB0804002CD9D03A4631882846ED
S31500002D40FFF7A5FFB0FA80F04009C8E7032CE4D8E6
S31500002D50F3E770B5D1E90152AA4205D290F84030A6
S31500002D602B449B1A402B10D9002012E00A6890F8D9
S31500002D704040D65C90F84120224402F03F020133E5
S31500002D80013486548B6080F840408B689D42EDD8B4
S31500002D90012070BD2DE9F8431746D1E90125521BE4
S31500002DA090F840509DF820909DF824802A44934244
S31500002DB004460E4657D9FFF7CCFF00285DD11223F3
S31500002DC084F8463041F20200BDE8F88394F84120C9
S31500002DD0A25C7A5594F84120013202F03F0284F851
S31500002DE0412094F84020013A84F84020013594F8B7
S31500002DF0402012B1AB42E9D11D46D6E901128A4202
S31500002E0001D2AB4231D8AB42D9D1D4F88820294679
S31500002E103846FDF7ABFEC4F88800B9F1000F04D0C0
S31500002E202A463946E06CFDF739FFB8F1000F08D0A5
S31500002E3094F843302BB12B463A463946A06CFDF741
S31500002E40D3FE94F8433043B1E36DA26D2B44934215
S31500002E50E36524BF002384F84330636D1D44656534
S31500002E6041F20300B0E70025C1E731688A5C7A5574
S31500002E70B2680132B2600135BFE70020A4E7000066
S31500002E807FB50023CDE90033082315460DEB030279
S31500002E900446FFF77FFF41F203039842064626D118
S31500002EA094F8433063B108220DEB0201E06CFDF7A4
S31500002EB0F5FE08230DEB03021146A06CFDF794FE08
S31500002EC0039A6A6094F84320029B2B605AB9094A18
S31500002ED0934208D0084A934205D008220DEB02011E
S31500002EE0E06CFDF7DBFE6B68236500236365304607
S31500002EF004B070BDF70A0AF7FC0404FC2DE9F84398
S31500002F00044658680D4616461F46002843D08B07D0
S31500002F1043D1FFF7C9F8216E00F1040C06EB010955
S31500002F20CC451DD800F11C02914219D28C4563464E
S31500002F3038BF0B46591AA3EB0C00914594BFC3EB5F
S31500002F400909C3EB020905EB010868304A46414608
S31500002F50204400F01EFC4A46FF21404600F024FCB7
S31500002F60FFF7AEF8226E031D93420AD3B11808305C
S31500002F70814206D39B1AEA58C4F880204FF0FF32EC
S31500002F80EA50D7E900383246206E2946C047236EFC
S31500002F901E4426660020BDE8F88341F20200FAE7E7
S31500002FA0F8B504464FF0FF36154603F0200300221D
S31500002FB080F84620A0F8402080F8432080F845207D
S31500002FC080F84420C0E918220F4680F84230C0F845
S31500002FD088601822FF21683000F0E6FBC4F88060A4
S31500002FE0C4F88460C4E91275FFF75CF818B117B924
S31500002FF041F20B00F8BDFFF753F830B1002DF7D0C2
S31500003000E06CFDF741FE0020F4E7002DF8D12846DC
S31500003010F0E700002DE9F04F9DB0CDE909230393B9
S31500003020269EDFF8E4B30023044689460B939846B0
S315000030300B9A039B9A4259D294F84630122BF8D831
S31500003040DFE813F05D0076005600A200C8013D00DF
S315000030503400FF013D00F9013D00F901CE02720383
S31500003060130039033D035D0272030027636D0F2BC6
S3150000307043D8012510230CAA0197009509A92046DB
S31500003080FFF788FE0690069A41F203039A4241D161
S31500003090D4F848A0FFF72AF88023CDE900030DAA4B
S315000030A02B4602215046FDF77DFDDFE70125D4E9D9
S315000030B014329A42C0F0258184F84650B8E70DF1E3
S315000030C0300AD4E91452AA420B9916D20A9BAD1AB9
S315000030D094F840205B1A032D134440F2B681032B6B
S315000030E000F2DC8109A92046FFF733FE002050E0FC
S315000030F00025636D072B40F2CB80012315E007AA5C
S3150000310009A92046FFF7BCFE0690069A41F2030382
S315000031109A4201D006983CE0089B2365002363652C
S31500003120079AAE4B9A422FD1022384F846307FE7A6
S3150000313007AA09A92046FFF7A3FE0690069A41F2C0
S3150000314003039A42E6D194F84420079B22B1A44A8D
S31500003150934219D10C23E8E794F84220D1074FD5C2
S3150000316094F84320002A40F0E2829E4A934241D0DE
S3150000317017D89D4A934207D00ED8984A934203D057
S3150000318002F1B642934215D1122384F8463041F239
S3150000319001001DB0BDE8F08F944A9342F4D0944AE2
S315000031A0F0E7944A93421BD00CD85B4543D0924A31
S315000031B0934217D0122384F8463007A8FEF76CFF17
S315000031C0D8B1E4E78D4A9342DED08D4A9342DBD0F4
S315000031D0834A9342EED1FEF763FF0028BAD0D3E7C5
S315000031E00E23A2E70F2384F84630236DA365002340
S315000031F0E3651DE7122384F8463041F20800C8E76C
S315000032005B4514D000F29782784A934207D0784AF9
S31500003210934206D0744A93420FD1062385E70423CE
S3150000322083E7072381E709237FE70B237DE794F8EC
S315000032304330002BA8D1102377E707A8FEF72CFF11
S31500003240E0B11123079884F84630C4F88C00FEF7E5
S3150000325025FF94F842309A0680467FF5E9AE0028AD
S315000032603FF4E6AE4368002B3FF4E2AE20469847B3
S315000032700690069B002B3FF4DBAE88E7122384F80A
S31500003280463094F84330002BB7D041F2040080E773
S31500003290012300930CAA0823019509A92046FFF7EC
S315000032A079FD0690069A41F203039A427FF432AF03
S315000032B00C9B03F07F43B3F1407F05D0122384F8C3
S315000032C0463041F2090064E70D9B0593DB070ED5F6
S315000032D094F8423043F0010384F84230FEF7E0FEF2
S315000032E000283FF406AF059BDF0504D501E7FEF78E
S315000032F0D9FE0028F2D0122384F8463041F20A00A3
S3150000330047E70CAACDE9005509A92046FFF742FD7B
S315000033100690069A41F203039A427FF4FBAE09F146
S31500003320080C0CAF63460DF1480E3A4603CA7245C7
S3150000333018605960174603F10803F6D11068186043
S3150000334099F8003043F0010389F800306046FEF733
S31500003350C3FE00287FF4ABAE122384F8463041F258
S315000033600C0016E70123CDE900330CAA082309A9AE
S315000033702046FFF70FFD0690069A41F203039A4294
S315000033807FF4C8AE99F8003043F0020389F80030A4
S315000033900C9BC9F80430236D083BC9F824300D9BFB
S315000033A00593FEF786FE174A036893427FF4EFAE55
S315000033B0FEF77FFE059BC2689A427FF4E5AE0523C1
S315000033C084F8463094F8453043F0010384F84530DC
S315000033D000236366636D072BC4D929E6EB17A603A2
S315000033E0FC0404FCF70909F7F40A0AF4F50909F5DF
S315000033F0F60808F6FA0606FAF90707F9FD0303FDCB
S31500003400FE0101FEAD1007B0F70A0AF704230CAA65
S31500003410CDE9005509A92046FFF7BCFC0690069A9F
S3150000342041F203039A427FF475AE226D0C9B05931D
S31500003430042A01D923660125636D032BE6D90A23E5
S3150000344073E60023636608236FE69D423FF64AAEA5
S315000034509D4228BF1D46032D88BF25F00305012385
S31500003460CDE9003352462B4609A92046FFF792FCC8
S315000034700690069A41F203039A427FF44BAE94F803
S315000034804630082B13D1B7688FB13368606E2A4671
S315000034905146B847636E1D44656612E6402D28BF47
S315000034A04025D5E74FF0FF320AF805200135032DF8
S315000034B0F8D90A2B07D133462A4651462046FFF74C
S315000034C01DFD0690FDE5052B7FF4FBAD99F8013057
S315000034D098077FF5F6ADF368002B3FF4F2AD626E08
S315000034E0042A0AD85319062B07D90DAB9B1A1A685A
S315000034F0C4F884204FF0FF321A60F768C5E794F8E5
S315000035004230990607D5D4F88C00FEF7C7FD8046F1
S3150000351000283FF43CAE012743E0002B5ED0B8F113
S31500003520000F5BD0D8F81030002B57D020469847B4
S31500003530DDE90A53ED1A94F840302B4498423FF6E1
S31500003540D1ADD4E91452AD1A402D28BF40259D4275
S3150000355028BF1D462B460CAACDE9007709A92046AF
S31500003560FFF718FC0690069A41F203039A427FF48D
S31500003570D1AD94F842309A0613D5B8F1000F3FF456
S3150000358006AED8F808A0BAF1000F3FF400AE3346F5
S315000035902A460CA92046D0470690069B002B7FF4AE
S315000035A0B9ADD4E9142194F84230914203F02003D6
S315000035B0B3D3002B3FF4A1ADB8F1000F3FF49DAD9E
S315000035C0D8F80C30002B3FF498AD3146204698478A
S315000035D00690069B002B3FF490AD9BE50120A7E7E4
S315000035E00023CDE900330CAA042309A92046FFF7DE
S315000035F0D1FB0690069A41F203039A427FF48AAD04
S31500003600D4F88820574B9A4205D0122384F84630C6
S3150000361041F20500BDE5FEF743FD10B9012389F827
S31500003620033099F80330002B3ED094F845309B07C1
S3150000363007D0F5682DB10422336804F184011046E1
S31500003640A847236E83B3736873B31CAF4FF0FF3381
S3150000365047F85C3D04F1800804224146384600F0F4
S3150000366089F840B1FEF72CFD28B10422D6E90035D1
S3150000367041461044A84704F1680504222946384605
S3150000368000F078F880B17768FEF70EFD33681422F3
S3150000369004F16C010830B8477768FEF705FD04228F
S315000036A0336829461044B847012389F802300D23B0
S315000036B084F846301AE5012384F8433035E594F85A
S315000036C04450002D7FF419AD40230CAACDE90055D6
S315000036D009A92046FFF75EFB0690069A41F203030E
S315000036E09A427FF417ADE06CFDF7DAFAE76CFEF765
S315000036F0F5FC8246FEF7F6FC5346009014AA0CA988
S315000037003846FDF783FA0690069B3BB1122389F8EB
S31500003710035041F2060084F846303AE5012389F861
S31500003720033084F84430E8E441F2070031E55B45B4
S315000037307FF468AD28E50C4A93423FF476AD0B4A18
S3150000374093423FF470AD0A4A93427FF476ADFEF79A
S31500003750A7FC00287FF418AD94F84330002B3FF403
S31500003760F9AC11E5E320BBDEFD0303FDFE0101FE1E
S31500003770FC0404FC30B50024A24201D1002007E07D
S31500003780035D01340D1915F8015CAB42F4D0581BEA
S3150000379030BD10B5431E0A44914200D110BD11F848
S315000037A0014B03F8014FF7E702440346934200D169
S315000037B0704703F8011BF9E7F8B500BFF8BC08BC71
S315000037C09E467047F8B500BFF8BC08BC9E467047D9
S315000037D00400000700000D1013001A2026303840A0
S315000037E04800000007B0CD5E0100000000000C019B
S315000037F0A03200000040000000000400F0001000AD
S31500003800190900001D090000552A0000052B0000BB
S31500003810372B000000000000712B0000DF2B00009A
S315000038200000000013B779FAC925DDB7ADF3CFE084
S31500003830F1B614B801010000020000009C3A000035
S315000038404000000000000C01000000000000000025
S315000038500000000000000000000000000000000062
S31500003860000000006A09E667BB67AE853C6EF3722E
S31500003870A54FF53A510E527F9B05688C1F83D9AB35
S315000038805BE0CD1980000000000000000000000091
S315000038900000000000000000000000000000000022
S315000038A00000000000000000000000000000000012
S315000038B00000000000000000000000000000000002
S315000038C0000000002000000000010000050C0000C0
S315000038D0FFFFFFFFFFFFFFFFFFFFFFFF00000000EE
S315000038E0000000000000000001000000FFFFFFFFD5
S315000038F0512563FCC2CAB9F3849E17A7ADFAE6BC8C
S31500003900FFFFFFFFFFFFFFFF00000000FFFFFFFFBD
S3150000391096C298D84539A1F4A033EB2D817D037763
S31500003920F240A463E5E6BCF847422CE1F2D1176BFE
S31500003930F551BF376840B6CBCE5E316B5733CE2BD1
S31500003940169E0F7C4AEBE78E9B7F1AFEE242E34F00
S31500003950F00F10031C0001403C0100201300000082
S315000039600900000000010000020200001300000030
S31500003970F00F10031C0001403C0200201300000061
S31500003980090000000002000001010000D3FFFFFF54
S315000039900205000D0A4661696C656420746F206239
S315000039A06F6F740D0A000D0A4765636B6F20426FD7
S315000039B06F746C6F616465722076582E59592E5A51
S315000039C05A0D0A312E2075706C6F61642067626C27
S315000039D00D0A322E2072756E0D0A332E2065626C2A
S315000039E020696E666F0D0A424C203E20000D0A6665
S315000039F0696C65206572726F722030780000000075
S31500003A000000000005290000000000003129000028
S31500003A100D0A53657269616C2075706C6F61642064
S31500003A2061626F727465640D0A000D0A53657269EE
S31500003A30616C2075706C6F616420636F6D706C656E
S31500003A4074650D0A000D0A626567696E2075706CF3
S31500003A506F61640D0A000D0A584D6F64656D206232
S31500003A606C6F636B206572726F7220307800B814C9
S31500003A70B6F1E0CFF3ADB7DD25C9FA79B71300008B
S31500003A8000000000F07F10304003002034000140A9
S31500003A9000000000650800004108000021323BFEDE
S503038772
S70500000000FA
