S01800006E63702D756172742D73772D42696C6C792E73333772
S3150000400020440020D5EC020055B2000059B2000051
S31500004010A70A0A010041000004180FAC206900013C
S31500004020000000000000000000000000000000008A
S3150000403000000000243D0300000000000000000016
S315000040400000000000000000FFFFFFFFFFFFFFFF72
S31500004050FFFFFFFF007003000000000000000000EB
S31500004060FFFFFFFFFFFFFFFF100000000000000042
S31500004070000000000000000000000000000000003A
S315000040800000000000000000486300204863002094
S315000040902044002044640300303C0300C03A002062
S311000040A08E3A0020000004000000000022
S3150000410020440020D5EC020055B2000059B2000050
S31500004110CDBA00005DB2000065B20000D1EC02002D
S31500004120D1EC0200D1EC0200D1EC0200D1EC02008D
S3150000413069B20000D1EC0200D1EC0200D1EC020021
S31500004140595B000075C70200B9B50000EDBF02005B
S31500004150CDC7020081C7020099C7020079C70200D5
S315000041609D500000715100009D6E00005DCD000065
S31500004170ECB30000ECB30000F5420000ECB3000025
S31500004180ECB3000095510000ECB30000ECB3000066
S31500004190ECB30000ECB30000ECB30000ECB300009D
S315000041A0ECB30000ECB30000ECB30000D1C7020092
S315000041B07DC702002159000009C80200ECB30000C7
S30D000041C0BDB20200ECB30000E1
S315000041C8F8B500BFF8BC08BC9E467047F8B500BFF6
S315000041D8F8BC08BC9E46704710B5054C237833B921
S315000041E8044B13B10448AFF300800123237010BDBC
S315000041F8684A002000000000585E030008B5034B1B
S315000042081BB103490348AFF3008008BD0000000056
S315000042186C4A0020585E0300154B002B08BF134B51
S315000042289D46A3F5803A00218B460F461348144A4B
S31500004238121A2FF0D0FC0F4B002B00D098470E4BCC
S31500004248002B00D098470020002104000D000D48DF
S31500004258002802D00C48AFF300802FF065FC200040
S3150000426829002CF057F82FF04BFC00BF000008007F
S31500004278204400200000000000000000044A00203E
S3150000428848630020000000000000000070B5134CD1
S315000042988A00A31822449B781D09062D98BF104E44
S315000042A803F00F0394BF755DFF25062B05719ABFB2
S315000042B80C4DEB5CFF234371FF3B18BF0123837151
S315000042C8D37014F82130084C437053788370014634
S315000042D8204602F055FE0123A36070BDD756002084
S315000042E8373C0300303C0300002000407FB52249DC
S315000042F822480022FF23CDE901228DF809300378F0
S315000043084C6C8D6B03922C40E407DBB228D5022B4C
S3150000431826D88C6C1A4901EB8301A5B2CE781949C7
S3150000432806B326041ED521F813201749012202FADE
S3150000433803F30A781343154A0B701378CBB100239D
S315000043481478DC40E407D9B20FD50170107801243F
S3150000435804FA03F34340DBB201A81370FFF796FF94
S3150000436804B070BD21F81350DFE70133032BE7D102
S31500004378F6E703230370F3E700200040E356002026
S31500004388D7560020E2510020E5560020E4560020CA
S3150000439800207047002814BF022000207047012023
S315000043A8704701207047012814BF0220002070477B
S315000043B8012070472DE9F74FDFF87C8007460D4648
S315000043C81446994603F10C0A4FF0010B15B903B0D0
S315000043D8BDE8F08F102D2E46164A28BF1026F3B2D8
S315000043E8494651F8040B42F8040B5145F9D101939B
S315000043F89AF800101170104888F80F40002288F8C3
S315000044080E2088F800B0013419F0A0FB0B48019B78
S31500004418E4B23A4612F8011B10F801CF81EA0C0102
S3150000442802F8011CD11BC9B29942F3D3AD1BADB238
S315000044381746CBE73F5700203E5700203D57002040
S315000044482DE9F04F85B016460293BDF838900F9BBC
S31500004458354A01930D468046034600F10C0153F890
S31500004468040B42F8040B8B42F9D1304C1B781370BD
S315000044784923237020464FEA1923A37384F80F9023
S3150000448819F064FB237883EA1623237063784FF0C8
S31500004498020A734063705246A34600271FE0C2F122
S315000044A81001F31B89B29BB28B42A2EB050028BF11
S315000044B80B46039029460398A1EB050C1FFA8CFCC2
S315000044C808189C45C0B21AD31A44D2B21F44102AFF
S315000044D81D44BFB203D1204619F038FB0022B7426B
S315000044E8DDD312B1584619F031FBBAF1010F4FF07E
S315000044F80002029D4E460BD04FF0010ACDE711F897
S3150000450801CB1BF800E08CEA0E0C0BF800C0D2E7D2
S31500004518064B01991B6801980B604346042105B0B8
S31500004528BDE8F04FFFF746BF3F5700203E57002033
S31500004538F7B5099FBDF82040CDE9004706461D4658
S31500004548FFF77EFF2CB13346012221462846FFF7A6
S3150000455831FF002003B0F0BD2DE9F743BDF8287000
S315000045680F4C1E4605468846914603463946304650
S315000045780122FFF71FFF33464A4641462846CDE942
S315000045880074FFF75DFF042221460B982FF0F0FA1E
S31500004598002814BF7E20002003B0BDE8F08300BFCA
S315000045A8F456002073B51C46044D8B181E592E6010
S315000045B8CDE90045FFF7D0FF02B070BDDC570020FB
S315000045C8002070470120704701207047002070477F
S315000045D8012070470020704700207047012070476F
S315000045E8002070470120704770477047002814BFA5
S315000045F802200020704700207047000010B5104CBC
S315000046081049A161032321660F491022C4E9043326
S315000046180E4BE361C4E9191200230D49A362E01D9C
S315000046286362E3622367E366636722622FF0E5FA53
S31500004638084920462FF0E1FA2023A37110BD00BFD8
S31500004648005C00203E3C0300B4560020C4560020FF
S31500004658473C03004B3C03002DE9F84F1F4B164619
S315000046681A7881468A4698460AB9FFF7C7FF182777
S3150000467807FB09873D6FD7F86CB05D452BD9BC6E33
S31500004688796E641BB44228BF3446294450462246F4
S315000046982FF07DFABB6E2544A244361BAB4208BFF9
S315000046A80025ABEB050B5E4528BF5E4656B11823C1
S315000046B803FB09833246596E504629442FF067FAA0
S315000046C83444354424B1182303FB0988C8F87050CC
S315000046D82046BDE8F88F0024E3E700BF005C002011
S315000046E8F8B504460E46174603F0CDF83A46054691
S315000046F831462046FFF7B0FF0446284603F0C9F8BE
S315000047082046F8BD2DE9F843124D1E462B78814602
S31500004718884617460BB9FFF771FF03F0B4F86969C5
S3150000472800244FF0180C0CFB04535A6E2AB10134BE
S31500004738A142F8DC4FF0FF3407E0A142FADDC3E9F5
S3150000474818989F661A67DA665E6703F0A2F820462D
S31500004758BDE8F883005C0020FFF750BF012270B562
S315000047681146042002F00AFF1A4B1B4D1A681B4813
S3150000477842F001021A60DA684FF0604442F0807233
S31500004788DA60174BC4F8B03F00260223C4F8006E5F
S31500004798C4F8806EC5F8F03002F00AFE00F5D520A0
S315000047A8104B114A00F2FC40B0FBF3F00F4B0138F6
S315000047B82861C4F8406E1A600D4BC4F8803E4FF469
S315000047C88073C5F80433D4F8003E43F48073C4F804
S315000047D8003E70BDF0ED00E0000004E006000E00AB
S315000047E855CEACC5F8590D00FF030040001000E097
S315000047F80D00010010B50121114802F0A3FC114B70
S3150000480801241C60002003F06FFC234604220221C9
S31500004818052003F0BBFC204622F01AFEFFF79EFF98
S3150000482822F04CFE084B1C70FFF796FF23464022E9
S3150000483806490748FFF766FF064B1860C00F10BD0C
S3150000484800250A00108814421157002097570020A7
S31500004858523C030024480020024B1868003018BF59
S3150000486801207047F0ED00E0054A4170D12303703E
S315000048781378C370090A8170591C11700420704797
S31500004888E45700202DE9F74F0E78042E83460F468D
S3150000489861D92AF067FBDFF8C480751DEDB2824640
S315000048A84FF6FF710024C146D8F800305BB1A54227
S315000048B809D901912AF056FBA0EB0A0080B2B0F59F
S315000048C8FA7F019907D9281B18BF012004233B70DA
S315000048D803B0BDE8F08FB4B3012C37D0EA1E631CD1
S315000048E89442DBB21CD1CCB24FF06042D2F8800EB3
S315000048F8C00713D51046D9F80CC04CF0807CC9F80F
S315000049080CC0D0F800CE4CF4807CC0F800CED0F8AD
S3150000491820C0BCF1000FEED082F820401C46C3E749
S31500004928AA1E944202D1C1F30724DDE76A1E944207
S315000049380FD05C44019314F8024C204606F01CFC88
S31500004948019B0146D0E75B240123CDE734460223C9
S31500004958CAE75D24C8E70020B8E700BFF0ED00E02D
S3150000496800B5084B91B0402269461868FFF7B8FEB3
S3150000497820B1C2B26946122009F068F911B05DF893
S3150000498804FB00BF2448002070B5164685180AB9EE
S31500004998304470BD01F00F030A2B34BF302437248E
S315000049A82344013A090905F8013DD2B2EFE70000B0
S315000049B8F0B5F9B100281CDA2D23B0F1004F1370B9
S315000049C800D04042012115E0801B8642ECB205F179
S315000049D80105F9D904B927B14D1C303454540127BF
S315000049E8E9B20133092B09D1303050540131C8B22C
S315000049F8F0BD00210023DFF80CC01F465CF82360D9
S31500004A080025E2E7643C03002DE9F04F95B04FF02E
S31500004A18000B02AC81468A4617461D465E46A046EE
S31500004A283B7863B902ABE41AE4B22246194650460B
S31500004A38C847002840F093803444E0B290E0252B24
S31500004A4813D0BBF1000F14D12370013412AB9C4272
S31500004A586DD3A4EB0804E4B2224641465046C84743
S31500004A6800287CD12644F6B260E0BBF1000F00D1E5
S31500004A7801373B78632B00F092801BD8392B09D875
S31500004A88302B80F09E80002BCCD0252B51D04FF0B8
S31500004A98000BDBE7582B00F08B80622BF7D12B68D5
S31500004AA801936B6800934FF0000B009B9B4543D125
S31500004AB80835ECE7702B1ED017D8642B01D06C2B69
S31500004AC8E5D16C2B05F1040B28686CD17B78752B26
S31500004AD814BF0121002101D0642B00D101372246E1
S31500004AE8FFF766FF04445D46D1E7752BE9D0782BBE
S31500004AF85ED0732BCBD1A4EB0804E4B2224602A9FC
S31500004B08504605F1040B2D68C84740BB2644F6B24B
S31500004B18C4B201302B5D002BFAD1224629465046F5
S31500004B28C847E0B926445D46F6B28346444601378F
S31500004B3876E723700134AAE7019B204613F80B1089
S31500004B480222FFF721FF12AB984204460ED3A0EBD0
S31500004B580804E4B2224641465046C84718B1002028
S31500004B6815B0BDE8F08F2644F6B24446009B013BDB
S31500004B785B4582BF20232370013412AB9C420BD3C2
S31500004B88A4EB0804E4B2224641465046C84700282A
S31500004B98E5D12644F6B244460BF1010B85E72B68AE
S31500004BA823700435C6E7752B0CBF0021012196E753
S31500004BB8204602222978FFF7E7FE05F1040B044692
S31500004BC891E77A7802F0DF02582A19D1322B07F1D9
S31500004BD8010B09D129882F1D04222046FFF7D4FE90
S31500004BE83D4604465F4652E7342B09D12F1D2D68F2
S31500004BF80422290C2046FFF7C7FE0422A9B2EDE7D6
S31500004C084FF0010B22E700002DE9F04F9B46584B69
S31500004C1885B01B78109F9DF844A0DDF850800646A5
S31500004C2889461546002B00F09280072A00F29180EB
S31500004C380E9B002B00F08D800F9B002B00F08980C7
S31500004C48129BB3F5006F00F38480012801D1002F71
S31500004C587FD0484B03EB05131B7B002B7BD0464CC0
S31500004C681022002168462EF0B6FF04EB45141022E8
S31500004C78B9F1000F5CD1494620462EF0ACFFA37867
S31500004C8843F01003A370E37843F03003E370BAF1FE
S31500004C98000F03D1DBB243F00303E3703649129BDE
S31500004CA8CDF800B06A01013B885A01EB020C63F3A8
S31500004CB80E1088520E9BCCF808300F9BCCF80430A7
S31500004CC89DF84C109CF80330012E61F383038CF891
S31500004CD8033042D11323CCF80C309CE80F000CF1BA
S31500004CE8100E8EE80F00DCF81C20CCF814706FF05C
S31500004CF8030161F39F02B9F1010FCCF81C2004D11E
S31500004D080F9BCCF81830CCF804701A492A018B1876
S31500004D1841F802800027159A5A6028469F605E73FC
S31500004D282246694603F0BEFA384605B0BDE8F08F5C
S31500004D38002120462EF04FFF1023A3700323E370B3
S31500004D48BAF1000FAAD1DBB243F03003A5E70B484E
S31500004D58EBE70B48E9E70B48E7E7B8F1000FD4D1D2
S31500004D689CF8023068F304138CF80230CDE700BFD4
S31500004D785F570020C44B0020D84C0020028000F06A
S31500004D88018000F0078000F038B5104B1B78054607
S31500004D98BBB1C0B102F077FD0D49002301EB031248
S31500004DA8147B3CB92B6001231373146002F071FD68
S31500004DB8204638BD0133082BF0D102F06AFD0548BC
S31500004DC8F7E70548F5E70548F3E700BF5F57002012
S31500004DD8C44B0020048000F0028000F0018000F03F
S31500004DE838B502F050FD0B4A05460023D1180C7B56
S31500004DF85CB91033802BF9D103F00AFA064B284622
S31500004E081C7002F046FD204638BD284602F041FDDA
S31500004E180248F9E7C44B00205F570020058000F0E0
S31500004E280D4B1B7810B5044693B1072812D802F02B
S31500004E382AFD0A4B03EB04131A7B2AB100241C73C0
S31500004E4802F027FD204610BD02F023FD0448FAE7CC
S31500004E580448F8E70448F6E75F570020C44B0020EB
S31500004E68068000F0028000F0018000F013B5164BB2
S31500004E781868019000238DF8043002F004FD134BE6
S31500004E881C7824B102F005FD114802B010BD0122BC
S31500004E981A7002F0FEFC0F4B1C731C7783F82C402B
S31500004EA883F83C4083F84C4083F85C4083F86C40B8
S31500004EB883F87C4004230DEB03008DF8073003F0DC
S31500004EC8C7F92046E1E700BF883C03005F5700208A
S31500004ED8038000F0C44B002010B588B00E9C0794E0
S31500004EE80D9C06949DF8304005940B9C04949DF8FF
S31500004EF8284003940024CDE9013400920B4602466B
S31500004F0821462046FFF780FE08B010BD10B588B0D0
S31500004F180E9C07940D9C06949DF8304005940B9CB6
S31500004F2804949DF8284003940024CDE901340092A6
S31500004F380B46024601212046FFF766FE08B010BD63
S31500004F4808B50A4B1B785BB107280BD8084B03EB4F
S31500004F5800131B7B43B1002103F070F9002008BD44
S31500004F680448FCE70448FAE70448F8E75F570020D6
S31500004F78C44B0020028000F0018000F0078000F09A
S31500004F8808B50A4B1B785BB107280BD8084B03EB0F
S31500004F9800131B7B43B1012103F050F9002008BD23
S31500004FA80448FCE70448FAE70448F8E75F57002096
S31500004FB8C44B0020028000F0018000F0078000F05A
S31500004FC808B50A4B1B7853B107280AD8084B03EBD8
S31500004FD800131B7B3BB103F0B7F9002008BD054859
S31500004FE8FCE70548FAE70548F8E700BF5F570020E1
S31500004FF8C44B0020028000F0018000F0078000F01A
S315000050080D4B1B7893B1072812D889B10B4B03EBCC
S3150000501800131B7B73B10A4B1A6A012303FA00F0CB
S3150000502810401ABF00200B7008707047054870477B
S3150000503805487047054870475F570020C44B002055
S3150000504800200E40028000F0018000F0078000F08A
S315000050580B4B1B7810B50C4663B107280CD859B111
S31500005068084B03EB00131B7B43B103F083F9206065
S31500005078002010BD0448FCE70448FAE70448F8E7AE
S315000050885F570020C44B0020028000F0018000F02A
S31500005098078000F02DE9F843174E326EF36E12EAD8
S315000050A8030800D5FEE7154CDFF8549001270025C4
S315000050B818EA070F16D02368B7669BB1A16862681D
S315000050C80131A16028469847637B012B0AD148B96C
S315000050D809EB4513197B1A7F60F3410160F341021E
S315000050E819731A770135082D4FEA470704F110049A
S315000050F8DED1BDE8F88300BF00200E40C44B002077
S31500005108D84C002070B5094E0446012504B970BD77
S3150000511894FAA4F0B0FA80F005FA00F324EA03043E
S3150000512856F82030002BF1D09847EFE75C4E002068
S31500005138054B4FF40032C3F880211A604FF4007211
S31500005148C3F880211A60704700E100E038B50446CC
S315000051580D4602F098FB034B43F82450BDE838404F
S3150000516802F097BB5C4E0020074BD3F82804D3F80F
S315000051781C24104020F42A5020F02A004004400C39
S31500005188C3F82404FFF7BEBF00A00040074BD3F8BE
S315000051982804D3F81C24104020F4AA4020F0550017
S315000051A80004000CC3F82404FFF7ACBF00A00040BD
S315000051B8104A4161136830B51546ABB91060836073
S315000051C811E0091B9C6841611A467CB123465C695B
S315000051D88C42F6D9002CF4D052B19060836013B19A
S315000051E85A69511A596130BD0022F0E72346F4E79F
S315000051F82860F3E76451002010B500F029FB094B3D
S31500005208094A196831B11368C41A4B69A34203D312
S315000052181B1B4B61106003E0C01A002310604B6132
S3150000522810BD00BF64510020CC4E002038B50F4D8C
S315000052382B685C690E4B1B6802201C4400F036FB89
S31500005248204600F00BFB0B492A6800230B70D08818
S31500005258800702D501230B7038BD9268002AFBD05F
S3150000526850690344012BF2D9F6E700BF64510020C8
S31500005278CC4E00208257002070B59DF81450057159
S31500005288002516468560049ABDF81850C580044660
S315000052980260C0E903360D4629B961610BB11146B2
S315000052A8984796B1354602F0EEFA0646FFF7A4FF90
S315000052B829462046FFF77CFF054B1B68A34201D110
S315000052C8FFF7B4FF304602F0E4FA002070BD00BFD5
S315000052D8645100200C4A136800217BB183420AD12D
S315000052E8836879B18B6083681BB15A6941690A443E
S315000052F85A610020704719469B68EEE70028EFD0F0
S31500005308022070471360EEE76451002070B5154E11
S3150000531802F0B9FA34780546FCB9134B1C60134BF6
S315000053281C60134B1C8000F051FA012000F0BEFAF5
S3150000533800F00AFB0F4B0246186020B9284602F017
S31500005348A8FA232070BD23460B4840F2E7312EF019
S3150000535857FA0A4B186001233370284602F099FA67
S315000053680020EFE76457002064510020CC4E00204F
S31500005378505400206051002018FCFFFFD44E002036
S315000053882DE9F0410546F8B102F07DFA0F4F0646C1
S31500005398FFF732FF2846D7F80080FFF79BFF044641
S315000053A828B1304602F075FA2046BDE8F081A845D6
S315000053B83B6803D123B1FFF739FFF2E7002BF0D1A1
S315000053C8022000F081FAECE72224EDE76451002080
S315000053D8F0B50D4685B016461F46044680B1FFF760
S315000053E8CFFFBDF82C3002939DF828300022CDE976
S315000053F80073294633462046FFF73EFF05B0F0BD49
S315000054082220FBE738B50C46054698B191B1002332
S315000054180B7002F038FA084B1B6801210BB1227891
S315000054281AB102F036FA002038BD9D420CBF217031
S315000054389B68F3E72220F7E764510020F0B587B0B0
S315000054481F4600230D4616468DF817300446A0B1B0
S315000054580DF11701FFF7D6FF9DF817207AB9BDF8A9
S31500005468343002939DF830302946CDE90073204642
S315000054783346FFF701FF07B0F0BD2220FBE7032004
S31500005488F9E70000F8B50C460646C8B1C1B102F006
S31500005498FAF90546FFF7B0FE73692360134B1B68DC
S315000054A8B3420FD023B9284602F0F3F903201CE0D3
S315000054B8596922689B680A442260F1E700230FE0D5
S315000054C8222012E00A4E276800F0C2F93368C01A93
S315000054D88742F3D900F0BCF93368C01A23681B1A4F
S315000054E82846236002F0D5F90020F8BD6451002053
S315000054F8CC4E0020F8B507460E4602F0C4F9124B0A
S315000055081B680546002423B9284602F0C2F91B2069
S3150000551815E05A691444DA88BA4213D10B4F00F0E1
S3150000552897F93B68C01AA0420AD200F091F93B6885
S31500005538C01A201A3060284602F0ABF90020F8BDE0
S315000055480020F7E79B68DEE764510020CC4E002078
S31500005558014B1878704700BF8257002038B502F013
S3150000556892F9054600F074F90446284602F091F9C6
S31500005578204638BD70B502F086F9064600F068F98F
S31500005588094B1C8805460120A4B200F0B5F918B1EC
S3150000559800F05EF901340546304602F07AF9002239
S315000055A842EA0500214670BD50540020014B186898
S315000055B8704700BF605100200A4B1B68834210B534
S315000055C80C460CD3084B19684FF47A720023A0FBDB
S315000055D801012EF015F901302060002010BD2120B0
S315000055E8FCE700BFD44E002060510020104B1A681B
S315000055F84FF47A7310B5A0FB0301A2B1531E1342F0
S3150000560811D1B2FA82F2C2F11F02C2F12004A2F14C
S31500005618200301FA04F420FA02F2224321FA03F3E2
S3150000562842EA030010BD00232EF0EAF8FAE700BFAD
S315000056386051002000000000F8B516461BA3D3E908
S3150000564800238B4208BF82422AD3174B1A684FF4AD
S315000056587A73A0FB034503FB0155C2B1531E13EA37
S31500005668020014D1B2FA82F2C2F11F02C2F1200777
S31500005678A2F1200124FA02F305FA07F73B4325FABB
S3150000568801F10B4325FA02F2C6E90032F8BD002300
S31500005698204629462EF0B4F8C6E900010020F5E7B1
S315000056A82120F3E7AFF3008060510020EFA7C64B37
S315000056B837894100C2072DE9F84F04460BD53F4A02
S315000056C8138801339BB21380FFF796FD3C4B1B688A
S315000056D80BB1FFF7ABFDA3076DD53A4F00F0B8F84D
S315000056E83D688046451B02F0CEF8002683463246C2
S315000056F8B246334B1C6814B16369AB4214D9012E08
S31500005708314B51D1D288022A4ED11E70002C4ED070
S315000057186369C7F800805D1B6561FFF787FD58461A
S31500005728BDE8F84F02F0B5B8C7F8008023462A4608
S315000057385969914209D8187994F804C0844588BFF4
S315000057481C469B68521A002BF2D1584602F0A1F863
S31500005758D4F814B0C4F814A002F095F8814620468F
S31500005768FFF7B8FD484602F094F823694BB102F0FA
S315000057788AF8216981462046FFF71AFD484602F055
S3150000578888F8E36813B121682046984700F060F866
S31500005798D844A5EB08058146054402F074F801369D
S315000057A883462246C846A4E700221A70AEE70220BE
S315000057B800F08AF8B3E7BDE8F88F00BF5054002020
S315000057C864510020CC4E0020ED57002010B51C4B2C
S315000057D886B05968186803AA03C2197A53F8090FDC
S315000057E8117001909A8817489B79ADF80820012115
S315000057F88DF80A30002401F0A5FC03A88DF80C40AA
S315000058088DF8104002F084FF01A901208DF80440AC
S3150000581802F05EFF0C4A536A23F4FF6323F0070382
S31500005828536240F2FF7313620120946002F06AFF2C
S31500005838064B4FF00052C3F880211A6006B010BD1F
S315000058488C3C0300A00914000020044000E100E09D
S31500005858014B9868704700BF00200440114A9368BE
S31500005868516D9269520704D4CA1A022A01D899427C
S315000058780DD1C21A012A98BF981C0A4BB0F1FF3FF6
S3150000588828BF013058655A6A42F004025A62064A2D
S31500005898137833B103490B6D43F002030B650023FC
S315000058A81370704700200440A94900208207054A62
S315000058B800F00103516A48BF43F004030B435362E7
S315000058C8704700BF00200440830700F0010209D595
S315000058D8074B0121197007490B6D23F0030342F0AA
S315000058E804020B6503494B6A23EA02034B627047BD
S315000058F8A949002000200440064B01289B6904D0D2
S31500005908022805D1C3F38000704703F001007047F1
S31500005918002070470020044010B501F0B4FF094A82
S3150000592893690446590703F0010003F0070348BFCB
S3150000593840F002001362FFF7BDFE2046BDE81040A6
S3150000594801F0A7BF00200440014801F031BD00BFA7
S31500005958A0091400044B1B6800EB8000A3EBE000D1
S3150000596880F30800704700BFBC4B0020174B402847
S3150000597870B59C6824DD5028B4BF0123022314495E
S31500005988144A154DDE00314403C982E80300134A60
S31500005998324492E80300012C85E8030003D10B4A40
S315000059A84AF6E8519160012B0CD0022B0CD000204E
S315000059B802F058FB012C02D1044B00229A6070BDFC
S315000059C80023DCE70120F3E70220F1E700300E4070
S315000059D8184E0020FC5000202C510020304E00208C
S315000059E8FFF7C4BF044B4FF04042DA621A6B22F04D
S315000059F840421A63704700BF00300E402C48F0B58D
S31500005A08002203682B4D114654592CB11E68AC1858
S31500005A18002E36D1234601210832302AF4D101B1AD
S31500005A2803602549254E0B680022144695592DB169
S31500005A381F68B518002F2BD12B4601240832302AAF
S31500005A48F4D104B10B6000681D4B026842B3DA69F1
S31500005A58007922F0FF020243DA611A6B42F08042B3
S31500005A6809681A630A68164BF2B1DA69097922F4E9
S31500005A787F4242EA0122DA611A6B42F000421A6357
S31500005A88F0BD1E792779B74284BF23460121C3E7B3
S31500005A981F7995F804C0BC453CBF2B460124CDE7C9
S31500005AA81A6B22F08042DBE71A6B22F00042E6E727
S31500005AB8A84E0020FC500020D04E00202C5100207B
S31500005AC800300E4008490B6A0A6ADBB2D2B293422A
S31500005AD8F9D1064A0520DB00B3FBF0F31068C31AB8
S31500005AE803F3070040B2704700300E40C04B002059
S31500005AF870B5144C226B616A0A4011D5124B1B68AB
S31500005B081E6836B100251D605D60FFF7DBFF29467C
S31500005B18B0474FF00043E362BDE87040FFF76EBF41
S31500005B285300F9D5094B1B681C6834B100221A606A
S31500005B385A60FFF7C7FF0121A047024B4FF080428A
S31500005B48DA62E9E700300E40D04E0020A84E002069
S31500005B58FFF7CEBF2D4B37B501221A700021302230
S31500005B682B482EF038F8302200212A482EF033F838
S31500005B78294A2A4B13602A492A4A13600A684B6D38
S31500005B88C2F30742FF2A02D0DBB2FF2B01D19023D2
S31500005B98192202EB8201244803EBD1010160DB00E4
S31500005BA80521B3FBF1F31344204A01A8136002F060
S31500005BB8E3FD9DF80530012B1BD14120FFF7CAFEF6
S31500005BC81B4C1C49207139202160FFF7C3FE05468E
S31500005BD85020FFF7BFFE184A2073157391604820BE
S31500005BE8A160FFF7B7FE10751161FFF76BFFFFF7AE
S31500005BF8BDFEFFF7F7FE114B0122C3F880211A609C
S31500005C08FFF7FCFE002003B030BD00BFB3560020EE
S31500005C18FC5000202C510020A84E0020004F0020E8
S31500005C28B081E00FD04E0020BC4B0020C04B0020B6
S31500005C38184E0020E9590000304E002000E100E02F
S31500005C4838B141B1013AB2F5006F044838BF0020B7
S31500005C587047034870470148704700BF037000F05B
S31500005C68027000F038B504460D4601F00CFEA28815
S31500005C7892B222B92A6001F00CFE064838BD638844
S31500005C88142202FB034308332B6001F002FE0020B6
S31500005C98F4E700BF0B7000F038B504460D4601F076
S31500005CA8F2FDA3889BB223B92B6001F0F2FD0C48E4
S31500005CB838BD6388E188142202FB034308332B604E
S31500005CC863885A1C92FBF1F301FB13239BB2638092
S31500005CD8A388013B9BB2A38001F0DBFD0020E7E728
S31500005CE80B7000F0F8B5044617460D4601F0CBFDDB
S31500005CF8A388E2889A42064605D800233B6001F04D
S31500005D08C8FD1648F8BD2388142202FB034308334E
S31500005D1805F1100C2A4603CA6245186059601546F3
S31500005D2803F10803F6D1106818602388E188142265
S31500005D3802FB034308333B6023885A1C92FBF1F3AA
S31500005D4801FB13239BB22380A38801339BB2304601
S31500005D58A38001F09EFD0020D4E700BF0A7000F082
S31500005D68034610B593F832300068012B0AD102F0C9
S31500005D7837FB0446FFF71AFC24235843B0FBF4F01C
S31500005D88013010BD02F0FCFDF3E70000427E30232F
S31500005D985343044A1A44437F03EBC2039B00186823
S31500005DA8C0B270471CA0104213B51D4A002352F812
S31500005DB82340617F81420ED00133042BF7D102B014
S31500005DC810BD0028FBD19DF80730002BF7D060687E
S31500005DD8FFF7B6F8F3E794F83130022BEFD12046F7
S31500005DE8FFF7D4FF637D2075022BE8D194F82E3097
S31500005DF803F0FF02002BE2D102A9606801F8012D29
S31500005E08FFF7FEF8237D1BB194F82F30002BD8D06E
S31500005E18002384F82F306068FFF7B2F8CFE700BF99
S31500005E287051002090F8323053B903680422DA60C2
S31500005E381A699007FCD55A6F42F002025A677047F2
S31500005E48012B0CD103685A6C9107FCD404225A60C2
S31500005E589A689207FCD55A6D42F002025A65704755
S31500005E6890F8323053B903680122DA601A69D0070C
S31500005E78FCD55A6F42F001025A677047012B0CD1C4
S31500005E8803685A6C9107FCD401225A609A68D207B3
S31500005E98FCD55A6D42F001025A65704790F83230C7
S31500005EA83BB903685A6F22F001025A670222DA6088
S31500005EB87047012B09D103685A6C9207FCD45A6DB6
S31500005EC822F001025A6502225A6070470F49104BA8
S31500005ED80A782AB9C3E90022C3E9022201220A7014
S31500005EE8002253F82210814208D00132042AF8D140
S31500005EF8002153F821201AB943F8210000207047E1
S31500005F0801310429F5D10348704700BFE65800203F
S31500005F1870510020027000F010B50446FEF7A6FF87
S31500005F280021201DFEF730FF014608B1044810BDC8
S31500005F3804F10800FEF728FF0028F8D0F6E700BFAE
S31500005F480E7000F038B5044601F09DFC616B01390E
S31500005F580546616319B9044A012005F057FE28462B
S31500005F68BDE8384001F095BCC83C030037B591F848
S31500005F7832200B68012A0BBF9C681C69C4F3C00455
S31500005F88C4F340140D46084634B1FFF7DBFF02237D
S31500005F9885F8383003B030BDFFF7E2FECDE900449E
S31500005FA801462B46024A0348FFF748FAF2E700BFC4
S31500005FB8755F0000A85C002038B5044601F063FC54
S31500005FC8636B054623B90121054A084605F01EFEFE
S31500005FD8636B013363632846BDE8384001F059BC5A
S31500005FE8C83C03007FB5012380F82C3090F8323086
S31500005FF893B90C4A036803920022049002924A68F5
S315000060080192012200920A68016980681C33FEF732
S315000060187DFF07B05DF804FB012BEAD0002380F86A
S315000060282C30F6E781670000F0B5012380F82D30A3
S3150000603890F8323089B004460F465BBB05683435A4
S3150000604801F021FC0DF11F0106461948FFF7DAF9A0
S3150000605840B99DF81F302BB11548FFF791F9204636
S31500006068FFF770FF3046012601F013FC204684F83E
S315000060783860FFF7A1FF0F4B0393002304940293A4
S315000060887B68E1686068CDE900632A463B68FEF7ED
S3150000609823FF0BE0012B06D105682B6843F4005358
S315000060A845F8283BCCE7002380F82D3009B0F0BD31
S315000060B8A85C0020C1600000F0B585B003A9906A0D
S315000060C81446FFF7CFFD06462046FFF749FE002592
S315000060D823460146CDE900551A4A1B48FFF7AEF993
S315000060E81A4B9E421FD0039B1D619D6001F0CBFB9E
S315000060F8039AD768064627B1D2E9002329462046DF
S31500006108B84703A9A06AFFF7C7FDA06A83889BB2B0
S3150000611863B103A9FFF7A6FD03992046FFF784FF9D
S31500006128304601F0B6FB012005B0F0BD84F82D30ED
S3150000613894F83230012B01BF2268136823F4005308
S315000061481360EDE7755F0000A85C00200B7000F097
S3150000615873B504460D46C07DE67E002934D001237A
S315000061680422314602F012F801230222217F207E02
S3150000617802F00CF894F83130022B16D100230122D4
S31500006188617F607E02F002F800230422A07EA17FD0
S3150000619801F0FCFF0123627F607E019300931146A4
S315000061A801F0AEFF002002B070BD032BFAD1002328
S315000061B80122617F607E01F0E9FF00230422A17FAE
S315000061C8A07E01F0E3FFEDE70B460A46314601F0F3
S315000061D8DDFF2B462A46217F207E01F0D7FF94F863
S315000061E83130022B10D12B462A46617F607E01F0A2
S315000061F8CDFF2B462A46A07EA17F01F0C7FF627F0E
S31500006208607E01950123C9E7032BCBD12B462A468D
S31500006218617F607E01F0BAFF2B462A46CFE790F8E9
S31500006228323013B9036818697047012B1CD103680B
S315000062389B6803F00200DA0748BF40F001005907DF
S3150000624848BF40F008001A0748BF40F02000D906AA
S3150000625848BF40F040009A0648BF40F080005B0601
S3150000626803D540F400507047002070472DE9F341EC
S315000062780D460446002879D001F005FB012D064697
S315000062883BD1A36A9B889BB2002B3DD06068FEF782
S3150000629897FE0023A06A84F82D3083889BB273B1D9
S315000062A801A9FFF7DFFC01996068364F0831FEF750
S315000062B8CFFE019B1F61A06A83889BB253BB204611
S315000062C8FFF7ADFF8304FAD5023D012D10D8A0686B
S315000062D8FEF776FE0023606A84F82C3083889BB22A
S315000062E83BBB94F83130032B02D02046FFF7D6FD8E
S315000062F8304601F0CEFA002009E0022D38D1636A53
S315000063089B889BB2002BDFD101F0C3FA1E4802B06E
S31500006318BDE8F08101A9FFF7BFFC019BD3F80C800B
S31500006328B8F1000FC7D09B68002239462046C047FF
S31500006338C1E76946FFF796FC0099A068114F083136
S31500006348FEF786FE009B1F61606A83889BB2002B5E
S31500006358C7D06946FFF7A0FC009BDD68002DF3D087
S315000063689B68002239462046A847EDE70748CEE74E
S31500006378032DA9D1A36A9B889BB2002B86D1636A99
S3150000638880E700BF097000F0087000F0027000F0A6
S31500006398436A9888C0B270472DE9F3410546406ABA
S315000063A884889846A4B200230E461746CDE90033E2
S315000063B83CB16946FFF756FC01A90446A868FEF7F2
S315000063C847FE009971B16CB94868019BC01A3860DC
S315000063D8C8F800300B6833602846FFF720FF02B084
S315000063E8BDE8F0810021C8F8001039603160F3E794
S315000063F8836A9888C0B270472DE9F3410546806ADA
S3150000640884889846A4B200230E461746CDE9003381
S315000064183CB16946FFF726FC01A904466868FEF701
S3150000642817FE009971B16CB94868019BC01A3860AB
S31500006438C8F800300B6833602846FFF7F0FE02B054
S31500006448BDE8F0810021C8F8001039603160F3E733
S31500006458007D70472DE9F04104460E461746FFF7C2
S31500006468EFFB804670BB082001F032FA0546A26AA7
S3150000647893889BB213B194F82E3033B394F8323024
S3150000648843BB23681D6905F002051DB92046FFF7C1
S31500006498C9FC0025012384F8303094F832301BBB40
S315000064A83744BE4220681AD103699E06FCD54DB909
S315000064B894F832303BBB23685A6F22F002025A67BF
S315000064C80822DA604046BDE8F081002DD0D0FEF7FC
S315000064D8E1FDCCE7012BD9D123689D68D3E716F8EF
S315000064E8011B02F0C7FADCE7012BEBD13744B742B0
S315000064F8206803D183681907FCD5D8E716F8011B6D
S3150000650801F0A2FFF3E7012BDCD123685A6C92074E
S31500006518FCD45A6D22F002025A6508225A60D1E765
S3150000652810B50446B0B190F82E3033B990F8313032
S31500006538022B0AD06068FEF703FD94F82E3001336B
S31500006548DBB284F82E30002010BDFFF71FFC0028B0
S31500006558F3D1EFE70048F7E7027000F010B50446FC
S31500006568D0B190F82E30CBB190F82E30012B06D151
S3150000657890F83130022B0AD06068FEF701FD94F8D6
S315000065882E30013BDBB284F82E30002010BDFFF719
S31500006598FDFB0028F3D1EFE70148F7E70148F5E7E7
S315000065A8027000F0057000F037B590F83150022DF2
S315000065B8044618D1A37F407D01229A40A37E30214C
S315000065C85943134B0B4410B903F1806303E00128C8
S315000065D805D103F1C0631A60002003B030BD217DE8
S315000065E80029F6D1F0E7012DF6D1037D73B9112301
S315000065F88DF80730FFF794FF2A460DF1070120466C
S31500006608FFF728FF2046FFF7A9FFE5E71323EFE783
S315000066180CA0004090F83130032B05D002294175B3
S3150000662818BF0175FFF7C0BF00487047057000F036
S3150000663837B50446002868D0354B1B7843B1354A30
S31500006648002352F823108C424FD1002142F8231020
S3150000665803212046FFF70AFE00212046FFF7DAFF4E
S3150000666800212046FFF774FD94F83230002B40D104
S3150000667823680A22DA600021206A00F063FD94F894
S315000066883130022B03D10021607FFEF75FFD606881
S31500006698FEF7C6FBA068FEF7C3FBFEF7A1FB626A1E
S315000066A80023138053809380A26A138053809380BB
S315000066B801F0E9F80DF1070105461748FEF7A2FEB5
S315000066C828B99DF8073013B11348FEF759FE284636
S315000066D801F0DFF8636B002B04DD012363632046BA
S315000066E8FFF730FC002003B030BD0133042BA8D1DE
S315000066F8AEE7012BBFD1206801F092FE23685A6CE1
S315000067089207FCD40A225A60B5E70448EBE700BFB3
S31500006718E658002070510020A85C0020027000F0A6
S31500006728F0B587B004461646FFF78AFA0546F0B96B
S31500006738CDE9011604936A460E4B606A039601A9D1
S315000067480593FFF7CFFA054688B994F82C3073B944
S315000067582046FFF785FB00992046FFF743FC94F88F
S315000067683130032B03D025752046FFF71DFF284639
S3150000677807B0F0BD017000F073B5506A01A9144660
S31500006788FFF770FA334B98422FD094F83200019BEA
S31500006798002836D12268116C11F4007128D02E49D0
S315000067A8196198604FF40073936401F06CF80199CD
S315000067B8CD68064635B14A688B682046D31A0A68FA
S315000067C80969A84701A9606AFFF766FA606A8588B9
S315000067D8ADB2002D2FD001A9FFF744FA0199204642
S315000067E8FFF700FC304601F054F8012002B070BDF6
S315000067F8106CC5051BD51948186199604FF480734C
S31500006808D2E7012813D12268D16A11F0800106D097
S31500006818114919610021996080235363C5E7D06A3D
S31500006828400604D50D48186199604023F5E7002213
S315000068381A619A60B9E7012323752046FFF7B4FE6B
S3150000684894F8313084F82C50032BCBD02046FFF730
S3150000685825FBC7E70B7000F00D7000F00C7000F018
S315000068682DE9F041094F04460D460FCF88B001AE19
S315000068780FC697E8070086E80700002C00F0388264
S3150000688845B9034E304608B0BDE8F081AC3C03007C
S31500006898037000F03C22002120462DF09CF920468A
S315000068A8FFF714FB06460028ECD12B7C84F8313020
S315000068B801222B6884F83820C64A2360934284F85C
S315000068C8320040F07B81C44B2362C44BE3604FF433
S315000068D840232361D5E90623002662621680568086
S315000068E8968084F82C60A3621E805E809E806B680A
S315000068F803936B89ADF81430AB89ADF81230AB7BD6
S315000069088DF810300121EB7BB54884F82D6084F8AA
S315000069182F6005278DF816308DF8117000F012FCDF
S315000069280121B04800F00EFC0121206A00F00AFCA3
S3150000693801A928688DF8046002F05EF828686A7A6A
S31500006948816F2B7ADFF88CC221F4F85121F01F01F0
S31500006958114341EA032181670321416720686045A5
S3150000696840F04881BB4216D9981F042840F25E8140
S31500006978A3F10B00B84240F25B81A3F1110006288F
S3150000698840F25881A3F11801062940F255811F2BC0
S3150000699814BFFF263E46042AE67540F24F81511F72
S315000069A8042940F24D81A2F10A01052940F24A81E3
S315000069B8A2F11001062940F24781A2F11701072921
S315000069C840F244811F2A14BFFF2100212176002BA3
S315000069D858D0012B56D0022B54D0032B52D0042B5F
S315000069E850D0052B4ED0062B00F03A81072B00F02D
S315000069F83981082B00F03881092B00F037810A2BE2
S31500006A0800F036810B2B00F041810C2B00F0208121
S31500006A180D2B00F01F810E2B00F01E810F2B00F0AE
S31500006A281D81102B00F01C81112B00F01581122BF3
S31500006A3800F01481132B00F01381142B00F012813F
S31500006A48152B00F01181162B00F01081172B00F082
S31500006A580F81182B00F00E81192B00F00D811A2BCF
S31500006A6800F00C811B2B00F00B811C2B00F00A8117
S31500006A781D2B00F009811E2B00F008811F2B0CBF6F
S31500006A880723FF23E376002A00F01481012A00F089
S31500006A981381022A00F01281032A00F01181042AC8
S31500006AA800F01081052A00F0F980062A00F0F88027
S31500006AB8072A00F0F780082A00F0F680092A00F075
S31500006AC8F5800A2A00F000810B2A00F0FF800C2AC4
S31500006AD800F0DE800D2A00F0DD800E2A00F0DC8052
S31500006AE80F2A00F0DB80102A00F0D480112A00F06B
S31500006AF8D380122A00F0D280132A00F0D180142AFB
S31500006B0800F0D080152A00F0CF80162A00F0CE803B
S31500006B18172A00F0CD80182A00F0CC80192A00F038
S31500006B28CB801A2A00F0CA801B2A00F0C9801C2ACA
S31500006B3800F0C8801D2A00F0C7801E2A00F0C68013
S31500006B481F2A14BFFF23002323776B7C6376AB7C55
S31500006B586377EB7CA3762B7DA37701212046FFF78D
S31500006B68F7FA064600287FF48DAE00F08CFE2F7CDF
S31500006B78032F804640F0AC802B682A8CDA675A6E61
S31500006B8842F004025A665A6F42F030025A67286881
S31500006B984FF0FF3383642B7C032B0CBF05210421A4
S31500006BA801F000FF2B684FF44062DA602046FFF7D9
S31500006BB8B3F90646404600F06CFE63E60A4A93427D
S31500006BC87FF45FAE094B2362094BE3604FF4502311
S31500006BD87FE600BF000001400022040001000C000F
S31500006BE84041050000250A00000401400032040067
S31500006BF801000D00DFF804C160457FF442AE052BA5
S31500006C087FF6C9AE981F042810D9A3F10B000528F2
S31500006C180ED9A3F1110006280CD9A3F118010629EB
S31500006C280AD91F2B14BFFF260526B4E60126B2E6AD
S31500006C380226B0E60E46AEE63E46ACE60021C5E6BE
S31500006C480121C3E60221C1E60321BFE60521BDE60F
S31500006C58072317E7082315E7092313E70A2311E78C
S31500006C680B230FE70C230DE70D230BE70E2309E78C
S31500006C780F2307E7002305E7012303E7022301E7BC
S31500006C880323FFE60423FDE60523FBE60623F9E6D0
S31500006C98082359E7092357E70A2355E70B2353E740
S31500006CA80C2351E70D234FE70E234DE70F234BE740
S31500006CB8002349E7012347E7022345E7032343E780
S31500006CC8042341E705233FE706233DE707233BE780
S31500006CD8022F7FF45CAF607F0649FEF737FAFEF7AE
S31500006CE827FAA675267567752046FFF75DFC4EE7F9
S31500006CF8014EC7E5B15D0000027000F000040140D6
S31500006D0890F83120012A10B5034610D102290ED079
S31500006D18827D8A4201D1002010BD997511B9FFF70D
S31500006D281DFCF8E70129F6D1FFF7FAFBF3E701485E
S31500006D38F2E700BF057000F0F0B587B004461646C6
S31500006D48FEF77EFF054658BB0493194B059394F846
S31500006D5832300396CDE901162BBB23681B6903F075
S31500006D68020313B92046FFF75DF86A4601A9A06A2F
S31500006D78FEF7B8FF054698B994F82D3083B900F0A8
S31500006D8882FDA36A9B889BB2064633B100992046CA
S31500006D98FFF74AF9012384F83030304600F079FDD0
S31500006DA8284607B0F0BD012BDCD123689B68D6E7DF
S31500006DB8017000F070B588B00D220021294C2A4ECA
S31500006DC804A82CF008FF00250223012127488DF886
S31500006DD81010CDE9015503958DF80A3000F0B2F987
S31500006DE8294601AA204601F034FD4FF6FF73E361F8
S31500006DF88DF81250354604A9204601F0D7FC1C48E8
S31500006E0800F0D6FA9DF81230D8400133DBB20A2BCF
S31500006E1830608DF8123002D8164B9842EBD81648D7
S31500006E28164C00F0C5FA1649B1FBF0F12868154A68
S31500006E380025E1FB00450023204629462CF0E0FC0E
S31500006E48114B084A1860114B00201870936923F0FB
S31500006E58100393610E4B4FF48062C3F880211A60C9
S31500006E6808B070BD00800140584E002000020400A2
S31500006E784041050080841E007000020020A1070022
S31500006E8800B0710B40420F00D84E0020DC5800209D
S31500006E9800E100E0044BDA68D20604D510225A61F4
S31500006EA8024B01221A70704700800140DC5800200E
S31500006EB82D4B002A70B52D4D446B08BF1D462C4B33
S31500006EC814BF1026002698423AD102293FD004D88A
S31500006ED8B9B1012921D000232DE0062931D0812915
S31500006EE835D00329F7D1234B1A6819681B68120C89
S31500006EF81B0C03F0F00302F4FE421A43C1F30343EA
S31500006F0818E01D490B680A6803F4FE4302F00F02F5
S31500006F181A430B6803F0F0030CE0174A136811686C
S31500006F2812681B0C120C02F0F00203F4FE43134322
S31500006F38C1F303421343B3402C400D4A2343536322
S31500006F4870BD0E4B1A681B6802F00F02E2E7094A89
S31500006F5813681168126803F4FE4301F00F010B432E
S31500006F6802F0F002E6E700BF0080FFFFFFFF0080A7
S31500006F78002000401482E00F1082E00F1882E00F14
S31500006F8838B50C4602238360002289780546FFF748
S31500006F988FFF227960786179130243EA006343EA36
S31500006FA80143E17843EAC103E17909B143F00053AB
S31500006FB8217A09B143F00403A17909B143F0020328
S31500006FC8617A09B143F00103F32AA17806D129B9F8
S31500006FD803289CBF23F0706343F0806348B20028FF
S31500006FE8ACBF43EA411343F0E0032B616B69002809
S31500006FF823F4F21323F00703BCBF21F080010B43EF
S31500007008217843EA4143E17A09B143F480436B614D
S315000070186B0103F18443A17A99606B0103F1844300
S3150000702803F5C863F32A0CBF012200221A60EB6F2E
S31500007038D5F88030EB6838BD0C4B984210D90C4B0C
S31500007048984210D9022201230A490B600A49D1F84D
S31500007058003123F0807343EA0263C1F800317047B8
S3150000706800221346F0E70122FBE700BF0048E801CB
S315000070780090D0034000C84300400E400A490B4B1D
S3150000708888425A680BD90A4988420AD902F04071DF
S315000070985A6822F0407242EA01625A60704700213B
S315000070A8F6E70121F4E700BF40787D0100000E40B5
S315000070B8005A620238B5064C41F67133256C2364D2
S315000070C801F04EFDFFF7DAFF0DB10023236438BD4A
S315000070D800000E40044BD3F84421D20703D4D3F85A
S315000070E840211042FBD1704700400E400C4AD2F8AE
S315000070F89030516A0B4B21F0300141F0100110B568
S315000071085162146BC0F3C31103310F2903EA040358
S3150000711828BF0F21034343EA0173136310BD00BF61
S3150000712800400E4000F8FF0F38B5054C41F67133A4
S31500007138256C2364FFF7A2FF0DB10023236438BD35
S3150000714800000E40C0F30322013A38B50546092A65
S3150000715813D8DFE802F023131212051619121C20A1
S31500007168104C0020C5F3043508B1FFF7B3FF04F14E
S31500007178047405EBC404A400216038BD00200A4C41
S31500007188F0E70120094CEDE71020094CEAE74FF437
S315000071988030084CE6E70020074CE3E70020074C60
S315000071A8E0E700BFB0400E40C0400E40E0400E4051
S315000071B8E8400E40F0400E4050410E4000400E4060
S315000071C8C0F30313013B092B3FD8DFE803F0050B97
S315000071D80F193E3E1F232C351D4BD3F80001C0F373
S315000071E8042070471A4BD3F81401F8E7184BD3F864
S315000071F80001C0F30060431C012098400138704725
S31500007208134BD3F80C01C0F308207047104BD3F882
S315000072180801F8E70F4B984217D10D4BD3F82031E8
S3150000722803F00F03E8E70C4B98420ED1084BD3F84E
S31500007238283103F00303DFE7084B984205D1044BD6
S31500007248D3F8300100F00F0070470020704700BFE8
S3150000725800400E408006160090071A00A009140088
S3150000726808B5FFF7ADFF013008BD000000F00F00BC
S315000072780138072848D8DFE800F0040F1947232DFE
S315000072884735244BD3F8943003F00703023B022B0F
S315000072983CD8214AD05C70471E4BD3F8803003F0A7
S315000072A80703013B032B33D81C4AF3E7194BD3F8E2
S315000072B8843003F00703013B032B29D8184AE9E772
S315000072C8144BD3F8883003F00703013B032B1FD870
S315000072D8144ADFE70F4B1B6F13F0010F14BF092089
S315000072E8072070470B4BD3F85C3103F03003202B93
S315000072F806D0302B06D0102B0CBF07200120704774
S315000073080420704708207047002070470520704702
S315000073180120704700400E40D03C0300D33C0300D8
S31500007328D73C0300D33C030008B50146FFF79EFF90
S315000073381B4B994211D01B4B994212D01A4B9942BA
S3150000734804D11A4BD3F8800000F00700013803284F
S3150000735824D8DFE800F00A0E1612144BD3F884007E
S31500007368F2E7124BD3F88800EEE7BDE8084001F0D3
S315000073786DBCBDE8084001F06FBCBDE8084001F0EF
S3150000738868BC01F0F1FB094BD3F80031C3F3006385
S315000073985A1C01239340B0FBF3F008BD0020FCE71C
S315000073A8030020000500240002001E0000400E40D5
S315000073B800F47813B3F5A01F10B5044659D01FD8AA
S315000073C8B3F5202F07D00AD8B3F5003F46D0B3F55A
S315000073D8802F38D0ABBBBDE8104001F0C5BBB3F574
S315000073E8602F5DD0B3F5801F6FD0B3F5402F28D13D
S315000073F801F0BAFB404BD3F81431C3F3042329E058
S31500007408B3F5001F3FD013D8B3F5D01F3DD0B3F561
S31500007418F01F29D0B3F5B01F13D13848FFF784FF02
S31500007428354BD3F8202102F00F020123934012E0D6
S31500007438B3F5481F3CD0B3F5781F53D0B3F5101FEA
S315000074482CD0002010BD01F08FFB2B4BD3F80C314C
S31500007458C3F308230133B0FBF3F0F3E701F084FB31
S31500007468254BD3F80831F3E72448BDE81040FFF769
S315000074785BBF2348FFF758FF1F4BD3F8303103F0A3
S315000074880F03D840DEE71F48EFE71E48FFF74CFF1B
S31500007498194BD3F8282102F00302C6E71848E4E797
S315000074A81948FFF7E3FE07280FD00928C9D192E744
S315000074B81648FFF7DBFE072807D0082808D0042857
S315000074C8BFD1BDE8104001F085BB114B1868B9E77C
S315000074D801F04AFB084BD3F80031C3F3042303FB3E
S315000074E80000AFE701F040FB01462046FFF7B8FE73
S315000074F8B1FBF0F0A6E700BF00400E4002001E00F8
S31500007508050024000300200006000E00B800320023
S315000075189C4400200E4B5A6A12F0300F04D02029E2
S3150000752813D0302900D011B94FF4400200E0094ABF
S31500007538D3F8901032EA0101FAD1520246BFD3F8C5
S31500007548A000C0F38020012070474FF40002EFE747
S3150000755800400E40FF03E10702280AD129B1064B75
S315000075684FF48060C3F8A800596612B10220FFF7ED
S31500007578D1BF0120704700BF00400E40F8B504286F
S315000075884ED8DFE800F00A03116D72008026402409
S315000075980623072500294FD046E04FF400764FF41E
S315000075A8807408230925F5E7002942D0314C636A1F
S315000075B813F0300F35D1636ADB0705D5636A23F00C
S315000075C8300343F010036362042402230325294E83
S315000075D83466294E33449B001F68002FFCD0FAB14D
S315000075E83544AD002B68002BFCD0022818D1B9B160
S315000075F8204E716A11F0010118D001222021FFF7EF
S31500007608ABFFD6F89C70012200210220FFF7B6FFD7
S31500007618C7F30A00FFF76AFD34662B68002BFCD017
S31500007628F8BD0424022303250021D0E7FFF772FFE3
S31500007638E7E70826022303250E4901200E6600FA0D
S3150000764803F3D1F890001842FBD1002AE8D00123B1
S31500007658084A03FA05F5D2F890302B42FBD1DFE74A
S31500007668012402260023254694E720261024042315
S3150000767805258FE700400E408004F21000F00F0049
S31500007688013810B5072843D8DFE800F00F043E425A
S315000076983C5C42674A4C0139092939D8DFE801F0D0
S315000076A850394038384738383836023903292FD800
S315000076B8DFE801F02502191F0120032401221146E3
S315000076C8FFF75CFFFFF7F6FC3E4B5C6701F070FACC
S315000076D8044601F049FAFFF7AFFC20460021BDE851
S315000076E81040FFF721BD3848FFF7A6FC02200446E4
S315000076F8E4E73548FFF7A0FC01240320DEE7002075
S315000077080424DBE7314CC6E7314CC4E70423236085
S3150000771810BD012211460020FFF730FF0223F6E7CD
S31500007728012211461046FFF729FF0123EFE701F072
S315000077381BFAFFF781FC274B01221A600323E6E7B1
S315000077480023E4E7072904D00929E1D11D4B0122CA
S3150000775801E01C4B00221A67DAE701390729D7D856
S3150000776801A353F821F000BFC37700001977000082
S3150000777819770000B577000019770000197700001F
S31500007788A77700009177000003220E49D1F85C31F3
S3150000779823F0300343EA0213C1F85C31B8E701224B
S315000077A811460420FFF7EAFE0122EEE70122114600
S315000077B80220FFF7E3FE0222E7E70022E5E700BF23
S315000077C880400E4000400E400148E80188400E40C7
S315000077D884400E400016C84310B504461120FFF732
S315000077E845FD012200210220FFF7C8FE1A4A217C26
S315000077F8536A23F00103022908BF43F001035362C9
S31500007808164B21781960936AE17A23F007030B4334
S315000078189362A188637A43EAC123D362136BA07A81
S31500007828217A03F07F630343E08843EAC02343EAEF
S31500007838C11303310F2928BF0F2143EA01731363CC
S31500007848A37B617B1B0143EA0133E17B0B43217B6D
S3150000785843EA0143536310BD00400E40A004C843E9
S3150000786872B6704762B67047EFF3108072B670470B
S3150000787800B962B67047602383F311887047002306
S3150000788883F311887047EFF31180602383F311881F
S31500007898704780F311887047EFF31083DB0706D42F
S315000078A8EFF311805F2894BF002001207047012064
S315000078B8704700004109054A00F01F0352F82100ED
S315000078C8D840C04300F00100704700BF00E100E067
S315000078D810B50446EFF31083DB0733D4FFF7EAFF4E
S315000078E800282ED1002CA7BF04F1604404F561449A
S315000078F804F00F04144BACBF94F800231A5D520928
S31500007908EFF3118313B1B2EB531F1BD20F4C63680D
S31500007918C3F30803ABB1103BDBB259B20029B5BFBC
S3150000792803F00F0301F16043043B03F56143B6BF5F
S315000079381B1993F80003187E4009824234BF0020C1
S31500007948012010BD0120FCE714ED00E000ED00E089
S315000079581848194BC26C1B88C2F30322283301321C
S3150000796802EB820103EB5303B3FBF1F3C16C013B5A
S31500007978072B21F0EE6128BF072341F4801141EA65
S315000079880363C3640D4BB3F90030002B10DB2833B7
S31500007998510801EB420203EB5303B3FBF2F3026D0A
S315000079A8072B28BF072322F0700242EA0313036558
S315000079B8704700BF00300E40F6530020F8530020F1
S315000079C8084B1A78013A012A0BD8074A126C02F0BA
S315000079D80302012A03D105490A68D203FCD503220A
S315000079E81A7070475257002000300E407C300E4007
S315000079F8054A064BD16C1960D36C23F47F4343F4D4
S31500007A08EE43D364FFF7A4BF00300E40104E0020AB
S31500007A1808B5054BD3F89020044B11201A60FFF7E0
S31500007A2825FC034B187008BD00400E405C4C002036
S31500007A385C570020114A38B545F60E03104CD2F8AB
S31500007A488051C2F88031216821F0AA01C905C90D03
S31500007A5811660C4A1178052902D01120FFF70EFE8F
S31500007A682368DA075EBF054B02221A66EB0742BF98
S31500007A78024B0022C3F8802138BD00BF00400E40EB
S31500007A885C4C00205C5700207047000010B5044687
S31500007A9808B1FFF7BDFF0E4A136943F004031361EB
S31500007AA8FFF7A6FFFFF78CFFFFF7EEFF30BF04F0E6
S31500007AB81BFA084B1A68084BDA64FFF749FF1CB132
S31500007AC8BDE81040FFF7B6BFBDE8104001F070B83A
S31500007AD800ED00E0104E002000300E4010B50446C0
S31500007AE808B1FFF795FF164BD3F8802145F60E012E
S31500007AF8D20748BF0022C3F880114FF420711966D7
S31500007B0848BFC3F880210F4A136943F00403136181
S31500007B18FFF76EFFFFF754FFFFF7B6FF30BF04F01D
S31500007B28E3F9094B1A68094BDA64FFF711FF1CB130
S31500007B38BDE81040FFF77EBFBDE8104001F038B839
S31500007B4800400E4000ED00E0104E002000300E40D0
S31500007B58FFF75EBFFFF76EBF0378002B437870B55B
S31500007B680E4C14BF04260026002B8378A16914BF87
S31500007B7802250025002B037921F03F0143EA010382
S31500007B88C17814BF08220022012908BF43F0010367
S31500007B9833432B431343A36170BD00BF00300E402F
S31500007BA8194B4AF6E85210B55C6B5A639A6FD207BE
S31500007BB8FCD41B6C13F003031EBF144A0121116089
S31500007BC8834203D108B9114B186010BD23B90128A7
S31500007BD802BF0F4B02221A700B4A1146936FDB073E
S31500007BE8FCD4136C23F00303034313648B6F13F065
S31500007BF80103FBD10030054A18BF0120012C106093
S31500007C0808BF4B63E1E700BF00300E40B40AC64325
S31500007C185257002070B51D4D4AF6E852AC69AE6958
S31500007C28AA60A86924F4403410F0010044F4003432
S31500007C3846F4403607D12B6C03F00303013B012BB6
S31500007C4801D8FFF7ADFFAB69DB070FD572B6104B4E
S31500007C584AF6E8521A600F4A136843F08003136025
S31500007C68A2F58872136843F480731360FFF7C0FEA9
S31500007C78FFF7A6FE054B9C619E619C619E619C6117
S31500007C889E619C619E619C6170BD00BF00300E4084
S31500007C9890310E4098310E40A0F5E163B3F5966F2A
S31500007CA82DE9F04703D900210846BDE8F0875F4C67
S31500007CB85F4BD4F86851DB6CB0F5E16F1FBF4FEA34
S31500007CC8156AC5F307484FF496694FF4E16701BF93
S31500007CD8C5F3072A5FFA85F84FF416794FF49667C5
S31500007CE8B0F5E166C3F3017C18BF012646EA0C2EFF
S31500007CF840F201139E455BD0BEF5817F09D2BEF1E5
S31500007D08010F1BD05DD3BEF5807F5DD000252B46C5
S31500007D1819E040F201239E4550D005D8BEF5007FF4
S31500007D28F4D1D4F870310BE0BEF5407F4FD040F265
S31500007D3801339E45EAD1D4F878313BE0D4F8743162
S31500007D48C3F30725DBB2C71BAAEB080E07FB0EFE1B
S31500007D58BEFBF9FEC644D645A5D8A5EB030807FB26
S31500007D6808F7B7FBF9F73B44AB424FF000079AD840
S31500007D7882B1DFF8BC80D8F85C5025F4FE4525F0C2
S31500007D880205B0F5E16F45EA0E2518BF02273D4307
S31500007D98C8F85C50002946D0226DD2B2032A19D8F9
S31500007DA8B0F5E16FD4F87C211FD0C2F307221DE09D
S31500007DB8D4F874311D0EC3F30743C4E7D4F87831F9
S31500007DC8BEE7D4F86C31BBE7D4F86C31F2E7D4F8E7
S31500007DD87031EFE7BCF1020FD4F880211ED0BCF158
S31500007DE8030F1ED0BCF1010FDFD0D2B2120312F47A
S31500007DF8702F7FF458AF0E4CE06E20F470400243AB
S31500007E08E266626E22F4FF72E72B22F0010228BFB7
S31500007E18E723324342EA4303636645E7C2F3074270
S31500007E28E4E7120EE2E701213EE700BFB081E00F6A
S31500007E3800300E40194B1A6FD96CC90702F00702B9
S31500007E4814D5012A12D9132823D9143813288CBF1C
S31500007E58102308231148013BC26C190322F47F4200
S31500007E6841EA03231343C364FFF772BDDB6CD907EA
S31500007E7806D4012A04D809280BD90A380928E6E7BE
S31500007E88064BDB6C13F00103E4D0012A03D827283C
S31500007E98DDE70423DEE70023DCE700BF00300E4001
S31500007EA8054A064B1B68136F23F007031843044B58
S31500007EB810671888FFF7BEBF00300E408009C6431A
S31500007EC8F4530020544B022273B59A639B6B03F05C
S31500007ED80F039342054603D00024204602B070BD26
S31500007EE84E4BD3F86C3101331DD04D4B1A68043B09
S31500007EF81B681A604B4B1A68043B1B681A604A4B8E
S31500007F081A68043B1B681A60484B1A68043B1B68CE
S31500007F181A60474B1A68043B1B681A60454B1A6877
S31500007F28043B1B681A60E988A888B5F90C604A29D9
S31500007F3865D9B1F5FA7F64D340F6C313994294BF65
S31500007F484FF000514FF04051334CE36C23F040534F
S31500007F5823F00103002EA8BF43F001030B43E3649B
S31500007F68354B1880E36E43F08073E366334B18682D
S31500007F7800B10420FFF794FF236E23F0C043236665
S31500007F88E36C43F0060301A8E36400F0F5FB9DF8F3
S31500007F980500012812D19DF80430022B0ED8284975
S31500007FA80B785BB9274A136843F001031360236E05
S31500007FB8254A1A40254B134323660870244B298902
S31500007FC81980244BB5F90C20A8881A80FFF732FFD0
S31500007FD8AB7BCBB1012B1BD0012211466888FFF77A
S31500007FE85BFE044600283FF477AFAB7A1A4A6878F6
S31500007FF8003318BF01231360FFF7D2FD6DE7002198
S31500008008A2E74FF080519FE7034B144A9A65E3E7CE
S31500008018014B134AFAE700BF00300E40B081E00F6B
S315000080283C80E00F4480E00F4C80E00F5480E00F66
S315000080385C80E00F6480E00FF45300208009C6439B
S315000080485257002044300E40000F0EF0B4C0400BCB
S31500008058F6530020F85300209407C643774020576C
S31500008068372110B7144B1A6830B5002814BF0225FB
S315000080780025012A06BF4AF6E8511960002202289F
S315000080880E4804680CBF24F0740444F074040460B9
S315000080980B48046844F0080404600A4C216821F47B
S315000080A8406141EA85212160016821F008010160EB
S315000080B80AB100221A6030BD90310E4064310E407C
S315000080C89C310E403C400E4070B505460E4614469F
S315000080D8FFF7CAFB2A68544004EA060151402960A2
S315000080E8BDE87040FFF7C4BB044AD2F8443423F015
S315000080F803031843C2F84404704700BF00A00040B9
S31500008108072AF8B501F0030615461F464FF00F017A
S3150000811820D8940000FA04F2A1401648FFF7D4FFCD
S315000081280321154806FA04F2A140FFF7CDFF134BC9
S315000081389DF818202B449B001F60C3F8802001225D
S3150000814802FA05F50E4AC2F824549DF81C20C3F815
S315000081580023F8BDA2F10804A40000FA04F2A14025
S315000081680848FFF7B1FF032106FA04F2A1400648C2
S31500008178DBE700BF00A4004008A40040802085106B
S3150000818800A0004004A400400CA40040F0B54AB189
S3150000819830261E4C012546438D4034440BB304F16A
S315000081A8C06425603024444304F18044072904F55B
S315000081B8204419D865688E000F27B74025EA0705B9
S315000081C802FA06F63543656052B9012202FA01F150
S315000081D8302250430D4A0244A3B102F1C062116035
S315000081E8F0BD04F18064DCE701F18045083DA6682E
S315000081F8AD000F27AF4026EA070602FA05F5354314
S31500008208A560E1E702F18062E9E700BF0CA0004043
S31500008218084B4FF48072C3F88020BFF34F8FBFF32B
S315000082286F8F054B0021D9664FF48A401962FEF715
S3150000823889BF00BF00E100E000200E40034B034465
S315000082489B0081F001011960704700BFA001F11081
S3150000825810B5044601214FF48A40FEF773FFB4F8BF
S31500008268013022785BBA9BB243EA02630B4A136079
S3150000827800231362D36253634FF00043D3664FF073
S31500008288FF339366064A4FF48071C2F88011E3788B
S315000082985B01DBB282F80833116010BD00200E4086
S315000082A800E100E02DE9F041254D91F80BE091F849
S315000082B80AC00F7B0C464FF03008C3B2012608FBF4
S315000082C800509E402368497BC0F880304FEA0E5321
S315000082D843EA0C4343EA475322F00302C0F88810E6
S315000082E8C0F88430C0F89820AE66FFF7CCFAEB6E7B
S315000082F83343EB66237A13B16B6B33436B63637A51
S3150000830813B1EB6A3343EB6222792B6822B1D2436D
S31500008318120262F47F42134062790AB143EA0223E9
S31500008328A2790AB123EA0203E27902B11343044AA5
S315000083381360044B1E60D663BDE8F041FFF7A9BA87
S3150000834800200E4028200E4410B5C0B201248440F7
S31500008358FFF799FA054AD36E23EA0403D366044B5A
S315000083681C60BDE81040FFF794BA00BF00200E401D
S3150000837820200E44F8B5C3B201259D400446FFF7F8
S3150000838882FA0A4B30221E6E9F6A02FB0434D4F826
S315000083988C40FFF77EFA3D4206D1C4F30A1008B9AD
S315000083A8354200D10130F8BD0020FCE700200E4020
S315000083B8036CDB0702D4436C0B42FCD17047000008
S315000083C8064B0B4003F58073B0FBF3F203FB120078
S315000083D80002B0FBF3F000EB02207047F8FF010043
S315000083E8074B984210B5044607D10648FEF7E0FF4A
S315000083F8E168BDE81040FFF7E3BF002010BD00BFED
S3150000840800A0044090071A00CB435B0003F00A0360
S3150000841810B541EA03020221FFF7CAFF426010BD08
S31500008428436C002BFCD101220264EA22426040F22E
S31500008438F9720360C3600361436183634263C36384
S31500008448436583650364704710B502460C46936816
S31500008458DB06FCD540211046FFF7AAFF946210BD43
S315000084680F4A70B5002308258B4201D1002070BD44
S3150000847850F8234094610B4CD5600133D669F60752
S3150000848805D514B96FF00200F1E7013CF6E7002CB8
S31500008498F8D0D469A407E7D56FF00100E7E700BF75
S315000084A800000E4080969800044B41F671321A641B
S315000084B89A6822F001029A60704700BF00000E40D9
S315000084C8034B9A6822F001029A6000221A647047E8
S315000084D800000E40094A0A4BD969C90705D512B9E1
S315000084E86FF002007047013AF6E7002AF8D0012239
S315000084F81861DA60D86940F3800070478096980062
S3150000850800000E4009B1FFF7ABBF084670470000F0
S31500008518234B2DE9F0470F4641F671311E6C19645D
S31500008528996841F001018146B6B299604FEA92080E
S31500008538BA46002545450ED30020D9F800203B68E9
S315000085489A420ED04846FFF7C5FF50B90121384672
S31500008558FFF786FF05E009EB85042046FFF7BAFF1B
S3150000856848B10F4B9A6822F001029A600EB10022B8
S315000085781A64BDE8F087C4F30A04C4F50064A408C5
S31500008588A8EB05039C4228BF1C4621465046FFF728
S31500008598B9FF0028D1D125440AEB840ACAE700BFEF
S315000085A800000E401E4B41F671311A6C10B5196465
S315000085B8996841F00101996001211861D960D9696A
S315000085C84C0792B209D5996821F0010199600AB160
S315000085D800221A644FF0FF301FE00221114CD960C7
S315000085E81946D869C00700D56CB9C8698B6810F0F8
S315000085F8020023F001038B6007D00AB100230B6445
S315000086086FF0010009E0013CEBE724B902B10C6404
S315000086186FF0020001E00AB1086410BD1046FCE7DD
S3150000862800000E4080969800FFF772BF10B590FACA
S31500008638A0F2054C2368B2FA82F223EA00009140C0
S315000086480143216010BD00BF00500E40014B0122BE
S315000086589A60704700500E40194BF0B55C68194D8A
S31500008668194E1A4F00231846D6F800C0EA181CF00F
S31500008678040F51685A5908D1B2F5806F03D018D83B
S31500008688B2F5007F01D141F48071D7F800C01CF41F
S31500008698807F18BF21F01C01144202D0214208BF76
S315000086A810430833482BDFD1C30348BF20F01C0012
S315000086B8F0BDB2F5006FE6D0B2F5803FE2E700BF45
S315000086C800500E40DC3C0300E841E00F88300E40C5
S315000086D88B784A789B0143EA82030A781343CA785F
S315000086E843EA02130A7943EAC2234A7943EA023380
S315000086F88A79043043EA42430001014A135070471D
S3150000870800200440014B1860704700BF00008442F7
S31500008718427801790378002A827870B514BF042656
S315000087280026002AC27814BF10250025002A42799F
S315000087384FEA023242EA012242EA0302837914BF6F
S3150000874820240024002BC37942EA034343EA0603A4
S31500008758027A43EA050314BF4FF40041002123437C
S31500008768002A14BF4FF4003200220B431343014A78
S31500008778136070BD002004400B4A536911699B00C1
S3150000878803F03C03C1F381110B438370136903F0B3
S315000087983F0343709369D26903F0F003C2F30312EF
S315000087A813430370704700BFD0FF0FE02DE9F04F69
S315000087B80C780CB902234360002343624B78CA78CD
S315000087C891F802B08D7A91F808A091F8069091F880
S315000087D80780002B4B7A4FEA024214BF4FF0400E37
S315000087E84FF0000E42EA0B62002B14BF80230023D1
S315000087F842EA0A02002DCD7A42EA892214BF4FF0D6
S31500008808200C4FF0000C42EA0822002D0D7B42EAAC
S315000088180E0214BF102700271343002D0D7949793E
S3150000882843EA0C0314BF082600263B43002D14BF59
S315000088384FF4005500253343002914BF4FF08051EB
S3150000884800212B430B4303600CB101234360BDE8B1
S31500008858F08FF0B5537814781B0643EA846394794D
S315000088682343947843EA0443D47843EA04331479D7
S3150000887843EA8423547943EA0423D479002C147AEE
S3150000888814BF4FF080470027002C547A14BF4FF0CE
S3150000889800560026002C947AD27A43EA027343EAF9
S315000088A8070314BF102500253343002C01F10601E8
S315000088B814BF042400242B43090123434350F0BD6D
S315000088C870B5054616461C4619B91448FEF770FDDC
S315000088D80146202C08D001D8ECB170BD402C18D028
S315000088E8602CFAD1042200E0082206FB02F35A089B
S315000088F802EB4112B2FBF3F2094B203A03EAC20239
S315000089082B6823F060032B602B681C432C606A617C
S31500008918E3E70622E9E71022E7E700BF4041050042
S31500008928F8FF7F00F8B5154F14460F401ABB202BE9
S3150000893807D0402B07D0002B0CBF10254025012659
S3150000894803E01D46FBE78025032607F580777E436F
S315000089580023324619462AF053FF544300FB05F715
S3150000896805FB0344A2FB05012144324600232AF0F5
S3150000897847FF3844F8BD80250024E0E7F8FF7F006C
S3150000898870B5044605680648FEF712FD2368616956
S3150000899805F0010203F06003BDE87040FFF7C2BFAF
S315000089A840410500CB435B0003F00A03C360C16086
S315000089B87047000040F6AA63C36041F2050200232F
S315000089C8036042600A4A83604361C3648264094A59
S315000089D803669042436702F580628367C36701D0E6
S315000089E8904200D103659042836508BFC36570470E
S315000089F8F9FF01000000014038B505460C46FFF7AF
S31500008A08D9FF8B7C1BB1036843F080430360E37C8A
S31500008A181BB1237D43F08003AB65228A637B134336
S31500008A28E28913436B60D4E90112237B2846FFF7DA
S31500008A3847FF637D1BB12B6843F480332B60A37D0E
S31500008A48E27D1B07120502F4E00203F0E04313433C
S31500008A582B666B6F23F030036B676A6F237E1343B5
S31500008A686B672378EB6038BD03691B06FCD5C069C4
S31500008A78C0B2704703695B06FCD54163704703685B
S31500008A88DB060FD447F231538268D20701D5013B82
S31500008A98FAD1036803F001038B421EBF00F104708C
S31500008AA84001016070470368D90707D583689A07AC
S31500008AB804D48368DB07FCD40123436070474B78F2
S31500008AC8CA78002B8B782DE9F04114BF4FF0020EBF
S31500008AD84FF0000E002B14BF04230023002A0A7946
S31500008AE891F807800C7814BF4FF0080C4FF0000C73
S31500008AF8002A4A7914BF20270027002A8A7914BF3A
S31500008B0840260026002A0A7A4FEA022242EA08325A
S31500008B1891F8098042EA0402CC7A897A42EA084244
S31500008B2842EA016242EA0E0243EA020343EA0C03FE
S31500008B3843EA070314BF102500253343002C14BF4E
S31500008B484FF0004400242B43234347F231528168F7
S31500008B58C90701D5013AFAD10360BDE8F0810000E2
S31500008B680048704700F049020D4AD2F8943003F0E5
S31500008B780703032B11D0042B03D0022B0BD1094B6F
S31500008B8800E0094B1868D2F80031C3F30423013317
S31500008B98B0FBF3F07047054BF4E74FF40040F2E7FB
S31500008BA800400E4090440020984400209444002041
S31500008BB808B5FFF7D9FF054BD3F80831C3F30823E7
S31500008BC80133B0FBF3F0024B186008BD00400E40BD
S31500008BD88C440020014B1868704700BF9044002061
S31500008BE8054B1860054BD3F8943003F00703022BA6
S31500008BF801D1FFF7DDBF70479044002000400E40CA
S31500008C080E4B0F4A9A60D3F8882042F47002C3F8D4
S31500008C1888200C4B5A6D42F400525A651A6C22F0A1
S31500008C2803021A64084A136823F00103136052F812
S31500008C38143C23F0805342F8143C704700ED00E0E2
S31500008C480041000000300E4074300E404FF40040E2
S31500008C5870474FF47A707047014B1868704700BF29
S31500008C689844002008B50C4B198A40F6A732914261
S31500008C780AD11B8B1B0A012B0CD101280AD840F2FA
S31500008C88022026F009F905E040F628031B689B69CF
S31500008C98DB02F2D4012008BD000000000E4B198A41
S31500008CA840F6A732914206D11B8B1B0A012B10D026
S31500008CB84FF6FF70704740F628031B689B68C3F39E
S31500008CC80340C3F30362000240EA0230DBB21843F2
S31500008CD8704700F003B800BF00000000054B198A72
S31500008CE840F6A732914217BF40F62803588B1B68F7
S31500008CF8588970470000000070B50438C6B0FB28D4
S31500008D0802F24380DFE810F07C0241104110411066
S31500008D18C20241104110411041104110411041104A
S31500008D28BC04AA0441104110810B0C0518057304F4
S31500008D38820441105D0541104110760545016F0317
S31500008D48F0031D018D04411041104E0941104110D8
S31500008D584102CD02D40D450E050EF20DC10D320E9F
S31500008D68720E411041104006E707A701D1066606B4
S31500008D781707C6075A078503FC00B4012A024110E3
S31500008D88EA0401074C0641104110411041104110F8
S31500008D9841104110540198017F01411041104110C2
S31500008DA8B108A80741104110411041104110411067
S31500008DB8411041109E088205160830089505C00521
S31500008DC82A0610064110F9056D084110290A970B65
S31500008DD8B10BB20AC80A6F0AF90B280B41100C0C22
S31500008DE87B0DF80AD60B580C410C8A0A740A300C0B
S31500008DF84110FE0168040C03411041104F08E305B9
S31500008E08411041109F06E40E810E030F1B0FF70E4B
S31500008E180F0FA50EBB0E8D0ECE0E990E41104110EA
S31500008E284110411041104110411041109207411064
S31500008E384110370524054110010141104110270F43
S31500008E484110610F2610AA0FE00FF80F940F41107A
S31500008E58690C8B0C41104110411041108408480AD6
S31500008E68C50F630A6C09AC09100AE00941104110E4
S31500008E784110F904530941105F09A3091409CF09E0
S31500008E88F80C42035903640341104110AA0C41101F
S31500008E98E10C080D4110411041104110530BF20925
S31500008EA84A05370341103101D4092C0920098609DE
S31500008EB89209E208080938094309640D800D9C0DDA
S31500008EC8900D540D4F0D41104110411041104110A5
S31500008ED8EC0F4110440F411009101A10740F3F0887
S31500008EE8411041104110D3056208B30D9E099F0435
S31500008EF8330456041E04FB034110ED02CF08E202B8
S31500008F080EF070FB012046B070BD12AB01930AABA0
S31500008F1800930CAA24ABB349012028F07BFEBDF8C8
S31500008F2848309DF828202499BDF8300014F026FB17
S31500008F3846AAAD4902F8EC0D002028F06BFE012088
S31500008F48E1E724AB0CAAA949012028F063FE24997D
S31500008F589DF8300026F04EFC46AAA34902F8D00D2B
S31500008F68002028F057FE0120CDE70CAB24AAA04923
S31500008F78012028F04FFE9DF8301024980BF048FB8E
S31500008F8846AA994902F8D00D002028F043FE012090
S31500008F98B9E724A828F014FC24A80DF0A7FD46AAD2
S31500008FA8914902F8D00D002028F034FE0120AAE7E6
S31500008FB80CAA8D49012028F02DFE24A99DF8300021
S31500008FC826F016FC46AA884902F8D00D002028F09B
S31500008FD821FE24A9082028F0DDFB9DF8980028F03A
S31500008FE8A1FBBDF89A0028F0ADFB9DF89C0028F07F
S31500008FF899FB9DF89D0028F095FB9DF89E0028F0AA
S3150000900891FB01207FE786230BAA77498DF8483024
S31500009018012028F0FFFD24A99DF82C0026F0F1FB7D
S3150000902846AA12AB02F8E80D72490093002024AB59
S3150000903828F0F0FD012066E724A814F087FE46AA6A
S31500009048694902F8D00D002028F0E4FD24A828F08C
S31500009058AAFD012057E724A814F074FE46AA24ABFB
S3150000906802F8D00D6449002028F0D4FD01204AE713
S3150000907824A80EF0CBFA46AA5B4902F8D00D0020C8
S3150000908828F0C8FD9DF8900028F04CFB9DF891004B
S3150000909828F048FB9DF8920028F044FB9DF89300C1
S315000090A828F040FB9DF8940028F03CFB9DF89500BD
S315000090B828F038FB9DF8960028F034FB9DF89700B9
S315000090C800F0010028F02EFB9DF89700C0F3400041
S315000090D828F028FB9DF89700C0F3800028F022FBB3
S315000090E8BDF8980028F02EFBBDF89A0028F02AFB58
S315000090F827A9082028F04EFB9DF8A40028F012FBAB
S31500009108012000E70CAA3849012028F083FD24A98C
S315000091189DF8300016F0DEF846AA334902F8D00D5D
S31500009128002028F077FDBDF8900028F00BFB9DF88D
S31500009138920028F0F7FA9DF8930028F0F3FA9DF8C4
S31500009148940028F0EFFA9DF8950028F0EBFA08202D
S315000091580DF1960128F01EFB0120D4E646AB082245
S3150000916803F8EC2D254924AA012028F053FD12A95D
S3150000917824A816F043FC46AA12AB02F8E80D1B49D0
S31500009188002028F047FD0120BDE624A912A826F0F4
S31500009198F7FA46AA12AB02F8E80D1749002028F09C
S315000091A839FD24A9082028F0F5FABDF8980028F01A
S315000091B8C9FA9DF89A0028F0B5FA9DF89B0028F0A0
S315000091C8B1FA9DF89C0028F0ADFABDF89E0028F08B
S315000091D8B9FA9DF8A00028F0A5FA299828F0C6FA49
S315000091E8012090E6643D0300B43D0300693D030099
S315000091F8833D0300A95D0300A33D030081450300E9
S3150000920824A80EF025FA46AAC94902F8D00D00206E
S3150000921828F000FD9DF8900028F084FA9DF891004A
S3150000922828F080FA9DF8920028F07CFA9DF89300C1
S3150000923828F078FA9DF8940028F074FA9DF89500BD
S3150000924828F070FA9DF8960028F06CFA9DF89700B9
S3150000925800F0010028F066FA9DF89700C0F3400078
S3150000926828F060FA9DF89700C0F3800028F05AFAB3
S31500009278BDF8980028F066FABDF89A0028F062FA58
S31500009288082027A928F086FA01203CE60EF00EFAF7
S3150000929846AAA74902F8880D002028F0BBFC012041
S315000092A831E612AC0823214624A88DF8303026F082
S315000092B88EFA46AA0CAB02F8EC0D9E4900930020E4
S315000092C8019424AB28F0A6FC01201CE60BF0C8FA92
S315000092D846AA974902F8880D002028F09BFC012031
S315000092E811E60CAA9249012028F094FC24A99DF8BD
S315000092F830000BF051FA46AA8D4902F8D00D00202D
S3150000930828F088FC9DF8900028F00CFA9DF891004A
S3150000931828F008FA9DF8920028F004FA0120F2E5F0
S315000093280CAA8349012028F075FC24A99DF8300071
S3150000933814F092FF46AA7E4902F8D00D002028F0C4
S3150000934869FCBDF8900028F0FDF9BDF8920028F0F8
S31500009358F9F99DF8940028F0E5F99DF8950028F0AC
S31500009368E1F99DF8960028F0DDF99DF8970028F0B8
S31500009378D9F90120C7E526F0A7F946AA6C4902F8EB
S31500009388880D002028F046FC0120BCE50BAA684998
S31500009398012012AC28F03EFC224624A99DF82C0098
S315000093A826F094F946AA24AB02F8E80D624900941F
S315000093B8002028F02FFC0120A5E526F08BF946AA07
S315000093C85B4902F8880D002028F024FC01209AE564
S315000093D826F07EF946AA564902F8880D002028F09C
S315000093E819FC01208FE50CAA5149012028F012FC2E
S315000093F824A828F0E5F924A99DF830000DF014FCFE
S3150000940846AA4B4902F8D00D002028F003FC01209B
S3150000941879E50AAA4649012028F0FCFB1422002116
S3150000942824A82AF0D8FB28F067F98DF8900028F0D0
S3150000943863F98DF8910028F05FF98DF8920028F00D
S315000094485BF98DF8930028F057F98DF8940028F009
S3150000945853F98DF8950028F04FF98DF8960028F005
S315000094684BF99DF89730003018BF012060F30003D0
S315000094788DF8973028F040F99DF89730003018BFDE
S31500009488012060F341038DF8973028F035F99DF8EF
S315000094989730003018BF012060F382038DF89730AB
S315000094A828F05AF9ADF8980028F056F927A9ADF82A
S315000094B89A00082028F028F90CAB0BAA1F490120AE
S315000094C828F0A8FB9DF830309DF92C209DF828003F
S315000094D824A90DF065FA46AA154902F8D00D002010
S315000094E828F098FB01200EE50EF0E8FE46AA104982
S315000094F802F8880D002028F08DFB012003E512AB49
S3150000950800930BAA0CAB0E49012028F083FB9DF8AB
S3150000951848209DF830109DF82C0018F0B9FB46AA93
S31500009528034902F8880D002028F074FB0120EAE4BC
S31500009538B43D03006C3D0300703D0300773D030016
S315000095487E3D030012AB0CAAC549012028F062FB38
