S01000006E63702D42696C6C792E7333377A
S31500004000401C00209987010049AD00004DAD00001D
S31500004010A70A0A010041000004180FACA067A70117
S31500004020000000000000000000000000000000008A
S3150000403000000000FC20030000000000000000005B
S315000040400000000000000000FFFFFFFFFFFFFFFF72
S31500004050FFFFFFFF007003000000000000000000EB
S31500004060FFFFFFFFFFFFFFFF100000000000000042
S31500004070000000000000000000000000000000003A
S315000040800000000000000000183D0020183D002040
S31500004090401C0020E448030010200300E01200202A
S311000040A0B3120020000004000000000025
S31500004100401C00209987010049AD00004DAD00001C
S3150000411079B6000051AD000059AD00009787010047
S31500004120978701009787010097870100978701000D
S315000041305DAD000097870100978701009787010012
S31500004140755A00000D8601007DB100004D7E01000C
S315000041507986010019860100318601001186010069
S315000041609D50000071510000616C0000EDC400001C
S31500004170D0AE0000D0AE0000F5420000D0AE000088
S31500004180D0AE000095510000D0AE0000D0AE0000C9
S31500004190D0AE0000D0AE0000D0AE0000D0AE000021
S315000041A0D0AE0000D0AE0000D0AE00007D8601008B
S315000041B0158601003D580000BD860100D0AE000006
S30D000041C0896D0100D0AE00007C
S315000041C8F8B500BFF8BC08BC9E467047F8B500BFF6
S315000041D8F8BC08BC9E46704710B5054C237833B921
S315000041E8044B13B10448AFF300800123237010BDBC
S315000041F88C210020000000009043030008B5034B03
S315000042081BB103490348AFF3008008BD0000000056
S315000042189021002090430300154B002B08BF134B39
S315000042289D46A3F5803A00218B460F461348144A4B
S31500004238121A2DF0D0FE0F4B002B00D098470E4BCC
S31500004248002B00D098470020002104000D000D48DF
S31500004258002802D00C48AFF300802DF08DFE200018
S31500004268290029F019F92DF073FE00BF0000080097
S31500004278401C002000000000000000008C210020E7
S31500004288183D0020000000000000000070B5134C27
S315000042988A00A31822449B781D09062D98BF104E44
S315000042A803F00F0394BF755DFF25062B05719ABFB2
S315000042B80C4DEB5CFF234371FF3B18BF0123837151
S315000042C8D37014F82130084C437053788370014634
S315000042D8204602F037FD0123A36070BDA821002007
S315000042E81720030010200300002000407FB5224954
S315000042F822480022FF23CDE901228DF809300378F0
S315000043084C6C8D6B03922C40E407DBB228D5022B4C
S3150000431826D88C6C1A4901EB8301A5B2CE781949C7
S3150000432806B326041ED521F813201749012202FADE
S3150000433803F30A781343154A0B701378CBB100239D
S315000043481478DC40E407D9B20FD50170107801243F
S3150000435804FA03F34340DBB201A81370FFF796FF94
S3150000436804B070BD21F81350DFE70133032BE7D102
S31500004378F6E703230370F3E700200040B42100208A
S31500004388A8210020B8210020B6210020B521002050
S3150000439800207047002814BF022000207047012023
S315000043A8704701207047012814BF0220002070477B
S315000043B8012070472DE9F84F184E80460D461446E1
S315000043C8994606F1010A0DB9BDE8F88F102D4FF090
S315000043D80D02494650462F4628BF102706F076FD9F
S315000043E8012333700D48F4730023B373013421F0AD
S315000043F8E3FE0B495FFA87FBE4B2424612F8013B3B
S3150000440811F8010F434002F8013CA2EB0803DBB2A6
S315000044185B45F3D3ED1BADB29046D4E7C22100202D
S31500004428C12100202DE9F04F374D85B01746BDF85C
S315000044383880019003930D220F9B02930E46014686
S31500004448681C06F043FD49232B7028464FEA1823BB
S31500004458AB7385F80F8021F0AFFE2B7883EA17231C
S315000044682B706B784FF002097B406B704C46AA465E
S315000044784FF0000B21E0C4F1100CA7EB0B031FFA59
S315000044888CFC9BB2634528BF63463046A11B00EBF4
S31500004498010C5FFA8CF2A0EB060C1FFA8CFC9C450B
S315000044A81BD31C44E4B29B44102C1E441FFA8BFBFE
S315000044B803D1284621F080FE0024BB45DBD314B186
S315000044C8504621F079FEB9F1010F4FF00004039E22
S315000044D847460BD04FF00109CAE710F801CB1AF886
S315000044E802E08CEA0E0C0AF802C0D0E702980649E8
S315000044F8042206F0EBFC019B02982246042105B033
S31500004508BDE8F04FFFF756BFC2210020F7B5099F57
S31500004518BDF82040CDE9004706461D46FFF782FF55
S315000045282CB13346012221462846FFF743FF0020D7
S3150000453803B0F0BD2DE9F743BDF828700F4C1E46B1
S315000045480546884691460346394630460122FFF716
S3150000455831FF33464A4641462846CDE90074FFF7FF
S3150000456861FF042221460B9806F013FD002814BFAC
S315000045787E20002003B0BDE8F08300BFBE210020E6
S315000045882DE9F3410A4F0C46991815461E468046F2
S3150000459821443846042206F099FCCDE900676319E0
S315000045A82A4621464046FFF7C5FF02B0BDE8F0811E
S315000045B8D221002000207047012070470120704753
S315000045C80020704701207047002070470020704780
S315000045D801207047002070470120704770477047D8
S315000045E8002814BF022000207047002070470000F2
S315000045F810B5104C1049A161032321660F494FF4E9
S315000046088062C4E904330E4BE361C4E9191200233E
S315000046180C49A362E01D6362E3622367E36663678E
S3150000462822622DF0E0FC084920462DF0DCFC202310
S31500004638A37110BD743600201E200300D621002069
S31500004648D6250020272003002B2003002DE9F84F4C
S315000046581F4B16461A7881468A4698460AB9FFF7C6
S31500004668C7FF182707FB09873D6FD7F86CB05D456C
S315000046782BD9BC6E796E641BB44228BF34462944D4
S31500004688504622462DF09CFCBB6E2544A244361BA0
S31500004698AB4208BF0025ABEB050B5E4528BF5E465F
S315000046A856B1182303FB09833246596E50462944EE
S315000046B82DF086FC3444354424B1182303FB0988BD
S315000046C8C8F870502046BDE8F88F0024E3E700BF1D
S315000046D87436002010B50B46EFF311844FF0200115
S315000046E881F311881946FFF7B1FF84F3118810BDCD
S315000046F82DE9F84F144D9B462B78814688469246FD
S315000047080BB9FFF775FFEFF3118C4FF0200181F31A
S3150000471811886F690020182303FB0054666E2EB1BA
S3150000472801308742F8DC4FF0FF3009E08742FADDB6
S31500004738C4E91898C4F868A02667E666C4F874B091
S315000047488CF31188BDE8F88F74360020FFF750BF48
S31500004758012270B51146042002F0F2FD1A4B1B4DDA
S315000047681A681B4842F001021A60DA684FF0604482
S3150000477842F08072DA60174BC4F8B03F0026022375
S31500004788C4F8006EC4F8806EC5F8F03002F0F2FC8A
S3150000479800F5D520104B114A00F2FC40B0FBF3F0AF
S315000047A80F4B01382861C4F8406E1A600D4BC4F8E7
S315000047B8803E4FF48073C5F80433D4F8003E43F4C2
S315000047C88073C4F8003E70BDF0ED00E0000004E020
S315000047D806000E0055CEACC5F8590D00FF03004083
S315000047E8001000E00D00010010B50121104802F08C
S315000047F88BFB104B01241C60002003F03FFB234673
S3150000480804220221052003F091FB20462CF014FC1B
S31500004818FFF79EFF2CF016FCFFF798FF2346402271
S3150000482805490648FFF764FF054B1860C00F10BD21
S3150000483800250A0010881442D629002032200300D9
S31500004848881C0020024B1868003018BF01207047EA
S31500004858F0ED00E0054A4170D12303701378C37068
S31500004868090A8170591C117004207047162A002005
S315000048782DE9F74F354E33681C5C032C074663D980
S3150000488814F0D4F8DFF8C88001900534E4B24FF686
S31500004898FF7A0025C146D8F800204AB1AC4207D9AC
S315000048A814F0C4F8019BC01A80B2B0F5FA7F05D996
S315000048B8601B18BF012003B0BDE8F08F002D3DD066
S315000048C8012D1DD13268D55D4FF0020B4FF06042C5
S315000048D8D2F8801ECB0711D51146D9F80C0040F046
S315000048E88070C9F80C00D1F8000E40F48070C1F849
S315000048F8000E086A0028F0D082F820505D46CAE704
S31500004908E21E05F1010B95425FFA8BFB02D15FFAB5
S315000049188AF5DBE7A21E954202D1CAF30725D5E739
S31500004928621E95420ED0A91EC9B2384619F0AAF8D9
S315000049385146054606F09AF98246C7E75B254FF0C9
S31500004948010BC3E75D25C1E70120B4E70C1D002074
S31500004958F0ED00E010B50B4B90B0402269461868A0
S31500004968FFF7B8FE58B1C1B2684619F015F8044603
S31500004978014612200AF0DCFC204618F0B1FE10B001
S3150000498810BD00BF881C002070B5164685180AB9E8
S31500004998304470BD01F00F030A2B34BF302437248E
S315000049A82344013A090905F8013DD2B2EFE70000B0
S315000049B8F0B5F9B100281CDA2D23B0F1004F1370B9
S315000049C800D04042012115E0801B8642ECB205F179
S315000049D80105F9D904B927B14D1C303454540127BF
S315000049E8E9B20133092B09D1303050540131C8B22C
S315000049F8F0BD00210023DFF80CC01F465CF82360D9
S31500004A080025E2E7442003002DE9F04F95B04FF06A
S31500004A18000B02AC81468A4617461D465E46A046EE
S31500004A283B7863B902ABE41AE4B22246194650460B
S31500004A38C847002840F093803444E0B290E0252B24
S31500004A4813D0BBF1000F14D12370013412AB9C4272
S31500004A586DD3A4EB0804E4B2224641465046C84743
S31500004A6800287CD12644F6B260E0BBF1000F00D1E5
S31500004A7801373B78632B00F092801BD8392B09D875
S31500004A88302B80F09E80002BCCD0252B51D04FF0B8
S31500004A98000BDBE7582B00F08B80622BF7D12B68D5
S31500004AA801936B6800934FF0000B009B9B4543D125
S31500004AB80835ECE7702B1ED017D8642B01D06C2B69
S31500004AC8E5D16C2B05F1040B28686CD17B78752B26
S31500004AD814BF0121002101D0642B00D101372246E1
S31500004AE8FFF766FF04445D46D1E7752BE9D0782BBE
S31500004AF85ED0732BCBD1A4EB0804E4B2224602A9FC
S31500004B08504605F1040B2D68C84740BB2644F6B24B
S31500004B18C4B201302B5D002BFAD1224629465046F5
S31500004B28C847E0B926445D46F6B28346444601378F
S31500004B3876E723700134AAE7019B204613F80B1089
S31500004B480222FFF721FF12AB984204460ED3A0EBD0
S31500004B580804E4B2224641465046C84718B1002028
S31500004B6815B0BDE8F08F2644F6B24446009B013BDB
S31500004B785B4582BF20232370013412AB9C420BD3C2
S31500004B88A4EB0804E4B2224641465046C84700282A
S31500004B98E5D12644F6B244460BF1010B85E72B68AE
S31500004BA823700435C6E7752B0CBF0021012196E753
S31500004BB8204602222978FFF7E7FE05F1040B044692
S31500004BC891E77A7802F0DF02582A19D1322B07F1D9
S31500004BD8010B09D129882F1D04222046FFF7D4FE90
S31500004BE83D4604465F4652E7342B09D12F1D2D68F2
S31500004BF80422290C2046FFF7C7FE0422A9B2EDE7D6
S31500004C084FF0010B22E700002DE9F04F9B46584B69
S31500004C1885B01B78109F9DF844A0DDF850800646A5
S31500004C2889461546002B00F09280072A00F29180EB
S31500004C380E9B002B00F08D800F9B002B00F08980C7
S31500004C48129BB3F5006F00F38480012801D1002F71
S31500004C587FD0484B03EB05131B7B002B7BD0464CC0
S31500004C681022002168462DF0B6F904EB45141022EF
S31500004C78B9F1000F5CD1494620462DF0ACF9A3786E
S31500004C8843F01003A370E37843F03003E370BAF1FE
S31500004C98000F03D1DBB243F00303E3703649129BDE
S31500004CA8CDF800B06A01013B885A01EB020C63F3A8
S31500004CB80E1088520E9BCCF808300F9BCCF80430A7
S31500004CC89DF84C109CF80330012E61F383038CF891
S31500004CD8033042D11323CCF80C309CE80F000CF1BA
S31500004CE8100E8EE80F00DCF81C20CCF814706FF05C
S31500004CF8030161F39F02B9F1010FCCF81C2004D11E
S31500004D080F9BCCF81830CCF804701A492A018B1876
S31500004D1841F802800027159A5A6028469F605E73FC
S31500004D282246694603F08EF9384605B0BDE8F08F8D
S31500004D38002120462DF04FF91023A3700323E370BA
S31500004D48BAF1000FAAD1DBB243F03003A5E70B484E
S31500004D58EBE70B48E9E70B48E7E7B8F1000FD4D1D2
S31500004D689CF8023068F304138CF80230CDE700BFD4
S31500004D78982B0020182A0020982A0020028000F08C
S31500004D88018000F0078000F038B5104B1B78054607
S31500004D98BBB1C0B102F055FC0D49002301EB03126B
S31500004DA8147B3CB92B6001231373146002F04FFC8B
S31500004DB8204638BD0133082BF0D102F048FC0548DF
S31500004DC8F7E70548F5E70548F3E700BF982B002005
S31500004DD8182A0020048000F0028000F0018000F00C
S31500004DE838B502F02EFC0B4A05460023D1180C7B79
S31500004DF85CB91033802BF9D103F0DAF8064B284654
S31500004E081C7002F024FC204638BD284602F01FFC20
S31500004E180248F9E7182A0020982B0020058000F0A0
S31500004E280D4B1B7810B5044693B1072812D802F02B
S31500004E3808FC0A4B03EB04131A7B2AB100241C73E3
S31500004E4802F005FC204610BD02F001FC0448FAE712
S31500004E580448F8E70448F6E7982B0020182A0020AB
S31500004E68068000F0028000F0018000F013B5164BB2
S31500004E781868019000238DF8043002F0E2FB134B0A
S31500004E881C7824B102F0E3FB114802B010BD0122E0
S31500004E981A7002F0DCFB0F4B1C731C7783F82C404E
S31500004EA883F83C4083F84C4083F85C4083F86C40B8
S31500004EB883F87C4004230DEB03008DF8073003F0DC
S31500004EC897F82046E1E700BF68200300982B0020EA
S31500004ED8038000F0182A002010B588B00E9C0794AD
S31500004EE80D9C06949DF8304005940B9C04949DF8FF
S31500004EF8284003940024CDE9013400920B4602466B
S31500004F0821462046FFF780FE08B010BD10B588B0D0
S31500004F180E9C07940D9C06949DF8304005940B9CB6
S31500004F2804949DF8284003940024CDE901340092A6
S31500004F380B46024601212046FFF766FE08B010BD63
S31500004F4808B50A4B1B785BB107280BD8084B03EB4F
S31500004F5800131B7B43B1002103F040F8002008BD75
S31500004F680448FCE70448FAE70448F8E7982B0020C9
S31500004F78182A0020028000F0018000F0078000F067
S31500004F8808B50A4B1B785BB107280BD8084B03EB0F
S31500004F9800131B7B43B1012103F020F8002008BD54
S31500004FA80448FCE70448FAE70448F8E7982B002089
S31500004FB8182A0020028000F0018000F0078000F027
S31500004FC808B50A4B1B7853B107280AD8084B03EBD8
S31500004FD800131B7B3BB103F087F8002008BD05488A
S31500004FE8FCE70548FAE70548F8E700BF982B0020D4
S31500004FF8182A0020028000F0018000F0078000F0E7
S315000050080D4B1B7893B1072812D889B10B4B03EBCC
S3150000501800131B7B73B10A4B1A6A012303FA00F0CB
S3150000502810401ABF00200B7008707047054870477B
S315000050380548704705487047982B0020182A002015
S3150000504800200E40028000F0018000F0078000F08A
S315000050580B4B1B7810B50C4663B107280CD859B111
S31500005068084B03EB00131B7B43B103F053F8206096
S31500005078002010BD0448FCE70448FAE70448F8E7AE
S31500005088982B0020182A0020028000F0018000F0EA
S31500005098078000F02DE9F843174E326EF36E12EAD8
S315000050A8030800D5FEE7154CDFF8549001270025C4
S315000050B818EA070F16D02368B7669BB1A16862681D
S315000050C80131A16028469847637B012B0AD148B96C
S315000050D809EB4513197B1A7F60F3410160F341021E
S315000050E819731A770135082D4FEA470704F110049A
S315000050F8DED1BDE8F88300BF00200E40182A002044
S31500005108982A002070B5094E0446012504B970BDD9
S3150000511894FAA4F0B0FA80F005FA00F324EA03043E
S3150000512856F82030002BF1D09847EFE79C2B00204B
S31500005138054B4FF40032C3F880211A604FF4007211
S31500005148C3F880211A60704700E100E038B50446CC
S315000051580D4602F076FA034B43F82450BDE8384072
S3150000516802F075BA9C2B0020074BD3F82804D3F815
S315000051781C24104020F42A5020F02A004004400C39
S31500005188C3F82404FFF7BEBF00A00040074BD3F8BE
S315000051982804D3F81C24104020F4AA4020F0550017
S315000051A80004000CC3F82404FFF7ACBF00A00040BD
S315000051B8104A4161136830B51546ABB91060836073
S315000051C811E0091B9C6841611A467CB123465C695B
S315000051D88C42F6D9002CF4D052B19060836013B19A
S315000051E85A69511A596130BD0022F0E72346F4E79F
S315000051F82860F3E7F02B002010B500F0B7FA094B4A
S31500005208094A196831B11368C41A4B69A34203D312
S315000052181B1B4B61106003E0C01A002310604B6132
S3150000522810BD00BFF02B0020E02B0020074B1B68A9
S3150000523810B55C69064B1B6802201C4400F0C4FAD2
S315000052482046BDE8104000F097BA00BFF02B0020BA
S31500005258E02B002070B59DF8145005710025164600
S315000052688560049ABDF81850C58004460260C0E9F6
S3150000527803360D4629B961610BB11146984796B1B7
S31500005288354602F0DEF90646FFF7B6FF2946204600
S31500005298FFF78EFF054B1B68A34201D1FFF7C6FF38
S315000052A8304602F0D4F9002070BD00BFF02B002074
S315000052B80C4A136800217BB183420AD1836879B10D
S315000052C88B6083681BB15A6941690A445A61002098
S315000052D8704719469B68EEE70028EFD00220704712
S315000052E81360EEE7F02B002070B5124D02F0A9F915
S315000052F82C780646CCB9104B1C60104B1C60104B22
S315000053081C8000F0F1F9012000F05EFA00F0AAFA1C
S315000053180C4B0246186040F2E73123460A482CF047
S3150000532897FC0A4B186001232B70304602F08FF960
S31500005338002070BDDC2B0020F02B0020E02B002085
S31500005348E82B0020EC2B002018FCFFFFE42B0020A4
S315000053582DE9F0410546F8B102F073F90F4F0646FC
S31500005368FFF74AFF2846D7F80080FFF7A1FF044653
S3150000537828B1304602F06BF92046BDE8F081A84511
S315000053883B6803D123B1FFF751FFF2E7002BF0D1B9
S31500005398022000F027FAECE72224EDE7F02B0020A4
S315000053A8F0B50D4685B016461F46044680B1FFF790
S315000053B8CFFFBDF82C3002939DF828300022CDE9A6
S315000053C80073294633462046FFF744FF05B0F0BD73
S315000053D82220FBE738B50C46054698B191B1002363
S315000053E80B7002F02EF9084B1B6801210BB12278CD
S315000053F81AB102F02CF9002038BD9D420CBF21706D
S315000054089B68F3E72220F7E7F02B0020F0B587B07A
S315000054181F4600230D4616468DF817300446A0B1E0
S315000054280DF11701FFF7D6FF9DF817207AB9BDF8D9
S31500005438343002939DF830302946CDE90073204672
S315000054483346FFF707FF07B0F0BD2220FBE703202E
S31500005458F9E70000F8B50C460646C8B1C1B102F036
S31500005468F0F80546FFF7C8FE73692360134B1B68FF
S31500005478B3420FD023B9284602F0E9F803201CE00E
S31500005488596922689B680A442260F1E700230FE005
S31500005498222012E00A4E276800F068F93368C01A1D
S315000054A88742F3D900F062F93368C01A23681B1AD9
S315000054B82846236002F0CBF80020F8BDF02B002028
S315000054C8E02B002070B502F0BCF8064600F04EF955
S315000054D8094B1C8805460120A4B200F09BF918B1B7
S315000054E800F044F901340546304602F0B0F80022CF
S315000054F842EA0500214670BDE82B00200A4B1B68CE
S31500005508834210B50C460CD3084B19684FF47A72CF
S315000055180023A0FB01012CF09BFB0130206000203A
S3150000552810BD2120FCE700BFE42B0020EC2B002057
S31500005538104B1A684FF47A7310B5A0FB0301A2B199
S31500005548531E134211D1B2FA82F2C2F11F02C2F1FE
S315000055582004A2F1200301FA04F420FA02F22243FD
S3150000556821FA03F342EA030010BD00232CF070FB76
S31500005578FAE700BFEC2B0020F8B516461BA3D3E9C3
S3150000558800238B4208BF82422AD3174B1A684FF46E
S315000055987A73A0FB034503FB0155C2B1531E13EAF8
S315000055A8020014D1B2FA82F2C2F11F02C2F1200738
S315000055B8A2F1200124FA02F305FA07F73B4325FA7C
S315000055C801F10B4325FA02F2C6E90032F8BD0023C1
S315000055D8204629462CF03CFBC6E900010020F5E7E9
S315000055E82120F3E7AFF30080EC2B0020EFA7C64B92
S315000055F837894100C2072DE9F84F04460BD5374ACB
S31500005608138801339BB21380FFF7F6FD344B1B68F2
S315000056180BB1FFF70BFEA3075DD5324EDFF8C0903E
S3150000562800F0A4F835680746451B02F00AF84FF063
S31500005638000A8046D9F80040002C48D06369AB427E
S3150000564809D95D1B65613760FFF7F0FD4046BDE887
S31500005658F84F01F0FCBF376023462A465969914244
S3150000566809D8187994F804C0844588BF1C469B68F5
S31500005678521A002BF2D1404601F0E9FFD4F8148003
S31500005688C4F814A001F0DDFF83462046FFF710FE9C
S31500005698584601F0DCFF23694BB101F0D2FF2169BE
S315000056A883462046FFF784FD584601F0D0FFE3689D
S315000056B813B121682046984700F058F84744ED1B77
S315000056C80446054401F0BDFF27468046B2E702209E
S315000056D800F088F8BAE7BDE8F88F00BFE82B00208D
S315000056E8F02B0020E02B002010B51C4B86B0596823
S315000056F8186803AA03C2197A53F8090F11700190A2
S315000057089A8817489B79ADF8082001218DF80A3048
S31500005718002401F0F9FB03A88DF80C408DF8104021
S3150000572802F0A2FE01A901208DF8044002F07CFED9
S315000057380C4A536A23F4FF6323F00703536240F2CB
S31500005748FF7313620120946002F088FE064B4FF047
S315000057580052C3F880211A6006B010BD6C20030001
S31500005768A00914000020044000E100E0014B9868FD
S31500005778704700BF00200440114A9368516D926932
S31500005788520704D4CA1A022A01D899420DD1C21A5C
S31500005798012A98BF981C0A4BB0F1FF3F28BF013079
S315000057A858655A6A42F004025A62064A137833B1B7
S315000057B803490B6D43F002030B6500231370704712
S315000057C8002004408C1C00208207054A00F00103D3
S315000057D8516A48BF43F004030B435362704700BF46
S315000057E800200440830700F0010209D5074B012178
S315000057F8197007490B6D23F0030342F004020B6589
S3150000580803494B6A23EA02034B6270478C1C00204B
S3150000581800200440064B01289B6904D0022805D1C4
S31500005828C3F38000704703F00100704700207047FB
S315000058380020044010B501F004FF094A93690446A4
S31500005848590703F0010003F0070348BF40F00200C0
S315000058581362FFF7CFFE2046BDE8104001F0F7BE01
S3150000586800200440014801F085BC00BFA0091400CF
S31500005878044B1B6800EB8000A3EBE00080F30800F4
S31500005888704700BFF82B0020174B402870B59C685E
S3150000589824DD5028B4BF012302231449144A154DA8
S315000058A8DE00314403C982E80300134A324492E811
S315000058B80300012C85E8030003D10B4A4AF6E85198
S315000058C89160012B0CD0022B0CD0002002F0A4FA18
S315000058D8012C02D1044B00229A6070BD0023DCE73C
S315000058E80120F3E70220F1E700300E40002C0020EB
S315000058F8402C0020702C0020182C0020FFF7C4BF75
S31500005908044B4FF04042DA621A6B22F040421A63A7
S31500005918704700BF00300E402C48F0B500220368DF
S315000059282B4D114654592CB11E68AC18002E36D191
S31500005938234601210832302AF4D101B103602549F2
S31500005948254E0B680022144695592DB11F68B518C7
S31500005958002F2BD12B4601240832302AF4D104B16A
S315000059680B6000681D4B026842B3DA69007922F0C1
S31500005978FF020243DA611A6B42F0804209681A6331
S315000059880A68164BF2B1DA69097922F47F4242EACB
S315000059980122DA611A6B42F000421A63F0BD1E79E1
S315000059A82779B74284BF23460121C3E71F7995F8B3
S315000059B804C0BC453CBF2B460124CDE71A6B22F038
S315000059C88042DBE71A6B22F00042E6E7302C002023
S315000059D8402C0020342C0020702C002000300E4073
S315000059E808490B6A0A6ADBB2D2B29342F9D1064A6F
S315000059F80520DB00B3FBF0F31068C31A03F30700B6
S31500005A0840B2704700300E40FC2B002070B5144C95
S31500005A18226B616A0A4011D5124B1B681E6836B1A3
S31500005A2800251D605D60FFF7DBFF2946B0474FF094
S31500005A380043E362BDE87040FFF76EBF5300F9D537
S31500005A48094B1B681C6834B100221A605A60FFF7BC
S31500005A58C7FF0121A047024B4FF08042DA62E9E70F
S31500005A6800300E40342C0020302C0020FFF7CEBF2B
S31500005A782D4B37B501221A70002130222B482CF005
S31500005A88AAFA302200212A482CF0A5FA294A2A4BDC
S31500005A9813602A492A4A13600A684B6DC2F3074203
S31500005AA8FF2A02D0DBB2FF2B01D19023192202EB89
S31500005AB88201244803EBD1010160DB000521B3FB19
S31500005AC8F1F31344204A01A8136002F001FD9DF882
S31500005AD80530012B1BD14120FFF7CAFE1B4C1C4980
S31500005AE8207139202160FFF7C3FE05465020FFF7D5
S31500005AF8BFFE184A2073157391604820A160FFF70E
S31500005B08B7FE10751161FFF76BFFFFF7BDFEFFF7D4
S31500005B18F7FE114B0122C3F880211A60FFF7FCFE3D
S31500005B28002003B030BD00BFF42B0020402C00201D
S31500005B38702C0020302C0020382C0020B081E00F7B
S31500005B48342C0020F82B0020FC2B0020002C0020F1
S31500005B5805590000182C002000E100E038B141B1D9
S31500005B68013AB2F5006F044838BF00207047034871
S31500005B7870470148704700BF037000F0027000F0DC
S31500005B880D490E4A0B7810B54BB9C2E90033C2E984
S31500005B98023301240C7042F82300002010BD0023B4
S31500005BA852F823100029F6D08142F4D00133042B91
S31500005BB8F6D10348F2E700BFB02C0020A02C002045
S31500005BC8027000F038B504460D4601F03AFDA28889
S31500005BD892B222B92A6001F03AFD064838BD6388B8
S31500005BE8142202FB034308332B6001F030FD00202A
S31500005BF8F4E700BF0B7000F038B504460D4601F017
S31500005C0820FDA3889BB223B92B6001F020FD0C4828
S31500005C1838BD6388E188142202FB034308332B60EE
S31500005C2863885A1C92FBF1F301FB13239BB2638032
S31500005C38A388013B9BB2A38001F009FD0020E7E79A
S31500005C480B7000F07FB5012380F82C3090F83230C5
S31500005C5893B90C4A036803920022049002924A6898
S31500005C680192012200920A68016980681C33FFF7D5
S31500005C784DF907B05DF804FB012BEAD0002380F844
S31500005C882C30F6E7DD6400007FB5012380F82D305F
S31500005C9890F8323083B9026834320D4B03930023EF
S31500005CA8049002934B680193012300930B68C16823
S31500005CB84068FFF711F907E0012B02D10268283284
S31500005CC8EBE7002380F82D3007B05DF804FB00BF32
S31500005CD8DD5C0000F7B5906A01A91446FFF772FF6C
S31500005CE8144B984220D0019B00251D619D6001F050
S31500005CF8A8FC019AD668074626B1D2E900232946A8
S31500005D082046B04701A9A06AFFF776FFA06A8388F4
S31500005D189BB263B101A9FFF755FF01992046FFF72A
S31500005D28B3FF384601F093FC012003B0F0BD84F8B8
S31500005D382D30F6E70B7000F0427E30235343044AB9
S31500005D481A44437F03EBC2039B001868C0B270472E
S31500005D581CA0104213B51D4A002352F82340617F48
S31500005D6881420ED00133042BF7D102B010BD0028B2
S31500005D78FBD19DF80730002BF7D06068FFF7E0F8F5
S31500005D88F3E794F83130022BEFD12046FFF7D4FF22
S31500005D98637D2075022BE8D194F82E3003F0FF02BC
S31500005DA8002BE2D102A9606801F8012DFFF728F956
S31500005DB8237D1BB194F82F30002BD8D0002384F80C
S31500005DC82F306068FFF7DCF8CFE700BFA02C002073
S31500005DD890F8323053B903680122DA601A69D0079D
S31500005DE8FCD55A6F42F001025A677047012B0CD155
S31500005DF803685A6C9107FCD401225A609A68D20744
S31500005E08FCD55A6D42F001025A65704790F8323057
S31500005E183BB903685A6F22F001025A670222DA6018
S31500005E287047012B09D103685A6C9207FCD45A6D46
S31500005E3822F001025A6502225A60704710B50446DC
S31500005E48FFF714F80021201DFEF79EFF014608B152
S31500005E58044810BD04F10800FEF796FF0028F8D0A4
S31500005E68F6E700BF0E7000F0F8B5044617460D4673
S31500005E7801F0E7FBA388E2889A42064605D8002384
S31500005E883B6001F0E4FB1648F8BD2388142202FBA8
S31500005E980343083305F1100C2A4603CA6245186005
S31500005EA85960154603F10803F6D11068186023886F
S31500005EB8E188142202FB034308333B6023885A1CFB
S31500005EC892FBF1F301FB13239BB22380A3880133D2
S31500005ED89BB23046A38001F0BAFB0020D4E700BF8E
S31500005EE80A7000F073B504460D46C07DE67E0029AB
S31500005EF834D001230422314602F018F80123022285
S31500005F08217F207E02F012F894F83130022B16D148
S31500005F1800230122617F607E02F008F80023042234
S31500005F28A07EA17F02F002F80123627F607E0193C2
S31500005F380093114601F0AEFF002002B070BD032B9E
S31500005F48FAD100230122617F607E01F0EFFF002372
S31500005F580422A17FA07E01F0E9FFEDE70B460A4681
S31500005F68314601F0E3FF2B462A46217F207E01F0C9
S31500005F78DDFF94F83130022B10D12B462A46617F7B
S31500005F88607E01F0D3FF2B462A46A07EA17F01F052
S31500005F98CDFF627F607E01950123C9E7032BCBD134
S31500005FA82B462A46617F607E01F0C0FF2B462A46B3
S31500005FB8CFE790F8323013B9036818697047012B98
S31500005FC81CD103689B6803F00200DA0748BF40F05B
S31500005FD80100590748BF40F008001A0748BF40F0BB
S31500005FE82000D90648BF40F040009A0648BF40F056
S31500005FF880005B0603D540F40050704700207047C8
S315000060082DE9F3410D460446002879D001F019FB25
S31500006018012D06463BD1A36A9B889BB2002B3DD037
S315000060286068FEF7CDFF0023A06A84F82D308388C8
S315000060389BB273B101A9FFF7C5FD01996068364F98
S315000060480831FFF705F8019B1F61A06A83889BB298
S3150000605853BB2046FFF7ADFF8304FAD5023D012D59
S3150000606810D8A068FEF7ACFF0023606A84F82C30CD
S3150000607883889BB23BBB94F83130032B02D0204671
S31500006088FFF7C4FE304601F0E2FA002009E0022DCF
S3150000609838D1636A9B889BB2002BDFD101F0D7FA0F
S315000060A81E4802B0BDE8F08101A9FFF7A5FD019BD6
S315000060B8D3F80C80B8F1000FC7D09B680022394688
S315000060C82046C047C1E76946FFF77CFD0099A068EE
S315000060D8114F0831FEF7BCFF009B1F61606A838879
S315000060E89BB2002BC7D06946FFF786FD009BDD688B
S315000060F8002DF3D09B68002239462046A847EDE7D5
S315000061080748CEE7032DA9D1A36A9B889BB2002B2B
S3150000611886D1636A80E700BF097000F0087000F056
S31500006128027000F0436A9888C0B270472DE9F341BF
S315000061380546406A84889846A4B200230E46174648
S31500006148CDE900333CB16946FFF73CFD01A9044699
S31500006158A868FEF77DFF009971B16CB94868019B84
S31500006168C01A3860C8F800300B6833602846FFF755
S3150000617820FF02B0BDE8F0810021C8F800103960A0
S315000061883160F3E7836A9888C0B270472DE9F34116
S315000061980546806A84889846A4B200230E461746A8
S315000061A8CDE900333CB16946FFF70CFD01A9044669
S315000061B86868FEF74DFF009971B16CB94868019B94
S315000061C8C01A3860C8F800300B6833602846FFF7F5
S315000061D8F0FE02B0BDE8F0810021C8F80010396071
S315000061E83160F3E7007D70472DE9F04104460E461D
S315000061F81746FFF7B3FC804650BB082001F046FA65
S315000062080546A26A93889BB213B194F82E3013B34D
S3150000621894F8322022BB23681D6915F0020533D095
S31500006228012384F83030002A3FD13744BE42206823
S3150000623836D103699E06FCD555B994F83230002B41
S3150000624842D123685A6F22F002025A670822DA609E
S315000062584046BDE8F081002DD4D0FEF71BFFD0E7FD
S31500006268012A1BD123689D6815F00205D8D1596CFF
S315000062788807FCD40421596099688907FCD5596DAB
S3150000628841F002015965CBE70421D96019698907EC
S31500006298FCD5596F41F002015967C1E70025BFE7F0
S315000062A816F8011B02F052FAC0E7012AD0D137448A
S315000062B8B742206803D183681907FCD5BCE716F8EE
S315000062C8011B01F06CFFF3E7012BC1D123685A6C5F
S315000062D89207FCD45A6D22F002025A6508225A60C7
S315000062E8B6E7000010B50446B0B190F82E3033B9C1
S315000062F890F83130022B0AD06068FEF721FE94F838
S315000063082E300133DBB284F82E30002010BDFFF7A3
S3150000631813FD0028F3D1EFE70048F7E7027000F015
S3150000632810B50446D0B190F82E30CBB190F82E3087
S31500006338012B06D190F83130022B0AD06068FEF79F
S315000063481FFE94F82E30013BDBB284F82E30002075
S3150000635810BDFFF7F1FC0028F3D1EFE70148F7E796
S315000063680148F5E7027000F0057000F037B590F8BF
S315000063783150022D044618D1A37F407D01229A4050
S31500006388A37E30215943134B0B4410B903F18063A4
S3150000639803E0012805D103F1C0631A60002003B0A9
S315000063A830BD217D0029F6D1F0E7012DF6D1037D18
S315000063B873B911238DF80730FFF794FF2A460DF1BC
S315000063C807012046FFF710FF2046FFF7A9FFE5E77C
S315000063D81323EFE70CA0004090F83130032B05D0CB
S315000063E80229417518BF0175FFF7C0BF00487047FD
S315000063F8057000F010B5044600283AD00321FFF7CF
S31500006408FFFD00212046FFF7E7FF00212046FFF7A2
S3150000641869FD94F8323003BB23680A22DA6000214A
S31500006428206A00F071FD94F83130032B03D0002167
S31500006438607FFEF78BFE6068FEF7F2FCA068FEF749
S31500006448EFFCFEF7CDFC636A002018805880988020
S31500006458A36A18805880988010BD012BDFD1206868
S3150000646801F089FE23685A6C9207FCD40A225A6006
S31500006478D5E70148F0E700BF027000F0F0B587B035
S3150000648804461646FFF76AFB0546F0B9CDE901163C
S3150000649804936A460E4B606A039601A90593FFF7B3
S315000064A8E3FC054688B994F82C3073B92046FFF703
S315000064B88FFC00992046FFF7C5FB94F83130032B73
S315000064C803D025752046FFF751FF284607B0F0BDD3
S315000064D8017000F073B5506A01A91446FFF772FB04
S315000064E8334B98422FD094F83200019B002836D1BE
S315000064F82268116C11F4007128D02E491961986030
S315000065084FF40073936401F09CF80199CD68064630
S3150000651835B14A688B682046D31A0A680969A847BC
S3150000652801A9606AFFF768FB606A8588ADB2002D2D
S315000065382FD001A9FFF746FB01992046FFF782FBFA
S31500006548304601F084F8012002B070BD106CC50514
S315000065581BD51948186199604FF48073D2E7012852
S3150000656813D12268D16A11F0800106D01149196148
S315000065780021996080235363C5E7D06A400604D595
S315000065880D48186199604023F5E700221A619A6060
S31500006598B9E7012323752046FFF7E8FE94F8313062
S315000065A884F82C50032BCBD02046FFF72FFCC7E7E7
S315000065B80B7000F00D7000F00C7000F02DE9F04142
S315000065C8094F04460D460FCF88B001AE0FC697E8AF
S315000065D8070086E80700002C00F0348245B9034E10
S315000065E8304608B0BDE8F0818C200300037000F047
S315000065F83822002120462BF0EEFC2046FFF7C0FA91
S3150000660806460028ECD12B7C84F83130C64A2B6824
S315000066182360934284F8320040F07B81C34B2362A7
S31500006628C34BE3604FF440232361D5E906230026D4
S31500006638626216805680968084F82C60A3621E805B
S315000066485E809E806B6803936B89ADF81430AB89C6
S31500006658ADF81230AB7B8DF810300121EB7BB548D5
S3150000666884F82D6084F82F6005278DF816308DF88C
S31500006678117000F049FC0121AF4800F045FC0121EA
S31500006688206A00F041FC01A928688DF8046002F030
S315000066981FF828686A7A816F2B7ADFF88CC221F492
S315000066A8F85121F01F01114341EA032181670321B3
S315000066B841672068604540F04781BB4216D9981F5C
S315000066C8042840F25D81A3F10B00B84240F25A81DA
S315000066D8A3F11100062840F25781A3F118010629F3
S315000066E840F254811F2B14BFFF263E46042AE67546
S315000066F840F24E81511F042940F24C81A2F10A0151
S31500006708052940F24981A2F11001062940F2468185
S31500006718A2F11701072940F243811F2A14BFFF215E
S3150000672800212176002B58D0012B56D0022B54D0AD
S31500006738032B52D0042B50D0052B4ED0062B00F03D
S315000067483981072B00F03881082B00F03781092B97
S3150000675800F036810A2B00F035810B2B00F04081C2
S315000067680C2B00F01F810D2B00F01E810E2B00F064
S315000067781D810F2B00F01C81102B00F01B81112BA3
S3150000678800F01481122B00F01381132B00F01281F4
S31500006798142B00F01181152B00F01081162B00F038
S315000067A80F81172B00F00E81182B00F00D81192B85
S315000067B800F00C811A2B00F00B811B2B00F00A81CC
S315000067C81C2B00F009811D2B00F008811E2B00F000
S315000067D807811F2B0CBF0723FF23E376002A00F04F
S315000067E81381012A00F01281022A00F01181032A7E
S315000067F800F01081042A00F00F81052A00F0F880C5
S31500006808062A00F0F780072A00F0F680082A00F02A
S31500006818F580092A00F0F4800A2A00F0FF800B2A86
S3150000682800F0FE800C2A00F0DD800D2A00F0DC80E6
S315000068380E2A00F0DB800F2A00F0DA80102A00F01A
S31500006848D380112A00F0D280122A00F0D180132AB0
S3150000685800F0D080142A00F0CF80152A00F0CE80F0
S31500006868162A00F0CD80172A00F0CC80182A00F0EE
S31500006878CB80192A00F0CA801A2A00F0C9801B2A80
S3150000688800F0C8801C2A00F0C7801D2A00F0C680C8
S315000068981E2A00F0C5801F2A14BFFF230023237772
S315000068A86B7C6376AB7C6377EB7CA3762B7DA377D7
S315000068B801212046FFF716FB064600287FF490AE16
S315000068C800F0BFFE2F7C032F804640F0AB802B687C
S315000068D82A8CDA675A6E42F004025A665A6F42F0F8
S315000068E830025A6728684FF0FF3383642B7C032BEA
S315000068F80CBF0521042101F0C1FE2B684FF440624C
S31500006908DA602046FFF79AFA0646404600F09FFEF0
S3150000691866E60A4A93427FF462AE094B2362094B44
S31500006928E3604FF450237FE6000001400022040094
S3150000693801000C004041050000250A000004014042
S315000069480032040001000D00DFF804C160457FF441
S3150000695846AE052B7FF6CAAE981F042810D9A3F1B8
S315000069680B0005280ED9A3F1110006280CD9A3F1AE
S31500006978180106290AD91F2B14BFFF260526B5E6D6
S315000069880126B3E60226B1E60E46AFE63E46ADE67A
S315000069980021C6E60121C4E60221C2E60321C0E6BB
S315000069A80521BEE6072318E7082316E7092314E797
S315000069B80A2312E70B2310E70C230EE70D230CE737
S315000069C80E230AE70F2308E7002306E7012304E757
S315000069D8022302E7032300E70423FEE60523FCE679
S315000069E80623FAE608235AE7092358E70A2356E74F
S315000069F80B2354E70C2352E70D2350E70E234EE7EB
S31500006A080F234CE700234AE7012348E7022346E71A
S31500006A18032344E7042342E7052340E706233EE72A
S31500006A2807233CE7022F7FF45DAF607F0649FEF738
S31500006A388DFBFEF77DFBA675267567752046FFF765
S31500006A4895FC4FE7014ECBE55D5D0000027000F056
S31500006A580004014090F83120012A10B5034610D1F0
S31500006A6802290ED0827D8A4201D1002010BD997577
S31500006A7811B9FFF755FCF8E70129F6D1FFF732FC03
S31500006A88F3E70148F2E700BF057000F0F0B587B0FC
S31500006A9804461646FFF762F8054600BBCDE901161F
S31500006AA804936A460F4BA06A039601A90593FFF75C
S31500006AB8DBF9054698B994F82D3083B900F0C1FD85
S31500006AC8A36A9B889BB2064633B100992046FFF716
S31500006AD8DBF8012384F83030304600F0B8FD28464C
S31500006AE807B0F0BD017000F070B588B00D22002126
S31500006AF8294C2A4E04A82BF06EFA00250223012100
S31500006B0827488DF81010CDE9015503958DF80A3000
S31500006B1800F0FAF9294601AA204601F046FD4FF68B
S31500006B28FF73E3618DF81250354604A9204601F03B
S31500006B38E9FC1C4800F01EFB9DF81230D8400133D2
S31500006B48DBB20A2B30608DF8123002D8164B984209
S31500006B58EBD81648164C00F00DFB1649B1FBF0F1C0
S31500006B682868154A0025E1FB0045002320462946EA
S31500006B782BF06EF8114B084A1860114B002018705C
S31500006B88936923F0100393610E4B4FF48062C3F8A8
S31500006B9880211A6008B070BD00800140B42C002026
S31500006BA8000204004041050080841E0070000200B7
S31500006BB820A1070000B0710B40420F00B82C00203E
S31500006BC8BC2C002000E100E01E4BF7B519681E4CEE
S31500006BD81E4A1F4E0025E0FB014520462946002394
S31500006BE82BF036F8DFF86CC04FF6E85400254FF660
S31500006BF8E75E4FF0FF378D4208BF844211D380B25B
S31500006C0860B1144A516A89B2536A9BB2ADF806302C
S31500006C18BDF806305B1A9BB29842F5D8002003B03F
S31500006C28F0BDDCF8242092B2DCF824309BB2ADF833
S31500006C380430BDF804309B1A9BB27345F4D9801909
S31500006C487941D8E7B42C002020A1070040420F0064
S31500006C581802FFFF00800140044BDA68D20604D50B
S31500006C6810225A61024B01221A70704700800140B7
S31500006C78BC2C00202D4B002A70B52D4D446B08BF47
S31500006C881D462C4B14BF1026002698423AD10229DD
S31500006C983FD004D8B9B1012921D000232DE0062917
S31500006CA831D0812935D00329F7D1234B1A681968C1
S31500006CB81B68120C1B0C03F0F00302F4FE421A4385
S31500006CC8C1F3034318E01D490B680A6803F4FE4341
S31500006CD802F00F021A430B6803F0F0030CE0174AA0
S31500006CE81368116812681B0C120C02F0F00203F408
S31500006CF8FE431343C1F303421343B3402C400D4AEA
S31500006D082343536370BD0E4B1A681B6802F00F02CB
S31500006D18E2E7094A13681168126803F4FE4301F0B2
S31500006D280F010B4302F0F002E6E700BF0080FFFF09
S31500006D38FFFF0080002000401482E00F1082E00F61
S31500006D481882E00F38B50C46022383600022897842
S31500006D580546FFF78FFF227960786179130243EAC7
S31500006D68006343EA0143E17843EAC103E17909B1E3
S31500006D7843F00053217A09B143F00403A17909B11C
S31500006D8843F00203617A09B143F00103F32AA178BB
S31500006D9806D129B903289CBF23F0706343F08063AA
S31500006DA848B20028ACBF43EA411343F0E0032B6125
S31500006DB86B69002823F4F21323F00703BCBF21F004
S31500006DC880010B43217843EA4143E17A09B143F450
S31500006DD880436B616B0103F18443A17A99606B016F
S31500006DE803F1844303F5C863F32A0CBF012200228A
S31500006DF81A60EB6FD5F88030EB6838BD0C4B9842BB
S31500006E0810D90C4B984210D9022201230A490B606B
S31500006E180A49D1F8003123F0807343EA0263C1F8C6
S31500006E280031704700221346F0E70122FBE700BF56
S31500006E380048E8010090D0034000C84300400E40D7
S31500006E480A490B4B88425A680BD90A4988420AD91B
S31500006E5802F040715A6822F0407242EA01625A60B2
S31500006E6870470021F6E70121F4E700BF40787D016D
S31500006E7800000E40005A620238B5064C41F67133DE
S31500006E88256C236401F0D8FCFFF7DAFF0DB1002367
S31500006E98236438BD00000E40044BD3F84421D207C2
S31500006EA803D4D3F840211042FBD1704700400E406E
S31500006EB80C4AD2F89030516A0B4B21F0300141F060
S31500006EC8100110B55162146BC0F3C31103310F29B9
S31500006ED803EA040328BF0F21034343EA017313633C
S31500006EE810BD00BF00400E4000F8FF0F38B5054C36
S31500006EF841F67133256C2364FFF7A2FF0DB1002319
S31500006F08236438BD00000E40C0F30322013A38B5A9
S31500006F180546092A13D8DFE802F0231312120516CC
S31500006F2819121C20104C0020C5F3043508B1FFF7D0
S31500006F38B3FF04F1047405EBC404A400216038BD52
S31500006F4800200A4CF0E70120094CEDE71020094C17
S31500006F58EAE74FF48030084CE6E70020074CE3E701
S31500006F680020074CE0E700BFB0400E40C0400E408E
S31500006F78E0400E40E8400E40F0400E4050410E40C2
S31500006F8800400E40C0F30313013B092B3FD8DFE84E
S31500006F9803F0050B0F193E3E1F232C351D4BD3F866
S31500006FA80001C0F3042070471A4BD3F81401F8E720
S31500006FB8184BD3F80001C0F30060431C0120984029
S31500006FC801387047134BD3F80C01C0F308207047FB
S31500006FD8104BD3F80801F8E70F4B984217D10D4B21
S31500006FE8D3F8203103F00F03E8E70C4B98420ED193
S31500006FF8084BD3F8283103F00303DFE7084B984220
S3150000700805D1044BD3F8300100F00F00704700207B
S31500007018704700BF00400E408006160090071A0011
S31500007028A009140008B5FFF7ADFF013008BD000040
S3150000703800F00F000138072848D8DFE800F0040FF1
S315000070481947232D4735244BD3F8943003F007030B
S31500007058023B022B3CD8214AD05C70471E4BD3F822
S31500007068803003F00703013B032B33D81C4AF3E7B0
S31500007078194BD3F8843003F00703013B032B29D8B7
S31500007088184AE9E7144BD3F8883003F00703013BA5
S31500007098032B1FD8144ADFE70F4B1B6F13F0010FA2
S315000070A814BF0920072070470B4BD3F85C3103F057
S315000070B83003202B06D0302B06D0102B0CBF072010
S315000070C80120704704207047082070470020704749
S315000070D8052070470120704700400E40A820030095
S315000070E8AB200300AF200300AB20030008B5014620
S315000070F8FFF79EFF1B4B994211D01B4B994212D0AA
S315000071081A4B994204D11A4BD3F8800000F00700B5
S315000071180138032824D8DFE800F00A0E1612144BAB
S31500007128D3F88400F2E7124BD3F88800EEE7BDE8FF
S31500007138084001F0F7BBBDE8084001F0F9BBBDE81F
S31500007148084001F0F2BB01F07BFB094BD3F8003194
S31500007158C3F300635A1C01239340B0FBF3F008BD48
S315000071680020FCE7030020000500240002001E00A2
S3150000717800400E4000F47813B3F5A01F10B504467E
S3150000718859D01FD8B3F5202F07D00AD8B3F5003F3A
S3150000719846D0B3F5802F38D0ABBBBDE8104001F020
S315000071A84FBBB3F5602F5DD0B3F5801F6FD0B3F535
S315000071B8402F28D101F044FB404BD3F81431C3F3D8
S315000071C8042329E0B3F5001F3FD013D8B3F5D01F29
S315000071D83DD0B3F5F01F29D0B3F5B01F13D1384809
S315000071E8FFF784FF354BD3F8202102F00F02012365
S315000071F8934012E0B3F5481F3CD0B3F5781F53D03F
S31500007208B3F5101F2CD0002010BD01F019FB2B4B35
S31500007218D3F80C31C3F308230133B0FBF3F0F3E7DB
S3150000722801F00EFB254BD3F80831F3E72448BDE8F7
S315000072381040FFF75BBF2348FFF758FF1F4BD3F8F3
S31500007248303103F00F03D840DEE71F48EFE71E484A
S31500007258FFF74CFF194BD3F8282102F00302C6E7C3
S315000072681848E4E71948FFF7E3FE07280FD009286E
S31500007278C9D192E71648FFF7DBFE072807D008288A
S3150000728808D00428BFD1BDE8104001F00FBB114B50
S315000072981868B9E701F0D4FA084BD3F80031C3F3FC
S315000072A8042303FB0000AFE701F0CAFA01462046B3
S315000072B8FFF7B8FEB1FBF0F0A6E700BF00400E40AE
S315000072C802001E00050024000300200006000E0030
S315000072D8B8003200901C00200E4B5A6A12F0300F8C
S315000072E804D0202913D0302900D011B94FF4400218
S315000072F800E0094AD3F8901032EA0101FAD15202A5
S3150000730846BFD3F8A000C0F38020012070474FF491
S315000073180002EFE700400E40FF03E10702280AD10A
S3150000732829B1064B4FF48060C3F8A800596612B11C
S315000073380220FFF7D1BF0120704700BF00400E4072
S31500007348F8B504284ED8DFE800F00A03116D72007C
S31500007358802640240623072500294FD046E04FF40F
S3150000736800764FF4807408230925F5E7002942D0F2
S31500007378314C636A13F0300F35D1636ADB0705D5E4
S31500007388636A23F0300343F0100363620424022384
S315000073980325294E3466294E33449B001F68002F67
S315000073A8FCD0FAB13544AD002B68002BFCD002287E
S315000073B818D1B9B1204E716A11F0010118D0012215
S315000073C82021FFF7ABFFD6F89C700122002102208E
S315000073D8FFF7B6FFC7F30A00FFF76AFD34662B68A6
S315000073E8002BFCD0F8BD0424022303250021D0E796
S315000073F8FFF772FFE7E70826022303250E49012057
S315000074080E6600FA03F3D1F890001842FBD1002A61
S31500007418E8D00123084A03FA05F5D2F890302B4242
S31500007428FBD1DFE7012402260023254694E7202620
S315000074381024042305258FE700400E408004F2102F
S3150000744800F00F00013810B5072843D8DFE800F030
S315000074580F043E423C5C42674A4C0139092939D837
S31500007468DFE801F0503940383847383838360239BD
S3150000747803292FD8DFE801F02502191F012003246C
S3150000748801221146FFF75CFFFFF7F6FC3E4B5C67EF
S3150000749801F0FAF9044601F0D3F9FFF7AFFC2046EC
S315000074A80021BDE81040FFF721BD3848FFF7A6FCCC
S315000074B802200446E4E73548FFF7A0FC0124032030
S315000074C8DEE700200424DBE7314CC6E7314CC4E78D
S315000074D80423236010BD012211460020FFF730FF68
S315000074E80223F6E7012211461046FFF729FF01237A
S315000074F8EFE701F0A5F9FFF781FC274B01221A6097
S315000075080323E6E70023E4E7072904D00929E1D1A4
S315000075181D4B012201E01C4B00221A67DAE70139EC
S315000075280729D7D801A353F821F000BF87750000B3
S31500007538DD740000DD74000079750000DD7400005C
S31500007548DD7400006B7500005575000003220E49B6
S31500007558D1F85C3123F0300343EA0213C1F85C31F9
S31500007568B8E7012211460420FFF7EAFE0122EEE7FA
S31500007578012211460220FFF7E3FE0222E7E7002276
S31500007588E5E700BF80400E4000400E400148E80194
S3150000759888400E4084400E400016C84310B5044685
S315000075A81120FFF745FD012200210220FFF7C8FE42
S315000075B81A4A217C536A23F00103022908BF43F0C3
S315000075C801035362164B21781960936AE17A23F016
S315000075D807030B439362A188637A43EAC123D36204
S315000075E8136BA07A217A03F07F630343E08843EAAA
S315000075F8C02343EAC11303310F2928BF0F2143EAE9
S3150000760801731363A37B617B1B0143EA0133E17BAF
S315000076180B43217B43EA0143536310BD00400E40F0
S31500007628A004C843EFF3108072B6704700B962B67B
S315000076387047602383F311887047002383F311880A
S315000076487047EFF31180602383F31188704780F346
S3150000765811887047EFF31083DB0706D4EFF3118028
S315000076685F2894BF00200120704701207047000062
S315000076784109054A00F01F0352F82100D840C043CB
S3150000768800F00100704700BF00E100E010B50446B5
S31500007698EFF31083DB0733D4FFF7EAFF00282ED178
S315000076A8002CA7BF04F1604404F5614404F00F04FC
S315000076B8144BACBF94F800231A5D5209EFF31183FB
S315000076C813B1B2EB531F1BD20F4C6368C3F3080305
S315000076D8ABB1103BDBB259B20029B5BF03F00F03BB
S315000076E801F16043043B03F56143B6BF1B1993F8E8
S315000076F80003187E4009824234BF0020012010BDD5
S315000077080120FCE714ED00E000ED00E01848194BF5
S31500007718C26C1B88C2F303222833013202EB8201B2
S3150000772803EB5303B3FBF1F3C16C013B072B21F0C9
S31500007738EE6128BF072341F4801141EA0363C3645D
S315000077480D4BB3F90030002B10DB2833510801EB41
S31500007758420203EB5303B3FBF2F3026D072B28BF78
S31500007768072322F0700242EA03130365704700BF3D
S3150000777800300E40C62C0020C82C0020084B1A7872
S31500007788013A012A0BD8074A126C02F00302012AB1
S3150000779803D105490A68D203FCD503221A7070473B
S315000077A8D02C002000300E407C300E40054A064B97
S315000077B8D16C1960D36C23F47F4343F4EE43D3644E
S315000077C8FFF7A4BF00300E40CC2C002008B5054BAF
S315000077D8D3F89020044B11201A60FFF729FC034BBD
S315000077E8187008BD00400E40C02C0020D12C002087
S315000077F8114A38B545F60E03104CD2F88051C2F836
S315000078088031216821F0AA01C905C90D11660C4A03
S315000078181178052902D01120FFF712FE2368DA072E
S315000078285EBF054B02221A66EB0742BF024B0022D7
S31500007838C3F8802138BD00BF00400E40C02C002090
S31500007848D12C00207047704710B5044608B1FFF7E1
S31500007858BDFF0E4A136943F004031361FFF7A6FF41
S31500007868FFF78CFFFFF7EEFF30BFFFF7ECFF084B83
S315000078781A68084BDA64FFF749FF1CB1BDE81040E7
S31500007888FFF7B6BFBDE8104000F0FEBF00ED00E010
S31500007898CC2C002000300E4010B5044608B1FFF786
S315000078A895FF164BD3F8802145F60E01D20748BF3F
S315000078B80022C3F880114FF42071196648BFC3F837
S315000078C880210F4A136943F004031361FFF76EFF23
S315000078D8FFF754FFFFF7B6FF30BFFFF7B4FF094BBA
S315000078E81A68094BDA64FFF711FF1CB1BDE81040AE
S315000078F8FFF77EBFBDE8104000F0C6BF00400E404F
S3150000790800ED00E0CC2C002000300E400378002B60
S31500007918437870B50E4C14BF04260026002B8378D6
S31500007928A16914BF02250025002B037921F03F0128
S3150000793843EA0103C17814BF08220022012908BFBF
S3150000794843F0010333432B431343A36170BD00BFC8
S3150000795800300E40194B4AF6E85210B55C6B5A6374
S315000079689A6FD207FCD41B6C13F003031EBF144A8C
S3150000797801211160834203D108B9114B186010BD6B
S3150000798823B9012802BF0F4B02221A700B4A11466F
S31500007998936FDB07FCD4136C23F0030303431364D0
S315000079A88B6F13F00103FBD10030054A18BF012085
S315000079B8012C106008BF4B63E1E700BF00300E40A2
S315000079C8B40AC643D02C002070B51D4D4AF6E852BD
S315000079D8AC69AE69AA60A86924F4403410F00100C5
S315000079E844F4003446F4403607D12B6C03F0030305
S315000079F8013B012B01D8FFF7ADFFAB69DB070FD5BC
S31500007A0872B6104B4AF6E8521A600F4A136843F0EA
S31500007A1880031360A2F58872136843F480731360B9
S31500007A28FFF7C4FEFFF7AAFE054B9C619E619C61A9
S31500007A389E619C619E619C619E619C6170BD00BF58
S31500007A4800300E4090310E4098310E40A0F5E163AB
S31500007A58B3F5966F2DE9F04703D900210846BDE82E
S31500007A68F0875F4C5F4BD4F86851DB6CB0F5E16F7B
S31500007A781FBF4FEA156AC5F307484FF496694FF4D6
S31500007A88E16701BFC5F3072A5FFA85F84FF416794F
S31500007A984FF49667B0F5E166C3F3017C18BF01267B
S31500007AA846EA0C2E40F201139E455BD0BEF5817F57
S31500007AB809D2BEF1010F1BD05DD3BEF5807F5DD024
S31500007AC800252B4619E040F201239E4550D005D8E3
S31500007AD8BEF5007FF4D1D4F870310BE0BEF5407FD7
S31500007AE84FD040F201339E45EAD1D4F878313BE0D5
S31500007AF8D4F87431C3F30725DBB2C71BAAEB080E0B
S31500007B0807FB0EFEBEFBF9FEC644D645A5D8A5EB77
S31500007B18030807FB08F7B7FBF9F73B44AB424FF0FE
S31500007B2800079AD882B1DFF8BC80D8F85C5025F4F3
S31500007B38FE4525F00205B0F5E16F45EA0E2518BFAA
S31500007B4802273D43C8F85C50002946D0226DD2B2C0
S31500007B58032A19D8B0F5E16FD4F87C211FD0C2F3F7
S31500007B6807221DE0D4F874311D0EC3F30743C4E79A
S31500007B78D4F87831BEE7D4F86C31BBE7D4F86C3169
S31500007B88F2E7D4F87031EFE7BCF1020FD4F88021A0
S31500007B981ED0BCF1030F1ED0BCF1010FDFD0D2B24C
S31500007BA8120312F4702F7FF458AF0E4CE06E20F4D7
S31500007BB870400243E266626E22F4FF72E72B22F0FF
S31500007BC8010228BFE723324342EA4303636645E7D7
S31500007BD8C2F30742E4E7120EE2E701213EE700BFDF
S31500007BE8B081E00F00300E40194B1A6FD96CC907E7
S31500007BF802F0070214D5012A12D9132823D91438FA
S31500007C0813288CBF102308231148013BC26C1903A3
S31500007C1822F47F4241EA03231343C364FFF776BD88
S31500007C28DB6CD90706D4012A04D809280BD90A38E7
S31500007C380928E6E7064BDB6C13F00103E4D0012ABA
S31500007C4803D82728DDE70423DEE70023DCE700BFA7
S31500007C5800300E40054A064B1B68136F23F00703D6
S31500007C681843044B10671888FFF7BEBF00300E4054
S31500007C788009C643C42C0020544B022273B59A636C
S31500007C889B6B03F00F039342054603D0002420465E
S31500007C9802B070BD4E4BD3F86C3101331DD04D4B3D
S31500007CA81A68043B1B681A604B4B1A68043B1B682E
S31500007CB81A604A4B1A68043B1B681A60484B1A68D4
S31500007CC8043B1B681A60474B1A68043B1B681A601A
S31500007CD8454B1A68043B1B681A60E988A888B5F9F9
S31500007CE80C604A2965D9B1F5FA7F64D340F6C31307
S31500007CF8994294BF4FF000514FF04051334CE36C1A
S31500007D0823F0405323F00103002EA8BF43F00103DC
S31500007D180B43E364354B1880E36E43F08073E366E8
S31500007D28334B186800B10420FFF794FF236E23F045
S31500007D38C0432366E36C43F0060301A8E36400F03E
S31500007D48C7FB9DF80500012812D19DF80430022BC7
S31500007D580ED828490B785BB9274A136843F0010304
S31500007D681360236E254A1A40254B13432366087071
S31500007D78244B29891980244BB5F90C20A8881A8028
S31500007D88FFF732FFAB7BCBB1012B1BD0012211468B
S31500007D986888FFF75BFE044600283FF477AFAB7AA6
S31500007DA81A4A6878003318BF01231360FFF7D2FD1B
S31500007DB86DE70021A2E74FF080519FE7034B144A75
S31500007DC89A65E3E7014B134AFAE700BF00300E4015
S31500007DD8B081E00F3C80E00F4480E00F4C80E00F5C
S31500007DE85480E00F5C80E00F6480E00FC42C002014
S31500007DF88009C643D02C002044300E40000F0EF0F8
S31500007E08B4C0400BC62C0020C82C00209407C643DB
S31500007E1877402057372110B7144B1A6830B5002819
S31500007E2814BF02250025012A06BF4AF6E851196043
S31500007E38002202280E4804680CBF24F0740444F09B
S31500007E48740404600B48046844F0080404600A4C8F
S31500007E58216821F4406141EA85212160016821F009
S31500007E68080101600AB100221A6030BD90310E4047
S31500007E7864310E409C310E403C400E40044AD2F814
S31500007E88443423F003031843C2F84404704700BF80
S31500007E9800A00040072A70B501F003014FF00F0556
S31500007EA823D896001A4CB540256004F10074B040FA
S31500007EB820600320B04001FA06F61649086001F171
S31500007EC800710E601449114489000B609DF810304A
S31500007ED8C1F88030012303FA02F2104BC3F82424B8
S31500007EE89DF81430C1F8003370BDA2F10804A4004F
S31500007EF80B4EA54035600B4DA04028600320A040DE
S31500007F0801FA04F40849086001F100710C60D9E728
S31500007F1800A4004408A400448020851000A0004066
S31500007F2804A4004404A400460CA40044F0B54AB1D5
S31500007F3830261E4C012546438D4034440BB304F1CC
S31500007F48C06425603024444304F18044072904F5BD
S31500007F58204419D865688E000F27B74025EA07051B
S31500007F6802FA06F63543656052B9012202FA01F1B2
S31500007F78302250430D4A0244A3B102F1C062116097
S31500007F88F0BD04F18064DCE701F18045083DA66890
S31500007F98AD000F27AF4026EA070602FA05F5354376
S31500007FA8A560E1E702F18062E9E700BF0CA00040A6
S31500007FB8084B4FF48072C3F88020BFF34F8FBFF38E
S31500007FC86F8F054B0021D9664FF48A401962FEF778
S31500007FD89BBF00BF00E100E000200E40034B0344B6
S31500007FE89B0081F001011960704700BFA001F110E4
S31500007FF810B5044601214FF48A40FEF785FFB4F810
S31500008008013022785BBA9BB243EA02630B4A1360DB
S3150000801800231362D36253634FF00043D3664FF0D5
S31500008028FF339366064A4FF48071C2F88011E378ED
S315000080385B01DBB282F80833116010BD00200E40E8
S3150000804800E100E02DE9F041254D91F80BE091F8AB
S315000080580AC00F7B0C464FF03008C3B2012608FB56
S3150000806800509E402368497BC0F880304FEA0E5383
S3150000807843EA0C4343EA475322F00302C0F8881048
S31500008088C0F88430C0F89820AE66FFF7DAFAEB6ECF
S315000080983343EB66237A13B16B6B33436B63637AB3
S315000080A813B1EB6A3343EB6222792B6822B1D243D0
S315000080B8120262F47F42134062790AB143EA02234C
S315000080C8A2790AB123EA0203E27902B11343044A08
S315000080D81360044B1E60D663BDE8F041FFF7B7BADC
S315000080E800200E4028200E4410B5C0B2012484405A
S315000080F8FFF7A7FA054AD36E23EA0403D366044BAF
S315000081081C60BDE81040FFF7A2BA00BF00200E4071
S3150000811820200E44F8B5C3B201259D400446FFF75A
S3150000812890FA0A4B30221E6E9F6A02FB0434D4F87A
S315000081388C40FFF78CFA3D4206D1C4F30A1008B901
S31500008148354200D10130F8BD0020FCE700200E4082
S31500008158036CDB0702D4436C0B42FCD17047CB435C
S315000081685B0003F00A0310B541EA03020221FFF798
S31500008178EFFF426010BD436C002BFCD10122026464
S31500008188EA22426040F2F9720360C3600361436108
S3150000819883634263C363436583650364704710B5AD
S315000081A802460C469368DB06FCD540211046FFF7CD
S315000081B8CFFF946210BD00000F4A70B50023082552
S315000081C88B4201D1002070BD50F8234094610B4CBE
S315000081D8D5600133D669F60705D514B96FF00200E4
S315000081E8F1E7013CF6E7002CF8D0D469A407E7D5F7
S315000081F86FF00100E7E700BF00000E408096980088
S31500008208044B41F671321A649A6822F001029A60A8
S31500008218704700BF00000E40034B9A6822F0010227
S315000082289A6000221A64704700000E40094A0A4BF9
S31500008238D969C90705D512B96FF002007047013A26
S31500008248F6E7002AF8D001221861DA60D86940F307
S31500008258800070478096980000000E4009B1FFF72D
S31500008268ABBF084670470000234B2DE9F0470F4681
S3150000827841F671311E6C1964996841F00101814615
S31500008288B6B299604FEA9208BA46002545450ED31C
S315000082980020D9F800203B689A420ED04846FFF7DE
S315000082A8C5FF50B901213846FFF786FF05E009EBFF
S315000082B885042046FFF7BAFF48B10F4B9A6822F0AB
S315000082C801029A600EB100221A64BDE8F087C4F371
S315000082D80A04C4F50064A408A8EB05039C4228BF59
S315000082E81C4621465046FFF7B9FF0028D1D1254440
S315000082F80AEB840ACAE700BF00000E401E4B41F68F
S3150000830871311A6C10B51964996841F001019960C8
S3150000831801211861D960D9694C0792B209D59968C3
S3150000832821F0010199600AB100221A644FF0FF306A
S315000083381FE00221114CD9601946D869C00700D53B
S315000083486CB9C8698B6810F0020023F001038B60D2
S3150000835807D00AB100230B646FF0010009E0013C65
S31500008368EBE724B902B10C646FF0020001E00AB130
S31500008378086410BD1046FCE700000E408096980081
S31500008388FFF772BF10B590FAA0F2054C2368B2FA4F
S3150000839882F223EA000091400143216010BD00BF2C
S315000083A800500E40014B01229A60704700500E4063
S315000083B8194BF0B55C68194D194E1A4F002318462B
S315000083C8D6F800C0EA181CF0040F51685A5908D1AB
S315000083D8B2F5806F03D018D8B2F5007F01D141F409
S315000083E88071D7F800C01CF4807F18BF21F01C01EB
S315000083F8144202D0214208BF10430833482BDFD16C
S31500008408C30348BF20F01C00F0BDB2F5006FE6D0EC
S31500008418B2F5803FE2E700BF00500E40B4200300EB
S31500008428E841E00F88300E408B784A789B0143EA92
S3150000843882030A781343CA7843EA02130A7943EA9D
S31500008448C2234A7943EA02338A79043043EA42432B
S315000084580001014A1350704700200440014B186080
S31500008468704700BF00008442427801790378002AE9
S31500008478827870B514BF04260026002AC27814BF75
S3150000848810250025002A42794FEA023242EA0122E3
S3150000849842EA0302837914BF20240024002BC379FF
S315000084A842EA034343EA0603027A43EA050314BF92
S315000084B84FF4004100212343002A14BF4FF4003231
S315000084C800220B431343014A136070BD0020044089
S315000084D80B4A536911699B0003F03C03C1F38111F0
S315000084E80B438370136903F03F0343709369D269A2
S315000084F803F0F003C2F3031213430370704700BF7F
S31500008508D0FF0FE02DE9F04F0C780CB90223436039
S31500008518002343624B78CA7891F802B08D7A91F8B5
S3150000852808A091F8069091F80780002B4B7A4FEA3D
S31500008538024214BF4FF0400E4FF0000E42EA0B62A3
S31500008548002B14BF8023002342EA0A02002DCD7AAD
S3150000855842EA892214BF4FF0200C4FF0000C42EA81
S315000085680822002D0D7B42EA0E0214BF10270027B1
S315000085781343002D0D79497943EA0C0314BF0826E5
S3150000858800263B43002D14BF4FF400550025334306
S31500008598002914BF4FF0805100212B430B43036081
S315000085A80CB101234360BDE8F08FF0B55378147819
S315000085B81B0643EA846394792343947843EA044385
S315000085C8D47843EA0433147943EA8423547943EA92
S315000085D80423D479002C147A14BF4FF0804700275F
S315000085E8002C547A14BF4FF000560026002C947ABB
S315000085F8D27A43EA027343EA070314BF102500251B
S315000086083343002C01F1060114BF042400242B4334
S31500008618090123434350F0BD70B5054616461C466E
S3150000862819B91448FEF7A6FD0146202C08D001D832
S31500008638ECB170BD402C18D0602CFAD1042200E0B1
S31500008648082206FB02F35A0802EB4112B2FBF3F2C8
S31500008658094B203A03EAC2022B6823F060032B6019
S315000086682B681C432C606A61E3E70622E9E71022BF
S31500008678E7E700BF40410500F8FF7F00CB435B00FA
S3150000868803F00A03C360C1607047000040F6AA639E
S31500008698C36041F205020023036042600A4A836010
S315000086A84361C3648264094A03669042436702F5DC
S315000086B880628367C36701D0904200D10365904208
S315000086C8836508BFC3657047F9FF010000000140D4
S315000086D838B505460C46FFF7D9FF8B7C1BB10368F6
S315000086E843F080430360E37C1BB1237D43F08003A2
S315000086F8AB65228A637B1343E28913436B60D4E933
S315000087080112237B2846FFF787FF637D1BB12B6881
S3150000871843F480332B60A37DE27D1B07120502F428
S31500008728E00203F0E04313432B666B6F23F030033C
S315000087386B676A6F237E13436B672378EB6038BDDC
S3150000874803691B06FCD5C069C0B2704703695B069E
S31500008758FCD5416370470368DB060FD447F23153F3
S315000087688268D20701D5013BFAD1036803F00103F9
S315000087788B421EBF00F10470400101607047036818
S31500008788D90707D583689A0704D48368DB07FCD41E
S315000087980123436070474B78CA78002B8B782DE904
S315000087A8F04114BF4FF0020E4FF0000E002B14BF1D
S315000087B804230023002A0A7991F807800C7814BF4D
S315000087C84FF0080C4FF0000C002A4A7914BF2027F6
S315000087D80027002A8A7914BF40260026002A0A7A2A
S315000087E84FEA022242EA083291F8098042EA040274
S315000087F8CC7A897A42EA084242EA016242EA0E02E1
S3150000880843EA020343EA0C0343EA070314BF1025AD
S3150000881800253343002C14BF4FF0004400242B439B
S31500008828234347F231528168C90701D5013AFAD183
S315000088380360BDE8F08100000048704700F0490277
S315000088480D4AD2F8943003F00703032B11D0042BFA
S3150000885803D0022B0BD1094B00E0094B1868D2F85C
S315000088680031C3F304230133B0FBF3F07047054B23
S31500008878F4E74FF40040F2E700400E40981C002051
S31500008888A01C00209C1C002008B5FFF7D9FF054B4B
S31500008898D3F80831C3F308230133B0FBF3F0024BD6
S315000088A8186008BD00400E40941C0020014B186853
S315000088B8704700BF981C0020054B1860054BD3F87D
S315000088C8943003F00703022B01D1FFF7DDBF704791
S315000088D8981C002000400E400E4B0F4A9A60D3F8B1
S315000088E8882042F47002C3F888200C4B5A6D42F473
S315000088F800525A651A6C22F003021A64084A136871
S3150000890823F00103136052F8143C23F0805342F815
S31500008918143C704700ED00E00041000000300E40B6
S3150000892874300E404FF4004070474FF47A70704729
S31500008938014B1868704700BFA01C002008B50C4BF7
S31500008948198A40F6A73291420AD11B8B1B0A012BC2
S315000089580CD101280AD840F2022010F001F805E0EF
S3150000896840F628031B689B69DB02F2D4012008BD88
S31500008978000000000E4B198A40F6A732914206D134
S315000089881B8B1B0A012B10D04FF6FF70704740F661
S3150000899828031B689B68C3F30340C3F30362000202
S315000089A840EA0230DBB21843704700F003B800BF54
S315000089B800000000054B198A40F6A732914217BFFE
S315000089C840F62803588B1B6858897047000000003A
S315000089D870B50438C6B0FB2801F25587DFE810F0F9
S315000089E82C02530F530F530F3502530F530F530FC8
S315000089F8530F530F530F530FDD03CB03530F530F6F
S31500008A08950A3B0446049403A303530F8704530FA4
S31500008A18530F9F044401F1021B031C01AE03530FBD
S31500008A28530F5708530F530FFF013E02EA0C5A0D16
S31500008A38090DF60CD70C360D870D530F530F4F053E
S31500008A480A07A601F30588053906D206660607034E
S31500008A58FC00B301E801530F1A0423065B05530F04
S31500008A68530F530F530F530F530F530F53019701C0
S31500008A787E01530F530F530FD407B406530F530FEA
S31500008A88530F530F530F530F530F530FC107AA0416
S31500008A9839075307BC04D10439051F05530F0805C8
S31500008AA89007530F4909AB0AC50AC409DA098F09A1
S31500008AB80D0B440A530F200B910C0A0AEA0A610BA4
S31500008AC8550BAA099409440B530FBC0189038E025E
S31500008AD8530F530F7207F204530F530FC105F90DC5
S31500008AE8960D180E300E0C0E240EBA0DD00DA20DD2
S31500008AF8E30DAE0D530F530F530F530F530F530F71
S31500008B08530F530F9E06530F530F63045104530F0D
S31500008B180001530F530F3C0E530F760E380FB20E4B
S31500008B28E80E0A0F9C0E530F720B940B530F530F3C
S31500008B38530F530FA7076809CD0E83097508CC088C
S31500008B4830090009530F530F530F29045C08530FBC
S31500008B586808C3081D08EF080E0CC402DB02E6020B
S31500008B68530F530FC00B530FF70B1E0C530F530F16
S31500008B78530F530F6B0A12097504B902530F3001CC
S31500008B88F408350829088F08B208050811084108AD
S31500008B984C087A0C960CB20CA60C6A0C650C530F92
S31500008BA8530F530F530F530FFE0E530F590E530FF8
S31500008BB81B0F2C0F890E6207530F530F530FE30435
S31500008BC88507C90CBE08C003540377033F03260371
S31500008BD8530F5E02F20753020124204646B070BDC9
S31500008BE812AB01930AAB00930CAA24ABBB49012034
S31500008BF826F0BCF9BDF848309DF828202499BDF820
S31500008C0830001CF0FDFF46AAB54902F8EC0D00201D
S31500008C1826F0ACF90124E0E724AB0CAAB1490120FF
S31500008C2826F0A4F924999DF8300004F0BFFA46AA64
S31500008C38AB4902F8D00D002026F098F90124CCE7BC
S31500008C480CAB24AAA849012026F090F99DF830100B
S31500008C58249814F00FF846AAA14902F8D00D00206E
S31500008C6826F084F90124B8E724A825F055FF24A89E
S31500008C7816F012FB46AA9A4902F8D00D002026F0F3
S31500008C8875F90124A9E70CAA9549012026F06EF981
S31500008C9824A99DF8300004F087FA46AA904902F8FC
S31500008CA8D00D002026F062F924A9082025F01EFF21
S31500008CB89DF8980025F0E2FEBDF89A0025F0EEFE34
S31500008CC89DF89C0025F0DAFE9DF89D0025F0D6FE5D
S31500008CD89DF89E0025F0D2FE01247EE786230BAA86
S31500008CE87F498DF84830012026F040F924A99DF8DF
S31500008CF82C0004F062FA46AA12AB02F8E80D7B498A
S31500008D080093002024AB26F031F9012465E724A856
S31500008D181DF052FB46AA724902F8D00D002026F033
S31500008D2825F924A826F0EBF8012456E724A81DF017
S31500008D383FFB46AA24AB02F8D00D6D49002026F069
S31500008D4815F9012449E746AA012402F8884D644921
S31500008D58002026F00BF940E70CAA6149012026F00D
S31500008D6805F924A99DF830001EF0F8FD46AA5C49CD
S31500008D7802F8D00D002026F0F9F8BDF8900025F08D
S31500008D888DFE9DF8920025F079FE9DF8930025F05A
S31500008D9875FE9DF8940025F071FE9DF8950025F066
S31500008DA86DFE0DF19601082025F0A0FE012414E7BA
S31500008DB846AB082203F8EC2D4E4924AA012026F0DA
S31500008DC8D5F812A924A81FF065F946AA12AB02F82D
S31500008DD8E80D4449002026F0C9F80124FDE624A937
S31500008DE812A804F0A7F946AA12AB02F8E80D404902
S31500008DF8002026F0BBF824A9082025F077FEBDF848
S31500008E08980025F04BFE9DF89A0025F037FE9DF850
S31500008E189B0025F033FE9DF89C0025F02FFEBDF83B
S31500008E289E0025F03BFE9DF8A00025F027FE299818
S31500008E3825F048FE0124D0E646AA012402F8884D0A
S31500008E482749002026F092F8C7E646AA002002F82D
S31500008E58880D234926F08AF80124BEE612AC0823B9
S31500008E68214624A88DF8303004F08CF946AA0CABBC
S31500008E7802F8EC0D204901940093002024AB26F05B
S31500008E8875F80124A9E613F0FDFF46AA144902F86D
S31500008E98880D002026F06AF801249EE60CAA1049DF
S31500008EA8012026F063F824A99DF8300013F09AFFF4
S31500008EB846AA0B4902F8D00D002026F057F89DF86F
S31500008EC8900025F0DBFD9DF8910025F0D7FD9DF873
S31500008ED8920025F0D3FD01247FE600BF3C21030064
S31500008EE88F210300412103005E210300B9420300DC
S31500008EF87E210300A3290300442103000CAABE49CE
S31500008F08012026F033F824A99DF830001DF0CAFC8C
S31500008F1846AAB94902F8D00D002026F027F8BDF870
S31500008F28900025F0BBFDBDF8920025F0B7FD9DF831
S31500008F38940025F0A3FD9DF8950025F09FFD9DF86A
S31500008F48960025F09BFD9DF8970025F097FD0124D6
S31500008F5843E604F095F846AAA74902F8880D0020CA
S31500008F6826F004F8012438E612AC0BAAA24901201F
S31500008F7825F0FCFF224624A99DF82C0004F082F86F
S31500008F8846AA24AB02F8E80D9C490094002025F077
S31500008F98EDFF012421E604F079F846AA964902F87D
S31500008FA8880D002025F0E2FF012416E604F06CF88F
S31500008FB846AA914902F8880D002025F0D7FF01241A
S31500008FC80BE60CAA8C49012025F0D0FF24A825F031
S31500008FD8A3FD24A99DF8300016F002FA46AA864990
S31500008FE802F8D00D002025F0C1FF0124F5E50BAAF3
S31500008FF88149012025F0BAFF0CAA12AB804901204D
S3150000900825F0B4FF46AA012402F8884D7A490020C3
S3150000901825F0ACFFE1E517F003FD46AA764902F80C
S31500009028880D002025F0A2FF0124D6E512AB009397
S315000090380BAA0CAB7349012025F098FF9DF8482030
S315000090489DF830109DF82C0020F026FF46AA6A49A4
S3150000905802F8880D002025F089FF0124BDE512AB32
S315000090680CAA6949012025F081FF9DF948109DF851
S31500009078300020F00FFF46AA5F4902F8880D00204D
S3150000908825F074FF0124A8E512AB02930CAB0193FB
S315000090980BAB00930DF126020AAB5C49012025F0C3
S315000090A865FF9DF848409DF930309DF82C209DF8C5
S315000090B8281000949DF8260020F0E8FE46AA4E499E
S315000090C802F8880D002025F051FF012485E512AA33
S315000090D84949012025F04AFF9DF8480020F0D8FEAE
S315000090E846AA454902F8880D002025F03FFF0124CD
S315000090F873E51EF025FC46AA3F4902F8880D0020B4
S3150000910825F034FF012468E524A825F085FD24A868
S3150000911816F0CEF946AA384902F8D00D002025F0F7
S3150000912825FF012459E513F023FE46AA324902F821
S31500009138880D002025F01AFF01244EE512AA2E49B3
S31500009148012025F013FF9DF8480015F04BFD46AAAF
S31500009158294902F8880D002025F008FF01243CE57E
S3150000916805F013FE46AA244902F8880D002025F0CA
S31500009178FDFE012431E512AA1F49012025F0F6FE5D
S315000091889DF8480004F01BFC46AA1B4902F8880D06
S31500009198002025F0EBFE01241FE50AAB04930DF130
S315000091A82603039309AB029324AB019312AB0093F6
S315000091B80DF122020CAB1649012025F0D7FE9DF8C9
S315000091C8284002949DF8264001949DF82440BDF855
S315000091D89030BDF84820BDF8301000949DF8220064
S315000091E804F0EFFB46AA044902F8EC0D002025F02E
S315000091F8BDFE0124F1E400BF8F21030048210300CE
S3150000920852210300592103004C2103004F2103007A
S315000092185521030024A825F07FFE24A81DF0CAF8CE
S3150000922846AAAA4902F8D00D002025F09FFE01247F
S31500009238D3E412AAA549012025F098FE9DF8480016
S3150000924815F098FE46AAA14902F8880D002025F0D7
S315000092588DFE0124C1E424AA9D49012025F086FE3D
S315000092689C4BBDF890201A800124B6E424AA98499C
S31500009278012025F07BFE984BBDF890201A8001242A
S31500009288ABE412AA9149012025F070FE9DF848002A
S3150000929815F048FE46AA8D4902F8880D002025F0EB
S315000092A865FE012499E412AA8C49012025F05EFE88
S315000092B89DF9480013F0D6FD46AA844902F8880DA0
S315000092C8002025F053FE012487E412AA7F490120D5
S315000092D825F04CFE9DF8480003F0D0FE46AA7B49CF
S315000092E802F8880D002025F041FE012475E40CAB38
S315000092F800930BAA24AB7A49012025F037FE9DF886
S31500009308302024999DF82C0013F094F946AA6F4949
S3150000931802F8D00D002025F029FE01245DE413F0A3
S3150000932855FA46AA694902F8880D002025F01EFE5E
S31500009338012452E412AA6549012025F017FE9DF87A
S3150000934848001CF024F846AA604902F8880D002057
S3150000935825F00CFE012440E408230CAA5B498DF88D
S315000093684830012025F002FE24A99DF830001CF0A3
S3150000937895FD12AB24AA5B49002025F0F7FD0124D0
S315000093882BE412AA5149012025F0F0FD9DF848006A
S315000093981CF09CFD46AA4E4922F8880D002025F0AF
S315000093A8E5FD012419E424A816F0E6FC46AA474977
S315000093B802F8D00D002025F0D9FD24A825F0F3FBEE
S315000093C801240AE446AB082203F8E82D454924AAF5
S315000093D8012025F0CBFD24A81CF04EFE46AA3B49E9
S315000093E802F8D00D002025F0C1FD0124FFF7F5BBDA
S315000093F80CAA3649012025F0B9FD24A99DF83000AC
S3150000940803F06AFE46AA314902F8D00D002025F07D
S31500009418ADFD24A825F0B4FB0124FFF7DEBB082325
S3150000942812AA2B498DF83030012025F09FFD24A97A
S31500009438BDF8480013F062FE46AA0CAB02F8EC0D24
S3150000944829490093002024AB25F090FD0124FFF75D
S31500009458C4BB46AB082203F8E82D224924AA0120FA
S3150000946825F084FD24A813F02DFE46AA184922F8F3
S31500009478D00D002025F07AFD0124FFF7AEBB1AF0C7
S3150000948847FD46AA114902F8880D002025F06EFD11
S315000094980124FFF7A2BB0CAB009324AA0BAB13491C
S315000094A8012025F063FD9DF830209DF82C10BDF8AD
S315000094B8900003F08BFC46AA044902F8D00D002060
S315000094C825F054FD0124FFF788BB00BF8F21030058
S315000094D846210300F6200020FC200020EE4203006F
S315000094E85D210300A3290300B9420300612103009B
S315000094F808AB0BAAB449009301200CAB25F036FD46
S3150000950824A825F025FB09AB12AACDE9003202935F
S315000095180DF121020DF12203AC49012025F026FDAB
S31500009528129B03939DF8243002939DF822300193F1
S315000095380AAC9DF821309DF82020BDF8301004941F
S315000095480093BDF82C0024AB03F034FD46AA23464D
