S01800005A696762656542696C6C79526F757465722E73333709
S31500004000601B0020C1D902007D64000081640000AD
S31500004010A70A0A010041000004180FAC206900013C
S31500004020000000000000000000000000000000008A
S3150000403000000000E87E0300000000000000000011
S315000040400000000000000000FFFFFFFFFFFFFFFF72
S31500004050FFFFFFFF00E0030000000000000000007B
S31500004060FFFFFFFFFFFFFFFF100000000000000042
S31500004070000000000000000000000000000000003A
S315000040800000000000000000A8430020A843002014
S31500004090601B00200AC20300101203000012002059
S311000040A0C4110020000004000000000015
S31500004100601B0020C1D902007D64000081640000AC
S31500004110F9B30000856400008D640000BDD902007B
S31500004120BDD90200BDD90200BDD90200BDD9020029
S3150000413091640000BDD90200BDD90200BDD90200BC
S315000041406181000095960100D56600000D8F010083
S31500004150ED960100A1960100B9960100999601001D
S31500004160A97600007D7700003595000071D7000024
S315000041700465000004650000046500000465000095
S3150000418004650000A17700000465000004650000D6
S315000041900465000004650000046500000465000075
S315000041A0046500000465000004650000F196010046
S315000041B09D960100297F00002997010004650000F3
S30D000041C0357D010004650000D5
S315000041C8F8B500BFF8BC08BC9E467047F8B500BFF6
S315000041D8F8BC08BC9E46704710B5054C237833B921
S315000041E8044B13B10448AFF300800123237010BDBC
S315000041F8D822002000000000F0BA030008B5034BDF
S315000042081BB103490348AFF3008008BD0000000056
S31500004218DC220020F0BA0300154B002B08BF134B15
S315000042289D46A3F5803A00218B460F461348144A4B
S31500004238121A2CF0C4FF0F4B002B00D098470E4BD8
S31500004248002B00D098470020002104000D000D48DF
S31500004258002802D00C48AFF300802CF059FF20004C
S31500004268290009F097FC2CF03FFF00BF000008006A
S31500004278601B0020000000000000000072220020E1
S31500004288A84300200000000000000000002070473E
S3150000429807B5054B0090054A054901200CF010FEAC
S315000042A803B05DF804FB00BF4C490300101203007D
S315000042B815120300C37B10B5ABB9C37C032B12D808
S315000042C8DFE803F002131621017D8289CB1C9A428E
S315000042D824D38068445C01310CF03DF90146204640
S315000042E808F010FEE0B9812010BD08F063FEF9E77A
S315000042F8017D82890B1D9A4210D380680CF028F93B
S3150000430808F0A2FEEEE7017D82898B1C9A4205D34E
S3150000431880680CF020F908F0ADFEE3E78020E3E7BB
S315000043280020E1E710B5437D012B04460CD1036854
S31500004338028A598858790AF0EFFF28B123685B8802
S31500004348032B14D0C32013E0637D002BFAD1236816
S31500004358228A598858790AF0D6FF0028F2D02368AD
S315000043685B88032B03D0202B03D0002BEAD18120B6
S3150000437810BD2046BDE81040FFF79CBF70470120DE
S3150000438870470120704701207047B5207047704775
S3150000439800207047002070470020704700207047B3
S315000043A800207047002070470020704770470020A3
S315000043B870470120704701207047B52070470020DC
S315000043C870470020704700207047002070477047EC
S315000043D800207047B5207047704700207047704727
S315000043E870470020704784207047704770477047B1
S315000043F800207047034B1B681878012808BF022065
S31500004408704700BF502C0020704770470020704747
S315000044180020704700207047002070470020704732
S315000044280020704700207047002070470020704722
S315000044387047B520704700207047002070477047C6
S315000044480020704770477047704770477047B5201F
S31500004458704770477047002070477047704770472D
S3150000446870470000094A0023FF21137082F878304C
S3150000447882F8653082F8773082F8793082F87A10D7
S3150000448882F87B30024A1360704700BF423600202C
S31500004498F83C00202DE9F0470D468F680A683A492E
S315000044A80446202002F089FE6B68ABB93749202004
S315000044B802F083FE202008F025FFEA681AB1344985
S315000044C8202002F07AFE3349202002F08BFE2020BD
S315000044D8BDE8F04708F016BF002CEBD0EB681BB11F
S315000044E82D49202002F069FEDFF8D880DFF8D89041
S315000044F8DFF8D8A0013F002617F8014F24B925494F
S31500004508202002F06FFED5E72B691BB1414620201B
S3150000451802F053FE752C24D0762C24D0772C24D088
S31500004528732C24D0722C24D0712C24D0622C24D045
S315000045386E2C24D02A2C24D01849194B212C08BFBC
S315000045481946202002F039FE212CD5D02B692BB133
S3150000455853F826201349202002F02FFE0136F6B222
S31500004568CAE74946EDE75146EBE70F49E9E70F4940
S31500004578E7E70F49E5E70F49E3E70F49E1E70F49A1
S31500004588DFE70F49DDE700BFEF12030050300300F5
S31500004598EC1203006D120300DC120300BE120300C6
S315000045A8C1120300E61203008512030091120300EC
S315000045B89B120300A6120300B11203004F3003003A
S315000045C8BB120300719C03007A1203006E120300EB
S315000045D8F0B5214A92F87B30184452FA80F01F4B06
S315000045E890F865C090F866501F78A5EB0C05002674
S315000045F8EDB23046F4B2A54225D90CEB06031344B6
S315000046085B7811B10CB92D2B17D0782B1FD0582BEE
S3150000461805D108B137240AE0013C012C14D9602BD6
S3150000462817D8402BF6D83A2B34BF302400241B1B4E
S31500004638DBB29F4203D900FB07300136DAE70523D0
S3150000464882F879300020F0BD10270020F5E7002811
S31500004658E2D05724EBE700BF42360020252200208F
S31500004668014B1B6818687047F83C0020FFF7FABE34
S31500004678034B93F8770093F87B30C01AC0B27047A3
S31500004688423600200021FFF7A3BF000010B50A4BF1
S3150000469893F87B20024453FA82F292F86520134479
S315000046A85C78A4F12D0359425941FFF791FF2D2C4F
S315000046B808BF404210BD00BF4236002030B50C4A44
S315000046C892F87B300344C043DBB2C00F39B1D5182A
S315000046D895F8664095F86550641B241A0C7042FAE2
S315000046E883F393F865301844024B184430BD00BF75
S315000046F842360020433600202DE9F3410F460DF1DE
S31500004708070115461C46FFF7D9FF9DF80730AB424F
S3150000471888BF8DF8075080469DF807600CB1AC1B22
S31500004728E4B22246002138462CF049FD324641467D
S3150000473838192CF02BFD304602B0BDE8F08138B5AB
S3150000474808220C460123FFF7D7FF04F10803621E6F
S31500004758043413F8011D12F8015F1D70A34211708D
S31500004768F7D138BD38B5014605460120FFF792FE58
S31500004778D5E901436CB91C46084D236863B129463F
S31500004788202002F01AFD21460020FFF783FE14348C
S31500004798F3E71B786E2BEFD038BD00BF719C030082
S315000047A808B50449202002F008FD2020BDE808408D
S315000047B808F0A8BD2E12030038B5FFF7F1FF064D25
S315000047C8002461191434631953F8143C03B938BD2D
S315000047D80020FFF75FFEF4E7202403002DE9F84FD9
S315000047E81F4B204D53F820201F49202002F0E5FCDE
S315000047F82B681BB9BDE8F84FFFF7DEBF1B4FDFF884
S3150000480874A0FFF7CDFF0026B94697F87B30F4B2BF
S31500004818013B9C4204DB2868BDE8F84FFFF7A2BFBE
S3150000482847FA86F34C4493F865800023C84494F805
S31500004838662094F86510521A03F1010BD2B2DBB266
S31500004848934205D30A49202002F0B7FC0136DCE77B
S31500004858434451465A78202002F0AFFC5B46E6E70F
S31500004868C41D0020F83C002029120300423600200F
S31500004878729C03004C9F03002DE9F74F884C94F86F
S315000048887730002B00F0A280864B1B7813F0010FBF
S3150000489804F101071FD00025834E14E06319202078
S315000048A893F8662093F86530D21A44FA85F3D2B2A3
S315000048B893F86510394408F020FD3146202002F0AF
S315000048C87CFC0135EDB294F87730AB42E6D87749EF
S315000048D8202002F072FC94F877300193DFF8D8E1D3
S315000048E8734B002671461EF8012B91F801C04FF054
S315000048F80008ACEB020C07EB020A5FFA8CFC454693
S315000049081868002852D00138D14619E02AB9002D76
S315000049184AD04FF001081433F2E719F8011BA1F148
S31500004928410BBBF1190F98BF2031A2F1410B98BF7B
S31500004938C9B2BBF1190F9CBF2032D2B28A42EAD162
S31500004948A9EB0A01614510F8012FDFD1002ADED153
S315000049581D46584B1D6094F87B30013384F87B3034
S31500004968D5E901230136F6B2002A35D01B786E2B1D
S3150000497831D03F2B23D04FF00009C8464FF0070B24
S31500004988042394F87710AA68B14212F808702BD855
S31500004998AFB1904498F801302A2B10D0212F1CBFB4
S315000049A8032384F879300AE01D46B4E7B8F1000F0E
S315000049B801D1002DCDD1022384F87930002594F851
S315000049C87900002869D168680BF0C0FA03B0BDE821
S315000049D8F04FFFF747BD1346019AB24282D8032229
S315000049E884F879201D46EAE7732F09D8712F0BD270
S315000049F8212F1FD0622F3CD0002F4BD1032246E037
S31500004A08A7F17502022A45D8752F29D0762F2AD004
S31500004A18732F2BD0722F47F6FF7A18BF4FF0FF3A45
S31500004A28012148460193FFF7D3FD5045019B01D963
S31500004A3884F87930AA68424452782A2A94F8792068
S31500004A481CBF08F101085FFA88F8002AB7D1212FA0
S31500004A581FBF013609F10109F6B25FFA89F990E735
S31500004A684FF0FF0ADCE74FF6FF7AD9E74FF07F0AE7
S31500004A78D6E794F87B204A4454FA82F292F86520E5
S31500004A8822445278222AD5D07B2AD3D0052284F80C
S31500004A987920CFE784F879B0CCE7FFF79FFE95E752
S31500004AA842360020F6360020729C03006B12030083
S31500004AB820240300F83C0020A73600202DE9F34106
S31500004AC85E4C5F4F06460D464FF0000866B90DF17D
S31500004AD80701284608F00CFC78B1262800F0A980C2
S31500004AE8012384F879304BE0002D00F0A28016F8F7
S31500004AF8013B8DF80730013DEDB23A789DF8073055
S31500004B083B700D2A01D10A2BE0D00D2B0CD0A3F156
S31500004B180A025142514122788846042AD6D8DFE84B
S31500004B2802F0051D263C31000121F4E721B1FFF70B
S31500004B38A3FE4FF00108C9E7202B63D0222B07D12B
S31500004B480223237094F87820642A5DD10623C8E7E7
S31500004B587B2B01D10323F4E70123F2E709B9202BC4
S31500004B68F0D194F87730112B3FD10323B9E7222BE4
S31500004B78F7D00029E6D0052384F879304FF00108EC
S31500004B8804232370B8F1000FA0D094F8790008B177
S31500004B98FFF724FEFFF766FC98E77D2B94F87A006A
S31500004BA803D1FF28DDD005239BE7602B13D8402BC4
S31500004BB813D8392B8CBF002230229A1AD2B20F2A68
S31500004BC810D8FF280BD002EB0012FF238DF8072020
S31500004BD884F87A30B6E75722EFE73722EDE784F80C
S31500004BE87A2073E7202BDED170E70133DBB284F835
S31500004BF87730234494F8782083F8652000232370BF
S31500004C08002994D1884661E72378012B09D19DF8BC
S31500004C180730A3F1410119299CBF2033DBB28DF877
S31500004C280730A3189DF807105970013284F87820C8
S31500004C384CE7404602B0BDE8F08100BF423600208E
S31500004C484837002049BA89B24840C0F303114140A9
S31500004C58080380B24840C3B280EA4310704716F092
S31500004C68A7BE7047704770477047704770477047D0
S31500004C787047704770477047704770477047002005
S31500004C88704770470020704770477047002070478C
S31500004C980020704770470120704701207047704711
S31500004CA87047704770477047704770472DE9F0475F
S31500004CB8204DDFF8A090DFF8A0A000245FFA84F862
S31500004CC8404617F0D1FAFF2806460CD122461A4963
S31500004CD8287802F087FA2878013408F013FB152C97
S31500004CE8ECD1BDE8F087154B59F82420144947B292
S31500004CF813EA270338BF5346287802F073FA002FC1
S31500004D08E9DA14B1B8F1030F08D10E4B0E49287829
S31500004D1816F0010F18BF194602F064FA0A2CDAD108
S31500004D280A4B0B49287816F0010F18BF194602F0EE
S31500004D3859FAD0E76B220020F51303006D12030021
S31500004D481D140300B8130300CE130300E013030079
S31500004D58EA13030064130300779A030082B2074B31
S31500004D6842B11A80000C064B0ABF4FF6CE221880B5
S31500004D781A8070474BF6EF62F3E700BFEE2100207A
S31500004D88F0210020094B1888020448BF80F0620011
S31500004D9842001A80064A1388190444BF83F48053D4
S31500004DA883F00B035900118058407047EE2100200C
S31500004DB8F0210020034B1870034B1970034B002297
S31500004DC81A707047323600203136002042370020EC
S31500004DD82DE9F04F214E337885B007468846002BDB
S31500004DE839D04FF6FB73984235D81D4D1D4B2C789C
S31500004DF84FF0000B9A46327818785FFA8BF94A45D5
S31500004E0811D9484402A9C0B2019320F09FF808229C
S31500004E1841460DEB02002CF09FF90BF1010B019BAB
S31500004E280028E8D14C462B78A34207D1631C327878
S31500004E38DBB29A422B7004BF00232B709AF800301D
S31500004E481C44E4B24146204620F09EF918B939467A
S31500004E58204620F065F805B0BDE8F08F3136002011
S31500004E684237002032360020024B187800F07F00C7
S31500004E78704700BF36380020034B18780130C0B29F
S31500004E88187000F07F007047363800201FB5030AF7
S31500004E988DF80E300323009303AB8DF80D0000F058
S31500004EA8C5F905B05DF804FB1FB5030A8DF80F10A8
S31500004EB804218DF80E30009103AB8DF80D0000F03B
S31500004EC8B5F905B05DF804FBF0B589B01768BDF80B
S31500004ED838509DF83C60CDF809708DF81250576827
S31500004EE8DDF840C0BDF84440CDF80D702D0A012EFE
S31500004EF88DF811308DF813508DF8146016D0032EE6
S31500004F081BD1DCF80030CDF81530DCF80430CDF8CC
S31500004F1819309DF848308DF81D3016230093BDF8DA
S31500004F284C2002AB00F082F909B0F0BD8DF81540AF
S31500004F38240A8DF816400F23F0E70120F4E71FB581
S31500004F480C46194602238DF80D2000930A4603AB3A
S31500004F580146204600F06AF904B010BD10B586B0C7
S31500004F681C460B68CDF80D304B68CDF811300A2376
S31500004F788DF815200093224603AB342100F056F92C
S31500004F8806B010BD30B585B00024ADF80A20021D64
S31500004F9892B2012A1D46ADF80840ADF80610ADF8E4
S31500004FA8044003D94FF6FF72904207D1064A2B46B2
S31500004FB8127801A91EF074F905B030BD014601AAA0
S31500004FC820461EF033FAF7E7712200202DE9F04F4C
S31500004FD8834689B00C461F4690463AB3104617F0EA
S31500004FE8C1FFC0F3470A1FB3384617F0BBFFC0F32B
S31500004FF84709FFF741FF4FEA1B238DF818008DF884
S315000050081B400022240A062106A88DF819B08DF83F
S315000050181A308DF81C408DF81DA018F0B3F8ADF8BD
S31500005028160038B9182009B0BDE8F08F9246DAE7BD
S31500005038B946DEE74FEA4A01CBB2DC1DE4B204EB1F
S315000050484901C9B20DF11600019318F08DFA00282E
S31500005058E8D10646F2B29245BDF8163015D8019940
S3150000506806314A4601F0FE01184618F0EDFA002608
S31500005078F5B2A945BDF816802AD84346BDF848209A
S3150000508806215846FFF77EFFCDE75500EDB22946C3
S3150000509840460393029218F0C3FA029A039BD11C66
S315000050A84900024601F0FE01184618F0CDFA691CBF
S315000050B8BDF816300293C9B2404618F0B1FA029B01
S315000050C8E91D0246C9B2184618F0BEFA0136C1E70C
S315000050D86D00EDB22946384618F0A2FA2146024676
S315000050E8404618F0B1FA691CC9B23846BDF81680B0
S315000050F818F096FA611C0246C9B24046023418F006
S31500005108A3FA0136E4B2B3E7F0B589B00E4602A9B0
S31500005118054609F0D3FC002800F08180FFF7ACFEB5
S315000051288DF8100017F026FA8DF8110017F022FAFC
S315000051383D4A8DF81B501368CDF813305368CDF8E7
S315000051481730BDF808308DF81C30000A1B0A8DF898
S3150000515812008DF81D3000229DF80D308DF81E3096
S315000051680F2104A818F00EF8ADF80600002858D04C
S3150000517800279DF80D30FAB2934207F1010718D8B7
S3150000518801231A460DF10E010DF1060018F036F846
S3150000519800279DF80E30FAB2934207F1010723D88B
S315000051A8BDF80630324620210020FFF7EBFE09B095
S315000051B8F0BD0021284609F0A7FC01238DF805005B
S315000051C81A460DF1050104460DF1060018F016F809
S315000051D80123240A1A460DF105010DF106008DF882
S315000051E8054018F00BF8C4E70121284609F08CFCA5
S315000051F801238DF805001A460DF1050104460DF147
S31500005208060017F0FBFF0123240A1A460DF10501D3
S315000052180DF106008DF8054017F0F0FFB9E7A32059
S31500005228C5E71820C3E700BF9D4300202DE9F041DC
S315000052381C460E4617469DF818800546FFF71CFEC5
S31500005248002220704146204617F09CFF034630B1E5
S315000052583A4631462846BDE8F041FFF793BE182086
S31500005268BDE8F08108B5FFF7B7F8BDE808400CF0CF
S31500005278C1BE08B5FFF7B3F8BDE808400CF0E0BEBC
S3150000528808B5FFF7ADF8BDE8084006F0F5BFFFF72B
S31500005298C1B8FFF7C5B80020704738B504460D46B3
S315000052A8FFF7DBF829462046BDE8384008F0B0BCD1
S315000052B8FFF7B8B8FFF7C4B84022032101200DF064
S315000052C8CFBB0122032110460DF0CABB00220321E1
S315000052D801200DF0C5BB0222032101200DF0C0BB41
S315000052E80122002109200DF0BBBB012070470120D7
S315000052F8704701207047002000F06AB8012000F0CE
S3150000530867B80000F8B50C4668B1012816D10C4DEF
S315000053180C4E0D4F012C08D10023336028F091FC68
S3150000532838600120F8BD094DF2E728F08AFC3B6891
S31500005338C01A3060284617F0F1F9F2E70020F1E7C5
S31500005348EC3D00202C24002094310020F43D002060
S3150000535808B5144B00221A70134B1A6841F28733AA
S315000053689A4207D9114901200BF0AAFDBDE8084069
S315000053781AF09EBB09F0D8FA022805D101213C2073
S31500005388BDE8084008F03ABF09F0CEFA40B9084A25
S31500005398084901200BF094FDBDE8084007F04ABA19
S315000053A808BD00BFF43D00202C240020746D0300C6
S315000053B8C2560300996D0300034B00221A70034B73
S315000053C801201968FFF712B8EC3D00202C240020B4
S315000053D838B501210446FFF795FF0021054620460A
S315000053E8FFF790FF35B9224603490120BDE838404A
S315000053F80BF066BD38BD00BFAF6D0300FFF782BF77
S315000054082DE9F74FDFF87C8007460D461446994686
S3150000541803F10C0A4FF0010B15B903B0BDE8F08F84
S31500005428102D2E46164A28BF1026F3B2494651F8C3
S31500005438040B42F8040B5145F9D101939AF8001070
S315000054481170104888F80F40002288F80E2088F856
S3150000545800B001341FF014FF0B48019BE4B23A4632
S3150000546812F8011B10F801CF81EA0C0102F8011CA1
S31500005478D11BC9B29942F3D3AD1BADB21746CBE7E0
S31500005488FA360020F9360020F83600202DE9F04FCC
S3150000549885B016460293BDF838900F9B354A01939E
S315000054A80D468046034600F10C0153F8040B42F8FA
S315000054B8040B8B42F9D1304C1B78137049232370A7
S315000054C820464FEA1923A37384F80F901FF0D8FEDD
S315000054D8237883EA1623237063784FF0020A734011
S315000054E863705246A34600271FE0C2F11001F31B62
S315000054F889B29BB28B42A2EB050028BF0B460390EC
S3150000550829460398A1EB050C1FFA8CFC08189C4544
S31500005518C0B21AD31A44D2B21F44102A1D44BFB2CD
S3150000552803D120461FF0ACFE0022B742DDD312B1EC
S3150000553858461FF0A5FEBAF1010F4FF00002029D72
S315000055484E460BD04FF0010ACDE711F801CB1BF8F8
S3150000555800E08CEA0E0C0BF800C0D2E7064B019966
S315000055681B6801980B604346042105B0BDE8F04F5F
S31500005578FFF746BFFA360020F9360020F7B5099F2F
S31500005588BDF82040CDE9004706461D46FFF77EFFD9
S315000055982CB13346012221462846FFF731FF002069
S315000055A803B0F0BD2DE9F743BDF828700F4C1E4631
S315000055B80546884691460346394630460122FFF796
S315000055C81FFF33464A4641462846CDE90074FFF791
S315000055D85DFF042221460B982BF0BEFD002814BF60
S315000055E87E20002003B0BDE8F08300BF3D360020D2
S315000055F873B51C46044D8B181E592E60CDE900451F
S31500005608FFF7D0FF02B070BD923700200020704728
S31500005618002070470020704770477047F7B50A4E5C
S315000056280A4F0B4D002456F8243003B93B6835F869
S315000056381420009207492246012001340BF040FC51
S31500005648292CF0D103B0F0BD08210020BC21002090
S31500005658B6410020C16D030008B5FFF7DFFFBDE8BE
S31500005668084000F0CBB8000007B50020FFF70AF89D
S31500005678C2B2282A0DD8084B53F822300BB9074B6B
S315000056881B68074931F812100091012005490BF0F3
S3150000569817FC03B05DF804FB08210020BC2100209C
S315000056A8B6410020C16D0300FFF7B8BF7047000080
S315000056B838B50020FEF7E6FF04460120FEF7E2FFB4
S315000056C80549054601200BF0FBFBA9B2E0B2BDE88F
S315000056D8384000F0ABB800BFCC6D0300F7B50A4EF2
S315000056E80A4F0B4D002456F8243003B93B6835F8A9
S315000056F81420009207492246012001340BF0E0FBF2
S31500005708292CF0D103B0F0BD08210020BC210020CF
S3150000571864410020C16D030073B502AB03E90600BE
S315000057280446019D16F070FC0646204616F07AFCE3
S315000057389DF800008EB1202C0FD82B78012B30D87D
S3150000574803EB43132A4923444FF6FF7531F8132018
S31500005758AA4202D0013221F81320264B264933F8F3
S31500005768146031F814504FF6FF7296421CBF721C33
S3150000577823F8142004F0FD02092A2AD19A8A898A74
S3150000578802448A42B4BF9A82998233F81430AB42F3
S315000057982BD3AE4229D2204602B0BDE87040FEF7B0
S315000057A826BE022BD9D1124B33F814204FF6FF71BF
S315000057B88A421CBF013223F8142004F121024FF655
S315000057C8FF7533F81210A9421CBF013123F81210D5
S315000057D8C3E71D2CD9D15A8F1118A942BDBF02F1B2
S315000057E8FF3212185A875D87CFE702B070BD00BF37
S315000057F808420020B64100206441002052220021C0
S3150000580801482BF0DCBC00BFB64100205222FF2124
S3150000581801482BF0D4BC00BF6441002008B5FFF74F
S31500005828EDFFBDE80840FFF7F1BF0000014B23F884
S31500005838101070476441002010B5104C1049A16142
S31500005848032321660F491022C4E904330E4BE36192
S31500005858C4E9191200230D49A362E01D6362E362DD
S315000058682367E366636722622BF0BBFC0849204680
S315000058782BF0B7FC2023A37110BD00BF003C00200D
S31500005888B47003001036002020360020BD700300D7
S31500005898C17003002DE9F84F1F4B16461A7881464A
S315000058A88A4698460AB9FFF7C7FF182707FB0987EC
S315000058B83D6FD7F86CB05D452BD9BC6E796E641B0D
S315000058C8B44228BF34462944504622462BF053FC9E
S315000058D8BB6E2544A244361BAB4208BF0025ABEB82
S315000058E8050B5E4528BF5E4656B1182303FB0983A0
S315000058F83246596E504629442BF03DFC3444354413
S3150000590824B1182303FB0988C8F870502046BDE85F
S31500005918F88F0024E3E700BF003C0020F8B50446F2
S315000059280E46174604F037FA3A46054631462046EB
S31500005938FFF7B0FF0446284604F033FA2046F8BDC0
S315000059482DE9F843124D1E462B78814688461746A0
S315000059580BB9FFF771FF04F01EFA696900244FF0CE
S31500005968180C0CFB04535A6E2AB10134A142F8DC18
S315000059784FF0FF3407E0A142FADDC3E918989F66A5
S315000059881A67DA665E6704F00CFA2046BDE8F88303
S31500005998003C0020FFF750BF012270B511460420D5
S315000059A804F074F81A4B1B4D1A681B4842F00102A2
S315000059B81A60DA684FF0604442F08072DA60174B7A
S315000059C8C4F8B03F00260223C4F8006EC4F8806EFF
S315000059D8C5F8F03003F074FF00F5D520104B114AD6
S315000059E800F2FC40B0FBF3F00F4B01382861C4F815
S315000059F8406E1A600D4BC4F8803E4FF48073C5F8AC
S31500005A080433D4F8003E43F48073C4F8003E70BDF6
S31500005A18F0ED00E0000004E006000E0055CEACC52F
S31500005A28F8590D00FF030040001000E00D000100CA
S31500005A3810B50121114803F00DFE114B01241C601D
S31500005A48002004F0D9FD234604220221052004F093
S31500005A5825FE20460EF06EF8FFF79EFF0EF06BF857
S31500005A68084B1C70FFF796FF234640220649074855
S31500005A78FFF766FF064B1860C00F10BD00250A0029
S31500005A8810881442C336002052370020C87003001D
S31500005A98F01F002038B51C4C04F07DF92378022B42
S31500005AA805BF032300250125237004F07AF94DBBB1
S31500005AB84FF06043D3F8802ED10711D513490A68F1
S31500005AC822F440620A60D3F8802E22F00102C3F85D
S31500005AD8802ED3F8802E1202FBD4642027F0E5FF2F
S31500005AE800221146042003F0D1FF094A0023C2F818
S31500005AF8F030C2F80433A2F54432A2F504721360FA
S31500005B080123237038BD00BFC3360020001000E013
S31500005B18000004E0024B1868003018BF01207047E7
S31500005B28F0ED00E0054A4170D12303701378C37085
S31500005B38090A8170591C1170042070471738002013
S31500005B482DE9F74F0E78042E83460F4661D928F0C3
S31500005B5873F8DFF8C480751DEDB282464FF6FF7103
S31500005B680024C146D8F800305BB1A54209D9019195
S31500005B7828F062F8A0EB0A0080B2B0F5FA7F019926
S31500005B8807D9281B18BF012004233B7003B0BDE8C2
S31500005B98F08FB4B3012C37D0EA1E631C9442DBB2F3
S31500005BA81CD1CCB24FF06042D2F8800EC00713D594
S31500005BB81046D9F80CC04CF0807CC9F80CC0D0F857
S31500005BC800CE4CF4807CC0F800CED0F820C0BCF1E2
S31500005BD8000FEED082F820401C46C3E7AA1E944266
S31500005BE802D1C1F30724DDE76A1E94420FD05C4454
S31500005BF8019314F8024C2046FFF724F8019B01464E
S31500005C08D0E75B240123CDE734460223CAE75D24A7
S31500005C18C8E70020B8E700BFF0ED00E000B5084B84
S31500005C2891B0402269461868FFF778FE20B1C2B2E3
S31500005C386946122013F0EEFE11B05DF804FB00BFB2
S31500005C48F01F002042DE704738B504460D4615F0B1
S31500005C58BFFE00F075FD04F096F82946204613F0BD
S31500005C68A5FE2B4622460549012007F051FB294689
S31500005C782046BDE83840FFF7E5BF00BFD8700300EF
S31500005C886D4B2DE9F0416D4C5A68A2655A6AE2657A
S31500005C986B4AD2F800122166D2F8042262669A6A22
S31500005CA8A266DA6AE2661A6B22675A6B6267DB6B70
S31500005CB8A26BA367D4E90F5312F0040F18BF1D4651
S31500005CC827F05EFF002285420346606522655CD3A5
S31500005CD85C4A954259D8AA696264E969A164B4F82C
S31500005CE85810C1F30801062953D157498A4250D39F
S31500005CF856498A424DD211884DF64262914248D1A0
S31500005D086268C4F89420A268C4F8982040F201702A
S31500005D184F4A5049934238BF13460A468B423BD3F3
S31500005D28D31AE3640023C4E91F33C4E92133C4E961
S31500005D382333484E444FDFF814C1AE4232D8D4E973
S31500005D481FC7D4E92165D4E923124FF0000E013BA1
S31500005D58DBB2FF2B41D1BEF1000F05D0C4E91FC746
S31500005D68C4E92165C4E92312B4F85830C3F308031B
S31500005D78DA1E0F2A55D8DFE802F03A5B474A545430
S31500005D885454545154545454543E0022C4E91122D4
S31500005D981D464FF42060BBE71E68B6F1CD3FBFD164
S31500005DA80433BBE756F8042DBA42C6D36245C4D2BB
S31500005DB8D107C2D5002104EB010EDEF87CE096453A
S31500005DC8BBD004311829F6D10BB9052301E0013BF4
S31500005DD8DBB204EB8301CA67AFE7E0464FF0010E7A
S31500005DE8BC4637462E460D4611464246AFE740F6B4
S31500005DF80120BDE8F081184BDB6913F0020F40F271
S31500005E08025318BF1846F4E740F60320F1E740F6B8
S31500005E180423B0F5206F08BF1846EAE740F60520C8
S31500005E28E7E7013B40F60722302B98BF1046E0E72C
S31500005E3840F60220DDE700BF00ED00E0000000208C
S31500005E4800E100E0401B0020E041000010120300C2
S31500005E589C000020601B00200020054018B1012886
S31500005E680CBF0120022070472DE9F04385B04FF49E
S31500005E788073ADF80C3001F061FC01211548DFF89C
S31500005E885C80DFF85C9003F0E5FB0121124803F023
S31500005E98E1FB0024012703AB0122E35C18F8336019
S31500005EA808EBC30330465D680023294604F0F6FB79
S31500005EB84946E8B201F050FCCDE9007701232A46AD
S31500005EC82946304604F0A4FB14B105B0BDE8F083BA
S31500005ED80124E0E74041050000250A00EC700300B4
S31500005EE8715F000008B5FFF7B9FF022816BF024B1D
S31500005EF80020185C08BD00BF3B36002008B5FFF738
S31500005F08ADFF02281CBF014B195408BD3B360020C3
S31500005F1808B5FFF7A3FF022805D0034A135CB3FAB6
S31500005F2883F35B09135408BD3B36002008B5FFF719
S31500005F3895FF022811D00A4A12F8301030234B4335
S31500005F4802EBC00207491944536803EBC1039B00DF
S31500005F581868B0FA80F0400908BD0020FCE700BFC9
S31500005F68EC7003001CA0104270B50446FFF7DEFF74
S31500005F780026054601E000261D462046FFF7D6FF07
S31500005F88A8420346F7D10136052EF2D12046FFF77F
S31500005F98A9FFA8420BD029462046FFF7AFFF2046A7
S31500005FA8FFF7A0FF0146204608F0EEFB70BD20462D
S31500005FB8FFF7AEFF2046FFF795FF0146204608F09B
S31500005FC8E3FB2046FFF7A4FFE9E7000010B504F05D
S31500005FD8CBFD044604F0C2FD0022012101FA02F3BA
S31500005FE8234014D01B4B33F812301B4A062B13D010
S31500005FF840F207218B420DD1184919480C68844292
S3150000600808D14CF23C334B800B88138012E00132E6
S31500006018112AE3D1104AF8E7104B58884FF20F01BE
S31500006028884214D11988B1F5406F10D211804CF20C
S315000060383C325A80084B1A8840F201739A4201BFD3
S31500006048084A094BD2E90001C3E9000110BD4FF423
S31500006058C061EBE7FC700300E2330020000000207B
S3150000606807020FF094000020BC2E0020014B188870
S31500006078000A7047E2330020014B1888704700BFBA
S31500006088E23300202DE9F04F494C4A4AA36BD4F875
S3150000609850B0D4F840A0054658074FBF0027D4F89B
S315000060A84CB0D4F85480D4F83CA059BF424FDFF81E
S315000060B83891DFF83891B84613F0080F3F4B18BFF0
S315000060C81A46B7EB08061CBF7308642187B01FBFC2
S315000060D801FB0B33B3FBF6F39BB205933849CDF8B6
S315000060E800804B46CDE9017A284608BF059601F09F
S315000060F879F8B3B2CDE900933249059B1FFA8BF2C2
S31500006108284601F06FF8A36B59070AD49C3E5E45F2
S3150000611807D1626D2C4B9A4203D22C49284601F0CE
S3150000612861F8BA4501D8C24504D24A4628492846E4
S3150000613801F058F8284607F0E5F8236E0BB9636EA8
S315000061487BB32449DFF8A880DFF89090284601F051
S3150000615834F800260127226E07FA06F3134207D001
S3150000616858F8262013781BB14946284601F025F829
S315000061780136202EEFD1636EDA0704D5164A174981
S31500006188284601F01AF8636E9B0704D5144A13498A
S31500006198284601F012F8284607B0BDE8F04F01F08E
S315000061A81BB81049284607B0BDE8F04F01F01AB8E9
S315000061B8000000200E740300601B00200774030013
S315000061C816740300447403009C0000207D740300C9
S315000061D8A9740300C7740300F6740300EE120300E3
S315000061E8037503000E750300027403002A8A030070
S315000061F8247503002DE9F8430446FFF73DFF40F6F2
S315000062080123984239D010D840F2025398421DD043
S3150000621840F20173984224D040F20153984213D1B8
S315000062286549204600F0DEFF22E040F60323984247
S315000062386CD03DD340F60423984200F09C8040F68B
S315000062480523984200F0B580BDE8F8835B492046EF
S3150000625800F0C8FF5A4B5B495A6C204600F0C2FF53
S3150000626806E0574A5849D2E92523204600F0BAFFE6
S315000062782046BDE8F84307F045B8514D5349204636
S3150000628800F0B0FF95F86C309F0703D550492046BB
S3150000629800F0A8FF95F86F305E0603D54D492046F5
S315000062A800F0A0FF95F96F30002BE1DA4A49B8E70C
S315000062B8434D4A49204600F095FF95F868309807FF
S315000062C804D06A6C3F49204600F08CFF95F9683087
S315000062D8002B04DA6A6F4249204600F083FFDFF894
S315000062E80C81DFF8189100260127AA6E07FA06F333
S315000062F8134207D058F8262013781BB14946204682
S3150000630800F070FF0136082EEFD1B1E72C4D354964
S31500006318204600F067FF2B496A6C204600F062FFB2
S3150000632895F86930590703D52F49204600F05AFFDA
S3150000633895F96930002B04DA6A6F2949204600F07E
S3150000634851FF2A4FDFF8B4800826AB6EF340DA0710
S3150000635807D557F8262013781BB14146204600F08A
S3150000636841FF0136102EF0D195F86830002B7FF4E6
S315000063787FAF1F4955E7124D1E491C4FDFF87C8039
S31500006388204600F02FFF6A6C0E49204600F02AFFCF
S315000063981026AB6EF340DB0707D557F8262013788F
S315000063A81BB14146204600F01DFF01361A2EF0D1DA
S315000063B85EE711494BE700BF91710300CE710300F8
S315000063C800000020FE7103001772030031720300FB
S315000063D84972030083720300B6720300F272030067
S315000063E8177303003B730300527303002071030005
S315000063F898730300C8730300E17303003373030043
S315000064082DE9F84F164C174FDFF86080DFF860A0CB
S315000064180646002523785FFA85FB0BB9BDE8F88F99
S3150000642857F8043B10492246304600F0C6FE22784B
S3150000643804F1010982B9627882B10BF003010329DC
S315000064480CBF41465146304600F0B7FE304606F0CE
S3150000645859FF01354C46DDE74C46E8E74146F2E789
S31500006468AC75030004000020887103006B1203005A
S31500006478888C030000F00CB800F00AB800F008B8E1
S3150000648800F006B800F004B800F002B800F000B852
S3150000649872B61EF0080F09D01EF0040F0DD0DFF8F3
S315000064A850E0AEE8FF1F6FF002000CE0DFF840E0B6
S315000064B8AEE8FF1F6FF00E0005E0DFF834E0AEE847
S315000064C8FF1F6FF006006946EFF309828EE80700A2
S315000064D886460848084C854501D3A54501D384F36B
S315000064E80888FFF7CDFB84F3088827F007FB000030
S315000064F80400002040120020601B0020FFF7C6BFE2
S315000065087047000037B57F2A14BF154600254BF2A1
S3150000651834629142044619D17F2241F2020168464B
S315000065280823FFF7EFFF0822264968462AF014FEDB
S3150000653830B908237F2241F2F0116846FFF7E2FFDF
S315000065486B4603CB2060616003B030BD41F2F012A8
S31500006558914219D11C490A6C496C01381D1F002B40
S31500006568F2D0013B9D4200F8012F4FEA1222F6D1E4
S31500006578033400229A42E7D00132042A04F8011FA4
S315000065884FEA1121F6D1DFE701F47042B2F5805FD8
S315000065980BD1C1F30B0404F17E641A4603FB0541D3
S315000065A803B0BDE830402AF0E6BD01F46042B2F51A
S315000065B8005FC9D1C1F30B0404F17E6404F580447D
S315000065C8EBE700BFD77B0300B081E00F70B5054647
S315000065D816461C46DBB14BF23463994210D1082C9F
S315000065E828BF08247F2241F202012346FFF78AFFCB
S315000065F82246074928462AF0AFFD40B941F2F01174
S31500006608234632462846BDE87040FFF77BBF70BD7B
S31500006618D77B03002DE9F8431646C20704460F4602
S3150000662803D5DD212748FFF70FFBF30703D5DE2146
S315000066382448FFF709FB04F47043B3F5805F21D1C2
S31500006648C4F30B0404F17E64731E1F4A2344934269
S31500006658254603D9E3211B48FFF7F6FADFF86490CD
S3150000666805EB0608454522D156B372083946204639
S3150000667827F0CFF920B340F20F111248BDE8F843CE
S31500006688FFF7E2BA04F46043B3F5005F07D1C4F339
S315000066980B0404F17E6404F580442546DEE7EA210E
S315000066A80848FFF7D1FA6FF00F050024D6E715F86A
S315000066B8013BFF2BD6D0F4214846FFF7C5FAD1E7B0
S315000066C8BDE8F883787B0300FF07E00FFFF7D2BE2B
S315000066D81FB501211648174C02F0BCFF01221146CE
S315000066E8104603F0D3F90421072004F027FA124ACA
S315000066F81068516801AB03C39068186001238DF8D0
S3150000670804300D238DF80C3001A9032320468DF89B
S315000067180D3004F05CFC094B04220221C3F88021E9
S3150000672861621A60A36A0B43A36204B010BD00BF7E
S3150000673830053E0000200540DF7B030000E100E055
S31500006748014804F038BC00BF00200540A52803D145
S315000067580021024804F01BBC704700BF002005401A
S31500006768024B186800F00100704700BF0020054082
S31500006778024A9368002BFCD1704700BF00200540F1
S3150000678800207047002070477047000037B572B682
S3150000679803F0F9FA734B74495B698B6000230B7637
S315000067A8E0204B768B764023C8760877487788773B
S315000067B8CB776E4B8022602481F8202081F8210057
S315000067C881F8220081F8232083F8002383F8014307
S315000067D8202483F8024383F8032383F8042383F8E9
S315000067E8052383F8062383F8072383F8082383F809
S315000067F8092383F80A2383F80B2383F80C2383F8E9
S315000068080D2383F80E2383F80F2383F8102383F8C8
S31500006818112383F8122383F8132383F8142383F8A8
S31500006828152383F8162383F8172383F8182383F888
S31500006838192383F81A2383F81B2383F81C2383F868
S315000068481D2383F81E2383F81F2383F8202383F848
S31500006858214383F8220383F8230383F8240383F868
S31500006868250383F8260383F82703CB6823F4E0631C
S315000068781B041B0C43F0BF6343F40133CB604B6925
S3150000688843F400734B614B6943F010034B614FF4BB
S31500006898E0234B6204F032FDFFF798FBEFF3088321
S315000068A8334A043B4FF0CD3193422ED2314A324817
S315000068B892B200212AF083FC62B6304B01225A6458
S315000068C82F4BDC6C6846240E04F0DEF98E2C1FD89C
S315000068D82C49D1F8B00040F00403C1F8B0302A4B77
S315000068E84FF050121A601A631A66C3F89020C3F85C
S315000068F8C020C3F8F020C1F8B000224AD36A23F0BA
S315000069087F0343F02003D36204E01960043BCBE71E
S315000069188F2CF2D99DF80130012B01BF1B4A136851
S3150000692843F0040313601A4B00241C60194B01251D
S315000069381D6104F021FC01F011FC684600948DF8F5
S3150000694804408DF8035003F08FFB00F0EDF827F0B4
S3150000695885F900F0F7F80DF04DFC0F480DF0F4F846
S3150000696803B030BD0040000000ED00E000E100E0AB
S315000069780012002024110000A000002000000E4094
S31500006988B081E00F00400E4000A0004064310E4088
S31500006998B40AC64300300E408CA3030040F20160DF
S315000069A827F0ACB804F0E6BB04F0E5BBFEF734BE4E
S315000069B808B500210B20FEF72DFEBDE80840FEF7BE
S315000069C82CBE08B1FDF74BBDFDF748BD032000F00E
S315000069D89DBA000008B5FFF749FB044B0B289ABF80
S315000069E800B203EB8000184608BD00BF327D0300E5
S315000069F808B5FFF741FB044BC0F30F22C0B253F8AA
S31500006A08223003EB800008BDFC7C030010B5FFF7BD
S31500006A182DFB0446FFF730FBC0B228B9012C24D160
S31500006A2864F07F04E4B216E0072CF9D801A353F802
S31500006A3824F000BF5F6A0000296A00005D6A000052
S31500006A48636A0000636A0000676A00006B6A0000F8
S31500006A586F6A00000924204610BD0224FBE70324C0
S31500006A68F9E70B24F7E70624F5E70446F3E700BF42
S31500006A7838B50D46044688BB284B4A1E1860504256
S31500006A885041013D06F0C4FE032D46D8DFE805F067
S31500006A9802131E2001210846FDF7E2FCFFF760FEFF
S31500006AA81F4B187010B1A520FFF750FE0120BDE856
S31500006AB8384006F0ADBE02210120FDF7D1FCFFF7F4
S31500006AC84FFE50B3BDE83840FFF752BE0421F3E746
S31500006AD805210120BDE83840FDF7C2BC104B1B78E4
S31500006AE81BB101210F4804F052FA631E584258415F
S31500006AF8013C06F0A3FE032C0FD8DFE804F00208D9
S31500006B080A0C012006F09AFE01210020E2E7022184
S31500006B18FBE70421F9E70521F7E738BDF031002046
S31500006B283338002000200540044AD2F81C341B0CD8
S31500006B381B04C2F82434024A1360704700A00040C0
S31500006B48482C002008B504F0C7FC18B18C2104486D
S31500006B58FFF77AF803490448BDE8084004F02CBD5D
S31500006B68627D0300E81D0020CC2C0020134A14493E
S31500006B78D2F82834D2F81C241340124A9BB2136068
S31500006B88D1F80001800502D50868800506D4D1F839
S31500006B980001800305D50968880302D543F48033CC
S31500006BA81360074BD3F80011890006D51B689B00B4
S31500006BB842BF136843F400331360704700A00040D7
S31500006BC800E100E0F0310020012810B50AD0831E4C
S31500006BD8012B1CD904281CD0052801D103F0A2FAE0
S31500006BE8002400E0044620460B4A012104F0A4FCD8
S31500006BF803F0BEF803F0CBF804F004FD03F0BAF88E
S31500006C082046054A0021BDE8104004F095BC022440
S31500006C18E9E70324E7E700BFC37D0300FFF7D4BF16
S31500006C282DE9F04F89B012F0E2FD0746002840F042
S31500006C38DC806F4E6F4D3168286828F0E1FE044607
S31500006C48002827D033689A69D3E90001126890476B
S31500006C5833689B6904A89B68984733689B69022038
S31500006C68DB6898473C46326805985368B3FBF0F3EF
S31500006C78E7B2BB42916904F1010442D8CB6800200F
S31500006C88984733689B695B6898473168286828F095
S31500006C98B7FE0446DFF888910026002C53D1564BE0
S31500006CA8F35C4FEA8608002B31D1544BF35C019311
S31500006CB8534BA24603EB080B019B28685FFA8AF739
S31500006CC8BB4253D84F4BF35C002B3CD04C4B019F37
S31500006CD89844FBB27E2B286835D8D8F8003007EBE5
S31500006CE8030A03AA02AB514629F0CCF848452AD034
S31500006CF85146286829F00CF9013704460028E8D0DF
S31500006D0821E012680B6907FB00209847ABE73C4B6C
S31500006D18286853F8267003AA02AB394629F0B2F858
S31500006D28484507D078B9039B012B0CD0394628680B
S31500006D3829F0EEF8344B286853F8083039461A68B3
S31500006D4828F0CAFF04460136252EA6D1B4FA84F3E4
S31500006D582E4A5B0913702E4B9C4240D02DD8002C2E
S31500006D6832D0013B9C423ED0C5242DE0DBF80030F2
S31500006D781F4403AA02AB394629F084F848450AD0CD
S31500006D8810B10AF1010A97E7039B8BB9214B029AC6
S31500006D98F35C9A42F5D01F4B1B4A9B5D52F80820BC
S31500006DA82868394628F0FEFE0028EAD0044689E716
S31500006DB83946286829F0ACF8EDE7174B9C4210D005
S31500006DC804339C42D0D1C1242B681B7C1BB1D32130
S31500006DD81248FEF739FF204609B0BDE8F08FC324F4
S31500006DE8F2E7C424F0E7C224EEE7C624F3E700BFBF
S31500006DF8641E0020601E002020180300641703008C
S31500006E086C180300451803008C1703002738002068
S31500006E1802E000F00019030004E000F0CD7D030055
S31500006E280BE000F0242970B506460C4615461AD81C
S31500006E38144A127822B3144A1068144A52F82110D8
S31500006E48134A125D3AB1324628F094FFC0B1BDE844
S31500006E587040FDF706BF7F2D08BF0025324629443E
S31500006E6828F0ECFEF2E7FF2903D9BDE87040FFF7EA
S31500006E78ADBB40F201110748BDE87040FEF7E4BE1D
S31500006E8870BD00BF27380020601E00206C18030064
S31500006E9820180300CD7D03002428F8B504460D46C6
S31500006EA8164619D81449097829B31449144F08689D
S31500006EB8144951F824103C5D3CB1126828F00CFFC7
S31500006EC8C8B1BDE8F840FDF7CCBE7F2D08BF002548
S31500006ED8294428F067FEF3E7FF2805D91A46314604
S31500006EE8BDE8F840FFF796BB4FF49A710648BDE82F
S31500006EF8F840FEF7A9BEF8BD27380020601E00201E
S31500006F08201803006C180300CD7D030008B5084B54
S31500006F181B7863B1074B53F82010074B00221868FB
S31500006F2828F068FF18B1BDE80840FDF79ABE08BD0D
S31500006F38273800206C180300601E002070B516461E
S31500006F4885180AB9304470BD01F00F030A2B34BF07
S31500006F58302437242344013A090905F8013DD2B201
S31500006F68EFE70000F0B5F9B100281CDA2D23B0F1DF
S31500006F78004F137000D04042012115E0801B864265
S31500006F88ECB205F10105F9D904B927B14D1C303425
S31500006F9854540127E9B20133092B09D13030505432
S31500006FA80131C8B2F0BD00210023DFF80CC01F462E
S31500006FB85CF823600025E2E7287E03002DE9F04F00
S31500006FC895B04FF0000B02AC81468A4617461D461F
S31500006FD85E46A0463B7863B902ABE41AE4B22246A1
S31500006FE819465046C847002840F093803444E0B21A
S31500006FF890E0252B13D0BBF1000F14D12370013478
S3150000700812AB9C426DD3A4EB0804E4B22246414677
S315000070185046C84700287CD12644F6B260E0BBF14A
S31500007028000F00D101373B78632B00F092801BD804
S31500007038392B09D8302B80F09E80002BCCD0252BFD
S3150000704851D04FF0000BDBE7582B00F08B80622BFA
S31500007058F7D12B6801936B6800934FF0000B009BE8
S315000070689B4543D10835ECE7702B1ED017D8642B07
S3150000707801D06C2BE5D16C2B05F1040B28686CD17B
S315000070887B78752B14BF0121002101D0642B00D118
S3150000709801372246FFF766FF04445D46D1E7752BA4
S315000070A8E9D0782B5ED0732BCBD1A4EB0804E4B2DD
S315000070B8224602A9504605F1040B2D68C84740BB75
S315000070C82644F6B2C4B201302B5D002BFAD1224613
S315000070D829465046C847E0B926445D46F6B2834677
S315000070E84446013776E723700134AAE7019B204618
S315000070F813F80B100222FFF721FF12AB9842044641
S315000071080ED3A0EB0804E4B2224641465046C847CF
S3150000711818B1002015B0BDE8F08F2644F6B24446F3
S31500007128009B013B5B4582BF20232370013412ABD1
S315000071389C420BD3A4EB0804E4B2224641465046CF
S31500007148C8470028E5D12644F6B244460BF1010BA0
S3150000715885E72B6823700435C6E7752B0CBF00211D
S31500007168012196E7204602222978FFF7E7FE05F176
S31500007178040B044691E77A7802F0DF02582A19D1FF
S31500007188322B07F1010B09D129882F1D042220462D
S31500007198FFF7D4FE3D4604465F4652E7342B09D135
S315000071A82F1D2D680422290C2046FFF7C7FE04224E
S315000071B8A9B2EDE74FF0010B22E70EB403B503AA17
S315000071C852F8041B019206F0C5FBC0B202B05DF886
S315000071D804EB03B0704700000149FFF7EEBF00BF9C
S315000071E86B1203000EB433B505AA054652F8041B04
S315000071F8019206F0AFFB04462846FFF7EDFFE0B222
S3150000720802B0BDE8304003B0704708B506F0A2FBEF
S31500007218C0B208BD2DE9F04F9B46584B85B01B7888
S31500007228109F9DF844A0DDF850800646894615460D
S31500007238002B00F09280072A00F291800E9B002B0B
S3150000724800F08D800F9B002B00F08980129BB3F510
S31500007258006F00F38480012801D1002F7FD0484BAE
S3150000726803EB05131B7B002B7BD0464C1022002119
S31500007278684629F0A4FF04EB45141022B9F1000F63
S315000072885CD14946204629F09AFFA37843F01003BB
S31500007298A370E37843F03003E370BAF1000F03D12B
S315000072A8DBB243F00303E3703649129BCDF800B016
S315000072B86A01013B885A01EB020C63F30E108852EF
S315000072C80E9BCCF808300F9BCCF804309DF84C1078
S315000072D89CF80330012E61F383038CF8033042D106
S315000072E81323CCF80C309CE80F000CF1100E8EE836
S315000072F80F00DCF81C20CCF814706FF0030161F362
S315000073089F02B9F1010FCCF81C2004D10F9BCCF8D1
S315000073181830CCF804701A492A018B1841F80280F3
S315000073280027159A5A6028469F605E73224669466A
S3150000733803F040FA384605B0BDE8F08F0021204634
S3150000734829F03DFF1023A3700323E370BAF1000F61
S31500007358AAD1DBB243F03003A5E70B48EBE70B48AD
S31500007368E9E70B48E7E7B8F1000FD4D19CF80230FB
S3150000737868F304138CF80230CDE700BF1F370020EE
S315000073883C240020482B0020028000F0018000F0F9
S31500007398078000F038B5104B1B780546BBB1C0B165
S315000073A802F0F9FC0D49002301EB0312147B3CB9EA
S315000073B82B6001231373146002F0F3FC204638BDDA
S315000073C80133082BF0D102F0ECFC0548F7E7054835
S315000073D8F5E70548F3E700BF1F3700203C240020E7
S315000073E8048000F0028000F0018000F038B502F059
S315000073F8D2FC0B4A05460023D1180C7B5CB9103326
S31500007408802BF9D103F08CF9064B28461C7002F044
S31500007418C8FC204638BD284602F0C3FC0248F9E7F6
S315000074283C2400201F370020058000F00D4B1B78F8
S3150000743810B5044693B1072812D802F0ACFC0A4BE3
S3150000744803EB04131A7B2AB100241C7302F0A9FC6F
S31500007458204610BD02F0A5FC0448FAE70448F8E700
S315000074680448F6E71F3700203C240020068000F079
S31500007478028000F0018000F013B5164B18680190E1
S3150000748800238DF8043002F086FC134B1C7824B1D7
S3150000749802F087FC114802B010BD01221A7002F0F2
S315000074A880FC0F4B1C731C7783F82C4083F83C40F8
S315000074B883F84C4083F85C4083F86C4083F87C4042
S315000074C804230DEB03008DF8073003F049F9204635
S315000074D8E1E700BF4C7E03001F370020038000F061
S315000074E83C24002010B588B00E9C07940D9C069489
S315000074F89DF8304005940B9C04949DF8284003940D
S315000075080024CDE9013400920B4602462146204666
S31500007518FFF780FE08B010BD10B588B00E9C079422
S315000075280D9C06949DF8304005940B9C04949DF898
S31500007538284003940024CDE9013400920B46024604
S3150000754801212046FFF766FE08B010BD08B50A4BB4
S315000075581B785BB107280BD8084B03EB00131B7B82
S3150000756843B1002103F0F2F8002008BD0448FCE707
S315000075780448FAE70448F8E71F3700203C240020AF
S31500007588028000F0018000F0078000F008B50A4B81
S315000075981B785BB107280BD8084B03EB00131B7B42
S315000075A843B1012103F0D2F8002008BD0448FCE7E6
S315000075B80448FAE70448F8E71F3700203C2400206F
S315000075C8028000F0018000F0078000F008B50A4B41
S315000075D81B7853B107280AD8084B03EB00131B7B0B
S315000075E83BB103F039F9002008BD0548FCE705481A
S315000075F8FAE70548F8E700BF1F3700203C240020BB
S31500007608028000F0018000F0078000F00D4B1B7827
S3150000761893B1072812D889B10B4B03EB00131B7BD8
S3150000762873B10A4B1A6A012303FA00F010401ABF15
S3150000763800200B700870704705487047054870476A
S31500007648054870471F3700203C24002000200E40C4
S31500007658028000F0018000F0078000F00B4B1B78D9
S3150000766810B50C4663B107280CD859B1084B03EB83
S3150000767800131B7B43B103F005F92060002010BD01
S315000076880448FCE70448FAE70448F8E71F370020EF
S315000076983C240020028000F0018000F0078000F002
S315000076A82DE9F843174E326EF36E12EA030800D539
S315000076B8FEE7154CDFF854900127002518EA070F56
S315000076C816D02368B7669BB1A16862680131A160CC
S315000076D828469847637B012B0AD148B909EB45131D
S315000076E8197B1A7F60F3410160F3410219731A7717
S315000076F80135082D4FEA470704F11004DED1BDE82D
S31500007708F88300BF00200E403C240020482B0020B0
S3150000771870B5094E0446012504B970BD94FAA4F063
S31500007728B0FA80F005FA00F324EA030456F820308C
S31500007738002BF1D09847EFE7DC2C0020054B4FF4DF
S315000077480032C3F880211A604FF40072C3F8802112
S315000077581A60704700E100E038B504460D4602F0AD
S315000077681AFB034B43F82450BDE8384002F019BB16
S31500007778DC2C0020074BD3F82804D3F81C2410402F
S3150000778820F42A5020F02A004004400CC3F82404B0
S31500007798FFF7BEBF00A00040074BD3F82804D3F874
S315000077A81C24104020F4AA4020F055000004000CC8
S315000077B8C3F82404FFF7ACBF00A00040104A41619B
S315000077C8136830B51546ABB91060836011E0091B24
S315000077D89C6841611A467CB123465C698C42F6D99D
S315000077E8002CF4D052B19060836013B15A69511AD3
S315000077F8596130BD0022F0E72346F4E72860F3E735
S315000078089C31002010B500F027FB094B094A19687E
S3150000781831B11368C41A4B69A34203D31B1B4B61CE
S31500007828106003E0C01A002310604B6110BD00BF52
S315000078389C310020DC2D002038B50F4D2B685C6983
S315000078480E4B1B6802201C4400F034FB204600F057
S3150000785809FB0B492A6800230B70D088800702D5DC
S3150000786801230B7038BD9268002AFBD05069034487
S31500007878012BF2D9F6E700BF9C310020DC2D002051
S315000078884337002070B59DF814500571002516463B
S315000078988560049ABDF81850C58004460260C0E9A0
S315000078A803360D4629B961610BB11146984796B161
S315000078B8354602F070FA0646FFF7A4FF2946204629
S315000078C8FFF77CFF054B1B68A34201D1FFF7B4FF06
S315000078D8304602F066FA002070BD00BF9C310020D9
S315000078E80C4A136800217BB183420AD1836879B1B7
S315000078F88B6083681BB15A6941690A445A61002042
S31500007908704719469B68EEE70028EFD002207047BB
S315000079181360EEE79C31002070B5154E02F03BFA75
S3150000792834780546FCB9134B1C60134B1C60134B8B
S315000079381C8000F04FFA012000F0BCFA00F008FBAA
S315000079480F4B0246186020B9284602F02AFA23206F
S3150000795870BD23460B4840F2E73129F045FA0A4B39
S31500007968186001233370284602F01BFA0020EFE75F
S31500007978243700209C310020DC2D0020D83300203D
S315000079889831002018FCFFFFE42D00202DE9F04176
S315000079980546F8B102F0FFF90F4F0646FFF732FF2A
S315000079A82846D7F80080FFF79BFF044628B13046E3
S315000079B802F0F7F92046BDE8F081A8453B6803D1F7
S315000079C823B1FFF739FFF2E7002BF0D1022000F0D0
S315000079D87FFAECE72224EDE79C310020F0B50D464E
S315000079E885B016461F46044680B1FFF7CFFFBDF89F
S315000079F82C3002939DF828300022CDE900732946E1
S31500007A0833462046FFF73EFF05B0F0BD2220FBE7D0
S31500007A1838B50C46054698B191B100230B7002F0B3
S31500007A28BAF9084B1B6801210BB122781AB102F08A
S31500007A38B8F9002038BD9D420CBF21709B68F3E75A
S31500007A482220F7E79C310020F0B587B01F460023B7
S31500007A580D4616468DF817300446A0B10DF11701EC
S31500007A68FFF7D6FF9DF817207AB9BDF83430029390
S31500007A789DF830302946CDE9007320463346FFF796
S31500007A8801FF07B0F0BD2220FBE70320F9E700005D
S31500007A98F8B50C460646C8B1C1B102F07CF90546F0
S31500007AA8FFF7B0FE73692360134B1B68B3420FD010
S31500007AB823B9284602F075F903201CE059692268A3
S31500007AC89B680A442260F1E700230FE0222012E0B7
S31500007AD80A4E276800F0C0F93368C01A8742F3D9FE
S31500007AE800F0BAF93368C01A23681B1A28462360BF
S31500007AF802F057F90020F8BD9C310020DC2D00204B
S31500007B08F8B507460E4602F046F9124B1B680546BD
S31500007B18002423B9284602F044F91B2015E05A69C7
S31500007B281444DA88BA4213D10B4F00F095F93B6832
S31500007B38C01AA0420AD200F08FF93B68C01A201A70
S31500007B483060284602F02DF90020F8BD0020F7E73E
S31500007B589B68DEE79C310020DC2D0020014B18785D
S31500007B68704700BF4337002038B502F014F90546C0
S31500007B7800F072F90446284602F013F9204638BD8B
S31500007B8870B502F008F9064600F066F9094B1C883C
S31500007B9805460120A4B200F0B3F918B100F05CF96B
S31500007BA801340546304602F0FCF8002242EA050098
S31500007BB8214670BDD8330020014B1868704700BFB6
S31500007BC8983100200A4B1B68834210B50C460CD32B
S31500007BD8084B19684FF47A720023A0FB010129F0BB
S31500007BE803F901302060002010BD2120FCE700BF0A
S31500007BF8E42D002098310020104B1A684FF47A7350
S31500007C0810B5A0FB0301A2B1531E134211D1B2FA5B
S31500007C1882F2C2F11F02C2F12004A2F1200301FA86
S31500007C2804F420FA02F2224321FA03F342EA03009B
S31500007C3810BD002329F0D8F8FAE700BF98310020D4
S31500007C48F8B516461BA3D3E900238B4208BF824228
S31500007C582AD3174B1A684FF47A73A0FB034503FB24
S31500007C680155C2B1531E13EA020014D1B2FA82F2C8
S31500007C78C2F11F02C2F12007A2F1200124FA02F381
S31500007C8805FA07F73B4325FA01F10B4325FA02F2F9
S31500007C98C6E90032F8BD00232046294629F0A4F893
S31500007CA8C6E900010020F5E72120F3E7AFF30080DD
S31500007CB898310020EFA7C64B37894100C2072DE946
S31500007CC8F84F04460BD53F4A138801339BB21380FD
S31500007CD8FFF798FD3C4B1B680BB1FFF7ADFDA307FB
S31500007CE86DD53A4F00F0B8F83D688046451B02F05E
S31500007CF852F8002683463246B246334B1C6814B106
S31500007D086369AB4214D9012E314B51D1D288022A6C
S31500007D184ED11E70002C4ED06369C7F800805D1BDB
S31500007D286561FFF789FD5846BDE8F84F02F039B896
S31500007D38C7F8008023462A465969914209D8187916
S31500007D4894F804C0844588BF1C469B68521A002BC9
S31500007D58F2D1584602F025F8D4F814B0C4F814A0A5
S31500007D6802F019F881462046FFF7BAFD484602F0A8
S31500007D7818F823694BB102F00EF8216981462046AE
S31500007D88FFF71CFD484602F00CF8E36813B12168BA
S31500007D982046984700F060F8D844A5EB08058146C8
S31500007DA8054401F0F8FF013683462246C846A4E793
S31500007DB800221A70AEE7022000F08AF8B3E7BDE8A1
S31500007DC8F88F00BFD83300209C310020DC2D00201E
S31500007DD81D38002010B51C4B86B05968186803AAD0
S31500007DE803C2197A53F8090F117001909A88174837
S31500007DF89B79ADF8082001218DF80A30002401F09E
S31500007E0829FC03A88DF80C408DF8104002F008FFF5
S31500007E1801A901208DF8044002F0E2FE0C4A536ADB
S31500007E2823F4FF6323F00703536240F2FF731362E0
S31500007E380120946002F0EEFE064B4FF00052C3F8A4
S31500007E4880211A6006B010BD507E0300A0091400F8
S31500007E580020044000E100E0014B9868704700BF2D
S31500007E6800200440114A9368516D9269520704D460
S31500007E78CA1A022A01D899420DD1C21A012A98BFF4
S31500007E88981C0A4BB0F1FF3F28BF013058655A6A63
S31500007E9842F004025A62064A137833B103490B6D5D
S31500007EA843F002030B65002313707047002004405B
S31500007EB8022200208207054A00F00103516A48BFE2
S31500007EC843F004030B435362704700BF002004408D
S31500007ED8830700F0010209D5074B012119700749EC
S31500007EE80B6D23F0030342F004020B6503494B6A4A
S31500007EF823EA02034B627047022200200020044056
S31500007F08064B01289B6904D0022805D1C3F38000DB
S31500007F18704703F0010070470020704700200440B6
S31500007F2810B501F038FF094A93690446590703F06A
S31500007F38010003F0070348BF40F002001362FFF791
S31500007F48BDFE2046BDE8104001F02BBF00200440CE
S31500007F58014801F0B5BC00BFA0091400044B1B681A
S31500007F6800EB8000A3EBE00080F30800704700BF39
S31500007F7830240020174B402870B59C6824DD502813
S31500007F88B4BF012302231449144A154DDE003144B7
S31500007F9803C982E80300134A324492E80300012C1D
S31500007FA885E8030003D10B4A4AF6E8519160012B94
S31500007FB80CD0022B0CD0002002F0DCFA012C02D1E6
S31500007FC8044B00229A6070BD0023DCE70120F3E72A
S31500007FD80220F1E700300E40942C002034310020B6
S31500007FE864310020AC2C0020FFF7C4BF044B4FF0CF
S31500007FF84042DA621A6B22F040421A63704700BFA9
S3150000800800300E402C48F0B5002203682B4D11466F
S3150000801854592CB11E68AC18002E36D123460121BE
S315000080280832302AF4D101B103602549254E0B6880
S315000080380022144695592DB11F68B518002F2BD16B
S315000080482B4601240832302AF4D104B10B600068AB
S315000080581D4B026842B3DA69007922F0FF02024337
S31500008068DA611A6B42F0804209681A630A68164B8D
S31500008078F2B1DA69097922F47F4242EA0122DA6129
S315000080881A6B42F000421A63F0BD1E792779B7428F
S3150000809884BF23460121C3E71F7995F804C0BC4570
S315000080A83CBF2B460124CDE71A6B22F08042DBE762
S315000080B81A6B22F00042E6E7C82D00203431002072
S315000080C8E02D00206431002000300E4008490B6A7C
S315000080D80A6ADBB2D2B29342F9D1064A0520DB001E
S315000080E8B3FBF0F31068C31A03F3070040B27047F6
S315000080F800300E403424002070B5144C226B616A9F
S315000081080A4011D5124B1B681E6836B100251D6042
S315000081185D60FFF7DBFF2946B0474FF00043E36297
S31500008128BDE87040FFF76EBF5300F9D5094B1B68D1
S315000081381C6834B100221A605A60FFF7C7FF012194
S31500008148A047024B4FF08042DA62E9E700300E4062
S31500008158E02D0020C82D0020FFF7CEBF2D4B37B5E8
S3150000816801221A70002130222B4829F028F83022E3
S3150000817800212A4829F023F8294A2A4B13602A495C
S315000081882A4A13600A684B6DC2F30742FF2A02D0D7
S31500008198DBB2FF2B01D19023192202EB820124487E
S315000081A803EBD1010160DB000521B3FBF1F31344B6
S315000081B8204A01A8136002F067FD9DF80530012BDF
S315000081C81BD14120FFF7CAFE1B4C1C4920713920E0
S315000081D82160FFF7C3FE05465020FFF7BFFE184A89
S315000081E82073157391604820A160FFF7B7FE1075DC
S315000081F81161FFF76BFFFFF7BDFEFFF7F7FE114BA7
S315000082080122C3F880211A60FFF7FCFE002003B0A4
S3150000821830BD00BF0F360020343100206431002005
S31500008228C82D0020402E0020B081E00FE02D002050
S315000082383024002034240020942C0020F17F0000F4
S31500008248AC2C002000E100E038B141B1013AB2F5AA
S31500008258006F044838BF002070470348704701483C
S31500008268704700BF037000F0027000F038B504468E
S315000082780D4601F090FDA28892B222B92A6001F05B
S3150000828890FD064838BD6388142202FB0343083371
S315000082982B6001F086FD0020F4E700BF0B7000F0AC
S315000082A838B504460D4601F076FDA3889BB223B97E
S315000082B82B6001F076FD0C4838BD6388E1881422EE
S315000082C802FB034308332B6063885A1C92FBF1F3C5
S315000082D801FB13239BB26380A388013B9BB2A38057
S315000082E801F05FFD0020E7E70B7000F0F8B50446E3
S315000082F817460D4601F04FFDA388E2889A420646C6
S3150000830805D800233B6001F04CFD1648F8BD2388CC
S31500008318142202FB0343083305F1100C2A4603CA4C
S31500008328624518605960154603F10803F6D11068CE
S3150000833818602388E188142202FB034308333B6054
S3150000834823885A1C92FBF1F301FB13239BB223806B
S31500008358A38801339BB23046A38001F022FD00209A
S31500008368D4E700BF0A7000F0034610B593F8323020
S315000083780068012B0AD102F0BBFA0446FFF71CFC81
S3150000838824235843B0FBF4F0013010BD02F080FD01
S31500008398F3E70000427E30235343044A1A44437FDE
S315000083A803EBC2039B001868C0B270471CA01042BA
S315000083B813B51D4A002352F82340617F81420ED02F
S315000083C80133042BF7D102B010BD0028FBD19DF86C
S315000083D80730002BF7D06068FFF7B8F8F3E794F892
S315000083E83130022BEFD12046FFF7D4FF637D20758D
S315000083F8022BE8D194F82E3003F0FF02002BE2D1CD
S3150000840802A9606801F8012DFFF700F9237D1BB169
S3150000841894F82F30002BD8D0002384F82F306068CA
S31500008428FFF7B4F8CFE700BFA031002090F832304C
S3150000843853B903680422DA601A699007FCD55A6FA3
S3150000844842F002025A677047012B0CD103685A6C36
S315000084589107FCD404225A609A689207FCD55A6D93
S3150000846842F002025A65704790F8323053B90368F1
S315000084780122DA601A69D007FCD55A6F42F0010268
S315000084885A677047012B0CD103685A6C9107FCD4C4
S3150000849801225A609A68D207FCD55A6D42F0010249
S315000084A85A65704790F832303BB903685A6F22F024
S315000084B801025A670222DA607047012B09D1036864
S315000084C85A6C9207FCD45A6D22F001025A650222B0
S315000084D85A6070470F49104B0A782AB9C3E9002237
S315000084E8C3E9022201220A70002253F822108142AF
S315000084F808D00132042AF8D1002153F821201AB9EC
S3150000850843F821000020704701310429F5D10348BA
S31500008518704700BF2C380020A0310020027000F000
S3150000852810B50446FEF7A8FF0021201DFEF732FF0E
S31500008538014608B1044810BD04F10800FEF72AFFF9
S315000085480028F8D0F6E700BF0E7000F038B50446EC
S3150000855801F021FC616B01390546616319B9044ACA
S31500008568012002F0E9FF2846BDE8384001F019BCB1
S315000085788C7E030037B591F832200B68012A0BBFB1
S315000085889C681C69C4F3C004C4F340140D4608462D
S3150000859834B1FFF7DBFF022385F8383003B030BD6E
S315000085A8FFF7E2FECDE9004401462B46024A03489E
S315000085B8FFF74AFAF2E700BF7D850000FC3D002080
S315000085C838B5044601F0E7FB636B054623B901217C
S315000085D8054A084602F0B0FF636B01336363284619
S315000085E8BDE8384001F0DDBB8C7E03007FB5012372
S315000085F880F82C3090F8323093B90C4A036803920D
S315000086080022049002924A680192012200920A68A6
S31500008618016980681C33FEF77FFF07B05DF804FB2D
S31500008628012BEAD0002380F82C30F6E7898D00006C
S31500008638F0B5012380F82D3090F8323089B0044621
S315000086480F465BBB0568343501F0A5FB0DF11F012C
S3150000865806461948FFF7DCF940B99DF81F302BB1DB
S315000086681548FFF793F92046FFF770FF30460126B5
S3150000867801F097FB204684F83860FFF7A1FF0F4BFF
S3150000868803930023049402937B68E1686068CDE94C
S3150000869800632A463B68FEF725FF0BE0012B06D14F
S315000086A805682B6843F4005345F8283BCCE70023BC
S315000086B880F82D3009B0F0BDFC3D0020C9860000C9
S315000086C8F0B585B003A9906A1446FFF7CFFD0646B4
S315000086D82046FFF749FE002523460146CDE9005509
S315000086E81A4A1B48FFF7B0F91A4B9E421FD0039B44
S315000086F81D619D6001F04FFB039AD768064627B1B6
S31500008708D2E9002329462046B84703A9A06AFFF7FD
S31500008718C7FDA06A83889BB263B103A9FFF7A6FDCC
S3150000872803992046FFF784FF304601F03AFB012003
S3150000873805B0F0BD84F82D3094F83230012B01BF16
S315000087482268136823F400531360EDE77D85000063
S31500008758FC3D00200B7000F073B504460D46C07D45
S31500008768E67E002934D001230422314601F096FF23
S3150000877801230222217F207E01F090FF94F83130F8
S31500008788022B16D100230122617F607E01F086FF4D
S3150000879800230422A07EA17F01F080FF0123627FCF
S315000087A8607E01930093114601F032FF002002B06B
S315000087B870BD032BFAD100230122617F607E01F090
S315000087C86DFF00230422A17FA07E01F067FFEDE77D
S315000087D80B460A46314601F061FF2B462A46217FA1
S315000087E8207E01F05BFF94F83130022B10D12B4626
S315000087F82A46617F607E01F051FF2B462A46A07EFD
S31500008808A17F01F04BFF627F607E01950123C9E7D6
S31500008818032BCBD12B462A46617F607E01F03EFFB3
S315000088282B462A46CFE790F8323013B90368186901
S315000088387047012B1CD103689B6803F00200DA0716
S3150000884848BF40F00100590748BF40F008001A0722
S3150000885848BF40F02000D90648BF40F040009A06BD
S3150000886848BF40F080005B0603D540F400507047CF
S31500008878002070472DE9F3410D460446002879D0BB
S3150000888801F089FA012D06463BD1A36A9B889BB263
S31500008898002B3DD06068FEF799FE0023A06A84F895
S315000088A82D3083889BB273B101A9FFF7DFFC0199CC
S315000088B86068364F0831FEF7D1FE019B1F61A06A3A
S315000088C883889BB253BB2046FFF7ADFF8304FAD5D6
S315000088D8023D012D10D8A068FEF778FE0023606AD5
S315000088E884F82C3083889BB23BBB94F83130032B39
S315000088F802D02046FFF7D6FD304601F052FA002096
S3150000890809E0022D38D1636A9B889BB2002BDFD120
S3150000891801F047FA1E4802B0BDE8F08101A9FFF749
S31500008928BFFC019BD3F80C80B8F1000FC7D09B6839
S31500008938002239462046C047C1E76946FFF796FC3C
S315000089480099A068114F0831FEF788FE009B1F6149
S31500008958606A83889BB2002BC7D06946FFF7A0FCE4
S31500008968009BDD68002DF3D09B680022394620461F
S31500008978A847EDE70748CEE7032DA9D1A36A9B8848
S315000089889BB2002B86D1636A80E700BF097000F0AE
S31500008998087000F0027000F0436A9888C0B2704709
S315000089A82DE9F3410546406A84889846A4B2002317
S315000089B80E461746CDE900333CB16946FFF756FC2B
S315000089C801A90446A868FEF749FE009971B16CB979
S315000089D84868019BC01A3860C8F800300B683360D5
S315000089E82846FFF720FF02B0BDE8F0810021C8F84D
S315000089F8001039603160F3E7836A9888C0B270471F
S31500008A082DE9F3410546806A84889846A4B2002376
S31500008A180E461746CDE900333CB16946FFF726FCFA
S31500008A2801A904466868FEF719FE009971B16CB988
S31500008A384868019BC01A3860C8F800300B68336074
S31500008A482846FFF7F0FE02B0BDE8F0810021C8F81D
S31500008A58001039603160F3E7007D70472DE9F04179
S31500008A6804460E461746FFF7EFFB804670BB082004
S31500008A7801F0B6F90546A26A93889BB213B194F839
S31500008A882E3033B394F8323043BB23681D6905F0A2
S31500008A9802051DB92046FFF7C9FC0025012384F805
S31500008AA8303094F832301BBB3744BE4220681AD1A6
S31500008AB803699E06FCD54DB994F832303BBB236852
S31500008AC85A6F22F002025A670822DA604046BDE869
S31500008AD8F081002DD0D0FEF7E3FDCCE7012BD9D1EC
S31500008AE823689D68D3E716F8011B02F04BFADCE70A
S31500008AF8012BEBD13744B742206803D183681907A5
S31500008B08FCD5D8E716F8011B01F026FFF3E7012B81
S31500008B18DCD123685A6C9207FCD45A6D22F0020203
S31500008B285A6508225A60D1E710B50446B0B190F8E4
S31500008B382E3033B990F83130022B0AD06068FEF730
S31500008B4805FD94F82E300133DBB284F82E30002070
S31500008B5810BDFFF71FFC0028F3D1EFE70048F7E741
S31500008B68027000F010B50446D0B190F82E30CBB1A3
S31500008B7890F82E30012B06D190F83130022B0AD00E
S31500008B886068FEF703FD94F82E30013BDBB284F8EB
S31500008B982E30002010BDFFF7FDFB0028F3D1EFE7CC
S31500008BA80148F7E70148F5E7027000F0057000F0A4
S31500008BB837B590F83150022D044618D1A37F407D71
S31500008BC801229A40A37E30215943134B0B4410B916
S31500008BD803F1806303E0012805D103F1C0631A603D
S31500008BE8002003B030BD217D0029F6D1F0E7012D24
S31500008BF8F6D1037D73B911238DF80730FFF794FF7B
S31500008C082A460DF107012046FFF728FF2046FFF701
S31500008C18A9FFE5E71323EFE70CA0004090F83130F1
S31500008C28032B05D00229417518BF0175FFF7C0BF90
S31500008C3800487047057000F037B50446002868D02C
S31500008C48354B1B7843B1354A002352F823108C4222
S31500008C584FD1002142F8231003212046FFF70AFED0
S31500008C6800212046FFF7DAFF00212046FFF774FDB2
S31500008C7894F83230002B40D123680A22DA600021AA
S31500008C88206A00F0E7FC94F83130022B03D100216A
S31500008C98607FFEF761FD6068FEF7C8FBA068FEF717
S31500008CA8C5FBFEF7A3FB626A0023138053809380FB
S31500008CB8A26A13805380938001F06DF80DF10701C5
S31500008CC805461748FEF7A4FE28B99DF8073013B1E4
S31500008CD81348FEF75BFE284601F063F8636B002B2A
S31500008CE804DD012363632046FFF730FC002003B050
S31500008CF830BD0133042BA8D1AEE7012BBFD12068C4
S31500008D0801F016FE23685A6C9207FCD40A225A60B0
S31500008D18B5E70448EBE700BF2C380020A031002057
S31500008D28FC3D0020027000F0F0B587B004461646F8
S31500008D38FFF78AFA0546F0B9CDE9011604936A46A3
S31500008D480E4B606A039601A90593FFF7CFFA05460D
S31500008D5888B994F82C3073B92046FFF785FB00993B
S31500008D682046FFF743FC94F83130032B03D02575D2
S31500008D782046FFF71DFF284607B0F0BD017000F03A
S31500008D8873B5506A01A91446FFF770FA334B984237
S31500008D982FD094F83200019B002836D12268116C36
S31500008DA811F4007128D02E49196198604FF40073A8
S31500008DB8936400F0F0FF0199CD68064635B14A681C
S31500008DC88B682046D31A0A680969A84701A9606A08
S31500008DD8FFF766FA606A8588ADB2002D2FD001A923
S31500008DE8FFF744FA01992046FFF700FC304600F0E9
S31500008DF8D8FF012002B070BD106CC5051BD51948F7
S31500008E08186199604FF48073D2E7012813D122685C
S31500008E18D16A11F0800106D01149196100219960C3
S31500008E2880235363C5E7D06A400604D50D48186108
S31500008E3899604023F5E700221A619A60B9E7012391
S31500008E4823752046FFF7B4FE94F8313084F82C5089
S31500008E58032BCBD02046FFF725FBC7E70B7000F0A6
S31500008E680D7000F00C7000F02DE9F041094F044632
S31500008E780D460FCF88B001AE0FC697E8070086E803
S31500008E880700002C00F0388245B9034E304608B07A
S31500008E98BDE8F081707E0300037000F03C220021DB
S31500008EA8204628F08CF92046FFF714FB06460028D2
S31500008EB8ECD12B7C84F8313001222B6884F83820D9
S31500008EC8C64A2360934284F8320040F07B81C44B43
S31500008ED82362C44BE3604FF440232361D5E906239C
S31500008EE80026626216805680968084F82C60A362FB
S31500008EF81E805E809E806B6803936B89ADF8143084
S31500008F08AB89ADF81230AB7B8DF810300121EB7BC5
S31500008F18B54884F82D6084F82F6005278DF816303B
S31500008F288DF8117000F096FB0121B04800F092FB15
S31500008F380121206A00F08EFB01A928688DF80460DB
S31500008F4801F0E2FF28686A7A816F2B7ADFF88CC213
S31500008F5821F4F85121F01F01114341EA03218167E9
S31500008F68032141672068604540F04881BB4216D915
S31500008F78981F042840F25E81A3F10B00B84240F224
S31500008F885B81A3F11100062840F25881A3F118016C
S31500008F98062940F255811F2B14BFFF263E46042A98
S31500008FA8E67540F24F81511F042940F24D81A2F126
S31500008FB80A01052940F24A81A2F11001062940F268
S31500008FC84781A2F11701072940F244811F2A14BFDD
S31500008FD8FF2100212176002B58D0012B56D0022BD9
S31500008FE854D0032B52D0042B50D0052B4ED0062B31
S31500008FF800F03A81072B00F03981082B00F0388100
S31500009008092B00F037810A2B00F036810B2B00F074
S3150000901841810C2B00F020810D2B00F01F810E2BB7
S3150000902800F01E810F2B00F01D81102B00F01C8113
S31500009038112B00F01581122B00F01481132B00F070
S315000090481381142B00F01281152B00F01181162BB9
S3150000905800F01081172B00F00F81182B00F00E81FD
S31500009068192B00F00D811A2B00F00C811B2B00F038
S315000090780B811C2B00F00A811D2B00F009811E2B89
S3150000908800F008811F2B0CBF0723FF23E376002A75
S3150000909800F01481012A00F01381022A00F01281DF
S315000090A8032A00F01181042A00F01081052A00F035
S315000090B8F980062A00F0F880072A00F0F780082AC7
S315000090C800F0F680092A00F0F5800A2A00F00081EF
S315000090D80B2A00F0FF800C2A00F0DE800D2A00F033
S315000090E8DD800E2A00F0DC800F2A00F0DB80102AD3
S315000090F800F0D480112A00F0D380122A00F0D28022
S31500009108132A00F0D180142A00F0D080152A00F026
S31500009118CF80162A00F0CE80172A00F0CD80182AB4
S3150000912800F0CC80192A00F0CB801A2A00F0CA80F9
S315000091381B2A00F0C9801C2A00F0C8801D2A00F0EE
S31500009148C7801E2A00F0C6801F2A14BFFF230023EB
S3150000915823776B7C6376AB7C6377EB7CA3762B7D7E
S31500009168A37701212046FFF7F7FA064600287FF481
S315000091788DAE00F010FE2F7C032F804640F0AC80A9
S315000091882B682A8CDA675A6E42F004025A665A6FBE
S3150000919842F030025A6728684FF0FF3383642B7C0D
S315000091A8032B0CBF0521042101F084FE2B684FF424
S315000091B84062DA602046FFF7B3F90646404600F0FB
S315000091C8F0FD63E60A4A93427FF45FAE094B2362D9
S315000091D8094BE3604FF450237FE600BF00000140CF
S315000091E80022040001000C004041050000250A0089
S315000091F8000401400032040001000D00DFF804C13C
S3150000920860457FF442AE052B7FF6C9AE981F042849
S3150000921810D9A3F10B0005280ED9A3F111000628D1
S315000092280CD9A3F1180106290AD91F2B14BFFF264A
S315000092380526B4E60126B2E60226B0E60E46AEE6F6
S315000092483E46ACE60021C5E60121C3E60221C1E699
S315000092580321BFE60521BDE6072317E7082315E71F
S31500009268092313E70A2311E70B230FE70C230DE75E
S315000092780D230BE70E2309E70F2307E7002305E76E
S31500009288012303E7022301E70323FFE60423FDE6A0
S315000092980523FBE60623F9E6082359E7092357E7DA
S315000092A80A2355E70B2353E70C2351E70D234FE712
S315000092B80E234DE70F234BE7002349E7012347E732
S315000092C8022345E7032343E7042341E705233FE752
S315000092D806233DE707233BE7022F7FF45CAF607F59
S315000092E80649FEF739FAFEF729FAA675267567754F
S315000092F82046FFF75DFC4EE7014EC7E5B98300003F
S31500009308027000F00004014090F83120012A10B5DF
S31500009318034610D102290ED0827D8A4201D100204F
S3150000932810BD997511B9FFF71DFCF8E70129F6D1AB
S31500009338FFF7FAFBF3E70148F2E700BF057000F014
S31500009348F0B587B004461646FEF77EFF054658BBBD
S315000093580493194B059394F832300396CDE9011618
S315000093682BBB23681B6903F0020313B92046FFF7DA
S315000093785DF86A4601A9A06AFEF7B8FF054698B9DE
S3150000938894F82D3083B900F006FDA36A9B889BB23A
S31500009398064633B100992046FFF74AF9012384F8B7
S315000093A83030304600F0FDFC284607B0F0BD012BF2
S315000093B8DCD123689B68D6E7017000F070B588B0E9
S315000093C80D220021294C2A4E04A827F0F8FE002574
S315000093D80223012127488DF81010CDE90155039580
S315000093E88DF80A3000F036F9294601AA204601F020
S315000093F8B8FC4FF6FF73E3618DF81250354604A9A1
S31500009408204601F05BFC1C4800F05AFA9DF8123021
S31500009418D8400133DBB20A2B30608DF8123002D8FF
S31500009428164B9842EBD81648164C00F049FA1649DE
S31500009438B1FBF0F12868154A0025E1FB0045002339
S315000094482046294627F0D0FC114B084A1860114BD4
S3150000945800201870936923F0100393610E4B4FF4A4
S315000094688062C3F880211A6008B070BD0080014090
S31500009478D82C0020000204004041050080841E000C
S315000094887000020020A1070000B0710B40420F00D7
S31500009498382E00202638002000E100E01E4BF7B5E4
S315000094A819681E4C1E4A1F4E0025E0FB0145204642
S315000094B82946002327F098FCDFF86CC04FF6E854DD
S315000094C800254FF6E75E4FF0FF378D4208BF84420E
S315000094D811D380B260B1144A516A89B2536A9BB2F9
S315000094E8ADF80630BDF806305B1A9BB29842F5D83F
S315000094F8002003B0F0BDDCF8242092B2DCF824305A
S315000095089BB2ADF80430BDF804309B1A9BB2734584
S31500009518F4D980197941D8E7D82C002020A1070072
S3150000952840420F001802FFFF00800140044BDA6832
S31500009538D20604D510225A61024B01221A707047CE
S3150000954800800140263800200C4B984210D90C4B5D
