S01C00004D4732314C442D6F742D636C692D6674642D3432302E733337AE
S21400000000120020DD0500003F8903003F89030041
S2140000102DA203003F8903003F8903003F890300A8
S2140000203F8903003F8903003F8903003F8903009F
S2140000303F8903003F8903003F8903003F8903008F
S2140000403F8903003F8903003F8903003F8903007F
S2140000503F8903003F8903003F8903003F8903006F
S2140000603F8903003F890300156E00003F890300A7
S2140000703F8903003F8903003F8903003F8903004F
S2140000803F8903003F8903003F8903003F8903003F
S2140000903F8903008D0B00003F8903003F89030062
S2140000A03F890300AD0C00008D0C00003F89030063
S2140000B03F890300F74205003F890300B973030038
S2140000C0FD420500F9420500A96B0300094305003F
S2140000D0014305007D730300054305003954030002
S2140000E0F97303003F8903003F8903003F8903003B
S2140000F03F8903003F8903003F8903003F890300CF
S2140001003F8903003F8903003F8903003F890300BE
S2140001103F8903003F8903003F8903003F890300AE
S2140001203F8903003F8903003F8903003F8903009E
S2140001303F890300000000006F4B73B5198811F06B
S214000140010140F0D18041F60B226C4D6C4BA9604A
S214000150C5E900316B4B19609A806B4B1B6ADB0755
S21400016006D440F29D31694B694A6A4837F042FB33
S214000170284630F003FE044620B940F2A131664B13
S214000180634AF2E74FF0011153F05CFC20B140F2F5
S214000190A931624B5E4AE8E70221204653F01BFB7A
S2140001A020B14FF46B715D4B594ADEE720465C493F
S2140001B031F032FB20B140F2AF31584B544AD4E70D
S2140001C00121204653F034FD20B14FF46D71534B9E
S2140001D04F4ACAE70121204653F03AFD064620B1B1
S2140001E040F2B7314D4B4A4ABFE701463C224D48E4
S2140001F054F01BF980233246204605F1100153F0D7
S2140002002AFC802804D040F2BE31474B404AACE777
S214000210464D012030F006FE35A3D3E900232C60BE
S2140002202046CDE900234FF0FF324FF0FF3353F066
S21400023024FB20B140F2FB21384B3D4A95E731487C
S21400024007F034F90121084607F09EF901212868D5
S21400025053F069FA044620B140F252412F4B354A1A
S21400026083E7354B354A98801A60354B354A988077
S2140002701A60354B354A98801A60354A6FF063002D
S2140002805A6113F057FC0B2007F0CAF8314B186080
S21400029020B940F26341304B264A66E702F064FA22
S2140002A02146286853F027FB20B140F2FD311B4B56
S2140002B02A4A5AE708222868114653F0E3FA044609
S2140002C020B140F26741264B1A4A4EE708F0F4F98F
S2140002D0244B25481C70254B1C70254B1C7002B007
S2140002E0BDE8704041F0FFBE02B070BDAFF30080C5
S2140002F00B6020FF22020000F26F0020E869002059
S2140003004D780000E06900200080E00FA85105004D
S2140003104C530500E94C0500C15105004E4C050044
S2140003205C540500846A0020D0510500DC6900207A
S2140003303F530500C8530500301C0020987100206C
S214000340081C002018710020581C00201A7200207B
S214000350801C0020806A0020085205000553050016
S214000360235205000D710020A752050019720020C7
S2140003701872002010B5054C237833B9044B13B11E
S214000380044800E000BF0123237010BD405E00203B
S21400039000000000E4B0050008B5034B1BB103499C
S2140003A0034800E000BF08BD00000000445E0020D7
S2140003B0E4B00500A3F5803A704700BF174B002B4A
S2140003C008BF134B9D46FFF7F5FF00218B460F46EF
S2140003D01348144A121A54F028F80E4B002B00D07B
S2140003E098470D4B002B00D09847002000210400B2
S2140003F00D000D48002802D00C4800E000BF37F082
S21400040045FA2000290038F062FA37F019FA00BFE2
S214000410000008000000000000000000001200209D
S214000420EC150020BC7B002000000000000000004F
S21400043008B541F087FC054B186028B97F21044BAE
S214000440044A054837F0D6F908BD00BF5C5E0020B8
S21400045070490500834905007A490500014B186874
S21400046013F008BB5C5E002010B5044C206841F019
S2140004705DFF2068BDE8104008F026B95C5E0020ED
S21400048010B51E4C38F09EFB236F23F0070343F095
S2140004900203236738F09DFBD4F82031002023F0B8
S2140004A0070343F00103C4F82031D4F8403123F0A9
S2140004B0030343F00103C4F84031D4F8603123F05D
S2140004C0030343F00103C4F86031D4F8403223F04C
S2140004D0030343F00103C4F84032D4F8003223F09B
S2140004E0070343F00103C4F80032D4F8083223F0BF
S2140004F0070343F00103C4F8083210BD0080005023
S21400050007B501A801F022FF9DF80530012B27D181
S2140005101E4A936DDB0313D4536B23F4FF0323F4BB
S214000520FE4343F4BC1343F4A0635363136B23F4FA
S214000530704343F440431363136B43F4E063136365
S2140005409DF8043063B94FF000531B68104B1B68CE
S214000550104B1B68104B1B68104B1B68104B1B681E
S214000560104AD2F8803043F00303C2F8803006F019
S21400057099F806F059F806F05FF8FFF781FF06F0E5
S21400058041F803B05DF804EB00F0A0BB00C00050DB
S214000590004000200080002000C000200000012055
S2140005A0004001200080005018B1034B1860002066
S2140005B070472520704700BFBC5E002010B5054C74
S2140005C00549206800F040FE2068BDE81040FFF7AF
S2140005D0EBBF00BF241200200012002008B500F078
S2140005E02DF8124B12498B4212D30020114B1249A0
S2140005F08B4218D3FFF7E2FE186850F8224058687E
S21400060040F82240013298688242F5D30C33EAE77C
S2140006100022F8E71C6844F8220001325C68A24217
S214000620F8D30833E4E70022F8E700BFECB0050093
S214000630F8B00500F8B00500F8B005006FF001004E
S214000640104B114A10B59A60D3F888200F4942F42F
S2140006507002C3F8882001F50052106641F2FF7060
S21400066050660220C3F8D000BFF34F8FBFF36F8FE2
S21400067008244FF440330648C0F88041D360046035
S2140006800B6110BD00ED00E000000000008000449B
S21400069000E100E0014B1868704700BF2C130020F3
S2140006A0014B1860704700BF2C130020084B1B6FCF
S2140006B003F00703022B04D0032B05D0012B05D033
S2140006C0FEE7044B18687047034BFBE70348704788
S2140006D0008000502C13002030130020002D310124
S2140006E008B5FFF7E3FF054B1B6FC3F30133013378
S2140006F0B0FBF3F0024B186008BD00BF008000504E
S214000700281300200048704700B4C404014B186842
S214000710704700BF30130020054B1860054B1B6F59
S21400072003F00703032B01D1FFF7DABF704700BFC2
S214000730301300200080005000487047002D310123
S214000740174B9868C0F304400C2822D8DFE800F066
S214000750092121212121071719211B1D1F001148DE
S21400076070479B6803F04073B3F1807F13D0B3F1FA
S214000770007F12D00C4A002B08BF104670470B486B
S21400078070470B4870470B4870470B4870470B483C
S2140007907047002070470A4870470A48704700BFF5
S2140007A00040015A405DC60000093D000024F400E8
S2140007B0C0EA210180BA8C010048E801005A6202B2
S2140007C080841E0040420F00014B1868704700BF2F
S2140007D03413002005490A681318054883428CBF65
S2140007E04FF0FF320B601046704700BF38130020F2
S2140007F0000001202DE9F04F9A46564B85B01B7835
S21400080006460F461546DDF83C909DF844B0DDF8E8
S2140008105080002B00F08D80072A00F28C800E9B03
S214000820002B00F08880B9F1000F00F08480129B46
S214000830B3F5006F7FDC012802D1109B002B7AD025
S214000840454B03EB05131B7B002B76D0434C102245
S2140008500021684653F0E9FD04EB45141022002FF2
S21400086059D13946204653F0E0FD43F21003638029
S214000870BBF1000F03D1E37843F00303E370374A7C
S2140008800E9B02EB451CCCE90193129B6901013BD0
S214000890C3F30A009DF84C30012E03F003034FEA21
S2140008A0836343EA001E53582D48CDF800A000EAA3
S2140008B003004EEA0003535041D113230CF1100EEF
S2140008C0CCF80C309CE80F008EE80F006FF00301A8
S2140008D0DCF81C20109B61F39F02012FCCF81C2033
S2140008E0CCF8143003D1CCF81890CCF8043000279C
S2140008F0194A290102EB051342F80180159A284689
S2140009005A60694622469F605E7301F017FC3846BF
S21400091005B0BDE8F08F0021204653F086FD4FF469
S21400092044736380BBF1000FA9D1E37843F0300332
S214000930A4E70C48ECE70C48EAE70C48E8E7B8F10F
S214000940000FD4D19CF8023068F304138CF8023000
S214000950CDE700BFF0700020C05E0020405F0020A2
S2140009600F80FFF3028000F0018000F0078000F0A7
S21400097038B5124B05461B78DBB1E0B138F03AF9D2
S2140009800F4A00231146147B54B92B6001251A0127
S21400099001EB03131D738C5038F032F9204638BD36
S2140009A00133082B02F11002EDD138F029F9054881
S2140009B0F5E70548F3E70548F1E700BFF0700020CB
S2140009C0C05E0020048000F0028000F0018000F08D
S2140009D0154B13B51868002301908DF8043038F0D5
S2140009E009F9124B1C7824B138F00AF9104802B005
S2140009F010BD01221A7038F003F90E4B01A81C73C3
S214000A001C7783F82C4083F83C4083F84C4083F8EE
S214000A105C4083F86C4083F87C4008238DF80730F0
S214000A2001F062FB2046E2E799490500F0700020DD
S214000A30038000F0C05E00200A4A08B512785AB15A
S214000A4007280BD8084A02EB00131B7B43B1002192
S214000A5001F03CFB002008BD0448FCE70448FAE728
S214000A600448F8E7F0700020C05E0020028000F026
S214000A70018000F0078000F00A4A08B512785AB1E3
S214000A8007280BD8084A02EB00131B7B43B1012151
S214000A9001F01CFB002008BD0448FCE70448FAE708
S214000AA00448F8E7F0700020C05E0020028000F0E6
S214000AB0018000F0078000F00A4A08B5127852B1AB
S214000AC007280AD8084A02EB00131B7B3BB101F04B
S214000AD083FB002008BD0548FCE70548FAE7054803
S214000AE0F8E700BFF0700020C05E0020028000F033
S214000AF0018000F0078000F00D4B1B7893B10728AB
S214000B0012D889B10B4B03EB00131B7B73B10A4B56
S214000B10DA6A012303FA00F010401ABF00200B70B7
S214000B200870704705487047054870470548704785
S214000B30F0700020C05E002000000450028000F02C
S214000B40018000F0078000F00B4A10B512780C46C2
S214000B5062B107280CD859B1084A02EB00131B7B78
S214000B6043B101F04BFB2060002010BD0448FCE7B9
S214000B700448FAE70448F8E7F0700020C05E00205A
S214000B80028000F0018000F0078000F02DE9F843B5
S214000B90174B1F6D5B6D1F4000D5FEE70126002535
S214000BA0144CDFF85480DFF85490374217D023688F
S214000BB0C8F850609BB1A168284601316268A16000
S214000BC09847637B012B0AD148B909EB45131A7B7A
S214000BD060F341021A731A7F60F341021A770135F7
S214000BE0082D4FEA460604F11004DED1BDE8F8836E
S214000BF000000450C05E002000200450405F00202B
S214000C0070B5044601250B4E04B970BD94FAA4F0E5
S214000C10B0FA80F005FA00F306EB001224EA0304AB
S214000C205368002BF0D0117B11B191689847EBE721
S214000C309847E9E74060002008B5192001F07EF9E2
S214000C4028B14FF00072074BC3F880211A601A20B3
S214000C5001F074F928B14FF08062024BC3F880218E
S214000C601A6008BD00E100E038B505460C4637F0CE
S214000C70C1FF0022044B03EB05135C601A73BDE84A
S214000C80384037F0BDBF00BF40600020064BD3F8A9
S214000C902404D3F8202403F50053104000F0553008
S214000CA0C3F82004FFF7ACBF00C00350064BD3F8D0
S214000CB02404D3F8202403F50053104000F0AA3093
S214000CC0C3F82004FFF79CBF00C00350024B19680E
S214000CD0024B18682FF060BC401300203C13002025
S214000CE037B5920004460D46019253F039FE431C78
S214000CF00BD060B929462046019A53F05FFB0028C6
S214000D00044808BF002003B030BD0348FBE7034893
S214000D10F9E700BF10E000F021E000F024E000F06A
S214000D2013B5044601A801F011FB9DF80630012218
S214000D3023804FF4807300206380054B9B680A3342
S214000D4003F01F0302FA03F3636002B010BD00BF96
S214000D500080E00F10B5044653F0FAFD431C15D092
S214000D60B0B90C4B20469B680A3303F01F020123E0
S214000D70934023F003032344984201D1002010BD82
S214000D8050F8042B0132F7D00348F8E70348F6E79B
S214000D900348F4E70080E00F0EE000F021E000F0EA
S214000DA024E000F008B537F01EFF014B186008BDC0
S214000DB080680020014B186837F019BF8068002053
S214000DC038B141B1013AB2F5006F044838BF00208F
S214000DD07047034870470148704700BF037000F033
S214000DE0027000F038B504460D4637F003FFA388BE
S214000DF09BB223B92B6037F003FF064838BD142298
S214000E0063889BB202FB034408342C6037F0F8FE7C
S214000E100020F3E70B7000F0F8B5044616460F46C0
S214000E2037F0E8FEA388E2889BB29A42054605D8CA
S214000E300023336037F0E4FE1748F8BD14222388F9
S214000E4007F1100C9BB202FB03433A4608331746E1
S214000E5003CF6745186059603A4603F10803F6D198
S214000E60142238681860238828469BB202FB034386
S214000E70083333602388E2889BB20133B3FBF2F178
S214000E8002FB11339BB22380A38801339BB2A3805D
S214000E9037F0B6FE0020D0E70A7000F0002313B546
S214000EA01D4A52F8044B94F8211081420ED00133AB
S214000EB0042BF6D102B010BD0028FBD19DF80730F8
S214000EC0002BF7D0A068FFF7B7FDF3E794F83130B2
S214000ED0022BEFD1204637F0B5FD637E2076022B3D
S214000EE0E8D194F82E3003F0FF02002BE2D1A06880
S214000EF00DF107018DF80720FFF7FEFD237E1BB1DD
S214000F0094F82F30002BD7D00023A06884F82F3019
S214000F10FFF7B2FDCEE700BF3469002030B50124EC
S214000F2090F8325087B080F82C4095B9426B036831
S214000F3022444263094A0490CDE902524A682433A7
S214000F40CDE900420A684169C06837F01BFD07B06A
S214000F5030BD002380F82C30F9E700BF5D15000097
S214000F6030B5012490F8325087B080F82D4095B9FE
S214000F70436B026823444363094B0490CDE9025354
S214000F804B683C32CDE900430B680169806837F056
S214000F90DFFC07B030BD002380F82D30F9E700BF36
S214000FA0A50F0000F7B51446906A01A9FFF71AFFCF
S214000FB0636B636B013B6363144B984220D000263F
S214000FC0019B1E619E6037F015FE019A0546D768A4
S214000FD027B1D2E9002331462046B847A06A01A9C6
S214000FE037F047FDA06A83889BB263B101A9FFF77B
S214000FF0F9FE20460199FFF7B3FF284637F000FEBA
S214001000012003B0F0BD84F82D30F6E70B7000F039
S2140010102DE9F3410D460446002800F08E8037F097
S214001020E9FD012D06463FD1A36A9B889BB2002BA3
S21400103041D0A068FFF740FD0023A06A84F82D3059
S21400104083889BB2002B3CD1226893699B04FCD515
S214001050023D012D1BD8E068FFF72EFD0023606AD5
S21400106084F82C3083889BB2002B49D194F8313019
S214001070032B0CD042F2AC52042123795B0103F11E
S214001080A04303F570339950022223685A61636BBC
S2140010903046002BC1BF636B636B03F1FF336363A2
S2140010A037F0AEFD002009E0022D48D1636A9B8828
S2140010B09BB2002BCFD137F0A3FD264802B0BDE887
S2140010C0F08101A9FFF78EFE0199A0680831FFF7AD
S2140010D03BFD214F019B1F61A06A83889BB2002BBA
S2140010E0B2D001A937F0C5FC019BD3F80C80B8F14B
S2140010F0000FF1D00022394620469B68C047EBE738
S2140011006946FFF76FFE0099E0680831FFF71CFD9F
S214001110114D009B1D61606A83889BB2002BA5D091
S214001120694637F0A6FC009BDF68002FF3D000224C
S214001130294620469B68B847EDE70848BEE7032DDA
S21400114086D1A36A9B889BB2002B7FF472AF636A3A
S2140011506BE700BF087000F0097000F0027000F046
S21400116010B5044680B190F82E302BB937F06AFCE3
S21400117010B9A068FFF760FC002094F82E30013309
S214001180DBB284F82E3010BD0048FCE7027000F099
S21400119010B50446A0B190F82E309BB190F82E30D2
S2140011A0012B05D137F04EFC10B9A068FFF764FCA0
S2140011B0002094F82E30013BDBB284F82E3010BDB0
S2140011C00148FCE70148FAE7027000F0057000F0FD
S2140011D037B590F831500446022D1DD1012290F803
S2140011E02230457E817F9A403020164B25B900FB81
S2140011F0013342F2100105E0012D07D100FB013357
S21400120041F210015A50002003B030BD247E00FB8E
S2140012100133002CF4D1ECE7012DF4D1037E73B931
S21400122011238DF80730FFF79BFF2A4620460DF165
S214001230070137F072FC2046FFF7AAFFE3E7132307
S214001240EFE700BF00C00350F0B504469F4F8BB0D9
S21400125003AE0D460FCF0FC697E8070086E80700D7
S2140012601CB99B4C20460BB0F0BD0DB9994CF9E764
S2140012705C220021204653F0D8F89749974B0A780D
S2140012802AB9C3E90022C3E9022201220A7093495F
S2140012900022084650F8046BB4420AD00132042AF1
S2140012A0F8D1002251F8040B002840F0CF8043F814
S2140012B022402B7D84F83130286820602B7B2371F8
S2140012C0874B984240F0C780212384F82330854B13
S2140012D023614FF4802300266361D5E90723626209
S2140012E016805680968084F82C60A3621E805E80EE
S2140012F09E806B6884F82D600593EB8984F82F60D8
S214001300ADF81C302B8A03A9ADF81A30AB7C8DF8EB
S2140013100C608DF81830EB7C8DF81E3005238DF8A8
S214001320193001F0BDF814212A7B6F4B03EB4217EE
S214001330C7F8AC15287AA97A2E3240EA014C03EB9E
S2140013404213C3F804C06A7AEB7A42EA034CC7F841
S214001350BCC5E076E177227784F820306B7D0422E6
S2140013606377AB7D84F82130EB7DA3772B7E84F802
S2140013702230012300F068FE0123022294F8201098
S214001380207F00F061FE94F83130022B7AD133468C
S214001390012294F82110607F00F056FE33460422A6
S2140013A094F82210A07F00F04FFE012394F821202D
S2140013B0CDE900331146607F00F002FE37F01AFCDC
S2140013C02B7D0646032B6ED141F2AC5202212B7BBD
S2140013D05B0103F1A04303F57033995004212A689A
S2140013E002F58052D165297EEA7D42EA014241F249
S2140013F0B8515A50A97D6A7D42EA014241F2B45181
S2140014005A504FF0FF32286800F500539A642B7D3F
S214001410032B0CBF0521042137F04FFC4FF440622C
S2140014202B685A61FFF7D4FA002104F10800FFF791
S2140014309FFA014628B904F10C00FFF799FA044612
S21400144000B12A4C304637F0DBFB0BE70132042AAA
S2140014507FF428AF05E7264B984207D1222384F86D
S2140014602330244B23614FF4A02334E7224B9842C9
S2140014707FF4FCAE232384F82330204B23614FF403
S214001480C02328E7032B99D1334694F82110607FB8
S214001490012200F0D9FD3346042294F82210A07FE2
S2140014A000F0D2FD8AE7022BABD194F82100144954
S2140014B0FFF7DAFBFFF7C0FB4FF40073238300232C
S2140014C02046A376FFF784FE9BE700BFC4490500CD
S2140014D0027000F0037000F0F17000203469002004
S2140014E0008005500200040000C003500E7000F09B
S2140014F000C005500200050000000650020006006D
S2140015009D0E0000F0B587B005461646FFF758FC5E
S2140015100446E8B90493104BCDE901166A46686A9A
S21400152001A903960593FFF777FC044680B995F862
S2140015302C306BB9284637F074FA0099FFF7EEFCAA
S21400154095F83130032B03D028462C76FFF740FE63
S214001550204607B0F0BD00BF017000F073B514461A
S214001560506A01A9FFF73EFC636B636B013B636344
S2140015702F4B984230D094F83200019A002839D187
S2140015802368996C11F4007129D02A499060116182
S2140015904FF4007203F500539A6437F02BFB019961
S2140015A00646CD6835B14A688B682046D31A0A6865
S2140015B00969A847606A01A937F05BFA606A8588FE
S2140015C0ADB2DDB101A9FFF70DFC20460199FFF78A
S2140015D0A5FC304637F014FB012002B070BD986CB5
S2140015E0C00507D514489160106103F500534FF409
S2140015F08072D1E7002313619360CEE70123204673
S2140016002376FFF7E5FD94F8313084F82C50032B51
S214001610DFD042F2AC52042123795B0103F1A043F0
S21400162003F570339950022223685A61D1E700BF50
S2140016300B7000F00D7000F00C7000F0F0B587B085
S21400164004461646FFF7BCFB054638BB0493154B0D
S214001650039605932368CDE901169B699B0702D480
S214001660204637F0CDF96A46A06A01A9FFF7D4FBF9
S214001670054698B994F82D3083B937F0BBFAA36ABB
S21400168006469B889BB233B120460099FFF768FC5C
S214001690012384F83030304637F0B2FA284607B0D7
S2140016A0F0BD00BF017000F041F6713310B5104C6C
S2140016B0104AA0428CBF4FF480140024D169D36333
S2140016C0936801F4803123F44013234393600A4B5C
S2140016D098420A4BD3F818228CBF42F0020222F03E
S2140016E00202C3F8182211B10022024BDA6310BDC1
S2140016F0005A62020000035080F0FA0200C0075051
S2140017002E4B98424AD022D82D4B984240D014D81F
S2140017102C4B984239D00AD82B4B984232D02B4BC0
S21400172098422FD02A4B98422CD000207047294B45
S2140017309842FAD1284B186F7047284B98422AD007
S214001740274B9842F1D1244BD3F880007047254BA5
S21400175098422BD009D8244B984223D0234B98424A
S214001760E3D11D4BD3F88C007047214B984221D013
S21400177003F5740303F510539842D6D1164BD3F8ED
S21400178098007047144B986D7047134B586E70470F
S214001790114B586F7047104B986F70470E4BD3F82D
S2140017A0840070470C4BD3F8880070470A4BD3F878
S2140017B090007047084BD3F8940070470048E80143
S2140017C00024F400C0CF6A0080841E0000093D009B
S2140017D040420F00405DC6000080E00FC0EA2101D5
S2140017E080BA8C01007E560380D54302006CDC0272
S2140017F00090D00338B5124B0546D3F820310C467E
S21400180003F00703013B032B17D8DFE803F0020AB7
S2140018100E12FEF73FFF042305B1286004B12360D3
S21400182038BDFEF773FF0323F6E7FEF789FF0523AF
S214001830F2E7FEF781FF0223EEE700231846EBE708
S2140018400080005037B50C460021124A0191D2F8AC
S2140018508021054602F00302022A0ED0032A11D088
S214001860012A14D101A8FFF7C5FF0D230DB1019A77
S2140018702A6004B1236003B030BDFEF761FF052384
S2140018800190F3E7FEF758FF02230190EEE70B46C0
S214001890ECE700BF0080005038B5104B0546D3F883
S2140018A040310C4603F00303022B0BD0032B0DD064
S2140018B0012B0FD137F046F8082305B1286004B194
S2140018C0236038BDFEF780FF0723F6E737F03DF8C4
S2140018D00923F2E700231846EFE700BF0080005018
S2140018E038B5104B0546D3F860310C4603F00303B9
S2140018F0022B0BD0032B0DD0012B0FD137F022F883
S214001900082305B1286004B1236038BDFEF75CFFEC
S2140019100723F6E737F019F80923F2E700231846FD
S214001920EFE700BF0080005038B5134B0546D3F8EC
S21400193000320C4603F00703013B032B18D8DFE800
S21400194003F0020A0E1236F0FDFF082305B12860E8
S21400195004B1236038BDFEF737FF0723F6E736F0FD
S214001960F4FF0923F2E7FEF7BBFE0C23800AEDE73F
S21400197000231846EAE700BF0080005038B5134B36
S2140019800546D3F808320C4603F00703013B032B49
S21400199018D8DFE803F0020A0E1236F0D3FF082349
S2140019A005B1286004B1236038BDFEF70DFF07239C
S2140019B0F6E736F0CAFF0923F2E7FEF791FE0C239E
S2140019C0800AEDE700231846EAE700BF00800050D3
S2140019D038B5104B0546D3F840320C4603F00303E7
S2140019E0022B0BD0032B0DD0012B0FD136F0AAFF04
S2140019F0082305B1286004B1236038BDFEF7E4FE75
S214001A000723F6E736F0A1FF0923F2E7002318467E
S214001A10EFE700BF0080005038B5104B0546D3F8FE
S214001A2000310C4603F00303022B0BD0032B0DD022
S214001A30012B0FD1FEF76AFE032305B1286004B11F
S214001A40236038BDFEF7C0FE0723F6E736F078FFC2
S214001A500623F2E701230020EFE700BF00800050D6
S214001A60032814D005D8012805D0022809D0002064
S214001A7005E00F28FBD1084B186FC0F3013001308A
S214001A807047054BD3F89000C0F30460F7E7024BAD
S214001A90186FC0F38020F2E7008000501FB50023C7
S214001AA00193252817D8DFE800F0131A1D262B35DA
S214001AB03A50555A5F646977161A3F1616551A2615
S214001AC02B26351A5026773A3A3A3A2626265A5F71
S214001AD0FEF7ECFD0190019805B05DF804FBFEF7FB
S214001AE0FFFDF7E7FEF7E2FD02460220FFF7B8FF2C
S214001AF0B2FBF0F0EEE7FEF7F3FD02460320F5E753
S214001B00FEF7EEFD02460320FFF7AAFFB2FBF0F059
S214001B104008DFE7002101A8FFF794FEDBE700217D
S214001B2001A8FFF767FED6E702934FF0E0231B6994
S214001B305B0705D5FEF7D4FD0290029B0193CAE72A
S214001B4003A902A8FFF7A8FEF7E7002101A8FFF700
S214001B50A3FEC0E7002101A8FFF7C2FEBBE70021F5
S214001B6001A8FFF7E1FEB6E7002101A8FFF706FF90
S214001B70B1E7002101A8FFF74FFFACE7094BD3F808
S214001B80803003F00303022BA9D0032B01D00020E2
S214001B90A0E7FEF7D5FD9DE7002101A8FFF718FF97
S214001BA099E700BF0080005008B50120FFF776FFD8
S214001BB0BDE80840034988428CBF0221012103206A
S214001BC000F002B880F0FA02032810B50C4627D0C1
S214001BD004D8012804D0022817D010BD0F28FCD145
S214001BE036F0E4FF36F0EAFF124B013C196F21F4A1
S214001BF0405141EA04341C67FEF772FD0021FFF7EE
S214001C0053FDBDE81040FFF7CFBF0A4B013CD3F8A9
S214001C10901021F0F85141EA0464C3F89040DCE7E4
S214001C20044B013C196F21F4806141EA84241C674F
S214001C30D3E700BF008000501FB50023019325287E
S214001C4021D8DFE800F013202020202A2F454A4F15
S214001C5054595E7120203420204A202020202A203B
S214001C604520712F2F2F2F2020204F54314B1B6FD4
S214001C7003F00703013B032B05D8DFE803F00C0253
S214001C80080A04230193019805B05DF804FB0323BA
S214001C90F8E70623F6E70223F4E7002001A9FFF79A
S214001CA0D1FDF0E7002001A9FFF7A4FDEBE70293C2
S214001CB04FF0E0231B695B0705D5FEF711FD0B23EC
S214001CC00393039BDEE703A902A8FFF7E5FDF8E709
S214001CD0002001A9FFF7E0FDD5E7002001A9FFF7E6
S214001CE0FFFDD0E7002001A9FFF71EFECBE700208E
S214001CF001A9FFF743FEC6E7002001A9FFF78CFE07
S214001D00C1E70C4BD3F8803003F00303022B03D05B
S214001D10032B05D00023B5E7FEF7E2FC0B23B1E763
S214001D20FEF70EFD0523ADE7002001A9FFF750FEE4
S214001D30A9E700BF0080005038B50546FFF7E0FC75
S214001D40214B04465A68012A04D120494A609A6900
S214001D509207FCD10020FFF76FFF042803D136F06E
S214001D6025FF36F02BFF1A4A24F04073954221D007
S214001D70184A954221D0184AD16811F0060FFBD1B7
S214001D8090689360916803F4F81301F4F8118B429D
S214001D9016D12846FEF784FC0020FFF74DFF0428E6
S214001DA010D1FEF79DFC0021FFF77EFCBDE8384011
S214001DB0FFF7FABE43F00073DDE743F08073DAE71F
S214001DC09060E9E738BD00BF00C0015000E0015058
S214001DD040420F0080841E000000015070B504468B
S214001DE00020FFF729FF03287CD045F60E030221CA
S214001DF0414AC2F88030414B9962012103F5805375
S214001E009962936DD903FCD4D4E900131B0543EA09
S214001E100163E17B94F822500B43217B94F8236006
S214001E2043EA0143617B43EA0133A17B43EA811322
S214001E3013619169D4E904031B0643EA806301F049
S214001E4000410B43A17EE07E0B43217E43EA014323
S214001E50617E43EA01239361136AE26923F00D036E
S214001E60002A0CBF0021082143EA020343EA80034C
S214001E70214A43EA0103136294F820304FEA4313E1
S214001E8031D1906A94F8211020F0330043EA011310
S214001E90034343F001039362194B916D33EA01014A
S214001EA0FBD10221154B9962936D5B00FCD410693F
S214001EB0A36820F4700040EA035010614FF000421F
S214001EC00E4B9A611DB9022203F580539A6216B929
S214001ED001220C4B9A6294F824301BB1064B0A4A36
S214001EE0C3F8802070BD916A21F0330131430B4363
S214001EF043EA45039362EEE700C0005000D000506E
S214001F000300014000E00050F1A7FFFF014B93F9EA
S214001F1000007047F27000200028ABBF00F1604060
S214001F20054B00F5614000F00F00ACBF90F80003D1
S214001F30185C0009704700BF14ED00E0054B42092D
S214001F4053F8223000F01F0023FA00F0C04300F0E0
S214001F500100704700E100E0014608B5EFF310838A
S214001F60DB0702D50122104608BDFFF7E7FF024651
S214001F700028F7D10846FFF7CFFF0146EFF311839D
S214001F8013B1B0EB131FEDD2074B5B68C3F3080326
S214001F90002BE8D0103B58B2FFF7BEFF88428CBF3C
S214001FA000220122DFE700BF00ED00E0034A0179CE
S214001FB0D36E23F030030B43D366704700400050C7
S214001FC0072AF7B50D4614461F460FD8032196007C
S214001FD0B14000FA06F21548019136F014FE05F0FD
S214001FE0030201991248B24036F00DFE114B124919
S214001FF09DF82000002F08BF1946012303FA04F4B9
S2140020000C600E4B0E49002808BF0B461C600D4B9B
S2140020109DF82400C3F820441031A3F6DC330028D2
S21400202008BF0B461C6003B0F0BD00BF00C40350E1
S21400203008C4035010E4035010D4035014D40350C3
S21400204014E4035000E00350F8B504460D461F465E
S21400205016464AB101238B403021194A01FB002263
S214002060FFB141F21001535004EB4403072D4FF02B
S2140020700F014FEA031317D8A80006FA00F28140B2
S2140020801048184436F0BFFD56B9012130230C48DD
S21400209001FA05F503FB040077B141F21003C550C1
S2140020A0F8BD42F21001DEE7A5F10800800006FA4E
S2140020B000F281400448E4E742F21003EFE700BF75
S2140020C000C0035004C003500CC00350044A054B24
S2140020D0002918BF1346012202FA00F01860704764
S2140020E0402004504010045030B50478457881787C
S2140020F0C27801200F4B41EA0541240658609C60D7
S2140021009961FF2199620021996319644FF000419B
S21400211059654FF0FF314FF4001003F50053196571
S21400212005491301DBB2C1F8800181F81533086058
S21400213030BD00BF0000045000E100E02DE9F04192
S21400214001250C46C3B2DFF888E0D1F800809D4038
S2140021508F7ACB7A94F80DC0097BCEF850500EF5E6
S214002160005E4EF820804FF0300E184E1B050EFB1A
S214002170006043EA074343EA415322F00302C0F8F3
S21400218060C0C365026736F035FD736D2B4373651B
S214002190237A13B1336C2B433364637A13B1B36B76
S2140021A02B43B3632279A37943EA0243084A936137
S2140021B06179E37943EA014306498B61034B556332
S2140021C09D64BDE8F04136F01BBD00BF0000045022
S2140021D0002004500010045010B50124C0B2844002
S2140021E036F008FD044B5A6D22EA04025A659C62DA
S2140021F0BDE8104036F004BD00000450F8B50125D7
S214002200C3B204469D4036F0F5FC3022094B1E6DE5
S2140022105F6B02FB04335C6E36F0F2FC3D4206D187
S214002220C4F30A1008B9354200D10130F8BD0020C9
S214002230FCE700BF0000045041F67132034BDA633E
S214002240012203F50053DA60704700BF0000035018
S21400225041F671320121044BDA6303F50052D16076
S2140022600022DA63704700BF00000350014BD3F82A
S2140022709400704700400050CB784A7810B55B0158
S2140022800C7843EA82030A79234343EA02130C22BA
S214002290424302F1B0421363012C02BF8A78024B1C
S2140022A043F8202010BD00BFD080035008B54FF083
S2140022B0B0435A6802B960B15B680BB136F0BAFC3D
S2140022C04FF0B04130B10120074B586036F0B2FCF9
S2140022D0C86008BD36F0AEFC0223CB6036F0AAFC20
S2140022E00122024B5A60F4E7001000580020005804
S2140022F04FF0B0435B6870B50BB136F09BFC012124
S214002300104B4578596083780679002BC37814BF44
S21400231002240024002B14BF042200224379DB0091
S21400232043EA06132B43234313434FF0B042936014
S214002330054B59600378002B14BF0B460223D3606D
S21400234070BD00BF0020005800100058054B5B69A8
S214002350C3F38512827003F03F021B0B42700370BA
S214002360704700BF00C0075040F6B732064B5B68A8
S2140023709BB293429FBF4FF47A72B3FBF2F3034AC9
S214002380D05C88BF002070470080E00FE049050061
S2140023900D4B984208D1A3F50033C3F88411C36DE2
S2140023A043F08003C3657047084B984204D1A3F5F9
S2140023B01033C3F89411F2E7054B984204BFA3F517
S2140023C02033C3F8A411EAE70080055000C005508A
S2140023D00000065070B5054616461C4619B903207F
S2140023E0FFF75CFB0146402C1BD003D8DCB1202C49
S2140023F01BD070BD602CFCD1042303FB06F25608EC
S21400240006EB4113B3FBF2F3094A203B02EAC3038F
S214002410AA6822F06002AA60AA681443AC60EB6166
S214002420E7E70623E9E71023E7E70823E5E700BF29
S214002430F8FF7F00012200F5805310B55A6040F681
S214002440AA6341F205024361002312498360C36513
S214002450C26000F500520361C361C36491640E4913
S2140024608365884206D00D4CA04203D004F5804414
S214002470A0420BD18842036506D0084B984203D091
S21400248003F58043984201D100234365012353603E
S21400249010BD00BFFFFF01000080055000C00550C2
S2140024A070B50D46FFF7C6FF012300F58056736032
S2140024B0AB7C04461BB1836843F080438360EB7CAF
S2140024C01BB12046297DFFF763FF2A8A6B7B2046D7
S2140024D01343EA891343E3602B7BD5E90112FFF728
S2140024E079FF6B7D1BB1A36843F48033A360AB7D9B
S2140024F01BB1A36843F40043A360EB7D2A7E1B0751
S214002500120502F4E00203F0E0431343A3656A7E7B
S214002510931E012B214B20D89C421AD003F58043F2
S2140025209C4218D003F580439C420CBF02234FF018
S214002530FF3341F2AC5102205B0103F1A04303F5E7
S21400254070335850032A23D10423F3652B78636134
S21400255070BD0023EDE70123EBE79C4214D0104B3F
S2140025609C4213D003F580439C420CBF02234FF0DD
S214002570FF3342F2AC5102205B0103F1A04303F5A6
S21400258070335850012ADEE70023F2E70123F0E714
S214002590042204F50053DA65D8E700BF0080055032
S2140025A000C0055038B50446054D51F0A0F90FCCD3
S2140025B00FC594E80F0085E80F00002038BD00BF67
S2140025C04469002047F6FF739A42F0B567D00329A6
S2140025D067D8354DCF0015F8313005EBC100012B1B
S2140025E0847813D10025C3781B1B9D4202D3E018C4
S2140025F0C0B2F0BD591B4668A3EB510136F9116015
S2140026009642D4BF0D4601F1FF33EEE7406800283E
S214002610EFD0B0F90030934204DBB0F902309342B9
S214002620B8BF134682883D44FF2A19BFC8214FF021
S214002630280CB0F90610B0F908C0A1EB03020CBFD5
S2140026400126002692FBFCF26D78324412B29542C7
S21400265001DD002A01DA6A1E12B24FF47A7700EB27
S214002660C206F188B668013213FB016112B221EA94
S214002670E17101F5FA719542B1FBF7F104DD00EB6B
S214002680C206B6888E42EAD200EBC20232F8040CCA
S214002690884228BF0846A04238BF2046A8E7FF2049
S2140026A0A7E70020A5E700BF446900200329F0B58E
S2140026B053D82B4800EBC10410F831106368012989
S2140026C00FD1E078A478904294BFC4EB0001C4EB2D
S2140026D00201001BCAB28242C8BF002233F91200B0
S2140026E0F0BD002B39D0A178914202D3B3F9020095
S2140026F0F6E7E178B3F900009142F1D99988647859
S214002700A1F1FF06013C714203F10405E4B27141F8
S21400271003F10C071FFA82FCCEB2B44216D805EBC2
S214002720C1014FF47A756A43B1F902404968521AFA
S21400273004EBD47102EB610292FBF4F29042CFDB21
S214002740B3F902009042CBDC10B2C9E737F831E0AB
S2140027504E1CE645E3D33146DEE70248C0E700BF3D
S214002760446900200080FFFF08B50448FFF71AFF01
S214002770BDE80840012051F0DDB800BFE44905007F
S2140027807FB51422002101A851F04FFE044B01A989
S2140027904FF0FF30029351F072F907B05DF804FB7A
S2140027A0006A18002DE9F0418CB08846DDE9127603
S2140027B01D460446002847D0002945D0002F43D0A8
S2140027C0002E41D013F00F033ED120482049A360CD
S2140027D0002A18BF0146E361C4E90013404609A970
S2140027E036F0E3FB68BB2046099936F03FFA2946E7
S2140027F0204636F03BFA6946404636F075FC00BB8C
S2140028006946204636F01EFA404603A936F077FCA5
S214002810B8B9204603A936F015FA069701272046D0
S21400282045F0005506A90797089536F00BFA20469E
S21400283009A909960A970B9536F00EFA204636F047
S2140028409BFA0CB0BDE8F0812120FAE700010104F4
S214002850000100042DE9F04792B08846DDE91A57DA
S2140028601C460646DDF87090002864D0002962D029
S214002870002F60D0B9F1000F5DD0002D5BD013F0B3
S2140028800F0358D12D482E49B360002A18BF0146C1
S214002890F361C6E9001340460FA936F086FB002810
S2140028A046D130460F9936F0E1F92146304636F0EB
S2140028B0DDF96946404636F017FC002838D16946EF
S2140028C0304636F0BFF9404603A936F018FC78BB10
S2140028D04FF001083046DFF86CA003A936F0B2F9D5
S2140028E044F00054304606A90695CDF81C80CDF875
S2140028F020A00997CDF828800B9436F0A3F930462F
S21400290009A936F09FF930460CA9CDF83090CDF8DD
S21400291034800E940F95CDF84080CDF844A036F064
S2140029209BF930460FA936F097F9304636F024FA70
S21400293012B0BDE8F0872120FAE700BF03020104C9
S21400294003020004100000202DE9F04F97B08946DE
S21400295090461F460546DDF880A0002800F0BD80A2
S214002960002900F0BA803AB1229B002B00F0B58017
S214002970239B002B00F0B180BAF1000F00F0AD8071
S214002980219B002B00F0A98077B13C680026229B93
S21400299043440293464509D3002F00F0A080002050
S2140029A03C6017B0BDE8F08F3C46EFE75CB1229B79
S2140029B0219A9B5D125D01345340239A04F00F0464
S2140029C093550136E6E7A8EB060BBBF10F0F58D977
S2140029D0444B4846C5E90034AC60EC6113A936F0B8
S2140029E0E4FA0028DDD1284613992BF00F0B36F0B9
S2140029F03DF95946284636F039F9484604A936F0D6
S214002A0073FB0028CDD1284604A936F01BF94846AA
S214002A1007A936F074FB0028C3D1284607A936F06C
S214002A2011F901232299304ACDF828A00B930C9275
S214002A308A190D9228464BF000520AA90E9303926B
S214002A400F9236F0FFF828460DA936F0FBF8239BC8
S214002A50039A99190123109111931292224A28463B
S214002A6010A9CDF84CA01493159236F0F5F8284628
S214002A7013A936F0F1F8284636F07EF95E440028B1
S214002A808FD1229B03EB060B239B1E44029B5B45C8
S214002A9001D146467EE7ACB9219B2246CDE900A38C
S214002AA0494610232846FFF77DFE00287FF479AFBD
S214002AB00AF1100212F8013D0133DBB213700BB9B4
S214002AC09245F7D1219A1BF8013B125D0134534021
S214002AD006F8013B04F00F04D8E7212061E73846EA
S214002AE05FE700BF03030004100000202DE9F04F4D
S214002AF097B00F46144699468346209EDDF8888098
S214002B00DDF890A0269D002800F09F80002900F0A8
S214002B109C801DB1259B002B00F09780B9F1000F1B
S214002B2000F09380B8F1000F03D0219B002B00F03B
S214002B308C803CB1239B002B00F08780BAF1000FFD
S214002B4000F08380C6F10F02D2B2032A05D8012115
S214002B50D20001FA02F2A24277D9022D75D0102DCA
S214002B6073D815F0010270D1F11F06296DD83849C7
S214002B700AEB0400884268D236493846CBE9001290
S214002B80CBF80820CBF81C2013A936F00EFA002844
S214002B9058D15846139936F069F8584645EA064122
S214002BA036F064F84146584636F060F821465846F6
S214002BB036F05CF8384601A936F096FA002841D17E
S214002BC0584601A936F03EF8384604A936F097FA7A
S214002BD0002837D10127584604A936F033F8239B3E
S214002BE048F000520793219B584644F000540DA924
S214002BF046F00056089709940A930B970C92CDF866
S214002C0034900E970F9636F01DF858460AA936F0FF
S214002C1019F8584607A936F015F8259B584610A906
S214002C2045F00055CDF840A01197129413931497D1
S214002C30159536F011F8584613A936F00DF8584693
S214002C4036F09AF817B0BDE8F08F2120FAE700BFFB
S214002C5000800120000005042DE9F04F99B00F46D2
S214002C6014469B468046229EDDF89890289D0028B4
S214002C7000F0B280002900F0AF80279B002B00F008
S214002C80AB80BBF1000F00F0A780249B1BB1239BF9
S214002C90002B00F0A1803CB1259B002B00F09C800F
S214002CA0B9F1000F00F09880C6F10F03DBB2032BDA
S214002CB006D80121DB0001FA03F3A34240F28C8020
S214002CC0022D00F089806B1E0F2B00F2858015F018
S214002CD0010A40F08180F31F062B7DD83F4B09EB9D
S214002CE00401994278D23E4B3846C8E9003AC8F803
S214002CF008A0C8F81CA015A936F057F90346002806
S214002D0066D14046159935F0B1FF404645EA064182
S214002D1035F0ACFF4046249935F0A8FF21464046E2
S214002D2035F0A4FF384603A936F0DEF9034600283E
S214002D304ED1404603A935F085FF384606A936F041
S214002D40DEF90346002843D10127404606A935F0A0
S214002D5079FF259B4046099344F000530A97019358
S214002D600B93239B46F000560C93249B0D9743F041
S214002D7000510E910FA9CDF83CB01097119635F082
S214002D8061FF40460CA935F05DFF404609A935F0C5
S214002D9059FF019B404612A9CDF84890139714930B
S214002DA035F05AFF279B404615A945F00055159368
S214002DB01697179535F046FF404635F0DDFF03467B
S214002DC030B1019022465146484651F02EFB019BF9
S214002DD0184619B0BDE8F08F2123F9E700800120DE
S214002DE0000006042DE9F0438DB0884615461C46C3
S214002DF00746DDF85090002850D000294ED0002A13
S214002E004CD0B9F1000F49D00B68103B102B45D8B9
S214002E10012606FA03F303F0013323F08073002B38
S214002E203CD000231E4A8360C0E90023C36109A981
S214002E30404636F0BAF870BB3846099935F016FFAA
S214002E402146384635F012FF6946404636F04CF9C2
S214002E5008BB6946384635F0F5FE404603A936F00D
S214002E604EF9C0B9384603A935F0ECFE44F00054DC
S214002E70384606A906950796089435F0E3FE094BF2
S214002E80384609A9CDF824900A960B9335F0E4FE4F
S214002E90384635F071FF0DB0BDE8F0832120FAE723
S214002EA00000040410000020F0B50C4617461E462D
S214002EB0054695B0002874D0002972D0002A70D03C
S214002EC0002B6ED0036B0F2B5BD80023364A384698
S214002ED0C4E90023A360E36111A936F066F8002870
S214002EE05BD12046119935F0C1FE296B20460F298B
S214002EF084BF01F00F01103135F0B8FE384602A944
S214002F0036F0F2F8002848D1204602A935F09AFE9D
S214002F10384605A936F0F3F800283ED1204605A924
S214002F2035F090FE0122214B089509920A932B6BEF
S214002F3005F1100003F00F0141F000510B900F2B2C
S214002F400C920D910E900F9243F00052109226D9DB
S214002F500A9B08A923F0005320460A9335F072FE18
S214002F600BA9204635F06EFE0123119612930F4BE7
S214002F70204611A9139335F06FFE204635F0FCFE6F
S214002F800BE000F120030190009301221023394644
S214002F902046FFF707FC002897D015B0F0BD0EA915
S214002FA0DFE72120F9E700BF00000404100000203E
S214002FB02DE9F04F9BB00D46914698460646DDF843
S214002FC090A0002800F0B380002900F0B080002A0E
S214002FD000F0AD80002B00F0AA80026B02EB0A0323
S214002FE01B09B3EB121F02F00F0700F098800023B6
S214002FF0504A8B60C1E90023CB61484617A935F0DB
S214003000D4FF0446002840F0868007EB0A0323F02E
S2140030100F0B28461799009335F028FE5946284688
S21400302035F024FE484602A936F05EF8044600282D
S21400303071D1284602A935F005FE484605A936F0A6
S2140030405EF80446002866D14FF00109284605A917
S21400305035F0F8FD384A284608A90896CDF8249099
S2140030600A9235F0EFFD47F00051ABEB070706F18B
S214003070100347F000570B93CDF830900D91CDF824
S2140030803880CDF83C9010970D99284621F00051D5
S2140030900D910BA9019335F0D5FD28460EA935F004
S2140030A0D1FDABF11001244A41F000511194CDF846
S2140030B04890139106F120011491CDF85490169281
S2140030C01399284641F080411391139921F000513D
S2140030D0139111A935F0C0FD284614A935F0BCFDA2
S2140030E0154A17A928461796CDF86090199235F01C
S2140030F0B3FD284635F040FE009B0446ABEB0301CB
S214003100A3EB0B02019B51441846414451F066F96B
S214003110336B5344336320461BB0BDE8F08F10304A
S21400312052464146384451F059F90024F0E721242C
S214003130F1E700BF03020004100000202DE9F04371
S2140031408DB08846DDE914591E460746002850D043
S21400315000294ED0002B4CD0B9F1000F49D0531E99
S214003160DBB2022B45D82449CC5C169B9C4240D847
S214003170224B09A903EB022200230260C0E90133B7
S214003180C361404635F011FF80BB3846099935F0DB
S2140031906DFD2946384635F069FD6946404635F0EE
S2140031A0A3FF18BB6946384635F04CFD404603A9D8
S2140031B035F0A5FFD0B9384603A935F043FD06968D
S2140031C00126384606A945F00055079644F00054F7
S2140031D0089535F037FD384609A9CDF824900A96AB
S2140031E00B9435F039FD384635F0C6FD0DB0BDE818
S2140031F0F0832120FAE700BFD04A05000001020351
S2140032002DE9FF4700230E46174604460093002884
S2140032105BD00AB1002958D037F0030807F0030A3C
S21400322025D04FF000094FF0E063C4E900390123D0
S21400323001962046029301A948F00053C4F808906E
S214003240C4F81C90039335F007FD4146204635F040
S2140032500DFD204635F090FD054640B142464946F4
S214003260304651F0E2F8284604B0BDE8F0874FF04B
S2140032700009BAF1000F2AD04FF0E063C4E9003924
S2140032800123CDF804D00293124B204601A9C4F8BE
S2140032900890C4F81C90039335F0DEFC0421204609
S2140032A035F0E4FC204635F067FD054608B13A46A1
S2140032B0D5E7034600994644DA00013321FA02F2C4
S2140032C09A4506F8012BF7D1CDE72125CBE75546E1
S2140032D0C9E700BF04000020F0B504461746227870
S2140032E00846022A8DB02FD0032A31D0012A33D1C6
S2140032F014261A4A0C34026000229D01C0E90122FD
S214003300C2612946019035F0B1FC0123019846F0D0
S214003310005606A945F000550397049305950694B4
S2140033200793089609940A930B9635F08BFC019840
S21400333003A935F087FC019809A935F08DFC0198A2
S21400334035F01AFD0DB0F0BD2026054A0C34D2E744
S2140033502026044A0C34CEE72120F3E700020103BE
S214003360000301030004010310B591B188B10023E6
S214003370C0E90133084B00F10C0203F1200153F8B9
S214003380044B8B4242F8044BF9D102230370002011
S21400339010BD2120FCE700BFD34A050010B591B14F
S2140033A088B10023C0E90133084B00F10C0203F199
S2140033B0200153F8044B8B4242F8044BF9D1032307
S2140033C00370002010BD2120FCE700BFF44A050072
S2140033D02DE9F0411546804686B0002859D00029D0
S2140033E057D0002A55D00278022A48D0032A4BD05C
S2140033F0012A4ED1142600F10C07021D9E4248D821
S21400340013685268D8008DF80F0058098DF80E0022
S214003410580B8DF80D00580D8DF80C00D00000EB01
S21400342053708DF80B0003F03F035009372B8DF8CF
S2140034300A004FEA52304FEA52528DF809008DF8D2
S21400344008204046144A94BFC3F13803C3F17803FA
S214003450019135F0B3FC0199044660B90823404653
S2140034600DEB030235F0AAFC044620B93246394675
S214003470284650F0B3FF204606B0BDE8F0811C2673
S21400348000F10C07021DB9E7202600F10C07021D0B
S214003490B4E72124EFE700BF184B05002DE9F04103
S2140034A086B090461D4604460C9F002833D097B33E
S2140034B002B983BB4B1EDBB2022B2CD8174AD65C54
S2140034C00D9B9E4227D80023080200F1407000F5AD
S2140034D080702946C4E901332060E361204635F058
S2140034E0C5FB01236946204645F0005546F00056C8
S2140034F0CDF800800193029503970493059635F066
S214003500A1FB204603A935F0A7FB204635F034FC86
S21400351006B0BDE8F0812120FAE700BF154B050094
S214003520F0B50F4616461D46044693B010B9212046
S21400353013B0F0BD0029FAD0002AF8D0002BF6D040
S214003540002331461A46384635F0E4FC0028EFD111
S214003550304602A935F085FC0028E9D138683449A0
S214003560029A88426B695ED19342E0D32B68002BA7
S214003570DDD14FF060623846C4E90023A360E36102
S21400358001A935F012FD0028D2D10199204621F478
S214003590F061019135F06AFB6946284635F005FD75
S2140035A00028C5D12046009935F060FB384609A9A9
S2140035B035F09AFD0028BBD1204609A935F042FB1C
S2140035C038460CA935F09BFD0028B1D120460CA941
S2140035D035F038FBEB684BB1284606A935F084FD7C
S2140035E00028A5D1204606A935F02CFB304603A9B5
S2140035F035F085FD00289BD1204603A935F022FB37
S21400360028460FA935F07BFD002891D120460FA94A
S21400361035F022FB0325204635F0AEFB012887D186
S214003620013DF8D184E7B3EB420F9FD27FE700BF9E
S214003630200000B070B50E46154604468AB0002835
S2140036405CD000295AD0002A58D0012329461A46B1
S214003650304635F05FFC00284ED1B36813F4C04FF7
S2140036604CD0AB6803F4C043B3F5005F46D1254B9E
S214003670A060C4E90030E06107A9304635F095FC4B
S214003680002839D12046079935F0F0FA0123029335
S2140036904FF00053204601A9039335F0D3FA304685
S2140036A004A935F02CFD38BB204604A935F0CAFA2B
S2140036B0EB681BBBAB6803F4C043B3F5005F1DD1DA
S2140036C06946284635F0F2FBB0B9009B6A699A4213
S2140036D016D32A6943F0005307920122204607A911
S2140036E008920325099335F0B7FA204635F044FBD7
S2140036F0012801D1013DF8D10AB070BD2120FBE7B9
S2140037001D20F9E7000001022DE9F04391B00C46B8
S214003710DDE918650746DDF8688000286DD00029C9
S2140037206BD0002E69D0B8F1000F66D0096801F0A2
S2140037307041B1F1404F5BD0002B5BD1531E022B82
S2140037405BD8120202F1C06202F5807200232046A6
S214003750C7E901333A60FB610DA935F026FC002865
S21400376043D138460D9935F081FA2946384635F06A
S2140037707DFA204601A935F0B7FC002835D1384639
S21400378001A935F05FFA204604A935F0B8FC60BB05
S2140037904FF00109384604A935F054FA45F00055B3
S2140037A0384607A90796CDF82090099535F04AFACD
S2140037B023680A9603F07043B3F1404FCDF82C907F
S2140037C00C9503D138460AA935F03CFA0123CDF80A
S2140037D034800E931B9B384643F000530DA90F937D
S2140037E035F03AFA384635F0C7FA11B0BDE8F0833E
S2140037F0034AABE74FF0C062A8E72120F5E700BF19
S214003800000002062DE9F0418CB00C46DDE9127589
S2140038100646DDF85080002867D0002965D0002FC6
S21400382063D0B8F1000F60D0896889045DD521683F
S21400383001F07041B1F1404F4DD0002B4DD1531ED9
S214003840022B52D82A4B03EB022200232046C6E95D
S21400385001333260F36109A935F0A7FB002837D1A0
S2140038603046099935F002FA2946304635F0FEF919
S2140038706946204635F038FC50BB6946304635F080
S214003880E1F9204603A935F03AFC08BB304603A907
S21400389035F0D8F9012345F00055069707930895AB
S2140038A0CDF824800A93159B43F000530B932368AE
S2140038B003F07043B3F1404F11D109A9304635F0FB
S2140038C0C1F906A9304635F0BDF9304635F054FA50
S2140038D00CB0BDE8F081074AB7E7074AB5E706A986
S2140038E0304635F0AFF909A9ECE72120F0E700BF34
S2140038F00001010600000306000001061FB504468D
S21400390098B191B100230A4A8360C0E90023C361DD
S214003910012301910293074B01A9039335F09CF90B
S214003920204635F029FA04B010BD2120FBE700BF81
S214003930000008430400002010F1860F06D038B1BE
S2140039409330044808BF6FF06F0070476FF0710047
S214003950704700BF009FFFFF70B58CB004460D4651
S21400396016460021242203A850F05FFD4FF41053A2
S214003970ADF80C304CB323683BB335B31B78032B40
S2140039801BD0042B1BD0022B22D18023206CB42109
S214003990ADF80E30B0B9012037F02BF9D8B120645D
S2140039A00E4B2A460093206CF30803A902F08EFC07
S2140039B00CB0BDE87040FFF7BFBFC023E6E74FF48A
S2140039C08073E3E707F08EF9EAE705480CB070BDB0
S2140039D06FF07100FAE70348F8E700BF0002C00383
S2140039E0009FFFFF809EFFFF10B550B1046844B1F2
S2140039F039B1006C28B102F059FDBDE81040FFF760
S214003A009BBF014810BD00BF009FFFFF07B578B100
S214003A1002686AB1006C58B151B1002310220193BC
S214003A2001AB02F071FD03B05DF804EBFFF784BF55
S214003A30014803B05DF804FB009FFFFF2DE9F0434B
S214003A4099B0894616461F460446DDF88080002851
S214003A5063D0002A61D0B8F1000F5ED00021304B51
S214003A60202210A806910F9350F0DFFCB9F1100F3A
S214003A704FF0000115D10BAA04F11005134620687B
S214003A806168083403C3AC421A46F7D13B46324657
S214003A908021CDF800800BA800F038FFA0B90446BE
S214003AA014E0102207A850F0C0FCB9F1200F4FF028
S214003AB0100213D80BAB009322464B46802107A872
S214003AC000F024FF0028E1D06FF06F0410210BA84F
S214003AD007F008F9204619B0BDE8F0830BAB06AD39
S214003AE0CDE90325CDE9019300940E4B07A90FA855
S214003AF036F01CFBFFF720FF102204460028E5D115
S214003B00CDE90375CDE90178064B00960BA90FA801
S214003B1036F00CFBFFF710FFC1E7034CDAE700BFF7
S214003B20002480000002C003009FFFFF10F1860FF4
S214003B3012D010F1850F0ADA10F1950F0FD010F1A0
S214003B40930F14BF4FF0FF306FF06F0070470038D0
S214003B5018BF0120404270476FF07100704701485F
S214003B60704700BF00B2FFFF0138082812D8DFE810
S214003B7000F00511090B0D1111110F00074B002065
S214003B800B607047064BFAE7064BF8E7064BF6E77E
S214003B90064BF4E76FF07100704700BF1271C0006B
S214003BA01271000112718001127109024171FF0049
S214003BB0F0B50E460021B3B00446154622A83D22B5
S214003BC01F46219150F031FC00213C2212A8119191
S214003BD050F02BFC0021242208A850F026FC207868
S214003BE008A9FFF7C1FFFFF7A1FF0446002841D14F
S214003BF04FF4804108A835F0FEFABDF82030BDF835
S214003C00224003F44F420734B2F5824F4FEAD40401
S214003C1033D1DBB2412B30D1224611A93846079466
S214003C2037F017FC2246284621A937F012FC07ABCE
S214003C3004934123039321AB0293079B1D480193F2
S214003C4021AB009311AA234608A936F0EDFAFFF738
S214003C506DFF044670B9BDF82030304603F44F417E
S214003C60B1F5824F079A21A921D1DBB2412B1ED193
S214003C7037F0ABFB204633B0F0BD6300224601337D
S214003C8011A93846079337F01AFC042322460DF193
S214003C90850128468DF8843037F011FC611C21AB75
S214003CA02246194405F10C0037F009FCBFE737F04F
S214003CB0AFFBDFE70000020908B5064A064B0029FD
S214003CC014BF1146194602F06DFABDE8084035F0FB
S214003CD008BB00BF08000002090000022DE9F04101
S214003CE004681E4624F04003802B05468846174687
S214003CF092B002D0B4F5807F43D11C2200210BA8DD
S214003D0050F093FB224A234B0121B8F1010F18BF54
S214003D1013460A932B1D0193E4081F4B44F00054EE
S214003D2002910AA8039404970591069307960891B2
S214003D3001A9099334F086FF04A90AA834F082FF8B
S214003D4007A90AA834F088FF29680AA8C90834F029
S214003D508DFF10210AA834F089FF35F009F898B9CC
S214003D600AA834F08CFF4FF098435A6CD202FCD568
S214003D705C6D34F0FFFF04F47024204612B0BDE8FA
S214003D80F0816FF07100F9E74FF0FF30F6E700BF03
S214003D900001010400010004100000202DE9F0419C
S214003DA088461107064615461F4698B05DD104683A
S214003DB024F04003802B02D0B4F5807F58D11C221B
S214003DC0002111A850F031FB2C4A2D4BE408B8F125
S214003DD0010F18BF134601221093331D0193294B80
S214003DE044F00054029203940497059206930797B2
S214003DF0089209931E9B1F990A9345F000530B9255
S214003E0010A80C930D9101A90E920F9334F01AFF8F
S214003E1004A910A834F016FF0AA910A834F012FF5F
S214003E200DA910A834F018FF07A910A834F014FF45
S214003E30316810A8C90834F019FF294610A834F0D4
S214003E4015FF34F095FFB0B910A834F018FF4FF006
S214003E5098435A6CD202FCD55C6D34F08BFF04F4A8
S214003E607024204618B0BDE8F0816FF02100F9E715
S214003E706FF01F00F6E74FF0FF30F3E70302010490
S214003E800302000410000020F0B504460068059EFA
S214003E90002835D01D68002D32D00D68412D2DD953
S214003EA035683F2D2CD9412505702568681C206093
S214003EB00868013808600420687020680D680130C2
S214003EC02060013D0D601D6805F1400755F804CBE4
S214003ED0BD4240F804CBF9D1206840302060086825
S214003EE0403808601968403119603368403B3360D9
S214003EF042B10020136842331360F0BD0248FCE76D
S214003F000248FAE71046F8E700B1FFFF80B0FFFF6F
S214003F102DE9F743076804460D4690461E46DDF831
S214003F2028901FB91D4803B0BDE8F0831F68002F16
S214003F30F8D0CDF80090FFF7A7FF0028F3D12B6844
S214003F40202BEFD9D9F800301F2BEBD9202223687D
S214003F501A7021682B6801312160013B2B603368A1
S214003F609A1853F8047B934241F8047BF9D12368EE
S214003F70203323602B68203B2B603368203333606C
S214003F80D9F80030203BC9F80030B8F1000FCAD08D
S214003F90D8F800302133C8F80030C4E780B0FFFFFF
S214003FA02DE9F04198460B6806460D46174613B9AC
S214003FB01D48BDE8F08101680029F9D01268002A82
S214003FC0F6D00A4612F8014B02605A1E94422A6046
S214003FD0EED84A78023B0231042A01602B6007D0F3
S214003FE0052A1ED01048114B002A08BF1846E0E7E5
S214003FF0D8F80030013C9C42DAD82246386850F0A7
S214004000EDF933680020234433602B681B1B2B60BC
S2140040103B6823443B60D8F800301B1BC8F80030D0
S214004020C7E70348C5E700BF80B0FFFF80B3FFFFC8
S21400403080B1FFFF2DE9F0470C6805460F4616468F
S214004040984624B9DFF884904846BDE8F0870468AF
S214004050002CF7D01468002CF4D0FFF7A1FF81469F
S2140040600028F1D13B68002BECD02A68013B12F8FF
S214004070014B9C422A603B60E4D8D8F800309C4252
S214004080E0D8002CDED0C4F1200A01465246306843
S21400409050F0CBF93068D8F800305044203B306000
S2140040A02344C8F800302246296850F097F9336850
S2140040B023443360D8F800301B1BC8F800302B6848
S2140040C023442B603B681B1B3B60BDE780B0FFFFB3
S2140040D010B51446039A202A0DD8042C0DD1032BB4
S2140040E00BD1074B01710360026302990C3050F04C
S2140040F075F9002010BD0348FCE76FF07100F9E782
S2140041001F00008080B0FFFF03680248002B18BF26
S2140041100020704780B0FFFF39B1054A054B0129E2
S21400412014BF11461946084670478160FBE700BF7A
S21400413080B0FFFF80B1FFFF2DE9F04F0E46002153
S214004140D5B08246196003921DA81C221F4650F067
S2140041506CF94FF030634FF0010B504A1C9307ABDD
S21400416007CA83E807004E4A9AF804100AF1540872
S21400417052F8210024AD0A90CDF82CB050F023FA66
S2140041800AF1340140F000500C900D914549464824
S214004190CDF838B007AB0F910AF1940940313CAC2A
S2140041A0CDF84080CDF844B012901395CDF850B0BD
S2140041B01591CDF85890CDF85CB0189019941CA8BD
S2140041C0CDF868B01B91194634F03CFD0AA91CA82E
S2140041D034F038FD0DA91CA834F03EFD10A91CA82B
S2140041E034F03AFD13A91CA834F036FD16A91CA815
S2140041F034F032FD19A91CA834F02EFDDAF80010B0
S2140042001CA834F033FD9AF80430254A52F82300EF
S21400421050F0D9F901461CA834F028FD35F0C9F84D
S214004220002835D11CA834F02AFD35F0B9F88246AE
S21400423035F0C7F8BAF1000F2DD1CDE904684FF07C
S214004240400806AE3A46009605AB03A904A8CDF88A
S2140042501880FFF719FED8B905956025009605ABBE
S21400426003A904A80695FFF753FE88B93A460096B8
S21400427005AB03A904A8CDE90598FFF705FE38B9F4
S214004280009605AB03A904A8CDE90545FFF740FE57
S21400429055B0BDE8F08F6FF06F00F9E7684B05008A
S2140042A0744B050020000020400000202DE9F04F50
S2140042B0002405464026D5B0CDE9022125A8214692
S2140042C05C22249450F0B1F821465C223DA83C9430
S2140042D005F1D40A50F0A9F806AB05AA02A903A86E
S2140042E0CDF814A00696FFF75BFE0446002840F0C3
S2140042F0A7804FF0600824AF06AB05AA02A903A862
S2140043000597CDF81880FFF795FE0446002840F084
S214004310978005F58A7906AB05AA02A903A8CDE918
S2140043200596FFF73DFE0446002840F089803CAE27
S21400433006AB05AA02A903A8CDE90568FFF77AFE31
S214004340044600287CD1029B002B7DD10124014627
S2140043501C221DA850F069F83C4BDFF808811C931E
S2140043603B4B0DF11C0B93E807002B798BE80700FD
S21400437058F8230001930A900B9450F024F9019BFF
S21400438040F00050E31A0C9058F823000D900E945D
S21400439050F019F92F4A304B40F000500F90594614
S2140043A01CA8CDF840A0119412921397149415935C
S2140043B0CDF858901794189219961A941B9334F0C7
S2140043C041FC0AA91CA834F03DFC0DA91CA834F039
S2140043D039FC10A91CA834F035FC13A91CA834F02D
S2140043E031FC16A91CA834F02DFC19A91CA834F021
S2140043F029FC29681CA834F039FC2B7958F82300CE
S21400440050F0E1F801461CA834F030FC2B79E31A92
S21400441058F8230050F0D7F801461CA834F026FCC4
S21400442034F0C7FF044658B91CA834F028FC34F012
S214004430B7FF054634F0C5FF084B002D18BF1C46D5
S214004440204655B0BDE8F08F054CF9E70001000B9B
S214004450684B0500400000206000002000B2FFFF0F
S21400446080B0FFFF744B05002DE9F04F0F4600218A
S21400447006464FF00109D3B01960039223A81C2208
S21400448098464FF0D2FF624BDFF89CB12293614B07
S2140044900DF11C0A93E8070006F10C030A93336B30
S2140044A0CDF82C9043F000530C9333798AE807003C
S2140044B05BF823002AAD0D90CDF8389050F083F8C5
S2140044C006F1340340F000500F901093524BCDF895
S2140044D04490129306F154031393504B06F1D40202
S2140044E0CDF850901593169206F58A72CDF85C902A
S2140044F05146189322A819923AACCDF868901B93AF
S2140045001C95CDF874901E9320331F94CDF88090A0
S214004510219334F097FB0AA922A834F093FB0DA947
S21400452022A834F08FFB10A922A834F08BFB13A925
S21400453022A834F087FB16A922A834F083FB19A919
S21400454022A834F07FFB1CA922A834F085FB1FA903
S21400455022A834F081FB316822A834F087FB316B47
S21400456022A834F083FB33795BF8230050F02BF855
S214004570014622A834F07AFB34F01BFF00283CD119
S21400458022A834F07CFB34F00BFF814634F019FF90
S214004590B9F1000F38D13379012B18D1039BA72B23
S2140045A02ED9032004F0FAFF60B303233B70438840
S2140045B003371B0A07F8023C438807F8013CD8F883
S2140045C000300333C8F80030039B033B03934023BB
S2140045D0CDE9047506AD06934246009505AB03A9E2
S2140045E004A8FFF751FC40B960230095069303A981
S2140045F005AB04A80594FFF78BFC53B0BDE8F08F1D
S2140046000748FAE70748F8E76FF06F00F5E700BFDE
S2140046100000010B684B0500200000204000002031
S21400462000B1FFFF80B0FFFF744B05002DE9F0439B
S2140046300379BBB00546CDE90021FBB9022A04D8B0
S214004640584C20463BB0BDE8F0834B1C01930B78DA
S214004650032BF5D18B1C0193CB1C487801938B78E8
S21400466043EA002004F0A6FF002800F097800378B5
S214004670032B40F09380009B033B00934023694646
S214004680049305F5AA7804AB03AA01A8CDF80C801C
S214004690FFF786FC04460028D3D1602369460493BE
S2140046A022AE04AB03AA01A80396FFF7C3FC044698
S2140046B00028C6D1009B002BC2D1012401461C2233
S2140046C01BA84FF0B2FE384BDFF8EC901A93374B2E
S2140046D005AF93E807002B7987E80700C3F10103CD
S2140046E059F82300089009944FF06DFF05F1540324
S2140046F040F000500A900B932D4B05F194020C9459
S2140047000D930E9205F1D4020F94394610931AA811
S214004710119212941393CDF850801594169320336B
S21400472017961894199334F08DFA08A91AA834F03D
S21400473089FA0BA91AA834F085FA0EA91AA834F03B
S21400474081FA11A91AA834F07DFA14A91AA834F02F
S21400475079FA17A91AA834F075FA29681AA834F055
S21400476085FA2B79E31A59F823004FF02CFF0146FF
S2140047701AA834F07BFA34F01CFE044600287FF4B6
S21400478060AF1AA834F07BFA34F00AFE054634F01F
S21400479018FE084B002D18BF1C4652E76FF0710438
S2140047A04FE700BF80B0FFFF0001010B684B05001C
S2140047B04000002000B2FFFF744B0500F0B51F2A32
S2140047C004460E461D469BB061D91C22002113A844
S2140047D04FF02BFE2F4B304A12936B4607CA83E8E6
S2140047E0070004F10C0203920122216B049241F0AF
S2140047F00051059104F134010691284904F58A70A8
S214004800079208910990264804F5AA770A920B9019
S2140048100C970D920E900F9612A8109211911946B1
S21400482034F010FA03A912A834F00CFA06A912A85C
S21400483034F008FA09A912A834F004FA0CA912A850
S21400484034F000FA0FA912A834F006FA216812A86C
S21400485034F00CFA216B12A834F008FA202112A8C2
S21400486034F004FA34F0A5FD044650B912A834F02A
S21400487006FA34F095FD064634F0A3FD26B920234B
S2140048802B6020461BB0F0BD2C60064CF9E7064CAA
S214004890F7E700BF0004020B684B0500200000206D
S2140048A04000002000B2FFFF00B1FFFF30B5154BFF
S2140048B087B00293144B0390049346F611030D46FB
S2140048C0059300F06FF81428044616D1684634F0B5
S2140048D0C9FD4FF0A843032202A95A6319601D615F
S2140048E09A63DA6B9207FCD1142C02D1684634F036
S2140048F0C7FD00F087F8044601E00028E9D020460E
S21400490007B030BD646900200400002070B5C029DF
S21400491092B040D0B1F5807F04D080290ED02920F7
S21400492012B070BD1D4C03F00F050194C5F11004C4
S2140049303DB9002B2DD11023194A07E04FF48034DF
S214004940F1E7002BF7D00F3323F00F03169D102648
S21400495002950125039504962126240205963443E4
S21400496006920795089301AB09940A9306AB0B933E
S21400497004230C9311230D930AAB0E900F9340F66D
S2140049801103C90810910EA802A91193FFF78EFF14
S214004990C6E70024D7E70F20C2E700BF04000100E7
S2140049A07C4B0500144A38B5D2F8803243F0010338
S2140049B0C2F88032114B5B68C3F3080343B14FF073
S2140049C0A842D36B13F0430FFBD11424204638BD06
S2140049D04FF0A843DC6B14F04304FBD1084D2B6862
S2140049E01BB90421284607F0C9FD2B68013343F0A4
S2140049F000432B60EAE700BF0080005000ED00E0B7
S214004A0064690020014B00205B68704700ED00E001
S214004A100123A0F50320074AA0F58070410900F0A5
S214004A201F0003FA00F052F82130184342F8210024
S214004A30704700BF686900202DE9F04780460F46A2
S214004A401E46154688B00AB1002313600EB1002337
S214004A5033604FF0100ADFF8AC9000233A46414628
S214004A60D9F80000CDF800A02BF004FF044680BB68
S214004A703A68204B9A4230D14FF0180A0146524607
S214004A8002A84FF0D2FC23464146D9F80000CDF8E4
S214004A9000A002AA2BF0EEFE0446D0B9069B7B606F
S214004AA0DDE90423C7E90223134B3B600DB1C5F8CB
S214004AB000A0124C3A68104B9A4218D14DB146B13C
S214004AC033464146D9F8000002AA2BF027FF48B12A
S214004AD00446204608B0BDE8F087002DEAD0C5F8A9
S214004AE000A0E7E733682A689B1A3360F1E7044CB6
S214004AF0EFE700BFD175E105105D175EFEDF00F041
S214004B00FFDF00F03C1300202DE9F04F93B0804605
S214004B100F46FCF7DBF80446002837D1384E3378CA
S214004B20F3B90146402202A84FF07FFC354D364AC5
S214004B302B4636481035954294BF00950092006883
S214004B40102202A94EF05CFC4FF0000982460DF1DF
S214004B50080BCA451CD12E4B9D42E8D10123337069
S214004B602C4E337B002B43D1DFF8B490DFF8B4A093
S214004B70DFF8B4B0620959F8222004F01F0322FAC5
S214004B8003F3DB070BD40134812CF3D1224D1EE056
S214004B905BF8040BFFF73CFF09F10109D9E7002396
S214004BA004F5032505F580751A46284602A9FFF781
S214004BB043FF08B150450ED1DDE904239F4208BFEC
S214004BC09045E0D10123C6E900873373B5602846D7
S214004BD013B0BDE8F08F114B984201D05845D2D1A2
S214004BE00A4B294618682BF0DFFE0028CBD0CDE70D
S214004BF0D6E900239F4208BF9045B5D1B568E6E7E1
S214004C00F370002000310800813108003C130020BA
S214004C1090310800F81B002082310800FFDF00F00A
S214004C2068690020FEDF00F011E000F02DE9F84F83
S214004C30994640F26C739A4283460D461746DDF855
S214004C4028A061D812B1B9F1000F60D0BAF1010FF7
S214004C5060D829465846FFF757FF07F11008044664
S214004C604146012035F0C5FF0646002855D042468D
S214004C7000214FF0DAFB2F4B9C4226D900242E4908
S214004C80620951F8222004F01F0322FA03F313F0FE
S214004C90010345D00134812CF2D16FF08D05274CED
S214004CA0C6F804A02FB13A46494606F110004FF068
S214004CB095FB234843463246214600682BF042FDCA
S214004CC068B92046FFF7A4FE0BE0002331461A46DB
S214004CD02046FFF7B1FE78B11A4B98420CD06FF021
S214004CE091054246002130464FF09FFB304635F096
S214004CF091FF2846BDE8F88F7368012B01D0002588
S214004D00CEE76FF08405ECE76FF09105F1E76FF002
S214004D108605EEE76FF08505EBE76FF08C05E8E7B4
S214004D20094A04F50324C6E902B504F58074326026
S214004D30E5E700BF8131080068690020823108007D
S214004D403C130020FEDF00F0105D175E2DE9F043F7
S214004D5089B01546DDE910891E469BB1B9F1000FF2
S214004D6004D16FF0860009B0BDE8F083B8F1000FFB
S214004D70F7D0B8F1005FF4D3C3F1005303F58033E6
S214004D809845EED8FFF7C0FE1F4B0746984202D95B
S214004D906FF08B00E7E7102200210DEB02004FF0CA
S214004DA044FB00233846CDE9023303AA02AB04A92C
S214004DB0FFF742FE154B9842EAD028B1013B9842D5
S214004DC002D06FF09100CEE7029CCEB1AC4203D881
S214004DD0002CC6D115B1C4E7002CFBD0641BB4422E
S214004DE028BF3446039B0A48C9F800400094424650
S214004DF0394600682B442BF03DFD0028B3D0E0E791
S214004E00AC42EBD2ADE700BF81310800FFDF00F017
S214004E103C13002030B5144687B022B3FFF774FE6B
S214004E20144B0546984203D96FF08B0007B030BD8F
S214004E301022002102A84FF0F8FA00232846CDE9F8
S214004E40003301AA6B4602A9FFF7F6FD0A4B98420B
S214004E50EAD010B1013B984208D1039B0020636062
S214004E60009B2360E2E76FF08600DFE76FF09100BB
S214004E70DCE700BF81310800FFDF00F070B586B0C8
S214004E8006460D46FFF740FE244B0446984203D9DB
S214004E906FF08B0006B070BD1022002102A84FF004
S214004EA0C4FA00232046CDE9003301AA6B4602A9C6
S214004EB0FFF7C2FD1A4B9842EAD028B1013B984250
S214004EC002D06FF09100E5E7039B012B22D0154B33
S214004ED0214618682BF068FD0028F2D1124B1A7B89
S214004EE032B1D3E90012AA4208BFB14208BF187314
S214004EF00123A4F503240D4AA4F58074610904F087
S214004F001F0403FA04F452F8213000205C4042F8F3
S214004F102140BFE76FF08400BCE700BF8131080086
S214004F20FFDF00F03C130020F81B0020686900201B
S214004F3030B5048804F4E043B3F5005F34D1C4F31D
S214004F400223042B30D181F0AA6383F4807333F4F8
S214004F507E1309D081F0AA6383F4007333F47E13C2
S214004F600CBF0123002300E001230BB1C1F305436E
S214004F70164D21F47E11A94221D1B4F5105F1ED141
S214004F804188B1F5807F03D021F04001802919D1F6
S214004F90191F0C2916D8DB0714D4073A062A8CBF2B
S214004FA06FF08600002030BD42F204039C4204D11C
S214004FB081F0052383F48013D0E70023D5E76FF054
S214004FC08500F0E76FF08600EDE700BF00014005C2
S214004FD02DE9F04F2DED028B99B08146DDE928765C
S214004FE008EE102A1D468B46DDF8A880DDF8BCA02A
S214004FF041B138B1249B2BB1269B0BB9279B0BB92B
S2140050001FB94EB16FF0860486E02EB1B8F1000FDE
S214005010F8D02B9B002BF5D02C9B002BF2D0BAF1AE
S214005020000FEFD02E9B002BECD02D9B002BE9D051
S214005030B9F8003003F4E042B2F5005F72D1C3F372
S2140050400222042A6ED185F0AA6383F4807333F4B7
S2140050507E1309D085F0AA6383F4007333F47E13BD
S2140050600CBF0123002300E001230BB1C5F3054369
S21400507029464846259ACAF80030FFF759FF0446E5
S214005080002849D1202201460DEB02004FF0CDF951
S2140050902022214610A84FF0C8F908A833F07FFE5A
S2140050A0002858D118EE102A5946484610AB34F05E
S2140050B0FDFA044600282FD12B9B9E424ED8DAF8E4
S2140050C000302E9A934249D8474508D2BB199845D6
S2140050D005D23946324640464FF08DF94746214BB9
S2140050E025F47E159D4228D1DAF800303246069324
S2140050F02D9B0397CDE90483279B10A90293269B3B
S21400510008A80193259B0093249BFDF7EFFC21281C
S2140051101BD0E8B92C9B1E60204619B0BDEC028B54
S214005120BDE8F08F42F20402934204D185F00523D5
S21400513083F4801392E7002397E76FF08804002338
S2140051402C9A1360CAF80030E6E76FF08604F6E79C
S2140051506FF09204F3E76FF09204DDE76FF08904D6
S214005160DAE700BF000140052DE9F04F99B08A4606
S214005170DDE926659346984681462A9F28B96FF052
S2140051808604204619B0BDE8F08F0029F7D0229B90
S214005190002BF4D0249B13B9259B002BEFD10EB91E
S2140051A0002DECD117B92B9B002BE8D12C9B002BA4
S2140051B0E5D0289B002BE2D041464846239AFFF7CD
S2140051C0B7FE04460028DCD1202201460DEB020083
S2140051D04FF02BF92022214610A84FF026F908A8F8
S2140051E033F0DDFD10B16FF09204CAE75A4651461F
S2140051F0484610AB34F05AFA04460028C1D12B9B1F
S2140052009D422AD8BE4208D273199F4205D2314623
S2140052102A4638464FF0EFF83E46144B28F47E18E0
S21400522098451DD1299B2A460693289B0396CDE9CF
S2140052300473259B10A90293249B08A80193239B23
S2140052400093229BFDF708FD212898D02C280AD031
S2140052500028C8D12C9B1D6093E76FF0890490E767
S2140052606FF088048DE76FF094048AE7000140052C
S2140052700F4B984209D010D80E4B984205D020F418
S2140052808070A3F5806398420FD10B88B3F5105F4A
S2140052900CBF00206FF085007047074B9842F4D093
S2140052A020F40070A3F58073EDE76FF0850070477B
S2140052B00010C004004440040012C0042DE9F04F62
S2140052C01F460023A3B08246DDE92EB4DDE9306830
S2140052D0CDE90633CDE90833CDE90A33CDE90C3301
S2140052E0DDF8C8900592049111B96FF0860529E0A3
S2140052F0059B002BF9D0BBF1000F01D1002CF4D197
S2140053002C9B13B92D9B002BEFD116B9B8F1000FCB
S214005310EBD1B9F1000FE8D051463846FFF7A8FFA9
S214005320054678B90146202212A84FF07EF82022C2
S21400533029461AA84FF079F812A833F030FD28B1A4
S2140053406FF09205284623B0BDE8F08F5046DDE9A1
S21400535004121AAB34F0AAF905460028F2D11A98BE
S21400536034F06DF905460028ECD114B9C9F80000F0
S214005370E8E7B3451ED20BEB04039E421AD244451F
S214005380B3D85946224630464FF035F8914BB346CF
S2140053909F4214D08F4B9F4221D8A3F580639F4233
S2140053A000F09C8003F580739F4200F0F7806FF05A
S2140053B08505C7E7874B9F42ECD1444595D814F046
S2140053C00F0292D12346CDE900B61AA912A8FDF71E
S2140053D0E9F98346002850D1C9F80040B2E77E4B71
S2140053E09F4203D003F540739F42E0D1002344451B
S2140053F0CDE90E33CDE910333FF677AF774B9F42BA
S2140054002D9B49D10D2B7FF470AF01238DF83830DA
S2140054102C9B0DF1390203F10C0153F8040B8B425F
S21400542042F8040BF9D11B78137001238DF847302E
S21400543014F00F0724F00F0A00F0C7800BEB0A03E6
S2140054400DF1280C03F1100E6246186859680833EF
S21400545003C273459446F7D1BAF1000F2ED006ABBF
S21400546001930EABCDE902B60093524600231AA96B
S21400547012A8FDF769FA8346F0B14246002130468D
S2140054804EF0D3FF0023BBF1010FC9F800307FF4C4
S21400549057AF6FF08B0555E7102B7FF426AF2C9B8C
S2140054A00EAF03F1100C3A4618685968083303C269
S2140054B063451746F7D1BBE7002F8DD00AAB0293A2
S2140054C006AB06EB0A0201930EAB039200933A4634
S2140054D000231AA912A8FDF737FA7AE723077FF404
S2140054E004AF44456ED82D9B102B7FF4FEAE06AA63
S2140054F092462C9B03F1100E9446186859680833A0
S214005500ACE8030073456246F6D1354B9F4207D19F
S21400551024F00F0104F00F0259440AA84EF05EFF73
S2140055200F2C40D82E4B9F427FF456AF04F00F004E
S214005530C0F110020AAF114638444EF076FF0F2C29
S2140055400FD924F00F023244A2F110030DF1180E09
S214005550F446186859680833ACE803009342E646F8
S214005560F6D110230022CDE90177CDF800A01AA9C4
S21400557012A8FDF76FF9834600287FF47EAF24F06B
S2140055800F0426440EAA3B4603CB9342306071605C
S2140055901F4606F10806F6D110341DE724F00F0367
S2140055A0103343459EE7CDE901B60022CDF800A0B2
S2140055B024F00F031AA912A8FDF74CF98346002819
S2140055C0B0D05AE76FF08905BCE6BAF1000F3FF499
S2140055D003AF44E7004440040010C0040013C004B6
S2140055E00041400410B500284DD000294BD0102AA9
S2140055F049D8836B73B9436A244CA3421ED00CD897
S214005600234CA34214D005D823F48073A4F58064F9
S214005610A34213D06FF088000FE01E4CA3421DD0AB
S214005620F8D8A4F50074A34208D004F58074EFE718
S214005630002A14BF6FF08600002010BD102A22D169
S21400564000F1280301F1100251F8044B914243F88F
S214005650044BF9D1102383630020EEE70D2A12D104
S214005660012301F10C0280F8283000F1290351F8DB
S214005670044B914243F8044BF9D10A781A704FF460
S2140056808073C386E6E76FF08600D6E70010C00496
S214005690004440040013C0042DE9F04F0E461546A2
S2140056A01F46044691B028B96FF0860A504611B0DE
S2140056B0BDE8F08F09B9002AF6D117B91A9B002B5E
S2140056C0F2D11B9B002BEFD0206833F0B8FF824648
S2140056D00028EBD1E16CAF4A01F00F030493C3F14D
S2140056E01008636A934219D194F82020012A1DD12C
S2140056F085B1B8F1100F934600D179BB45452DD240
S21400570004982A463C30314620444EF067FEE26C50
S2140057102A44E26400231B9A1360C7E79E4A93421A
S21400572000F04E810CD89D4A934204D09C4A23F444
S214005730807393420FD1002DECD04FF0000BDDE7C5
S214005740984A934200F03C8123F40073A2F58072DD
S214005750934200F035816FF0880AA7E7454540F28E
S2140057608280049BA5F110021A4411094B1CBBF160
S214005770000F03D012F00F0F08BF0B461A9AB2EBB9
S214005780031FC0F0FC8001230593202200210DEBAF
S21400579002004EF04AFE08A833F001FB81460028BE
S2140057A040F0EA80BE420CD273199F4209D21A9B7F
S2140057B09D423FF679AF31462A4638464EF01BFEEC
S2140057C03E46636A754A934273D04ED823F480737C
S2140057D0A2F580629342BED1B8F1100F00F0B080FF
S2140057E0E06C424600F00F003C30314620444EF05C
S2140057F0F5FDBBF1000F01D0454513D004F13C0385
S214005800019304F12803009302971023214694F88D
S214005810202008A8FDF71EF8002840F0B3804FF0BF
S21400582010091037049B103D2B441D46E36C46447C
S2140058304344E3640F2D76D925F00F08BBF1000F23
S21400584004D02B0702D1B8F1100865D0CDE9016766
S21400585004F1280300932146434694F8202008A824
S214005860FCF7F8FF56E0012388E74B4A934204D042
S21400587002F5407293427FF46EAFE36C2A4603F063
S2140058800F03079304F13C03019304F128030093EC
S2140058902146CDE9026707AB08A8FDF755F80028B2
S2140058A070D1A946E36C2B44E3641B9BC3F80090BD
S2140058B0FCE6B8F1100F20D0E06C424600F00F0076
