S01B00005A53334C2D7263702D756172742D3830323135342E733337F1
S21400400000100020E14300001D4400001D44000095
S2140040103FC600001D4400001D4400001D44000073
S2140040201D4400001D4400001D4400001D44000007
S2140040301D440000688C02001D4400001D44000062
S2140040401D4400001D4400001D4400001D440000E7
S2140040501D4400001D4400001D4400001D440000D7
S2140040601D4400001D4400002DD4000099A000004F
S214004070A5A200001D4400001D4400001D440000D1
S2140040801D4400001D4400001D4400001D440000A7
S2140040901D4400003D4B00001D4400001D44000070
S2140040A01D4400001D4400001D4400001D44000087
S2140040B01D4400001D4400001D4400003D71020028
S2140040C0E1700200DD7002003569020039710200FD
S2140040D0E5700200FD700200E97002000153020064
S2140040E07D7102001D4400001D4400001D440000B8
S2140040F01D4400001D4400001D4400001D44000037
S2140041001D4400001D4400001D4400001D44000026
S2140041101D4400001D4400001D4400001D44000016
S2140041201D4400001D4400001D4400001D44000006
S2140041301D44000010B5054C237833B9044B13B169
S214004140044800E000BF0123237010BDA820002013
S2140041500000000070BD020008B5034B1BB1034908
S214004160034800E000BF08BD00000000AC200020AF
S21400417070BD0200A3F5803A704700BF174B002BB6
S21400418008BF134B9D46FFF7F5FF00218B460F46F1
S2140041901348144A121A23F0EEFA0E4B002B00D0E6
S2140041A098470D4B002B00D09847002000210400B4
S2140041B00D000D48002802D00C4800E000BF23F098
S2140041C07FFA2000290000F049F823F053FA00BFD8
S2140041D000000800000000000000000000100020A2
S2140041E03C140020BC74002000000000000000000A
S2140041F008B50EF0A9FB0346064A1360054B1B687C
S214004200002B05D1044B054A5621054823F00EFA2B
S21400421000BF08BDC4200020388C0200508C02006D
S214004220448C020008B5034B1B6818461AF044FC81
S21400423000BF08BDC420002000BF704708B5064B6D
S2140042401B6818460FF09FF8034B1B6818460CF0C7
S214004250E1FC00BF08BD00BFC420002008B509F07F
S2140042602EF9FFF7E9FF09F037F9FFF7E7FFFAE75E
S21400427008B50421002001F077F80421062001F09B
S21400428073F80821072001F06FF80821082001F0D4
S2140042906BF808211C2001F067F80821242001F0A3
S2140042A063F80821252001F05FF80023184608BDB2
S2140042B000B585B001AB184602F0D6FD224B9B6DCB
S2140042C003F48033002B19D1204B1B6823F4FF0323
S2140042D023F4FE431D4A43F4BC1343F4A063136067
S2140042E01B4B1B6823F47043194A43F44043136086
S2140042F0174B1B68164A43F4E06313609DF80530BD
S214004300012B15D19DF80430002B11D14FF000532E
S21400431003930023029308E0039B1B68039B03F5AB
S21400432080430393029B01330293029B052BF3D930
S214004330084BD3F88030074A43F00303C2F88030B6
S21400434000BF05B05DF804FB00C0004034C000406C
S21400435030C000400080004008B5FFF7A9FF07F016
S2140043604DFF07F0B7FE07F0BFFEFFF781FF07F02F
S21400437097FE00F059FC00BF08BD00BF704708B5A7
S21400438008F062F903F0AAF907F022FA0CF0E4FE4E
S21400439008F094F800BF08BD08B503F05FF903F015
S2140043A069F903F07FF903F090F90CF025FC00BFE3
S2140043B008BD08B500F00DF800BF08BD00BF704787
S2140043C008B503F073FE00BF08BD00BF704700BF0E
S2140043D0704708B5FFF70CFFFFF724FF00BF08BDC6
S2140043E000B583B000F01CF8094B0193094B00930D
S2140043F007E0019A131D0193009B191D0091126896
S2140044001A60009B044A9342F3D3FFF7B7FE00BF3F
S21400441078BD0200001000203C140020FEE70000DB
S214004420064B074A9A60054BD3F88830034A43F494
S2140044307003C2F8883000BF704700BF00ED00E090
S21400444000400000014B1B6818467047081000200B
S21400445082B00190024A019B136000BF02B0704711
S2140044600810002000B583B0002301930E4B1B6F8D
S21400447003F00703032B09D0032B0ED8012B09D01A
S214004480022B0AD1FFF7DEFF019007E0074B1B68FF
S214004490019303E0064B019300E0FEE7019B1846FC
S2140044A003B05DF804FB00BF008000400010002051
S2140044B0002D310100B583B0FFF7D4FF01900A4B01
S2140044C01B6F1B0B03F003030093009B0133019A41
S2140044D0B2FBF3F30193054A019B1360019B184658
S2140044E003B05DF804FB00BF008000400C10002005
S2140044F0014B1846704700BF00B4C404014B1B684C
S214004500184670470010002000B583B00190074A97
S214004510019B1360064B1B6F03F00703032B01D1AF
S214004520FFF7C8FF00BF03B05DF804FB00100020D3
S214004530008000400023184670470000014B1846D4
S214004540704700BF002D310182B0002301932C4B31
S2140045509B681B0C03F01F030C2B4CD801A252F8CF
S21400456023F000BF99450000F7450000F74500001E
S214004570F7450000F7450000F7450000D34500006A
S214004580D9450000DF450000F7450000E54500007E
S214004590EB450000F1450000194B9B6803F04073A3
S2140045A0B3F1007F0ED0B3F1007F0ED8002B03D0FE
S2140045B0B3F1807F03D008E0124B019308E0124B62
S2140045C0019305E0114B019302E00023019300BF25
S2140045D012E00F4B01930FE00E4B01930CE00E4BD5
S2140045E0019309E00D4B019306E00D4B019303E0A8
S2140045F00C4B019300E000BF019B184602B07047C9
S2140046000040014A00093D0080841E0040420F0021
S214004610405DC6000024F400C0EA210180BA8C0187
S2140046200048E801005A62024FF4004318467047FB
S2140046304FF47A7318467047014B1B68184670474C
S2140046400410002082B00190019BB3F5804F01D288
S214004650012300E00023184602B0704700B583B07F
S214004660019028231B681846FFF7ECFF034683F0EB
S2140046700103DBB2002B06D0019B00221A70019BBF
S21400468000229A6019E028231B681B680D4A934293
S2140046900DD1019B01221A7028231B689A68019B82
S2140046A05A6028231B689A69019B9A6005E0019B63
S2140046B000221A70019B00229A6000BF03B05DF8CA
S2140046C004FB00BF07B0CD5E82B00190019B0022C4
S2140046D01A6000BF02B0704782B001900091009B44
S2140046E0002B02D0019B002B00BF019B1A68009B89
S2140046F01A60019B009A1A6000BF02B0704784B02F
S21400470001900091019B0393009B002B06D0019B18
S214004710002B00BF02E0039B1B680393039B1B68F0
S214004720002BF8D1009B00221A60039B009A1A60A7
S21400473000BF04B0704784B00190019B1B680393D0
S214004740039B002B01D1002307E0039B1A68019B03
S2140047501A60039B00221A60039B184604B0704739
S21400476084B001900091009B002B02D0019B002B8F
S21400477000BF019B03930CE0039B1B68009A9A42C0
S21400478004D1009B1A68039B1A6006E0039B1B6813
S2140047900393039B1B68002BEED104B0704700B553
S2140047A089B001900091019B002B02D0009B002B4A
S2140047B000BF00238DF81F30019B06932AE0069B5E
S2140047C01B681B680593069B1A68009B0599104694
S2140047D0984703468DF813309DF8133083F0010395
S2140047E0DBB2002B13D0059B1B680393069B1A684D
S2140047F0059B1A60069B1B68039A1A60069B059A1F
S2140048001A60059B069301238DF81F3002E0069B75
S2140048101B680693069B1B68002B04D0069B1B6830
S2140048201B68002BCBD19DF81F30002BC1D100BFD9
S21400483000BF09B05DF804FB84B001900B4B1A680A
S214004840019B13440A4A934202D94FF0FF3309E012
S214004850064B1B680393054B1A68019B1344034AD7
S2140048601360039B184604B0704700BF101000206A
S2140048700000012000B585B001900091204B1B7808
S21400488083F00103DBB2002B01D01E4B34E0019B0A
S214004890002B01D11C4B2FE001F016FD02900023E7
S2140048A0039322E0194A039B1B0113440C331B7825
S2140048B083F00103DBB2002B14D0039A019B1A602D
S2140048C0124A039B1B0113440C3301221A700F4A31
S2140048D0039B1B01134400221A60029801F004FD9A
S2140048E0002309E0039B01330393039B072BD9DDC9
S2140048F0029801F0F9FC064B184605B05DF804FB7B
S214004900C8200020028000F0018000F0CC200020AB
S214004910048000F000B585B0194B1B680193002396
S2140049208DF8043001F0D0FC0290164B1B78002B5B
S21400493004D0029801F0D8FC134B1DE0114B012265
S2140049401A70029801F0D0FC0023039309E00F4A86
S214004950039B1B0113440C3300221A70039B013384
S2140049600393039B072BF2DD08238DF8073001AB7A
S214004970184601F065FE0023184605B05DF804FBF6
S214004980A88C0200C8200020038000F0CC20002065
S21400499000B587B00390029101920093174B1B78E5
S2140049A083F00103DBB2002B01D0154B21E0039B03
S2140049B0072B01DD134B1CE0039B1B01124A13441B
S2140049C00593059B1B7B83F00103DBB2002B01D014
S2140049D00E4B0EE0059B009A1A60059B089A5A60DB
S2140049E0059B00229A60019A0299039801F068FEDE
S2140049F00023184607B05DF804FB00BFC82000205F
S214004A00028000F0018000F0CC200020078000F03B
S214004A1000B583B00190124B1B7883F00103DBB224
S214004A20002B01D00F4B17E0019B072B01D90E4B33
S214004A3012E00E4A019B1B0113440C331B7883F0D3
S214004A400103DBB2002B01D0094B05E0019B0021DE
S214004A50184601F0DFFD0023184603B05DF804FB9E
S214004A60C8200020028000F0018000F0CC2000204A
S214004A70078000F000B583B00190124B1B7883F0DE
S214004A800103DBB2002B01D00F4B17E0019B072B75
S214004A9001D90E4B12E00E4A019B1B0113440C3346
S214004AA01B7883F00103DBB2002B01D0094B05E035
S214004AB0019B0121184601F0ADFD0023184603B006
S214004AC05DF804FBC8200020028000F0018000F0A2
S214004AD0CC200020078000F000B583B00190124B78
S214004AE01B7883F00103DBB2002B01D00F4B16E0DE
S214004AF0019B072B01D90E4B11E00E4A019B1B01AF
S214004B0013440C331B7883F00103DBB2002B01D077
S214004B10094B04E0019B184601F060FE002318468E
S214004B2003B05DF804FB00BFC8200020028000F040
S214004B30018000F0CC200020078000F000B587B090
S214004B40364B1B6D0393354B5B6D039A13400393F3
S214004B50039B002B00DAFEE7002305930123049352
S214004B6053E0039A049B1340002B48D02B4B03F5CD
S214004B7000531A46049B1365059B1B01284A1344E1
S214004B800293029B1B68002B39D0029B9B685A1C21
S214004B90029B9A60029B1B68029A9168029A52686E
S214004BA0059898470346002B14BF01230023DBB269
S214004BB083F00103DBB28DF807309DF8073003F071
S214004BC001038DF80730029B5B7B012B17D19DF804
S214004BD00730002B13D0134A059B5B01134403F1E7
S214004BE0080213796FF3410313710E4A059B5B01AC
S214004BF0134403F1180213796FF341031371059BF5
S214004C0001330593049B5B000493059B072BA8D9EF
S214004C1000BF00BF07B05DF804FB00BF0000044003
S214004C20CC2000204C21002008B5054B1B68054A07
S214004C301268114618461AF011FF0346184608BDBA
S214004C40141000203410002082B0074B9B68DBB2A3
S214004C500193019B0A3303F01F03012202FA03F3B8
S214004C60184602B0704700BF0080E00F84B00346CD
S214004C708DF807309DF90730B3F1FF3F04D0002BC5
S214004C8005D10023039305E0044B039302E0044B95
S214004C90039300BF039B184604B0704721E000F062
S214004CA024E000F086B001900091019B0493009BE5
S214004CB09B080393002305930CE0049B1B68B3F149
S214004CC0FF3F01D000230AE0049B04330493059BB6
S214004CD001330593059A039B9A42EED301231846A7
S214004CE006B0704700B583B00190009101F096FDC4
S214004CF00023184603B05DF804FB08B501F09CFDE0
S214004D0000BF08BD00B585B0019003AB184602F0A1
S214004D10ABF89DF80E309AB2019B1A80019B0122D7
S214004D20DA70019B00229A70FFF78EFF0246019B05
S214004D305A600023184605B05DF804FB82B00346AF
S214004D408DF8073000BF02B0704700B587B00390FB
S214004D5002910192039B0593029B0493059B03F02B
S214004D600303002B14D1049B03F00303002B0FD185
S214004D700AE0059A131D0593049B191D04911268F9
S214004D801A60019B013B0193019B002BF1D106E0C9
S214004D90019B9B001A460399029822F0C5FC00234B
S214004DA0184607B05DF804FB00B58BB0039002917F
S214004DB00192029B0893039B0793019B9B0006931B
S214004DC0069A0899079823F02FFF03468DF81730A8
S214004DD09DF917301846FFF749FF0990099B002BED
S214004DE009D1069A0899079822F08EFC0346002BF4
S214004DF001D0034B0993099B18460BB05DF804FBE2
S214004E0010E000F000B585B00190019823F004FF93
S214004E1003468DF80B309DF90B301846FFF726FF3A
S214004E200390039B002B0ED1FFF70EFF0346194697
S214004E300198FFF737FF034683F00103DBB2002B30
S214004E4001D0034B0393039B184605B05DF804FBA3
S214004E500EE000F008B501F021FA0346014A13609F
S214004E6000BF08BDE028002008B5034B1B681846A5
S214004E7001F020FA00BF08BDE028002000B583B08E
S214004E80019000910198019A009B1344013B009AFF
S214004E90194607F07FFB00BF03B05DF804FB08B5BA
S214004EA0FFF708FB0346184608BD000084B003461B
S214004EB08DF80730002303939DF80730013B0E2B37
S214004EC036D801A252F823F0054F0000134F000019
S214004ED0234F0000314F0000314F0000314F0000DB
S214004EE0314F0000314F0000314F0000314F0000BD
S214004EF0314F0000314F0000314F0000314F0000AD
S214004F00054F00000D4B1B6F1B0B03F003030393B1
S214004F100FE00A4BD3F890301B0E03F01F030393E9
S214004F2007E0064B1B6F9B0A03F00103039300E0A8
S214004F3000BF039B0133184604B070470080004052
S214004F4000B583B0034600918DF807309DF8073012
S214004F50013B0E2B65D801A252F823F0994F0000B2
S214004F60DB4F0000015000002350000023500000DB
S214004F702350000023500000235000002350000060
S214004F802350000023500000235000002350000050
S214004F9023500000994F0000009B012B04D0009B7B
S214004FA0022B01D0009B042B00BF01F09FF801F0FC
S214004FB03DF81E4B1B6F23F44052009B013B1B0326
S214004FC01A4913430B67FFF76AFF0346002118468A
S214004FD000F06CFD01F032F824E0009B002B02D0BC
S214004FE0009B202B00BF114BD3F8903023F0F852D3
S214004FF0009B013B1B060D491343C1F8903011E09E
S214005000009B012B01D0009B022B00BF074B1B6FA0
S21400501023F48062009B013B9B02044913430B6709
S21400502000E000BF00BF03B05DF804FB0080004056
S21400503010B584B003468DF80730002303939DF81F
S2140050400730252B00F2B88001A252F823F000BFEB
S214005050E9500000F3500000FD500000135100001E
S21400506029510000415100004D51000065510000DB
S214005070715100007D5100008951000095510000DB
S214005080A1510000AD510000B9510000F3500000DE
S21400509059510000B9510000B9510000715100008B
S2140050A0F350000013510000295100001351000076
S2140050B041510000F35000006551000013510000FC
S2140050C0AD5100004D5100004D5100004D51000003
S2140050D04D51000013510000135100001351000001
S2140050E07D51000089510000FFF7BCF90346039389
S2140050F063E0FFF7DFF9034603935EE0FFF7B2F9DC
S21400510004460220FFF7D2FE0346B4FBF3F30393F4
S21400511053E0FFF7CFF904460320FFF7C7FE034628
S214005120B4FBF3F3039348E0FFF7C4F90446032007
S214005130FFF7BCFE0346B4FBF3F35B0803933CE0C7
S21400514003AB0021184600F02DFF36E003AB00212C
S214005150184600F03DFD30E003AB0021184601F094
S2140051606FF82AE003AB0021184600F07FFD24E02C
S21400517003AB0021184600F0B9FD1EE003AB00218A
S214005180184600F0BDFF18E003AB0021184601F0FA
S21400519007F812E003AB0021184600F0D1FC0CE043
S2140051A003AB0021184600F095FC06E003AB002197
S2140051B0184600F05BFF00E000BF039B184604B0F3
S2140051C010BD00BF00B585B003468DF8073000233C
S2140051D08DF80F309DF80730252B00F2BC8001A219
S2140051E052F823F07D52000057530000575300003A
S2140051F05753000057530000CB520000D95200000E
S214005200F552000003530000115300001F53000026
S2140052102D5300003B530000495300005753000035
S21400522057530000E7520000575300005753000042
S2140052300353000057530000575300005753000015
S21400524057530000CB52000057530000F5520000A1
S2140052505753000049530000D9520000D9520000AD
S214005260D9520000D952000057530000575300008F
S21400527057530000115300001F530000394B1B6F9B
S21400528003F00703013B032B1AD801A252F823F0C0
S214005290B9520000A1520000A9520000B15200000D
S2140052A004238DF80F300FE003238DF80F300BE04A
S2140052B006238DF80F3007E002238DF80F3003E049
S2140052C000238DF80F3000BF46E00DF10F0319469E
S2140052D0002000F067FE3FE00DF10F0319460020A6
S2140052E000F076FC38E00DF10F031946002000F0C0
S2140052F0A7FF31E00DF10F031946002000F0B6FCC1
S2140053002AE00DF10F031946002000F0EFFC23E021
S2140053100DF10F031946002000F0F2FE1CE00DF11F
S2140053200F031946002000F03BFF15E00DF10F03B8
S2140053301946002000F004FC0EE00DF10F0319469C
S214005340002000F0C7FB07E00DF10F031946002010
S21400535000F08CFE00E000BF9DF80F30184605B048
S2140053605DF804FB0080004000B585B003460A46A1
S2140053708DF8073013468DF806300023039300237C
S2140053808DF80B309DF80730252B00F21E8201A207
S21400539052F823F02D540000CB570000CB570000E6
S2140053A0CB570000CB570000E15400002155000009
S2140053B0C5550000035600004156000099560000EF
S2140053C0015700005D5700008D570000CB570000C6
S2140053D0CB57000071550000CB570000CB5700009C
S2140053E003560000CB570000CB570000CB570000F9
S2140053F0CB570000E1540000CB570000C555000015
S214005400CB5700008D5700002155000021550000A5
S2140054102155000021550000CB570000CB57000057
S214005420CB57000041560000995600009DF8063004
S214005430023B042B28D801A252F823F08354000024
S2140054405754000051540000895400007D54000059
S2140054500223039319E003230393A54B9B6A03F0EF
S2140054600203002B14BF012300238DF80B30A04B42
S21400547003F580531A460123936206E00423039340
S21400548003E00123039300E000BF00F02FFE00F0CE
S214005490CDFD984B1B6F23F007029649039B1343E1
S2140054A00B67FFF7FCFC03460021184600F0FEFAE7
S2140054B000F0C4FD9DF80B3083F00103DBB2002B37
S2140054C00AD09DF80630032B08D1894B03F500530C
S2140054D01A460123936202E000BF77E100BF75E140
S2140054E09DF806300D2B06D00D2B0DDC022B08D0B8
S2140054F0052B03D008E00123039306E00223039361
S21400550003E00323039300E000BF7A4BD3F8803117
S21400551023F003027749039B1343C1F8803155E11A
S2140055209DF80630023B032B16D801A252F823F052
S2140055305355000047550000415500004D550000EA
S2140055400123039309E00223039306E00323039356
S21400555003E00423039300E000BF664BD3F820313A
S21400556023F007026349039B1343C1F820312DE162
S2140055709DF806300E2B09D00E2B21DC092B02DC01
S214005580072B03DA1CE00B2B0DD019E05A4B5B6A95
S214005590594A43F001035362584B1B68574A23F09D
S2140055A0040313600DE0544B5B6A534A23F0010377
S2140055B05362524B1B68514A43F00403136000E0E9
S2140055C000BF03E19DF80630092B0BD0092B0CDC3D
S2140055D0072B04D0082B08D10123039306E00223EF
S2140055E0039303E00323039300E000BF414BD3F88B
S2140055F0403123F003023F49039B1343C1F8403177
S214005600E4E09DF80630092B0BD0092B0CDC072BA9
S21400561004D0082B08D10123039306E0022303934A
S21400562003E00323039300E000BF324BD3F860315E
S21400563023F003022F49039B1343C1F86031C5E0F2
S2140056409DF80630073B052B1AD801A252F823F026
S2140056506F5600006956000075560000815600001F
S214005660815600007B5600000123039309E00223C5
S214005670039306E00323039303E00423039300E06D
S21400568000BF1C4BD3F8003223F007021949039BD6
S2140056901343C1F8003299E09DF80630073B052B0E
S2140056A01AD801A252F823F0C7560000C1560000CF
S2140056B0CD560000D9560000D9560000D35600003B
S2140056C00123039309E00223039306E003230393D5
S2140056D003E00423039300E000BF064BD3F8083230
S2140056E023F007020349039B1343C1F808326DE019
S2140056F000C000400080004000C0074010E000E00E
S2140057009DF80630013B062B1CD801A252F823F068
S2140057103F570000455700002D5700004557000032
S2140057204557000039570000335700000123039304
S21400573009E00223039306E00323039303E0002318
S214005740039300E000BF234BD3F8003123F003029D
S2140057502049039B1343C1F8003137E09DF806301B
S214005760052B04D00B2B05D10223039303E0032360
S214005770039300E000BF174BD3F8803023F00302FA
S2140057801449039B1343C1F880301FE09DF8063090
S214005790092B0BD0092B0CDC072B04D0082B08D1C7
S2140057A00123039306E00223039303E003230393FA
S2140057B000E000BF074BD3F8403223F00302054950
S2140057C0039B1343C1F8403200E000BF00BF05B0A2
S2140057D05DF804FB0080004000B589B00190019898
S2140057E000F00AFB0790079B002B03D0079BB3F142
S2140057F0FF3F00BF324B5B68012B0CD1304B03F5EB
S21400580000531A460123536000BF2D4B9B6903F0DB
S2140058100303002BF9D10020FFF7D4FC0346042B2A
S21400582003D100F063FC00F001FC079B23F04073FB
S2140058300793019B234A934204D0019B224A93423A
S21400584005D009E0079B43F00073079304E0079B2D
S21400585043F08073079300BF00BF1C4BDB6803F068
S2140058600603002BF9D1194B9B680693174A079B32
S2140058709360079B03F4F8130593144B9B6803F49B
S214005880F8130493059A049B9A4203D10198FEF7F5
S214005890DFFD02E00D4A069B93600020FFF792FCB6
S2140058A00346042B08D1FFF7FAFA03900021039869
S2140058B000F0FCF800F0C2FB00BF09B05DF804FB86
S2140058C000C0014040420F0080841E0000000140DE
S2140058D000B583B001900020FFF774FC0346032B4D
S2140058E000F0D1806A4B45F60E02C3F88020684B64
S2140058F003F580531A4602239362654B03F5005363
S2140059001A460123936200BF614B9B6D03F48033FC
S214005910002BF9D1019B1B781A06019B5B781B05AF
S2140059201A43019BDB781B041A43019B1B791B035C
S2140059301A43019B5B799B011343019A92791A43A0
S214005940534B1A61524B9B6903F00043019AD2797C
S21400595092061343019A127A12061343019A527A58
S21400596012041343019A927A12021343019AD27ACE
S2140059701146474A0B439361454B1B6A23F00D03C0
S214005980019A527B002A01D1002200E0082213432C
S214005990019A127B92001343019A527B11463C4AAD
S2140059A00B431362019B5B7B002B51D1384B9B6AE8
S2140059B023F03303019A927B52011343019AD27B60
S2140059C012011343324A43F00103936200BF304B87
S2140059D09A6D304B13402F4A9342F8D12C4B03F567
S2140059E080531A460223936200BF294B9B6D03F037
S2140059F08043002BF9D1264B1B6923F47003019AD0
S214005A00927812051146224A0B431361204B03F588
S214005A1080531A464FF000439361019B1B7C83F032
S214005A200103DBB2002B05D0194B03F500531A46D1
S214005A3002239362019B5B7C83F00103DBB2002BA5
S214005A4018D0134B03F500531A460123936211E056
S214005A500F4B9B6A23F03303019A927B5201134348
S214005A60019A127C52001343019A527C1146084A4E
S214005A700B439362019B9B7C002B05D0044B064A8C
S214005A80C3F8802000E000BF03B05DF804FB00BF51
S214005A9000C0004003000140F1A7FFFF024B93F94E
S214005AA000301846704700BF6829002000B583B054
S214005AB001900091009B002B04DD0121019800F06D
S214005AC055F903E00021019800F050F900BF03B03B
S214005AD05DF804FB00B585B00190009100230393A8
S214005AE0164BD3F8803003F00303022B02D0032BAF
S214005AF007D00DE0FEF7DEFC03900B238DF80B308D
S214005B000AE0FEF721FD039005238DF80B3003E035
S214005B1000238DF80B3000BF019B002B02D0019BA9
S214005B20039A1A60009B002B03D0009B9DF80B2065
S214005B301A7000BF05B05DF804FB00BF008000408F
S214005B4000B585B001900091002303931F4BD3F856
S214005B50003103F00303032B23D801A252F823F0ED
S214005B609B5B0000715B00007F5B00008D5B0000AC
S214005B70FEF7C4FC039003238DF80B3015E0FEF708
S214005B805BFD039007238DF80B300EE0FEF7D2FC8A
S214005B90039006238DF80B3007E001238DF80B30B9
S214005BA003E000238DF80B3000BF019B002B02D0D2
S214005BB0019B039A1A60009B002B03D0009B9DF864
S214005BC00B201A7000BF05B05DF804FB0080004093
S214005BD000B585B00190009100230393224BD3F8C3
S214005BE0203103F00703013B032B27D801A252F80C
S214005BF023F000BF055C0000135C0000215C000081
S214005C002F5C0000FEF71EFC039004238DF80B307B
S214005C1018E0FEF773FC039003238DF80B3011E0B9
S214005C20FEF792FC039005238DF80B300AE0FEF792
S214005C3085FC039002238DF80B3003E000238DF8DB
S214005C400B3000BF019B002B02D0019B039A1A6009
S214005C50009B002B03D0009B9DF80B201A7000BF02
S214005C6005B05DF804FB00BF0080004000B585B0BD
S214005C7001900091002303931B4BD3F8403103F0AF
S214005C800303032B14D0032B19D8012B02D0022BAD
S214005C9007D014E0FEF7C8FC039008238DF80B30FD
S214005CA011E0FEF7C9FC039007238DF80B300AE0DD
S214005CB0FEF7BEFC039009238DF80B3003E00023AB
S214005CC08DF80B3000BF019B002B02D0019B039A7E
S214005CD01A60009B002B03D0009B9DF80B201A70C7
S214005CE000BF05B05DF804FB0080004000B585B03D
S214005CF001900091002303931B4BD3F8603103F00F
S214005D000303032B14D0032B19D8012B02D0022B2C
S214005D1007D014E0FEF788FC039008238DF80B30BC
S214005D2011E0FEF789FC039007238DF80B300AE09C
S214005D30FEF77EFC039009238DF80B3003E000236A
S214005D408DF80B3000BF019B002B02D0019B039AFD
S214005D501A60009B002B03D0009B9DF80B201A7046
S214005D6000BF05B05DF804FB0080004084B00190E1
S214005D7000911D4BDB6903F48033B3F5803F0CBF05
S214005D80012300238DF80B30174B41F67132DA638E
S214005D90154B9B6823F440130393019B134A9342CD
S214005DA003D9039B43F4801303930F4A039B93602A
S214005DB00F4BD3F8183223F002030393019B0D4ACE
S214005DC0934203D9039B43F002030393084A039BC1
S214005DD0C2F818329DF80B30002B02D0024B00227E
S214005DE0DA6300BF04B0704700000340C0175302D8
S214005DF000C0074080F0FA0284B0019000230393AD
S214005E00019B594A934200F0A380019B564A934255
S214005E1000F2A380019B554A934200F09480019BB8
S214005E20524A934200F29980019B514A934200F0F5
S214005E308580019B4E4A934200F28F80019B4D4A1B
S214005E40934276D0019B4B4A934200F28680019B98
S214005E50494A934268D0019B474A93427DD8019BAA
S214005E60464A93425BD0019B444A934275D8019BB5
S214005E70434A93424ED0019B414A93426DD8019BC0
S214005E80404A934242D0019B3E4A934265D8019BCA
S214005E903D4A934236D0019B3B4A93425DD8019BD4
S214005EA03A4A93422AD0019B384A934255D8019BDE
S214005EB0374A93421ED0019B354A93424DD8019BE8
S214005EC0344A934212D0019B324A934245D8019BF2
S214005ED0314A93420AD0019B2F4A93423DD8019BF8
S214005EE0002B3CD0019B2D4A934236D12C4B9B6D08
S214005EF0039335E02A4B5B6E039331E0284B1B6F10
S214005F0003932DE0264B5B6F039329E0244B9B6F96
S214005F10039325E0224BD3F88030039320E0204BF8
S214005F20D3F8843003931BE01D4BD3F888300393DB
S214005F3016E01B4BD3F88C30039311E0184BD3F8C4
S214005F40903003930CE0164BD3F89430039307E09D
S214005F50134BD3F89830039302E000BF00E000BF75
S214005F60039B184604B0704700B4C4040090D003E6
S214005F70007E5603006CDC0280D543020048E80130
S214005F8080BA8C01C0EA21010024F400405DC600FE
S214005F90C0CF6A0000093D0080841E0040420F000A
S214005FA00080E00F00B585B00190009100230293B9
S214005FB01D4BD3F8803103F00303032B17D0032BBC
S214005FC01DD8012B02D0022B09D018E002AB00210D
S214005FD01846FFF7FDFD0D238DF80F3013E0FEF792
S214005FE0B3FA0346029305238DF80F300BE0FEF755
S214005FF0A5FA0346029302238DF80F3003E0002330
S2140060008DF80F3000BF019B002B02D0029A019B37
S2140060101A60009B002B03D0009B9DF80F201A707F
S21400602000BF05B05DF804FB0080004008B5022103
S2140060300320FEF785FF00BF08BD000000B583B053
S214006040022301930120FEF7F3FF0346064A93421C
S21400605001D80123019301990320FEF771FF00BFC9
S21400606003B05DF804FB00BF80F0FA0200B585B00F
S21400607001900091002303931B4BD3F8403203F0AA
S2140060800303032B14D0032B19D8012B02D0022BA9
S21400609007D014E0FEF7C8FA039008238DF80B30FB
S2140060A011E0FEF7C9FA039007238DF80B300AE0DB
S2140060B0FEF7BEFA039009238DF80B3003E00023A9
S2140060C08DF80B3000BF019B002B02D0019B039A7A
S2140060D01A60009B002B03D0009B9DF80B201A70C3
S2140060E000BF05B05DF804FB0080004008B5FEF771
S2140060F0FFF9034600211846FFF738FE00BF08BD2B
S21400610000B585B00190009100230393234BD3F88C
S214006110003203F00703013B032B29D801A252F8F3
S21400612023F000BF356100004361000051610000AC
S2140061305F610000FEF778FA039008238DF80B30B5
S2140061401AE0FEF779FA039007238DF80B3013E078
S214006150FEF76EFA039009238DF80B300CE0FEF77D
S214006160A9F903469B0A03930C238DF80B3003E032
S21400617000238DF80B3000BF019B002B02D0019B43
S214006180039A1A60009B002B03D0009B9DF80B20FF
S2140061901A7000BF05B05DF804FB00BF0080004029
S2140061A000B585B00190009100230393234BD3F8EC
S2140061B0083203F00703013B032B29D801A252F84B
S2140061C023F000BFD5610000E3610000F16100002C
S2140061D0FF610000FEF728FA039008238DF80B30C5
S2140061E01AE0FEF729FA039007238DF80B3013E028
S2140061F0FEF71EFA039009238DF80B300CE0FEF72D
S21400620059F903469B0A03930C238DF80B3003E0E1
S21400621000238DF80B3000BF019B002B02D0019BA2
S214006220039A1A60009B002B03D0009B9DF80B205E
S2140062301A7000BF05B05DF804FB00BF0080004088
S21400624000B585B00190009100230393124B1B68A4
S21400625003F00403002B07D0FEF72CF90346039344
S2140062600B238DF80B3006E00DF10B0203AB114645
S2140062701846FFF7FBFC019B002B02D0039A019BFC
S2140062801A60009B002B03D09DF80B20009B1A7011
S21400629000BF05B05DF804FB10E000E082B0EFF34D
S2140062A010830093009B019372B600BF019B1846B3
S2140062B002B0704782B00190019B002B01D162B6FC
S2140062C000BF00BF02B0704784B0EFF311830193A4
S2140062D0019B039330230293029B83F3118800BF34
S2140062E0039B184604B0704784B00190019B03934B
S2140062F0039B83F3118800BF00BF04B0704782B0D1
S21400630001904FF04023DB6E23F03003019A1279A0
S21400631011464FF040220B43D36600BF02B07047D1
S21400632000B587B0039002910192FFF7B7FF059082
S214006330039B1A68029BDB431A400199029B0B40A1
S2140063401A43039B1A600598FFF7B4FF00BF07B017
S2140063505DF804FB82B0034600918DF807309DF887
S2140063600730002B0AD09DF80730012B06D09DF889
S2140063700730022B02D09DF80730032B08489DF803
S21400638007200121009B994013465B0013441B0124
S214006390034403F500531033196000BF02B0704782
S2140063A000C0034082B0034600918DF807309DF888
S2140063B00730002B0AD09DF80730012B06D09DF839
S2140063C00730022B02D09DF80730032B08489DF8B3
S2140063D007200121009B994013465B0013441B01D4
S2140063E0034403F580531033196000BF02B07047B2
S2140063F000C0034000B585B00291019303468DF8B6
S2140064000F3013468DF80E309DF80F30002B0AD053
S2140064109DF80F30012B06D09DF80F30022B02D0CE
S2140064209DF80F30032B9DF80E30002B0FD0019BEC
S214006430002B06D09DF80F3002991846FFF7B2FFE2
S21400644005E09DF80F3002991846FFF783FF029B80
S214006450072B1AD89DF80F2013465B0013441B0128
S214006460043303F1804303F57033029A92000F2140
S21400647001FA02F09DF80E10029A920001FA02F25A
S21400648001461846FFF74CFF1BE09DF80F20134609
S2140064905B0013441B010C3303F1804303F5703398
S2140064A0029A083A92000F2101FA02F09DF80E10A7
S2140064B0029A083A920001FA02F201461846FFF7DD
S2140064C02FFF9DF80E30002B0FD1019B002B06D01E
S2140064D09DF80F3002991846FFF764FF05E09DF817
S2140064E00F3002991846FFF735FF00BF05B05DF87C
S2140064F004FB000082B003468DF807309DF9073094
S214006500002B0CDB9DF8073003F01F0205499DF9B0
S21400651007305B09012000FA02F241F8232000BF91
S21400652002B0704700E100E082B003468DF8073005
S2140065309DF90730002B0DDB9DF8073003F01F0296
S21400654006499DF907305B09012000FA02F2603324
S21400655041F8232000BF02B0704700BF00E100E012
S21400656082B0034600918DF807309DF90730002B66
S2140065700ADB009BDAB20C499DF907301201D2B251
S2140065800B4483F800230BE0009BDAB207499DF822
S214006590073003F00F03043B1201D2B20B441A7605
S2140065A000BF02B0704700BF00E100E000ED00E071
S2140065B086B0039002910192019B002B04D0039BAE
S2140065C003F58053059303E0039B03F500530593FF
S2140065D0059B0121029A01FA02F21A6000BF06B07A
S2140065E0704784B001900091019B03F5005303931C
S2140065F0039B009A1A6000BF04B0704782B003463F
S2140066000A468DF8073013468DF8063000BF02B0F4
S2140066107047000000B583B001900B468DF803303C
S21400662001999DF8033083F00103DBB21A46034854
S214006630FFF7BEFF00BF03B05DF804FB4000044058
S21400664000B585B0019001211920FFF7D7FF1B4B3D
S21400665001225A60019B1B781B060393174A039B73
S2140066609360019B5B781B04019A92781146134A4B
S2140066700B439361114BFF229A62104B00229A63E0
S2140066800E4B00221A640D4B4FF000425A650B4B1E
S21400669003F500531A464FF0FF3313651520FFF736
S2140066A043FF019BDB7819461520FFF759FF15209D
S2140066B0FFF720FF00BF05B05DF804FB00000440B4
S2140066C000B587B0039002910192039BDBB21A4695
S2140066D00123934005933E4B03F500531A46059B52
S2140066E013653C49029B1A68039B41F82320029BD2
S2140066F05B7B37491846039A13465B0013441B011D
S2140067000B4460331860029B9B7A1A04029BDB7A68
S2140067101B051A43029B1B7B5B0513432C4918463B
S214006720039A13465B0013441B010B445C3318604A
S214006730019B274823F00301039A13465B0013448A
S2140067401B01034470331960FFF7BEFD0490204B15
S2140067505A6D1F49059B13434B65029B1B7A002B02
S21400676005D01B4B1A6C1A49059B13430B64029BFE
S2140067705B7A002B05D0164B9A6B1549059B134385
S2140067808B63029B1B791B04029A92791343104A6F
S21400679003F0FF1302F500529361029B5B791B0422
S2140067A0029AD27913430A4A03F0FF1302F5805285
S2140067B0936105990848FFF714FF054A059B936403
S2140067C00498FFF791FD00BF07B05DF804FB00BF1B
S2140067D000000440004004403400044000B585B08A
S2140067E00190019BDBB21A46012393400393FFF707
S2140067F06BFD0290084B5A6D039BDB430649134022
S2140068004B65054A039B93620298FFF76DFD00BF38
S21400681005B05DF804FB00BF00000440054B41F6E0
S2140068207132DA63034B03F500531A460123D36033
S21400683000BF704700000340074B41F67132DA6331
S214006840054B03F500531A460123D360024B002282
S214006850DA6300BF704700BF0000034084B00190B9
S2140068600B468DF803309DF80330002B0BD10E4AF3
S214006870019B063352F823309AB247F6077313404B
S214006880ADF80E300AE0084A019B123352F8233066
S2140068909AB247F607731340ADF80E30BDF80E30C7
S2140068A0184604B0704700BF0080034084B00190D3
S2140068B000230393019B262B62D801A252F823F0F3
S2140068C05D6900006369000081690000816900005D
S2140068D0816900008169000081690000816900000B
S2140068E081690000816900008169000081690000FB
S2140068F081690000816900008169000081690000EB
S21400690081690000816900008169000081690000DA
S21400691081690000816900008169000081690000CA
S21400692081690000816900008169000081690000BA
S21400693081690000816900008169000081690000AA
S21400694081690000816900008169000069690000B2
S2140069506F690000756900007B69000000230393DF
S2140069600FE0032303930CE00123039309E00223C3
S214006970039306E00423039303E00523039300E058
S21400698000BF039B184604B0704700BF84B0019058
S2140069900091009B0393019B012B28D0019B002BA9
S2140069A03DD0019B233B032B39D8009B042B1CD8DE
S2140069B001A252F823F000BFCD690000D3690000A1
S2140069C0D9690000DF690000E5690000032303932E
S2140069D00CE00423039309E00023039306E001235D
S2140069E0039303E00223039300E000BF18E0009B3C
S2140069F0022B0FD0009B022B0FD8009B002B03D03E
S214006A00009B012B03D008E00023039306E001233C
S214006A10039303E00223039300E000BF00E000BFFF
S214006A20039B184604B0704700B585B003900291EA
S214006A300192029B9AB2019B9BB213439BB21A46E9
S214006A400021039800F036F800BF05B05DF804FB9F
S214006A5000B587B003468DF807304FF0FF33059337
S214006A609DF80730002B02D10C23049301E0042389
S214006A7004930023039313E0039B9DF8072011461D
S214006A801846FFF7EBFE0346ADF80A30BDF80A30AD
S214006A90002B02D1039B059306E0039B013303936F
S214006AA0039A049B9A42E7DB059B184607B05DF8FD
S214006AB004FB000000B585B001900B468DF803304E
S214006AC01346ADF80030BDF800301B0A03F07F0314
S214006AD00393BDF8003003F0070302939DF80330DC
S214006AE0002B0BD1039B1A02029B13430E4943F45F
S214006AF04022019B063341F8232011E002990398B7
S214006B00FFF744FF02900398FFF7D0FE0390039B25
S214006B101A020549029B1A43019B123341F82320AF
S214006B2000BF05B05DF804FB0080034084B0019010
S214006B300B468DF803301346ADF800300E4B03932A
S214006B40BDF800300293029B23F00303039A13441C
S214006B500393BDF80030002B0BD09DF80330002BBC
S214006B6003D1039B019A1A6003E0019B1A02039B60
S214006B701A6000BF04B07047008003404FF0402307
S214006B8003F580531A464FF40033136700BF70476F
S214006B904FF04023D3F894301846704700BF4FF0AC
S214006BA090435B68002B04D04FF090439B6A002B09
S214006BB0F5D100BF704708B5FFF7F0FF4FF09043E0
S214006BC00122DA6000BF08BD08B5FFF7E7FF4FF007
S214006BD090430222DA6000BF08BD000084B0019036
S214006BE00091009B1B781A46009B5B789B001A431B
S214006BF0009BDB785B011A43009B1B791B014FF05F
S214006C00904042EA0301019A13465B0013449B003E
S214006C10034430331960009B1B78012B09D1064BC7
S214006C200393009B9978019B9B00039A13440A46A2
S214006C301A6000BF04B07047D080034000B583B030
S214006C4003468DF807304FF090435B68002B06D163
S214006C509DF8073083F00103DBB2002B20D14FF004
S214006C6090435B68002B01D0FFF798FF9DF8073034
S214006C70002B09D04FF0904303F580531A460123AA
S214006C805360FFF798FF0CE0FFF79EFFFFF786FFC5
S214006C904FF0904303F500531A460123536000E07B
S214006CA000BF03B05DF804FB00B583B001904FF061
S214006CB090435B68002B01D0FFF770FF4FF09043C6
S214006CC003F500531A4601235360019B5B78002BA3
S214006CD001D0012200E00022019B9B78002B01D00E
S214006CE0022300E000231343019AD278002A01D041
S214006CF0042200E000221A43019B1B791B011A4361
S214006D00019B5B79DB004FF0904113438B604FF0A3
S214006D10904303F580531A4601235360019B1B786A
S214006D20002B01D0012300E002234FF09042D360F5
S214006D3000BF03B05DF804FB82B001904FF09842AC
S214006D40019B136000BF02B0704784B001900091B1
S214006D50019B5B68002B03D1019B009A5A600DE0F3
S214006D60019B5B68039302E0039B5B680393039BB2
S214006D705B68012BF8D1039B009A5A6000BF04B0F1
S214006D80704784B001900091019B9B68002B03D153
S214006D90019B009A9A600DE0019B9B68039302E0BA
S214006DA0039B5B680393039B5B68012BF8D1039BF3
S214006DB0009A5A6000BF04B0704782B001900091FC
S214006DC0019BDB69032B0DD8019BDB69019A02331B
S214006DD09B001344009A5A60019BDB695A1C019B76
S214006DE0DA6100E000BF02B0704700B585B00190E0
S214006DF0019BDB69042B32D800BF4FF098431B6C15
S214006E0003F48013002BF8D0019BDB6904334FF0AA
S214006E1098429B001365019B1B681846FFF78CFF82
S214006E20019B5B681846FFF787FF019B9B68184627
S214006E30FFF782FF002303930BE0019A039B0233C4
S214006E409B0013445B681846FFF776FF039B0133ED
S214006E500393019BDB69039A9A42EED300E000BFDE
S214006E6005B05DF804FB000084B001900C4B5B6934
S214006E700393039B9B09DBB203F03F03DAB2019B4B
S214006E809A70039BDBB203F03F03DAB2019B5A70A1
S214006E90039B1B0BDAB2019B1A7000BF04B070474D
S214006EA000C0074082B001900B468DF80330019B6E
S214006EB0124A934205D1124A9DF80330C2F8843133
S214006EC012E0019B0F4A934205D10D4A9DF803300C
S214006ED0C2F8943108E0019B0B4A934204D1084A59
S214006EE09DF80330C2F8A431019BDB6D43F08002AD
S214006EF0019BDA6500BF02B0704700BF0080054006
S214006F000080034000C005400000064000B587B082
S214006F100390029101928DF8033000230593029BA3
S214006F20002B03D10320FEF783F802909DF8033070
S214006F30602B13D0602B14DC402B0CD0402B10DCC5
S214006F40002B02D0202B03D00BE01023059309E082
S214006F500823059306E00623059303E00423059320
S214006F6000E000BF059B002B2AD0029B5A01059B20
S214006F70019901FB03F35B0813440493059B019AF4
S214006F8002FB03F3049AB2FBF3F30493049B203B47
S214006F900493049BDB000493049A0B4B1340049366
S214006FA0039B9B6823F06002039B9A60039B9A688E
S214006FB09DF803301A43039B9A60039B049ADA6198
S214006FC000BF07B05DF804FBF8FF7F0084B00190B7
S214006FD00B468DF80330019B164A934206D0019B60
S214006FE0154A934202D0019B144A934200BF019B6C
S214006FF003F580531A46012353609DF80330DB43A4
S2140070000393039B03F005030393039B5A00019B22
S2140070105A619DF80320019B5A619DF80330002BAE
S21400702005D1019B03F500531A460123536000BFA8
S21400703004B070470080054000C0054000000640D0
S21400704000B583B001900091019B5E4A934206D042
S214007050019B5D4A934202D0019B5C4A934200BF6B
S214007060019800F0B7F8019B03F580531A460123F8
S2140070705360009B9B7C002B05D0019B9B6843F0D4
S2140070808042019B9A60009BDB7C002B05D0009B16
S2140070901B7D19460198FFF705FF009B5B7B1A4690
S2140070A0009B1B8A1343009AD2891A43019BDA601D
S2140070B0009B5968009B9A68009B1B7B0198FFF712
S2140070C025FF009B5B7D002B05D0019B9B6843F44E
S2140070D08032019B9A60009B9B7D002B05D0019B14
S2140070E09B6843F40042019B9A60009BDB7D1B0774
S2140070F003F0E042009B1B7E1B0503F4E0031A43EB
S214007100019B9A65009B5B7E022B03D0009B5B7EF7
S214007110032B1CD12E4A019B2A498B420ED0019B81
S21400712029498B4208D0019B28498B4201D1022372
S21400713005E04FF0FF3302E0012300E000235B018F
S214007140134403F5AD530C3302221A601BE0204AA9
S214007150019B1C498B420ED0019B1B498B4208D0D9
S214007160019B1A498B4201D1022305E04FF0FF3301
S21400717002E0012300E000235B01134403F51653ED
S2140071802C3302221A60009B5B7E012B03D0009BEF
S2140071905B7E032B06D1019B03F580531A4604231E
S2140071A0D36505E0019B03F500531A460423D36517
S2140071B0009B1B781A46019B5A6100BF03B05DF81E
S2140071C004FB00BF0080054000C0054000000640EC
S2140071D000C0034082B00190019B2C4A934206D027
S2140071E0019B2B4A934202D0019B2A4A934200BF3E
S2140071F0019B03F580531A4601235360019B40F61A
S214007200AA625A61019B00229A60019B0022DA65FD
S214007210019B41F20502DA60019B00221A61019B84
S2140072200022DA61019B0022DA64019B03F5005319
S2140072301A46194B9364019B00229A65019B134AD8
S214007240934207D0019B124A934203D0019B114AF6
S214007250934202D1019B00221A65019B0B4A93427E
S21400726007D0019B0A4A934203D0019B094A9342E6
S21400727002D1019B00225A65019B03F500531A4672
S2140072800123536000BF02B0704700BF0080054076
S21400729000C0054000000640FFFF010030B583B087
S2140072A00190019819F058FB064A019B14461D46AA
S2140072B00FCD0FC495E80F0084E80F000023184692
S2140072C003B030BD6C2900208CB001900B468DF8C1
S2140072D003301346ADF8003000230A93BDF90030A2
S2140072E047F6FF72934201D1FF23DEE09DF803309C
S2140072F0032B01D90023D8E09DF80330DB006C4A4D
S21400730013440793079B9B780693079B1B78012BD8
S2140073102BD100230993079BDB781A46069BD31ACA
S2140073200A9317E00A9A099BD31A5B080A9AD31A9B
S2140073300393079B5A68039B5B001344B3F9003022
S214007340BDF900209A4203DA039B013B0A9301E051
S214007350039B0993099A0A9B9A42E3D30A9BDAB2E3
S214007360069BDBB21344DBB29FE0079B5B6805938A
S214007370059B002B01D1002397E0059BB3F9003055
S214007380BDF900209A4204DD059B1B88ADF800304D
S2140073900AE0059BB3F90230BDF900209A4203DAF1
S2140073A0059B5B88ADF80030C823ADF82230282353
S2140073B0ADF82030059B9B88FF2B0AD10A9B013332
S2140073C00A93059BDB88ADF82230059B9B68ADF8D9
S2140073D02030BDF92220BDF90030D21ABDF9203088
S2140073E092FBF3F31A460A9B13440A93079B5B78B7
S2140073F0013B0A9A9A4203D9079B5B78013B0A93A2
S2140074000A9BDB00059A134404330493049B5A68D2
S214007410049BB3F902301946BDF9003001FB03F3B3
S2140074201344002B02DA00230B930BE0049B5A68EC
S214007430049BB3F902301946BDF9003001FB03F393
S21400744013440B930B9B03F5FA731A4AA2FB032310
S2140074509B090B930A9B01330A93079B5B781A469A
S2140074600A9B934208D2059A0A9BDB0013449B882A
S2140074701A460B9B9342C3D90A9B013B059ADB0035
S21400748013449B881A460B9B934206D90A9B013BE2
S214007490059ADB0013449B880B930B9A069B9A4233
S2140074A001D2069B0B930B9BDBB218460CB07047C1
S2140074B06C290020D34D621088B001900B468DF8E1
S2140074C0033013468DF802309DF80330032B01D9A4
S2140074D0604BBBE09DF80330DB005F4A1344069325
S2140074E0069B1B78012B26D1069BDB789DF8022095
S2140074F09A4203D9069BDB788DF80230069B9B7870
S2140075009DF80220D31A8DF802309DF80220069BC3
S214007510DB781946069B9B78CB1A9A4202DD00233D
S2140075208DF80230069B5A689DF802305B001344C3
S214007530B3F900308AE0069B5B680593059B002B39
S21400754001D1444B82E0059B04330493049B002B3B
S21400755001D1404B7AE0069B9B789DF802209A4228
S21400756003D8059BB3F9023070E0069BDB789DF8E4
S21400757002209A4203D3059BB3F9003066E000234D
S2140075808DF81F30069B5B78013B8DF80F30049B0F
S2140075901B88FF2B14D101238DF81F3010E09DF8B7
S2140075A01F300133DB00049A13441A889DF802301A
S2140075B09BB29A420BD39DF81F3001338DF81F30D3
S2140075C09DF81F209DF80F309A42E8D300E000BFD8
S2140075D09DF802304FF47A7203FB02F29DF81F30DA
S2140075E0DB0004990B445B68D31A02939DF81F30A6
S2140075F0DB00049A1344B3F90230DA0F13445B102D
S2140076001BB21A46029B13449DF81F20D200049911
S2140076100A44B2F9022093FBF2F30293059BB3F9F6
S21400762000301A46029B934203DD059BB3F90030F7
S2140076300CE0059BB3F902301A46029B934203DA2C
S214007640059BB3F9023001E0029B1BB2184608B056
S214007650704700BF0080FFFF6C29002008B5044873
S214007660FFF71CFE012019F0B3F900BF08BD00BFEC
S2140076709C8D020000B587B001AB00221A605A60EC
S2140076809A60DA601A61064B029301AB19464FF016
S214007690FF3019F07DFA00BF07B05DF804FB00BFAD
S2140076A0006A180000B583B06B4600221A605A6064
S2140076B001238DF802306B4619464FF0FF3019F063
S2140076C015F900BF03B05DF804FB08B56FF00A01BA
S2140076D04FF0FF3019F061FA00BF08BD08B50A4840
S2140076E0FCF7F2FF0948FCF7EFFF0948FCF7ECFF50
S2140076F003F0BCFC074802F08FF902F037F804F0FC
S2140077007DF80023184608BD8C290020902900200B
S214007710942900209C29002000B583B001900846DB
S21400772011461A4603468DF803300B468DF8023094
S21400773013468DF801309DF801309DF802209DF823
S2140077400310019800F0F2FC0346184603B05DF8FB
S21400775004FB000000B587B003900B4601928DF83D
S2140077600B3000230593039B002B01D1222384E0DA
S214007770039801F0C4FE034683F00103DBB2002B3E
S21400778001D0022379E0039B1B680493049B002B23
S2140077901AD1039B1B79184600F04AFD0490049BFF
S2140077A0002B02D10223059309E0049B93F868306E
S2140077B0022B02D10223059301E01F2305930398B1
S2140077C001F0BEFE059B58E09DF80B300B2B4DD804
S2140077D001A252F823F000BF0978000013780000D9
S2140077E01D78000027780000317800003978000006
S2140077F04978000051780000437800005178000076
S2140078005978000063780000019A049BC3F8802032
S2140078102FE0049B019AC3F884202AE0019A049B77
S214007820C3F88C2025E0049B019AC3F8902020E042
S214007830019A049BDA671CE0019A049BC3F888202F
S21400784017E02123059314E0019A049B1A6710E0C1
S214007850049B019ADA660CE0019A049BC3F8942014
S21400786007E0049B019AC3F8982002E021230593C1
S21400787000BF039801F064FE059B184607B05DF84C
S21400788004FB00BF10B58CB00390FEF71DFD0A90F8
S214007890039B9B68012B04D90A98FEF725FD042359
S2140078A087E0039B00229A60039B1B680993099B51
S2140078B0002B1FD1039B1B79184600F0B9FC0990DA
S2140078C0099B002B02D100230B930EE0099B93F833
S2140078D06830022B04D0099B93F86830012B02D144
S2140078E000230B9301E01F230B930A98FEF7FCFC82
S2140078F00B9B5EE00A98FEF7F7FC099B1B7A18467E
S21400790004F00AF80B900B9B002B10D00A98FEF799
S214007910EBFC04234DE0099B9C331846FCF70BFF59
S2140079200690069B083B0593059803F025FE099BE9
S214007930D3F89C30002BEED10BE0099BA033184601
S214007940FCF7F9FE0890089B083B0793079803F09E
S21400795013FE099BD3F8A030002BEED1099B93F8B9
S2140079606830002B0AD0002B06DB033B022B03D823
S214007970099801F0E3FB02E001231AE000BF099B2F
S214007980022283F86820099B03F14C044FF47A70B6
S21400799004F0A6FF01460023019300230093099BF1
S2140079A0054A204604F0CDFE0B90039B00221A6089
S2140079B0002318460CB010BDC993000000B58BB06C
S2140079C00390029101920093002309931B230893CE
S2140079D0039B002B01D1222353E0039801F08FFD77
S2140079E0034683F00103DBB2002B01D0022348E0FC
S2140079F0039B1B680793079B002B12D1039B1B79E5
S214007A00184600F015FC0790079B002B02D01F239A
S214007A10089301E002230893039801F091FD089B68
S214007A202FE09DF8303003F00203002B03D0079BB5
S214007A30A033099302E0079B9C330993099B1B68BC
S214007A40002B0ED1079B93F86830002B04D00398C8
S214007A5001F076FD022314E0039801F071FD089B07
S214007A600FE00998FCF767FE0690069B083B059317
S214007A70019A0299059803F061FD039801F060FDF4
S214007A80002318460BB05DF804FB00B589B00590DE
S214007A90049111461A460B46ADF80E3013468DF883
S214007AA00D30059B002B01D1222333E0059801F011
S214007AB026FD034683F00103DBB2002B01D0022330
S214007AC028E0059B1B680693069B002B12D1059B9E
S214007AD01B79184600F0ACFB0690069B002B02D0E4
S214007AE01F23079301E002230793059801F028FD62
S214007AF0079B0FE09DF80D10BDF80E200A9B009323
S214007B000B460499069800F0CFFB0790059801F005
S214007B1017FD079B184609B05DF804FB00B585B055
S214007B200190019B1B680293029B002B12D1019BC4
S214007B301B79184600F07CFB0290029B002B03D1B9
S214007B4006238DF80F300AE0029B93F868308DF814
S214007B500F3004E0029B93F868308DF80F309DF8E4
S214007B600F30184605B05DF804FB00B585B0034637
S214007B708DF807309DF80730184600F059FB039043
S214007B80039B002B23D0039B93F86830022B0CD169
S214007B90039B4C33184604F0F5FD039B012283F843
S214007BA06820039801F07CFA12E0039B93F8683093
S214007BB0002B0DD1039B032283F86820039B3033F0
S214007BC0184604F0DFFD039801F05DFC00E000BFFE
S214007BD005B05DF804FB00002DE9F04FA7B01D903E
S214007BE04FF000024FF00003CDE922234FF00002D1
S214007BF04FF00003CDE924234FF000024FF00003BE
S214007C00CDE9202304231F9304F032FE1D9BD3E905
S214007C100623841A61EB0305CDE922458F4B1B78BA
S214007C20002B15D01D99DDE92223C1E90823DDE9E3
S214007C3022234FF000004FF00001500840EAC370C6
S214007C4059081D9BC3E90A01844A002313707DE08E
S214007C501D9BD3E9082310461946DDE92223B0EB25
S214007C60020861EB030942464B46002B07DA002167
S214007C705042109061EB03031193DDE91023CDE928
S214007C8020231D9BD3E90A234FF000004FF000018C
S214007C90900840EA8370990802460B46941812949E
S214007CA05B411393DDE91223161843EB0107DDE968
S214007CB02023002B06DAD11C149143F10003159300
S214007CC0DDE914234FF000004FF00001900840EA71
S214007CD08370991002460B46B118029147EB0303D6
S214007CE003931D9BDDE90212C3E90A121D9BD3E92B
S214007CF008234FF000044FF00005D40844EA43740C
S214007D00DD0822462B464FF000004FF00001D90058
S214007D1041EA5271D00002460B46B2EB040A63EB0E
S214007D20050BDDE922234FF000004FF00001D008DC
S214007D3040EA4370D9081AEB000304934BEB0103A7
S214007D4005931D9BDDE90412C3E908121D9BD3E9C8
S214007D500A45322004F0C4FD03460022069307922B
S214007D60DDE906120B469C42134675EB03030BD265
S214007D70322004F0B5FD03460022089309921D9BAD
S214007D80DDE90812C3E90A121D9BD3E908451F9BCB
S214007D90DA170A930B921D9BD3E90A23DDE90A67DB
S214007DA0394602FB01F0314601FB03F1014430463F
S214007DB0A0FB0223019313460093019BCB1801936B
S214007DC0DDE900120B46E3181693134645EB030352
S214007DD01793DDE91634CDE9243441F2883004F0F7
S214007DE07FFD034600220C930D92DDE92423DDE996
S214007DF00C4521469142294671EB03030CD241F211
S214007E00883004F06DFD0346002218931992DDE9D0
S214007E101834CDE924341AE0FA2004F061FD034654
S214007E2000220E930F92DDE92423DDE90E4521465C
S214007E308A4229468B410AD2FA2004F051FD0346B5
S214007E4000221A931B92DDE91A34CDE92434249AD1
S214007E501D9B1A6100BF27B0BDE8F08F38100020C8
S214007E6082B003468DF807309DF80730002B05D109
S214007E70044B1B780133DAB2024B1A7000BF02B013
S214007E80704700BF9829002010B590B003900023DB
S214007E900E9300238DF83F30039B1B68184602F0B4
S214007EA085FF03468DF837309DF83730184602F0C8
S214007EB0C1FF03468DF83630FEF706FA0C90039B9A
S214007EC01B690B930B9B002B07D09DF83630002BBD
S214007ED03DD09DF83630032B39D09DF83630002B38
S214007EE003D09DF83630032B2DD1039B9B69059359
S214007EF09DF83630002B0ED1059B5B68002B0AD010
S214007F00059B5C68059B1878039B5968059BDA6897
S214007F103323A04711E09DF83630032B0DD1059B87
S214007F205B68002B09D0059B9C68059B1878039B13
S214007F305968059BDA683323A047039B00225A60E2
S214007F40059803F0C5FB039803F01AFA8FE09DF836
S214007F503630002B15D1039803F012FA0346042B93
S214007F6040F085800B9B03F130000B9B19690023C2
S214007F70019300230093039B474A04F0E2FB0E9014
S214007F8075E09DF83630032B71D10B9BD3F8883003
S214007F90002B0AD00B9BD3F888400B9B187A039BC8
S214007FA05968039B9A690023A047039B00225A60E6
S214007FB0039803F0E5F90B9B5B7B0133DAB20B9B6E
S214007FC05A730B9BD3F8A830002B48D03DE00B9B90
S214007FD0A8331846FCF7AFFB0A900A9B0993099B47
S214007FE0002B05D0099B5B689A7B013AD2B29A7344
S214007FF00A9B0893089B0793079B5B681B7B1846A6
S21400800002F018FF03468DF81B309DF81B30032B3B
S21400801003D00B9B9B7B002B0DD1079B5B681A46FE
S21400802008991E4803F062FB0B9B5B7B013BDAB2B0
S2140080300B9B5A7309E00B9B03F1A800079B5B6838
S2140080401A46089903F065FB11E00B9BD3F8A8309D
S214008050002B0CD00B9B5B7B002BB8D107E00B9B57
S21400806093F86830012B02D101238DF83F300B4B7B
S2140080701B68002B02D00120FFF7F2FE9DF83F3070
S214008080002B02D00B9801F00BF80C98FEF72CF999
S21400809000BF10B010BD00BF01940000942900205E
S2140080A008B50020FFF7DCFE00BF08BD00B585B0B0
S2140080B01C4B1B788DF80F309DF80F308DF80E3066
S2140080C006E000F0D9F99DF80F30013B8DF80F302F
S2140080D09DF80F30002BF4D1FEF7F6F80290114B06
S2140080E01A789DF80E30D31ADAB20E4B1A70029830
S2140080F0FEF7FAF800E000BF05E000F0F9FE019098
S214008100019B002B04D1084B1B68002BF5D100E027
S21400811000BF00F099FF01F0B7FA00BF05B05DF8A8
S21400812004FB00BF982900209429002010B584B0D5
S2140081300190084611461A4603468DF803300B4652
S2140081408DF8023013468DF801309DF8033018463E
S21400815000F06EF803460293029B002B08D0029BA9
S21400816093F86830002B01D12E2359E0042357E002
S21400817002AB184603F060FA0390039B002B01D075
S214008180039B4DE0029B9DF802205A72029B9DF8CD
S21400819003201A72029B00229A72029B0022DA7255
S2140081A0029B9DF801201A73029A029B127B5A7357
S2140081B0029B00229A73029B002283F86820029B8F
S2140081C000221A60029CFA2004F08AFB0346236110
S2140081D0029B9C331846FCF777FA029BA03318469E
S2140081E0FCF772FA029BA4331846FCF76DFA029B62
S2140081F0A8331846FCF768FA029B19460A48FCF7AB
S2140082006BFA0A490848FCF7CAFA019B9DF8032056
S2140082101A71019B01229A60029A019B1A60002340
S214008220184604B010BD00BF8C29002081820000D3
S21400823000B585B003468DF80730FEF745F8029086
S2140082400E4B1B6803930DE0039B1B7A9DF80720DB
S2140082509A4204D10298FEF747F8039B09E0039B75
S2140082601B680393039B002BEED10298FEF73CF8A5
S2140082700023184605B05DF804FB00BF8C290020DB
S21400828084B001900091019B0393009B0293039B93
S2140082901A7A029B1B7A9A4201D2012300E000233D
S2140082A0184604B07047000010B58AB003900291DB
S2140082B011461A460B46ADF8063013468DF80530C3
S2140082C09DF8053003F00803002B14BF012300239C
S2140082D08DF8253001238DF8273000238DF82630C1
S2140082E09DF8053003F00203002B05D19DF80530FC
S2140082F003F00403002B1ED0039B5B7A03F00203FB
S214008300002B01D12123B1E000238DF827309DF802
S214008310053003F00203002B03D000238DF826302F
S21400832011E09DF8053003F00403002B0BD0042366
S2140083308DF8263007E0039B5B7A03F00103002BE1
S21400834002D0212392E000BF039B93F86830002BF5
S21400835001D002238AE005AB184602F015FF08900C
S214008360089B002B01D0089B80E0059B029A5A6070
S214008370059BBDF806201A81059B039A1A61059B8A
S214008380039A127A5A73059B0C9A9A6104AB1846A4
S21400839003F022F90890089B002B05D0059B184691
S2140083A002F0EEFF089B61E0049B059A5A609DF878
S2140083B02730002B19D0039B987A039BDB7A059C09
S2140083C09DF82520194602F082FD03462373039B81
S2140083D09B7A0133DAB2039B9A72039B9B7A03F073
S2140083E00703DAB2039B9A7207E0059C9DF82630D5
S2140083F0184602F0B9FD03462373BDF80630194649
S214008400029801F0AFF80346ADF81E30059BBDF8A4
S2140084101E20D2B29A72BDF81E301B0A9AB2059B75
S214008420D2B2DA72039B5B7B002B16D0039B5B7B7E
S214008430013BDAB2039B5A73FDF746FF0690049B96
S2140084401946059B1A460B4803F050F90698FDF7A7
S2140084504BFF0120FFF704FD07E0039BA833049AB7
S2140084601146059A184603F041F9002318460AB04B
S21400847010BD00BF9429002000B589B00DF10A0296
S21400848003AB1146184601F0DBFA0346002B40F01A
S214008490E180724B5B7883F00103DBB2002B1AD0CD
S2140084A0039B1B68184602F089FC0346ADF81E3095
S2140084B0039B1B68BDF81E200521184601F07EF8B8
S2140084C0034683F00103DBB2002B04D0039B18465F
S2140084D002F056FFBFE0039B1B68184602F044FC00
S2140084E003468DF81D30039B1B68184602F05EFCA1
S2140084F003468DF81C30039B1B68184602F03CFCB4
S2140085000346ADF81A309DF81C30184602F0ABFC56
S21400851003468DF819309DF81C30184602F0B1FC61
S21400852003468DF818309DF81C30184602F082FC81
S21400853003468DF81730BDF80A30BDF81A209A4267
S21400854004D2039BBDF81A201A8103E0039BBDF8F2
S2140085500A201A819DF81D301846FFF769FE049020
S214008560049B002B66D09DF81730002B03D09DF897
S2140085701730022B09D1039B1B7D002B05D19DF8DC
S21400858018301946049800F06BF8039B1B7D002BEF
S21400859010D0049BDA7A039B1B7D9DF81D1004986F
S2140085A000F04AFC039B00221A75039B184602F053
S2140085B0E7FE36E09DF81730002B0CD103999DF8A6
S2140085C01C009DF81D209DF8193000930346049862
S2140085D000F05AF925E09DF81730022B08D10399D0
S2140085E0BDF81A309DF81C20049800F059FA18E0DF
S2140085F09DF81730032B08D10399BDF81A309DF863
S2140086001C20049800F0F2FA0BE0049BDA7A9DF83E
S2140086101D100623049800F00FFC039B184602F07A
S214008620AFFE049B93F86830012B14D1049800F039
S2140086304FFD10E09DF81730022B06D09DF81D1058
S21400864005230022002000F0F7FB039B184602F0EB
S21400865097FE00E000BF09B05DF804FB9C290020EF
S21400866010B58CB001900B468DF8033000238DF8C2
S2140086702F30FDF729FE0A90019BD3F8A430002B7B
S21400868003D10A98FDF730FEFAE0019BD3F8A43038
S2140086900993099B5B680893089B1B68184602F0C1
S2140086A085FB03468DF81F309DF81F30184602F0F4
S2140086B0DAFB03468DF81E309DF81E3001338DF828
S2140086C01D309DF81D3003F007038DF81D30019B0B
S2140086D09A7B9DF81E3013448DF81C309DF81C3094
S2140086E003F007038DF81C309DF81C209DF81D3004
S2140086F09A420FD39DF803209DF81D309A4205D369
S2140087009DF803209DF81C309A4213D90A98FDF76D
S214008710EBFDB5E09DF803209DF81C309A4209D980
S2140087209DF803209DF81D309A4203D20A98FDF763
S214008730DBFDA5E09DF803209DF81E309A4207D980
S2140087409DF803209DF81E30D31A8DF82F300CE0CC
S2140087509DF81E30C3F108038DF82F309DF82F20AA
S2140087609DF8033013448DF82F30019B0022DA73F6
S2140087700198FFF731FA019B3033184604F002F8EF
S21400878000238DF82E303FE0019BA4331846FBF7FC
S214008790D2FF0390039B0293029B002B05D0029B03
S2140087A05B689A7B013AD2B29A73039B0493049B4C
S2140087B00993099B5B680893019BDB6F002B09D02C
S2140087C0019BDC6F019B187A089B5968089B9A6985
S2140087D00023A047089B00225A60089802F0D0FDAC
S2140087E0099802F015FF019B9B7B013BDAB2019BC7
S2140087F09A73019B5B7B0133DAB2019B5A739DF837
S2140088002E3001338DF82E309DF82E209DF82F3017
S2140088109A42B9D30A98FDF767FD28E0FDF754FDA4
S2140088200A90019BA8331846FBF785FF0690069B27
S2140088300593059B002B05D0059B5B689A7B013A48
S214008840D2B29A73069B0493049B0993099B5B68B8
S2140088500893089A04990B4802F048FF019B5B7B3B
S214008860013BDAB2019B5A730A98FDF73DFD019B66
S214008870D3F8A830002B03D0019B5B7B002BCDD117
S2140088800CB010BD9429002030B58FB0079006912B
S21400889011461A460B468DF8173013468DF81630DB
S2140088A000230B9300230A9300230993079B93F856
S2140088B06830022B0AD19DF817100523002207986E
S2140088C000F0BAFA069802F05BFDE6E0069B1B682D
S2140088D0184602F051FA0346023BADF83630069BC6
S2140088E05B68BDF836201146184602F081FA03464A
S2140088F0ADF83430069B5B68BDF83420BDF8361002
S214008900184600F05BFE034683F00103DBB2002B43
S2140089100BD0079BDA7A9DF817100123079800F012
S2140089208BFA069802F02CFDB7E0079B5B7A03F003
S2140089300103002B0BD0079BDA7A9DF8171006234D
S214008940079800F079FA069802F01AFDA5E0079B52
S214008950DB7A9DF848209A4240F081809DF81630D8
S214008960184602F014FB0346002B31D0079B1B7AF7
S214008970002B0BD0079BDA7A9DF817100623079872
S21400898000F05AFA069802F0FBFC86E0079B1B6F85
S214008990002B11D0079B1C6F079B187A079BD96E7C
S2140089A0069B5A68BDF8365009AB02930BAB019391
S2140089B00AAB00932B46A047069B5B68184602F05E
S2140089C077FD069B00225A60069802F0D9FC16E056
S2140089D0079B9C33BDF836201946069802F026FD04
S2140089E00346002B0BD0079BDA7A9DF8171003235B
S2140089F0079800F021FA069802F0C2FC4DE0079BAB
S214008A00D3F88030002B09D0079BD3F88030079A24
S214008A10107A079AD2F8842011469847079BDB7A8B
S214008A200133DAB2079BDA72079BDB7A03F007039F
S214008A30DAB2079BDA72079800F074F90A9B002BEB
S214008A402BD00B9B002B28D00A990B9B9AB2099B24
S214008A50009308230798FFF727FC0C901DE0079B60
S214008A60DA7A9DF848301146184600F022FD034693
S214008A70002B06D0079800F055F9069802F080FC07
S214008A800BE0079BDA7A9DF817100223079800F090
S214008A90D3F9069802F074FC00BF0FB030BD00009A
S214008AA000B587B00390029111461A460B468DF822
S214008AB007301346ADF8043000238DF81730002336
S214008AC08DF81630039B93F868308DF815309DF8B6
S214008AD00730184602F0E1F903468DF814309DF889
S214008AE01430002B51D0012B00D04FE0029B5B6866
S214008AF01B78013B042B3AD801A252F823F000BFA2
S214008B00238B0000158B0000358B0000478B000080
S214008B105B8B000001238DF8173005238DF8153088
S214008B2032E0039BD3F8A430002B2AD0039800F041
S214008B3033F926E0039BD3F8A430002B23D0039808
S214008B4000F02AF91FE001238DF8173004238DF872
S214008B50153001238DF8163016E001238DF81730F6
S214008B6003238DF8153001238DF816300CE0012311
S214008B708DF8173005238DF8153001238DF8163043
S214008B8002E000BF02E000BF00E000BF029802F073
S214008B90F7FB9DF81730002B16D0039B93F8683030
S214008BA0022B11D0039B3033184603F0EBFD039BDA
S214008BB09DF8152083F868209DF81630002B10D0FD
S214008BC0039800F060FC0CE09DF81730002B08D0EE
S214008BD0039B93F86830022B03D1039800F0AEFA9B
S214008BE0FFE700BF07B05DF804FB00BF00B587B025
S214008BF00390029111461A460B468DF8073013462D
S214008C00ADF804300023ADF81630BDF80430022B62
S214008C1004D9BDF80430023BADF81630BDF8163066
S214008C20002B0AD0029B5B68BDF81620114618463A
S214008C3002F0DEF80346ADF814309DF8073018460B
S214008C4002F039F903468DF81330BDF81630002BC4
S214008C5012D0029B5B68BDF81420BDF816101846AB
S214008C6000F0ACFC034683F00103DBB2002B03D01C
S214008C70029802F085FB51E0039B5B7A03F0020347
S214008C80002B03D1029802F07BFB47E09DF81330DF
S214008C90002B24D1039B5B7A03F00403002B1ED128
S214008CA0039BA033BDF816201946029802F0BEFBBF
S214008CB00346002B03D0029802F062FB2EE0039BD3
S214008CC0D3F88C30002B29D0039BD3F88C30039A32
S214008CD0107A039AD2F89020114698471EE09DF825
S214008CE01330042B03D1029802F04AFB16E09DF8DD
S214008CF01330312B0ED1039B1B7A002B03D0029826
S214008D0002F03EFB0AE0039B00229A72039B0022BD
S214008D10DA7203E0029802F033FB00BF07B05DF89A
S214008D2004FB000010B586B0019003AB184602F0B5
S214008D302BFA0590039B019A1A61039B019A127AFB
S214008D405A73019BDB7A039C0021184602F0EBF86D
S214008D500346237302AB184602F03EFC0590029BC6
S214008D60039A5A60FDF7B0FA0490029B1946029BDC
S214008D705B681A46044802F0B9FC0498FDF7B4FA9A
S214008D800023184606B010BD9429002082B001903A
S214008D9000BF02B07047000000B589B00190FDF733
S214008DA093FA0790019BA4331846FBF7C4FC069081
S214008DB0069B0593059B002B05D0059B5B689A7B5D
S214008DC0013AD2B29A73069B04930798FDF78CFA81
S214008DD0049B002B01D10E2327E0049B03930398EA
S214008DE0FFF7D4FF039B5B681B68184602F076FB10
S214008DF0FDF76AFA02900399039B5B681A460D48D2
S214008E0002F087FC0298FDF76FFA019BDB7B0133CB
S214008E10DAB2019BDA73019B9B7B013BDAB2019BC2
S214008E209A730120FFF71CF80023184609B05DF876
S214008E3004FB00BF9429002010B588B001900846B6
S214008E4011461A4603468DF803300B468DF802305D
S214008E5013468DF8013004AB184602F0F1F907907E
S214008E60079B002B3FD1049B019A1A61049B9DF837
S214008E7003205A73049C9DF802300121184602F024
S214008E8052F803462373049B5B689DF801201A7012
S214008E90049B5B680121184600F064FB0346ADF8AE
S214008EA01A30049BBDF81A20D2B29A72BDF81A3056
S214008EB01B0A9AB2049BD2B2DA7203AB184602F0CF
S214008EC08BFB0790039B049A5A60FDF7FDF905900B
S214008ED0039B1946049B1A46044802F007FC0598B3
S214008EE0FDF702FA00E000BF08B010BD942900208C
S214008EF010B58CB000F040FE034683F00103DBB2F1
S214008F00002B01D034239AE04E4B1B680B930B9B2F
S214008F10002B01D11B2392E0FDF7D6F90A904948B1
S214008F20FBF709FC0990099B0893089B002B05D0CA
S214008F30089B5B689A7B013AD2B29A73099B0793A7
S214008F400A98FDF7D1F9079B0693069B5B68059385
S214008F50059B184602F058F90490059B1B89002BC8
S214008F6004D0059B1B8902339BB200E00023ADF8BA
S214008F700E30059B1B7B184601F05CFF03468DF800
S214008F800D309DF80D30002B09D1059B03F10C0226
S214008F90059B1B69DB7A1946104602F008F8059B0C
S214008FA01868059B597B059B1B7BBDF80E2001248A
S214008FB0009402F013F8059B1B891946059800F0EB
S214008FC0A1FD0490049B002B15D0FDF77DF90290BF
S214008FD0069B059A19461B4802F09BFB0298FDF774
S214008FE083F9059B1B68184602F078FA059B002259
S214008FF01A60049B23E09DF80D30002B1BD1059BC7
S2140090001B69A4330699059A184602F06FFB059B68
S2140090101B699A7B0132D2B29A73059B1B69DB7B74
S214009020002B0BD1059B1C6903F022FC02460B4665
S214009030C4E9062302E0069802F0EAFA002318467E
S2140090400CB010BD9429002000B587B0134B1B68E8
S214009050002B1FD0FDF738F904901048FBF76BFB88
S21400906005900498FDF740F9059B043B039303988D
S21400907000F02EF803468DF80B30FDF725F9019029
S2140090800648FBF758FB05900198FDF72DF9059B60
S214009090002BE9D100BF07B05DF804FB9029002043
S2140090A000B585B00190FDF70FF90390019B0433DE
S2140090B019460648FBF710FB0398FDF715F9022042
S2140090C0FEF7CEFE00BF05B05DF804FB9029002039
S2140090D000B585B0019000238DF80F3000238DF881
S2140090E00E30019B5A7B019B1B7B9A4202D00123C8
S2140090F08DF80F309DF80F3083F00103DBB2002BA4
S21400910013D0019B3033184603F03CFB019B06222C
S21400911083F86820019B19460748FBF721FB019856
S21400912002F0ACFA01238DF80E309DF80E3018468A
S21400913005B05DF804FB00BF8C29002010B58EB08A
S2140091400190019B3033184603F01CFB019B002264
S214009150DA73FDF7B9F80C907E4B1B680D935EE052
S2140091600D9B06930D9B1B680D93069B5B681B6906
S214009170019A9A4253D1069B5B681B7B184601F006
S21400918059FE03468DF823309DF82330002B10D16E
S214009190019BDB6F002B0CD0019BDC6F019B187AC8
S2140091A0069B5B685968069B5B689A693323A047F1
S2140091B015E09DF82330032B11D1019BD3F888309E
S2140091C0002B0CD0019BD3F88840019B187A069B95
S2140091D05B685968069B5B689A693323A047069BC1
S2140091E00793079B5B689A7B013AD2B29A73079BF8
S2140091F019465848FBF7B4FA069B5B6800225A608B
S214009200069B5B68184602F0BBF8069B184602F001
S214009210FFF9019B5B7B0133DAB2019B5A730D9B0E
S214009220002B9DD10C98FDF75FF8019BD3F8A83072
S2140092300D9354E00D9B0593059B5B681B7B1846BE
S21400924001F0F8FD03468DF82B300D9B1B680D933F
S2140092509DF82B30002B10D1019BDB6F002B0CD020
S214009260019BDC6F019B187A059B5B685968059B20
S2140092705B689A693323A04715E09DF82B30032BD3
S21400928011D1019BD3F88830002B0CD0019BD3F86A
S2140092908840019B187A059B5B685968059B5B684C
S2140092A09A693323A047059B0993099B5B689A7BC1
S2140092B0013AD2B29A73019BA833099A114618460E
S2140092C0FBF74EFA059B5B6800225A60059B5B68BD
S2140092D0184602F055F8059B184602F099F90D9BC2
S2140092E0002BA7D1019BD3F8A4300D9362E00D9B11
S2140092F004930D9B1B680D93049B0B930B9B5B6861
S2140093009A7B013AD2B29A73019BA4330B9A114608
S2140093101846FBF725FA049B5B689B7B002B1BD14A
S214009320019BDB6F002B0BD0019BDC6F019B187A37
S214009330049B5B685968049B5B689A693323A04763
S214009340049B5B6800225A60049B5B68184602F028
S21400935017F825E09429002003AB184602F09CF984
S214009360FCF7B2FF0C90039B019A127A1A70039BCB
S214009370019AD26F5A60039B019AD2F888209A60AD
S214009380049B5A68039B9269DA60049B5B68002220
S2140093901A61049B5B68039A9A610C98FCF7A4FF19
S2140093A0049B184602F034F9019B9B7B013BDAB222
S2140093B0019B9A730D9B002B99D1019B1A7B019BF5
S2140093C05A7300BF0EB010BD00B585B00190009175
S2140093D0009B0393FCF778FF0290039B93F868309A
S2140093E0022B06D1039B012283F868200398FFF71F
S2140093F057FE0298FCF778FF00BF05B05DF804FB47
S21400940010B584B001900091009B0393FCF75CFFBD
S2140094100290039B1B69DB7B042B10D9039B1B6903
S214009420032283F86820039B1B693033184603F039
S214009430A9F9039B1B69184600F025F81DE0039B5D
S2140094401B691A69039B1B6952001A61039B1B69FF
S2140094501C6941F2883003F043FA03469C4207D960
S214009460039B1C6941F2883003F03AFA03462361F5
S214009470039B1B691846FFF78FFC0298FCF734FF26
S21400948000BF04B010BD00B583B00190019BD3F8B7
S2140094909430002B09D0019BD3F89430019A107AAF
S2140094A0019AD2F898201146984700BF03B05DF89D
S2140094B004FB84B003460A468DF8073013468DF841
S2140094C0063000238DF80F309DF807209DF80630F3
S2140094D0013B9A4203D101238DF80F300AE09DF834
S2140094E00630002B06D19DF80730072B02D101234A
S2140094F08DF80F309DF80F30184604B0704700B551
S21400950085B00190019B002B01D1002314E0FCF7ED
S214009510DBFE0390019B9B68002B04D10398FCF7AD
S214009520E3FE002308E0019B9B685A1C019B9A609F
S2140095300398FCF7D9FE0123184605B05DF804FB36
S21400954000B585B00190FCF7BFFE0390019B9B68B9
S2140095505A1E019B9A600398FCF7C6FE00BF05B032
S2140095605DF804FB00B585B001900B46ADF80230FF
S2140095700023ADF80C300023ADF80E3012E0BDF835
S2140095800E30019A13441B78BDF80C20114618467D
S21400959000F033F80346ADF80C30BDF80E3001335A
S2140095A0ADF80E30BDF80E20BDF802309A42E6D374
S2140095B0BDF80C30184605B05DF804FB00B585B064
S2140095C001900B46ADF802301346ADF80030BDF8FA
S2140095D0023019460198FFF7C5FF0346ADF80E3076
S2140095E0BDF80E20BDF800309A420CBF01230023C0
S2140095F0DBB2184605B05DF804FB82B003460A46A7
S2140096008DF807301346ADF80430BDF804305BBA69
S214009610ADF804309DF807309AB2BDF804305340D8
S214009620ADF80430BDF804301B111BB203F00F0375
S2140096301AB2BDF9043053401BB2ADF80430BDF881
S21400964004301B039AB2BDF804305340ADF8043022
S214009650BDF80430DBB25B01DBB29AB2BDF8043071
S214009660DBB2DB08DBB29BB21B029BB213439BB29E
S2140096701AB2BDF9043053401BB2ADF80430BDF841
S2140096800430184602B0704700B585B0FCF71CFEE3
S21400969003900C48FBF74FF802900398FCF724FE63
S2140096A0029B002B09D0029B083B0193019B1B6881
S2140096B0019A526810469847E8E700BF00BF05B019
S2140096C05DF804FBA029002082B003468DF8073021
S2140096D09DF90730002B0CDB9DF8073003F01F02C6
S2140096E005499DF907305B09012000FA02F241F8AE
S2140096F0232000BF02B0704700E100E082B0019076
S2140097000091019B03F500531A46009B936400BF2B
S21400971002B0704782B001900091019BDA6C009B0A
S214009720DB431A40019BDA6400BF02B0704782B088
S21400973001900091019BDA6C009B1A43019BDA644E
S21400974000BF02B0704782B00190019B9B6C184628
S21400975002B0704782B003460A468DF807301346BB
S2140097608DF8063000BF02B07047000030B59FB0DD
S214009770914B0FAC1D460FCD0FC495E8070084E84B
S214009780070000231C9300231A9301211520FFF7DE
S214009790E1FF01212120FFF7DDFF0C20FFF794FFFA
S2140097A00B20FFF791FF8548FAF78EFF8448FAF7FB
S2140097B08BFF8448FAF788FF8348FAF785FF8348CB
S2140097C0FAF782FF824B00221A6000231D9316E0F0
S2140097D01D9A13465B0013449B007E4A134416935F
S2140097E0169B0433184601F05BFD1699169B5B68C2
S2140097F01A46724801F08DFF1D9B01331D931D9B79
S214009800092BE5D900231D930FE01D9A13465B0034
S21400981013449B00704A13441793179B19466A48D3
S214009820FAF75AFF1D9B01331D931D9B092BECD99C
S2140098300123042205210020FCF7DCFD012302227F
S21400984006210020FCF7D6FD00238DF855304FF496
S214009850E133119300238DF83C300FAB19465F4877
S214009860FDF7EEFB5E4B1422C3F8AC255C4B4FF4C1
S214009870A022C3F8C4255A4B4FF4C022C3F8BC2517
S21400988001215648FFF753FF4FF0FF315348FFF7CB
S21400989035FF524B4FF440625A6105214F48FDF7A1
S2140098A095FBFBF737F800214E48FAF7E3FF1990CF
S2140098B000214D48FAF7DEFF19904C4B1A4600235C
