S02400004D473231304C2D626F6F746C6F616465722D756172742D786D6F64656D2E73333765
S113000000800020A10000009D0000009501000078
S11300109D0000009D0000009D0000009D00000068
S11300209D0000009D000000382900009D00000094
S11300309D000000782900009D0000009D00000044
S113004010B5054C237833B9044B13B1044800E0D0
S113005000BF0123237010BD180100200000000020
S1130060482B000008B5034B1BB10349034800E0CB
S113007000BF08BD000000001C010020482B000048
S1130080044B054A9A60D3F8882042F47002C3F8FE
S11300908820704700ED00E000000000FEE700004B
S11300A008B5FFF7EDFF00F0E7F80E4B0E48DA1C39
S11300B0121AC11E22F00302994288BF00220B4982
S11300C002F00FFC0A4B0B48DA1C121AC11E22F074
S11300D00302994288BF0022002102F00FFC00F0C5
S11300E05DF800BF18010020000100204C2B000027
S11300F0F003002018010020002070477047012001
S113010070470020704700207047000030B51A4B3C
S113011087B001AA03F1100514461868596808331A
S113012003C4AB422246F7D11B782370134B1B6FD9
S113013003F00703032B1BD0114A9368C3F3044352
S1130140102B17D806A90B4413F8143C0D480E497C
S113015043438B4203D19268C2F30162D340074AFE
S1130160106FC0F301300130B3FBF0F007B030BDC5
S1130170064BF4E7064BF2E7242900000080004018
S11301800000014040420F0000093D0000F0490218
S1130190C0EA21014FF4017002F046BB13B501A877
S11301A000F090FC2D4A936DDB0313D4536B23F4BE
S11301B0FF0323F4FE4343F4BC1343F4A0635363EB
S11301C0136B23F4704343F440431363136B43F4FE
S11301D0E06313639DF80530012B0FD19DF80430C3
S11301E063B94FF000531B681D4B1B681D4B1B6804
S11301F01D4B1B681D4B1B681D4B1B681D4AD2F809
S1130200803043F00303C2F88030FFF77AFF02F036
S1130210EEFA01F03DF801F03DF818B14FF4017029
S113022002F002FB01F06EF8044601F015FA1CB16D
S113023040F203739C4203D140F2012002F0F4FA2D
S1130240A4F20574012C94BF40F203204FF4017012
S113025002F0EAFA002002B010BD00BF00C0004066
S1130260004000200080002000C000200000012089
S1130270004001200080004013B501244FF04023CA
S11302808DF806408DF80740D3F894305B060BD503
S113029002F0DEFAA0F2022080B2072804D804FAA1
S11302A000F010F0C90F02D100F06EFC20B1002361
S11302B08DF806308DF807304FF480435B680133C6
S11302C008D14FF4027002F0A4FA00238DF806302E
S11302D08DF807309DF8073063B14FF4804002F089
S11302E02DF98DF806009DF806301BB94FF4027005
S11302F002F08FFA9DF8063063B14FF48043064A4A
S113030093601846016881F3088881F3098840687E
S11303108746FEE702B010BD00ED00E00020704704
S113032049BA89B24840C0F30313584003B283EA80
S11303300033580100F4FF509BB25840704738B561
S1130340044645181046AC4200D138BD014614F8A5
S1130350010BFFF7E5FFF6E730B501240025074B55
S113036001445C609D601A61DC60884201D1586A76
S113037030BD10F8012B1A62F7E700BF0080084077
S1130380F7B50446203016461D460F46019000F08E
S113039034FCDDE90812019800F033FC002384F8F2
S11303A0587063643368C4F859307368C4F85D30B6
S11303B0B368C4F861302B0C6DBA84F86530A4F8C6
S11303C0665003B0F0BD1FB50C46194600F1480352
S11303D0CDE90142009300F1440200F158032030BA
S11303E000F086FC04B010BD2DE9F04399B00E4630
S11303F015461C460746DDF88090002861D0002988
S11304005FD0002A5DD0002B58D02F4B2F4AB9F172
S1130410000F14BF984690461C22002111A802F038
S11304206DFA2B4B414610A8109300F0FEFA2021E0
S113043010A800F0FAFA0122264B019402920393C9
S1130440CDF810900592069354B1B9F1000F07D07E
S113045001A910A800F0D5FA04A910A800F0D1FA57
S1130460079701271B4C07A910A80897099400F0C7
S1130470C8FA0AA910A80A960B970C940D950E9722
S11304800F9400F0BEFA0DA910A800F0BAFA10A853
S113049000F0D4FA104B00934FF098435A6CD202F8
S11304A0FCD55B6D40F2046003F470230093009B61
S11304B0002B08BF002019B0BDE8F083DFF80C80E2
S11304C0AAE740F20160F6E71F2400801F24FC84A1
S11304D000000106200000207856341210B50446AE
S11304E000F0C0F82046BDE81040002100F0BEB87E
S11304F000F0C1B8014600F0CBB800002DE9F34785
S113050099460A9B0C46196805463F29164642D867
S11305105A68002A41D0224A002E14BFB0469046A1
S113052001F03F07091928BF5A68196024BF013236
S11305305A60AFB1C7F1400AA24521D829465246B4
S113054009EB070002F0CDF90123414600934A4626
S11305503346002000F0A4F8B046403C55443C44E7
S11305603F2C0CD9A3092A46009341463346002068
S113057000F096F824F03F031D4404F03F040027E4
S11305802CB12246294609EB070002F0AAF9002003
S113059002B0BDE8F0879046C2E7DFF80480BFE709
S11305A0B829000030B40546084611461A46DDE96C
S11305B0023425B931B1029430BCFFF79FBF024821
S11305C030BC70470846FBE780AFFFFF2DE9F041E0
S11305D01746146886B01E46E3008DF80F30630991
S11305E052688DF80E30630B8DF80D30630D8DF865
S11305F00C30D30003EB54738DF80B3004F03F043C
S11306005309372C8DF80A304FEA52334FEA5252CD
S113061005468DF80820884694BFC4F13802C4F119
S11306207802CDE900178DF809300D490346002002
S1130630FFF7B8FF082143462A4600970DEB010057
S1130640FFF75CFF284605F1200350F8042B98427D
S113065046F8042BF9D1002006B0BDE8F08100BFB4
S1130660D82900006822002102F048B90023C0E91B
S113067000331846704707B500F128030190009332
S113068000F108030020FFF78DFF03B05DF804FBC1
S113069002460B4600F128010830FFF797BF00001F
S11306A0F0B593B00E4617460446202200210AA84E
S11306B01D4602F023F901204FF0005201970290E9
S11306C00392049605900692079508900992002CCF
S11306D02ED1189C174BA40121460AA80A9300F0B6
S11306E0A4F903990AA80C430394069B04A943F0B4
S11306F020030693099B43F02003099300F081F93A
S113070001A90AA800F07DF907A90AA800F083F955
S11307100AA800F093F94FF098435A6CD202FCD522
S11307205B6D054813F4702F08BF002013B0F0BDB3
S11307300248FBE70004010380ADFFFF80AFFFFF29
S11307401FB5FFF7E3FC4FF47A23B0FBF3F00A4B39
S11307500E2218600021684602F0D0F801238DF8BB
S1130760003040F2FF3369460448ADF8023000F02F
S1130770BEF905B05DF804FB380100200080044098
S113078030B50D4D0D4A2D68536A15FB00F010FA73
S113079083F09CB280B2A0422CBF00240124084BF9
S11307A01880084B1C7011B1536A8342FCD1012399
S11307B005494B61936130BD38010020008004403D
S11307C0340100203601002000A00440094B0A4AED
S11307D05869127800F001000AB108B9704738B9B5
S11307E0586A064B1B88984234BF0020012070478A
S11307F001207047008004403601002034010020AD
S1130800F0B54AB1012530261C4C8D4006FB00444E
S11308100BB341F21006A55130244443072904F1D7
S1130820804404F5703419D80F2765688E00B740EA
S113083025EA070502FA06F63543656052B9012236
S1130840302402FA01F10D4A04FB00209BB141F26D
S11308501003C150F0BD42F21006DCE70F27A1F1EE
S11308600805E668AD00AF4026EA070602FA05F57A
S11308703543E560E2E742F21003EAE700C00340D3
S1130880F0B5114A114C124E00F00105E3695F07FF
S113089013D40DB9334213D103EA00078F4207D1B1
S11308A00B4A1A40002A14BF6FF001000020F0BD6B
S11308B0013AEBD16FF00200F9E74FF0FF30F6E7B1
S11308C06FF00100F3E700BF80969800000003403A
S11308D00200010038B541F6713301220C4C0021AD
S11308E0E569E3630B4B05F48035DA60022360614C
S11308F021202361FFF7C4FF10B92120FFF7C0FFB7
S11309000122054BDA600DB10023E36338BD00BF5B
S11309100000034000100340002003402DE9F04F85
S113092006464FF4502501202A4CDFF8B4C041F6A6
S11309307137CCF8040044F8265030250024DFF841
S1130940A4E0DFF8A49005FB06E5EC652C662C67B3
S1130950214CDFF898A0D4F81C80E763E76800FA1C
S113096006F60743E7604BB9E26818F4803F22F0CB
S11309700102E26000D0E363184628E001F500506C
S113098000EA0900401A984228BF18466161D4F869
S11309901CB087081BF0040F17D1013F3F0147F03B
S11309A060576F66AA66C5F86CA0CCF82460DEF8C0
S11309B034703E42FBD0094F01447E630427CCF8D7
S11309C02860024427611B1ACDE74FF0FF30BDE8D1
S11309D0F08F00BF004004400000034000200440AA
S11309E0001004400000044000E0FFFF1800034032
S11309F04FF098435A6CD202FCD5586D00F4702025
S1130A007047436813B9416070475B685A68012AAC
S1130A10FBD159607047836813B9816070475B6884
S1130A205A68012AFBD159607047C369032B9FBFE1
S1130A3000EB83020133D160C3617047C369042BA7
S1130A4015D84FF09842116CC902FCD504339B00B1
S1130A5013650168103B116041680C30116050F857
S1130A60041C034411604FF09842984200D170472F
S1130A7050F8041B1160F8E7F0B507460F4D104815
S1130A808DB0002B08BF05460E46144600211C22DB
S1130A9005A801F033FF012304A801A93D4344F054
S1130AA000540196049502930394FFF7B4FFFFF7F3
S1130AB0C5FFFFF79DFF0DB0F0BD00BF01000AFFA9
S1130AC0010008FF054B5B69C3F38512827003F0D4
S1130AD03F021B0B42700370704700BF00C0074009
S1130AE0036BDA0702D503695B06F9D4704710B5C6
S1130AF0FFF7F6FF012200F500531A630B79044651
S1130B0048881B0243EA8043487A03434878002814
S1130B1014BF402000200343887A002814BF80209B
S1130B2000200343C87A002814BF20200020034378
S1130B30087B002814BF102000200343487B0028B2
S1130B4014BF0820002003438879002814BF4FF401
S1130B50803000200343636004F580531A630A78ED
S1130B600AB90223E36000236362C8790B7A4979E6
S1130B7043EA8003002914BF102100210B43A36022
S1130B800AB10123E36010BD012313B50422194601
S1130B900320FFF735FE00230093009B632B1ADD2F
S1130BA00123022219460320FFF72AFE00230193A2
S1130BB0019BB3F5FA7F11DB0A4B0022D3F8A44062
S1130BC0012303201946FFF71BFE6FEA540000F0CF
S1130BD0010002B010BD009B0133DDE7019B01332E
S1130BE0E5E700BF00C003404FF098435A6CD202BF
S1130BF0FCD5586D00F4702070472422002101F0C8
S1130C007DBE70B515460E4624220021044601F02F
S1130C1075FE25F04003802B02D0B5F5807F08D106
S1130C202046314640F8045BEA0801F05AFE0020F1
S1130C3070BD6FF01F00FBE72DE9F04104681E460C
S1130C4024F04003802B05468846174692B002D014
S1130C50B4F5807F42D11C2200210BA801F04EFE86
S1130C60204A214B0121B8F1010F18BF13460A9302
S1130C702B1D0193E4081D4B44F0005402910AA873
S1130C8003940497059106930796089101A9099383
S1130C90FFF7B7FE04A90AA8FFF7B3FE07A90AA83D
S1130CA0FFF7B9FE29680AA8C908FFF7BEFE10219C
S1130CB00AA8FFF7BAFE00F0D9F8044650B90AA80A
S1130CC0FFF7BCFEFFF790FF054600F0DDF8002DAE
S1130CD018BF2C46204612B0BDE8F0816FF07104B5
S1130CE0F8E700BF00010104000100041000002027
S1130CF02DE9F04F9BB00746894698461646DDF825
S1130D0094B072B115683B6823F04002802A03D086
S1130D10B3F5807F40F0A0800BEB0903002400931F
S1130D200DE01546EFE7A5B1249A1BF80430525D97
S1130D3001355340269A05F00F05135501344C45EF
S1130D40F1D3002E00F08B80002035601BB0BDE88D
S1130D50F08FA9EB040ABAF10F0F52D91C222946CD
S1130D6013A801F0CBFD3F4B3A6812933B1D03934C
S1130D700123D20842F00052049305923A4A26997C
S1130D80CDF818802AF00F0A07930892CDF8248032
S1130D900A930B920BEB04020C9221444AF000528A
S1130DA00D9312A80E920F9103A910931192FFF7BD
S1130DB028FE06A912A8FFF724FE0CA912A8FFF723
S1130DC020FE0FA912A8FFF726FE09A912A8FFF713
S1130DD022FE396812A8C908FFF727FE514612A857
S1130DE0FFF723FE00F042F80028AFD112A8FFF766
S1130DF025FEFFF7F9FE019000F046F8019B5444EC
S1130E0043BB269B0BEB040A1C44009B9A4501D16F
S1130E104C4694E755B1249A1AF8013B525D0135CA
S1130E20534004F8013B05F00F05EEE7424601216B
S1130E303846249BFFF700FF002887D108F11002F1
S1130E4012F8013D0133DBB21370002BE3D190455E
S1130E50F6D1E0E7184679E76FF01F0076E73046F1
S1130E6074E700BF030300041000002008B500F07D
S1130E702AF830B900F029F8003818BF01204042A0
S1130E8008BD4FF0FF30FBE700F021B800207047A9
S1130E9000207047002070470020704700207047F2
S1130EA0002070470120704700239B6A186970472F
S1130EB00023986A70474FF4004070470120704740
S1130EC041F2060070470020704700207047002060
S1130ED07047000000B591B00023402269464FF4EA
S1130EE08070FFF7C9FDB0F5A02F07D0B0F5302F03
S1130EF0034818BF002011B05DF804FB0048FAE76E
S1130F004CE30F0000B591B00023402269464FF432
S1130F108070FFF7B1FDB0F5A02F07D0B0F5302FEA
S1130F20034818BF002011B05DF804FB0048FAE73D
S1130F306CE30F000048704786E20F00F8B5012704
S1130F40364D002405F580535F6040F6AA636B615B
S1130F5041F20503324E334905F50052AC60EC65AD
S1130F60EB602C61EC61EC649164C6F8AC45C6F8A6
S1130F70C445C6F8BC45C6F8B445C6F8B845EB60E8
S1130F80AB68AB60FFF7C2F8274B21461A6F4FF4EA
S1130F90E113C2F380223A44B0FBF2F202F5E142DB
S1130FA05201B2FBF3F2214B203A03EAC2020220BF
S1130FB03B46EA610422FFF723FC3B463A463946A6
S1130FC00220FFF71DFC1423C6F8AC350223184A8F
S1130FD0C6F8C435C6F8BC2505224FF0F0514FF4CD
S1130FE080206A61134A5760916013495462946384
S1130FF014645465086011481466D4651067104879
S113100048600320A1F50051C2F89040C2F88C401A
S11310104863976402F580521361F8BD008005406F
S113102000C00340FFFF010000800040F8FF7F0084
S1131030020001000000044000400440182A00009F
S113104002000400084B586B10F0020006D0022284
S11310509A6203F5005301205A637047DB6A9B07C9
S1131060FBD40222014BF6E70000044000200440B8
S11310707F2938B50446154623D8FFF7E3FF18B394
S11310802046134B621890420DD1124B01391A8835
S113109061F30E121A80104AC2F8A030022393643E
S11310A035B9002038BD10F8014B03F8014BEAE7CD
S11310B0FFF7C8FF0028FBD0084A93699B06FCD5BC
S11310C0EFE741F20310EDE741F20620EAE700BF43
S11310D0400300200001002000000440008005407F
S11310E0014608B5FFF7AEFF0028FBD0044B9A6910
S11310F05006FCD5D9639A699206FCD5002008BD38
S1131100008005400E4BD86E40F2011398420FD078
S113111040F2022398420DD00A4BC01A0A4B1B68B6
S113112083420AD02ABFC3F50073C01AC01870479F
S11311300020F3E74FF48070F0E70020704700BF11
S1131140000004403C0100203C0300202DE9F8434A
S1131150089F04460D461646F3B9FFF7D3FFA8428D
S113116028BF284600214FF001084FF002091D4A0C
S1131170DFF878E013681C4F04EB000C64451DD1C4
S113118001B1136006B1306041F20423A84234BFB8
S113119018460020BDE8F8832FB1FFF7D1FA0021EB
S11311A03846FFF7EDFAFFF7ADFFA842D5D2002F7E
S11311B0F9D0FFF70BFB0028F5D0CEE71EF803109B
S11311C00133B3F5007F04F8011B04D10023C7F8F1
S11311D010900121D2E7B3F5807F08BFC7F81080D3
S11311E0F7E700BF3C030020001004403C0100204E
S11311F0012307B5002200911946FFF7A7FF03B0AA
S11312005DF804FB10B10222094B9A6271B101220C
S11312100020074B07499A624A630749196707493F
S113122008609A64022203F580531A610020704713
S11312300000044000200440182A00003C03002061
S113124010B50446FFF74CFF182C07D12046FFF7D2
S113125047FF2046BDE81040FFF742BF10BD000025
S113126007B54FF47A710DF10700FFF7C1FF50B9CC
S11312709DF80730313BDBB2022B01D8034AD05C26
S113128003B05DF804FB0120FAE700BF9F2A0000C9
S1131290FFF754BE002310B59B6A92B047226846FC
S11312A017499C6801F01DFB0A22C4F30363092B50
S11312B08CBF373330338DF81430C4F30343B3FB9E
S11312C0F2F102FB113304F00F0430338DF81730C0
S11312D0B4FBF2F302FB134401F1300003F13001DB
S11312E08DF816008DF81910012247216846303414
S11312F08DF81A40FFF7BCFE002012B010BD00BFED
S1131300582A00002DE9F0430024ADF5237D4FF465
S11313108E7221465BA88DF80F4001F0EFFA682227
S1131320214605A801F0EAFA682221461FA801F027
S1131330E5FA3C27FFF704FA0125B14EDFF8D8821D
S1131340DFF8D892062DFDD8DFE815F00B000F006A
S1131350140035004F004401B1000425F2E70546AE
S1131360F0E7FFF797FF0125ECE7FFF779FF3C274C
S11313700546E7E701221121A248FFF779FE202361
S11313801FAA05A95BA800F000FB2C2200219C48A1
S113139001F0B4FAFF23012105207370FFF7F0F97F
S11313A0FFF7B0FE18B101210020FFF72BFF00F07A
S11313B055F90325C6E74320FFF742FF00214FF408
S11313C07A70FFF7DDF9FFF79DFE18B9FFF7FEF914
S11313D00028F8D0FFF796FE0028BED1013FB1D116
S11313E01820FFF72DFF0025ACE7002185220DF121
S11313F0E50001F083FA002140F6B830FFF7C0F9A8
S1131400FFF780FE78B34FF47A730093012304AAA4
S113141019460DF1E500FFF799FE9DF8E530012B23
S11314200DD140F6B832842100920DF1E60004AAF1
S1131430FFF78CFE049B0446842B18D1C8B90DF128
S11314400F010DF1E50000F013F940F6071398427F
S1131450044614D1B3780BB1F37813B918238DF87B
S11314600F3006251DE0FFF7B1F90028C8D040F27F
S1131470047415208DF80F00FFF7E2FE62E780B9CF
S11314809DF8E530012B0CD15F4B314600933AAA0D
S113149080235BA800F0BAFA044610B118238DF833
S11314A00F309DF80F00182808BF0625E4E7012136
S11314B00020FFF7A7FE01210A20FFF761F99DF83C
S11314C00F300122062B08D140F607139C4204D1A9
S11314D01B214E48FFF7CCFD85E71A214846FFF74C
S11314E0C7FDA4F51063B3F5E06F4FF0010222D2FB
S11314F018214748FFF7BCFD40F606139C4222DD45
S11315009DF80F309F2B4FEA13108CBF37303030CB
S1131510FFF7E6FD9DF80F0000F00F0009288CBFCF
S113152037303030FFF7DCFD0D20FFF7D9FD0A20FE
S1131530FFF7D6FD57E710213648FFF799FD40F62F
S113154006139C420BDCB4F5106FD9DDA4F602132C
S1131550042B2BD8DFE803F02C24282E3000A4F52C
S11315608053013B092BCBD8A4F58053013B092BB5
S1131570C6D801A252F823F0CD15000001150000D1
S113158001150000D1150000C1150000C9150000A7
S1131590CD150000C5150000BD150000CD150000D7
S11315A021238DF80F30ABE72223FAE72323F8E752
S11315B02423F6E72523F4E72723F2E74123F0E782
S11315C04323EEE74423ECE74523EAE74F23E8E728
S11315D05023E6E7B378002B39D0F378002B36D0CC
S11315E0337813F004051BD0B06A01F033F80028F7
S11315F03FF4B5AEFFF75FFC01F056F8F3E600BF29
S1131600C00300200D2B0000C82A0000F22A0000AD
S11316101E2B0000B52A0000A22A0000D82A0000D0
S11316209B070FD5AB6A72689B689A4204D9FFF78F
S113163042FC716A00F0CAFF012213214046FFF701
S113164017FD7FE640F2012001F0EEF8F4E740F2E6
S1131650032001F0E9F8C6E6704700000023024ABF
S11316601370024A13707047EC030020ED0300204E
S113167038B503780546042B0C4650D008D8012B06
S11316800AD0032B50D0182340F6031023700DE02A
S1131690182B49D0432BF5E7264B42781978D9B952
S11316A0012A04D0152340F60410237038BD1A70A3
S11316B0AB781A44FF2AF5D100228021E81CFEF7FA
S11316C03EFE95F88320C0F30F239A4216D01523CB
S11316D040F602102370E9E7174B1B78934204D1BC
S11316E0062340F606102370E0E70133DBB2934291
S11316F0DED0152340F605102370D7E795F8843023
S1131700C0B2834204D0152340F601102370CDE704
S11317106A78094B00201A7006232370C6E7062353
S113172040F607100B70C1E7182340F60810237029
S1131730BCE700BFED030020EC03002070B5D1E945
S11317400152AA4205D290F840302B449B1A402BF8
S113175010D9002012E00A6890F84040D65C90F856
S113176041200133224402F03F02013486548B604D
S113177080F840408B689D42EDD8012070BD2DE972
S1131780F8431D461746D1E901329B1A90F84020D0
S1131790044613449D420E469DF820909DF82480F3
S11317A056D9FFF7CBFF00285CD1152341F2020084
S11317B084F84630BDE8F88394F84120A25CFA54DA
S11317C094F841200133013202F03F0284F84120B1
S11317D094F84020013A84F8402094F840200AB15B
S11317E09D42E9D1D6E90121914201D29D4231D8ED
S11317F09D42DAD129463846D4F88820FEF7ACFD5C
S1131800C4F88800B9F1000F04D02A463946E06CC8
S1131810FEF76EFEB8F1000F08D094F843308BB198
S11318202B463A463946A06CFEF7CDFD94F843307A
S113183043B1E36DA26D2B449342E36524BF0023BF
S113184084F84330636D41F203002B446365B1E7D0
S11318500023C2E73268525CFA54B26801330132A1
S1131860B260BFE70020A5E77FB50023CDE90033D0
S1131870082315460DEB03020446FFF780FF41F2EF
S113188003039842064626D194F8433063B10822F4
S1131890E06C0DEB0201FEF72BFE08230DEB0302B7
S11318A01146A06CFEF78FFD039A029B6A6094F8C0
S11318B043202B605AB9094A934208D0084A9342FC
S11318C005D00822E06C0DEB0201FEF711FE6B68F7
S11318D0236500236365304604B070BDF70A0AF738
S11318E0FC0404FC2DE9F347044658680D46904671
S11318F09946002843D08B0744D1FFF7D5FA216ECF
S1131900031D08EB010C63451DD800F11C07B94207
S113191019D28B421E4638BF0E46BC4594BFC6EB57
S11319200C02C6EB0702711AF61A05EB010A06F15E
S1131930680051462044019200F0D3FFFF21504635
S1131940019A00F0DBFFFFF7B6FA226E031D934203
S11319500BD308EB02010830814206D39B1AEA58E4
S1131960C4F880204FF0FF32EA504246D9E90036ED
S1131970206E2946B0470020226E4244226602B0FF
S1131980BDE8F08741F20200F9E72DE9F0410026B5
S11319904FF0FF3804460F46154603F0200380F845
S11319A042301822FF21C0E91866A0F8406080F890
S11319B04360A0F8446080F84660C0F888806830CE
S11319C000F09CFF88223146C4E91275C4F8808077
S11319D0C4F8848004F1900000F090FF84F818614A
S11319E0FFF75AFA20B11FB941F20B00BDE8F081AC
S11319F0FFF750FA30B1002DF6D0E06CFEF76EFD23
S1131A000020F3E7002DF8D12846EFE72DE9F04F49
S1131A100027B7B0CDE90923D7F8349002930446E0
S1131A200E46409D0B97FFF743FA0369403B9945E7
S1131A3000F2E480B8460B9A029B9A425ED294F874
S1131A404630152BF8D8DFE813F08C00A50085008C
S1131A50D6005B0042003900770242007102420066
S1131A60580242007102760356041600E103E503AE
S1131A700104FA0256044FF0000A636D0F2B6ED86E
S1131A80012710230CAA2046CDF804A0009709A929
S1131A90FFF775FE41F203030690069A9A426BD152
S1131AA0D4F848B0FFF746FA80230221CDE90003B9
S1131AB00DAA3B465846FEF763FCDEE70127D4E94E
S1131AC014329A42C0F0A08184F84670B3E74FF014
S1131AD0010AD4E91473BB420B9940D20A9AFF1A43
S1131AE094F84030521A032F1A4440F22982032AF0
S1131AF000F22982204609A9FFF720FE0020B4E065
S1131B000127636D072B96D808230CAA2046CDE93C
S1131B10007709A9FFF733FE41F203030690069A02
S1131B209A4229D1337843F0020333700C9B7360DB
S1131B30236D083B73620D9B0593002B5BD105223B
S1131B4084F8462094F84520636642F0010284F844
S1131B504520D6E70027636D072B40F2048101235B
S1131B6015E007AA204609A9FFF77EFE41F2030308
S1131B700690069A9A4201D0069876E0089B079A46
S1131B80236500236365944B9A4234D1022384F87D
S1131B90463050E707AA204609A9FFF765FE41F23F
S1131BA003030690069A9A42E6D194F84420079BD0
S1131BB022B18A4A93421ED10E23E8E794F84220C8
S1131BC0D7075AD594F84320002A56D184498B422A
S1131BD000F0BD8020D8834A93420CD011D8824AA9
S1131BE0934200F0AD801ED87B4A934203D002F1A9
S1131BF0B642934217D1152384F8463041F20100CE
S1131C0033E07A4A93422BD00DD802F17E42023A55
S1131C109342F0D0764AECE776498B4217D00BD842
S1131C2075498B4215D0152307A884F84630FFF771
S1131C302DF90028E2D116E0684A934218D0013AFF
S1131C409342F0D96D4A9342D5D06D4AD1E710231F
S1131C509DE7112384F84630236DC4E91632EAE681
S1131C60152384F8463041F2080037B0BDE8F08F00
S1131C70FFF710F900289FD0BDE75D4A934256D084
S1131C8037D8584A934250D02ED802F1D54202F5A3
S1131C90E01202F6F742934245D0534A93424AD0A7
S1131CA007A8FFF7F3F8002853D01423079884F803
S1131CB04630C4F88C00FFF7EBF894F842308046C5
S1131CC098067FF5B8AEB8F1000F3FF4B4AED8F87B
S1131CD00430002B3FF4AFAE204698470690069B95
S1131CE0002B3FF4A8AE89E7464A9342D8D1042397
S1131CF04DE7424A93421CD010D8394A934221D02E
S1131D00364A9342CCD1FFF7C5F800287FF473AF6D
S1131D1094F84330002B3FF44FAF6CE7384A9342BA
S1131D20BED1092333E70B2331E706232FE707232B
S1131D302DE70D232BE794F84330002B7FF45BAFA2
S1131D40122324E794F84330002B7FF454AF132379
S1131D501DE7152384F8463094F84330002B82D0D5
S1131D6041F2040081E701230CAA009320460823D2
S1131D70019709A9FFF703FD41F203030690069AB0
S1131D809A427FF4F9AE0C9B03F07F43B3F1407F9A
S1131D9005D0152341F2090084F8463065E70D9B10
S1131DA0D90705930ED594F8423043F0010384F823
S1131DB04230FFF76FF800283FF4CDAE059BDA05FB
S1131DC004D5C8E6FFF768F80028F2D0152341F2DD
S1131DD00A0084F8463048E7EB17A603FC0404FC29
S1131DE0F70A0AF7F40A0AF4F30B0BF3F70909F7F5
S1131DF0F60808F6FA0606FAF90707F9FD0303FDE3
S1131E00FE0101FEF50909F50CAA2046CDE900778B
S1131E1009A9FFF7B4FC41F203030690069A9A421B
S1131E207FF4AAAE06F1080A53460DF1300C0DF109
S1131E30480E624603CA724518605960944603F11D
S1131E400803F6D1106818603378504643F0010354
S1131E503370FFF733F828B9152341F20C0084F8E6
S1131E60463002E700215046FFF71CF800287FF4B3
S1131E7026AEF1E701230EAACDE90033204608235C
S1131E8009A9FFF77CFC41F203030690069A9A42E3
S1131E907FF472AE337843F0040333700F9BB36264
S1131EA073785B0726D5EB238DF8303017238DF834
S1131EB03130A6238DF832305E2300208DF8333084
S1131EC0236D6066C4F8843094F8453043F002030F
S1131ED084F84530EF686FB104222B680CA9B84729
S1131EE00822606E2B68EF680EA91044B847636E31
S1131EF0103363660C2384F84630636D072BB9D91D
S1131F0099E504230CAA2046CDE9007709A9FFF737
S1131F1036FC41F203030690069A9A427FF42CAEF3
S1131F20226D0C9B042A059301D923660127636D56
S1131F30032BE6D90A232AE600236366082326E650
S1131F4097423FF6D7AD402F28BF4027974228BF7E
S1131F501746032F88BF27F003073B460CAA2046E9
S1131F60CDE900AA09A9FFF70AFC41F20303069090
S1131F70069A9A427FF400AE94F84630082B04D1B6
S1131F80D5F808B0BBF1000F22D1042FC7F1040B20
S1131F9088BF4FF0000B03930CAB5A46D819FF21AE
S1131FA000F0ACFC039BBB440A2B1AD16B683BB119
S1131FB0012106F10800FEF775FF00283FF44CAF3D
S1131FC02B465A4620460CA9FFF78CFC069080E568
S1131FD03A462B68606E0CA9D847626E3A44626632
S1131FE077E5052B20D173789F077FF572ADEB68F9
S1131FF0002B3FF46EAD626E042A0BD80BEB020388
S1132000062B07D90DAB9B1A1A68C4F884204FF02D
S1132010FF321A60EF685A462B68606E0CA9B84705
S1132020676E5F44676654E50C2B7FF452AD73789A
S113203058077FF54EADEF68002FECD149E594F8D1
S11320404230990607D5D4F88C00FEF721FF80466C
S113205000283FF4D3AD6B683BB1012106F10800C1
S1132060FEF720FF00283FF4F7AE4FF0010A43E0EB
S1132070002B5ED0B8F1000F5BD0D8F81030002BE5
S113208057D020469847DDE90A73FF1A94F8403088
S11320903B4498423FF62EADD4E91472BF1A402F48
S11320A028BF40279F4228BF1F460CAA3B46204614
S11320B0CDE900AA09A9FFF762FB41F203030690E8
S11320C0069A9A427FF458AD94F842309A0613D592
S11320D0B8F1000F3FF492ADD8F808B0BBF1000F8F
S11320E03FF48CAD2B463A4620460CA9D8470690BF
S11320F0069B002B7FF440ADD4E9142194F84230C0
S1132100914203F02003B3D3002B3FF428ADB8F180
S1132110000F3FF424ADD8F80C30002B3FF41FAD72
S11321202946204698470690069B002B3FF417AD9E
S113213022E50120A7E700230CAACDE900332046BD
S1132140042309A9FFF71BFB41F203030690069A37
S11321509A427FF411ADD4F88820684B9A4205D096
S1132160152341F2050084F846307EE5FEF792FE21
S1132170002842D10123F37094F845309B0707D01F
S1132180EF682FB104222B68104604F18401B8478C
S1132190236E002B34D06B6893B34FF0FF3304F1FC
S11321A08001042205A80593029100F08AFB40B146
S11321B0FEF781FE28B1D5E90037042202991044C4
S11321C0B84704F168070422394605A800F079FBF2
S11321D0B0B1D5F80480FEF767FE2B6804F16C01FA
S11321E014220830C047D5F80480FEF75DFE0422AF
S11321F039462B681044C04702E0F378002BBBD16A
S11322000123B3700F2384F8463077E4012384F864
S11322104330BCE494F81831002B7FF40CAC4A46EC
S11322201CAB204609A9FEF74BFE41F206030690BB
S1132230069A9A4203D1152384F846309CE441F26D
S11322400303069A9A423FF4F6AB95E494F84430BB
S1132250002B7FF484ACCDE900330CAA4023204644
S113226009A9FFF78CFA41F203030690069A9A42F1
S11322707FF482ACE06CFEF73DF994F81871A7B1D5
S113228004F1B403009304F19403E06C14AA0CA9C0
S1132290FEF7AAF80690069B43B30023F3701523B8
S11322A041F2060084F84630DFE4FEF7F7FD88B11A
S11322B0D9F83830E06C03F124020092043314AAF4
S11322C00CA9FEF791F80690069B002BE3D03B4641
S11322D00097DAE7E76CFEF7FDFD0390FEF712FEC8
S11322E0039B009014AA38460CA9D1E70123F3708C
S11322F084F8443033E441F20700B6E4E320BBDE63
S11323004FF098435A6CD202FCD5586D00F47020FB
S11323107047C0F30C032DE9F04105460F461646FD
S11323200BB900F0B0FA05F5005424F4FF5424F07E
S11323301F0405EB0608A04507D83246394628464F
S1132340BDE8F041022300F0A5BA204600F09BFA54
S113235004F50054EFE737B5044615460191FEF73E
S1132360A7FD0369A3420BD8426963199A4207D3B4
S11323702A462046019903B0BDE83040FFF7C9BFA3
S113238003B030BD2DE9F041154607468846FEF7F7
S11323908FFD0646FEF78FFDC4196319B3F5801F40
S11323A00FD83FB9FEF787FD7369834202D93069BC
S11323B000F069FA2A4641462046BDE8F041FFF79D
S11323C0A8BFBDE8F08100007FB50346D0B16D46DB
S11323D00D4A02F110062C4610685168083203C4F5
S11323E0B2422546F7D15A1E0DF10F010F3311F8F1
S11323F0010912F8014F844204D19A42F7D1012015
S113240004B070BD0020FBE7362B0000036913F015
S1132410FE0F0CBF01200020704738B504460D465E
S1132420FFF7D2FF48B16369012B09D12046FFF7BA
S1132430EDFF08B1A3692B6038BD01202C60FBE7D8
S11324400020F9E740F204632DE9F041A4B0446BA5
S113245005460893FEF72CFD06462046FFF7B4FF19
S113246018B9002024B0BDE8F0812046FFF7CEFF64
S11324700028F6D0FEF714FD002849D14FF00008DB
S1132480D8F834703846FFF79FFF0028E9D0336945
S1132490403B9F42E5D820460DF11F018DF81F8077
S11324A0FDF72DFE0028DCD0204609A9FFF7B5FF73
S11324B00028D6D0099B32699A42D2D8AB42D0D3F5
S11324C0B3F5801FCDD80AA8FEF708F8099A294663
S11324D0521B0AA8FEF70CF80AA8FEF70BF8099A93
S11324E020320392FEF7DAFC0999039AC8B19DF8E9
S11324F01F30A3B1A36B03F12400009004330AA896
S1132500FDF772FF08900898B0FA80F04009A9E737
S11325100121206AFDF7F0FD0028AFD1A1E7BB6BD4
S1132520E9E7CDE90421FEF7D5FC0390FEF7EAFCC8
S1132530DDE9033205990090E1E70000F8B5D0E940
S1132540006706F160460446456BFEF7B1FCB6F53C
S1132550C03F01D90020F8BD0369BB42FAD8B7F5E2
S1132560801FF7D84033AB4202D8B5F5801F05D998
S1132570FDF7D4FE80F00100C0B2ECE7FDF7CEFE1B
S113258020B12046BDE8F840FFF75CBF2846FFF7BE
S11325901BFFB8B12846FFF739FF0028DAD06B6972
S11325A0002BD8D0022BECD1AB69C4F1040119443F
S11325B04FF0FF322046FDF7CFFE034BC31A5842BB
S11325C05841C8E70120C6E7E320BBDE70B54FF0F1
S11325D0FF3290B005460C46FDF7BEFE1A4B9842FA
S11325E02FD11C22002101A800F088F9174B29469D
S11325F068460093FEF719FA21466846FEF715FA75
S11326006846FEF71BFAFFF77BFE0646C8B9FDF7DE
S113261075FD40F2022000F0FCF81C22314609A8A6
S113262000F06CF90A4B294608A80893FEF7FDF957
S113263008A82146FEF7F9F908A8FEF7FFF9FFF705
S11326405FFE002010B070BDE320BBDE0100054337
S1132650010006434FF0FF3310B58CB01C2200215B
S1132660044605A8009300F049F90D4BCDF804D0B9
S11326700493012302930B4B04A801A90393FEF7CF
S1132680CAF904A8FEF7DAF9FFF73AFE30B9009B5D
S1132690A3422CBF002001200CB010BD0020FBE79A
S11326A0000008430400002030B5044691B01C2209
S11326B0002101A800F022F9114B2146684600933D
S11326C0FEF7B3F96846FEF7B9F9FFF719FE0546B8
S11326D098B940F2022000F09CF81C22294609A86F
S11326E000F00CF9074B08A821460893FEF79DF962
S11326F008A8FEF7A3F9FFF703FE002011B030BDD0
S11327000000024300000343B1F50A7F10B50446FC
S11327100FD34FF40A72002100F0F0F804F5D872D8
S113272004F5A47104F12C000023BDE81040FFF768
S11327302CB940F2052010BD13B5044600910146A2
S11327402C30FFF763F9C4F8240218B141F20703EF
S1132750984209D1A3784BB140F2032040F20223FE
S1132760E278002A08BF184602B010BD40F20120EA
S1132770FAE72DE9F04387B00DF1080904460E4647
S113278017460021102248461D46DDF8388000F027
S1132790B5F800211C22C8F80010284600F0AEF855
S11327A032463B462146CDF8009004F12C00FFF759
S11327B02DF923789A0744BF6268C8F80020DB0724
S11327C009D504F1080304F1240253F8041B9342CD
S11327D045F8041BF9D1237840F20640002B18BFBA
S11327E0002007B0BDE8F0834FF40A7070474FF043
S11327F000534CF23C325A8070474FF000534AF673
S1132800C0305B8823F00F039BB21B1A5842584117
S113281070474FF0005208B51080FFF7EEFF10B973
S11328204FF20F03538008BD08B5FFF7F2FFBFF363
S11328304F8F0549054BCA6802F4E0621343CB602D
S1132840BFF34F8F00BFFDE700ED00E00400FA0581
S113285008B5FFF7D2FF30B94FF000534FF20F0124
S11328605A888A4203D14FF00053188808BD3AB9F8
S11328701B8840F20220012B18BF4FF40070F5E7CB
S11328804FF40070F2E708B5FEF724F8B0FA80F0D0
S1132890400908BD072B10B5044618460FD862B18D
S11328A042EA04039B070AD113460A462146FEF76F
S11328B035F8B0FA80F0400910BD0120FCE7002093
S11328C0FAE70139024410B5904201D1002005E035
S11328D0037811F8014FA34201D0181B10BD013039
S11328E0F2E70A44431E914200D1704710B511F833
S11328F0014B914203F8014FF9D110BD0244034644
S1132900934200D1704703F8011BF9E7F8B500BF03
S1132910F8BC08BC9E467047F8B500BFF8BC08BCBC
S11329209E4670470400000700000D1013001A2093
S1132930263038405000000007B0CD5E0100000092
S113294000000C01682B0000004000000000100093
S1132950F000100003010000070100003D25000005
S11329600927000039270000000000007327000039
S1132970E92700000000000013B779FAC925DDB784
S1132980ADF3CFE0F1B614B801010000000000007F
S1132990642B00004000000000000C010000000057
S11329A00000000000000000000000000000000023
S11329B000000000000000006A09E667BB67AE85FE
S11329C03C6EF372A54FF53A510E527F9B05688C0D
S11329D01F83D9AB5BE0CD1980000000000000002C
S11329E000000000000000000000000000000000E3
S11329F000000000000000000000000000000000D3
S1132A0000000000000000000000000000000000C2
S1132A100000000000000000F00F100324800540B7
S1132A203C01002013000000090000000001000028
S1132A300202000013000000F00F10032480054080
S1132A403C02002013000000090000000002000006
S1132A5001010000D3FFFFFF0D0A4765636B6F2080
S1132A60426F6F746C6F616465722076582E595989
S1132A702E5A5A0D0A312E2075706C6F61642067CE
S1132A80626C0D0A322E2072756E0D0A332E20658B
S1132A90626C20696E666F0D0A424C203E20000273
S1132AA005000D0A4661696C656420746F20626FCD
S1132AB06F740D0A000D0A66696C65206572726F89
S1132AC0722030780000000000000000572300004E
S1132AD000000000852300000D0A53657269616CD3
S1132AE02075706C6F61642061626F727465640D2F
S1132AF00A000D0A53657269616C2075706C6F6110
S1132B006420636F6D706C6574650D0A000D0A6254
S1132B106567696E2075706C6F61640D0A000D0A3B
S1132B20584D6F64656D20626C6F636B20657272C3
S1132B306F7220307800B814B6F1E0CFF3ADB7DD92
S10F2B4025C9FA79B7130000000000005A
S1132B4CF07F1030400300203C8005400000000062
S10B2B5C6500000041000000C7
S90300A15B
